:020000040800F2
:10000000282A0020C1460008BD460008BD46000859
:10001000BD460008BD460008BD46000800000000BF
:10002000000000000000000000000000BD460008C5
:10003000BD46000800000000BD4600086108000839
:10004000BD460008BD460008BD460008BD46000884
:10005000BD460008BD460008BD460008BD46000874
:10006000BD460008BD460008BD460008BD46000864
:10007000BD460008BD460008BD460008BD46000854
:10008000BD460008BD460008BD460008BD46000844
:10009000690E0008050F0008BD460008BD460008AF
:1000A000BD460008BD460008BD460008BD46000824
:1000B000BD460008BD460008BD460008BD46000814
:1000C000BD460008BD460008BD460008BD46000804
:1000D000BD460008090B0008BD460008BD460008E3
:1000E000BD460008BD460008BD46000800000000EF
:1000F0000000000000000000000000000000000000
:1001000000000000000000005FF808F1224A0388A8
:1001100090429BB212D002F5006290420ED0B0F134
:10012000804F0BD0A2F59832904207D002F5806242
:10013000904203D002F58062904203D14A8823F0B6
:1001400070031343154A904208D002F58062904232
:100150001FBF23F44073CA889BB2134303808B886C
:1001600083850B8803850C4B98420FD003F5006301
:1001700098420BD003F54063984207D003F58063A3
:10018000984203D003F58063984201D10B7A03862D
:1001900001238382704700BF002C01400010004003
:1001A000038C70B523F001031B041B0C0384028C29
:1001B0008688038B0D8823F073031B041B0C1D43DF
:1001C00022F002020C894B881204120C23431343C1
:1001D000144AB6B290429BB20FD002F50062904230
:1001E0000BD002F54062904207D002F58062904247
:1001F00003D002F5806290420ED14C8923F00803AF
:100200001C438B8824F0040426F4407223438E8917
:10021000CC893443224396B2CA888680058382867D
:10022000038470BD002C0140038C30B523F0100313
:100230001B041B0C0384038C8588028B0C8822F41E
:10024000E6421204120C42EA042223F0200394B284
:100250001B040A891B0C43EA02134A88ADB243EA25
:100260000213124A9BB2904203D002F50062904200
:1002700015D123F080034A899BB243EA02124FF65C
:10028000BF7313408A8825F4406543EA02138A89C4
:100290009BB245EA8205CA8945EA8205ADB2CA88A1
:1002A000858004830287038430BD00BF002C014099
:1002B000038C30B523F480731B041B0C0384038C64
:1002C0008488828B0D8822F073021204120C23F4AE
:1002D000007315431B040A891B0C43EA02234A8856
:1002E000A4B243EA0223124A9BB2904203D002F521
:1002F0000062904215D123F400634A899BB243EA1D
:1003000002224FF6FF3313408A8824F4405443EA14
:1003100002238A899BB244EA0214CA8944EA02147D
:10032000A4B2CA88848085838287038430BD00BFDD
:10033000002C0140038C30B523F480531B041B0CAC
:100340000384038C8488828B0D8822F4E642120495
:10035000120C23F4005342EA05221B040D891B0CE6
:1003600043EA05334D88A4B243EA05330A4D92B2FD
:10037000A8429BB203D005F50065A84205D18D893E
:1003800024F4804444EA8514A4B284808283CA8819
:10039000A0F84020038430BD002C0140038819B12F
:1003A0009BB243F0010303E023F001031B041B0C89
:1003B00003807047B0F8443029B16FEA43436FEAD5
:1003C00053439BB201E0C3F30E03A0F844307047DF
:1003D00083899BB20AB1194301E023EA01018181BB
:1003E0007047410746BFC30843F00043430D8207EF
:1003F00048BF43F08043184670470000094B9A6994
:1004000012F0700F0DD000229A61074A5168013135
:100410005160127F12B99B695B0702D5034A014BF9
:100420009A60704700640040600400208080800073
:1004300070B50C4615461E4603F0C8FC50B9022E96
:100440000AD1012D08D12EA3D3E900232846C4E9FF
:10045000002303E0002001E04FF6FF7000B2012806
:100460004AD0013047D0022E15D140F2F2339D42DE
:100470000AD040F206439D423DD123A3D3E9002395
:100480000120C4E9002370BD21A3D3E9002301208A
:10049000C4E9002370BD012E2DD1013D0A2D2AD8BB
:1004A000DFE805F00629290D14292929291B220036
:1004B00019A3D3E900230120C4E9002370BD18A3C8
:1004C000D3E900230120C4E9002370BD16A3D3E9BA
:1004D00000230120C4E9002370BD15A3D3E9002344
:1004E0000120C4E9002370BD13A3D3E90023012038
:1004F000C4E9002370BD002070BD00BFAFF30080D1
:10050000401DA12026812A0B1D95ECD7875C7F21F9
:10051000F33AEC386248A7D89E6AC421818A46EE35
:10052000042B31ECA7766FBEF017304A39059E5682
:10053000CDD269EBC51A133BD5A4D139F922B6A7A0
:1005400010B5074C40F22551204604F09FFA204692
:10055000BDE81040012240F2255104F07FBA00BFEF
:100560000038014010B50E4C3823E360204623616B
:10057000022104F0D1F82046102104F0CDF8094AF8
:1005800000231380084A204613800221012204F030
:10059000BBF82046BDE810400122102104F0B4B899
:1005A00000640040A0040020A604002000EB8000AE
:1005B000430018460138FDD87047402808B5024668
:1005C00009D8BDE80840C0EB401002EB8000C00035
:1005D00080B2FFF7EBBF4FF47A70FFF7E7FF013A05
:1005E00092B2002AF7D108BD38B5044605F098FE4E
:1005F00080B20246002330B1013880B2215C2E293E
:1006000008BF0346F7E713B9013A202010E0013B89
:10061000202182B29A4205DAA55C0130302D0AD140
:10062000A154F6E738BD655C0133302D03D1605429
:1006300099B29142F7DB38BD0309092B00F00F0096
:1006400094BF3033373309280B7094BF30303730C4
:10065000002348708B70704713B50A46044601A901
:10066000C0B2FFF7E9FF200A1146FFF7E5FF9DF84A
:10067000043093709DF80530D3709DF806301371E7
:1006800002B010BD13B50A46044601A9C0B2FFF777
:10069000D3FF9DF8043001A993719DF80530C4F390
:1006A0000720D371FFF7C8FF9DF8043001A913712B
:1006B0009DF80530C4F307405371FFF7BDFF9DF867
:1006C000043001A993709DF80530200ED370FFF718
:1006D000B3FF9DF8043013709DF80530537000236C
:1006E000137202B010BDF8B50D46069C00212170B2
:1006F0002978752931D16E78632E01D1017807E010
:10070000692E01D1018803E06C2E40F0A7800168BA
:10071000AF78682F17D1632E05D12146BDE8F84088
:100720000078FFF789BF692E05D12146BDE8F84062
:100730000088FFF791BF6C2E33D12146BDE8F84009
:100740000068FFF79FBF2B2F2BD111B12770012617
:1007500028E020202070012624E073297ED16978CA
:10076000632902D190F9001007E0692902D1B0F99C
:10077000001002E06C2971D10168A8782B280AD1F9
:10078000002903DA2D202070012608E008BF202070
:100790002070012606E000294FF0000602DA4942E7
:1007A00000E00026174618464FF0300E002806DA03
:1007B000013FBFB2013004F807E000B2F6E703EAF8
:1007C000E373134418BF01309BB218BF00B20A276D
:1007D0004FF02E0C9E4210D2013B9BB2C3EB020E97
:1007E00086451FBFB1FBF7FE07FB1E113031E154F8
:1007F0000CBF04F803C07146ECE70023A3547A2130
:10080000284605F0C7FC48B3AB782B2B0FD1601CF2
:10081000FFF7EAFE204605F083FD0123834205D25F
:10082000E25C202A0BD101339BB2F7E7F8BD2046EA
:10083000FFF7DAFE204605F073FD01230BE0227876
:10084000234403F8012C20232370F8BDE25C202A06
:10085000F5D101339BB28342F8D3F8BDF8BD000057
:10086000034B0122DA831A6A01321A62704700BF11
:10087000600400200B4B0021D98319620A4B0B4AFC
:100880001B68F020B3FBF2F34FF47A725343084A2B
:10089000013B5360074B83F82300072391601360EB
:1008A000704700BF600400200400002040420F0099
:1008B00010E000E000ED00E02DE9F84F254B264D5B
:1008C00001281CBFAA461D46894614462349244ACE
:1008D00006BF9A468846904604F0ECF8284604F095
:1008E00061F90428074630D14FF6FF7BB9F1000FBC
:1008F00008BF4FF47A74013405F1100624F00104A6
:100900003444C5EB0A0AA64217D0B9F1000F03D14F
:100910003AF8061089B203E0731B4B4433F8101CFD
:10092000594501D10236EEE7B0450DD9304604F005
:10093000F3F804280746F5D007E04FF011312846B8
:1009400004F006F9074600E0802704F0BDF83846B9
:10095000BDE8F88F00E0010800E40108FFE70108A6
:10096000FFE3010810B504F0A5F8074804F01AF9F0
:100970000428044603D1054804F014F9044604F0A1
:10098000A3F8204610BD00BF00E0010800E4010804
:100990000131C1F34F0100239AB291420AD9B3F554
:1009A000FC7F09D0054A1A445200128820F813200F
:1009B0000133F1E7042070478020704708F00004FD
:1009C00038B50A4604460D4601460020FFF774FF7D
:1009D000C0B2042801D080B238BD2A462146012089
:1009E000FFF76AFFC0B238BD38B5164B1D68D3F8A3
:1009F0000044B5F1113F07D1B4F1113F01D10420FA
:100A00001DE0621C0ED104E06B1C0BD1B4F1113F50
:100A100008D1002211460120FFF74EFFC0B2042882
:100A20000DD1ECE7FFF79EFFC0B2042807D10135D6
:100A300004D1013414BF4020202000E0402080B2C7
:100A400038BD00BF00E001081FB501214FF4006070
:100A500003F076FF0023ADF80A30ADF806304FF60C
:100A6000FF73ADF80830094B094A1B68094CB3FB0A
:100A7000F2F304A9013B21F80C3D2046FFF746FBA9
:100A800001212046FFF78AFC04B010BD04000020BD
:100A900040420F00002C014030B472B60D4B988CD0
:100AA00080B262B60C490B8AD1E90245834204D96F
:100AB000013445F10005C1E902452B04220443EA53
:100AC0001443141843F1000508822046294630BC1F
:100AD000704700BF002C0140C007002008B501206E
:100AE000FFF7B2FF064B00219A8C064B92B21960B9
:100AF000002000219A80C3E902011A8208BD00BFCC
:100B0000002C0140C0070020194B10B5198889B28C
:100B10008A060FD5174C18489A8823880088013315
:100B200003F07F0380B2834292B21FBF1348D2B258
:100B3000C25423800B061AD5114B124A1988138808
:100B400089B29BB299420BD013880133C3F30903D6
:100B5000138013880C4A9BB2D35C054A938010BD66
:100B6000034A938923F080031B041B0C938110BD5F
:100B700000380140BA070020BC070020041F0020F5
:100B8000A2040020C21E0020841F0020044B1888ED
:100B9000044B80B21B889BB2C01A18BF012070475B
:100BA000BA070020BC07002010B50948094C21886D
:100BB000038889B29BB29942054AF8D01388013361
:100BC00003F07F0313801388034A9BB2D05C10BDEF
:100BD000BC070020BA070020041F0020024A00239F
:100BE0001380024A13807047BC070020BA07002018
:100BF0001FB5002300900C2269460848ADF8043068
:100C0000ADF80630ADF80830ADF80A20ADF80C307C
:100C100003F0AEFE05B05DF804FB00BF00380140F4
:100C20007FB5334C012144F2050003F089FE4FF4F7
:100C30000073ADF8003003251823694620468DF86F
:100C400003308DF8025003F0A5FD4FF48063694630
:100C5000ADF800302046482304F540548DF80330A9
:100C60008DF8025003F096FD02A803F0E5FE02A9FC
:100C7000204603F0D1FE4FF4E130FFF7B9FF252302
:100C80008DF8043001260F2301A88DF805308DF86A
:100C900006308DF8076004F055F80022204640F237
:100CA000277103F0DBFE204640F2277103F0EEFED1
:100CB000204640F2266103F0E9FE0E4B00251D8020
:100CC0000D4B2A46204640F225511D8003F0C6FEFA
:100CD000204640F2255103F0D9FE084B31461D80D5
:100CE000074B20461D8003F0ADFE04B070BD00BF71
:100CF00000080140C21E0020A2040020BC07002002
:100D0000BA07002008B5FFF78BFFBDE80840FFF7E2
:100D100017BC000070B504460646044D0FCD0FC445
:100D200095E8070084E80700304670BD60040020A5
:100D3000044B986800F0E05000F164435842584179
:100D4000704700BF006400402DE9F34105460028CC
:100D50007DD0046814F000547CD1FFF74FFB3F4B6B
:100D60009A6802F0E052B2F1E05F51D09A682646EC
:100D7000C2F380628DF804209A689B68C2F3C06257
:100D8000C3F300738DF805208DF80630FF2401AB06
:100D9000F35C0BB1F4B234E0330103F1804303F5AB
:100DA000CB431868FFF71DFB2F684FEAD07C4FEA52
:100DB000D778E04527F0604320F0604207F0004E0E
:100DC00000F0004110D0BEF1000F00D09B0C19B113
:100DD000900C984215D002E09A4217D010468342F8
:100DE0002CBF002001200BE0934205D1C0F380709E
:100DF000C7F38077874203D193422CBF00200120A4
:100E000020B10136032EC2D1FF2C01D1002022E0F7
:100E100023012A7C03F1804303F5CB435A60EA683F
:100E20002968DA60AA6800299A60BABFCA0042F04D
:100E300004024A05490048BF42F0020242F00102A2
:100E40001A60074A012053690133536103E06FF0D0
:100E5000010000E0034802B0BDE8F08100640040FA
:100E60006004002015FCFFFF2DE9F041204F214ACE
:100E70003D881388013505F07F059BB29D42904661
:100E80001D4C1CD01D4EF368DB0642BF23680133A6
:100E90002360D6F8B001FFF7A4FA18236B43184972
:100EA000C850CA18D6F8B43103F00F031374D6F83B
:100EB000B8319360D6F8BC31D3603D8002E0A368BE
:100EC0000133A3603B889AB2B8F800309BB2D31AC2
:100ED000228A48BF80339342C4BF074A1382A36962
:100EE00038220133A361054BDA60BDE8F08100BF11
:100EF000A6040020A004002060040020006400403C
:100F0000800800202DE9F041204F214A3D881388B8
:100F1000013505F07F059BB29D4290461D4C1CD0CB
:100F20001D4E3369DB0642BF236801332360D6F8C8
:100F3000C001FFF756FA18236B431849C850CA1866
:100F4000D6F8C43103F00F031374D6F8C831936098
:100F5000D6F8CC31D3603D8002E0E3680133E36032
:100F60003B889AB2B8F800309BB2D31A228A48BFA5
:100F700080339342C4BF074A1382A36938220133E6
:100F8000A361054B1A61BDE8F08100BFA6040020F3
:100F9000A0040020600400200064004080080020BD
:100FA000F8B500B3FFF72AFA114D124B1A882B88B7
:100FB00092B29BB29A4219D02A880F4C0132182360
:100FC00002F07F0203FB0244034604F118072646A1
:100FD00003CEBE4218605960344603F10803F6D1CF
:100FE0002A800120F8BD6FF00100F8BD0020F8BD97
:100FF000A0040020A60400208008002037B5142398
:101000000024012501A88DF804308DF805408DF8E5
:1010100006408DF8075003F095FE152301A88DF8C2
:1010200004308DF805408DF806408DF8075003F028
:1010300089FE03B030BD0000012810B503D1BDE822
:101040001040FFF78FBA0E4C00220221204603F019
:101050005BFB00221021204603F056FB02212046B4
:1010600003F05AFB1021204603F056FB3823054AB3
:10107000E360236100231380034A138010BD00BF87
:1010800000640040A0040020A6040020032970B5DD
:1010900004460D463ED800283CD00388013B9BB255
:1010A000B3F5806F36D2C388013B9BB2032B31D896
:1010B0004388013B9BB20F2B2CD88388013B9BB20A
:1010C000072B27D8474E1C223046002104F0CAFFC8
:1010D000AA1E534253413377434B00225A611A6888
:1010E0004FF47A7622F002021A601A6842F0010286
:1010F0001A601A4653683C49DB070ED44FF47A70E5
:10110000FFF754FA013EF5D14FF400430B606FF442
:101110007A7070BD6FF0010070BD61230B60E288D2
:101120006388013A013B12061B0403F4702302F0AA
:1011300040721A432388012D03F1FF33C3F30903DF
:1011400042EA0302A3884FF47A7403F1FF334FEAB3
:10115000035303F4E00343EA02030CBF4FF00042E1
:101160000022032D43EA02030CBF4FF0804200220D
:101170001343CB610B6823F001030B6048681A4AE4
:1011800010F001000AD04FF47A70FFF70FFA013C1B
:10119000F4D14FF400431360144870BDD2F800320C
:1011A00023F47C5323F00E0343F4606343F0010304
:1011B000C2F800326FF07043C2F80402C2F80C3279
:1011C0000B4BC2F814320123C2F84002C2F84402A9
:1011D000C2F81C32D2F8003223F00103C2F8003208
:1011E00070BD00BF600400200064004016FCFFFFDB
:1011F000AAAAAA0AF0B500283DD00E293BD8064677
:101200001E4F0022C7F81C224FF0010E93B29942E4
:101210002FD950F83250002D02DB7368002B05DB0C
:101220007368EC00DB0044F0040401E06C055B052E
:101230006D00756848BF44F00204002DB8BF43F04C
:1012400004036D004FEAC20505F1804548BF43F035
:10125000020305F5C845C5F84042C5F84432D7F841
:101260001C320EFA02F42343C7F81C32013208364E
:10127000CCE70020F0BD6FF00100F0BD006400403D
:1012800013B5044601214FF0007003F065FB012106
:101290001CB1092003F054FB02E0042003F050FBD2
:1012A00048238DF8073003238DF8063044B14FF4FE
:1012B000807301A91648ADF8043003F06BFA07E01B
:1012C0004FF4006301A91348ADF8043003F062FA4B
:1012D00018238DF8073003238DF806306CB14FF4D6
:1012E000007301A90A48ADF8043003F053FA012154
:1012F0004FF4EA1003F0A6FA07E04FF4805301A977
:101300000448ADF8043003F045FA02B010BD00BF48
:10131000000C01400008014010B50446074802F0E7
:1013200055FD230403F47F0343F0802343F080033F
:1013300000F07F0043EA002010BD00BF84140020AD
:1013400008B504F0E7FE03F005FE4FF0405103F04E
:1013500055FE08BD08B518220021044804F082FE9D
:10136000BDE80840002004F0CBBE00BF8823002069
:1013700038B50C460546002101602346C0F803102D
:10138000202202F039FF231D02222021284602F0EC
:1013900033FFA31D03222221284602F02DFF04F172
:1013A000080303222521284602F026FF04F10A0340
:1013B00010222821284602F01FFF044802F006FDF3
:1013C000034BA0811B78E38138BD00BF841400204B
:1013D000B807002010B5FFF75FFB064A002303F0B3
:1013E000F9FF054C20602146BDE810400348FFF797
:1013F000BFBF00BF40420F0090040020A81C002087
:1014000030B50F4C87B02388A3B104F628052846D1
:10141000FFF7E0FF0723049314230293094B03957E
:10142000019340F25513201D009303A3D3E9002339
:1014300002F0CEFC07B030BDF1C6A7C1D068080FDE
:1014400080140020B807002010B5064C102200219F
:10145000204604F007FE044B00221A700123E380AB
:1014600010BD00BF90040020B8070020000000005D
:10147000F7B5044640F279120E46002104F0F2FD61
:101480002046FFF7A7FF18A1D1E90001102323721E
:10149000002502AB012763E90201E571204667726E
:1014A0002022502102F0A8FE0D4AA7751346E575CB
:1014B00003CBA061E16118680A4B206210682934EF
:1014C00044F8050C03F1180253F8041B934244F846
:1014D000041BF9D11B7823704223338003B0F0BD85
:1014E000E8F7FF1F38670008ED04AE0500000000B4
:1014F00070B5134D88B02B880446CBB105F628068D
:101500000DF11E013046FFF7B3FFBDF81E30E17E3E
:101510000593002304960393A37E193402930123B9
:101520000093019404A3D3E90023281D02F0A3FC37
:1015300008B070BDAFF300809E6AC421818A46EE78
:101540008014002070B505468AB00E46492200215D
:1015500004F088FD03A8FFF7DDFB089B00248DE85D
:10156000180021466B462846302202F045FE099BB2
:1015700030228DE8180011466B46284602F03CFEEA
:10158000039B049A60211A44059B28461A44069B33
:1015900013448DE8180030226B4602F02DFE122312
:1015A00033800AB070BD000070B5134D88B02B8831
:1015B0000446CBB105F628060DF11E013046FFF7B3
:1015C000C1FFBDF81E30E17E05930023049603930E
:1015D000A37E1934029304230093019404A3D3E956
:1015E0000023281D02F047FC08B070BDAFF3008057
:1015F000042B31ECA7766FBE8014002037B504466B
:101600000D461022002104F02DFD00231946009400
:101610002822284602F0C4FCEB7E23816B7E638186
:1016200003B030BD10B4002404700B4601222146E3
:1016300010BC02F0E1BD00001FB501466846FFF78F
:10164000DDFFDDE9000106A3D3E90023994206BFCF
:1016500090420120002005B05DF804FBAFF300804C
:101660001E1B55CEAC0000000149FFF7DBBF00BFD9
:101670008E0400200000000070B5114D86B02B884C
:101680000446B3B105F628063046FFF7EDFF012307
:10169000E17E0593002304960393A37E19340293FD
:1016A00005230093019404A3D3E90023281D02F02D
:1016B000E2FB06B070BD00BFF017304A39059E56F8
:1016C00080140020014B00221A8070478E040020F5
:1016D00037B50D4604460023036083801946009009
:1016E0000822284602F05CFCEB7E63806B7EA380C0
:1016F00003B030BD002202600B46C0F80320302149
:10170000012202F079BD00000149FFF7F3BF00BFDD
:10171000C01E00200000000070B5114D86B02B885F
:101720000446B3B105F628063046FFF7EDFF072360
:10173000E17E0593002304960393A37E193402935C
:101740000A230093019404A3D3E90023281D02F087
:1017500092FB06B070BD00BFCDD269EBC51A133B3A
:101760008014002073B50D461446009200230968CA
:101770000322064602F014FC296823880331012B5A
:1017800029600CD0022B13D10834012300942022AD
:10179000304602F005FC2B6820332B6008E008344B
:1017A00000944022304602F0FBFB2B6840332B6054
:1017B00002B070BDF0B50E460746002485B0402249
:1017C0002146039404F04EFC23460D222146009747
:1017D000304602F0E5FB039B04A90D3341F8043DBC
:1017E00007F108023046FFF7BDFF039DB38A0735B6
:1017F000A3EBD5052DB21F2DA8BF1F25A2B2AA426B
:1018000004F101040CDA18323A4400920023082251
:101810000399304602F0C4FB039B08330393EDE7C2
:10182000F37E3B87737E7B8705B0F0BD70B50C46B9
:101830001546134609680322064602F0DDFC2168BE
:101840002B880331012B216002D0022B0AD070BDFE
:1018500005F108034022304602F0CEFC23684033F5
:10186000236070BD05F108032022304602F0C4FC5D
:1018700023682033236070BD70B50C4615461346AF
:1018800009680222064602F0B7FC21682B88023163
:10189000012B216002D0022B0AD070BD05F1080394
:1018A0004022304602F0A8FC23684033236070BD1C
:1018B00005F108032022304602F09EFC2368203305
:1018C000236070BD2DE9F7430446154600260DF14F
:1018D00008090F4640F273123146009604F0C2FB2D
:1018E00049F8046D4B4631462046052202F084FC3F
:1018F000009B0DF10808053348F8083D2A4641468B
:101900002046FFF793FF4B4600992046052201969B
:1019100002F072FC009B05F110020533414620469F
:101920000093FFF783FF4B4600992046062201965D
:1019300002F062FC009B05F120020633414620467E
:101940000093FFF799FF4B46009920460622019627
:1019500002F052FC009B05F130020633414620465E
:101960000093FFF789FF009E40350736F6082846AA
:10197000009604F0D5FC1FFA80F84246A0192946CB
:1019800004F0FAFA46443E8003B0BDE8F08300005C
:10199000014AFFF797BF00BF1808002000000000B1
:1019A00070B5134D88B02B880446CBB105F62806D8
:1019B0000DF11E013046FFF7EBFFBDF81E30E17E52
:1019C0000593002304960393A37E193402930B23FB
:1019D0000093019404A3D3E90023281D02F04BFADD
:1019E00008B070BDAFF30080D5A4D139F922B6A7F5
:1019F00080140020054B10B500241C806022214675
:101A0000034804F02FFB034B1C8010BDC01E0020B8
:101A1000180800208E0400202DE9F74F0C460B46D5
:101A2000164600210322804602F0E6FBA01C04F0CB
:101A300077FC02AB23F8020D05220321404602F099
:101A4000DBFB0023BDF806205F1C9BB29A424FEAE5
:101A5000C70508D92344023308222946404602F02C
:101A6000CBFB3B46EEE704F12307384604F058FC75
:101A7000AB461FFA80FA0AF12309A1444F4509D069
:101A80003B4659460822404602F0B6FB0BF1080BD4
:101A90000137F3E705EBCA05ED083580054802F08C
:101AA00095F9054BA4F880001B78A4F8823003B0A8
:101AB000BDE8F08F841400208B0400200A46014901
:101AC000FFF7AABFA023002030B5114C89B02388AE
:101AD000BBB104F6280528460DF11E01FFF7EEFF05
:101AE000BDF81E300395049318230293094B201D63
:101AF000019343F6FF73009303A3D3E9002302F09D
:101B000067F909B030BD00BF759D040C8EA454D692
:101B1000801400208B04002008B584220021034893
:101B200004F0A0FA024B00221A7008BDA023002086
:101B30008B0400202DE9F3410E462C22002107469C
:101B400004F090FAB6F91430072493FBF4F423441C
:101B5000022493FBF4F4A4B2142C28BF142400250F
:101B60004FF00E08ABB29C4208FB05F109D907EB18
:101B7000450300930E220123304602F011FA01358D
:101B8000F0E7F37E3B85737E7B8502B0BDE8F08194
:101B900073B50C460B4620220021054602F02CFBB3
:101BA000606802F051FD02AE26F8020D33461022A5
:101BB0002021284602F020FBA06802F045FD3346B4
:101BC000ADF8060010223021284602F015FBE0682F
:101BD00002F03AFD3346ADF80600102228464021B7
:101BE00002F00AFB04F1100328461222502102F0F1
:101BF00003FB04F1140328460722622102F0FCFAD9
:101C000004F1160305226921284602F0F5FA04487A
:101C100002F0DCF8034B20831B78638302B070BDB5
:101C2000841400208A0400200149FFF7B1BF00BFDF
:101C3000BC0400200000000030B50F4C87B02388A2
:101C4000A3B104F628052846FFF7EEFF0E23049300
:101C500018230293094B0395019340F20A43201D78
:101C6000009303A3D3E9002302F0B2F807B030BD1C
:101C700054B2FBA2AE28AFA9801400208A04002031
:101C800008B51C220021034804F0ECF9024B0022A5
:101C90001A7008BDBC0400208A0400202DE9FF470B
:101CA0000E4605468022002104F0DCF9B38A0DF1CE
:101CB0000E0A9B080F2B88BF0F23A5F8783000234E
:101CC0001F469946B5F8782003F101089BB29A4265
:101CD00022D905EBC304394600230822009430467C
:101CE00002F05EF90822A31CB918009330460023C5
:101CF00002F056F910220023B918CDF800A03046A2
:101D0000ADF80E9002F04CF9BDF80E0002F0BEFCEA
:101D1000203760604346D5E7F37EA5F87A30737EBE
:101D2000A5F87C3004B0BDE8F08708B5FFF7F4FEF5
:101D3000BDE80840FFF7A4BF10B5144B144C9CB08D
:101D40008DE818000120A3F5A05302930394059495
:101D5000FFF7E2FA049004200794FFF7DDFA0690FB
:101D600005200994FFF7D8FA08900A200B94FFF792
:101D7000D3FA0A900B200D94FFF7CEFA07210C90AE
:101D80006846FFF737FA1CB010BD00BF000604809C
:101D900080FFFFC008B50020FFF74EF94FF47A70BE
:101DA000FEF704FCFFF7C8FF4FF47A70FEF7FEFB66
:101DB000BDE80840FEF7D6BB10B5094C23880BB927
:101DC000002010BD201D02F09DF80028F8D0FEF77D
:101DD000BBFF0028F4D0201D02F098F8012010BDB0
:101DE0008014002010B50B4C86B0208880B1684666
:101DF000FFF7D6F800280BD009DDFEF74DFE0246AE
:101E00000B46201D694602F03FFA012000E0012048
:101E100006B010BD80140020F0B535488DB001F03B
:101E2000D5FF08B100205CE0FEF736FE0F460646FF
:101E3000FFF786FA2F4903F0E1F803F0E3FA2E4AA0
:101E4000002392197B412D4D80185941C5E90201AB
:101E5000FEF722FED5E90223994208BF904204D33F
:101E6000234801F0B3FF50B1DCE7214801F0AEFF99
:101E70000028F5D1FFF7A0FFFFF7B4FFE8E72B78C4
:101E80002E8A5B00DBB28DF818301EB943F00103D7
:101E90008DF818301A4C08AB94E8070083E8070067
:101EA0002268C6F11004E4B2062C28BF0624991952
:101EB0000B920DF11900224604F05EF806AB039375
:101EC0001823013402930F4B0494012401930094CE
:101ED00005A3D3E90023064801F07AFF204600233A
:101EE0002B820DB0F0BD00BF401DA12026812A0B22
:101EF000841400200050C348C02709008823002014
:101F0000E8F7FF1F9A23002008B5FFF785FF002898
:101F1000FBD108BD2DE9F7431E4C2388002B36D09A
:101F2000FEF7BAFD0F46064604F62821D1E90089DE
:101F30004F4508BF464512D3174A002312EB08024B
:101F400043EB0903C1E90023FEF7A6FD02460B4659
:101F5000201D01F0E5FF211D684602F06DFBD4F85D
:101F6000304AA4B10D49D1E900239F4208BF9642EF
:101F70000DD3002512196B419F4208BF9642F9D23A
:101F8000C1E9002303B0BDE8F043FFF739BA03B05D
:101F9000BDE8F0838014002040420F00B81E0020EE
:101FA00010B5144C4FF424620021204604F05AF876
:101FB000201D002101F003FF40F6B83040F2DC5252
:101FC000002104F62823C3E900010B4B04F6382452
:101FD00044F8083C0023C4E90023FFF735FAFFF773
:101FE000B9F9FFF76FFBFFF705FDBDE81040FFF7FC
:101FF0009CBE00BF8014002040420F007FB5FFF759
:10200000CFFF0020FFF73CF9092324215A1CB1FB24
:10201000F2F56A43242ADEB204D0013B012BF5D14C
:1020200000204EE0C3EBC303DA1CD210D0B24FF451
:102030007A7401325443311AC9B20A4494FBF2F261
:10204000B2F5617FC2BF03F1FF33C3F3C700311A9A
:1020500000F1FF33C8BFC9B20F2B05D84B1E072BA9
:102060008CBF0023012300E00023421802FB05542B
:10207000154AB2FBF4F2154CA242D1D1002BCFD0BD
:10208000ADF80A00ADF80C100124022102A8ADF849
:102090000850ADF80E40FEF7F9FF0028C0DB002322
:1020A0000B4D01930B4BA5F1240000934FF40062FC
:1020B000094B294601F05BFEFEF7A0FF204625F8FC
:1020C000284C04B070BD00BF0051250240420F00F3
:1020D000A8140020310400084931000810B5044656
:1020E000FFF78CFF38B1044804F07F0101F067FE70
:1020F000FEF738FA012010BD84140020044BDA8862
:102100004FF47A735343034AC2F8303A704700BF22
:10211000D8070020801400204FF6FF71114B3B229E
:102120005A803C229A804FF47A72DA8003221A8411
:1021300000224FF47A6099811982998219839983D8
:102140001A81C8215A81DA815A82DA825A83DA8363
:10215000D8845A8418859A8458859985DA851A8690
:10216000FFF7CCBFD8070020494B70B45A884AB15A
:10217000132A9CBF14225A805A88642A82BF444A78
:1021800064215180DA884FF6FF75312A9EBF404A9C
:102190004FF47A71D18041F28832D9887F249142FC
:1021A00082BF3B4A4FF47A71D180394A002602F14E
:1021B0001800B2F90810B1F1FF3F01DA158102E011
:1021C0007F29C8BF1481B2F90A100432012918BF4F
:1021D000D6808242EDD11A8CD88C032A82BF2C4A39
:1021E000032111845A8C032A82BF294A0321518476
:1021F0009A8C032A82BF264A0321918440F6C31198
:102200008842234A03D840F6C411D18404E044F63E
:102210002061884288BFD18440F6C311188D1C4AC2
:10222000884203D840F6C411118504E044F62061C9
:10223000884288BF118540F6C311588D144A8842E0
:1022400003D840F6C411518504E044F62061884269
:1022500088BF51859A8D5AB1C72A9EBF0C4AC821A2
:1022600091859A8DB2F57A7F82BF094AC8219185FE
:10227000DA8D1B8E182A82BF054A1821D185022BC0
:1022800084BF034B002270BC88BF1A86FFF736BF9D
:10229000D807002038B53A22FF21214803F0E2FE9A
:1022A000FFF72CFFFEF7A0FBC0B204281C4D0CD09A
:1022B0003A22FF211A4803F0D5FEFFF71FFFFEF771
:1022C00093FBC0B204280FD107E03A212846FEF75D
:1022D0005FFBC0B204280ED0EAE73A211048FEF7AF
:1022E00057FBC0B2042806D03A22FF210C4803F065
:1022F000B9FEFFF703FF2B88094C0B2B0CD0FFF71F
:102300000BFF20460B23074920F8323B03F0AAFFBE
:102310003A212046FEF754FBBDE83840FFF724BFC2
:10232000D80700205267000808B541F28830FEF750
:102330003DF90549054BCA6802F4E0621343CB60DE
:10234000BFF34F8FFEE700BF00ED00E00400FA0589
:10235000044B002201205A609A60DA601A611880EA
:10236000704700BFA804002007B50121042002F037
:10237000E7FA1023ADF804308DF8073001A90323E4
:1023800003488DF8063002F005FA03B05DF804FB4F
:10239000000801408068FDF7B9BE38B5038A0446DD
:1023A000B3F5007F0D4602D18068FDF7F9FE238A60
:1023B000B3F5806F03D12946A068FDF735FF238A66
:1023C000B3F5006F03D12946A068FDF771FF238A9A
:1023D000B3F5805F05D12946A068BDE83840FDF718
:1023E000A9BF38BD10B5094B04468068984203D098
:1023F00003F50063984202D10121FDF7DBFFA068DD
:102400000121BDE81040FDF7C9BF00BF002C01400D
:102410002DE9F84305461C2606FB0106264FDFF88A
:102420009C80DFF89C900024AE423FD0E0070DD4A2
:10243000AB68BB420AD101214FF4006002F080FA80
:102440000121052044F0010402F07AFAA1070DD41D
:10245000AB68B3F1804F09D10121084602F07CFA44
:102460000121052044F0020402F06AFA62070CD44C
:10247000AB68434509D10121022002F06DFA012128
:10248000092044F0040402F05BFA23070CD4AB6883
:102490004B4509D10121042002F05EFA01210920F7
:1024A00044F0080402F04CFA1C35BDE7012108464F
:1024B000BDE8F84302F038BA002C014000040040A7
:1024C0000008004037B518238DF8073003238DF836
:1024D00006301C2303FB0101041D01F120051C34FF
:1024E000AC4210D034F81C3C01A954F8200CADF8D3
:1024F000043002F04FF9002234F81C1C54F8200C70
:1025000002F09AF9EBE703B030BD0000264A30B57F
:10251000264B148C508C1C80254B032C1880254D89
:1025200004D0032802D0938C2B8001E000232B8061
:10253000214B0021198059809980D98019815981B6
:102540004CB1B2F908100029B2F90C10A8BF1C80D8
:102550000029A8BF5C8048B1B2F910100029B2F977
:102560001410A8BF98800029A8BFD880298849B135
:10257000B2F91800B2F91C200028A8BF1981002A5E
:10258000A8BF59810022144611460C48028033F836
:10259000125015B1013189B201240132062AF6D157
:1025A00004B1018030BD00BFD80700208C0400209A
:1025B000A404002088040020F81E002078080020D1
:1025C000F0B5002389B0ADF80A30ADF80630ADF8AB
:1025D0001C30ADF81E30ADF81830ADF81A30ADF83B
:1025E0001430ADF81630644B60221B88ADF8102013
:1025F000624E01229342ADF8122098BF17463288EE
:1026000088BF0327002A32D0032A05D13C23ADF826
:102610000470ADF8083018E0594B5A491B68012A7C
:10262000B3FBF1F303F1FF33ADF80430564BDB8C11
:102630004FEAC30303F1FF33ADF8083042F6E0631D
:1026400018BF4FF4FA53ADF8163001A94F48FFF701
:10265000A1FE4F4B1A881C461AB104A94B48FFF73C
:102660009CFE63881BB104A94A48FFF796FE4A4DB9
:102670002A88002A35D0032A08D13C23ADF8083037
:102680000023ADF80470ADF8163018E03C4B3D491E
:102690001B68012AB3FBF1F303F1FF33ADF80430FB
:1026A000394B1B8D4FEAC30303F1FF33ADF80830FC
:1026B00042F6E06318BF4FF4FA53ADF8163001A9A3
:1026C0003648FFF767FE324B9A881C461AB104A9B8
:1026D0003248FFF762FEE3881BB104A93048FFF7D8
:1026E0005CFE304C2288002A35D0032A08D13C23D6
:1026F000ADF808300023ADF80470ADF8163018E0DE
:102700001F4B20491B68012AB3FBF1F303F1FF3390
:10271000ADF804301C4B5B8D4FEAC30303F1FF336C
:10272000ADF8083042F6E06318BF4FF4FA53ADF845
:10273000163001A91C48FFF72DFE154B1A891F46BC
:102740001AB104A91848FFF728FE7B891BB104A918
:102750001648FFF722FE338813B10C48FFF742FEFC
:102760002B8813B10D48FFF73DFE238813B10E48A7
:10277000FFF738FE09B0F0BD780800208C04002077
:102780000400002000127A00D807002064660008C8
:10279000F81E002080660008A40400209C66000843
:1027A000B866000888040020D4660008F0660008B7
:1027B00008B5FFF7ABFE06210C48FFF729FE0C4BCE
:1027C0001B88032B07D00B4B1B88032B03D00A4B12
:1027D0001B88032B01D1FEF795FAFFF7F1FEBDE848
:1027E000084006210148FFF76DBE00BF646600087F
:1027F0008C040020A4040020880400200023184634
:1028000042F6E06110B5054C1A190833302B5060C0
:102810001181F9D1014B0120188010BDC41E002088
:10282000154B1A88012A01BF144A1189144A1180D4
:102830005A88012A01BF114A118A124A11809A88C6
:10284000012A01BF0D4A118B0F4A1180DA88012A33
:1028500001BF0A4A118C0D4A11801A89012A01BF51
:10286000064A118D0A4A11805B89012B01BF034B77
:102870001A8E084B1A807047F81E0020C41E0020D4
:1028800034080040380800403C0400404004004048
:1028900034000040380000402DE9F84F254C074631
:1028A0002388002B44D0B0F87850002600EBC505F3
:1028B00002354FF47A6B204B07F1020A06EB03084E
:1028C000AA452AD03AF8021CB8F90820914221D131
:1028D000BAF80020F2B9DAF802904FF07E5148467B
:1028E00002F03EFD10B1C4F804B00EE013494846B2
:1028F00002F02CFD10B1124B636006E0114948460E
:1029000002F07CFB02F040FD6060626802F53B5221
:10291000203222810AF1080AD2E70436182E04F187
:102920000804C8D1FFF77CFF074A5368013353609E
:10293000BDE8F88FC41E0020D8070020000080BF2B
:1029400060F0FFFF00007A45A8040020002130B5A8
:102950000C461A4D4FF4FA504A1908313029546088
:1029600010814FF00003154AF6D100200021C2E982
:102970001201114618469386A2F84030A2F8423060
:10298000A2F85030A2F85230A2F85430A2F85630D3
:10299000A2F85830A2F85A30A2F86C3002330C2B4F
:1029A000A1F86E00A1F87A00A1F88600A1F89200C3
:1029B00001F10201F2D10120108030BDD8040020C5
:1029C000144B1A88002A24D0134A1188022902BF06
:1029D0001889124908805188022902BF188A1049B3
:1029E00008809188022902BF188B0E490880D1887F
:1029F000022902BF188C0C4908801189022902BFE4
:102A0000188D0A4908805289022A02BF1A8E084B83
:102A10001A807047D8040020F81E002034080040B7
:102A2000380800403C0400404004004034000040AE
:102A300038000040B0F5FA5F09D9A0F5F9501E380A
:102A400083102F339BB22F2B08BF002300E00023FD
:102A5000003118BF012141EA43031BB283EA23106E
:102A600080EA232000F00F0040EA031080B2704794
:102A7000400040F001039BB283EA131080EA132068
:102A800000F00F0040EA031080B270476023584303
:102A900010B50A4A00F19C03BC30134410440022D4
:102AA00011F4004F14BF2D24172423F8024F4900BE
:102AB000834289B21A84F3D110BD00BFD80400202C
:102AC000F0B5344B8DB033F810300446032B5FD192
:102AD000314D00F1340605EB4606F3880BB10720B3
:102AE00017E000F13C0605EB4606738853B1082059
:102AF000FFF7BEFF01462046FFF7C8FF7388013B82
:102B000073801FE000F1400605EB4606F78857B1D9
:102B10000C20FFF7ADFF01462046FFF7B7FFF38813
:102B2000013BF3800EE000F1280605EBC00335F809
:102B300016101889FFF77EFF01462046FFF7A6FF13
:102B400025F81670154A1C2303FB0423602101FBA2
:102B50000454D3F858229E34019202941022D3F8E0
:102B600060422221039204914FF4807280210792E7
:102B70000892069100224FF4405120460A91059296
:102B800009920B9202F02CF801A9204602F0A0F85D
:102B90000DB0F0BDF81E0020D80400201864000815
:102BA0000C4B10B533F81030032B11D10A4B1C24F9
:102BB00004FB00340121D4F8600202F0A7F8B4F855
:102BC0005C12D4F854020122BDE81040FDF700BCAD
:102BD00010BD00BFF81E0020186400080D4B10B592
:102BE00033F81030032B11D10B4B1C2404FB0034A1
:102BF000D4F8640202F0A4F850B1D4F854020022D0
:102C0000B4F85C12FDF7E4FB002010BD002010BDFD
:102C1000012010BDF81E002018640008F8B5294CEA
:102C2000B4F84030002B3ED1FDF736FF264B064668
:102C30001B880F46012BD4E9122307D9643243F1D4
:102C40000003994208BF904207D2F8BD323243F1E7
:102C50000003994208BF904232D3B4F842505DB9A4
:102C6000184BD3E9122312F57A7243F100039F4205
:102C700008BF964201D223E00025A8B20135FFF734
:102C80001FFF062DF9D10025A8B20135FFF788FFF7
:102C9000062DF9D10023A4F842300123C4E91267BC
:102CA000A4F84030F8BD00263546B0B2FFF796FFD5
:102CB00001362844062E85B2F7D10DB9A4F840504C
:102CC000F8BD00BFD804002078080020164B1A88F1
:102CD0004AB3052827D8154A32F81020032A22D1F2
:102CE00008290DD00C2915D007291CD103EB40026F
:102CF00013460A21A2F86E100122A3F89220704711
:102D000003EB400213460A21A2F87A100122A3F82D
:102D10009220704703EB400213460A21A2F8861066
:102D20000122A3F892207047D8040020F81E00204A
:102D30002DE9F84306460F46DFF85080DFF8509043
:102D4000002438F81430A5B2032B1AD104F1110273
:102D50003046394602F02CF8002100F0010050EA1C
:102D600001030ED009EB8403B3F90A302846012B86
:102D70000CBF08210721FFF7A9FF0C212846FFF708
:102D8000A5FF0134062CDCD1BDE8F883F81E002035
:102D9000D807002008B53A210548FDF711FEBDE827
:102DA00008404FF0FF304FF0FF31FFF7C1BF00BFC9
:102DB000D807002038B50588084C25B9FFF7EAFF89
:102DC0000123238038BD012D05D1FFF7A5F9FFF7B9
:102DD000E1FF258038BD0023238038BDC01E0020C0
:102DE00018B110461946FFF7A3BF70472DE9F14F00
:102DF0000B7E04460E4633B9B1F80080B8F1170FC8
:102E000000F2588113E04FF018099B4F002501EBA9
:102E1000090A09FB05731022996850461FFA85F8C4
:102E200003F0ACFA18B10135182DF2D142E1B6F831
:102E30000890914DB9F1000F5CD0182303FB08F303
:102E4000E91809790139082954D8DFE801F0050BA0
:102E50001B21313153533F00EB58327C197891429A
:102E600007D10BE0EB5896F9102093F9001091422E
:102E700004D0012606FA08F6F71701E0002600271D
:102E80001A7039E0EB58328A1988914207D10BE069
:102E9000EB58B6F91020B3F90010914204D0012686
:102EA00006FA08F6F71701E0002600271A8023E04B
:102EB000EB58326919681A6091421DBF012606FA63
:102EC00008F6F717002608BF002715E055F803A0FD
:102ED000D6F810B0DAF80000594602F023FA20B90B
:102EE000012606FA08F6F71701E000260027CAF8BF
:102EF00000B001E000260027182202FB08F8454434
:102F00002A795D4B013A082A00F2B880DFE812F016
:102F1000090021003D00550071008600B600B60092
:102F20009E0053F8083001222286228422822280C9
:102F30001A780023C4E902232A7B0023C4E906236C
:102F40002A7C0023C4E90E232A7D0023C4E90A2336
:102F5000A3E053F8083001222286228422822280B4
:102F600093F90020D317C4E9022395F90C20D31755
:102F7000C4E9062395F91020D317C4E90E2395F967
:102F80001420D317C4E90A2387E053F8083001223C
:102F900022862284228222801A880023C4E9022306
:102FA000AA890023C4E906232A8A0023C4E90E2340
:102FB000AA8A0023C4E90A236FE053F808300122EB
:102FC0002286228422822280B3F90020D317C4E90A
:102FD0000223B5F90C20D317C4E90623B5F9102054
:102FE000D317C4E90E23B5F91420D317C4E90A2373
:102FF00053E053F808300122228622842282228064
:103000001A680023A260E360EA68E361A2612A69AA
:10301000E363A2636A69E362A2623EE053F80830A8
:10302000012222862284228222801A68D317C4E9D0
:103030000223EA68D317C4E906232A69D317C4E92F
:103040000E236A69D317C4E90A2326E053F808302F
:1030500002221B682286A360E868228422822280E2
:1030600001F078FFA061286901F074FFA06368692E
:1030700001F070FFA06210E0246400080123002228
:1030800023862384238223800023C4E90623C4E902
:103090000E230C4A0023C4E90A23A96804F1400066
:1030A00003F0E0F832463B46484601B0BDE8F04F39
:1030B000FFF796BE20466022002101B0BDE8F04F28
:1030C00002F0D0BF80841E00F8B51C4C23889BB34F
:1030D000224641F6FF771A4E00214FF4FA554FF47D
:1030E0007A5E8B19B3F908301FFA83FCBCF1130F19
:1030F00014D830F91330002B536001DC15810DE03A
:103100006B4303F5805393FBF7F303F5FA539BB23C
:10311000B3F57A5F94BF1381A2F808E0043118294F
:1031200002F10802DDD1FFF74BFC064A0123A4F8A7
:103130004230936801339360F8BD00BFD80400208B
:10314000D8070020A80400202DE9F04399B00C46D0
:10315000804600F03BFE237E0546002862D1022B0C
:1031600040F0E580E38A012B40F0E180FDF794FC1C
:103170000F460646FEF7E4F86E4901F03FFF02F005
:1031800041F96D4A002392197B418018DFF8C891FC
:103190005941E37EC9E902014F4683B1284611E057
:1031A000664E08AB96E8070083E8070032681946C8
:1031B0000B9204A82A4602F0ADFE0346B0B10023EC
:1031C0003B82B4E0A38A85B2013B9D4200F1010637
:1031D000E6DA691C04AB1D44C90089B200950023DE
:1031E0000822204600F0DCFE3046EBE70F2D0AD81F
:1031F000D7E90201524A4FF0FF3312184B413D828A
:10320000C7E9022393E018AA22F8520D0092014662
:103210000722204600F0C4FE9DF80E10404600F044
:10322000CEFD84E0022B20D140F2F232E38A9342B9
:103230000FD040F20642934279D121464148FEF731
:1032400079FC4048FFF740FF21463F4801F00CF869
:103250006DE021463B48FEF721FD3A48FFF71CFB95
:103260002146394801F000F861E0012B5FD1E38A83
:10327000013B0A2B5BD8DFE803F0065A5A0A0E5AC4
:103280005A5A5A3C4B002046FEF732F94FE020468E
:10329000FEF78AF94BE02046FEF7CEF905462B4BA8
:1032A00021461880284800F0DFFF2046FEF7E4F9A9
:1032B000002D3CD0FDF7F0FB254C002524184D4196
:1032C000214800F01FFE70B1FEF776FDFDF7E4FB2C
:1032D0008D4208BF8442F3D205E0FDF7DDFB8D424D
:1032E00008BF844203D3FDF723FD0028F5D0FFF784
:1032F0001BF8214608A8FEF7EBF908A8FFF75AFDCE
:103300002146114800F0B0FF2046FEF705FA0EE016
:10331000214608A8FEF74EFA08A90E48FFF766FDF9
:103320000948214600F0A0FF2046FEF739FB19B0FE
:10333000BDE8F0830050C348C0270900E8F7FF1F2D
:1033400040D8F6FFA81C0020841400208E04002022
:1033500020A1070018080020882300200C4B0D4AEC
:1033600018605A609A60DA6000221A610A4A502096
:10337000D18E02EBC10212890231A2F5FA5292FB00
:10338000F0F29A82054A32F82120DA82704700BFB3
:10339000BC0400200000C07FD8040020D807002013
:1033A00038B5234C234D94F85E30286094F85D00C6
:1033B00003EB002001F0CEFD1F4901F01FFE94F841
:1033C0006030686094F85F0003EB002001F0C2FDFC
:1033D000194901F013FEA86094F85C0001F0B6FDF5
:1033E00094F8632094F86430144903EB02236422B8
:1033F0005343CA8DE86002B90A2293FBF2F3104AE4
:1034000050209342D4BF2B612A61E28E04EBC204A8
:1034100023890232A3F5FA5393FBF0F3AB8231F820
:103420002230084AEB82D3680133D36038BD00BF35
:10343000D8040020BC0400200AD7233CD807002071
:10344000FFFF0100A804002038B5514C2388002B51
:1034500000F09D80A38E002B00F09980013B062B8D
:103460006ED8DFE803F008041C6D2B606500E38E66
:103470000022484D10E00023E38600220023C4E927
:103480000E230223A38638BD35F81300591C89B2D8
:10349000002858D10B460122052BF5D94EE0FDF747
:1034A000FBFAD4E90E238B4208BF82426FD2002080
:1034B000FFF754FF364B06229A8638BDFDF7ECFA2B
:1034C000E38E334D283334F813303BB141F2883268
:1034D000002380185941C5E90E0138BDD5E90E23F6
:1034E0008B4208BF824205D20120FFF737FF062337
:1034F000AB8638BDFDF74AFBA0B1B4F86C506B1C2D
:10350000A4F86C30FDF750FBB4F86C302544092B5F
:1035100085F85C00EED90020FFF742FF1C4B062225
:103520009A8638BD38BDFEF787FB0723A38638BDD2
:10353000E38E0133E3860223A38638BD02B1E3861E
:103540000023A38638BD02B1E386032814D10122EB
:10355000283324F813200023A4F86C30FDF73EFB39
:10356000FDF79AFA41F28832002380185941052369
:10357000C4E90E01A38638BDFDF78EFA10F57A7006
:1035800041F100010323C4E90E01A38638BD38BD13
:10359000D8040020F81E0020024B1A880AB101222C
:1035A0009A867047D804002070B5544BAAB01B8887
:1035B000002B00F0A080524B1B8E002B00F09B8054
:1035C000504B1A881AB941F287321A8001E0013A49
:1035D0001A801C88002C40F08E804B484B4920F804
:1035E000024B4B4E02F03EFE4A490AA802F03AFE58
:1035F000B58C002D3CD102AC47490AA802F0AAFDC7
:103600002B460C22454946480094FDF76CF82146AC
:103610000AA802F09FFD43490AA802F09BFD424917
:103620000AA802F097FD2B460C223C493F48009423
:10363000FDF759F821460AA802F08CFD39490AA87D
:1036400002F088FD3A490AA802F084FD2B460C22BC
:10365000324938480094FDF746F821460AA802F09E
:1036600079FD30490AA802F075FD0123B3843CE0DE
:10367000012D3AD102AD30490AA802F06BFD234674
:1036800008222E492E480095FDF72DF829460AA854
:1036900002F060FD23490AA802F05CFD29490AA84E
:1036A00002F058FD23460822244927480095FDF7DB
:1036B0001AF829460AA802F04DFD1A490AA802F094
:1036C00049FD22490AA802F045FD234608221B496C
:1036D0001F480095FDF707F829460AA802F03AFDB1
:1036E00010490AA802F036FDB4840AA9194802F06C
:1036F000B9FDFEF7E9F92AB070BD00BF80140020C3
:10370000D807002000000020A02300204167000807
:103710006004002063670008576700085E670008C0
:10372000AC0400206267000864670008B004002051
:103730006B670008B404002072670008786700080F
:103740008C0400207C670008A40400208267000825
:1037500088040020C32300202DE9F84F3A4EFDF7DE
:1037600089F8FEF701FEFDF7B9F9FEF793FDFFF7C3
:103770001FF8B078FEF7B2FC58B93449CB68642022
:10378000DB4303F0100343F480130B61FCF715FFD8
:10379000F4E7FEF7B3FCFFF7D9F8FFF72FF8FEF7D1
:1037A000D7FD2B4BB2882B4F1A80FEF7ADFBFEF7EF
:1037B000F1FA0023FB80284B1B8813B1274B1B8891
:1037C0000BB90323BB80DFF8988000242546C2464E
:1037D000DFF87890FEF706FB0028FBD1FEF7ECFA45
:1037E00083460028FAD1FEF795FBFFF72DFEFFF781
:1037F00015FAB8F81E309BB2002BEBD0AAF81EB019
:1038000035B9BB8840F2F315002B18BF312501E014
:10381000013DADB21CB9B48D013CA4B201E0013C44
:10382000A4B245B9D9F80C30DB4303F0100343F4DC
:103830008013C9F81030B38D13B10CB9FFF7ACFE8B
:10384000FFF7B2FEC6E700BFD8070020000801401E
:103850008823002090040020D8040020C41E0020EB
:1038600060040020384B82B01A6842F001021A60EE
:103870005968364A0A405A601A6822F0847222F463
:1038800080321A601A6822F480221A605A6822F480
:10389000FE025A604FF41F029A60002200920192C9
:1038A0001A6842F480321A601A6802F400320192F7
:1038B000009A01320092019A1AB9009AB2F5A06FEB
:1038C000F2D11A6812F4003218BF01220192019A53
:1038D000012A05D01E4B4FF000629A6002B070477B
:1038E0001C4A116841F010011160116821F00301B8
:1038F0001160116841F0020111605A685A605A68FB
:103900005A605A6842F480625A605A6822F47C1203
:103910005A605A6842F4E8125A601A6842F080729B
:103920001A601968084A8901FBD5516821F0030122
:103930005160516841F0020151605A6802F00C0276
:10394000082AFAD1C6E700BF001002400000FFF8C5
:1039500000ED00E0002002402DE9F047089D01F055
:1039600007044FEAD508224405F007054FF47F49C4
:1039700000EBD100944227D005F0070604F0070AB7
:10398000B245D44638BFB446CCF10801C4EB020CB2
:103990008C4528BF8C46E708C75D29FA0CFE08EB6A
:1039A000D50107FA0AF75FFA8EFE4EFA06FE47FACD
:1039B00006F65F5C06EA0E0627EA0E0E46EA0E06DB
:1039C0005E5464446544D5E7BDE8F087024600686C
:1039D00048B1036811891360D38801339BB29942BF
:1039E000D38038BF1381704770B504460D4688B048
:1039F00020220021684602F035FB20460495FFF79F
:103A0000E5FF054658B16B46044608AE1A4603CAA0
:103A1000B24220606160134604F10804F6D12846E2
:103A200008B070BD2DE9F0410568DDB18E68A8468B
:103A300026F06047BB0C4FEAD67EC6F3807C2A4650
:103A400037EA260628BF1E469368BEEBD37F23F0D5
:103A500060440ED0002B08DAA40CB44207D1954282
:103A600013D10D600160BDE8F081B44212D0A642CE
:103A700006E0A74203D1C3F380739C4503D1A7425C
:103A80002CBF002301232BB1E9E7C8F800100A601E
:103A9000BDE8F0811368904613B91160BDE8F0816C
:103AA0001A46D1E7F8B506460F464FF6FF740025D3
:103AB0002A463046394601F07BF9C0B284EA002438
:103AC000082314F4004F4FEA4404A4B21CBF84F44A
:103AD000815484F00104013BF3D10835402DE7D136
:103AE0002046F8BD10B54B6843B1C4681A681C6025
:103AF000C360438A013B43824A60F4E70A8B00209B
:103B000063F309020A83002110BD0A44914211D0D7
:103B100011F8013B80EA0320082310F4004F4FEA1C
:103B2000400080B21CBF80F4815080F00100013B56
:103B3000F3D1EBE770472DE9F04F85B081468DE872
:103B40000A00BDF83C409346002A7DD024B10E9B6C
:103B5000002B79D0072C27D809F10C00FFF736FF8E
:103B6000054610B96FF0020070E02022002102F03B
:103B700079FA22460E9905F1100002F0FDF9631C56
:103B80002B769BF800302C4403F01F0363F03F03B7
:103B90002374009B09F11C0043F00043AB602946ED
:103BA000FFF740FF012051E04FF000084646454630
:103BB000019B4FF0800A1B0A029300F10C03039350
:103BC0000398FFF703FF07460028CBD020220021EF
:103BD00002F048FA3EB99DF8043002223B749DF889
:103BE00008307B740BE0002209E00E9BB91801320B
:103BF000985DD2B20136072A0874B6B201D0B44239
:103C0000F3D8A64208BF4FF0400A9BF80010B8183E
:103C100001F01F0141EA481141EA0A030374009BC5
:103C2000013243F00043BB603A76394609F11C008B
:103C3000FFF7F8FEA64205F1010588F001084FF0F4
:103C4000000ABDD1284601E06FF0010005B0BDE8D3
:103C5000F08F2DE9F04717460A8B9946C2F3090207
:103C6000C2F10603002B0646884618DD00201FFA25
:103C700089F185B253199BB2052B09D9A9420FD8F6
:103C8000B8F818300A4462F30903A8F818306BE05A
:103C9000A942F3D93C5C43449C760130E9E7002516
:103CA000911F1C23B1FBF3FA03FB1A1AD8F8044046
:103CB0005FFA8AF10CB1012329E03046FFF786FE56
:103CC000044608B100230360C8F80440CCB96FF083
:103CD0000200BDE8F0874A44063A1C20B2FBF0F22D
:103CE0000132D2B293420DD2BAF1000F0AD130465E
:103CF000FFF76CFE08B1C0F800A020600028E6D0F5
:103D0000044600211FFA89F94FF0000A11E02068EB
:103D10000028E0D00133DBB20446F8E7A3180132F3
:103D2000785D92B201351C2A1871ADB205D0A94553
:103D3000F4D84D450FD28AB2F0E7A945F9D93046FB
:103D4000FFF744FE08B1C0F800A020600028BED0F4
:103D500004460021EDE7B8F81820C2F3090399449E
:103D600069F30902A8F818200120BDE8F087F8B52A
:103D7000044616460D46242200211F4602F072F921
:103D8000069B72096360079B002023624FF6FF7356
:103D90009A4228BF1A4629460346A760207097B268
:103DA00004F10C06934204D0316001330E462031F9
:103DB000F8E70023336027826382A382F8BD03788B
:103DC0001BB94BB2002BC8BF017070470078704719
:103DD0002DE9F7430D9F8046BDF828400B9E9DF8C6
:103DE0003090BDF838500FB9002D3FD1B9F11F0FF9
:103DF0003CD898F80010A9B9072D34D834F0030343
:103E000034D12A4639464FF6FF70FFF77EFE47F65B
:103E1000FE73240204F4407444EA0964034044EA53
:103E200043240FE041EA0421072D41EA096409D93E
:103E300019461046FFF736FE2A463946FFF765FE5B
:103E4000034601E04FF6FF73019500973246214685
:103E50004046FFF770FE33780133DBB21F2B88BF7B
:103E60000023337004E06FF0030001E06FF0010005
:103E700003B0BDE8F0832DE9F7430E9F81460C4661
:103E8000104619460B9D9DF830209DF83480BDF8F2
:103E90003C6007B976BB1F2A2CD899F8003063B371
:103EA00043F0800343EA04239DF8284043EAC833E3
:103EB00043EA0443072E43EA026407D9FFF7F2FD01
:103EC00032463946FFF721FE034601E04FF6FF7305
:103ED000019600972A4621464846FFF72CFEB8F186
:103EE000010F0CD12B780133DBB21F2B88BF0023CD
:103EF0002B7004E06FF0010001E06FF0030003B0ED
:103F0000BDE8F083C06900B108307047C3691A6822
:103F1000C261C2681A60C360438A013B4382704732
:103F20002DE9F047D0F818A0054616461F4654461E
:103F3000DFF868804FF00009002C2CD0D4E9022370
:103F4000B21A67EB0303994508BF904520D2AB69CD
:103F500021469C4228460DD1FFF7C4FDAB691B6882
:103F6000AB61EB6823606B8AEC60AC69013B6B82F0
:103F7000A246E1E7FFF7B6FD2368CAF80030EB6818
:103F800023606B8AEC60013B6B82DAF80040D3E778
:103F9000A2462468D0E7BDE8F08700BF80841E00F9
:103FA0002DE9F04F8BB00E4614460793149F8246BE
:103FB000002800F0FF80002F00F0FC80531E3F2BF4
:103FC00000F2F880012A03D1079B002B40F0F28019
:103FD000BAF814500023ED00AE420893099301D3C0
:103FE000002505E133199D42DAF80C303ABFAD1BCC
:103FF000EDB225461BB9DAF81030002B61D02F2E18
:1040000015D8C6F13008A84528BFA846002300935C
:104010005FFA88FB4246314608ABDAF808004644AE
:10402000CBEB0508FFF798FC5FFA88F802E0A8469A
:104030004FF0000BBAF81430302103F10053063B67
:10404000DB000493DAF80C300393039B6BB3B8F1F5
:10405000000F2AD0049BE02B28BFE02306930B44DB
:10406000B342059318D9C6EB0309C84538BFC1460A
:10407000039828BF5FFA89F9CDF800B0711A08AB30
:104080004A460430FFF768FCCB44C9EB08084E44AD
:104090005FFA8BFB5FFA88F8049B069A05999B1AD6
:1040A0000493039B1B680393CFE7DAF8100080B1F9
:1040B000B8F1000F0DD0CDF800B008AB4246711A30
:1040C00005E02A4631460093DAF8080008ABFFF70E
:1040D00043FC002D84D066070BD00AAB03EBD40160
:1040E00011F8082C634203F0070342FA03F301F8C6
:1040F000083C082C06D9102C06D9202C8CBF08238C
:10410000042302E0012300E00223079A002A57D08B
:10411000B4EBC30F56D0082C0ED89DF92020631E97
:1041200022FA03F3D80760D54FF0FF3303FA04F403
:1041300014438DF8204058E0102C0ED8BDF92020F3
:10414000631E22FA03F3D90743D54FF0FF3303FA76
:1041500004F41443ADF820403BE0202C0CD8089B1D
:10416000621E23FA02F2D20737D54FF0FF3202FA6D
:1041700004F42343089330E0402C1ED0DDE9088985
:10418000621E4046494600F013FE002100F0010087
:1041900050EA010324D022460120002100F014FE41
:1041A000404261EB410140EA080041EA0901CDE9E2
:1041B000080115E06FF001051AE06FF0080517E03F
:1041C000012C12D0082C10D9102C02D9202C07D881
:1041D00003E0BDF820303B800AE0089B3B6007E02D
:1041E000DDE90823C7E9002302E09DF820303B7099
:1041F00028460BB0BDE8F08F30B5402A85B018D8FE
:10420000002A08BF01220024012A0294039401D04D
:10421000082A03D81B788DF808300FE0102A03D83D
:104220001B88ADF8083009E0202A03D81B680293E8
:1042300004E04022D3E90045CDE9024553070BD005
:1042400004AB03EBD20515F8084C534203F0070307
:1042500004FA03F305F8083C00910346002102A884
:10426000FFF77AFB05B030BD10B5CB6843B1C46829
:104270001A681C60C360438A013B4382CA60F4E74A
:104280008B600B618B8210BD2DE9F04FD1F800A03F
:104290008FB0CDE90223CAF3C01204460D4622B105
:1042A000CAF3C03BCAF3062802E090464FF0020B67
:1042B000BAF1000F80F2BB812B6813F0C04F40F0C1
:1042C000B6812B7C002B00F0B281BBF1020F03D032
:1042D0002178414540F0AB810AF07F01C8B20590DA
:1042E00012B1CAF3074904E0CAF30F2909B909F06A
:1042F00003092B444FEA4868059ADE7948EA0B48DF
:1043000048EA8248F30948EA090804932BD00022BE
:1043100000230EA961E90823059B676800934A46BC
:104320005B462046B847002800F08181A7694FB955
:10433000414604F10C00FFF757FB074688B976E1C8
:104340003F681FB13B699845FAD115E0414604F139
:104350000C00FFF749FB0746002800F06881A369BD
:104360003B60A76108E0A769002F00F060813B690E
:10437000984506D03F68F7E7DDE90601FFF792FBB5
:10438000F88297F819E006F01F08CEF3840EB8EB18
:104390000E0ED7E9022348BF0EF1200E52EA0301A8
:1043A000CAF3046A00F02E81DDE90201801A61EB94
:1043B00003010B46024600219E48994208BF9042E5
:1043C000C0F02081049B5BB3BEF1010F00F31A81A2
:1043D000730625D5DDE902230021C7E9022306A8DB
:1043E000202201F03FFEDDE90223CDE9062305F19D
:1043F000080308932B7CADF82E90013BDBB2ADF89F
:104400002C309DF814308DF830B08DF833308DF8A5
:1044100031808DF832A0A36806A920469847DEE0D7
:104420007B7EC6F34012B2EBD31F40F00081C3F392
:104430008403434540F0FB80049A2B7CB609002A94
:1044400033D016F001065ED1032B40F2F080DDE997
:104450000223C7E902232B7C05F10A08033BDBB2E8
:104460004246394604F10C00FFF7F3FB002812DA4C
:1044700039462046FFF736FB7B7EC3F384020132C8
:1044800062F386037B763B8B66F309033B831B0A4F
:1044900066F3C713B4E06A7A2B7A414643EA0223F3
:1044A000BB822A7C033AD2B223E066BB05F1080640
:1044B000013BDBB23246394604F10C00FFF7C9FB81
:1044C000002812DA39462046FFF70CFB7B7EC3F347
:1044D0008402013262F386037B76049A3B8B62F39B
:1044E00009033B83049A1B0A88E031462A7C013A7F
:1044F000D2B2F88AFFF709FB7B7EF882C3F3C012C1
:1045000082F001027AE0388B013BC0F309000528F4
:10451000DBB212D8EE1D0021CAB2934228D9013174
:1045200000EB010E16F801CF07EB0E02BEF1060FED
:1045300082F819C0CAB2EFD11AE07E68BEB1062275
:10454000316811B11C320E46FAE7801A05F1070CEA
:1045500000EB010EBEF11B0FCAB209D89A4207D276
:104560001CF8012FB6448EF804200131F0E73246E2
:10457000DDE902019A42CDE9060107F11A0108912D
:1045800038BF0832796834BF5219002209910A9263
:104590003A8BADF82E90C2F309021344ADF82C30DB
:1045A0009DF814308DF830B08DF8333000238DF83D
:1045B00031808DF832A07B602A7CF88A013A05F1BF
:1045C0000801FFF7A2FABB8AF882834203D1A368ED
:1045D00006A92046984706A92046FFF745FE7B7EA0
:1045E000C3F38402013262F386037B763B8B6FF365
:1045F00009033B831B0A6FF3C71301E062F3C71380
:104600007B7614E07B7E394666F386036FF3C7132F
:104610007B762046FFF766FA049B002B7FF4D8AE2A
:104620007B7EC3F38402013262F38603E8E70FB0B6
:10463000BDE8F08F80841E00034651F8100F8A8871
:1046400018609A801846704720F00043B3F1FF4F7E
:1046500010B500F0004405D347F6FF7008BF4FF4D3
:10466000F8400EE008484FF0F061184000F0C6FC3A
:1046700000F58050B0F1786F88BF4FF07860C0F3DC
:104680004F3040EA144010BD00F0FF7F38B54303BF
:10469000044609484FF0EF41184000F0AFFC4FF0DE
:1046A0008F41054600F05CFE08B145F0FF4524044B
:1046B00004F00040284338BD00E0FF0FFEE7000093
:1046C00008B50C4A0C4B0D498B4204D252F8040F2A
:1046D00043F8040BF8E70A480A494FF00002884201
:1046E000B8BF40F8042BFADBFFF7BCF8BDE8084080
:1046F000FFF732B8CC680008000000205C040020FE
:10470000600400202426002043690AB1194301E017
:1047100023EA010141617047B1F5807F35D00CD8A3
:10472000082924D004D801291CD004291DD07047A1
:1047300020291FD040291FD07047B1F5006F22D02B
:1047400006D8B1F5007F20D0B1F5806F1DD070473D
:10475000B1F5803F13D0B1F5003F12D0B1F5004F55
:1047600015D110E00A4B83607047082300E0102346
:10477000C3607047082300E01023036170470823DB
:1047800004E0102302E000238361042343607047A8
:1047900001010100CA782DE9F041D40648BF8C78A8
:1047A0000E8802F00F0348BF234316F0FF0F1ED000
:1047B000016800244FF0010E4FF00F0C0EFA04F7C1
:1047C00037EA06050FD1A5000CFA05F821EA080121
:1047D00003FA05F5282A41EA050101D1476102E003
:1047E000482A08BF07610134082CE7D10160FF2E79
:1047F00020D9416800244FF0010E4FF00F0C04F156
:1048000008050EFA05F535EA06070FD1A7000CFAE0
:1048100007F821EA080103FA07F7282A41EA070105
:1048200001D1456102E0482A08BF05610134082C26
:10483000E5D14160BDE8F0810AB101617047416195
:10484000704700000028164A30B500F44015B4BF88
:10485000D3695368B5F5401F84B206D1556823F07B
:10486000706325F0706555600EE0C20255BF420DC1
:1048700003221201C0F303454CBFAA4004FA02F21E
:1048800023EA020343F0706319B1420D1201944010
:104890002343034A0028B4BFD361536030BD00BF37
:1048A000000001401C4A10B5536803F00C03042BB0
:1048B00001D0082B01D0194B0EE053685168C3F3A7
:1048C0008343CC0303F1020302D55168890301D568
:1048D000134900E011494B43036053681149C3F386
:1048E0000313CC5C0368E34043605468C4F30224C0
:1048F0000C5D23FA04F484605468C4F3C2240C5D94
:10490000E340C3605268C2F381320A44127CB3FBB5
:10491000F2F3036110BD00BF0010024000127A00E4
:1049200000093D0018000020044B5A6909B11043EA
:1049300001E022EA00005861704700BF0010024009
:10494000044B9A6909B1104301E022EA0000986122
:10495000704700BF00100240044BDA6909B11043F0
:1049600001E022EA0000D861704700BF0010024059
:1049700070B50E460446038ACA889BB223F440539E
:104980001343038282898988338992B20B437189E8
:1049900022F4B0520B4322F00C0213439BB28381EA
:1049A000838AB2899BB223F4407386B01343838217
:1049B00001A8FFF777FF174A039B049D31689442D3
:1049C00018BF1D4619226A43A389642613F4004FB9
:1049D00014BF4D008D00B2FBF5F5B5FBF6F0A289D2
:1049E00000010109120406FB115307D5D900323129
:1049F000B1FBF6F202F00702104306E01A01323270
:104A0000B2FBF6F303F00F03184380B2208106B027
:104A100070BD00BF003801404B8810B50C88028A79
:104A200023438C88C98892B223430B4322F47062DB
:104A300013439BB2038210BD002303804380838015
:104A4000C3807047838919B19BB243F4005303E0DC
:104A500023F400531B041B0C83817047012310B502
:104A6000C1F342149C4201F01F0103FA01F101D18C
:104A70000C3003E0022C0CBF1030143003680AB174
:104A8000194301E023EA0101016010BD090A012375
:104A900003FA01F1C94389B201807047034B044A0C
:104AA0005A6002F188325A60704700BF002002400D
:104AB00023016745FFF7F2BF024A136943F0800301
:104AC0001361704700200240FFF7F6BF084BDA6819
:104AD000D10709D4DA68520708D4DB6813F0100F45
:104AE00014BF032004207047012070470220704744
:104AF0000020024010B50446FFF7E8FF012806D168
:104B00001CB1FFF7E3FF013CF8E7052010BD002CC6
:104B100008BF052010BD000070B505464FF40050D9
:104B20000E46FFF7E7FF04280ED1084C4FF4005063
:104B3000236943F0010323612E80FFF7DBFF41F679
:104B4000FE7322691340236170BD00BF0020024044
:104B500073B5002306464FF400500D460193FFF74E
:104B6000C9FF04281AD10E4C4FF40050236943F0BA
:104B700001032361ABB23380FFF7BCFF042808D1E7
:104B800002360196019B2D0C1D804FF40050FFF75B
:104B9000B1FF41F6FE7322691340236102B070BD7C
:104BA0000020024038B505464FF43020FFF7A2FF41
:104BB000042812D1094C4FF43020236943F002033A
:104BC00023616561236943F040032361FFF792FF8E
:104BD00041F6FD7322691340236138BD0020024075
:104BE0004FF6FE73026813400360002303604360C6
:104BF0008360C360284B984201D1284A27E0284BA4
:104C0000984201D1254A2AE0264B984201D1234AF5
:104C10002DE0254B984201D1204A30E0234B9842A9
:104C200001D11E4A33E0224B984204D11B4A5368FB
:104C300043F470032EE01F4B984204D1174A536887
:104C400043F0706326E01C4B984204D11B4A536822
:104C500043F00F031EE01A4B984204D1174A5368E1
:104C600043F0F00316E0174B984204D1134A5368FF
:104C700043F470630EE0144B984204D10F4A53681A
:104C800043F4704306E0114B984204D10B4A536839
:104C900043F4702353607047080002400000024054
:104CA0001C00024030000240440002405800024014
:104CB0006C000240800002400804024000040240F0
:104CC0001C040240300402404404024058040240E4
:104CD0000A6A10B58C68036814430A6923F4FF4319
:104CE00014434A6923F0700314438A691443CA6960
:104CF00014434A6A14438A6A224313430360CB680D
:104D000043600B6883604B68C36010BD19B10368D2
:104D100043F0010303E04FF6FE73026813400360A3
:104D200070470000C3004CBF034B044B1B68034299
:104D300014BF012000207047000402400000024020
:104D4000FFF7F0BFC27810B503780AB3164A03F133
:104D50006043D1684278C943C1F30221C1F1040420
:104D600002FA04F40F22CA40817803F561430A4035
:104D700022431201D2B283F8002303780122590999
:104D800003F01F0302FA03F3084A42F8213010BD72
:104D90005A09012103F01F0301FA03F303492032EA
:104DA00041F8223010BD00BF00ED00E000E100E05E
:104DB000D0400B1CD1409C46203AD340184352426D
:104DC00063469340184370479140031C90409C46B3
:104DD000203A9340194352426346D34019437047E7
:104DE00080F0004002E000BF81F0004142001FBFA0
:104DF0005FEA410392EA030F7FEA226C7FEA236CA9
:104E00006AD04FEA1262D2EB1363C1BFD21841409D
:104E100048404140B8BF5B42192B88BF704710F033
:104E2000004F40F4000020F07F4018BF404211F0D6
:104E3000004F41F4000121F07F4118BF494292EA3E
:104E4000030F3FD0A2F1010241FA03FC10EB0C006A
:104E5000C3F1200301FA03F100F0004302D54942F7
:104E600060EB4000B0F5000F13D3B0F1807F06D3A4
:104E700040084FEA310102F10102FE2A51D2B1F19C
:104E8000004F40EBC25008BF20F0010040EA030091
:104E90007047490040EB000010F4000FA2F101023E
:104EA000EDD1B0FA80FCACF1080CB2EB0C0200FAC8
:104EB0000CF0AABF00EBC25052421843BCBFD04016
:104EC0001843704792F0000F81F4000106BF80F490
:104ED00000000132013BB5E74FEA41037FEA226C53
:104EE00018BF7FEA236C21D092EA030F04D092F01E
:104EF000000F08BF0846704790EA010F1CBF002052
:104F0000704712F07F4F04D1400028BF40F00040AE
:104F1000704712F100723CBF00F50000704700F0CE
:104F2000004343F0FE4040F4000070477FEA2262F5
:104F300016BF08467FEA23630146420206BF5FEAC6
:104F4000412390EA010F40F4800070474FF00003C6
:104F500004E000BF10F0004348BF40425FEA000C8D
:104F600008BF704743F0964301464FF000001CE035
:104F700050EA010208BF70474FF000030AE000BF8B
:104F800050EA010208BF704711F0004302D54042C9
:104F900061EB41015FEA010C02BF8446014600203B
:104FA00043F0B64308BFA3F18053A3F50003BCFA56
:104FB0008CF2083AA3EBC25310DB01FA02FC634403
:104FC00000FA02FCC2F12002BCF1004F20FA02F20A
:104FD00043EB020008BF20F00100704702F12002FD
:104FE00001FA02FCC2F1200250EA4C0021FA02F25E
:104FF00043EB020008BF20EADC7070474FF0FF0C63
:105000001CEAD0521EBF1CEAD15392EA0C0F93EA5D
:105010000C0F6FD01A4480EA010C400218BF5FEAFF
:1050200041211ED04FF0006343EA501043EA511172
:10503000A0FB01310CF00040B1F5000F3EBF49006C
:1050400041EAD3715B0040EA010062F17F02FD2A70
:105050001DD8B3F1004F40EBC25008BF20F0010053
:10506000704790F0000F0CF0004C08BF49024CEA6A
:10507000502040EA51207F3AC2BFD2F1FF0340EAFC
:10508000C250704740F400004FF00003013A5DDC6D
:1050900012F1190FDCBF00F000407047C2F10002AE
:1050A000410021FA02F1C2F1200200FA02FC5FEA9B
:1050B000310040F1000053EA4C0308BF20EADC70E5
:1050C000704792F0000F00F0004C02BF400010F457
:1050D000000F013AF9D040EA0C0093F0000F01F004
:1050E000004C02BF490011F4000F013BF9D041EA26
:1050F0000C018FE70CEAD15392EA0C0F18BF93EA28
:105100000C0F0AD030F0004C18BF31F0004CD8D151
:1051100080EA010000F00040704790F0000F17BFD8
:1051200090F0004F084691F0000F91F0004F14D01E
:1051300092EA0C0F01D142020FD193EA0C0F03D176
:105140004B0218BF084608D180EA010000F0004079
:1051500040F0FE4040F40000704740F0FE4040F454
:10516000400070474FF0FF0C1CEAD0521EBF1CEAF3
:10517000D15392EA0C0F93EA0C0F69D0A2EB030211
:1051800080EA010C49024FEA402037D04FF08053AB
:1051900043EA111143EA10130CF000408B4238BF70
:1051A0005B0042F17D024FF4000C8B4224BF5B1A7E
:1051B00040EA0C00B3EB510F24BFA3EB510340EACC
:1051C0005C00B3EB910F24BFA3EB910340EA9C007A
:1051D000B3EBD10F24BFA3EBD10340EADC001B01EA
:1051E00018BF5FEA1C1CE0D1FD2A3FF650AF8B428E
:1051F00040EBC25008BF20F0010070470CF0004C9B
:105200004CEA50207F32C2BFD2F1FF0340EAC250C5
:10521000704740F400004FF00003013A37E792F086
:10522000000F00F0004C02BF400010F4000F013AE4
:10523000F9D040EA0C0093F0000F01F0004C02BFDF
:10524000490011F4000F013BF9D041EA0C0195E748
:105250000CEAD15392EA0C0F08D142027FF47DAFE1
:1052600093EA0C0F7FF470AF084676E793EA0C0FD1
:1052700004D14B023FF44CAF08466EE730F0004CCF
:1052800018BF31F0004CCAD130F000427FF45CAF5F
:1052900031F000437FF43CAF5FE700BF4FF0FF3CCD
:1052A00006E000BF4FF0010C02E000BF4FF0010C20
:1052B0004DF804CD4FEA40024FEA41037FEA226CE9
:1052C00018BF7FEA236C11D001B052EA530C18BF0B
:1052D00090EA010F58BFB2EB030088BFC81738BF70
:1052E0006FEAE17018BF40F0010070477FEA226C5E
:1052F00002D15FEA402C05D17FEA236CE4D15FEA5A
:10530000412CE1D05DF8040B704700BF844608468D
:105310006146FFE70FB5FFF7C9FF002848BF10F14E
:10532000000F0FBD4DF808EDFFF7F4FF0CBF012093
:1053300000205DF808FB00BF4DF808EDFFF7EAFF1D
:1053400034BF012000205DF808FB00BF4DF808EDD8
:10535000FFF7E0FF94BF012000205DF808FB00BFCD
:105360004DF808EDFFF7D2FF94BF012000205DF853
:1053700008FB00BF4DF808EDFFF7C8FF34BF012060
:1053800000205DF808FB00BF4FEA4002B2F1FE4F7B
:105390000FD34FF09E03B3EB12620DD94FEA0023F7
:1053A00043F0004310F0004F23FA02F018BF4042D0
:1053B00070474FF00000704712F1610F01D14202B7
:1053C00005D110F0004008BF6FF0004070474FF06B
:1053D0000000704753B94AB9002908BF00281CBF14
:1053E0004FF0FF314FF0FF3000F0A8B9ADF1080CDD
:1053F0006DE904CE00F02CF8DDF804E0DDE90223CD
:1054000004B07047D0B500F0FFFA00220E4B0646FC
:105410000F4600F04DFB00F05DFD044600F0D2FAAF
:1054200000220A4B00F044FB02460B463046394648
:1054300000F08AF900F04EFD2346002242EA000205
:1054400010461946D0BD00BF0000F03D0000F041FD
:105450002DE9F04F8C460C460546099E002B4FD196
:105460008A4217466BD9B2FA82FEBEF1000F0BD00A
:10547000CEF1200520FA05F501FA0EF345EA030CFA
:1054800002FA0EF700FA0EF5390CBCFBF1F0BAB2D5
:1054900001FB10C300FB02F84FEA154C4CEA034431
:1054A000A04509D9E41900F1FF3380F02881A04517
:1054B00040F2258102383C44C8EB0404B4FBF1F30C
:1054C00001FB134C03FB02F2ACB244EA0C418A42EA
:1054D00009D9C91903F1FF3480F00F818A4240F2E3
:1054E0000C81023B39448A1A43EA00400021002E15
:1054F00063D022FA0EF2002386E80C00BDE8F08F9C
:105500008B4207D9002E56D0002186E811000846AC
:10551000BDE8F08FB3FA83F1002940F09380A342F5
:1055200002D3824200F2FE80851A64EB03039C469C
:105530000120002E41D086E82010BDE8F08F12B97E
:105540000127B7FBF2F7B7FA87FEBEF1000F36D19D
:10555000E41B4FEA17481FFA87F90121B4FBF8F35F
:1055600008FB134409FB03F24FEA154C4CEA0444D0
:10557000A24207D9E41903F1FF3002D2A24200F29D
:10558000D3800346A41AB4FBF8F008FB104809FBCB
:1055900000F9ACB244EA0842914507D9D21900F1AA
:1055A000FF3402D2914500F2BA802046C9EB0202D4
:1055B00040EA03409BE731463046BDE8F08F07FAEA
:1055C0000EF7CEF1200C24FA0CF34FEA1748B3FB88
:1055D000F8FA1FFA87F908FB1A3520FA0CFC04FACE
:1055E0000EF40AFB09FB4CEA040C4FEA1C4242EAA7
:1055F00005439B4500FA0EF50AD9DB190AF1FF3283
:1056000080F08B809B4540F28880AAF1020A3B44DF
:10561000CBEB0303B3FBF8F008FB103300FB09F4FA
:105620001FFA8CFC4CEA03439C4207D9DB1900F1BA
:10563000FF326ED29C426CD902383B441C1B40EABC
:105640000A418BE7C1F1200E8B4022FA0EFC4CEA96
:10565000030C24FA0EF74FEA1C49B7FBF9FA1FFABC
:105660008CF309FB1A7720FA0EF88C400AFB03F53D
:1056700048EA04044FEA144848EA0747BD4202FAE0
:1056800001F200FA01FB09D917EB0C070AF1FF3010
:1056900041D2BD423FD9AAF1020A67447F1BB7FB42
:1056A000F9F509FB157705FB03F3A4B244EA0747B4
:1056B000BB4208D917EB0C0705F1FF3027D2BB42DC
:1056C00025D9023D674445EA0A40A0FB0289FF1A3A
:1056D0004F4545464C4614D329D066B3BBEB050372
:1056E00067EB040707FA0EFECB40CF404EEA0303F8
:1056F00086E888000021BDE8F08F2346F3E61846CF
:10570000DAE6B8EB020569EB0C040138E5E705467B
:10571000D9E7104692E78246C0E7924678E702381A
:105720003A4443E7084604E7023B3C442AE7C345C2
:10573000E7D33C46D1E73146BDE8F08F704700BF64
:1057400081F0004102E000BF83F0004330B54FEA32
:1057500041044FEA430594EA050F08BF90EA020F9F
:105760001FBF54EA000C55EA020C7FEA645C7FEA32
:10577000655C00F0E2804FEA5454D4EB5555B8BF55
:105780006D420CDD2C4480EA020281EA030382EAC6
:10579000000083EA010180EA020281EA0303362D58
:1057A00088BF30BD11F0004F4FEA01314FF4801C2B
:1057B0004CEA113102D0404261EB410113F0004F3D
:1057C0004FEA03334CEA133302D0524263EB4303F4
:1057D00094EA050F00F0A780A4F10104D5F1200E92
:1057E0000DDB02FA0EFC22FA05F2801841F10001ED
:1057F00003FA0EF2801843FA05F359410EE0A5F1C1
:1058000020050EF1200E012A03FA0EFC28BF4CF0F1
:10581000020C43FA05F3C01851EBE37101F00045A7
:1058200007D54FF0000EDCF1000C7EEB00006EEBB4
:105830000101B1F5801F1BD3B1F5001F0CD349083E
:105840005FEA30004FEA3C0C04F101044FEA445295
:1058500012F5800F80F09A80BCF1004F08BF5FEA1C
:10586000500C50F1000041EB045141EA050130BDFC
:105870005FEA4C0C404141EB010111F4801FA4F19F
:105880000104E9D191F0000F04BF01460020B1FAF4
:1058900081F308BF2033A3F10B03B3F120020CDA2C
:1058A0000C3208DD02F1140CC2F10C0201FA0CF00A
:1058B00021FA02F10CE002F11402D8BFC2F1200C6F
:1058C00001FA02F120FA0CFCDCBF41EA0C01904025
:1058D000E41AA2BF01EB0451294330BD6FEA04046E
:1058E0001F3C1CDA0C340EDC04F11404C4F1200259
:1058F00020FA04F001FA02F340EA030021FA04F36B
:1059000045EA030130BDC4F10C04C4F1200220FAC1
:1059100002F001FA04F340EA0300294630BD21FAFF
:1059200004F0294630BD94F0000F83F4801306BFC5
:1059300081F480110134013D4EE77FEA645C18BFB9
:105940007FEA655C29D094EA050F08BF90EA020F50
:1059500005D054EA000C04BF1946104630BD91EA48
:10596000030F1EBF0021002030BD5FEA545C05D14B
:105970004000494128BF41F0004130BD14F580048A
:105980003CBF01F5801130BD01F0004545F0FE41FE
:1059900041F470014FF0000030BD7FEA645C1ABF33
:1059A000194610467FEA655C1CBF0B46024650EA6A
:1059B000013406BF52EA033591EA030F41F4002196
:1059C00030BD00BF90F0000F04BF0021704730B51C
:1059D0004FF4806404F132044FF000054FF00001F1
:1059E00050E700BF90F0000F04BF0021704730B5B2
:1059F0004FF4806404F1320410F0004548BF404287
:105A00004FF000013EE700BF42004FEAE2014FEADB
:105A100031014FEA02701FBF12F07F4393F07F4FB6
:105A200081F06051704792F0000F14BF93F07F4FE8
:105A3000704730B54FF4607401F0004521F000412B
:105A400020E700BF50EA010208BF704730B54FF0B1
:105A500000050AE050EA010208BF704730B511F0B6
:105A6000004502D5404261EB41014FF4806404F1EE
:105A700032045FEA915C3FF4DCAE4FF003025FEA70
:105A8000DC0C18BF03325FEADC0C18BF033202EBF8
:105A9000DC02C2F1200300FA03FC20FA02F001FA52
:105AA00003FE40EA0E0021FA02F11444C1E600BFF1
:105AB00070B54FF0FF0C4CF4E06C1CEA11541DBFA4
:105AC0001CEA135594EA0C0F95EA0C0F00F0DEF86F
:105AD0002C4481EA030621EA4C5123EA4C5350EA54
