:020000040800F2
:10000000581B0020E50F0008E10F0008E10F000871
:10001000E10F0008E10F0008E10F000800000000F8
:10002000000000000000000000000000E10F0008D8
:10003000E10F000800000000E10F0008ED180008C3
:10004000E10F0008E10F0008E10F0008E10F0008D0
:10005000E10F0008E10F0008E10F0008E10F0008C0
:10006000E10F0008E10F0008E10F0008E10F0008B0
:10007000E10F0008E10F0008E10F0008E10F0008A0
:10008000E10F0008E10F0008E10F0008E10F000890
:100090008D1D0008291E0008E10F0008E10F00086F
:1000A000E10F0008E10F0008E10F0008E10F000870
:1000B000E10F0008E10F0008E10F0008E10F000860
:1000C000E10F0008E10F0008E10F0008E10F000850
:1000D000E10F0008B91B0008E10F0008E10F00085C
:1000E000E10F0008E10F0008E10F00080000000028
:1000F0000000000000000000000000000000000000
:1001000000000000000000005FF808F1224A0388A8
:1001100090429BB212D002F5006290420ED0B0F134
:10012000804F0BD0A2F59832904207D002F5806242
:10013000904203D002F58062904203D14A8823F0B6
:1001400070031343154A904208D002F58062904232
:100150001FBF23F44073CA889BB2134303808B886C
:1001600083850B8803850C4B98420FD003F5006301
:1001700098420BD003F54063984207D003F58063A3
:10018000984203D003F58063984201D10B7A03862D
:1001900001238382704700BF002C01400010004003
:1001A000038819B19BB243F0010303E023F001037C
:1001B0001B041B0C03807047384B82B01A6842F056
:1001C00001021A605968364A0A405A601A6822F0D9
:1001D000847222F480321A601A6822F480221A6033
:1001E0005A6822F4FE025A604FF41F029A600022FD
:1001F000009201921A6842F480321A601A6802F47E
:1002000000320192009A01320092019A1AB9009AC2
:10021000B2F5A06FF2D11A6812F4003218BF0122B1
:100220000192019A012A05D01E4B4FF000629A609C
:1002300002B070471C4A116841F01001116011684A
:1002400021F003011160116841F0020111605A6848
:100250005A605A685A605A6842F480625A605A6812
:1002600022F47C125A605A6842F4E8125A601A6802
:1002700042F080721A601968084A8901FBD55168FA
:1002800021F003015160516841F0020151605A6848
:1002900002F00C02082AFAD1C6E700BF00100240A3
:1002A0000000FFF800ED00E0002002402DE9F047DB
:1002B000089D01F007044FEAD508224405F0070520
:1002C0004FF47F4900EBD100944227D005F0070698
:1002D00004F0070AB245D44638BFB446CCF1080151
:1002E000C4EB020C8C4528BF8C46E708C75D29FA91
:1002F0000CFE08EBD50107FA0AF75FFA8EFE4EFAFC
:1003000006FE47FA06F65F5C06EA0E0627EA0E0EC0
:1003100046EA0E065E5464446544D5E7BDE8F087BE
:100320000246006848B1036811891360D38801331D
:100330009BB29942D38038BF1381704770B5044691
:100340000D4688B020220021684604F0F9FE2046C0
:100350000495FFF7E5FF054658B16B46044608AE25
:100360001A4603CAB24220606160134604F10804D1
:10037000F6D1284608B070BD2DE9F0410568DDB121
:100380008E68A84626F06047BB0C4FEAD67EC6F3BF
:10039000807C2A4637EA260628BF1E469368BEEBB5
:1003A000D37F23F060440ED0002B08DAA40CB442B3
:1003B00007D1954213D10D600160BDE8F081B442D0
:1003C00012D0A64206E0A74203D1C3F380739C4536
:1003D00003D1A7422CBF002301232BB1E9E7C8F8C2
:1003E00000100A60BDE8F0811368904613B91160EF
:1003F000BDE8F0811A46D1E7F8B506460F464FF63C
:10040000FF7400252A463046394603F015FDC0B278
:1004100084EA0024082314F4004F4FEA4404A4B2F1
:100420001CBF84F4815484F00104013BF3D10835EE
:10043000402DE7D12046F8BD10B54B6843B1C468E4
:100440001A681C60C360438A013B43824A60F4E738
:100450000A8B002063F309020A83002110BD0A44BD
:10046000914211D011F8013B80EA0320082310F4D7
:10047000004F4FEA400080B21CBF80F4815080F0F2
:100480000100013BF3D1EBE770472DE9F04F85B058
:1004900081468DE80A00BDF83C409346002A7DD095
:1004A00024B10E9B002B79D0072C27D809F10C0022
:1004B000FFF736FF054610B96FF0020070E020220A
:1004C000002104F03DFE22460E9905F1100004F0D3
:1004D000C1FD631C2B769BF800302C4403F01F03F6
:1004E00063F03F032374009B09F11C0043F00043B9
:1004F000AB602946FFF740FF012051E04FF00008B4
:1005000046464546019B4FF0800A1B0A029300F1C4
:100510000C0303930398FFF703FF07460028CBD093
:100520002022002104F00CFE3EB99DF80430022286
:100530003B749DF808307B740BE0002209E00E9BB1
:10054000B9180132985DD2B20136072A0874B6B2E2
:1005500001D0B442F3D8A64208BF4FF0400A9BF83E
:100560000010B81801F01F0141EA481141EA0A03DE
:100570000374009B013243F00043BB603A76394676
:1005800009F11C00FFF7F8FEA64205F1010588F00D
:1005900001084FF0000ABDD1284601E06FF00100CC
:1005A00005B0BDE8F08F2DE9F04717460A8B994654
:1005B000C2F30902C2F10603002B0646884618DD85
:1005C00000201FFA89F185B253199BB2052B09D976
:1005D000A9420FD8B8F818300A4462F30903A8F802
:1005E00018306BE0A942F3D93C5C43449C7601305F
:1005F000E9E70025911F1C23B1FBF3FA03FB1A1A4C
:10060000D8F804405FFA8AF10CB1012329E03046A2
:10061000FFF786FE044608B100230360C8F80440D3
:10062000CCB96FF00200BDE8F0874A44063A1C20BE
:10063000B2FBF0F20132D2B293420DD2BAF1000F06
:100640000AD13046FFF76CFE08B1C0F800A0206068
:100650000028E6D0044600211FFA89F94FF0000A6D
:1006600011E020680028E0D00133DBB20446F8E74F
:10067000A3180132785D92B201351C2A1871ADB20F
:1006800005D0A945F4D84D450FD28AB2F0E7A94567
:10069000F9D93046FFF744FE08B1C0F800A0206049
:1006A0000028BED004460021EDE7B8F81820C2F3B8
:1006B0000903994469F30902A8F818200120BDE84C
:1006C000F087F8B5044616460D46242200211F4641
:1006D00004F036FD069B72096360079B00202362CD
:1006E0004FF6FF739A4228BF1A4629460346A76071
:1006F000207097B204F10C06934204D031600133AC
:100700000E462031F8E70023336027826382A382FC
:10071000F8BD03781BB94BB2002BC8BF01707047FE
:10072000007870472DE9F7430D9F8046BDF82840BB
:100730000B9E9DF83090BDF838500FB9002D3FD179
:10074000B9F11F0F3CD898F80010A9B9072D34D87B
:1007500034F0030334D12A4639464FF6FF70FFF7D1
:100760007EFE47F6FE73240204F4407444EA0964F2
:10077000034044EA43240FE041EA0421072D41EA03
:10078000096409D919461046FFF736FE2A4639464C
:10079000FFF765FE034601E04FF6FF7301950097F2
:1007A000324621464046FFF770FE33780133DBB214
:1007B0001F2B88BF0023337004E06FF0030001E0BB
:1007C0006FF0010003B0BDE8F0832DE9F7430E9F01
:1007D00081460C46104619460B9D9DF830209DF829
:1007E0003480BDF83C6007B976BB1F2A2CD899F835
:1007F000003063B343F0800343EA04239DF82840AC
:1008000043EAC83343EA0443072E43EA026407D9A4
:10081000FFF7F2FD32463946FFF721FE034601E0BD
:100820004FF6FF73019600972A4621464846FFF788
:100830002CFEB8F1010F0CD12B780133DBB21F2B4A
:1008400088BF00232B7004E06FF0010001E06FF01F
:10085000030003B0BDE8F083C06900B10830704701
:10086000C3691A68C261C2681A60C360438A013BE7
:10087000438270472DE9F047D0F818A00546164688
:100880001F465446DFF868804FF00009002C2CD03A
:10089000D4E90223B21A67EB0303994508BF9045D8
:1008A00020D2AB6921469C4228460DD1FFF7C4FDFA
:1008B000AB691B68AB61EB6823606B8AEC60AC6969
:1008C000013B6B82A246E1E7FFF7B6FD2368CAF859
:1008D0000030EB6823606B8AEC60013B6B82DAF8D6
:1008E0000040D3E7A2462468D0E7BDE8F08700BF08
:1008F00080841E002DE9F04F8BB00E4614460793FE
:10090000149F8246002800F0FF80002F00F0FC803A
:10091000531E3F2B00F2F880012A03D1079B002BC6
:1009200040F0F280BAF814500023ED00AE42089374
:10093000099301D3002505E133199D42DAF80C3003
:100940003ABFAD1BEDB225461BB9DAF81030002BCB
:1009500061D02F2E15D8C6F13008A84528BFA8466B
:10096000002300935FFA88FB4246314608ABDAF871
:1009700008004644CBEB0508FFF798FC5FFA88F8BF
:1009800002E0A8464FF0000BBAF81430302103F112
:100990000053063BDB000493DAF80C300393039B0F
:1009A0006BB3B8F1000F2AD0049BE02B28BFE023E3
:1009B00006930B44B342059318D9C6EB0309C84507
:1009C00038BFC146039828BF5FFA89F9CDF800B057
:1009D000711A08AB4A460430FFF768FCCB44C9EBF8
:1009E00008084E445FFA8BFB5FFA88F8049B069A6E
:1009F00005999B1A0493039B1B680393CFE7DAF8CE
:100A0000100080B1B8F1000F0DD0CDF800B008ABE8
:100A10004246711A05E02A4631460093DAF808008A
:100A200008ABFFF743FC002D84D066070BD00AAB60
:100A300003EBD40111F8082C634203F0070342FAD8
:100A400003F301F8083C082C06D9102C06D9202CF9
:100A50008CBF0823042302E0012300E00223079A4D
:100A6000002A57D0B4EBC30F56D0082C0ED89DF9EE
:100A70002020631E22FA03F3D80760D54FF0FF331E
:100A800003FA04F414438DF8204058E0102C0ED8DB
:100A9000BDF92020631E22FA03F3D90743D54FF096
:100AA000FF3303FA04F41443ADF820403BE0202C5C
:100AB0000CD8089B621E23FA02F2D20737D54FF0FA
:100AC000FF3202FA04F42343089330E0402C1ED096
:100AD000DDE90889621E4046494603F0ADF9002170
:100AE00000F0010050EA010324D022460120002139
:100AF00003F0AEF9404261EB410140EA080041EAEF
:100B00000901CDE9080115E06FF001051AE06FF069
:100B1000080517E0012C12D0082C10D9102C02D98E
:100B2000202C07D803E0BDF820303B800AE0089B6A
:100B30003B6007E0DDE90823C7E9002302E09DF8F8
:100B400020303B7028460BB0BDE8F08F30B5402A0E
:100B500085B018D8002A08BF01220024012A029477
:100B6000039401D0082A03D81B788DF808300FE0D1
:100B7000102A03D81B88ADF8083009E0202A03D8D2
:100B80001B68029304E04022D3E90045CDE9024509
:100B900053070BD004AB03EBD20515F8084C5342B6
:100BA00003F0070304FA03F305F8083C0091034639
:100BB000002102A8FFF77AFB05B030BD10B5CB6865
:100BC00043B1C4681A681C60C360438A013B438216
:100BD000CA60F4E78B600B618B8210BD2DE9F04F8A
:100BE000D1F800A08FB0CDE90223CAF3C0120446A9
:100BF0000D4622B1CAF3C03BCAF3062802E0904674
:100C00004FF0020BBAF1000F80F2BB812B6813F09A
:100C1000C04F40F0B6812B7C002B00F0B281BBF1BD
:100C2000020F03D02178414540F0AB810AF07F01EB
:100C3000C8B2059012B1CAF3074904E0CAF30F29FC
:100C400009B909F003092B444FEA4868059ADE798F
:100C500048EA0B4848EA8248F30948EA090804933D
:100C60002BD0002200230EA961E90823059B6768A9
:100C700000934A465B462046B847002800F0818131
:100C8000A7694FB9414604F10C00FFF757FB07462F
:100C900088B976E13F681FB13B699845FAD115E004
:100CA000414604F10C00FFF749FB0746002800F01D
:100CB0006881A3693B60A76108E0A769002F00F085
:100CC00060813B69984506D03F68F7E7DDE906019A
:100CD000FFF792FBF88297F819E006F01F08CEF3B1
:100CE000840EB8EB0E0ED7E9022348BF0EF1200E9A
:100CF00052EA0301CAF3046A00F02E81DDE9020121
:100D0000801A61EB03010B46024600219E4899427E
:100D100008BF9042C0F02081049B5BB3BEF1010F7D
:100D200000F31A81730625D5DDE902230021C7E906
:100D3000022306A8202204F003FADDE90223CDE90C
:100D4000062305F1080308932B7CADF82E90013B98
:100D5000DBB2ADF82C309DF814308DF830B08DF842
:100D600033308DF831808DF832A0A36806A9204673
:100D70009847DEE07B7EC6F34012B2EBD31F40F013
:100D80000081C3F38403434540F0FB80049A2B7C2D
:100D9000B609002A33D016F001065ED1032B40F2CB
:100DA000F080DDE90223C7E902232B7C05F10A0864
:100DB000033BDBB24246394604F10C00FFF7F3FB7C
:100DC000002812DA39462046FFF736FB7B7EC3F354
:100DD0008402013262F386037B763B8B66F3090360
:100DE0003B831B0A66F3C713B4E06A7A2B7A414649
:100DF00043EA0223BB822A7C033AD2B223E066BBD9
:100E000005F10806013BDBB23246394604F10C001D
:100E1000FFF7C9FB002812DA39462046FFF70CFB22
:100E20007B7EC3F38402013262F386037B76049AED
:100E30003B8B62F309033B83049A1B0A88E031462B
:100E40002A7C013AD2B2F88AFFF709FB7B7EF8824E
:100E5000C3F3C01282F001027AE0388B013BC0F389
:100E600009000528DBB212D8EE1D0021CAB2934258
:100E700028D9013100EB010E16F801CF07EB0E0265
:100E8000BEF1060F82F819C0CAB2EFD11AE07E682F
:100E9000BEB10622316811B11C320E46FAE7801A43
:100EA00005F1070C00EB010EBEF11B0FCAB209D809
:100EB0009A4207D21CF8012FB6448EF80420013163
:100EC000F0E73246DDE902019A42CDE9060107F179
:100ED0001A01089138BF0832796834BF52190022CC
:100EE00009910A923A8BADF82E90C2F3090213448D
:100EF000ADF82C309DF814308DF830B08DF83330CB
:100F000000238DF831808DF832A07B602A7CF88A2E
:100F1000013A05F10801FFF7A2FABB8AF882834281
:100F200003D1A36806A92046984706A92046FFF7E3
:100F300045FE7B7EC3F38402013262F386037B7637
:100F40003B8B6FF309033B831B0A6FF3C71301E06D
:100F500062F3C7137B7614E07B7E394666F3860323
:100F60006FF3C7137B762046FFF766FA049B002BCE
:100F70007FF4D8AE7B7EC3F38402013262F3860332
:100F8000E8E70FB0BDE8F08F80841E00034651F8FB
:100F9000100F8A8818609A801846704720F0004326
:100FA000B3F1FF4F10B500F0004405D347F6FF70D2
:100FB00008BF4FF4F8400EE008484FF0F0611840C9
:100FC00003F060F800F58050B0F1786F88BF4FF003
:100FD0007860C0F34F3040EA144010BD00F0FF7F4E
:100FE000FEE7000008B50C4A0C4B0D498B4204D2B9
:100FF00052F8040F43F8040BF8E70A480A494FF087
:1010000000028842B8BF40F8042BFADBFFF7D4F89F
:10101000BDE8084002F09EBE3457000800000020E2
:1010200044040020480400205817002043690AB1F6
:10103000194301E023EA010141617047B1F5807F66
:1010400035D00CD8082924D004D801291CD0042973
:101050001DD0704720291FD040291FD07047B1F5FF
:10106000006F22D006D8B1F5007F20D0B1F5806F97
:101070001DD07047B1F5803F13D0B1F5003F12D0BD
:10108000B1F5004F15D110E00A4B8360704708237B
:1010900000E01023C3607047082300E010230361C1
:1010A0007047082304E0102302E000238361042337
:1010B0004360704701010100CA782DE9F041D40670
:1010C00048BF8C780E8802F00F0348BF234316F008
:1010D000FF0F1ED0016800244FF0010E4FF00F0CDF
:1010E0000EFA04F737EA06050FD1A5000CFA05F849
:1010F00021EA080103FA05F5282A41EA050101D190
:10110000476102E0482A08BF07610134082CE7D193
:101110000160FF2E20D9416800244FF0010E4FF0EE
:101120000F0C04F108050EFA05F535EA06070FD194
:10113000A7000CFA07F821EA080103FA07F7282AA2
:1011400041EA070101D1456102E0482A08BF056173
:101150000134082CE5D14160BDE8F0810028164A31
:1011600030B500F44015B4BFD3695368B5F5401FDE
:1011700084B206D1556823F0706325F07065556020
:101180000EE0C20255BF420D03221201C0F3034517
:101190004CBFAA4004FA02F223EA020343F0706350
:1011A00019B1420D120194402343034A0028B4BFF1
:1011B000D361536030BD00BF00000140034A536853
:1011C00023F4404318435060704700BF00100240B2
:1011D000044B9A6909B1104301E022EA00009861CA
:1011E000704700BF00100240044BDA6909B1104398
:1011F00001E022EA0000D861704700BF0010024001
:10120000436810B523F470220B6822F480721343F4
:101210000A7943EA02234360CA688B6884681A43E8
:10122000084B234013434A7943EA42038360C36A6D
:1012300023F470020B7C013BDBB242EA0353C3622E
:1012400010BD00BFFDF7F1FF836811B143F001034A
:1012500001E023F0010383607047836843F00803D3
:10126000836070478068C0F3C0007047836843F0B4
:101270000403836070478068C0F380007047836810
:1012800011B143F4A00301E023F4A003836070478D
:10129000092970B50DD9A1F10A04C66804EB44040C
:1012A0000725A54026EA050503FA04F42C43C4608B
:1012B0000AE0066901EB41040725A54026EA050579
:1012C00003FA04F42C430461062A0CD8013A446B57
:1012D00002EB82021F23934024EA030301FA02F285
:1012E0001A43426370BD0C2A0CD8073A046B02EB18
:1012F00082021F23934024EA030301FA02F21A43F5
:10130000026370BD0D3AC46A02EB82021F23934050
:1013100024EA030301FA02F21A43C26270BDC06CF0
:1013200080B27047034B044A5A6002F188325A6017
:10133000704700BF0020024023016745FFF7F2BF5E
:10134000024A136943F08003136170470020024092
:10135000FFF7F6BF084BDA68D10709D4DA685207FD
:1013600008D4DB6813F0100F14BF0320042070476B
:1013700001207047022070470020024010B504464B
:10138000FFF7E8FF012806D11CB1FFF7E3FF013C9E
:10139000F8E7052010BD002C08BF052010BD000097
:1013A00070B505464FF400500E46FFF7E7FF0428DE
:1013B0000ED1084C4FF40050236943F00103236120
:1013C0002E80FFF7DBFF41F6FE7322691340236195
:1013D00070BD00BF0020024073B5002306464FF4E5
:1013E00000500D460193FFF7C9FF04281AD10E4C97
:1013F0004FF40050236943F001032361ABB2338003
:10140000FFF7BCFF042808D102360196019B2D0C82
:101410001D804FF40050FFF7B1FF41F6FE732269C3
:101420001340236102B070BD0020024038B505466C
:101430004FF43020FFF7A2FF042812D1094C4FF4DB
:101440003020236943F0020323616561236943F07F
:1014500040032361FFF792FF41F6FD7322691340B9
:10146000236138BD00200240C27810B503780AB36A
:10147000164A03F16043D1684278C943C1F302219F
:10148000C1F1040402FA04F40F22CA40817803F582
:1014900061430A4022431201D2B283F80023037849
:1014A0000122590903F01F0302FA03F3084A42F824
:1014B000213010BD5A09012103F01F0301FA03F383
:1014C0000349203241F8223010BD00BF00ED00E09A
:1014D00000E100E0410746BFC30843F00043430D6D
:1014E000820748BF43F0804318467047094B9A690A
:1014F00012F0700F0DD000229A61074A5168013135
:101500005160127F12B99B695B0702D5034A014BF8
:101510009A6070470064004048040020808080008A
:1015200070B50C4615461E46FFF7FAF850B9022E64
:101530000AD1012D08D122A3D3E900232846C4E90A
:10154000002303E0002001E04FF6FF7000B2012805
:1015500032D001302FD0012E2DD1013D0A2D2AD8B5
:10156000DFE805F00629290D14292929291B220065
:1015700015A3D3E900230120C4E9002370BD14A3FF
:10158000D3E900230120C4E9002370BD12A3D3E9ED
:1015900000230120C4E9002370BD11A3D3E9002377
:1015A0000120C4E9002370BD0FA3D3E9002301206B
:1015B000C4E9002370BD002070BD00BFAFF3008000
:1015C000401DA12026812A0B9E6AC421818A46EEF5
:1015D000042B31ECA7766FBEF017304A39059E56C2
:1015E000CDD269EBC51A133BD5A4D139F922B6A7E0
:1015F00010B50E4C3823E360204623610221FFF72B
:101600001DFD20461021FFF719FD094A0023138014
:10161000084A2046138002210122FFF707FD2046D9
:10162000BDE8104001221021FFF700BD006400401A
:10163000DC040020E004002000EB8000430018469A
:101640000138FDD87047402808B5024609D8BDE8E2
:101650000840C0EB401002EB8000C00080B2FFF7F2
:10166000EBBF4FF47A70FFF7E7FF013A92B2002A1E
:10167000F7D108BD38B5044603F0C0FE80B202467B
:10168000002330B1013880B2215C2E2908BF034607
:10169000F7E713B9013A202010E0013B202182B284
:1016A0009A4205DAA55C0130302D0AD1A154F6E743
:1016B00038BD655C0133302D03D1605499B291423D
:1016C000F7DB38BD0309092B00F00F0094BF30335E
:1016D000373309280B7094BF3030373000234870FF
:1016E0008B70704713B50A46044601A9C0B2FFF7D4
:1016F000E9FF200A1146FFF7E5FF9DF804309370DB
:101700009DF80530D3709DF80630137102B010BDFE
:1017100013B50A46044601A9C0B2FFF7D3FF9DF8EE
:10172000043001A993719DF80530C4F30720D371EB
:10173000FFF7C8FF9DF8043001A913719DF805302B
:10174000C4F307405371FFF7BDFF9DF8043001A9B2
:1017500093709DF80530200ED370FFF7B3FF9DF80E
:10176000043013709DF8053053700023137202B0DB
:1017700010BDF8B50D46069C002121702978752909
:1017800031D16E78632E01D1017807E0692E01D145
:10179000018803E06C2E40F0A7800168AF78682FC5
:1017A00017D1632E05D12146BDE8F8400078FFF738
:1017B00089BF692E05D12146BDE8F8400088FFF7B2
:1017C00091BF6C2E33D12146BDE8F8400068FFF789
:1017D0009FBF2B2F2BD111B12770012628E020208D
:1017E0002070012624E073297ED16978632902D113
:1017F00090F9001007E0692902D1B0F9001002E069
:101800006C2971D10168A8782B280AD1002903DA44
:101810002D202070012608E008BF2020207001261E
:1018200006E000294FF0000602DA494200E00026F7
:10183000174618464FF0300E002806DA013FBFB2B7
:10184000013004F807E000B2F6E703EAE37313445B
:1018500018BF01309BB218BF00B20A274FF02E0C00
:101860009E4210D2013B9BB2C3EB020E86451FBFC6
:10187000B1FBF7FE07FB1E113031E1540CBF04F839
:1018800003C07146ECE70023A3547A21284603F0F5
:10189000EFFC48B3AB782B2B0FD1601CFFF7EAFEAF
:1018A000204603F0ABFD0123834205D2E25C202AEF
:1018B0000BD101339BB2F7E7F8BD2046FFF7DAFE04
:1018C000204603F09BFD01230BE02278234403F81C
:1018D000012C20232370F8BDE25C202AF5D10133CE
:1018E0009BB28342F8D3F8BDF8BD0000034B012240
:1018F000DA831A6A01321A62704700BF4804002076
:101900000B4B0021D98319620A4B0B4A1B68F0204C
:10191000B3FBF2F34FF47A725343084A013B53602E
:10192000074B83F82300072391601360704700BFC3
:10193000480400200000002040420F0010E000E0BA
:1019400000ED00E02DE9F84F254B264D01281CBF86
:10195000AA461D46894614462349244A06BF9A468C
:1019600088469046FFF7EAFC2846FFF75FFD04280B
:10197000074630D14FF6FF7BB9F1000F08BF4FF497
:101980007A74013405F1100624F001043444C5EBE7
:101990000A0AA64217D0B9F1000F03D13AF806108F
:1019A00089B203E0731B4B4433F8101C594501D135
:1019B0000236EEE7B0450DD93046FFF7F1FC0428BA
:1019C0000746F5D007E04FF011312846FFF704FD38
:1019D000074600E08027FFF7BBFC3846BDE8F88FDC
:1019E00000E0010800E40108FFE70108FFE3010847
:1019F00010B5FFF7A3FC0748FFF718FD04280446BD
:101A000003D10548FFF712FD0446FFF7A1FC20466D
:101A100010BD00BF00E0010800E401080131C1F37E
:101A20004F0100239AB291420AD9B3F5FC7F09D045
:101A3000054A1A445200128820F813200133F1E7B6
:101A4000042070478020704708F0000438B50A462B
:101A500004460D4601460020FFF774FFC0B204287B
:101A600001D080B238BD2A4621460120FFF76AFF27
:101A7000C0B238BD38B5164B1D68D3F80044B5F177
:101A8000113F07D1B4F1113F01D104201DE0621CC8
:101A90000ED104E06B1C0BD1B4F1113F08D1002230
:101AA00011460120FFF74EFFC0B204280DD1ECE72C
:101AB000FFF79EFFC0B2042807D1013504D10134DD
:101AC00014BF4020202000E0402080B238BD00BF7D
:101AD00000E001081FB501214FF40060FFF778FB1B
:101AE0000023ADF80A30ADF806304FF6FF73ADF8BD
:101AF0000830094B094A1B68094CB3FBF2F304A9EF
:101B0000013B21F80C3D2046FEF700FB0121204659
:101B1000FEF746FB04B010BD0000002040420F005D
:101B2000002C014072B6064B9B8C9BB262B6054AF4
:101B300091889380994282BF11680131116070478A
:101B4000002C01401805002030B472B60D4B988C63
:101B500080B262B60C490B8AD1E90245834204D9AE
:101B6000013445F10005C1E902452B04220443EA92
:101B70001443141843F1000508822046294630BC5E
:101B8000704700BF002C01401805002008B5012057
:101B9000FFF7A0FF064B00219A8C064B92B219600A
:101BA000002000219A80C3E902011A8208BD00BF0B
:101BB000002C014018050020184B10B5198889B277
:101BC0008A060ED5164C17489A8823880088013358
:101BD000DBB280B2834292B21FBF1348D2B2C2546A
:101BE00023800B0619D5114B114A1988138889B225
:101BF0009BB299420AD013880133DBB21380138859
:101C00000C4A9BB2D35C054A938010BD034A93896A
:101C100023F080031B041B0C938110BD003801408E
:101C20000E050020100500201C120020DE040020FC
:101C30001A1200201C13002070B504460646044DFD
:101C40000FCD0FC495E8070084E80700304670BD4B
:101C500048040020044B986800F0E05000F1644311
:101C600058425841704700BF006400402DE9F341DD
:101C7000054600287DD0046814F000547CD1FFF79D
:101C800035FC3F4B9A6802F0E052B2F1E05F51D070
:101C90009A682646C2F380628DF804209A689B6891
:101CA000C2F3C062C3F300738DF805208DF80630CF
:101CB000FF2401ABF35C0BB1F4B234E0330103F168
:101CC000804303F5CB431868FFF704FC2F684FEA05
:101CD000D07C4FEAD778E04527F0604320F060429F
:101CE00007F0004E00F0004110D0BEF1000F00D010
:101CF0009B0C19B1900C984215D002E09A4217D073
:101D0000104683422CBF002001200BE0934205D1F6
:101D1000C0F38070C7F38077874203D193422CBF12
:101D20000020012020B10136032EC2D1FF2C01D1A9
:101D3000002022E023012A7C03F1804303F5CB43FA
:101D40005A60EA682968DA60AA6800299A60BABF0E
:101D5000CA0042F004024A05490048BF42F00202AC
:101D600042F001021A60074A0120536901335361AE
:101D700003E06FF0010000E0034802B0BDE8F0812D
:101D8000006400404804002015FCFFFF2DE9F041ED
:101D9000204F214A3D881388013505F03F059BB24D
:101DA0009D4290461D4C1CD01D4EF368DB0642BF81
:101DB000236801332360D6F8B001FFF78BFB1823AB
:101DC0006B431849C850CA18D6F8B43103F00F0352
:101DD0001374D6F8B8319360D6F8BC31D3603D8027
:101DE00002E0A3680133A3603B889AB2B8F80030E0
:101DF0009BB2D31A228A48BF40339342C4BF074ADA
:101E00001382A36938220133A361054BDA60BDE870
:101E1000F08100BFE0040020DC0400204804002022
:101E200000640040D80500202DE9F041204F214AF0
:101E30003D881388013505F03F059BB29D429046D1
:101E40001D4C1CD01D4E3369DB0642BF2368013395
:101E50002360D6F8C001FFF73DFB18236B431849F8
:101E6000C850CA18D6F8C43103F00F031374D6F85B
:101E7000C8319360D6F8CC31D3603D8002E0E3688E
:101E80000133E3603B889AB2B8F800309BB2D31AB2
:101E9000228A48BF40339342C4BF074A1382A369D2
:101EA00038220133A361054B1A61BDE8F08100BF00
:101EB000E0040020DC04002048040020006400400E
:101EC000D8050020F8B500B3FFF710FB114D124BF9
:101ED0001A882B8892B29BB29A4219D02A880F4C4A
:101EE0000132182302F03F0203FB0244034604F1CF
:101EF0001807264603CEBE4218605960344603F1E7
:101F00000803F6D12A800120F8BD6FF00100F8BD6A
:101F10000020F8BDDC040020E0040020D8050020EB
:101F200037B514230024012501A88DF804308DF85D
:101F300005408DF806408DF80750FFF795FA1523F8
:101F400001A88DF804308DF805408DF806408DF815
:101F50000750FFF789FA03B030BD0000012810B523
:101F600003D1BDE81040FFF743BB0E4C0022022115
:101F70002046FFF75BF8002210212046FFF756F8B5
:101F800002212046FFF75AF810212046FFF756F8A5
:101F90003823054AE360236100231380034A13803A
:101FA00010BD00BF00640040DC040020E0040020FD
:101FB000032970B504460D463ED800283CD003885E
:101FC000013B9BB2B3F5806F36D2C388013B9BB215
:101FD000032B31D84388013B9BB20F2B2CD883882D
:101FE000013B9BB2072B27D8474E1C2230460021CD
:101FF00003F0A6F8AA1E534253413377434B002205
:102000005A611A684FF47A7622F002021A601A684E
:1020100042F001021A601A4653683C49DB070ED4AD
:102020004FF47A70FFF708FB013EF5D14FF40043FF
:102030000B606FF47A7070BD6FF0010070BD6123AA
:102040000B60E2886388013A013B12061B0403F42B
:10205000702302F040721A432388012D03F1FF33ED
:10206000C3F3090342EA0302A3884FF47A7403F12D
:10207000FF334FEA035303F4E00343EA02030CBFC8
:102080004FF000420022032D43EA02030CBF4FF041
:10209000804200221343CB610B6823F001030B60E5
:1020A00048681A4A10F001000AD04FF47A70FFF71E
:1020B000C3FA013CF4D14FF400431360144870BDDF
:1020C000D2F8003223F47C5323F00E0343F4606310
:1020D00043F00103C2F800326FF07043C2F804020B
:1020E000C2F80C320B4BC2F814320123C2F8400282
:1020F000C2F84402C2F81C32D2F8003223F00103C5
:10210000C2F8003270BD00BF4804002000640040E7
:1021100016FCFFFFAAAAAA0AF0B500283DD00E2996
:102120003BD806461E4F0022C7F81C224FF0010E76
:1021300093B299422FD950F83250002D02DB7368C8
:10214000002B05DB7368EC00DB0044F0040401E0C5
:102150006C055B056D00756848BF44F00204002DF6
:10216000B8BF43F004036D004FEAC20505F1804596
:1021700048BF43F0020305F5C845C5F84042C5F81D
:102180004432D7F81C320EFA02F42343C7F81C324B
:1021900001320836CCE70020F0BD6FF00100F0BD41
:1021A0000064004013B5044601214FF00070FFF7B2
:1021B0001BF801211CB10920FFF70AF802E00420F6
:1021C000FFF706F848238DF8073003238DF8063013
:1021D00044B14FF4807301A91648ADF80430FEF7FE
:1021E0006BFF07E04FF4006301A91348ADF804301A
:1021F000FEF762FF18238DF8073003238DF80630B1
:102200006CB14FF4007301A90A48ADF80430FEF731
:1022100053FF01214FF4EA10FEF7A0FF07E04FF44F
:10222000805301A90448ADF80430FEF745FF02B021
:1022300010BD00BF000C01400008014010B504466D
:102240000748FEF76DFA230403F47F0343F080236D
:1022500043F0800300F07F0043EA002010BD00BF80
:10226000DC0B002008B502F0C3FF01F0B7FE4FF011
:10227000405101F007FF08BD08B5182200210448AD
:1022800002F05EFFBDE80840002002F0A7BF00BFDB
:10229000B814002038B50C460546002101602346DD
:1022A000C0F803102022FEF751FC231D022220213A
:1022B0002846FEF74BFCA31D032222212846FEF7E9
:1022C00045FC04F10803032225212846FEF73EFCC5
:1022D00004F10A03102228212846FEF737FC04489F
:1022E000FEF71EFA034BA0811B78E38138BD00BFC7
:1022F000DC0B00200C05002010B5FFF725FC0023A7
:10230000064A02F0D5F8064C00232060638121467E
:10231000BDE810400348FFF7BDBF00BF40420F00BB
:10232000CC0400200010002030B50F4C87B023886B
:10233000A3B104F585652846FFF7DEFF0723049364
:1023400014230293094B0395019340F25513201D6A
:10235000009303A3D3E90023FEF7E4F907B030BDEF
:10236000F1C6A7C1D068080FD80B00200C050020CB
:1023700010B5064C10220021204602F0E1FE044B6D
:1023800000221A700123E38010BD00BFCC0400209E
:102390000C05002000000000F7B5044640F2791259
:1023A0000E46002102F0CCFE2046FFF7A5FF18A143
:1023B000D1E9000106232372002502AB012763E95E
:1023C0000201E5712046677220225021FEF7BEFB14
:1023D0000D4AA7751346E57503CBA061E161186846
:1023E0000A4B20621068293444F8050C03F11802E6
:1023F00053F8041B934244F8041BF9D14123338062
:1024000003B0F0BDAFF30080E8F7FF1F5C56000893
:10241000ED04AE050000000070B5134D88B02B88A8
:102420000446CBB105F585660DF11E013046FFF778
:10243000B3FFBDF81E30E17E05930023049603939D
:10244000A37E1934029301230093019404A3D3E9DA
:102450000023281DFEF7B9F908B070BDAFF3008066
:102460009E6AC421818A46EED80B002070B50546CD
:102470008AB00E464922002102F062FE03A8FFF74F
:10248000DBFB089B00248DE8180021466B4628469C
:102490003022FEF75BFB099B30228DE818001146C5
:1024A0006B462846FEF752FB039B049A60211A44B0
:1024B000059B28461A44069B13448DE818003022D9
:1024C0006B46FEF743FB122333800AB070BD000059
:1024D00070B5134D88B02B880446CBB105F58566E1
:1024E0000DF11E013046FFF7C1FFBDF81E30E17E41
:1024F0000593002304960393A37E193402930423C7
:102500000093019404A3D3E90023281DFEF75DF98D
:1025100008B070BDAFF30080042B31ECA7766FBE1E
:10252000D80B002037B504460D461022002102F0DA
:1025300007FE00231946009428222846FEF7DAF900
:10254000EB7E23816B7E638103B030BD10B4002429
:1025500004700B460122214610BCFEF7F7BA0000BA
:102560001FB501466846FFF7DDFFDDE9000106A360
:10257000D3E90023994206BF90420120002005B014
:102580005DF804FBAFF300801E1B55CEAC000000CD
:102590000149FFF7DBBF00BFC804002000000000B6
:1025A00070B5114D86B02B880446B3B105F585662C
:1025B0003046FFF7EDFF0123E17E059300230496EB
:1025C0000393A37E1934029305230093019404A37B
:1025D000D3E90023281DFEF7F8F806B070BD00BF50
:1025E000F017304A39059E56D80B0020014B0022C7
:1025F0001A807047C804002037B50D4604460023F2
:10260000036083801946009008222846FEF772F97D
:10261000EB7E63806B7EA38003B030BD002202603E
:102620000B46C0F8032030210122FEF78FBA0000CC
:102630000149FFF7F3BF00BF18120020000000009F
:1026400070B5114D86B02B880446B3B105F585668B
:102650003046FFF7EDFF0723E17E05930023049644
:102660000393A37E193402930A230093019404A3D5
:10267000D3E90023281DFEF7A8F806B070BD00BFFF
:10268000CDD269EBC51A133BD80B002073B50D46AC
:10269000144600920023096803220646FEF72AF931
:1026A000296823880331012B29600CD0022B13D118
:1026B00008340123009420223046FEF71BF92B68D2
:1026C00020332B6008E00834009440223046FEF7A7
:1026D00011F92B6840332B6002B070BDF0B50E4687
:1026E0000746002485B040222146039402F028FDCD
:1026F00023460D22214600973046FEF7FBF8039B48
:1027000004A90D3341F8043D07F108023046FFF7F4
:10271000BDFF039DB38A0735A3EBD5052DB21F2D51
:10272000A8BF1F25A2B2AA4204F101040CDA183294
:102730003A4400920023082203993046FEF7DAF863
:10274000039B08330393EDE7F37E3B87737E7B8720
:1027500005B0F0BD70B50C46154613460968032256
:102760000646FEF7F3F921682B880331012B21601F
:1027700002D0022B0AD070BD05F10803402230467A
:10278000FEF7E4F923684033236070BD05F10803C8
:1027900020223046FEF7DAF923682033236070BD2B
:1027A00070B50C4615461346096802220646FEF728
:1027B000CDF921682B880231012B216002D0022B38
:1027C0000AD070BD05F1080340223046FEF7BEF97D
:1027D00023684033236070BD05F108032022304692
:1027E000FEF7B4F923682033236070BD2DE9F74369
:1027F0000446154600260DF108090F4640F27312F3
:102800003146009602F09CFC49F8046D4B46314677
:1028100020460522FEF79AF9009B0DF108080533C2
:1028200048F8083D2A4641462046FFF793FF4B46AD
:102830000099204605220196FEF788F9009B05F1D4
:1028400010020533414620460093FFF783FF4B46B5
:102850000099204606220196FEF778F9009B05F1C3
:1028600020020633414620460093FFF799FF4B466E
:102870000099204606220196FEF768F9009B05F1B3
:1028800030020633414620460093FFF789FF009E41
:1028900040350736F6082846009602F0AFFD1FFACD
:1028A00080F84246A019294602F0D4FB46443E80F7
:1028B00003B0BDE8F0830000014AFFF797BF00BFF7
:1028C000780500200000000070B5134D88B02B88FB
:1028D0000446CBB105F585660DF11E013046FFF7C4
:1028E000EBFFBDF81E30E17E0593002304960393B1
:1028F000A37E193402930B230093019404A3D3E91C
:102900000023281DFDF761FF08B070BDAFF3008004
:10291000D5A4D139F922B6A7D80B00202DE9F0476C
:102920000B7E04460E4623B90F880B2F00F203815D
:1029300013E04FF01809DFF80C82002501EB090ABB
:1029400009FB0583102299685046AFB202F084FD5E
:1029500018B101350C2DF3D1EDE03389794DE3B198
:1029600018227A43AB181B79013B082B15D8DFE8F6
:1029700003F0050509090D0D14141100AB58326957
:102980001A700AE0AB5832691A8006E0AB58326917
:102990001A6002E03069AB58186018237B431D446D
:1029A0002979684A0139082900F2AF80DFE811F07F
:1029B000090020003B0052006D008100AD00AD0019
:1029C0009800D358012121862184218221801A7800
:1029D0000023C4E902232A7B0023C4E906232A7CBE
:1029E0000023C4E90E232A7D0023C4E90A239BE0C7
:1029F000D3580121218621842182218093F900204E
:102A0000D317C4E9022395F90C20D317C4E9062390
:102A100095F91020D317C4E90E2395F91420D31784
:102A2000C4E90A2380E0D358012121862184218230
:102A300021801A880023C4E90223AA890023C4E95B
:102A400006232A8A0023C4E90E23AA8A0023C4E9A4
:102A50000A2369E0D3580121218621842182218023
:102A6000B3F90020D317C4E90223B5F90C20D3171A
:102A7000C4E90623B5F91020D317C4E90E23B5F92C
:102A80001420D317C4E90A234EE0D35801211A6851
:102A90000023A260E360EA68E361A2612A69E3635C
:102AA000A2636A692186218421822180A262E36275
:102AB0003AE0D35801211A682186D317C4E90223CA
:102AC000EA682184D317C4E906232A692182D3172F
:102AD000C4E90E236A692180D317C4E90A2323E0DD
:102AE000D35802211B682186A360E86821842182D3
:102AF000218001F073FAA061286901F06FFAA063E8
:102B0000686901F06BFAA0620EE0012300222386BF
:102B10002384238223800023C4E90623C4E90E23EF
:102B2000094A0023C4E90A23A96804F14000BDE86A
:102B3000F04702F005BC2046BDE8F04760220021C6
:102B400002F0FEBA0055000880841E00054B10B547
:102B500000241C8060222146034802F0F1FA034B56
:102B60001C8010BD1812002078050020C804002029
:102B70002DE9F74F0C460B461646002103228046EE
:102B8000FDF7E4FFA01C02F039FC02AB23F8020DB4
:102B9000052203214046FDF7D9FF0023BDF806209A
:102BA0005F1C9BB29A424FEAC70508D923440233FF
:102BB000082229464046FDF7C9FF3B46EEE704F1EF
:102BC0002307384602F01AFCAB461FFA80FA0AF1D6
:102BD0002309A1444F4509D03B46594608224046A7
:102BE000FDF7B4FF0BF1080B0137F3E705EBCA055E
:102BF000ED0835800548FDF793FD054BA4F88000EE
:102C00001B78A4F8823003B0BDE8F08FDC0B002005
:102C1000700400200A460149FFF7AABFD014002023
:102C200030B5114C89B02388BBB104F585652846C1
:102C30000DF11E01FFF7EEFFBDF81E300395049362
:102C400018230293094B201D019343F6FF73009351
:102C500003A3D3E90023FDF765FD09B030BD00BF34
:102C6000759D040C8EA454D6D80B0020700400204F
:102C700008B584220021034802F062FA024B0022C8
:102C80001A7008BDD014002070040020F7B50C465F
:102C9000174600215422054602F052FA2068FEF73A
:102CA0007DF902AE26F8020D334610220021284697
:102CB000FDF74CFF6068FEF771F9102211463346AC
:102CC000ADF806002846FDF741FFA068FEF766F95B
:102CD000334610222021ADF806002846FDF736FFC6
:102CE000E068FEF75BF9334610223021ADF80600AC
:102CF0002846FDF72BFF2069FEF750F933461022D6
:102D00004021ADF806002846FDF720FF6069FEF778
:102D100045F9334610225021ADF806002846FDF74C
:102D200015FFA069FEF73AF93346ADF80600102208
:102D300060212846FDF70AFF04F11C030B227021D5
:102D40002846FDF703FF04F11E0307227B212846D6
:102D5000FDF7FCFE04F12003072282212846FDF73F
:102D6000F5FE04F12203072289212846FDF7EEFE35
:102D700004F12403082290212846FDF7E7FE04F120
:102D80002803202298212846FDF7E0FEB4F84C30B5
:102D90001F2B84BF1F23A4F84C300023B4F84C2011
:102DA00003F117015E1C9BB29A424FEAC10107D999
:102DB00023442C3308222846FDF7C8FE3346EDE7AE
:102DC000C90839800548FDF7ABFC054BA4F84E0057
:102DD0001B78A4F8503003B0F0BD00BFDC0B00201E
:102DE000981400200A460149FFF750BF74040020E0
:102DF00030B5114C89B02388BBB104F585652846F0
:102E00000DF11E01FFF7EEFFBDF81E300395049390
:102E100018230293094B201D019340F24443009371
:102E200003A3D3E90023FDF77DFC09B030BD00BF4B
:102E30006619718A54269C24D80B0020981400200F
:102E400008B554220021034802F07AF9024B00220F
:102E50001A7008BD740400209814002073B50C4645
:102E60000B46102200210646FDF770FE6068FEF753
:102E700095F802AD25F8020D10222B46114630467A
:102E8000FDF764FEA068FEF789F82B46ADF8060052
:102E9000102220213046FDF759FEE068FEF77EF84B
:102EA0002B46ADF80600102230463021FDF74EFECD
:102EB00004F11003082240213046FDF747FE044884
:102EC000FDF72EFC034B60821B78A38202B070BD1D
:102ED000DC0B0020551700200149FFF7BFBF00BFE2
:102EE0009C1400200000000030B50F4C87B02388F0
:102EF000A3B104F585652846FFF7EEFF0923049387
:102F000018230293094B0395019340F24543201D7A
:102F1000009303A3D3E90023FDF704FC07B030BD01
:102F2000B44E80E64FCDFEC7D80B002055170020C9
:102F300008B518220021034802F002F9024B0022D2
:102F40001A7008BD9C140020551700202DE9F74386
:102F50000C460B461746002110220646FDF7F6FDEB
:102F60006068FEF71BF802AD25F8020D102211462D
:102F70002B463046FDF7EAFDA068FEF70FF82B461A
:102F800010222021ADF806003046FDF7DFFDE06895
:102F9000FEF704F82B4610223021ADF8060030462B
:102FA000FDF7D4FD2069FDF7F9FF2B46ADF80600CB
:102FB000102240213046FDF7C9FD04F11403082218
:102FC00050213046FDF7C2FDB4F848300C2B84BFC9
:102FD0000C23A4F848300023B4F848101A0103F178
:102FE00001089BB2994202F158090ED9063354F8F0
:102FF0002300FDF7D3FF2B46ADF80600102249460B
:103000003046FDF7A3FD4346E6E75F32D2083A803B
:103010000548FDF785FB054BA4F84A001B78A4F88A
:103020004C3003B0BDE8F083DC0B002054150020C9
:103030000A460149FFF78ABF1C1400200000000067
:1030400030B5114C89B02388BBB104F5856528469D
:103050000DF11E01FFF7ECFFBDF81E300395049340
:1030600018230293094B201D019346F696630093A3
:1030700003A3D3E90023FDF755FB09B030BD00BF22
:10308000D503D5CBD81A7104D80B002054150020D5
:1030900008B550220021034802F052F8024B0022EA
:1030A0001A7008BD1C1400205415002008B5FFF745
:1030B000DFFDFFF7C5FEFFF73BFFBDE80840FFF768
:1030C000E7BF000010B5104C9CB001200194FFF741
:1030D000B5F8009004200394FFF7B0F802900520A3
:1030E0000594FFF7ABF804900A200794FFF7A6F8C1
:1030F00006900B200994FFF7A1F805210890684677
:10310000FFF70AF81CB010BD80FFFFC008B5002013
:10311000FEF724FF4FF47A70FEF78EFAFFF7D2FF26
:103120004FF47A70FEF788FABDE80840FEF760BAFF
:1031300010B5094C23880BB9002010BD201DFDF7E8
:103140008BFB0028F8D0FEF791FD0028F4D0201D5D
:10315000FDF786FB012010BDD80B002010B50B4CED
:1031600086B0208880B16846FEF7ACFE00280BD000
:1031700009DDFEF7E9FC02460B46201D6946FDF716
:103180002DFD012000E0012006B010BDD80B00206D
:10319000F0B535488DB0FDF7C3FA08B100205CE00A
:1031A000FEF7D2FC0F460646FFF75CF82F4900F009
:1031B00069FF01F095F92E4A002392197B412D4DAC
:1031C00080185941C5E90201FEF7BEFCD5E902238A
:1031D000994208BF904204D32348FDF7A1FA50B1A9
:1031E000DCE72148FDF79CFA0028F5D1FFF7A0FFA6
:1031F000FFF7B4FFE8E72B782E8A5B00DBB28DF88F
:1032000018301EB943F001038DF818301A4C08AB82
:1032100094E8070083E807002268C6F11004E4B2CE
:10322000062C28BF062499190B920DF1190022468D
:1032300001F010FF06AB03931823013402930F4BE8
:10324000049401240193009405A3D3E900230648C4
:10325000FDF768FA204600232B820DB0F0BD00BFB9
:10326000401DA12026812A0BDC0B00200050C34802
:10327000C0270900B8140020E8F7FF1FCA14002077
:1032800008B5FFF785FF0028FBD108BD2DE9F743FE
:103290001E4C2388002B36D0FEF756FC0F46064600
:1032A00004F5C561D1E900894F4508BF464512D3F1
:1032B000174A002312EB080243EB0903C1E900237C
:1032C000FEF742FC02460B46201DFDF7D3FA211DF6
:1032D0006846FDF75BFED4F83046A4B10D49D1E94C
:1032E00000239F4208BF96420DD3002512196B415F
:1032F0009F4208BF9642F9D2C1E9002303B0BDE85E
:10330000F043FFF711B803B0BDE8F083D80B0020FD
:1033100040420F001012002010B5144C4FF4C86248
:103320000021204601F00CFF201D0021FDF7F1F9DE
:1033300040F6B83040F2DC52002104F5C563C3E921
:1033400000010B4B04F5C76444F8083C0023C4E9B2
:103350000023FFF70DF8FEF78FFFFFF747F9FFF7A0
:10336000F5FBBDE81040FFF7A1BE00BFD80B002061
:1033700040420F007FB5FFF7CFFF0020FEF712FF9E
:10338000092324215A1CB1FBF2F56A43242ADEB238
:1033900004D0013B012BF5D100204EE0C3EBC30369
:1033A000DA1CD210D0B24FF47A7401325443311A7D
:1033B000C9B20A4494FBF2F2B2F5617FC2BF03F1D5
:1033C000FF33C3F3C700311A00F1FF33C8BFC9B2DE
:1033D0000F2B05D84B1E072B8CBF0023012300E0C9
:1033E0000023421802FB0554154AB2FBF4F2154CB7
:1033F000A242D1D1002BCFD0ADF80A00ADF80C100D
:103400000124022102A8ADF80850ADF80E40FEF7E5
:10341000CFFD0028C0DB00230B4D01930B4BA5F122
:10342000240000934FF48062094B2946FDF749F9C7
:10343000FEF776FD204625F8284C04B070BD00BF8D
:103440000051250240420F00000C00202115000809
:10345000F136000810B50446FFF78CFF38B1044878
:1034600004F07F01FDF755F9FEF7C2F8012010BD09
:10347000DC0B002042210148FEF7E8BA30050020AD
:1034800008B541F28830FEF7D7F80549054BCA6800
:1034900002F4E0621343CB60BFF34F8FFEE700BF3F
:1034A00000ED00E00400FA05064B002201205A60FE
:1034B0009A60DA601A615A619A61DA611A629884D4
:1034C00018807047E4040020F0B503B3D2E900454A
:1034D000A94208BFA0421CD342F21076041B61EB44
:1034E00005050027AF4208BFA64201D2C2E900018C
:1034F0009CB20025D2E90067B94208BFB04204D3AC
:1035000036196F41C2E90067F4E70120F0BD1846A3
:10351000F0BD0020F0BD000007B501210420FDF73B
:1035200057FE1023ADF804308DF8073001A90323AE
:1035300003488DF80630FDF7BFFD03B05DF804FBCE
:103540000008014030B54FF4004087B0FDF736FE6B
:10355000012140F20520FDF73BFE00238DF80330EA
:1035600001938DF80830049306AD022325F8183D29
:10357000032201248DF8022029464FF460222D48B1
:1035800003928DF809408DF81440FDF795FD01A9CF
:103590002948FDF735FE0723224621462648FDF738
:1035A00077FE25482146FDF74FFE2348FDF755FEDF
:1035B0002148FDF757FE0028FAD11F48FDF756FEB7
:1035C0001D48FDF758FE0028FAD101211A48FDF7E1
:1035D00056FE012140F20540FDF7FAFD042329467D
:1035E0001448ADF80030FDF767FD01A91348FDF759
:1035F00007FE0723012202211048FDF749FE0F486C
:103600000121FDF721FE0D48FDF727FE0B48FDF7D0
:1036100029FE0028FAD10948FDF728FE0748FDF7E2
:103620002AFE0028FAD101210448FDF728FE07B040
:1036300030BD00BF000801400024014000280140C7
:10364000084B00227B200021C3E902011A610020FF
:1036500000215A610122C3E90601C3E908011A8069
:10366000704700BF70140020024B00221A615A619B
:10367000704700BF70140020044BDA8C4FF47A734B
:103680005343034AC2F83036FFF7EEBF300500203F
:10369000D80B00200A4B01212E221985C8210A20AF
:1036A0005A849A8459854FF47A720021DA84998574
:1036B000D88518865A869A86DA861987FFF7DCBF7E
:1036C0003005002038B50588084C25B9FFF7D2FE33
:1036D0000123238038BD012D05D1FFF7DBFFFFF764
:1036E000C9FE258038BD0023238038BD1812002074
:1036F0002DE9F04399B00C468046FDF711F8237E82
:103700000546002862D1022B40F0C280E38A012BDB
:1037100040F0BE80FEF718FA0F460646FEF7A2FDFF
:103720005D4900F0AFFC00F0DBFE5C4A002392191B
:103730007B418018DFF880915941E37EC9E902019D
:103740004F4683B1284611E0554E08AB96E8070076
:1037500083E80700326819460B9204A82A4601F054
:1037600047FC0346B0B100233B8291E0A38A85B2B7
:10377000013B9D4200F10106E6DA691C04AB1D44E1
:10378000C90089B20095002308222046FDF7B2F84F
:103790003046EBE70F2D0AD8D7E90201414A4FF036
:1037A000FF3312184B413D82C7E9022370E018AA8B
:1037B00022F8520D0092014607222046FDF79AF8A2
:1037C0009DF80E104046FCF7A4FF61E0012B5FD18D
:1037D000E38A013B0A2B5BD8DFE803F0065A5A0A5A
:1037E0000E5A5A5A5A3C4B002046FEF715FE4FE03F
:1037F0002046FEF76DFE4BE02046FEF7B1FE054683
:10380000294B214618802948FDF7D8F92046FEF7B4
:10381000C7FE002D3CD0FEF797F9254C0025241853
:103820004D412248FDF718F870B1FFF781FCFEF713
:103830008BF98D4208BF8442F3D205E0FEF784F98C
:103840008D4208BF844203D3FEF704FA0028F5D066
:10385000FFF716FE214608A8FEF7CEFE08A8FFF7E0
:1038600031FF21461148FDF7A9F92046FEF7E8FE91
:103870000EE0214608A8FEF731FF08A90D48FFF722
:103880004DF80A482146FDF799F92046FFF71CF844
:1038900019B0BDE8F08300BF0050C348C02709003D
:1038A000E8F7FF1F40D8F6FFC8040020DC0B00201B
:1038B00020A1070078050020B8140020384B5A8C4E
:1038C0004AB1132A9CBF14225A845A8C642A82BF9C
:1038D000334A64215184DA8C312A9EBF304A4FF436
:1038E0007A71D18441F28832D98C914282BF2C4ABC
:1038F0004FF47A71D1845A8D72B1312A9EBF284A11
:103900004FF4C871518541F28832598D914282BF7E
:10391000234A4FF4C8715185DA8DC82A82BF204AE4
:10392000C821D1851A8EC82A82BF1D4AC821118696
:103930005A8EB2F5FA7F3EBF194A4FF4FA7151869A
:103940005A8EB2F5FA6F82BF154A4FF4FA6151866A
:103950009A8EB2F5FA7F3EBF114A4FF4FA71918602
:103960009A8EB2F5FA6F82BF0D4A4FF4FA619186D2
:10397000DA8EB2F5FA7F3EBF094A4FF4FA71D1866A
:10398000DA8E1B8FB2F5FA6F82BF054A4FF4FA61E7
:10399000D186022B82BF024B00221A87FFF76CBE32
:1039A0003005002010B54222FF21254801F0C8FB58
:1039B000FFF762FEFEF75EF8C0B20428204C0CD080
:1039C0004222FF211E4801F0BBFBFFF755FEFEF728
:1039D00051F8C0B204280FD107E042212046FEF77B
:1039E0001DF8C0B204280ED0EAE742211448FEF7C1
:1039F00015F8C0B2042806D04222FF21104801F079
:103A00009FFBFFF739FE238C062B05D11E220D49A3
:103A10000B4801F021FD78B1FFF73CFE0623094970
:103A20000748238401F08CFC0749084801F088FC12
:103A300042210348FEF70AF8BDE81040FFF73EBFF9
:103A40003005002065560008755600086A050020FC
:103A5000844B2DE9F3471B88002B00F0FF80824840
:103A6000FDF75DFC804607468048FDF758FC804E18
:103A7000804CF38D0546012B89BF216900234A4202
:103A800092FBF3F384BF43445B182361338EDFF86A
:103A9000E491012B89BF616900234A4292FBF3F351
:103AA0006FF4C67284BF1B185B1810446361D4E9BD
:103AB0000623121843EBE07300FB08F0C4E9062369
:103AC000D4E90823121843EBE073C4E90823FEF796
:103AD0003BF8B6F82A804FF47A72002300F0E8FC35
:103AE000434609F10802FFF7EFFC002800F0B6801A
:103AF0005F4B708EDB8D012B84BFD9F8107097FB64
:103B0000F3F7338E012B84BF656995FBF3F500F065
:103B100061FA594900F0B6FA5849824600F0B2FA03
:103B20008046384600F05AFA0146404600F0AAFAAC
:103B30008046B08E00F04EFA4F4900F0A3FA50498B
:103B400000F0A0FA81466FF4C673E81800F046FA58
:103B5000494600F097FA4B49074600F031FC00B1A6
:103B6000484F4949404600F02BFC40B10022002359
:103B7000C4E90623C4E908230125002700E005461F
:103B8000D4E906014FF46162002300F041FC00F02B
:103B90003BFA494600F076FAB38D354A022B3B4E8C
:103BA00010D13B4B128D002D18BF02251A80C3F88F
:103BB00004809F60D8601D82FFF796F97369013316
:103BC00073614BE0012B19D1324C128D0021A2847C
:103BD000A3830846C4F80480A76000F007FB7F2396
:103BE000E383642323842060E06020616061A0613E
:103BF000FFF7FEF87369013373612FE01D4B1F4916
:103C000003F12004D4E90034CDE90034224C138DB3
:103C1000A7602380E060C4F80480484600F032FAD0
:103C2000514600F02FFA1D4A00230746DDE9000146
:103C300000F0EEFB00F0E8F90146384600F022FA09
:103C400020610DB9A58201E00223A3820023A4F81C
:103C50004830FFF7F5F973690133736102B0BDE8CD
:103C6000F08700BFD80B002000240140002801404D
:103C700030050020701400206F12833A2E33113C5F
:103C80000C04013DCDCC4CBD0000E040E40400201C
:103C90009C140020740400201C14002080EE3600C8
:103CA00030B504468BB00A4901F04AFB02AD094920
:103CB000204601F0BDFA00230C2200950649074872
:103CC000FDF757FD2946204601F0B2FA0BB030BD92
:103CD0004B5600087A5600087D560008F80400206C
:103CE00038B5174B1B8853B3164B1B8F3BB3164B82
:103CF0009A8C1AB941F287329A8401E0013A9A8487
:103D00009D8CE5B9114C1249204620F8025B01F068
:103D100017FB04F12300FFF7C3FF04F1230001F0B8
:103D20006DFB80B258B10138204490F823300A2B43
:103D300008BF80F82350BDE83840FEF771BF38BD9A
:103D4000D80B002030050020E4040020D01400200F
:103D5000655600082DE9F843314CFDF7D1FDFFF71A
:103D6000DBFBFDF713FFFFF71DFE0120FFF7EAFB6A
:103D7000FFF766FC94F82200FFF76CFB58B929495D
:103D8000CB686420DB4303F0100343F480130B6122
:103D9000FDF759FCF4E7FFF76FFC4FF4FA70FDF7FD
:103DA00052FC214BA28C214D1A80FFF769FAFFF7D4
:103DB000ADF90023EB801E4B1B880BB90323AB80AE
:103DC0001C4EFFF771FBB046164F0024FFF7C6F9F3
:103DD0000028FBD1FFF7ACF981460028FAD1FFF7A4
:103DE00055FAF38B9BB2002BF0D0A8F81E90FDF78C
:103DF00099FE34B9AB8840F2F314002B18BF31247C
:103E000009E0013CA4B234B9FB68DB4303F01003C2
:103E100043F480133B61FFF71BFEFFF761FFD5E71B
:103E20003005002000080140B8140020CC04002018
:103E30007014002048040020D0400B1CD1409C4648
:103E4000203AD34018435242634693401843704788
:103E50009140031C90409C46203A934019435242A3
:103E60006346D3401943704780F0004002E000BF32
:103E700081F0004142001FBF5FEA410392EA030F55
:103E80007FEA226C7FEA236C6AD04FEA1262D2EB9F
:103E90001363C1BFD218414048404140B8BF5B42A4
:103EA000192B88BF704710F0004F40F4000020F03D
:103EB0007F4018BF404211F0004F41F4000121F053
:103EC0007F4118BF494292EA030F3FD0A2F101029D
:103ED00041FA03FC10EB0C00C3F1200301FA03F1DB
:103EE00000F0004302D5494260EB4000B0F5000FFE
:103EF00013D3B0F1807F06D340084FEA310102F1BD
:103F00000102FE2A51D2B1F1004F40EBC25008BF6E
:103F100020F0010040EA03007047490040EB000038
:103F200010F4000FA2F10102EDD1B0FA80FCACF167
:103F3000080CB2EB0C0200FA0CF0AABF00EBC25066
:103F400052421843BCBFD0401843704792F0000F54
:103F500081F4000106BF80F400000132013BB5E7A7
:103F60004FEA41037FEA226C18BF7FEA236C21D01D
:103F700092EA030F04D092F0000F08BF0846704782
:103F800090EA010F1CBF0020704712F07F4F04D150
:103F9000400028BF40F00040704712F100723CBF63
:103FA00000F50000704700F0004343F0FE4040F48D
:103FB000000070477FEA226216BF08467FEA23634B
:103FC0000146420206BF5FEA412390EA010F40F436
:103FD000800070474FF0000304E000BF10F0004382
:103FE00048BF40425FEA000C08BF704743F0964369
:103FF00001464FF000001CE050EA010208BF704784
:104000004FF000030AE000BF50EA010208BF70470A
:1040100011F0004302D5404261EB41015FEA010C1F
:1040200002BF84460146002043F0B64308BFA3F117
:104030008053A3F50003BCFA8CF2083AA3EBC253F9
:1040400010DB01FA02FC634400FA02FCC2F1200218
:10405000BCF1004F20FA02F243EB020008BF20F04F
:104060000100704702F1200201FA02FCC2F12002B5
:1040700050EA4C0021FA02F243EB020008BF20EAAA
:10408000DC7070474FF0FF0C1CEAD0521EBF1CEAD8
:10409000D15392EA0C0F93EA0C0F6FD01A4480EAC6
:1040A000010C400218BF5FEA41211ED04FF00063AF
:1040B00043EA501043EA5111A0FB01310CF00040DB
:1040C000B1F5000F3EBF490041EAD3715B0040EA01
:1040D000010062F17F02FD2A1DD8B3F1004F40EBD1
:1040E000C25008BF20F00100704790F0000F0CF0A4
:1040F000004C08BF49024CEA502040EA51207F3A68
:10410000C2BFD2F1FF0340EAC250704740F4000042
:104110004FF00003013A5DDC12F1190FDCBF00F033
:1041200000407047C2F10002410021FA02F1C2F1E1
:10413000200200FA02FC5FEA310040F1000053EA7D
:104140004C0308BF20EADC70704792F0000F00F0CB
:10415000004C02BF400010F4000F013AF9D040EAD1
:104160000C0093F0000F01F0004C02BF490011F465
:10417000000F013BF9D041EA0C018FE70CEAD15363
:1041800092EA0C0F18BF93EA0C0F0AD030F0004CE3
:1041900018BF31F0004CD8D180EA010000F0004097
:1041A000704790F0000F17BF90F0004F084691F055
:1041B000000F91F0004F14D092EA0C0F01D142028F
:1041C0000FD193EA0C0F03D14B0218BF084608D158
:1041D00080EA010000F0004040F0FE4040F40000A2
:1041E000704740F0FE4040F4400070474FF0FF0C35
:1041F0001CEAD0521EBF1CEAD15392EA0C0F93EA7C
:104200000C0F69D0A2EB030280EA010C49024FEACD
:10421000402037D04FF0805343EA111143EA101386
:104220000CF000408B4238BF5B0042F17D024FF43E
:10423000000C8B4224BF5B1A40EA0C00B3EB510F19
:1042400024BFA3EB510340EA5C00B3EB910F24BF02
:10425000A3EB910340EA9C00B3EBD10F24BFA3EB87
:10426000D10340EADC001B0118BF5FEA1C1CE0D14F
:10427000FD2A3FF650AF8B4240EBC25008BF20F002
:10428000010070470CF0004C4CEA50207F32C2BF56
:10429000D2F1FF0340EAC250704740F400004FF0F3
:1042A0000003013A37E792F0000F00F0004C02BF24
:1042B000400010F4000F013AF9D040EA0C0093F0EE
:1042C000000F01F0004C02BF490011F4000F013B48
:1042D000F9D041EA0C0195E70CEAD15392EA0C0FB0
:1042E00008D142027FF47DAF93EA0C0F7FF470AFE8
:1042F000084676E793EA0C0F04D14B023FF44CAF2B
:1043000008466EE730F0004C18BF31F0004CCAD1BF
:1043100030F000427FF45CAF31F000437FF43CAFFB
:104320005FE700BF4FF0FF3C06E000BF4FF0010C1D
:1043300002E000BF4FF0010C4DF804CD4FEA4002FF
:104340004FEA41037FEA226C18BF7FEA236C11D049
:1043500001B052EA530C18BF90EA010F58BFB2EBFC
:10436000030088BFC81738BF6FEAE17018BF40F07C
:10437000010070477FEA226C02D15FEA402C05D130
:104380007FEA236CE4D15FEA412CE1D05DF8040BB5
:10439000704700BF844608466146FFE70FB5FFF748
:1043A000C9FF002848BF10F1000F0FBD4DF808ED00
:1043B000FFF7F4FF0CBF012000205DF808FB00BFF1
:1043C0004DF808EDFFF7EAFF34BF012000205DF84B
:1043D00008FB00BF4DF808EDFFF7E0FF94BF012098
:1043E00000205DF808FB00BF4DF808EDFFF7D2FF95
:1043F00094BF012000205DF808FB00BF4DF808EDD8
:10440000FFF7C8FF34BF012000205DF808FB00BFA4
:104410007BB972B90029BEBF00204FF0004106E011
:1044200008BF00281CBF6FF000414FF0FF3000F0C4
:10443000F3B9ADF1080C6DE904CE002909DB002BBE
:104440001ADB00F073F8DDF804E0DDE9022304B0C4
:104450007047404261EB4101002B1BDB00F066F826
:10446000DDF804E0DDE9022304B0404261EB4101E4
:10447000524263EB43037047524263EB430300F045
:1044800055F8DDF804E0DDE9022304B0404261EBB9
:1044900041017047524263EB430300F047F8DDF8F7
:1044A00004E0DDE9022304B0524263EB43037047AA
:1044B00053B94AB9002908BF00281CBF4FF0FF318B
:1044C0004FF0FF3000F0A8B9ADF1080C6DE904CE53
:1044D00000F02CF8DDF804E0DDE9022304B07047B9
:1044E000D0B500F0FFFA00220E4B06460F4600F052
:1044F0004DFB00F05DFD044600F0D2FA00220A4BAD
:1045000000F044FB02460B463046394600F08AF97B
:1045100000F04EFD2346002242EA000210461946F2
:10452000D0BD00BF0000F03D0000F0412DE9F04F8C
:104530008C460C460546099E002B4FD18A421746F1
:104540006BD9B2FA82FEBEF1000F0BD0CEF120057E
:1045500020FA05F501FA0EF345EA030C02FA0EF70C
:1045600000FA0EF5390CBCFBF1F0BAB201FB10C336
:1045700000FB02F84FEA154C4CEA0344A04509D968
:10458000E41900F1FF3380F02881A04540F2258135
:1045900002383C44C8EB0404B4FBF1F301FB134CB8
:1045A00003FB02F2ACB244EA0C418A4209D9C919B0
:1045B00003F1FF3480F00F818A4240F20C81023B0C
:1045C00039448A1A43EA00400021002E63D022FABF
:1045D0000EF2002386E80C00BDE8F08F8B4207D96D
:1045E000002E56D0002186E811000846BDE8F08F65
:1045F000B3FA83F1002940F09380A34202D38242B0
:1046000000F2FE80851A64EB03039C460120002E15
:1046100041D086E82010BDE8F08F12B90127B7FB22
:10462000F2F7B7FA87FEBEF1000F36D1E41B4FEA6E
:1046300017481FFA87F90121B4FBF8F308FB13446C
:1046400009FB03F24FEA154C4CEA0444A24207D995
:10465000E41903F1FF3002D2A24200F2D3800346F4
:10466000A41AB4FBF8F008FB104809FB00F9ACB23F
:1046700044EA0842914507D9D21900F1FF3402D229
:10468000914500F2BA802046C9EB020240EA03409D
:104690009BE731463046BDE8F08F07FA0EF7CEF1C2
:1046A000200C24FA0CF34FEA1748B3FBF8FA1FFA70
:1046B00087F908FB1A3520FA0CFC04FA0EF40AFB01
:1046C00009FB4CEA040C4FEA1C4242EA05439B45B5
:1046D00000FA0EF50AD9DB190AF1FF3280F08B805F
:1046E0009B4540F28880AAF1020A3B44CBEB0303CE
:1046F000B3FBF8F008FB103300FB09F41FFA8CFC45
:104700004CEA03439C4207D9DB1900F1FF326ED219
:104710009C426CD902383B441C1B40EA0A418BE79F
:10472000C1F1200E8B4022FA0EFC4CEA030C24FA55
:104730000EF74FEA1C49B7FBF9FA1FFA8CF309FB95
:104740001A7720FA0EF88C400AFB03F548EA0404B5
:104750004FEA144848EA0747BD4202FA01F200FA5C
:1047600001FB09D917EB0C070AF1FF3041D2BD421A
:104770003FD9AAF1020A67447F1BB7FBF9F509FB91
:10478000157705FB03F3A4B244EA0747BB4208D9F7
:1047900017EB0C0705F1FF3027D2BB4225D9023DAC
:1047A000674445EA0A40A0FB0289FF1A4F45454687
:1047B0004C4614D329D066B3BBEB050367EB040763
:1047C00007FA0EFECB40CF404EEA030386E888008E
:1047D0000021BDE8F08F2346F3E61846DAE6B8EB91
:1047E000020569EB0C040138E5E70546D9E71046F8
:1047F00092E78246C0E7924678E702383A4443E7B8
:10480000084604E7023B3C442AE7C345E7D33C465D
:10481000D1E73146BDE8F08F704700BF81F000411D
:1048200002E000BF83F0004330B54FEA41044FEA95
:10483000430594EA050F08BF90EA020F1FBF54EA30
:10484000000C55EA020C7FEA645C7FEA655C00F0CC
:10485000E2804FEA5454D4EB5555B8BF6D420CDD9D
:104860002C4480EA020281EA030382EA000083EA20
:10487000010180EA020281EA0303362D88BF30BDC0
:1048800011F0004F4FEA01314FF4801C4CEA113116
:1048900002D0404261EB410113F0004F4FEA033375
:1048A0004CEA133302D0524263EB430394EA050F00
:1048B00000F0A780A4F10104D5F1200E0DDB02FA6F
:1048C0000EFC22FA05F2801841F1000103FA0EF203
:1048D000801843FA05F359410EE0A5F120050EF1C9
:1048E000200E012A03FA0EFC28BF4CF0020C43FAFA
:1048F00005F3C01851EBE37101F0004507D54FF007
:10490000000EDCF1000C7EEB00006EEB0101B1F556
:10491000801F1BD3B1F5001F0CD349085FEA30009C
:104920004FEA3C0C04F101044FEA445212F5800FA7
:1049300080F09A80BCF1004F08BF5FEA500C50F144
:10494000000041EB045141EA050130BD5FEA4C0C27
:10495000404141EB010111F4801FA4F10104E9D1B0
:1049600091F0000F04BF01460020B1FA81F308BFA7
:104970002033A3F10B03B3F120020CDA0C3208DD73
:1049800002F1140CC2F10C0201FA0CF021FA02F14E
:104990000CE002F11402D8BFC2F1200C01FA02F1BE
:1049A00020FA0CFCDCBF41EA0C019040E41AA2BFE3
:1049B00001EB0451294330BD6FEA04041F3C1CDAAB
:1049C0000C340EDC04F11404C4F1200220FA04F0CB
:1049D00001FA02F340EA030021FA04F345EA030175
:1049E00030BDC4F10C04C4F1200220FA02F001FA37
:1049F00004F340EA0300294630BD21FA04F02946B9
:104A000030BD94F0000F83F4801306BF81F4801151
:104A10000134013D4EE77FEA645C18BF7FEA655CC4
:104A200029D094EA050F08BF90EA020F05D054EA96
:104A3000000C04BF1946104630BD91EA030F1EBF9B
:104A40000021002030BD5FEA545C05D1400049419F
:104A500028BF41F0004130BD14F580043CBF01F592
:104A6000801130BD01F0004545F0FE4141F4700178
:104A70004FF0000030BD7FEA645C1ABF1946104653
:104A80007FEA655C1CBF0B46024650EA013406BF54
:104A900052EA033591EA030F41F4002130BD00BF13
:104AA00090F0000F04BF0021704730B54FF48064D0
:104AB00004F132044FF000054FF0000150E700BF51
:104AC00090F0000F04BF0021704730B54FF48064B0
:104AD00004F1320410F0004548BF40424FF000019D
:104AE0003EE700BF42004FEAE2014FEA31014FEAE0
:104AF00002701FBF12F07F4393F07F4F81F060512F
:104B0000704792F0000F14BF93F07F4F704730B59D
:104B10004FF4607401F0004521F0004120E700BF30
:104B200050EA010208BF704730B54FF000050AE0B7
:104B300050EA010208BF704730B511F0004502D5B8
:104B4000404261EB41014FF4806404F132045FEABA
:104B5000915C3FF4DCAE4FF003025FEADC0C18BF5F
:104B600003325FEADC0C18BF033202EBDC02C2F155
:104B7000200300FA03FC20FA02F001FA03FE40EAE7
:104B80000E0021FA02F11444C1E600BF70B54FF0E7
:104B9000FF0C4CF4E06C1CEA11541DBF1CEA1355C9
:104BA00094EA0C0F95EA0C0F00F0DEF82C4481EA31
:104BB000030621EA4C5123EA4C5350EA013518BF51
:104BC00052EA033541F4801143F4801338D0A0FB3E
:104BD00002CE4FF00005E1FB02E506F00042E0FBEB
:104BE00003E54FF00006E1FB03569CF0000F18BFF1
:104BF0004EF0010EA4F1FF04B6F5007F64F5407499
:104C000004D25FEA4E0E6D4146EB060642EAC6212B
:104C100041EA55514FEAC52040EA5E504FEACE2E98
:104C2000B4F1FD0C88BFBCF5E06F1ED8BEF1004F9B
:104C300008BF5FEA500E50F1000041EB045170BD17
:104C400006F0004646EA010140EA020081EA03015B
:104C5000B4EB5C04C2BFD4EB0C0541EA045170BD57
:104C600041F480114FF0000E013C00F3AB8014F1D1
:104C7000360FDEBF002001F0004170BDC4F100041A
:104C8000203C35DA0C341BDC04F11404C4F120059B
:104C900000FA05F320FA04F001FA05F240EA0200F6
:104CA00001F0004221F0004110EBD37021FA04F62C
:104CB00042EB06015EEA430E08BF20EAD37070BDE6
:104CC000C4F10C04C4F1200500FA04F320FA05F045
:104CD00001FA04F240EA020001F0004110EBD37047
:104CE00041F100015EEA430E08BF20EAD37070BDB7
:104CF000C4F1200500FA05F24EEA020E20FA04F390
:104D000001FA05F243EA020321FA04F001F000413E
:104D100021FA04F220EA020000EBD3705EEA430EAF
:104D200008BF20EAD37070BD94F0000F0FD101F0DE
:104D30000046400041EB010111F4801F08BF013C17
:104D4000F7D041EA060195F0000F18BF704703F055
:104D50000046520043EB030313F4801F08BF013DDC
:104D6000F7D043EA0603704794EA0C0F0CEA135598
:104D700018BF95EA0C0F0CD050EA410618BF52EA52
:104D80004306D1D181EA030101F000414FF0000058
:104D900070BD50EA410606BF1046194652EA430666
:104DA00019D094EA0C0F02D150EA013613D195EADA
:104DB0000C0F05D152EA03361CBF104619460AD122
:104DC00081EA030101F0004141F0FE4141F470012C
:104DD0004FF0000070BD41F0FE4141F4780170BD1C
:104DE00070B54FF0FF0C4CF4E06C1CEA11541DBF81
:104DF0001CEA135594EA0C0F95EA0C0F00F0A7F883
:104E0000A4EB050481EA030E52EA03354FEA0131AF
:104E100000F088804FEA03334FF0805545EA1313C2
:104E200043EA12634FEA022245EA111545EA10658A
:104E30004FEA00260EF000419D4208BF964244F121
:104E4000FD0404F5407402D25B084FEA3202B61A40
:104E500065EB03055B084FEA32024FF480104FF414
:104E6000002CB6EB020E75EB030E22BFB61A754688
:104E700040EA0C005B084FEA3202B6EB020E75EB1B
:104E8000030E22BFB61A754640EA5C005B084FEA83
:104E90003202B6EB020E75EB030E22BFB61A754650
:104EA00040EA9C005B084FEA3202B6EB020E75EB5B
:104EB000030E22BFB61A754640EADC0055EA060E1C
:104EC00018D04FEA051545EA16754FEA06164FEA5F
:104ED000C30343EA52734FEAC2025FEA1C1CC0D10B
:104EE00011F4801F0BD141EA00014FF000004FF098
:104EF000004CB6E711F4801F04BF01430020B4F159
:104F0000FD0C88BFBCF5E06F3FF6AFAEB5EB030C10
:104F100004BFB6EB020C5FEA500C50F1000041EB0D
:104F2000045170BD0EF0004E4EEA113114EB5C04DA
:104F3000C2BFD4EB0C0541EA045170BD41F48011AD
:104F40004FF0000E013C90E645EA060E8DE60CEAB5
:104F5000135594EA0C0F08BF95EA0C0F3FF43BAFD2
:104F600094EA0C0F0AD150EA01347FF434AF95EA89
:104F70000C0F7FF425AF104619462CE795EA0C0F6D
:104F800006D152EA03353FF4FDAE1046194622E73A
:104F900050EA410618BF52EA43067FF4C5AE50EA14
:104FA00041047FF40DAF52EA43057FF4EBAE12E704
:104FB0004A0011D212F5001211D20DD56FF4787398
:104FC000B3EB62520ED44FEAC12343F0004343EAED
:104FD000505323FA02F070474FF00000704750EA38
:104FE000013002D14FF0FF3070474FF000007047A2
:104FF000032A70B426D940EA01039B0711D0047834
:105000000D78AC4222D10244431C05E013F8014B59
:1050100011F8015FAC4219D19342F7D1002070BC66
:1050200070470C4603461E6825681846AE42214666
:1050300003F1040304F10404E1D1043A032A1846FD
:105040002146F0D8002ADAD11046E8E7601B70BC90
:10505000704700BF844641EA000313F0030349D1BF
:10506000403A23D30B6803604B6843608B688360CE
:10507000CB68C3600B6903614B6943618B698361D2
:10508000CB69C3610B6A03624B6A43628B6A8362BA
:10509000CB6AC3620B6B03634B6B43638B6B8363A2
:1050A000CB6BC36340304031403ADBD230320BD35C
:1050B0000B6803604B6843608B688360CB68C36098
:1050C00010301031103AF3D20C3205D351F8043BB2
:1050D00040F8043B043AF9D2043208D0D2071CBF8E
:1050E00011F8013B00F8013B01D30B8803806046B7
:1050F000704700BF082A13D38B07B1D010F0030309
:10510000AED0C3F10403D21ADB071CBF11F8013B78
:1051100000F8013BA4D331F8023B20F8023B9FE7A3
:10512000043AD9D3013A11F8013B00F8013BF9D216
:105130000B7803704B7843708B78837060467047B0
:1051400070B4840746D0541E002A41D0CDB2034625
:1051500002E0621EE4B3144603F8015B9A07F8D13B
:10516000032C2ED9CDB245EA05250F2C45EA05457D
:1051700019D9264603F11002103E0F2E42F8105C9A
:1051800042F80C5C42F8085C42F8045C02F1100240
:10519000F2D8A4F1100222F00F0204F00F04103232
:1051A000032C13440DD91E462246043A032A46F81E
:1051B000045BFAD8221F22F003020432134404F0E5
:1051C00003042CB1C9B21C4403F8011BA342FBD158
:1051D00070BC704714460346C2E700BF034B002271
:1051E0001B68C3F8A800C3F8AC2070474004002037
:1051F00030B40C4B0C4C19680C4DD1F8A820D1F8E8
:10520000AC0004FB02F4A2FB052305FB00400132C5
:10521000034443F10003C1E92A2323F0004030BCDA
:10522000704700BF400400202DF451582D7F954C4D
:10523000830710B5044610D10268A2F1013323EAB6
:10524000020313F0803F08D150F8042FA2F101337C
:1052500023EA020313F0803FF6D003781BB110F865
:10526000013F002BFBD100F06BF8204610BD00BFC2
:1052700070B411F0FF0434D085070FD00378002BF1
:105280005AD09C422BD0431C05E013F8012B002A76
:105290004FD0944223D09A071846F6D10E0206F456
:1052A0007F462643036846EA064601E050F8043F7D
:1052B00086EA0305A5F10132A3F1013122EA0502D4
:1052C00021EA0303134313F0803FEFD0037823B99F
:1052D00032E010F8013F002B2ED09C42F9D170BC77
:1052E000704784070BD00378002BF8D0431C03E0F1
:1052F00002780133002AF2D099071846F8D10268E3
:10530000A2F1013323EA020313F0803F08D150F8E1
:10531000042FA2F1013323EA020313F0803FF6D0F9
:105320000378002BDBD010F8013F002BFBD170BCC1
:105330007047104670BC7047184670BC704700BF7D
:1053400080EA0102844612F0030F4FD111F0030FDF
:1053500032D14DF8044D11F0040F51F8043B0BD03D
:10536000A3F101329A4312F0803F04BF4CF8043B92
:1053700051F8043B16D100BF51F8044BA3F10132A0
:105380009A4312F0803FA4F101320BD14CF8043B58
:10539000A24312F0803F04BF51F8043B4CF8044B89
:1053A000EAD023460CF8013B13F0FF0F4FEA3323FA
:1053B000F8D15DF8044B704711F0010F06D011F8D9
:1053C000012B0CF8012B002A08BF704711F0020FC7
:1053D000BFD031F8022B12F0FF0F16BF2CF8022BB2
:1053E0008CF8002012F47F4FB3D1704711F8012BD5
:1053F0000CF8012B002AF9D1704700BF20F00301FF
:1054000010F00300C0F1000051F8043B00F1040C5F
:105410004FEACC0C6FF000021CBF22FA0CF21343CF
:105420004FF0010C4CEA0C2C4CEA0C4CA3EB0C0298
:1054300022EA030212EACC1204BF51F8043B043002
:10544000F4D0C2F1000102EA0102B2FA82F2C2F122
:105450001F0200EBD2007047002A3FD040EA010350
:1054600013F00303F0B425D1032A23D904680D688F
:10547000AC421FD1043A33D0A4F1013525EA04042B
:1054800014F0803F2FD1071D0D1D0DE057F8043B90
:105490000E68A3F10134B34224EA03040AD1043AAA
:1054A0001ED014F0803F21D1032A2946384605F149
:1054B0000405EBD803780C78013A9C420BD17AB101
:1054C00014B915E062B173B110F8013F11F8014F42
:1054D000013AA342F6D0181BF0BC70471046704743
:1054E0001046F0BC70471846F0BC70470020F3E748
:1054F0002046F1E72D00002000002E0000300000C3
:1055000052050020030000008B5600082E0000000A
:1055100000000000640000005405002003000000AB
:10552000815600082E00000000000000640000000A
:10553000560500200300000092560008E803000012
:10554000320000008813000058050020030000000E
:10555000A25600080100000000000000FF7F0000CC
:105560005A05002003000000AD560008900100001D
:1055700000000000881300005C050020030000000C
:10558000BA56000800000000000000000200000001
:105590005E05002003000000CA5600080A00000053
:1055A00000000000C80000006005002003000000AB
:1055B000DD5600080A00000000000000C8000000DE
:1055C0006205002003000000F0560008E803000018
:1055D000F4010000D0070000640500200300000073
:1055E00003570008E8030000F4010000D0070000A2
:1055F000660500200300000016570008E8030000BD
:10560000F4010000D007000068050020030000003E
:105610002457000800000000000000000200000005
:10562000746F6F206C6172676520776964746800BD
:10563000746F6F206C617267652070726563697347
:10564000696F6E00302E30002D0020004500736918
:105650002B7A0073692B00736C2B7A006F6C6C696A
:10566000772E65752E756334682D706F776572625D
:105670007269636B00656E645800747800756C7AAB
:1056800000507265666572726564204E6F6465498C
:1056900064004E6F64655374617475732052617455
:1056A00065004261747465727920496400426174D6
:1056B0007465727920526174650042617474657218
:1056C00079204D6573736167650041646320566F8F
:1056D0006C746167652046696C746572004164632F
:1056E0002043757272656E742046696C7465720031
:1056F00041646320566F6C74616765204661637412
:105700006F72004164632043757272656E74204647
:105710006163746F720043686172676520466163FC
:10572000746F7200446562756700000043000000FA
:08573000FCEDFF7F0100000009
:1057380000A24A0400000000000000000102030467
:10574800060708090000000000000000040300200C
:105758006C030020D40300200000000000000000BB
:105768000000000000000000000000000000000031
:105778000000000000000000000000002C57000896
:105788000000000000000000000000000000000011
:105798000000000000000000000000000000000001
:1057A80000000000000000000000000000000000F1
:1057B80000000000000000000000000000000000E1
:1057C80000000000000000000000000000000000D1
:1057D80000000000000000000000000000000000C1
:1057E80000000000000000000000000000000000B1
:1057F80001000000000000000E33CDAB34126DE64E
:10580800ECDE05000B0000000000000000000000B6
:105818000000000000000000000000000000000080
:105828000000000000000000000000000000000070
:105838000000000000000000000000000000000060
:105848000000000000000000000000000000000050
:045B780018000020F1
:0400000508000000EF
:00000001FF
