:020000040800F2
:10000000F0280020992E0008952E0008952E000853
:10001000952E0008952E0008952E0008000000007F
:10002000000000000000000000000000952E000805
:10003000952E000800000000952E0008AD04000871
:10004000952E0008952E0008952E0008952E000884
:10005000952E0008952E0008952E0008952E000874
:10006000952E0008952E0008952E0008952E000864
:10007000952E0008952E0008952E0008952E000854
:10008000952E0008952E0008952E0008952E000844
:1000900019070008B5070008952E0008952E0008DE
:1000A000952E0008952E0008952E0008952E000824
:1000B000952E0008952E0008952E0008952E000814
:1000C000952E0008952E0008952E0008952E000804
:1000D000952E0008952E0008952E0008952E0008F4
:1000E000952E0008952E0008952E000800000000AF
:1000F0000000000000000000000000000000000000
:1001000000000000000000005FF808F1224A0388A8
:1001100090429BB212D002F5006290420ED0B0F134
:10012000804F0BD0A2F59832904207D002F5806242
:10013000904203D002F58062904203D14A8823F0B6
:1001400070031343154A904208D002F58062904232
:100150001FBF23F44073CA889BB2134303808B886C
:1001600083850B8803850C4B98420FD003F5006301
:1001700098420BD003F54063984207D003F58063A3
:10018000984203D003F58063984201D10B7A03862D
:1001900001238382704700BF002C01400010004003
:1001A000038819B19BB243F0010303E023F001037C
:1001B0001B041B0C0380704780F308887047000005
:1001C000384B82B01A6842F001021A605968364A08
:1001D0000A405A601A6822F0847222F480321A604F
:1001E0001A6822F480221A605A6822F4FE025A60C9
:1001F0004FF41F029A600022009201921A6842F4A2
:1002000080321A601A6802F400320192009A0132B8
:100210000092019A1AB9009AB2F5A06FF2D11A6849
:1002200012F4003218BF01220192019A012A05D06E
:100230001E4B4FF000629A6002B070471C4A116872
:1002400041F010011160116821F003011160116883
:1002500041F0020111605A685A605A685A605A683F
:1002600042F480625A605A6822F47C125A605A68DA
:1002700042F4E8125A601A6842F080721A601968F3
:10028000084A8901FBD5516821F00301516051688A
:1002900041F0020151605A6802F00C02082AFAD1BA
:1002A000C6E700BF001002400000FFF800ED00E0CC
:1002B000002002400449054BCA6802F4E06213437F
:1002C000CB60BFF34F8FFEE700ED00E00400FA05BE
:1002D000410746BFC30843F00043430D820748BFB0
:1002E00043F0804318467047094B9A6912F0700F2B
:1002F0000DD000229A61074A516801315160127F86
:1003000012B99B695B0702D5034A014B9A6070479B
:100310000064004070040020808080000000000025
:1003200070B50E4615461C4602F076F950B9022CFF
:100330000AD1012D08D12CA3D3E900232846C6E910
:10034000002303E0002001E04FF6FF7003B2012B11
:1003500044D0013344D0022C42D0012C36D1052D9B
:100360001FD00AD8012D15D0042D39D120A3D3E9EF
:1003700000232046C6E9002370BD0B2D18D0282D80
:100380001DD00A2D2CD11CA3D3E900232046C6E999
:10039000002370BD1AA3D3E900232846C6E9002331
:1003A00070BD19A3D3E900232046C6E9002370BD20
:1003B00017A3D3E900232046C6E9002370BD16A386
:1003C000D3E900232046C6E9002370BD44B9302D8F
:1003D00008D113A3D3E90023C6E90023012070BD8F
:1003E000002070BD204670BD401DA12026812A0B33
:1003F000042B31ECA7766FBECDD269EBC51A133B47
:100400009E6AC421818A46EEF017304A39059E560D
:10041000D5A4D139F922B6A726417272DF25D7B704
:1004200078F6339F93CACD8D10B50E4C3823E36018
:1004300020462361022102F05BFD2046102102F0DC
:1004400057FD094A00231380084A204613800221E1
:10045000012202F045FD2046BDE810400122102196
:1004600002F03EBD00640040AE040020E405002020
:1004700000EB8000430018460138FDD87047402843
:1004800008B5024609D8BDE80840C0EB401002EBB1
:100490008000C00080B2FFF7EBBF4FF47A70FFF727
:1004A000E7FF013A92B2002AF7D108BD034B0122BF
:1004B000DA831A6A01321A62704700BF70040020A2
:1004C0000B4B0021D98319620A4B0B4A1B68F020A1
:1004D000B3FBF2F34FF47A725343084A013B536083
:1004E000074B83F82300072391601360704700BF18
:1004F000700400200000002040420F0010E000E0E7
:1005000000ED00E01FB501214FF4006002F0C2FDD4
:100510000023ADF80A30ADF806304FF6FF73ADF8A2
:100520000830094B094A1B68094CB3FBF2F304A9D4
:10053000013B21F80C3D2046FFF7E8FD0121204654
:10054000FFF72EFE04B010BD0000002040420F0057
:10055000002C014030B472B60D4B988C80B262B65C
:100560000C490B8AD1E90245834204D9013445F193
:100570000005C1E902452B04220443EA1443141880
:1005800043F1000508822046294630BC704700BF71
:10059000002C01402806002008B50120FFF7B2FF1B
:1005A000064B00219A8C064B92B219600020002164
:1005B0009A80C3E902011A8208BD00BF002C0140E5
:1005C0002806002070B504460646044D0FCD0FC422
:1005D00095E8070084E80700304670BD70040020ED
:1005E000044B986800F0E05000F1644358425841D1
:1005F000704700BF006400402DE9F3410546002824
:100600007DD0046814F000547CD1FFF76DFE3F4BA1
:100610009A6802F0E052B2F1E05F51D09A68264643
:10062000C2F380628DF804209A689B68C2F3C062AE
:10063000C3F300738DF805208DF80630FF2401AB5D
:10064000F35C0BB1F4B234E0330103F1804303F502
:10065000CB431868FFF73CFE2F684FEAD07C4FEA87
:10066000D778E04527F0604320F0604207F0004E65
:1006700000F0004110D0BEF1000F00D09B0C19B16A
:10068000900C984215D002E09A4217D0104683424F
:100690002CBF002001200BE0934205D1C0F38070F5
:1006A000C7F38077874203D193422CBF00200120FB
:1006B00020B10136032EC2D1FF2C01D1002022E04F
:1006C00023012A7C03F1804303F5CB435A60EA6897
:1006D0002968DA60AA6800299A60BABFCA0042F0A5
:1006E00004024A05490048BF42F0020242F00102FA
:1006F0001A60074A012053690133536103E06FF028
:10070000010000E0034802B0BDE8F0810064004051
:100710007004002015FCFFFF2DE9F041204F214A15
:100720003D881388013505F07F059BB29D429046B8
:100730001D4C1CD01D4EF368DB0642BF23680133FD
:100740002360D6F8B001FFF7C3FD18236B431849A7
:10075000C850CA18D6F8B43103F00F031374D6F892
:10076000B8319360D6F8BC31D3603D8002E0A36815
:100770000133A3603B889AB2B8F800309BB2D31A19
:10078000228A48BF80339342C4BF074A1382A369B9
:1007900038220133A361054BDA60BDE8F08100BF68
:1007A000E4050020AE040020700400200064004036
:1007B000780700202DE9F041204F214A3D88138819
:1007C000013505F07F059BB29D4290461D4C1CD023
:1007D0001D4E3369DB0642BF236801332360D6F820
:1007E000C001FFF775FD18236B431849C850CA189C
:1007F000D6F8C43103F00F031374D6F8C8319360F0
:10080000D6F8CC31D3603D8002E0E3680133E36089
:100810003B889AB2B8F800309BB2D31A228A48BFFC
:1008200080339342C4BF074A1382A369382201333D
:10083000A361054B1A61BDE8F08100BFE40500200B
:10084000AE040020700400200064004078070020FF
:10085000F8B500B3FFF748FD114D124B1A882B88ED
:1008600092B29BB29A4219D02A880F4C01321823B7
:1008700002F07F0203FB0244034604F118072646F8
:1008800003CEBE4218605960344603F10803F6D126
:100890002A800120F8BD6FF00100F8BD0020F8BDEE
:1008A000AE040020E40500207807002037B51423AB
:1008B0000024012501A88DF804308DF805408DF83D
:1008C00006408DF8075002F097FC152301A88DF81B
:1008D00004308DF805408DF806408DF8075002F081
:1008E0008BFC03B030BD0000012810B503D1BDE87A
:1008F0001040FFF799BD0E4C00220221204602F065
:10090000EFFA00221021204602F0EAFA02212046E6
:1009100002F0EEFA1021204602F0EAFA3823054AE6
:10092000E360236100231380034A138010BD00BFDE
:1009300000640040AE040020E4050020032970B5E7
:1009400004460D463ED800283CD00388013B9BB2AC
:10095000B3F5806F36D2C388013B9BB2032B31D8ED
:100960004388013B9BB20F2B2CD88388013B9BB261
:10097000072B27D8474E1C223046002103F030FDBC
:10098000AA1E534253413377434B00225A611A68DF
:100990004FF47A7622F002021A601A6842F00102DD
:1009A0001A601A4653683C49DB070ED44FF47A703C
:1009B000FFF75EFD013EF5D14FF400430B606FF48D
:1009C0007A7070BD6FF0010070BD61230B60E2882A
:1009D0006388013A013B12061B0403F4702302F002
:1009E00040721A432388012D03F1FF33C3F3090337
:1009F00042EA0302A3884FF47A7403F1FF334FEA0B
:100A0000035303F4E00343EA02030CBF4FF0004238
:100A10000022032D43EA02030CBF4FF08042002264
:100A20001343CB610B6823F001030B6048681A4A3B
:100A300010F001000AD04FF47A70FFF719FD013C65
:100A4000F4D14FF400431360144870BDD2F8003263
:100A500023F47C5323F00E0343F4606343F001035B
:100A6000C2F800326FF07043C2F80402C2F80C32D0
:100A70000B4BC2F814320123C2F84002C2F8440200
:100A8000C2F81C32D2F8003223F00103C2F800325F
:100A900070BD00BF700400200064004016FCFFFF22
:100AA000AAAAAA0AF0B500283DD00E293BD80646CE
:100AB0001E4F0022C7F81C224FF0010E93B299423C
:100AC0002FD950F83250002D02DB7368002B05DB64
:100AD0007368EC00DB0044F0040401E06C055B0586
:100AE0006D00756848BF44F00204002DB8BF43F0A4
:100AF00004036D004FEAC20505F1804548BF43F08D
:100B0000020305F5C845C5F84042C5F84432D7F898
:100B10001C320EFA02F42343C7F81C3201320836A5
:100B2000CCE70020F0BD6FF00100F0BD0064004094
:100B300013B5044601214FF0007002F0B7FA01210D
:100B40001CB1092002F0A6FA02E0042002F0A2FA89
:100B500048238DF8073003238DF8063044B14FF455
:100B6000807301A91648ADF8043002F0FFF907E0E0
:100B70004FF4006301A91348ADF8043002F0F6F910
:100B800018238DF8073003238DF806306CB14FF42D
:100B9000007301A90A48ADF8043002F0E7F9012119
:100BA0004FF4EA1002F034FA07E04FF4805301A941
:100BB0000448ADF8043002F0D9F902B010BD00BF0E
:100BC000000C01400008014038B52D4803F0FEFC40
:100BD00044F2213141F23423294D002294B2A04243
:100BE00002F1010204D92C5D23449BB26140F5E778
:100BF00041F29152934203D144F24033994200D0E2
:100C0000FEE748F2657245F278631E4C0021605C95
:100C10000131034419299BB282EA0002F7D145F65B
:100C200088118B4203D148F25B718A4208D045F6A5
:100C30005D418B4203D148F210739A4200D0FEE727
:100C4000104803F0C3FC082814D90F4C0F49204664
:100C500003F05EFC0E49204603F03AFC08492046AA
:100C600003F036FC204603F0B1FC0023204400F8DA
:100C7000033C38BD02490448BDE8384003F048BC95
:100C8000140000201E000020210700202600002064
:100C90005646000810B50C480B4C03F097FC002397
:100CA0004FF0FF319AB2904205D9A25C2E2A08BFBC
:100CB00019B20133F6E7044B013119440348BDE88A
:100CC000104003F025BC00BF21070020E6050020EE
:100CD00008B5FFF779FF0449044803F0F9FBBDE8C4
:100CE0000840FFF7D7BF00BF584600082107002083
:100CF00010B50446074801F08FFC230403F47F037A
:100D000043F0802343F0800300F07F0043EA00209B
:100D100010BD00BF5414002010B50446074801F070
:100D20007BFC230403F47F0343F0004343F0800380
:100D300000F07F0043EA002010BD00BF54140020E3
:100D400008B503F0A5FB02F05FFB4FF0405102F045
:100D5000AFFB08BD08B518220021044803F040FB92
:100D6000BDE80840002003F089BB00BFD822002066
:100D700038B50C460546002101602346C0F8031033
:100D8000202201F05FFE231D02222021284601F0CF
:100D900059FEA31D03222221284601F053FE04F12F
:100DA000080303222521284601F04CFE04F10A0322
:100DB00010222821284601F045FE044801F02CFCB1
:100DC000034BA0811B78E38138BD00BF5414002081
:100DD0002206002010B5FFF7BDFB0023064A02F0F3
:100DE000B7FC064C0023206063812146BDE810401B
:100DF0000348FFF7BDBF00BF40420F009C04002026
:100E0000781C00200000000030B50F4C87B023880C
:100E1000A3B104F628052846FFF7DCFF0723049357
:100E200014230293094B0395019340F25513201D9F
:100E3000009303A3D3E9002301F0F0FB07B030BD1A
:100E4000F1C6A7C1D068080F501400202206002068
:100E500010B5064C10220021204603F0C1FA044BC5
:100E600000221A700123E38010BD00BF9C04002003
:100E70002206002000000000F7B504460F4640F2AD
:100E80007912002103F0ACFA2046FFF7A3FF1AA164
:100E9000D1E90001062300252372012602AB63E994
:100EA0000201E571667220462022502101F0CAFD40
:100EB0000F4AA6751346E57503CBE161A06118687A
:100EC0000C4E206210686062304603F07FFB80B2F7
:100ED0004F2828BF4F2002460546314604F129001D
:100EE00003F008FA29353D8003B0F0BDAFF3008070
:100EF000E8F7FF1F21070020ED04AE050000000009
:100F000070B5134D88B02B880446CBB105F6280682
:100F10000DF11E013046FFF7AFFFBDF81E30E17E38
:100F20000593002304960393A37E193402930123AF
:100F30000093019404A3D3E90023281D01F0C1FB11
:100F400008B070BDAFF300809E6AC421818A46EE6E
:100F50005014002070B505468AB00E464922002183
:100F600003F03EFA03A8FFF72DFB089B00248DE851
:100F7000180021466B462846302201F063FD099B8C
:100F800030228DE8180011466B46284601F05AFDC4
:100F9000039B049A60211A44059B28461A44069B29
:100FA00013448DE8180030226B4601F04BFD1223EC
:100FB00033800AB070BD000070B5134D88B02B8827
:100FC0000446CBB105F628060DF11E013046FFF7A9
:100FD000C1FFBDF81E30E17E059300230496039304
:100FE000A37E1934029304230093019404A3D3E94C
:100FF0000023281D01F065FB08B070BDAFF3008031
:10100000042B31ECA7766FBE5014002037B5044690
:101010000D461022002103F0E3F900231946009445
:101020002822284601F0E2FBEB7E23816B7E638160
:1010300003B030BD10B4002404700B4601222146D9
:1010400010BC01F0FFBC00001FB501466846FFF769
:10105000DDFFDDE9000106A3D3E90023994206BFC5
:1010600090420120002005B05DF804FBAFF3008042
:101070001E1B55CEAC0000000149FFF7DBBF00BFCF
:10108000980400200000000070B5114D86B02B8838
:101090000446B3B105F628063046FFF7EDFF0123FD
:1010A000E17E0593002304960393A37E19340293F3
:1010B00005230093019404A3D3E90023281D01F024
:1010C00000FB06B070BD00BFF017304A39059E56D0
:1010D00050140020014B00221A8070479804002011
:1010E00037B50D46044600230360838019460090FF
:1010F0000822284601F07AFBEB7E63806B7EA3809A
:1011000003B030BD002202600B46C0F8032030213E
:10111000012201F097BC00000149FFF7F3BF00BFB7
:10112000901E00200000000070B5114D86B02B8885
:101130000446B3B105F628063046FFF7EDFF072356
:10114000E17E0593002304960393A37E1934029352
:101150000A230093019404A3D3E90023281D01F07E
:10116000B0FA06B070BD00BFCDD269EBC51A133B13
:101170005014002073B50D461446009200230968F0
:101180000322064601F032FB296823880331012B34
:1011900029600CD0022B13D10834012300942022A3
:1011A000304601F023FB2B6820332B6008E0083425
:1011B00000944022304601F019FB2B6840332B602D
:1011C00002B070BDF0B50E460746002485B040223F
:1011D0002146039403F004F923460D22214600978B
:1011E000304601F003FB039B04A90D3341F8043D95
:1011F00007F108023046FFF7BDFF039DB38A0735AC
:10120000A3EBD5052DB21F2DA8BF1F25A2B2AA4260
:1012100004F101040CDA18323A4400920023082247
:101220000399304601F0E2FA039B08330393EDE79C
:10123000F37E3B87737E7B8705B0F0BD70B50C46AF
:101240001546134609680322064601F0FBFB216898
:101250002B880331012B216002D0022B0AD070BDF4
:1012600005F108034022304601F0ECFB23684033CF
:10127000236070BD05F108032022304601F0E2FB37
:1012800023682033236070BD70B50C4615461346A5
:1012900009680222064601F0D5FB21682B8802313D
:1012A000012B216002D0022B0AD070BD05F108038A
:1012B0004022304601F0C6FB23684033236070BDF6
:1012C00005F108032022304601F0BCFB23682033DF
:1012D000236070BD2DE9F7430446154600260DF145
:1012E00008090F4640F273123146009603F078F871
:1012F00049F8046D4B4631462046052201F0A2FB19
:10130000009B0DF10808053348F8083D2A46414680
:101310002046FFF793FF4B46009920460522019691
:1013200001F090FB009B05F1100205334146204679
:101330000093FFF783FF4B46009920460622019653
:1013400001F080FB009B05F1200206334146204658
:101350000093FFF799FF4B4600992046062201961D
:1013600001F070FB009B05F1300206334146204638
:101370000093FFF789FF009E40350736F6082846A0
:10138000009603F023F91FFA80F84246A019294677
:1013900002F0B0FF46443E8003B0BDE8F083000099
:1013A000014AFFF797BF00BF400600200000000081
:1013B00070B5134D88B02B880446CBB105F62806CE
:1013C0000DF11E013046FFF7EBFFBDF81E30E17E48
:1013D0000593002304960393A37E193402930B23F1
:1013E0000093019404A3D3E90023281D01F069F9B7
:1013F00008B070BDAFF30080D5A4D139F922B6A7EB
:10140000501400200388012B024B94BF01220022BC
:101410001A807047901E00206022002102F0E0BF79
:10142000054B10B500241C8060222146034802F0C1
:10143000D7FF034B1C8010BD901E002040060020EB
:1014400098040020F7B50E460546CE22002102F092
:10145000C7FF0023194600950822304601F0C6F95F
:10146000B48A0023013C24B2C72CA8BFC7245F1C48
:101470009BB2A3424FEAC70109DA2B440133009320
:1014800008220023304601F0B1F93B46EFE72C4437
:1014900000236370F37EA5F8CA30737EA5F8CC30C4
:1014A00003B0F0BD70B5054616460C4680220021FB
:1014B00002F096FF334608220021284601F0C2FAC6
:1014C0000123238070BD0000064B10B100221A706A
:1014D0007047054AD288032A0CBF0222FF221A70E5
:1014E000704700BFA00600209C040020014AFFF7BF
:1014F000D9BF00BFA006002070B5134D88B02B885F
:101500000446CBB105F628060DF11E013046FFF763
:10151000EDFFBDF81E30E17E059300230496039392
:10152000A37E1934029328230093019404A3D3E9E2
:101530000023281D01F0C5F808B070BDAFF300808E
:1015400026417272DF25D7B7501400208122002176
:10155000014802F045BF00BFA0060020F7B50446D1
:101560000F464FF48572002102F03AFF00940123E8
:1015700010220021384601F039F9B4F900501DB1AC
:101580000023A4F804311EE0BE8A023EB6B2B6F5CE
:10159000807F05D947F6FF73A4F80451238012E039
:1015A000ABB2A91CB3424FEAC10105F1010508DA4B
:1015B00023440233009308220023384601F016F931
:1015C000EEE7A4F80461FB7EA4F806317B7EA4F864
:1015D000083103B0F0BDF8B5064614460F46CD22DB
:1015E000002102F0FDFE2346282200213046083467
:1015F00001F028FA204602F0E9FF85B22A4621468A
:10160000701D053502F076FE3D80F8BD014AFFF7FA
:10161000E2BF00BF7813002070B5134C88B0238858
:101620000646CBB104F628050DF11E012846FFF74A
:10163000EDFFBDF81E3004950593012303930023AD
:1016400002930A4B3146019330230093201D04A3DB
:10165000D3E9002301F035F808B070BDAFF3008086
:1016600078F6339F93CACD8D50140020AC0400202F
:1016700008B5D8220021034802F0B2FE024B002236
:101680001A7008BD78130020AC04002010B5154C6A
:101690009CB001200194FFF72BFB009004200394E1
:1016A000FFF726FB029005200594FFF721FB04902D
:1016B0000A200794FFF71CFB06900B200994FFF704
:1016C00017FB089028200B94FFF712FB0A9030209C
:1016D0000D94FFF721FB07210C906846FFF7E2F914
:1016E0001CB010BD80FFFFC008B50020FFF7FCF85C
:1016F0004FF47A70FEF7BCFEFFF7C8FF4FF47A7024
:10170000FEF7B6FEBDE80840FEF78EBE10B5094CE8
:1017100023880BB9002010BD201D01F019F8002806
:10172000F8D0FEF769FF0028F4D0201D01F014F86E
:10173000012010BD5014002010B50B4C86B020883D
:1017400080B16846FFF784F800280BD009DDFEF76A
:1017500001FF02460B46201D694601F0BBF901203E
:1017600000E0012006B010BD501400200000000071
:10177000F0B535488DB000F04FFF08B100205CE0B7
:10178000FEF7E8FE0F460646FFF7DAFA2F4901F0AA
:101790008FFE01F0F5FF2E4A002392197B412D4D5B
:1017A00080185941C5E90201FEF7D4FED5E90223AC
:1017B000994208BF904204D3234800F02DFF50B156
:1017C000DCE7214800F028FF0028F5D1FFF79EFF55
:1017D000FFF7B2FFE8E72B782E8A5B00DBB28DF8CB
:1017E00018301EB943F001038DF818301A4C08ABBD
:1017F00094E8070083E807002268C6F11004E4B209
:10180000062C28BF062499190B920DF119002246C7
:1018100002F070FD06AB03931823013402930F4BC3
:10182000049401240193009405A3D3E900230648FE
:1018300000F0F4FE204600232B820DB0F0BD00BF67
:10184000401DA12026812A0B541400200050C348BB
:10185000C0270900D8220020E8F7FF1FEA22002055
:1018600008B5FFF785FF0028FBD108BD2DE9F74338
:101870001E4C2388002B36D0FEF76CFE0F46064622
:1018800004F62821D1E900894F4508BF464512D307
:10189000174A002312EB080243EB0903C1E90023B6
:1018A000FEF758FE02460B46201D00F05FFF211D8B
:1018B000684601F0E7FAD4F8304AA4B10D49D1E9FD
:1018C00000239F4208BF96420DD3002512196B4199
:1018D0009F4208BF9642F9D2C1E9002303B0BDE898
:1018E000F043FFF791BA03B0BDE8F0835014002035
:1018F00040420F00881E002010B5154C4FF42462A2
:101900000021204602F06CFD201D002100F07DFE2C
:1019100040F6B83040F2DC52002104F62823C3E937
:1019200000010C4B04F6382444F8083C0023C4E9B9
:101930000023FFF78DFAFFF70DFAFFF7CBFBFFF758
:101940006FFDFFF703FEBDE81040FFF791BE00BF3B
:101950005014002040420F007FB5FFF7CDFF00205C
:10196000FFF7E6F8092324215A1CB1FBF2F56A437C
:10197000242ADEB204D0013B012BF5D100204EE039
:10198000C3EBC303DA1CD210D0B24FF47A74013225
:101990005443311AC9B20A4494FBF2F2B2F5617FA2
:1019A000C2BF03F1FF33C3F3C700311A00F1FF33A5
:1019B000C8BFC9B20F2B05D84B1E072B8CBF002305
:1019C000012300E00023421802FB0554154AB2FB34
:1019D000F4F2154CA242D1D1002BCFD0ADF80A00C1
:1019E000ADF80C100124022102A8ADF80850ADF8A2
:1019F0000E40FEF7A3FF0028C0DB00230B4D019330
:101A00000B4BA5F1240000934FF40062094B2946CB
:101A100000F0D3FDFEF74AFF204625F8284C04B01D
:101A200070BD00BF0051250240420F007814002015
:101A300021030008791D000810B50446FFF78CFF4C
:101A400038B1044804F07F0100F0DFFDFEF7ECFC44
:101A5000012010BD54140020054B10B51C6872B64F
:101A600053F8040CFEF7A8FB2346BDE810401847C6
:101A700004600008044B05481B68184000F16043EF
:101A800058425841704700BF006000080000FE2F18
:101A900010B50332C2F38F020023401A9CB2A24257
:101AA00004D94458013341F8044BF7E7042010BD32
:101AB000F8B50C460332C2F38F050026471AB3B2BD
:101AC0009D4207EB04000AD954F8041B4B1C01D1BA
:101AD0000136F4E701F048FB0428F9D0F8BD0420F2
:101AE000F8BD000038B5054601F00CFB074801F0D1
:101AF00065FB0428044604D12946044801F034FB60
:101B0000044601F009FB204638BD00BF005C000818
:101B10000A4601460148FFF7BBBF00BF005C000852
:101B2000044B05481B68834201D0FFF7DBBF04204C
:101B3000704700BF005C00085AA55AA510B54FF4C5
:101B40009A710748FFF7E4FF0428044605D04FF4D4
:101B50009A720021024802F043FC204610BD00BFEB
:101B6000B0040020024B1868431C5842584170478B
:101B7000B004002008B57C2001F0A4FA28B1034B82
:101B800003481B681B1A5842584108BDB004002086
:101B9000A55AA55A08B541F28830FEF769FCFEF750
:101BA00089FB08B541F28830FEF762FCBDE80840C9
:101BB000FFF752BF0A4B0B490022C3F81C144FF029
:101BC000FF31C3F82014402001211A805A805A6046
:101BD0001A81C3F82424C3F8282401F04FBA00BFA7
:101BE000981E002000600008024B0348D3F8201420
:101BF00001F0BABA981E00200060000838B51A4CEF
:101C00001A4BD4F81C04984207D1D4F80A30C4F80F
:101C100020344FF0FF336381A381154B154903F541
:101C2000806253F8045F93420D60FAD1114B1B6838
:101C3000C4F8243401F0C2FA4FF480620E49D4F89B
:101C40001C04FFF735FFD4F81C344FF4806203F511
:101C50008063C4F81C3400232381FF210648BDE8BB
:101C6000384002F0BDBB00BF981E00200060000895
:101C70009E1E002000300240A21E002038B5114CEC
:101C8000114B00250322DA809D8004F10A00012314
:101C90004FF48062FF21238065806560258102F01A
:101CA0009FFB0A4BA4F83854C4F81C344FF0FF33A0
:101CB000C4F82034C4F82454C4F82854BDE838408B
:101CC00001F0D6B9981E00209C0400200060000896
:101CD00010B50446084800F09FFC2146074B1871D8
:101CE00011F8012B03F1690083F8682002F010FC61
:101CF000BDE81040FFF7C2BF54140020B00400201C
:101D0000034B00221A80034B0222DA809A8070472C
:101D1000981E00209C04002038B5164C05462388E8
:101D2000022B25D1B0F900300BB1638038BD20897A
:101D3000B0F5806F03D3BDE83840FFF7E1BFB5F8D9
:101D400004211318B3F5806FF5DC2044A91C0A3078
:101D500002F0D0FAB5F804312289B3F5807F1A4435
:101D6000228162681A4434BF042303236260238003
:101D700038BD00BF981E00202DE9F043BDB00C46D1
:101D8000804600F049FC237E0546002862D1022BE4
:101D900040F0F080E38A012B40F0EC80FEF7DAFBA4
:101DA0000F460646FEF7CCFF744901F081FB01F0B7
:101DB000E7FC734A002392197B418018DFF8E49115
:101DC0005941E37EC9E902014F4683B1284611E03B
:101DD0006C4E08AB96E8070083E8070032681946A6
:101DE0000B9204A82A4602F053FA0346B0B100232E
:101DF0003B82BFE0A38A85B2013B9D4200F1010610
:101E0000E6DA691C04AB1D44C90089B200950023C1
:101E10000822204600F0EAFC3046EBE70F2D0AD8F6
:101E2000D7E90201584A4FF0FF3312184B413D8267
:101E3000C7E902239EE03CAA22F8E20D0092014687
:101E40000722204600F0D2FC9DF80E10404600F01C
:101E5000DCFB8FE0022B00F08D80012B7BD1E38A2D
:101E6000052B22D008D8012B1BD0042B40F08280F8
:101E70002046FFF7A1F87DE00B2B44D0282B52D051
:101E80000A2B77D1214608A8FFF72AF908A8FFF7FF
:101E9000B9FA21463D4800F00DFE2046FFF744F90F
:101EA00068E02046FFF72CF864E02046FFF7CCF806
:101EB0000546374B21461880344800F0FBFD20468C
:101EC000FFF7E2F8002D55D0FEF744FB314C00251A
:101ED00024184D412D4800F03BFC70B1FFF716FC73
:101EE000FEF738FB8D4208BF8442F3D205E0FEF7CF
:101EF00031FB8D4208BF844203D3FEF771FB0028FB
:101F0000F5D0FFF747FE214608A8FFF75BF908A9BF
:101F10002148FFF781FA21461C4800F0CBFD2046FE
:101F2000FFF746FA26E0214608A8FFF78BFA1B4B7D
:101F3000DD88E81E18BF0120FFF7C6FA21461348C6
:101F400000F0B8FD2046FFF7D7FA032D12D008A8FD
:101F5000FFF7BEFE0EE06BB9E38A302B0AD12146B3
:101F60000F48FFF7FBFA0E48FFF7D6FE2146074859
:101F700000F0A0FD3DB0BDE8F08300BF0050C348B5
:101F8000C0270900E8F7FF1F40D8F6FF54140020CF
:101F90009804002020A10700400600209C04002097
:101FA000781C0020D8220020F8B5434D2B882C4601
:101FB000002B7CD0012B16D140486B684049036050
:101FC00000234360083002F0A3FA3E4B93F8680008
:101FD000FFF722FBFEF7BEFA05F58663C3E90001B1
:101FE00002232B80F8BD022B22D1FEF7B3FA05F5B0
:101FF0008663D3E900672EA3D3E9002392197B41BE
:102000008B4208BF824202D36B88002B4FD0B4F8BA
:10201000383401339BB2032BA4F8383403D8264B51
:1020200001221A8001E0FFF76BFE00236380F8BDF8
:10203000032B0BD12B89B3F5806F01D3FFF7DEFDA6
:102040000023A4F8383401232380F8BD042B24D1C5
:102050002B890BB1FFF7D2FD01F00AF863681A4A29
:1020600003F2FF3323F47F7323F003031A44174969
:10207000154B934203D053F8040F0860F9E7134B54
:10208000D4F824241B689342C4F828340BD1FFF7FA
:10209000ABFD094B05221A80F8BD052B07D101F0D5
:1020A0003BF8FFF77EFDBDE8F840FFF729BEF8BD1D
:1020B000404B4C0000000000981E002078130020C8
:1020C00019050020B0040020FC5F00080030024029
:1020D000F8B5FFF733FDFFF74DFDFFF7CBFC20B15F
:1020E000FFF740FD08B1FFF75CFDFFF7C3FC28B127
:1020F000FFF740FD041C18BF012400E00446FFF771
:102100000FFD1CB1224B1E795D7901E026467D252D
:10211000FEF7D6F9FEF740FAFEF7DAFD3046FFF794
:102120008BFC18B96420FEF7AAF9FBE7194A1A4B91
:10213000C3F8302A194B1D80FFF792FBFFF7D4FA42
:10214000FFF738FD14B1FFF799FD01E0FFF7D8FD67
:10215000134D00F0D7FF2F460024FFF7EDFA0028BB
:10216000FBD1FFF7D3FA06460028FAD1FFF77EFB32
:10217000EB8B9BB2002BF0D0FE830CB90924ECE76B
:10218000013CA4B2002CE8D1FFF70EFFE5E700BF49
:10219000B004002090D0030050140020D82200206A
:1021A000700400202DE9F047089D01F007044FEA74
:1021B000D508224405F007054FF47F4900EBD10014
:1021C000944227D005F0070604F0070AB245D4462A
:1021D00038BFB446CCF10801C4EB020C8C4528BFD3
:1021E0008C46E708C75D29FA0CFE08EBD50107FA13
:1021F0000AF75FFA8EFE4EFA06FE47FA06F65F5CB5
:1022000006EA0E0627EA0E0E46EA0E065E546444FF
:102210006544D5E7BDE8F0870246006848B1036829
:1022200011891360D38801339BB29942D38038BFA0
:102230001381704770B504460D4688B020220021F6
:10224000684602F0CDF820460495FFF7E5FF054605
:1022500058B16B46044608AE1A4603CAB242206023
:102260006160134604F10804F6D1284608B070BD39
:102270002DE9F0410568DDB18E68A84626F060477B
:10228000BB0C4FEAD67EC6F3807C2A4637EA260688
:1022900028BF1E469368BEEBD37F23F060440ED068
:1022A000002B08DAA40CB44207D1954213D10D607B
:1022B0000160BDE8F081B44212D0A64206E0A74218
:1022C00003D1C3F380739C4503D1A7422CBF0023E5
:1022D00001232BB1E9E7C8F800100A60BDE8F081DE
:1022E0001368904613B91160BDE8F0811A46D1E732
:1022F000F8B506460F464FF6FF7400252A463046CD
:10230000394600F0AFFFC0B284EA0024082314F479
:10231000004F4FEA4404A4B21CBF84F4815484F0FB
:102320000104013BF3D10835402DE7D12046F8BD2B
:1023300010B54B6843B1C4681A681C60C360438A17
:10234000013B43824A60F4E70A8B002063F30902F1
:102350000A83002110BD0A44914211D011F8013BBB
:1023600080EA0320082310F4004F4FEA400080B2B7
:102370001CBF80F4815080F00100013BF3D1EBE7FA
:1023800070472DE9F04F85B081468DE80A00BDF811
:102390003C409346002A7DD024B10E9B002B79D07F
:1023A000072C27D809F10C00FFF736FF054610B9B6
:1023B0006FF0020070E02022002102F011F82246A6
:1023C0000E9905F1100001F095FF631C2B769BF828
:1023D00000302C4403F01F0363F03F032374009B81
:1023E00009F11C0043F00043AB602946FFF740FFB2
:1023F000012051E04FF0000846464546019B4FF052
:10240000800A1B0A029300F10C0303930398FFF761
:1024100003FF07460028CBD02022002101F0E0FF77
:102420003EB99DF8043002223B749DF808307B745D
:102430000BE0002209E00E9BB9180132985DD2B280
:102440000136072A0874B6B201D0B442F3D8A642C6
:1024500008BF4FF0400A9BF80010B81801F01F01A8
:1024600041EA481141EA0A030374009B013243F038
:102470000043BB603A76394609F11C00FFF7F8FECD
:10248000A64205F1010588F001084FF0000ABDD110
:10249000284601E06FF0010005B0BDE8F08F2DE99E
:1024A000F04717460A8B9946C2F30902C2F10603A8
:1024B000002B0646884618DD00201FFA89F185B2F8
:1024C00053199BB2052B09D9A9420FD8B8F8183077
:1024D0000A4462F30903A8F818306BE0A942F3D963
:1024E0003C5C43449C760130E9E70025911F1C23A6
:1024F000B1FBF3FA03FB1A1AD8F804405FFA8AF129
:102500000CB1012329E03046FFF786FE044608B1EE
:1025100000230360C8F80440CCB96FF00200BDE8A6
:10252000F0874A44063A1C20B2FBF0F20132D2B2E4
:1025300093420DD2BAF1000F0AD13046FFF76CFE7C
:1025400008B1C0F800A020600028E6D004460021B1
:102550001FFA89F94FF0000A11E020680028E0D046
:102560000133DBB20446F8E7A3180132785D92B27A
:1025700001351C2A1871ADB205D0A945F4D84D45D6
:102580000FD28AB2F0E7A945F9D93046FFF744FEE9
:1025900008B1C0F800A020600028BED00446002189
:1025A000EDE7B8F81820C2F30903994469F309026A
:1025B000A8F818200120BDE8F087F8B504461646B3
:1025C0000D46242200211F4601F00AFF069B7209D6
:1025D0006360079B002023624FF6FF739A4228BF77
:1025E0001A4629460346A760207097B204F10C06EC
:1025F000934204D0316001330E462031F8E70023C6
:10260000336027826382A382F8BD03781BB94BB283
:10261000002BC8BF01707047007870472DE9F74361
:102620000D9F8046BDF828400B9E9DF83090BDF868
:1026300038500FB9002D3FD1B9F11F0F3CD898F891
:102640000010A9B9072D34D834F0030334D12A4639
:1026500039464FF6FF70FFF77EFE47F6FE73240201
:1026600004F4407444EA0964034044EA43240FE05C
:1026700041EA0421072D41EA096409D919461046A7
:10268000FFF736FE2A463946FFF765FE034601E0AE
:102690004FF6FF7301950097324621464046FFF7FB
:1026A00070FE33780133DBB21F2B88BF00233370F9
:1026B00004E06FF0030001E06FF0010003B0BDE83B
:1026C000F0832DE9F7430E9F81460C4610461946CC
:1026D0000B9D9DF830209DF83480BDF83C6007B913
:1026E00076BB1F2A2CD899F8003063B343F08003DF
:1026F00043EA04239DF8284043EAC83343EA0443ED
:10270000072E43EA026407D9FFF7F2FD3246394645
:10271000FFF721FE034601E04FF6FF730196009795
:102720002A4621464846FFF72CFEB8F1010F0CD18E
:102730002B780133DBB21F2B88BF00232B7004E002
:102740006FF0010001E06FF0030003B0BDE8F0831B
:10275000C06900B108307047C3691A68C261C268B5
:102760001A60C360438A013B438270472DE9F047FA
:10277000D0F818A0054616461F465446DFF8688074
:102780004FF00009002C2CD0D4E90223B21A67EBD9
:102790000303994508BF904520D2AB6921469C426E
:1027A00028460DD1FFF7C4FDAB691B68AB61EB6830
:1027B00023606B8AEC60AC69013B6B82A246E1E767
:1027C000FFF7B6FD2368CAF80030EB6823606B8A18
:1027D000EC60013B6B82DAF80040D3E7A246246844
:1027E000D0E7BDE8F08700BF80841E002DE9F04FE0
:1027F0008BB00E4614460793149F8246002800F0C3
:10280000FF80002F00F0FC80531E3F2B00F2F88069
:10281000012A03D1079B002B40F0F280BAF8145034
:102820000023ED00AE420893099301D3002505E192
:1028300033199D42DAF80C303ABFAD1BEDB2254694
:102840001BB9DAF81030002B61D02F2E15D8C6F145
:102850003008A84528BFA846002300935FFA88FBEC
:102860004246314608ABDAF808004644CBEB05088F
:10287000FFF798FC5FFA88F802E0A8464FF0000BDB
:10288000BAF81430302103F10053063BDB00049307
:10289000DAF80C300393039B6BB3B8F1000F2AD026
:1028A000049BE02B28BFE02306930B44B34205931F
:1028B00018D9C6EB0309C84538BFC146039828BFDD
:1028C0005FFA89F9CDF800B0711A08AB4A460430B6
:1028D000FFF768FCCB44C9EB08084E445FFA8BFB5A
:1028E0005FFA88F8049B069A05999B1A0493039B48
:1028F0001B680393CFE7DAF8100080B1B8F1000F3E
:102900000DD0CDF800B008AB4246711A05E02A465A
:1029100031460093DAF8080008ABFFF743FC002DBE
:1029200084D066070BD00AAB03EBD40111F8082C56
:10293000634203F0070342FA03F301F8083C082C52
:1029400006D9102C06D9202C8CBF0823042302E0C2
:10295000012300E00223079A002A57D0B4EBC30FEB
:1029600056D0082C0ED89DF92020631E22FA03F3BE
:10297000D80760D54FF0FF3303FA04F414438DF801
:10298000204058E0102C0ED8BDF92020631E22FAFA
:1029900003F3D90743D54FF0FF3303FA04F414438C
:1029A000ADF820403BE0202C0CD8089B621E23FA97
:1029B00002F2D20737D54FF0FF3202FA04F4234374
:1029C000089330E0402C1ED0DDE90889621E4046A5
:1029D000494600F047FC002100F0010050EA0103E5
:1029E00024D022460120002100F048FC404261EB47
:1029F000410140EA080041EA0901CDE9080115E07A
:102A00006FF001051AE06FF0080517E0012C12D0F5
:102A1000082C10D9102C02D9202C07D803E0BDF8BF
:102A200020303B800AE0089B3B6007E0DDE908239B
:102A3000C7E9002302E09DF820303B7028460BB028
:102A4000BDE8F08F30B5402A85B018D8002A08BFFD
:102A500001220024012A0294039401D0082A03D8F9
:102A60001B788DF808300FE0102A03D81B88ADF8CA
:102A7000083009E0202A03D81B68029304E04022B2
:102A8000D3E90045CDE9024553070BD004AB03EB76
:102A9000D20515F8084C534203F0070304FA03F378
:102AA00005F8083C00910346002102A8FFF77AFBD5
:102AB00005B030BD10B5CB6843B1C4681A681C605E
:102AC000C360438A013B4382CA60F4E78B600B61B9
:102AD0008B8210BD2DE9F04FD1F800A08FB0CDE969
:102AE0000223CAF3C01204460D4622B1CAF3C03B0A
:102AF000CAF3062802E090464FF0020BBAF1000F2D
:102B000080F2BB812B6813F0C04F40F0B6812B7C64
:102B1000002B00F0B281BBF1020F03D021784145B8
:102B200040F0AB810AF07F01C8B2059012B1CAF340
:102B3000074904E0CAF30F2909B909F003092B4436
:102B40004FEA4868059ADE7948EA0B4848EA824825
:102B5000F30948EA090804932BD0002200230EA9A8
:102B600061E90823059B676800934A465B46204657
:102B7000B847002800F08181A7694FB9414604F1A8
:102B80000C00FFF757FB074688B976E13F681FB195
:102B90003B699845FAD115E0414604F10C00FFF776
:102BA00049FB0746002800F06881A3693B60A761E4
:102BB00008E0A769002F00F060813B69984506D0C6
:102BC0003F68F7E7DDE90601FFF792FBF88297F827
:102BD00019E006F01F08CEF3840EB8EB0E0ED7E90D
:102BE000022348BF0EF1200E52EA0301CAF3046A21
:102BF00000F02E81DDE90201801A61EB03010B4632
:102C0000024600219E48994208BF9042C0F02081B0
:102C1000049B5BB3BEF1010F00F31A81730625D547
:102C2000DDE902230021C7E9022306A8202201F0E2
:102C3000D7FBDDE90223CDE9062305F1080308935C
:102C40002B7CADF82E90013BDBB2ADF82C309DF81B
:102C500014308DF830B08DF833308DF831808DF828
:102C600032A0A36806A920469847DEE07B7EC6F323
:102C70004012B2EBD31F40F00081C3F384034345FD
:102C800040F0FB80049A2B7CB609002A33D016F062
:102C900001065ED1032B40F2F080DDE90223C7E993
:102CA00002232B7C05F10A08033BDBB2424639467E
:102CB00004F10C00FFF7F3FB002812DA3946204636
:102CC000FFF736FB7B7EC3F38402013262F3860397
:102CD0007B763B8B66F309033B831B0A66F3C713C2
:102CE000B4E06A7A2B7A414643EA0223BB822A7C0B
:102CF000033AD2B223E066BB05F10806013BDBB222
:102D00003246394604F10C00FFF7C9FB002812DAFD
:102D100039462046FFF70CFB7B7EC3F38402013269
:102D200062F386037B76049A3B8B62F309033B8351
:102D3000049A1B0A88E031462A7C013AD2B2F88A0A
:102D4000FFF709FB7B7EF882C3F3C01282F0010219
:102D50007AE0388B013BC0F309000528DBB212D8BA
:102D6000EE1D0021CAB2934228D9013100EB010EB9
:102D700016F801CF07EB0E02BEF1060F82F819C05C
:102D8000CAB2EFD11AE07E68BEB10622316811B135
:102D90001C320E46FAE7801A05F1070C00EB010E13
:102DA000BEF11B0FCAB209D89A4207D21CF8012FF4
:102DB000B6448EF804200131F0E73246DDE9020125
:102DC0009A42CDE9060107F11A01089138BF08328D
:102DD000796834BF5219002209910A923A8BADF8F2
:102DE0002E90C2F309021344ADF82C309DF8143034
:102DF0008DF830B08DF8333000238DF831808DF8A8
:102E000032A07B602A7CF88A013A05F10801FFF7BD
:102E1000A2FABB8AF882834203D1A36806A920469E
:102E2000984706A92046FFF745FE7B7EC3F3840240
:102E3000013262F386037B763B8B6FF309033B839E
:102E40001B0A6FF3C71301E062F3C7137B7614E02C
:102E50007B7E394666F386036FF3C7137B76204685
:102E6000FFF766FA049B002B7FF4D8AE7B7EC3F39A
:102E70008402013262F38603E8E70FB0BDE8F08F09
:102E800080841E00034651F8100F8A8818609A80CB
:102E900018467047FEE7000008B50C4A0C4B0D4978
:102EA0008B4204D252F8040F43F8040BF8E70A48A7
:102EB0000A494FF000028842B8BF40F8042BFADB01
:102EC000FDF77EF9BDE80840FFF702B9704600083B
:102ED000000000206C04002070040020F02400207A
:102EE00043690AB1194301E023EA010141617047D6
:102EF000B1F5807F35D00CD8082924D004D8012919
:102F00001CD004291DD0704720291FD040291FD074
:102F10007047B1F5006F22D006D8B1F5007F20D000
:102F2000B1F5806F1DD07047B1F5803F13D0B1F57A
:102F3000003F12D0B1F5004F15D110E00A4B83606D
:102F40007047082300E01023C3607047082300E0A7
:102F5000102303617047082304E0102302E00023DC
:102F6000836104234360704701010100CA782DE9A1
:102F7000F041D40648BF8C780E8802F00F0348BF9A
:102F8000234316F0FF0F1ED0016800244FF0010EFE
:102F90004FF00F0C0EFA04F737EA06050FD1A50023
:102FA0000CFA05F821EA080103FA05F5282A41EA96
:102FB000050101D1476102E0482A08BF07610134D9
:102FC000082CE7D10160FF2E20D9416800244FF082
:102FD000010E4FF00F0C04F108050EFA05F535EA65
:102FE00006070FD1A7000CFA07F821EA080103FA37
:102FF00007F7282A41EA070101D1456102E0482A82
:1030000008BF05610134082CE5D14160BDE8F081BD
:103010000028164A30B500F44015B4BFD369536890
:10302000B5F5401F84B206D1556823F0706325F0D2
:10303000706555600EE0C20255BF420D03221201B9
:10304000C0F303454CBFAA4004FA02F223EA02038C
:1030500043F0706319B1420D120194402343034AB7
:103060000028B4BFD361536030BD00BF00000140F1
:10307000014B01229A60704700300240044B5A69AC
:1030800009B1104301E022EA00005861704700BF17
:1030900000100240044B9A6909B1104301E022EA92
:1030A00000009861704700BF00100240044BDA69CD
:1030B00009B1104301E022EA0000D861704700BF67
:1030C000001002404209012A074B01D11B6803E0AE
:1030D000022A0CBF1B6A5B6A00F01F0023FA00F093
:1030E00000F00100704700BF00100240034B044A8B
:1030F0005A6002F188325A60704700BF00200240D7
:1031000023016745FFF7F2BF024A136943F08003CA
:103110001361704700200240FFF7F6BF084BDA68E2
:10312000D10709D4DA68520708D4DB6813F0100F0E
:1031300014BF03200420704701207047022070470D
:103140000020024010B50446FFF7E8FF012806D131
:103150001CB1FFF7E3FF013CF8E7052010BD002C90
:1031600008BF052010BD000073B5002306464FF4CC
:1031700000500D460193FFF7E5FF04281AD10E4CCD
:103180004FF40050236943F001032361ABB2338055
:10319000FFF7D8FF042808D102360196019B2D0CB9
:1031A0001D804FF40050FFF7CDFF41F6FE732269FA
:1031B0001340236102B070BD0020024038B50546BF
:1031C0004FF43020FFF7BEFF042812D1094C4FF412
:1031D0003020236943F0020323616561236943F0D2
:1031E00040032361FFF7AEFF41F6FD7322691340F0
:1031F000236138BD00200240C27810B503780AB3BD
:10320000164A03F16043D1684278C943C1F30221F1
:10321000C1F1040402FA04F40F22CA40817803F5D4
:1032200061430A4022431201D2B283F8002303789B
:103230000122590903F01F0302FA03F3084A42F876
:10324000213010BD5A09012103F01F0301FA03F3D5
:103250000349203241F8223010BD00BF00ED00E0EC
:1032600000E100E0D0400B1CD1409C46203AD34006
:103270001843524263469340184370479140031CE1
:1032800090409C46203A9340194352426346D340B3
:103290001943704780F0004002E000BF81F0004118
:1032A00042001FBF5FEA410392EA030F7FEA226CEC
:1032B0007FEA236C6AD04FEA1262D2EB1363C1BF7C
:1032C000D218414048404140B8BF5B42192B88BFEB
:1032D000704710F0004F40F4000020F07F4018BF0E
:1032E000404211F0004F41F4000121F07F4118BF2E
:1032F000494292EA030F3FD0A2F1010241FA03FCD6
:1033000010EB0C00C3F1200301FA03F100F00043BD
:1033100002D5494260EB4000B0F5000F13D3B0F185
:10332000807F06D340084FEA310102F10102FE2AF4
:1033300051D2B1F1004F40EBC25008BF20F0010064
:1033400040EA03007047490040EB000010F4000F12
:10335000A2F10102EDD1B0FA80FCACF1080CB2EBA5
:103360000C0200FA0CF0AABF00EBC2505242184304
:10337000BCBFD0401843704792F0000F81F40001A9
:1033800006BF80F400000132013BB5E74FEA41037C
:103390007FEA226C18BF7FEA236C21D092EA030FE8
:1033A00004D092F0000F08BF0846704790EA010F62
:1033B0001CBF0020704712F07F4F04D1400028BF8F
:1033C00040F00040704712F100723CBF00F5000071
:1033D000704700F0004343F0FE4040F400007047A7
:1033E0007FEA226216BF08467FEA23630146420253
:1033F00006BF5FEA412390EA010F40F48000704766
:103400004FF0000304E000BF10F0004348BF40420B
:103410005FEA000C08BF704743F0964301464FF047
:1034200000001CE050EA010208BF70474FF00003A3
:103430000AE000BF50EA010208BF704711F00043E4
:1034400002D5404261EB41015FEA010C02BF8446B4
:103450000146002043F0B64308BFA3F18053A3F513
:103460000003BCFA8CF2083AA3EBC25310DB01FA5A
:1034700002FC634400FA02FCC2F12002BCF1004FDE
:1034800020FA02F243EB020008BF20F0010070476F
:1034900002F1200201FA02FCC2F1200250EA4C00C3
:1034A00021FA02F243EB020008BF20EADC70704709
:1034B0004FF0FF0C1CEAD0521EBF1CEAD15392EA17
:1034C0000C0F93EA0C0F6FD01A4480EA010C4002F3
:1034D00018BF5FEA41211ED04FF0006343EA50104D
:1034E00043EA5111A0FB01310CF00040B1F5000F8F
:1034F0003EBF490041EAD3715B0040EA010062F13E
:103500007F02FD2A1DD8B3F1004F40EBC25008BF27
:1035100020F00100704790F0000F0CF0004C08BF45
:1035200049024CEA502040EA51207F3AC2BFD2F112
:10353000FF0340EAC250704740F400004FF0000320
:10354000013A5DDC12F1190FDCBF00F0004070475A
:10355000C2F10002410021FA02F1C2F1200200FA98
:1035600002FC5FEA310040F1000053EA4C0308BF5F
:1035700020EADC70704792F0000F00F0004C02BFB0
:10358000400010F4000F013AF9D040EA0C0093F02B
:10359000000F01F0004C02BF490011F4000F013B85
:1035A000F9D041EA0C018FE70CEAD15392EA0C0FF3
:1035B00018BF93EA0C0F0AD030F0004C18BF31F05E
:1035C000004CD8D180EA010000F00040704790F034
:1035D000000F17BF90F0004F084691F0000F91F0D8
:1035E000004F14D092EA0C0F01D142020FD193EA9E
:1035F0000C0F03D14B0218BF084608D180EA010026
:1036000000F0004040F0FE4040F40000704740F001
:10361000FE4040F4400070474FF0FF0C1CEAD052CF
:103620001EBF1CEAD15392EA0C0F93EA0C0F69D02B
:10363000A2EB030280EA010C49024FEA402037D096
:103640004FF0805343EA111143EA10130CF000408D
:103650008B4238BF5B0042F17D024FF4000C8B427D
:1036600024BF5B1A40EA0C00B3EB510F24BFA3EB5D
:10367000510340EA5C00B3EB910F24BFA3EB91032D
:1036800040EA9C00B3EBD10F24BFA3EBD10340EA87
:10369000DC001B0118BF5FEA1C1CE0D1FD2A3FF6CD
:1036A00050AF8B4240EBC25008BF20F00100704782
:1036B0000CF0004C4CEA50207F32C2BFD2F1FF0325
:1036C00040EAC250704740F400004FF00003013A56
:1036D00037E792F0000F00F0004C02BF400010F4FA
:1036E000000F013AF9D040EA0C0093F0000F01F00E
:1036F000004C02BF490011F4000F013BF9D041EA30
:103700000C0195E70CEAD15392EA0C0F08D1420262
:103710007FF47DAF93EA0C0F7FF470AF084676E735
:1037200093EA0C0F04D14B023FF44CAF08466EE70E
:1037300030F0004C18BF31F0004CCAD130F00042DC
:103740007FF45CAF31F000437FF43CAF5FE700BF34
:1037500053B94AB9002908BF00281CBF4FF0FF31F8
:103760004FF0FF3000F0A8B9ADF1080C6DE904CEC0
:1037700000F02CF8DDF804E0DDE9022304B0704726
:10378000D0B500F0FFFA00220E4B06460F4600F0BF
:103790004DFB00F05DFD044600F0D2FA00220A4B1A
:1037A00000F044FB02460B463046394600F08AF9E9
:1037B00000F04EFD2346002242EA00021046194660
:1037C000D0BD00BF0000F03D0000F0412DE9F04FFA
:1037D0008C460C460546099E002B4FD18A4217465F
:1037E0006BD9B2FA82FEBEF1000F0BD0CEF12005EC
:1037F00020FA05F501FA0EF345EA030C02FA0EF77A
:1038000000FA0EF5390CBCFBF1F0BAB201FB10C3A3
:1038100000FB02F84FEA154C4CEA0344A04509D9D5
:10382000E41900F1FF3380F02881A04540F22581A2
:1038300002383C44C8EB0404B4FBF1F301FB134C25
:1038400003FB02F2ACB244EA0C418A4209D9C9191D
:1038500003F1FF3480F00F818A4240F20C81023B79
:1038600039448A1A43EA00400021002E63D022FA2C
:103870000EF2002386E80C00BDE8F08F8B4207D9DA
:10388000002E56D0002186E811000846BDE8F08FD2
:10389000B3FA83F1002940F09380A34202D382421D
:1038A00000F2FE80851A64EB03039C460120002E83
:1038B00041D086E82010BDE8F08F12B90127B7FB90
:1038C000F2F7B7FA87FEBEF1000F36D1E41B4FEADC
:1038D00017481FFA87F90121B4FBF8F308FB1344DA
:1038E00009FB03F24FEA154C4CEA0444A24207D903
:1038F000E41903F1FF3002D2A24200F2D380034662
:10390000A41AB4FBF8F008FB104809FB00F9ACB2AC
:1039100044EA0842914507D9D21900F1FF3402D296
:10392000914500F2BA802046C9EB020240EA03400A
:103930009BE731463046BDE8F08F07FA0EF7CEF12F
:10394000200C24FA0CF34FEA1748B3FBF8FA1FFADD
:1039500087F908FB1A3520FA0CFC04FA0EF40AFB6E
:1039600009FB4CEA040C4FEA1C4242EA05439B4522
:1039700000FA0EF50AD9DB190AF1FF3280F08B80CC
:103980009B4540F28880AAF1020A3B44CBEB03033B
:10399000B3FBF8F008FB103300FB09F41FFA8CFCB2
:1039A0004CEA03439C4207D9DB1900F1FF326ED287
:1039B0009C426CD902383B441C1B40EA0A418BE70D
:1039C000C1F1200E8B4022FA0EFC4CEA030C24FAC3
:1039D0000EF74FEA1C49B7FBF9FA1FFA8CF309FB03
:1039E0001A7720FA0EF88C400AFB03F548EA040423
:1039F0004FEA144848EA0747BD4202FA01F200FACA
:103A000001FB09D917EB0C070AF1FF3041D2BD4287
:103A10003FD9AAF1020A67447F1BB7FBF9F509FBFE
:103A2000157705FB03F3A4B244EA0747BB4208D964
:103A300017EB0C0705F1FF3027D2BB4225D9023D19
:103A4000674445EA0A40A0FB0289FF1A4F454546F4
:103A50004C4614D329D066B3BBEB050367EB0407D0
:103A600007FA0EFECB40CF404EEA030386E88800FB
:103A70000021BDE8F08F2346F3E61846DAE6B8EBFE
:103A8000020569EB0C040138E5E70546D9E7104665
:103A900092E78246C0E7924678E702383A4443E725
:103AA000084604E7023B3C442AE7C345E7D33C46CB
:103AB000D1E73146BDE8F08F704700BF81F000418B
:103AC00002E000BF83F0004330B54FEA41044FEA03
:103AD000430594EA050F08BF90EA020F1FBF54EA9E
:103AE000000C55EA020C7FEA645C7FEA655C00F03A
:103AF000E2804FEA5454D4EB5555B8BF6D420CDD0B
:103B00002C4480EA020281EA030382EA000083EA8D
:103B1000010180EA020281EA0303362D88BF30BD2D
:103B200011F0004F4FEA01314FF4801C4CEA113183
:103B300002D0404261EB410113F0004F4FEA0333E2
:103B40004CEA133302D0524263EB430394EA050F6D
:103B500000F0A780A4F10104D5F1200E0DDB02FADC
:103B60000EFC22FA05F2801841F1000103FA0EF270
:103B7000801843FA05F359410EE0A5F120050EF136
:103B8000200E012A03FA0EFC28BF4CF0020C43FA67
:103B900005F3C01851EBE37101F0004507D54FF074
:103BA000000EDCF1000C7EEB00006EEB0101B1F5C4
:103BB000801F1BD3B1F5001F0CD349085FEA30000A
:103BC0004FEA3C0C04F101044FEA445212F5800F15
:103BD00080F09A80BCF1004F08BF5FEA500C50F1B2
:103BE000000041EB045141EA050130BD5FEA4C0C95
:103BF000404141EB010111F4801FA4F10104E9D11E
:103C000091F0000F04BF01460020B1FA81F308BF14
:103C10002033A3F10B03B3F120020CDA0C3208DDE0
:103C200002F1140CC2F10C0201FA0CF021FA02F1BB
:103C30000CE002F11402D8BFC2F1200C01FA02F12B
:103C400020FA0CFCDCBF41EA0C019040E41AA2BF50
:103C500001EB0451294330BD6FEA04041F3C1CDA18
:103C60000C340EDC04F11404C4F1200220FA04F038
:103C700001FA02F340EA030021FA04F345EA0301E2
:103C800030BDC4F10C04C4F1200220FA02F001FAA4
:103C900004F340EA0300294630BD21FA04F0294626
:103CA00030BD94F0000F83F4801306BF81F48011BF
:103CB0000134013D4EE77FEA645C18BF7FEA655C32
:103CC00029D094EA050F08BF90EA020F05D054EA04
:103CD000000C04BF1946104630BD91EA030F1EBF09
:103CE0000021002030BD5FEA545C05D1400049410D
:103CF00028BF41F0004130BD14F580043CBF01F500
:103D0000801130BD01F0004545F0FE4141F47001E5
:103D10004FF0000030BD7FEA645C1ABF19461046C0
:103D20007FEA655C1CBF0B46024650EA013406BFC1
:103D300052EA033591EA030F41F4002130BD00BF80
:103D400090F0000F04BF0021704730B54FF480643D
:103D500004F132044FF000054FF0000150E700BFBE
:103D600090F0000F04BF0021704730B54FF480641D
:103D700004F1320410F0004548BF40424FF000010A
:103D80003EE700BF42004FEAE2014FEA31014FEA4D
:103D900002701FBF12F07F4393F07F4F81F060519C
:103DA000704792F0000F14BF93F07F4F704730B50B
:103DB0004FF4607401F0004521F0004120E700BF9E
:103DC00050EA010208BF704730B54FF000050AE025
:103DD00050EA010208BF704730B511F0004502D526
:103DE000404261EB41014FF4806404F132045FEA28
:103DF000915C3FF4DCAE4FF003025FEADC0C18BFCD
:103E000003325FEADC0C18BF033202EBDC02C2F1C2
:103E1000200300FA03FC20FA02F001FA03FE40EA54
:103E20000E0021FA02F11444C1E600BF70B54FF054
:103E3000FF0C4CF4E06C1CEA11541DBF1CEA135536
:103E400094EA0C0F95EA0C0F00F0DEF82C4481EA9E
:103E5000030621EA4C5123EA4C5350EA013518BFBE
:103E600052EA033541F4801143F4801338D0A0FBAB
:103E700002CE4FF00005E1FB02E506F00042E0FB58
:103E800003E54FF00006E1FB03569CF0000F18BF5E
:103E90004EF0010EA4F1FF04B6F5007F64F5407406
:103EA00004D25FEA4E0E6D4146EB060642EAC62199
:103EB00041EA55514FEAC52040EA5E504FEACE2E06
:103EC000B4F1FD0C88BFBCF5E06F1ED8BEF1004F09
:103ED00008BF5FEA500E50F1000041EB045170BD85
:103EE00006F0004646EA010140EA020081EA0301C9
:103EF000B4EB5C04C2BFD4EB0C0541EA045170BDC5
:103F000041F480114FF0000E013C00F3AB8014F13E
:103F1000360FDEBF002001F0004170BDC4F1000487
:103F2000203C35DA0C341BDC04F11404C4F1200508
:103F300000FA05F320FA04F001FA05F240EA020063
:103F400001F0004221F0004110EBD37021FA04F699
:103F500042EB06015EEA430E08BF20EAD37070BD53
:103F6000C4F10C04C4F1200500FA04F320FA05F0B2
:103F700001FA04F240EA020001F0004110EBD370B4
:103F800041F100015EEA430E08BF20EAD37070BD24
:103F9000C4F1200500FA05F24EEA020E20FA04F3FD
:103FA00001FA05F243EA020321FA04F001F00041AC
:103FB00021FA04F220EA020000EBD3705EEA430E1D
:103FC00008BF20EAD37070BD94F0000F0FD101F04C
:103FD0000046400041EB010111F4801F08BF013C85
:103FE000F7D041EA060195F0000F18BF704703F0C3
:103FF0000046520043EB030313F4801F08BF013D4A
:10400000F7D043EA0603704794EA0C0F0CEA135505
:1040100018BF95EA0C0F0CD050EA410618BF52EABF
:104020004306D1D181EA030101F000414FF00000C5
:1040300070BD50EA410606BF1046194652EA4306D3
:1040400019D094EA0C0F02D150EA013613D195EA47
:104050000C0F05D152EA03361CBF104619460AD18F
:1040600081EA030101F0004141F0FE4141F4700199
:104070004FF0000070BD41F0FE4141F4780170BD89
:1040800070B54FF0FF0C4CF4E06C1CEA11541DBFEE
:104090001CEA135594EA0C0F95EA0C0F00F0A7F8F0
:1040A000A4EB050481EA030E52EA03354FEA01311D
:1040B00000F088804FEA03334FF0805545EA131330
:1040C00043EA12634FEA022245EA111545EA1065F8
:1040D0004FEA00260EF000419D4208BF964244F18F
:1040E000FD0404F5407402D25B084FEA3202B61AAE
:1040F00065EB03055B084FEA32024FF480104FF482
:10410000002CB6EB020E75EB030E22BFB61A7546F5
:1041100040EA0C005B084FEA3202B6EB020E75EB88
:10412000030E22BFB61A754640EA5C005B084FEAF0
:104130003202B6EB020E75EB030E22BFB61A7546BD
:1041400040EA9C005B084FEA3202B6EB020E75EBC8
:10415000030E22BFB61A754640EADC0055EA060E89
:1041600018D04FEA051545EA16754FEA06164FEACC
:10417000C30343EA52734FEAC2025FEA1C1CC0D178
:1041800011F4801F0BD141EA00014FF000004FF005
:10419000004CB6E711F4801F04BF01430020B4F1C6
:1041A000FD0C88BFBCF5E06F3FF6AFAEB5EB030C7E
:1041B00004BFB6EB020C5FEA500C50F1000041EB7B
:1041C000045170BD0EF0004E4EEA113114EB5C0448
:1041D000C2BFD4EB0C0541EA045170BD41F480111B
:1041E0004FF0000E013C90E645EA060E8DE60CEA23
:1041F000135594EA0C0F08BF95EA0C0F3FF43BAF40
:1042000094EA0C0F0AD150EA01347FF434AF95EAF6
:104210000C0F7FF425AF104619462CE795EA0C0FDA
:1042200006D152EA03353FF4FDAE1046194622E7A7
:1042300050EA410618BF52EA43067FF4C5AE50EA81
:1042400041047FF40DAF52EA43057FF4EBAE12E771
:104250004A0011D212F5001211D20DD56FF4787305
:10426000B3EB62520ED44FEAC12343F0004343EA5A
:10427000505323FA02F070474FF00000704750EAA5
:10428000013002D14FF0FF3070474FF0000070470F
:10429000032A70B426D940EA01039B0711D00478A1
:1042A0000D78AC4222D10244431C05E013F8014BC7
:1042B00011F8015FAC4219D19342F7D1002070BCD4
:1042C00070470C4603461E6825681846AE422146D4
:1042D00003F1040304F10404E1D1043A032A18466B
:1042E0002146F0D8002ADAD11046E8E7601B70BCFE
:1042F000704700BF844641EA000313F0030349D12D
:10430000403A23D30B6803604B6843608B6883603B
:10431000CB68C3600B6903614B6943618B6983613F
:10432000CB69C3610B6A03624B6A43628B6A836227
:10433000CB6AC3620B6B03634B6B43638B6B83630F
:10434000CB6BC36340304031403ADBD230320BD3C9
:104350000B6803604B6843608B688360CB68C36005
:1043600010301031103AF3D20C3205D351F8043B1F
:1043700040F8043B043AF9D2043208D0D2071CBFFB
:1043800011F8013B00F8013B01D30B880380604624
:10439000704700BF082A13D38B07B1D010F0030376
:1043A000AED0C3F10403D21ADB071CBF11F8013BE6
:1043B00000F8013BA4D331F8023B20F8023B9FE711
:1043C000043AD9D3013A11F8013B00F8013BF9D284
:1043D0000B7803704B7843708B788370604670471E
:1043E00070B4840746D0541E002A41D0CDB2034693
:1043F00002E0621EE4B3144603F8015B9A07F8D1A9
:10440000032C2ED9CDB245EA05250F2C45EA0545EA
:1044100019D9264603F11002103E0F2E42F8105C07
:1044200042F80C5C42F8085C42F8045C02F11002AD
:10443000F2D8A4F1100222F00F0204F00F0410329F
:10444000032C13440DD91E462246043A032A46F88B
:10445000045BFAD8221F22F003020432134404F052
:1044600003042CB1C9B21C4403F8011BA342FBD1C5
:1044700070BC704714460346C2E700BF034B0022DE
:104480001B68C3F8A800C3F8AC207047680400207C
:1044900030B40C4B0C4C19680C4DD1F8A820D1F855
:1044A000AC0004FB02F4A2FB052305FB0040013233
:1044B000034443F10003C1E92A2323F0004030BC48
:1044C000704700BF680400202DF451582D7F954C93
:1044D000830710B5044610D10268A2F1013323EA24
:1044E000020313F0803F08D150F8042FA2F10133EA
:1044F00023EA020313F0803FF6D003781BB110F8D3
:10450000013F002BFBD100F003F8204610BD00BF97
:1045100080EA0102844612F0030F4FD111F0030F1D
:1045200032D14DF8044D11F0040F51F8043B0BD07B
:10453000A3F101329A4312F0803F04BF4CF8043BD0
:1045400051F8043B16D100BF51F8044BA3F10132DE
:104550009A4312F0803FA4F101320BD14CF8043B96
:10456000A24312F0803F04BF51F8043B4CF8044BC7
:10457000EAD023460CF8013B13F0FF0F4FEA332338
:10458000F8D15DF8044B704711F0010F06D011F817
:10459000012B0CF8012B002A08BF704711F0020F05
:1045A000BFD031F8022B12F0FF0F16BF2CF8022BF0
:1045B0008CF8002012F47F4FB3D1704711F8012B13
:1045C0000CF8012B002AF9D1704700BF20F003013D
:1045D00010F00300C0F1000051F8043B00F1040C9E
:1045E0004FEACC0C6FF000021CBF22FA0CF213430E
:1045F0004FF0010C4CEA0C2C4CEA0C4CA3EB0C02D7
:1046000022EA030212EACC1204BF51F8043B043040
:10461000F4D0C2F1000102EA0102B2FA82F2C2F160
:104620001F0200EBD2007047746F6F206C617267DD
:104630006520776964746800746F6F206C617267BD
:104640006520707265636973696F6E00302E30008B
:104650002D00200045002E00756334682D626F6FB9
:0C466000746C6F61646572004300000020
:08466C0060F1FF7F0100000076
:1046740000A24A040000000000000000010203043C
:10468400060708096F6C6C69772E65752E00247611
:10469400656E646F723A00000000000000000000C4
:1046A40000000000000024000000000000000000E2
:1046B400000000002C03002094030020FC030020D1
:1046C40000000000000000000000000000000000E6
:1046D40000000000000000000000000000000000D6
:1046E4000000000068460008000000000000000010
:1046F40000000000000000000000000000000000B6
:1047040000000000000000000000000000000000A5
:104714000000000000000000000000000000000095
:104724000000000000000000000000000000000085
:104734000000000000000000000000000000000075
:104744000000000000000000000000000000000065
:104754000000000000000000010000000000000054
:104764000E33CDAB34126DE6ECDE05000B00000019
:104774000000000000000000000000000000000035
:104784000000000000000000000000000000000025
:104794000000000000000000000000000000000015
:1047A4000000000000000000000000000000000005
:0C4AD40000000000000000004000002076
:0400000508000000EF
:00000001FF
