:020000040800F2
:1000000088480020B1020008AD020008AD020008D7
:10001000AD020008AD020008AD02000800000000BB
:10002000000000000000000000000000AD02000819
:10003000AD02000800000000AD02000879080008C9
:10004000AD020008AD020008AD020008AD020008D4
:10005000AD020008AD020008AD020008AD020008C4
:10006000AD020008AD020008AD020008AD020008B4
:10007000AD020008AD020008AD020008AD020008A4
:10008000AD020008AD020008AD020008AD02000894
:100090002D120008C9120008AD020008AD020008C8
:1000A000AD020008AD020008AD020008AD02000874
:1000B000AD020008AD020008AD020008AD02000864
:1000C000AD020008AD020008AD020008AD02000854
:1000D000AD0200084D090008AD020008AD0200089D
:1000E000AD020008AD020008AD02000800000000EB
:1000F0000000000000000000000000000000000000
:1001000000000000000000005FF808F1224A0388A8
:1001100090429BB212D002F5006290420ED0B0F134
:10012000804F0BD0A2F59832904207D002F5806242
:10013000904203D002F58062904203D14A8823F0B6
:1001400070031343154A904208D002F58062904232
:100150001FBF23F44073CA889BB2134303808B886C
:1001600083850B8803850C4B98420FD003F5006301
:1001700098420BD003F54063984207D003F58063A3
:10018000984203D003F58063984201D10B7A03862D
:1001900001238382704700BF002C01400010004003
:1001A000038819B19BB243F0010303E023F001037C
:1001B0001B041B0C03807047384B82B01A6842F056
:1001C00001021A605968364A0A405A601A6822F0D9
:1001D000847222F480321A601A6822F480221A6033
:1001E0005A6822F4FE025A604FF41F029A600022FD
:1001F000009201921A6842F480321A601A6802F47E
:1002000000320192009A01320092019A1AB9009AC2
:10021000B2F5A06FF2D11A6812F4003218BF0122B1
:100220000192019A012A05D01E4B4FF000629A609C
:1002300002B070471C4A116841F01001116011684A
:1002400021F003011160116841F0020111605A6848
:100250005A605A685A605A6842F480625A605A6812
:1002600022F47C125A605A6842F4E8125A601A6802
:1002700042F080721A601968084A8901FBD55168FA
:1002800021F003015160516841F0020151605A6848
:1002900002F00C02082AFAD1C6E700BF00100240A3
:1002A0000000FFF800ED00E000200240FEE7000043
:1002B00008B50C4A0C4B0D498B4204D252F8040F7E
:1002C00043F8040BF8E70A480A494FF00002884255
:1002D000B8BF40F8042BFADBFFF76EFFBDE808401B
:1002E00001F000BE60220008000000205C04002035
:1002F000600400208844002043690AB1194301E0EA
:1003000023EA010141617047B1F5807F35D00CD8F7
:10031000082924D004D801291CD004291DD07047F5
:1003200020291FD040291FD07047B1F5006F22D07F
:1003300006D8B1F5007F20D0B1F5806F1DD0704791
:10034000B1F5803F13D0B1F5003F12D0B1F5004FA9
:1003500015D110E00A4B83607047082300E010239A
:10036000C3607047082300E010230361704708232F
:1003700004E0102302E000238361042343607047FC
:1003800001010100CA782DE9F041D40648BF8C78FC
:100390000E8802F00F0348BF234316F0FF0F1ED054
:1003A000016800244FF0010E4FF00F0C0EFA04F715
:1003B00037EA06050FD1A5000CFA05F821EA080175
:1003C00003FA05F5282A41EA050101D1476102E057
:1003D000482A08BF07610134082CE7D10160FF2ECD
:1003E00020D9416800244FF0010E4FF00F0C04F1AA
:1003F00008050EFA05F535EA06070FD1A7000CFA35
:1004000007F821EA080103FA07F7282A41EA070159
:1004100001D1456102E0482A08BF05610134082C7A
:10042000E5D14160BDE8F0810AB1016170474161E9
:10043000704700001C4A10B5536803F00C03042BEE
:1004400001D0082B01D0194B0EE053685168C3F35B
:100450008343CC0303F1020302D55168890301D51C
:10046000134900E011494B43036053681149C3F33A
:100470000313CC5C0368E34043605468C4F3022474
:100480000C5D23FA04F484605468C4F3C2240C5D48
:10049000E340C3605268C2F381320A44127CB3FB6A
:1004A000F2F3036110BD00BF0010024000127A0099
:1004B00000093D0014000020044B9A6909B1104363
:1004C00001E022EA00009861704700BF001002407E
:1004D000044BDA6909B1104301E022EA0000D86157
:1004E000704700BF0010024070B50E460446038AF4
:1004F000CA889BB223F440531343038282898988BC
:10050000338992B20B43718922F4B0520B4322F02B
:100510000C0213439BB28381838AB2899BB223F47A
:10052000407386B01343838201A8FFF783FF174A05
:10053000039B049D3168944218BF1D4619226A43EB
:10054000A389642613F4004F14BF4D008D00B2FB45
:10055000F5F5B5FBF6F0A28900010109120406FBCE
:10056000115307D5D9003231B1FBF6F202F0070280
:10057000104306E01A013232B2FBF6F303F00F0328
:10058000184380B2208106B070BD00BF0038014022
:100590004B8810B50C88028A23438C88C98892B294
:1005A00023430B4322F4706213439BB2038210BDBA
:1005B0000023038043808380C3807047838919B1FF
:1005C0009BB243F4005303E023F400531B041B0CC1
:1005D00083817047012310B5C1F342149C4201F09E
:1005E0001F0103FA01F101D10C3003E0022C0CBF12
:1005F0001030143003680AB1194301E023EA010105
:10060000016010BD090A012303FA01F1C94389B24F
:1006100001807047C27810B503780AB3164A03F117
:100620006043D1684278C943C1F30221C1F1040497
:1006300002FA04F40F22CA40817803F561430A40AC
:1006400022431201D2B283F8002303780122590910
:1006500003F01F0302FA03F3084A42F8213010BDE9
:100660005A09012103F01F0301FA03F30349203261
:1006700041F8223010BD00BF00ED00E000E100E0D5
:10068000410746BFC30843F00043430D820748BFFC
:1006900043F0804318467047094B9A6912F0700F77
:1006A0000DD000229A61074A516801315160127FD2
:1006B00012B99B695B0702D5034A014B9A607047E8
:1006C00000640040600400208080800010B5074C6A
:1006D00040F225512046FFF795FF2046BDE8104027
:1006E000012240F22551FFF775BF00BF00380140DD
:1006F00010B50E4C3823E360204623610221FFF73A
:1007000003FE20461021FFF7FFFD094A0023138056
:10071000084A2046138002210122FFF7EDFD204602
:10072000BDE8104001221021FFF7E6BD0064004043
:100730009C040020A004002000EB80004300184629
:100740000138FDD87047000070B50C46464E1C229B
:1007500005460021304601F00FFCA21E53425341D2
:100760003377424B00225A611A684FF47A7622F0AE
:1007700002021A601A6842F001021A601A465368AF
:100780003A49DB070BD44FF47A70FFF7D5FF013EEF
:10079000F5D14FF400430B606FF47A7070BD6123A4
:1007A0000B60EA886B88013A013B12061B0403F4D4
:1007B000702302F040721A432B88012C03F1FF339F
:1007C000C3F3090342EA0302AB8803F1FF334FEAA4
:1007D000035303F4E00343EA02030CBF4FF000426B
:1007E0000022032C43EA02030CBF4FF08042002298
:1007F0001343CB610B684FF47A7423F001030B6051
:1008000048681A4A10F001000AD04FF47A70FFF7D6
:1008100093FF013CF4D14FF400431360144870BDC2
:10082000D2F8003223F47C5323F00E0343F46063C8
:1008300043F00103C2F800326FF07043C2F80402C3
:10084000C2F80C320B4BC2F814320123C2F840023A
:10085000C2F84402C2F81C32D2F8003223F001037D
:10086000C2F8003270BD00BF600400200064004088
:1008700016FCFFFFAAAAAA0A034B0122DA831A6A0E
:1008800001321A62704700BF600400200B4B002148
:10089000D98319620A4B0B4A1B68F020B3FBF2F3B1
:1008A0004FF47A725343084A013B5360074B83F875
:1008B0002300072391601360704700BF600400208D
:1008C0000000002040420F0010E000E000ED00E0DA
:1008D0001FB501214FF40060FFF7EEFD0023ADF8D6
:1008E0000A30ADF806304FF6FF73ADF80830094B0B
:1008F000094A1B68094CB3FBF2F304A9013B21F838
:100900000C3D2046FFF702FC01212046FFF748FC82
:1009100004B010BD0000002040420F00002C014038
:1009200008B50120FFF7D4FF064B00219A8C064B37
:1009300092B21960002000219A80C3E902011A8254
:1009400008BD00BF002C014028050020194B10B540
:10095000198889B28A060FD5174C18489A882388B7
:1009600000880133C3F30B0380B2834292B21FBFEE
:100970001348D2B2C25423800B061AD5114B124A27
:100980001988138889B29BB299420BD0138801331E
:10099000C3F30B03138013880C4A9BB2D35C054A44
:1009A000938010BD034A938923F080031B041B0C22
:1009B000938110BD00380140240500202605002049
:1009C000882400209E0400206A240020883400200F
:1009D000044B1888044B80B21B889BB2C01A18BF06
:1009E00001207047240500202605002010B5094885
:1009F000094C2188038889B29BB29942054AF8D0F4
:100A000013880133C3F30B0313801388034A9BB28B
:100A1000D05C10BD2605002024050020882400207D
:100A20001FB5002300900C2269460848ADF8043039
:100A3000ADF80630ADF80830ADF80A20ADF80C304E
:100A4000FFF752FD05B05DF804FB00BF0038014020
:100A50007FB5324C012144F20500FFF72DFD4FF424
:100A60000073ADF8003003251823694620468DF841
:100A700003308DF80250FFF785FC4FF48063694620
:100A8000ADF800302046482304F540548DF803307B
:100A90008DF80250FFF776FC02A8FFF789FD02A946
:100AA0002046FFF775FD1E48FFF7BAFF25238DF896
:100AB000043001260F2301A88DF805308DF806308B
:100AC0008DF80760FFF7A6FD0022204640F227714F
:100AD000FFF780FD204640F22771FFF793FD204687
:100AE00040F22661FFF78EFD0E4B00251D800E4B58
:100AF0002A46204640F225511D80FFF76BFD204617
:100B000040F22551FFF77EFD084B31461D80084B12
:100B100020461D80FFF752FD04B070BD0008014063
:100B200040420F006A2400209E0400202605002079
:100B30002405002008B5FFF78BFFBDE80840FFF74C
:100B4000C5BD00002DE9F341054600287DD00468AD
:100B500014F000547CD1FFF79FFD3F4B9A6802F0E0
:100B6000E052B2F1E05F51D09A682646C2F380624B
:100B70008DF804209A689B68C2F3C062C3F30073C7
:100B80008DF805208DF80630FF2401ABF35C0BB126
:100B9000F4B234E0330103F1804303F5CB4318682A
:100BA000FFF76EFD2F684FEAD07C4FEAD778E0451B
:100BB00027F0604320F0604207F0004E00F0004153
:100BC00010D0BEF1000F00D09B0C19B1900C9842D0
:100BD00015D002E09A4217D0104683422CBF002065
:100BE00001200BE0934205D1C0F38070C7F38077FA
:100BF000874203D193422CBF0020012020B101364F
:100C0000032EC2D1FF2C01D1002022E023012A7C37
:100C100003F1804303F5CB435A60EA682968DA6040
:100C2000AA6800299A60BABFCA0042F004024A05C5
:100C3000490048BF42F0020242F001021A60074A2E
:100C4000012053690133536103E06FF0010000E0BC
:100C5000034802B0BDE8F081006400406004002059
:100C600015FCFFFF2DE9F041037886B0542B00F00E
:100C7000DF80722B00F0D980522B03D0002006B009
:100C8000BDE8F0814FF040424178A1F13004E5B277
:100C9000092D00F2C28042EA047C8278A2F130037E
:100CA000D9B2092906D9A2F16103052B00F2E68029
:100CB000A2F157031B06C178A1F13002D4B2092C6E
:100CC00006D9A1F16102052A00F2CD80A1F15702F7
:100CD0004FEA025E0179A1F13002D4B2092C06D9A3
:100CE000A1F16102052A00F2EF80A1F15702170479
:100CF0004179A1F13002D4B2092C06D9A1F16102E7
:100D0000052A00F2D780A1F1570216038179A1F1DB
:100D10003002D4B2092C06D9A1F16102052A00F2F1
:100D2000DD80A1F157021502C179A1F13002D4B2E0
:100D3000092C06D9A1F16102052A00F28A80A1F1ED
:100D40005702140190F80880A8F13002D1B20929A5
:100D50005CD8114643EA0C0242EA0E023A43437A57
:100D600032432A43303B2243DBB20A43082B009232
:100D700084D88DF810309AB2002B3DD0817AA1F141
:100D80003003DCB2092C56D81B01D9B2C47AA4F1C5
:100D90003003DDB2092D40F2AB80A4F16103052BD5
:100DA00040F20782A4F14103052B00F23A82A4F13C
:100DB00037030B43DBB29DE00B43DBB2082A8DF80F
:100DC0000E3019D1027EA2F13003D9B2092900F206
:100DD000B6811B01DAB2417EA1F13003D8B20928F5
:100DE00006D9A1F16103052B00F2B181A1F15703EE
:100DF0001343DBB28DF80F306846FFF7A3FE0028DF
:100E0000D4BF0020012006B0BDE8F081A8F1610246
:100E1000052A47D8A8F157019CE7A1F16103052BEA
:100E200036D8573942EA017C37E74FF080422BE74A
:100E30004FF0004228E7A1F16103052B40F2B58194
:100E4000A1F14103052B00F2EE8137390B01D9B234
:100E50009CE7A1F14102052A9ABFA1F137021401D2
:100E60004FF47F646EE7A1F14102052A9ABFA1F118
:100E700037024FEA025E4FF07F6E2BE7A2F141038B
:100E8000052B9ABFA2F137031B064FF07F4312E7F1
:100E9000A1F14103052B9ABF373942EA017C4FF09B
:100EA000704CFAE6A8F14102052A94BFA8F1370177
:100EB000FF214FE7A1F14102052A9ABFA1F13702B4
:100EC00016034FF47F2621E7A1F14102052A9ABFBC
:100ED000A1F1370217044FF47F0709E7A1F141029E
:100EE000052A9ABFA1F1370215024FF47F451BE78F
:100EF0000B43DBB2012A8DF808303FF47DAF017B54
:100F0000A1F13003DCB2092C16D81B01D9B2447B05
:100F1000A4F13003DDB2092D1CD9A4F16103052B26
:100F200040F24C81A4F14103052B00F27881A4F139
:100F300037030B43DBB20FE0A1F16103052B40F255
:100F40004281A1F14103052B00F2678137390B0182
:100F5000D9B2DCE70B43DBB2022A8DF809303FF44B
:100F60004BAF817BA1F13003DCB2092C16D81B01F9
:100F7000D9B2C47BA4F13003DDB2092D1CD9A4F190
:100F80006103052B40F22381A4F14103052B00F2FC
:100F90004281A4F137030B43DBB20FE0A1F16103FF
:100FA000052B40F21981A1F14103052B00F231819B
:100FB00037390B01D9B2DCE70B43DBB2032A8DF8DA
:100FC0000A303FF419AF017CA1F13003DCB2092CE7
:100FD00016D81B01D9B2447CA4F13003DDB2092D2F
:100FE0001CD9A4F16103052B40F2FA80A4F141035E
:100FF000052B00F20C81A4F137030B43DBB20FE0A9
:10100000A1F16103052B40F2F080A1F14103052B12
:1010100000F2FB8037390B01D9B2DCE70B43DBB2BE
:10102000042A8DF80B303FF4E7AE817CA1F1300348
:10103000DCB2092C16D81B01D9B2C47CA4F1300350
:10104000DDB2092D1CD9A4F16103052B40F29B8070
:10105000A4F14103052B00F2D680A4F137030B4322
:10106000DBB20FE0A1F16103052B40F29180A1F109
:101070004103052B00F2C58037390B01D9B2DCE7FB
:101080000B43DBB2052A8DF80C303FF4B5AE017D81
:10109000A1F13003DCB2092C15D81B01D9B2447D73
:1010A000A4F13003DDB2092D1AD9A4F16103052B97
:1010B00072D9A4F14103052B00F2A180A4F13703FA
:1010C0000B43DBB20EE0A1F16103052B69D9A1F15D
:1010D0004103052B00F2918037390B01D9B2DEE7CD
:1010E0000B43DBB2062A8DF80D303FF485AE817DCF
:1010F000A1F13003DCB2092C15D81B01D9B2C47D93
:10110000A4F13003DDB2092D7FF656AEA4F16103E0
:10111000052B2FD9A4F14103052B6CD8A4F137037B
:101120000B43DBB24AE6A1F16103052B27D9A1F1FC
:101130004103052B5DD837390B01D9B2DFE7A2F1A6
:101140006103052B0DD8573A1301DAB243E6A1F13A
:101150004103052B9DBFA1F137031343DBB2FF23EE
:1011600048E6A2F14103052B9DBF373A1301DAB2DD
:10117000F02230E6A4F157030B43DBB21EE65739E9
:101180000B01D9B2BBE7A4F157030B43DBB279E7FC
:1011900057390B01D9B250E7A4F157030B43DBB227
:1011A000A0E757390B01D9B279E757390B01D9B20A
:1011B000ECE5A4F157030B43DBB29BE6A4F1570324
:1011C0000B43DBB2C8E657390B01D9B29FE6A4F155
:1011D00057030B43DBB2F1E657390B01D9B2C8E62E
:1011E000A4F157030B43DBB21AE757390B01D9B20D
:1011F000F1E6F02183E7FF23E0E5F0214FE7FF234D
:1012000070E7F02119E7FF233CE7F021E3E6FF2335
:1012100006E7F021ADE6FF23D0E6F02177E6FF23D5
:101220009AE6FF2366E6F021B0E500002DE9F041E3
:10123000204F214A3D8813880135EDB29BB29D4273
:1012400090461E4C1CD01E4EF368DB0642BF23683E
:1012500001332360D6F8B001FFF712FA18236B436D
:101260001849C850CA18D6F8B43103F00F031374E4
:10127000D6F8B8319360D6F8BC31D3603D8002E037
:10128000A3680133A3603B889AB2B8F800309BB2E0
:10129000D31A228A48BF03F580739342C4BF074A1A
:1012A0001382A36938220133A361054BDA60BDE8DC
:1012B000F08100BFA00400209C04002060040020F6
:1012C00000640040200600202DE9F041204F214A13
:1012D0003D8813880135EDB29BB29D4290461E4C6D
:1012E0001CD01E4E3369DB0642BF236801332360E6
:1012F000D6F8C001FFF7C4F918236B431849C8504A
:10130000CA18D6F8C43103F00F031374D6F8C831E5
:101310009360D6F8CC31D3603D8002E0E3680133BE
:10132000E3603B889AB2B8F800309BB2D31A228AA5
:1013300048BF03F580739342C4BF074A1382A36971
:1013400038220133A361054B1A61BDE8F08100BF6B
:10135000A00400209C0400206004002000640040E1
:101360002006002073B5114D01210420FFF7A4F8D9
:101370001024032601A92846ADF804408DF8074043
:101380008DF80660FEF7FEFF01210420FFF794F8B8
:10139000202301A92846ADF804308DF807408DF8C8
:1013A0000660FEF7EFFF02B070BD00BF000801400D
:1013B0002DE9F0430D68BDF81CE06E0040F19D8002
:1013C000002DACBF7224522404700C68002D24F050
:1013D00060440C60C0F29D80C4F30324092C94BFC8
:1013E0003034373444700C684FF0060CC4F30314E7
:1013F000092C94BF3034373484700C68664604F08E
:101400000F04092C94BF04F1300504F137050524BD
:101410002746C5704FF004080D7C303500F80850A1
:101420000D7C002D00F0BA80002400E02F4601EB77
:10143000040898F808607D1C360906F1300C06F1A6
:101440003709092E94BF66464E46C65598F808607F
:10145000ADB206F00F0606F1300C06F13708092E82
:1014600094BF66464646465501340E7CA4B2BD1C68
:10147000A642ADB2DAD80337BEB2B4462C4662B348
:10148000C3F30332092A044494BF30323732227046
:10149000C3F30322092A94BF02F1300402F1370496
:1014A00084448CF80040C3F30314092C05F10201B5
:1014B00094BF04F1300604F13706EA1C2C1D89B2F2
:1014C00005354654AEB2B44603F00F03092B92B271
:1014D00094BF30333733A4B28354BEF1000F05D02C
:1014E000751C4C23035564461FFA85FC0D2200230E
:1014F000025500F80C30BDE8F083002DACBF742419
:10150000542404700C68002D24F060440C60BFF675
:1015100063AF240F30344470CC784FF00B0C04F0E0
:101520000F04092C94BF3034373484700C6866463D
:10153000C4F30354092C94BF30343734C4704C883E
:101540004FF0090804F00F04092C94BF30343734ED
:1015500004710C68C4F30334092C94BF303437345D
:1015600044710C68C4F30324092C94BF303437341D
:1015700084710C68C4F30314092C94BF30343734DD
:10158000C4710C6804F00F04092C94BF04F13005F9
:1015900004F137050A24057227463DE73D466EE70C
:1015A00010B4094B094C0A4900224FF4E1305C6049
:1015B00098601A805A80DA601A825A829A82DA8295
:1015C0001A830A8010BC70476C24002040420F0030
:1015D000201E00204EF66021034AD36801338B425F
:1015E00088BF0023D36070476C2400202DE9F043AE
:1015F0000F46BF4D85B0012104464FF000084FF063
:101600000070A5F80080FEF763FF01210420FEF7BB
:1016100053FF04AE4FF4006326F8083D31464823DB
:101620004FF00309B3488DF80B308DF80A90FEF7A0
:10163000A9FE18224FF480533146AE488DF80A9027
:101640008DF80B20ADF80830FEF79CFEB7F57A7FD9
:10165000C0F0BC80A84BCDF808809F42C6F804803B
:1016600000F2F8804FF0100E72461123A348B0FB31
:10167000F7F0B0FBF3F103FB1103002B00F0F08057
:101680000EF1FF32D2B2531CB0FBF3F103FB110396
:10169000002B00F0E480AEF10202D2B2531CB0FB8A
:1016A000F3F103FB1103002B00F0D980AEF103022C
:1016B000D2B2531CB0FBF3F103FB1103002B00F07B
:1016C000CE80AEF10402D2B2531CB0FBF3F103FBA7
:1016D0001103002B00F0C380AEF10502D2B2531CFF
:1016E000B0FBF3F103FB1103002B00F0B880AEF167
:1016F0000602D2B2531CB0FBF3F103FB1103002B23
:1017000000F0AD80AEF10702D2B2531CB0FBF3F192
:1017100003FB1103002B00F0A280022A56D0AEF189
:101720000802D2B2531CB0FBF3F103FB1103002BF0
:1017300000F09580022A49D0AEF10902D2B2531CC2
:10174000B0FBF3F103FB1103002B00F08880022AA9
:101750003CD0AEF10A02D2B2531CB0FBF3F103FB52
:101760001103002B7BD0022A30D0AEF10B02D2B293
:10177000531CB0FBF3F103FB1103002B6FD0022AC3
:1017800024D0AEF10C02D2B2531CB0FBF3F103FB38
:101790001103002B63D0022A18D0AEF10D0E5FFAB0
:1017A0008EFE0EF10103B0FBF3F103FB1103724651
:1017B000002B55D0BEF1020F08D05149A1FB0031DA
:1017C000490801EB4103984200F08D80032C00F2A0
:1017D0008680BDF80830013B9BB2B3F5806F7ED2A6
:1017E000BDF80E30013B9BB2032B78D8BDF80A3010
:1017F000013B9BB20F2B72D8BDF80C30013B9BB262
:10180000072B6CD830462146FEF79EFF002866DB8A
:101810003C4B04AF47F80C3D3846A4F10304FEF7F7
:10182000F9FE0126002338461522B4FA84F48DF817
:1018300004208DF805308DF806308DF80760FEF72E
:10184000E9FEFEF755FF304664092E806C8005B036
:10185000BDE8F0834FF0090E72460A2306E796466C
:101860004B1EB3F5806FB1D2C2EBC202D31CDB10AA
:1018700003F101094FF47A70DBB200FB09FCC3EB02
:101880000E085FFA88F808EB09009CFBF0F080B2C4
:10189000B0F5617FC2BF02F1FF32C2F3C703C3EBF1
:1018A0000E0E03F1FF32C8BF5FFA8EF80F2A8DD8F3
:1018B00008F1FF32072A89D803EB080202FB011066
:1018C0000E4AB2FBF0F2974280D10122ADF8081027
:1018D000ADF80A30ADF80C80ADF80E2076E70020A8
:1018E00005B0BDE8F0834FF0020E7246B8E700BFC6
:1018F0006C240020000801403F420F0000512502E7
:10190000ABAAAAAA140000012DE9F04F334F344DC1
:1019100089B03E46A84640241DE0B6F80090314B01
:1019200009F101095FFA89F909EB490E0DF1080C7B
:1019300003EBCE0EBEE80F00ACE80F009EE80300FC
:101940002B88A6F800908CE8030083B9013C19238A
:10195000A4B22B8344B1FEF79FFE234B1A883B8829
:1019600092B29BB29A42D8D109B0BDE8F08FDFF8AD
:101970007C90B8F802E0D8F80C30B8F8102002A932
:101980004846CDF800E0FFF713FD99F80010002954
:10199000DCD0DFF85CC04846E246DFF85890DFF85C
:1019A00058B0DFF858E0BCF80030B9F80020013337
:1019B000C3F30B0392B293420AD00BF80310AAF8B8
:1019C0000030BEF80C309BB243F08003AEF80C3010
:1019D00010F8011F0029E6D1B8E700BF9C040020E1
:1019E0006C24002020060020A0040020A204002077
:1019F0009E0400206A240020883400200038014022
:101A0000F0B5A0F120035E2B85B00DD8984A994C13
:101A100011884B1C9BB27F2B6054138044D9002348
:101A20000120138005B0F0BD0D2840D0002005B086
:101A3000F0BD4FF46144904A9049138808880133FF
:101A40008F4FC3F30B0380B200268342BC602E800D
:101A500009D08C4D8C480D26EE54138083899BB29F
:101A600043F08003838172B610880B8880B29BB2EA
:101A700062B69842F7D148F2A06528460138FDD8F1
:101A800000230C22694680480094ADF80A20ADF886
:101A90000430ADF80630ADF80830ADF80C30FEF784
:101AA00023FD28460138FDD8012005B0F0BD704D5A
:101AB000704B2A88002199541C78542C38D0742CEF
:101AC00000F07B81522C33D0722C00F07681A4F18F
:101AD00043022A2A31D8DFE812F007013000300033
:101AE0003C0130003000300030003000FE004F007C
:101AF0005E00F500300030003000DF003000AD0047
:101B0000A000300030003000940030003000300081
:101B10003000300030003000300030003000300045
:101B20003000300030003000300030008C004F00BA
:101B3000534B1B88002B40F06B814F4900234F4AC9
:101B40002B800B8812880133C3F30B0392B29342AC
:101B5000AAD04C4807244C4AC4540B8093890120D6
:101B60009BB243F08003938161E7484BA0F57A7202
:101B70009A42E2D8424B58603F49404A0B8812884B
:101B80000133C3F30B0392B20020934228808BD021
:101B90003C480D24DFE73E4F4E223E461A7007CEEA
:101BA000C3F8010038683B4EC3F80D000D27002034
:101BB000B26071605F7498742F4A002396462B8040
:101BC0002E492C4D2F4F304E138808880133C3F314
:101BD0000B0380B2834207D0FC54AEF80030B389C7
:101BE0009BB243F08003B38115F8014F002CEBD179
:101BF0005AE7234B03205968FFF7F8FC00289CD0D4
:101C0000BAE75B78A3F13002012A96D8A3F131023A
:101C1000534253411A4A1382AEE7302256273826E0
:101C20000D2000211F705A709A70DA701E71587161
:101C30009971C1E75B78303B092B3FF67EAF1548C1
:101C400000F096F90446062800F2088101A353F833
:101C500020F000BF9D1D0008971D0008331A0008E2
:101C6000B51D0008AF1D0008A91D0008A31D000830
:101C7000201E0020A00500209E0400206A240020D1
:101C80006C2400208834002000380140583E0F00AA
:101C9000E8F7FF1FA10500205B78303B092B3FF6DA
:101CA0004CAF7C4800F064F908283FF65EAFDFE8EF
:101CB00010F0DC00EE00EB00E900E700E500E300D7
:101CC000E100DF00744B00205968FFF78FFC00280B
:101CD0003FF433AF50E7704B01205968FFF786FCA3
:101CE00000283FF42AAF47E76C4C0022204602212F
:101CF000FEF702FB002220461021FEF7FDFA2046E7
:101D00000221FEF701FB20461021FEF7FDFA04AE8A
:101D100038234FF400626248E360624F236126F883
:101D2000102D002404220323048031465E488DF8E0
:101D300003208DF802303C80FEF724FB4FF48053E3
:101D400031465948ADF80030FEF71CFB524B1C8061
:101D500012E7514946204A8A8F8A002AC98A15BF4C
:101D60002822202208260026002F08BF324618709D
:101D700009B142F08002D2B21109092994BF303171
:101D8000373102F00F02597030320D2000219A7065
:101D9000D870197110E74FF4E1344CE64FF4613418
:101DA00049E64FF4166446E64FF4165443E64FF402
:101DB000964440E64FF416443DE6374B1B88002B13
:101DC0003FF4BBAE3948FEF74DFF00283FF4B5AEF7
:101DD000374A002317462B80364C3749374E384D4B
:101DE0004FF07A0E138808880133C3F30B0380B2D7
:101DF000834207D006F803E03B80AB899BB243F0F7
:101E00008003AB8114F801EFBEF1000FEAD14BE67D
:101E10002648FEF727FF00283FF48FAE244A002310
:101E200017462B80274C2449244E254D4FF05A0E3F
:101E3000138808880133C3F30B0380B2834207D0B1
:101E400006F803E03B80AB899BB243F08003AB8193
:101E500014F801EFBEF1000FEAD125E61A4BA0F508
:101E600096629A423FF669AEE5E542F2107081E66D
:101E700016487FE616487DE616487BE6164879E662
:101E8000164877E6164875E64CF2503072E644F68E
:101E900020606FE6A10500206C2400200064004053
:101EA0009C040020A004002000080140A0050020A0
:101EB0009E040020582100086A2400208834002055
:101EC000003801405421000810C22D0040420F008C
:101ED00000350C0020A1070090D0030048E8010065
:101EE000A0860100F8B51F4DFFF73CFA2F46FEF71C
:101EF000CDFCFEF715FDFEF71DFEFFF751FB1A4E58
:101F000000241A4AD38B9BB20BB30023D38314B1A2
:101F1000013CA4B201E040F2F314FFF75BFB34B9DB
:101F2000F368DB4303F0100343F4801333612B8B1E
:101F30000BB1013B2B833A8B2AB1012220210A48A5
:101F4000FEF772FA03E020210748FEF76DFAFFF76B
:101F5000DBFCFEF73DFD0028D3D0FEF747FDFFF781
:101F60004FFDCEE76C2400200008014060040020F3
:101F70000A22002100F0E2B870B4840746D0541E53
:101F8000002A41D0CDB2034602E0621EE4B31446FB
:101F900003F8015B9A07F8D1032C2ED9CDB245EA9C
:101FA00005250F2C45EA054519D9264603F11002EF
:101FB000103E0F2E42F8105C42F80C5C42F8085CB0
:101FC00042F8045C02F11002F2D8A4F1100222F0EF
:101FD0000F0204F00F041032032C13440DD91E46D7
:101FE0002246043A032A46F8045BFAD8221F22F05C
:101FF00003020432134404F003042CB1C9B21C449C
:1020000003F8011BA342FBD170BC70471446034682
:10201000C2E700BF2DE9F04F474C83460E46D4F887
:1020200000E000E02646344614F8015B0EEB0500A4
:10203000407800F0080000F0FF080028F2D12D2DB4
:102040005CD02B2D04BF7578B41C002B3ED0102B18
:1020500060D09A46B8F1000F0CBF6FF000404FF00F
:102060000040B0FBFAF90027BC460AFB19000CE05F
:10207000303DAB4219DD7E1C05D0CC4523D820D0A5
:102080000AFB0C5C012714F8015B0EEB0506767861
:1020900016F0040FECD116F0030606D0012E14BF83
:1020A00057263726AD1BAB42E5DC7B1C16D0B8F1BA
:1020B000000F10D16046002A39D0DFB91160BDE8A9
:1020C000F08F8542DCDD4FF0FF37DCE7302D1AD092
:1020D0000A239A46BEE7CCF1000CEBE7B8F1000FFB
:1020E0004FF022030CBF6FF000404FF00040CBF8E0
:1020F0000030F2B1611E1160BDE8F08FB41C75783C
:102100004FF00108A1E7237803F0DF03582B08D034
:1021100008239EE7302D9CD1207800F0DF0058285E
:1021200097D14FF0100A65785346023492E7BDE824
:10213000F08FBDE8F08F00BF2800002010B4044CE1
:1021400013460A460146206810BCFFF763BF00BF74
:10215000580400205A0D00007A0D000000202020B5
:102160002020202020202828282828202020202047
:102170002020202020202020202020202088101017
:102180001010101010101010101010101004040473
:102190000404040404040410101010101010414131
:1021A000414141410101010101010101010101011F
:1021B0000101010101010101101010101010424233
:1021C00042424242020202020202020202020202EF
:1021D000020202020202020210101010200000008F
:1021E00000000000000000000000000000000000EF
:1021F00000000000000000000000000000000000DF
:1022000000000000000000000000000000000000CE
:1022100000000000000000000000000000000000BE
:1022200000000000000000000000000000000000AE
:10223000000000000000000000000000000000009E
:10224000000000000000000000000000000000008E
:10225000000000000000000000000000000000007E
:042260004300000037
:1022640000A24A0400000000000000000102030470
:102274000607080900000000010203040102030428
:1022840006070809020406085C2100080000000093
:10229400000000001C03002084030020EC03002045
:1022A400000000000000000000000000000000002A
:1022B400000000000000000000000000000000001A
:1022C4000000000060220008000000000000000080
:1022D40000000000000000000000000000000000FA
:1022E40000000000000000000000000000000000EA
:1022F40000000000000000000000000000000000DA
:1023040000000000000000000000000000000000C9
:1023140000000000000000000000000000000000B9
:1023240000000000000000000000000000000000A9
:102334000000000000000000010000000000000098
:102344000E33CDAB34126DE6ECDE05000B0000005D
:102354000000000000000000000000000000000079
:102364000000000000000000000000000000000069
:102374000000000000000000000000000000000059
:102384000000000000000000000000000000000049
:0C26B400000000000000000030000020CA
:0400000508000000EF
:00000001FF
