:020000040800F2
:10000000702100203D100008391000083910000848
:1000100039100008391000083910000800000000ED
:10002000000000000000000000000000391000087F
:1000300039100008000000003910000839130008CA
:10004000391000083910000839100008391000086C
:10005000391000083910000839100008391000085C
:10006000391000083910000839100008391000084C
:10007000391000083910000839100008391000083C
:10008000391000083910000839100008391000082C
:1000900035170008D117000839100008391000087A
:1000A000391000083910000839100008391000080C
:1000B00039100008391000083910000839100008FC
:1000C00039100008391000083910000839100008EC
:1000D00039100008391000083910000839100008DC
:1000E000391000083910000839100008000000001D
:1000F0000000000000000000000000000000000000
:1001000000000000000000005FF808F1224A0388A8
:1001100090429BB212D002F5006290420ED0B0F134
:10012000804F0BD0A2F59832904207D002F5806242
:10013000904203D002F58062904203D14A8823F0B6
:1001400070031343154A904208D002F58062904232
:100150001FBF23F44073CA889BB2134303808B886C
:1001600083850B8803850C4B98420FD003F5006301
:1001700098420BD003F54063984207D003F58063A3
:10018000984203D003F58063984201D10B7A03862D
:1001900001238382704700BF002C01400010004003
:1001A000038C70B523F001031B041B0C0384028C29
:1001B0008688038B0D8823F073031B041B0C1D43DF
:1001C00022F002020C894B881204120C23431343C1
:1001D000144AB6B290429BB20FD002F50062904230
:1001E0000BD002F54062904207D002F58062904247
:1001F00003D002F5806290420ED14C8923F00803AF
:100200001C438B8824F0040426F4407223438E8917
:10021000CC893443224396B2CA888680058382867D
:10022000038470BD002C0140038819B19BB243F0D8
:10023000010303E023F001031B041B0C0380704740
:1002400083899BB20AB1194301E023EA010181814C
:1002500070470000384B82B01A6842F001021A6001
:100260005968364A0A405A601A6822F0847222F4A9
:1002700080321A601A6822F480221A605A6822F4C6
:10028000FE025A604FF41F029A600022009201920F
:100290001A6842F480321A601A6802F4003201923D
:1002A000009A01320092019A1AB9009AB2F5A06F31
:1002B000F2D11A6812F4003218BF01220192019A99
:1002C000012A05D01E4B4FF000629A6002B07047C1
:1002D0001C4A116841F010011160116821F00301FE
:1002E0001160116841F0020111605A685A605A6841
:1002F0005A605A6842F480625A605A6822F47C124A
:100300005A605A6842F4E8125A601A6842F08072E1
:100310001A601968084A8901FBD5516821F0030168
:100320005160516841F0020151605A6802F00C02BC
:10033000082AFAD1C6E700BF001002400000FFF80B
:1003400000ED00E0002002402DE9F047089D01F09B
:1003500007044FEAD508224405F007054FF47F490A
:1003600000EBD100944227D005F0070604F0070AFD
:10037000B245D44638BFB446CCF10801C4EB020CF8
:100380008C4528BF8C46E708C75D29FA0CFE08EBB0
:10039000D50107FA0AF75FFA8EFE4EFA06FE47FA13
:1003A00006F65F5C06EA0E0627EA0E0E46EA0E0621
:1003B0005E5464446544D5E7BDE8F08702460068B2
:1003C00048B1036811891360D38801339BB2994205
:1003D000D38038BF1381704770B504460D4688B08E
:1003E00020220021684602F0D1FF20460495FFF745
:1003F000E5FF054658B16B46044608AE1A4603CAE7
:10040000B24220606160134604F10804F6D1284628
:1004100008B070BD2DE9F0410568DDB18E68A846D1
:1004200026F06047BB0C4FEAD67EC6F3807C2A4696
:1004300037EA260628BF1E469368BEEBD37F23F01B
:1004400060440ED0002B08DAA40CB44207D19542C8
:1004500013D10D600160BDE8F081B44212D0A64214
:1004600006E0A74203D1C3F380739C4503D1A742A2
:100470002CBF002301232BB1E9E7C8F800100A6064
:10048000BDE8F0811368904613B91160BDE8F081B2
:100490001A46D1E7F8B506460F464FF6FF74002519
:1004A0002A463046394602F053FDC0B284EA0024A1
:1004B000082314F4004F4FEA4404A4B21CBF84F490
:1004C000815484F00104013BF3D10835402DE7D17C
:1004D0002046F8BD10B54B6843B1C4681A681C606B
:1004E000C360438A013B43824A60F4E70A8B0020E1
:1004F00063F309020A83002110BD0A44914211D01E
:1005000011F8013B80EA0320082310F4004F4FEA62
:10051000400080B21CBF80F4815080F00100013B9C
:10052000F3D1EBE770472DE9F04F85B081468DE8B8
:100530000A00BDF83C409346002A7DD024B10E9BB2
:10054000002B79D0072C27D809F10C00FFF736FFD4
:10055000054610B96FF0020070E02022002102F081
:1005600015FF22460E9905F1100002F099FE631C5A
:100570002B769BF800302C4403F01F0363F03F03FD
:100580002374009B09F11C0043F00043AB60294633
:10059000FFF740FF012051E04FF000084646454676
:1005A000019B4FF0800A1B0A029300F10C03039396
:1005B0000398FFF703FF07460028CBD02022002135
:1005C00002F0E4FE3EB99DF8043002223B749DF82F
:1005D00008307B740BE0002209E00E9BB918013251
:1005E000985DD2B20136072A0874B6B201D0B4427F
:1005F000F3D8A64208BF4FF0400A9BF80010B81885
:1006000001F01F0141EA481141EA0A030374009B0B
:10061000013243F00043BB603A76394609F11C00D1
:10062000FFF7F8FEA64205F1010588F001084FF03A
:10063000000ABDD1284601E06FF0010005B0BDE819
:10064000F08F2DE9F04717460A8B9946C2F309024D
:10065000C2F10603002B0646884618DD00201FFA6B
:1006600089F185B253199BB2052B09D9A9420FD83C
:10067000B8F818300A4462F30903A8F818306BE0A0
:10068000A942F3D93C5C43449C760130E9E700255C
:10069000911F1C23B1FBF3FA03FB1A1AD8F804408C
:1006A0005FFA8AF10CB1012329E03046FFF786FE9C
:1006B000044608B100230360C8F80440CCB96FF0C9
:1006C0000200BDE8F0874A44063A1C20B2FBF0F273
:1006D0000132D2B293420DD2BAF1000F0AD13046A4
:1006E000FFF76CFE08B1C0F800A020600028E6D03B
:1006F000044600211FFA89F94FF0000A11E0206832
:100700000028E0D00133DBB20446F8E7A318013239
:10071000785D92B201351C2A1871ADB205D0A94599
:10072000F4D84D450FD28AB2F0E7A945F9D9304641
:10073000FFF744FE08B1C0F800A020600028BED03A
:1007400004460021EDE7B8F81820C2F309039944E4
:1007500069F30902A8F818200120BDE8F087F8B570
:10076000044616460D46242200211F4602F00EFEC6
:10077000069B72096360079B002023624FF6FF739C
:100780009A4228BF1A4629460346A760207097B2AE
:1007900004F10C06934204D0316001330E4620313F
:1007A000F8E70023336027826382A382F8BD0378D1
:1007B0001BB94BB2002BC8BF01707047007870475F
:1007C0002DE9F7430D9F8046BDF828400B9E9DF80C
:1007D0003090BDF838500FB9002D3FD1B9F11F0F3F
:1007E0003CD898F80010A9B9072D34D834F0030389
:1007F00034D12A4639464FF6FF70FFF77EFE47F6A2
:10080000FE73240204F4407444EA0964034044EA99
:1008100043240FE041EA0421072D41EA096409D984
:1008200019461046FFF736FE2A463946FFF765FEA1
:10083000034601E04FF6FF730195009732462146CB
:100840004046FFF770FE33780133DBB21F2B88BFC1
:100850000023337004E06FF0030001E06FF001004B
:1008600003B0BDE8F0832DE9F7430E9F81460C46A7
:10087000104619460B9D9DF830209DF83480BDF838
:100880003C6007B976BB1F2A2CD899F8003063B3B7
:1008900043F0800343EA04239DF8284043EAC83329
:1008A00043EA0443072E43EA026407D9FFF7F2FD47
:1008B00032463946FFF721FE034601E04FF6FF734B
:1008C000019600972A4621464846FFF72CFEB8F1CC
:1008D000010F0CD12B780133DBB21F2B88BF002313
:1008E0002B7004E06FF0010001E06FF0030003B033
:1008F000BDE8F083C06900B108307047C3691A6869
:10090000C261C2681A60C360438A013B4382704778
:100910002DE9F047D0F818A0054616461F46544664
:10092000DFF868804FF00009002C2CD0D4E90223B6
:10093000B21A67EB0303994508BF904520D2AB6913
:1009400021469C4228460DD1FFF7C4FDAB691B68C8
:10095000AB61EB6823606B8AEC60AC69013B6B8236
:10096000A246E1E7FFF7B6FD2368CAF80030EB685E
:1009700023606B8AEC60013B6B82DAF80040D3E7BE
:10098000A2462468D0E7BDE8F08700BF80841E003F
:100990002DE9F04F8BB00E4614460793149F824604
:1009A000002800F0FF80002F00F0FC80531E3F2B3A
:1009B00000F2F880012A03D1079B002B40F0F2805F
:1009C000BAF814500023ED00AE420893099301D306
:1009D000002505E133199D42DAF80C303ABFAD1B12
:1009E000EDB225461BB9DAF81030002B61D02F2E5E
:1009F00015D8C6F13008A84528BFA84600230093A3
:100A00005FFA88FB4246314608ABDAF808004644F4
:100A1000CBEB0508FFF798FC5FFA88F802E0A846E0
:100A20004FF0000BBAF81430302103F10053063BAD
:100A3000DB000493DAF80C300393039B6BB3B8F13B
:100A4000000F2AD0049BE02B28BFE02306930B4421
:100A5000B342059318D9C6EB0309C84538BFC14650
:100A6000039828BF5FFA89F9CDF800B0711A08AB76
:100A70004A460430FFF768FCCB44C9EB08084E44F3
:100A80005FFA8BFB5FFA88F8049B069A05999B1A1C
:100A90000493039B1B680393CFE7DAF8100080B13F
:100AA000B8F1000F0DD0CDF800B008AB4246711A76
:100AB00005E02A4631460093DAF8080008ABFFF754
:100AC00043FC002D84D066070BD00AAB03EBD401A6
:100AD00011F8082C634203F0070342FA03F301F80C
:100AE000083C082C06D9102C06D9202C8CBF0823D2
:100AF000042302E0012300E00223079A002A57D0D2
:100B0000B4EBC30F56D0082C0ED89DF92020631EDD
:100B100022FA03F3D80760D54FF0FF3303FA04F449
:100B200014438DF8204058E0102C0ED8BDF9202039
:100B3000631E22FA03F3D90743D54FF0FF3303FABC
:100B400004F41443ADF820403BE0202C0CD8089B63
:100B5000621E23FA02F2D20737D54FF0FF3202FAB3
:100B600004F42343089330E0402C1ED0DDE90889CB
:100B7000621E4046494602F0EBF9002100F00100F8
:100B800050EA010324D022460120002102F0ECF9B2
:100B9000404261EB410140EA080041EA0901CDE928
:100BA000080115E06FF001051AE06FF0080517E085
:100BB000012C12D0082C10D9102C02D9202C07D8C7
:100BC00003E0BDF820303B800AE0089B3B6007E073
:100BD000DDE90823C7E9002302E09DF820303B70DF
:100BE00028460BB0BDE8F08F30B5402A85B018D844
:100BF000002A08BF01220024012A0294039401D094
:100C0000082A03D81B788DF808300FE0102A03D883
:100C10001B88ADF8083009E0202A03D81B6802932E
:100C200004E04022D3E90045CDE9024553070BD04B
:100C300004AB03EBD20515F8084C534203F007034D
:100C400004FA03F305F8083C00910346002102A8CA
:100C5000FFF77AFB05B030BD10B5CB6843B1C4686F
:100C60001A681C60C360438A013B4382CA60F4E790
:100C70008B600B618B8210BD2DE9F04FD1F800A085
:100C80008FB0CDE90223CAF3C01204460D4622B14B
:100C9000CAF3C03BCAF3062802E090464FF0020BAD
:100CA000BAF1000F80F2BB812B6813F0C04F40F007
:100CB000B6812B7C002B00F0B281BBF1020F03D078
:100CC0002178414540F0AB810AF07F01C8B2059020
:100CD00012B1CAF3074904E0CAF30F2909B909F0B0
:100CE00003092B444FEA4868059ADE7948EA0B4825
:100CF00048EA8248F30948EA090804932BD0002205
:100D000000230EA961E90823059B676800934A4602
:100D10005B462046B847002800F08181A7694FB99B
:100D2000414604F10C00FFF757FB074688B976E10E
:100D30003F681FB13B699845FAD115E0414604F17F
:100D40000C00FFF749FB0746002800F06881A36903
:100D50003B60A76108E0A769002F00F060813B6954
:100D6000984506D03F68F7E7DDE90601FFF792FBFB
:100D7000F88297F819E006F01F08CEF3840EB8EB5E
:100D80000E0ED7E9022348BF0EF1200E52EA0301EE
:100D9000CAF3046A00F02E81DDE90201801A61EBDA
:100DA00003010B46024600219E48994208BF90422B
:100DB000C0F02081049B5BB3BEF1010F00F31A81E8
:100DC000730625D5DDE902230021C7E9022306A821
:100DD000202202F0DBFADDE90223CDE9062305F14A
:100DE000080308932B7CADF82E90013BDBB2ADF8E5
:100DF0002C309DF814308DF830B08DF833308DF8EC
:100E000031808DF832A0A36806A920469847DEE01D
:100E10007B7EC6F34012B2EBD31F40F00081C3F3D8
:100E20008403434540F0FB80049A2B7CB609002ADA
:100E300033D016F001065ED1032B40F2F080DDE9DD
:100E40000223C7E902232B7C05F10A08033BDBB22E
:100E50004246394604F10C00FFF7F3FB002812DA92
:100E600039462046FFF736FB7B7EC3F3840201320E
:100E700062F386037B763B8B66F309033B831B0A95
:100E800066F3C713B4E06A7A2B7A414643EA022339
:100E9000BB822A7C033AD2B223E066BB05F1080686
:100EA000013BDBB23246394604F10C00FFF7C9FBC7
:100EB000002812DA39462046FFF70CFB7B7EC3F38D
:100EC0008402013262F386037B76049A3B8B62F3E1
:100ED00009033B83049A1B0A88E031462A7C013AC5
:100EE000D2B2F88AFFF709FB7B7EF882C3F3C01207
:100EF00082F001027AE0388B013BC0F3090005283B
:100F0000DBB212D8EE1D0021CAB2934228D90131BA
:100F100000EB010E16F801CF07EB0E02BEF1060F33
:100F200082F819C0CAB2EFD11AE07E68BEB10622BB
:100F3000316811B11C320E46FAE7801A05F1070C30
:100F400000EB010EBEF11B0FCAB209D89A4207D2BC
:100F50001CF8012FB6448EF804200131F0E7324628
:100F6000DDE902019A42CDE9060107F11A01089173
:100F700038BF0832796834BF5219002209910A92A9
:100F80003A8BADF82E90C2F309021344ADF82C3021
:100F90009DF814308DF830B08DF8333000238DF883
:100FA00031808DF832A07B602A7CF88A013A05F105
:100FB0000801FFF7A2FABB8AF882834203D1A36833
:100FC00006A92046984706A92046FFF745FE7B7EE6
:100FD000C3F38402013262F386037B763B8B6FF3AB
:100FE00009033B831B0A6FF3C71301E062F3C713C6
:100FF0007B7614E07B7E394666F386036FF3C71376
:101000007B762046FFF766FA049B002B7FF4D8AE70
:101010007B7EC3F38402013262F38603E8E70FB0FC
:10102000BDE8F08F80841E00034651F8100F8A88B7
:1010300018609A8018467047FEE7000008B50C4A11
:101040000C4B0D498B4204D252F8040F43F8040BA9
:10105000F8E70A480A494FF000028842B8BF40F852
:10106000042BFADBFFF7F6F8BDE8084001F07ABD83
:10107000B0360008000000201400002018000020F6
:101080006C1D002043690AB1194301E023EA010104
:1010900041617047B1F5807F35D00CD8082924D044
:1010A00004D801291CD004291DD0704720291FD045
:1010B00040291FD07047B1F5006F22D006D8B1F596
:1010C000007F20D0B1F5806F1DD07047B1F5803F13
:1010D00013D0B1F5003F12D0B1F5004F15D110E09B
:1010E0000A4B83607047082300E01023C3607047F9
:1010F000082300E0102303617047082304E0102355
:1011000002E0002383610423436070470101010072
:10111000CA782DE9F041D40648BF8C780E8802F0D9
:101120000F0348BF234316F0FF0F1ED001680024B1
:101130004FF0010E4FF00F0C0EFA04F737EA0605D8
:101140000FD1A5000CFA05F821EA080103FA05F50C
:10115000282A41EA050101D1476102E0482A08BF77
:1011600007610134082CE7D10160FF2E20D94168C6
:1011700000244FF0010E4FF00F0C04F108050EFA99
:1011800005F535EA06070FD1A7000CFA07F821EAA2
:10119000080103FA07F7282A41EA070101D145614E
:1011A00002E0482A08BF05610134082CE5D14160FE
:1011B000BDE8F0810AB101617047416170470000EC
:1011C0000028164A30B500F44015B4BFD3695368FF
:1011D000B5F5401F84B206D1556823F0706325F041
:1011E000706555600EE0C20255BF420D0322120128
:1011F000C0F303454CBFAA4004FA02F223EA0203FB
:1012000043F0706319B1420D120194402343034A25
:101210000028B4BFD361536030BD00BF000001405F
:10122000044B5A6909B1104301E022EA00005861F9
:10123000704700BF00100240044B9A6909B1104387
:1012400001E022EA00009861704700BF00100240F0
:10125000044BDA6909B1104301E022EA0000D861C9
:10126000704700BF00100240410746BFC30843F06B
:101270000043430D820748BF43F080431846704740
:10128000094B9A6912F0700F0DD000229A61074A3B
:10129000516801315160127F12B99B695B0702D519
:1012A000034A014B9A607047006400401800002018
:1012B0008080800010B50E4C3823E3602046236107
:1012C0000221FFF7E7FE20461021FFF7E3FE094A5F
:1012D00000231380084A2046138002210122FFF7D1
:1012E000D1FE2046BDE8104001221021FFF7CABE02
:1012F00000640040780200207A02002000EB8000A9
:10130000430018460138FDD87047402808B502460A
:1013100009D8BDE80840C0EB401002EB8000C000D7
:1013200080B2FFF7EBBF4FF47A70FFF7E7FF013AA7
:1013300092B2002AF7D108BD034B0122DA831A6A60
:1013400001321A62704700BF180000200B4B0021C9
:10135000D98319620A4B0B4A1B68F020B3FBF2F3E6
:101360004FF47A725343084A013B5360074B83F8AA
:101370002300072391601360704700BF180000200E
:101380000000002040420F0010E000E000ED00E00F
:101390002DE9F84F254B264D01281CBFAA461D46B6
:1013A000894614462349244A06BF9A4688469046F1
:1013B00001F050FC284601F0C5FC0428074630D156
:1013C0004FF6FF7BB9F1000F08BF4FF47A74013478
:1013D00005F1100624F001043444C5EB0A0AA642C4
:1013E00017D0B9F1000F03D13AF8061089B203E023
:1013F000731B4B4433F8101C594501D10236EEE7FC
:10140000B0450DD9304601F057FC04280746F5D009
:1014100007E04FF01131284601F06AFC074600E072
:10142000802701F021FC3846BDE8F88F00E0010874
:1014300000E40108FFE70108FFE3010810B501F02F
:1014400009FC074801F07EFC0428044603D1054846
:1014500001F078FC044601F007FC204610BD00BFF7
:1014600000E0010800E401080131C1F34F0100234D
:101470009AB291420AD9B3F5FC7F09D0054A1A44C1
:101480005200128820F813200133F1E7042070473E
:101490008020704708F0000438B50A4604460D461F
:1014A00001460020FFF774FFC0B2042801D080B2CB
:1014B00038BD2A4621460120FFF76AFFC0B238BD79
:1014C00038B5164B1D68D3F80044B5F1113F07D16C
:1014D000B4F1113F01D104201DE0621C0ED104E0E3
:1014E0006B1C0BD1B4F1113F08D100221146012031
:1014F000FFF74EFFC0B204280DD1ECE7FFF79EFFC7
:10150000C0B2042807D1013504D1013414BF4020F2
:10151000202000E0402080B238BD00BF00E001087C
:101520001FB501214FF40060FFF786FE0023ADF8E0
:101530000A30ADF806304FF6FF73ADF80830094BAE
:10154000094A1B68094CB3FBF2F304A9013B21F8DB
:101550000C3D2046FEF7DAFD01212046FEF764FE31
:1015600004B010BD0000002040420F00002C0140DC
:1015700030B472B60D4B988C80B262B60C490B8AAF
:10158000D1E90245834204D9013445F10005C1E99E
:1015900002452B04220443EA1443141843F10005C6
:1015A00008822046294630BC704700BF002C01400D
:1015B0008002002008B50120FFF7B2FF064B002192
:1015C0009A8C064B92B21960002000219A80C3E9E0
:1015D00002011A8208BD00BF002C014080020020D9
:1015E00070B504460646044D0FCD0FC495E80700BC
:1015F00084E80700304670BD18000020044B98684E
:1016000000F0E05000F1644358425841704700BF79
:10161000006400402DE9F341054600287DD00468B0
:1016200014F000547CD1FFF72BFE3F4B9A6802F078
:10163000E052B2F1E05F51D09A682646C2F3806270
:101640008DF804209A689B68C2F3C062C3F30073EC
:101650008DF805208DF80630FF2401ABF35C0BB14B
:10166000F4B234E0330103F1804303F5CB4318684F
:10167000FFF7FAFD2F684FEAD07C4FEAD778E045B4
:1016800027F0604320F0604207F0004E00F0004178
:1016900010D0BEF1000F00D09B0C19B1900C9842F5
:1016A00015D002E09A4217D0104683422CBF00208A
:1016B00001200BE0934205D1C0F38070C7F380771F
:1016C000874203D193422CBF0020012020B1013674
:1016D000032EC2D1FF2C01D1002022E023012A7C5D
:1016E00003F1804303F5CB435A60EA682968DA6066
:1016F000AA6800299A60BABFCA0042F004024A05EB
:10170000490048BF42F0020242F001021A60074A53
:10171000012053690133536103E06FF0010000E0E1
:10172000034802B0BDE8F0810064004018000020CA
:1017300015FCFFFF2DE9F041204F214A3D88138819
:10174000013505F03F059BB29D4290461D4C1CD0D3
:101750001D4EF368DB0642BF236801332360D6F8D1
:10176000B001FFF781FD18236B431849C850CA1810
:10177000D6F8B43103F00F031374D6F8B831936080
:10178000D6F8BC31D3603D8002E0A3680133A3608A
:101790003B889AB2B8F800309BB2D31A228A48BF6D
:1017A00040339342C4BF074A1382A36938220133EE
:1017B000A361054BDA60BDE8F08100BF7A0200202A
:1017C0007802002018000020006400400803002078
:1017D0002DE9F041204F214A3D881388013505F05D
:1017E0003F059BB29D4290461D4C1CD01D4E336957
:1017F000DB0642BF236801332360D6F8C001FFF740
:1018000033FD18236B431849C850CA18D6F8C431A1
:1018100003F00F031374D6F8C8319360D6F8CC31B7
:10182000D3603D8002E0E3680133E3603B889AB215
:10183000B8F800309BB2D31A228A48BF4033934293
:10184000C4BF074A1382A36938220133A361054B41
:101850001A61BDE8F08100BF7A0200207802002002
:10186000180000200064004008030020F8B500B311
:10187000FFF706FD114D124B1A882B8892B29BB2CE
:101880009A4219D02A880F4C0132182302F03F02E5
:1018900003FB0244034604F11807264603CEBE426A
:1018A00018605960344603F10803F6D12A800120FC
:1018B000F8BD6FF00100F8BD0020F8BD78020020EF
:1018C0007A0200200803002037B5142300240125E4
:1018D00001A88DF804308DF805408DF806408DF88C
:1018E000075001F0FFFA152301A88DF804308DF898
:1018F00005408DF806408DF8075001F0F3FA03B06B
:1019000030BD0000032970B504460D463ED80028BE
:101910003CD00388013B9BB2B3F5806F36D2C388BD
:10192000013B9BB2032B31D84388013B9BB20F2B69
:101930002CD88388013B9BB2072B27D8474E1C220B
:101940003046002101F022FDAA1E53425341337755
:10195000434B00225A611A684FF47A7622F0020251
:101960001A601A6842F001021A601A4653683C492C
:10197000DB070ED44FF47A70FFF7C0FC013EF5D1BF
:101980004FF400430B606FF47A7070BD6FF001008C
:1019900070BD61230B60E2886388013A013B120647
:1019A0001B0403F4702302F040721A432388012DB4
:1019B00003F1FF33C3F3090342EA0302A3884FF4A0
:1019C0007A7403F1FF334FEA035303F4E00343EA6D
:1019D00002030CBF4FF000420022032D43EA020332
:1019E0000CBF4FF0804200221343CB610B6823F001
:1019F00001030B6048681A4A10F001000AD04FF446
:101A00007A70FFF77BFC013CF4D14FF40043136084
:101A1000144870BDD2F8003223F47C5323F00E0337
:101A200043F4606343F00103C2F800326FF0704387
:101A3000C2F80402C2F80C320B4BC2F81432012374
:101A4000C2F84002C2F84402C2F81C32D2F8003296
:101A500023F00103C2F8003270BD00BF180000205F
:101A60000064004016FCFFFFAAAAAA0A13B50446A8
:101A700001214FF00070FFF7EBFB01211CB10920A1
:101A8000FFF7DAFB02E00420FFF7D6FB48238DF8CE
:101A9000073003238DF8063044B14FF4807301A959
:101AA0001648ADF80430FFF733FB07E04FF400634E
:101AB00001A91348ADF80430FFF72AFB18238DF86D
:101AC000073003238DF806306CB14FF4007301A981
:101AD0000A48ADF80430FFF71BFB01214FF4EA1070
:101AE000FFF76EFB07E04FF4805301A90448ADF8FF
:101AF0000430FFF70DFB02B010BD00BF000C014029
:101B00000008014000000000022B0AD146F6B46331
:101B10009A4236D11CA3D3E900230120C1E9002356
:101B20007047012B2DD1013A0A2A2AD8DFE802F0AA
:101B30000629290D14292929291B220014A3D3E9D8
:101B400000230120C1E90023704713A3D3E9002338
:101B50000120C1E90023704711A3D3E9002301202C
:101B6000C1E90023704710A3D3E900230120C1E994
:101B7000002370470EA3D3E900230120C1E900230D
:101B800070470020704700BF6FC971D4B02CBC698A
:101B90009E6AC421818A46EE042B31ECA7766FBE83
:101BA000F017304A39059E56CDD269EBC51A133B62
:101BB000D5A4D139F922B6A738B50C46054600217F
:101BC00001602346C0F803102022FFF70DF8231D03
:101BD000022220212846FFF707F8A31D0322222115
:101BE0002846FFF701F804F10803032225212846BF
:101BF000FEF7FAFF04F10A03102228212846FEF717
:101C0000F3FF0448FEF7DAFD034BA0811B78E38164
:101C100038BD00BF0C0900207C02002010B5FFF782
:101C2000A7FC064A002301F0ABF9054C20602146D1
:101C3000BDE810400348FFF7BFBF00BF40420F00A0
:101C4000680200203019002030B5134C87B023887B
:101C5000CBB1124D2846FFF7E1FF07230493182369
:101C600002930F4B0395019340F25513201D0093EF
:101C700007A3D3E90023FEF7A3FD201D07B0BDE8AD
:101C80003040FEF79BBD07B030BD00BFAFF3008012
:101C9000F1C6A7C1D068080F08090020301900203C
:101CA0007C02002010B5064C10220021204601F0D5
:101CB0006DFB044B00221A700123E38010BD00BFAE
:101CC000680200207C020020F7B5044640F2791239
:101CD0000E46002101F05AFB2046FFF79FFF18A196
:101CE000D1E9000103232372002502AB012763E938
:101CF0000201E5712046677220225021FEF774FF31
:101D00000D4AA7751346E57503CBA061E16118681C
:101D10000A4B20621068293444F8050C03F11802BC
:101D200053F8041B934244F8041BF9D11B78237029
:101D30004223338003B0F0BDE8F7FF1F6C36000884
:101D4000ED04AE050000000070B5134D88B02B887F
:101D50000446C3B1114E0DF11E013046FFF7B4FF2A
:101D6000BDF81E30E17E0593002304960393A37E05
:101D70001934029301230093019405A3D3E90023AE
:101D8000281DFEF770FD08B070BD00BFAFF30080E6
:101D90009E6AC421818A46EE08090020301900207D
:101DA00070B505468AB00E464922002101F0EEFAD0
:101DB00003A8FFF715FC089B00248DE818002146B6
:101DC0006B4628463022FEF70FFF099B30228DE834
:101DD000180011466B462846FEF706FF039B049A3F
:101DE00060211A44059B28461A44069B13448DE83B
:101DF000180030226B46FEF7F7FE122333800AB03C
:101E000070BD00000000000070B5134D88B02B8835
:101E10000446C3B1114E0DF11E013046FFF7C0FF5D
:101E2000BDF81E30E17E0593002304960393A37E44
:101E30001934029304230093019405A3D3E90023EA
:101E4000281DFEF710FD08B070BD00BFAFF3008085
:101E5000042B31ECA7766FBE080900203019002052
:101E600037B504460D461022002101F08FFA0023F9
:101E70001946009428222846FEF78AFDEB7E23812E
:101E80006B7E638103B030BD10B4002404700B4638
:101E90000122214610BCFEF7A7BE00000000000092
:101EA0001FB501466846FFF7DBFFDDE9000106A329
:101EB000D3E90023994206BF90420120002005B0DB
:101EC0005DF804FBAFF300801E1B55CEAC00000094
:101ED0000149FFF7D9BF00BF40000020000000000B
:101EE00070B5114D86B02B880446ABB10F4E193436
:101EF0003046FFF7EDFF0123A178059300230496F8
:101F000003936378281D029305230093019404A38F
:101F1000D3E90023FEF7A7FC06B070BDAFF3008045
:101F2000F017304A39059E56080900203019002064
:101F3000014B00221A8070474000002037B50D4643
:101F40000446002303608380194600900822284637
:101F5000FEF71EFDEB7E63806B7EA38003B030BD79
:101F6000002202600B46C0F8032030210122FEF758
:101F70003BBE00000149FFF7F3BF00BF681B002014
:101F800070B5114D86B02B880446ABB10F4E193495
:101F90003046FFF7EFFF0723A1780593002304964F
:101FA00003936378281D02930A230093019404A3EA
:101FB000D3E90023FEF757FC06B070BDAFF30080F5
:101FC000CDD269EBC51A133B080900203019002057
:101FD00073B516460C460546098800230090032277
:101FE0003046FEF7D5FC2188033189B221802B8849
:101FF000012B08D10835009540223046FEF7C8FC79
:1020000023884033238002B070BDF0B50E460746EA
:10201000002485B040222146ADF80E4001F0B6F90B
:1020200023460D22214600973046FEF7B1FCBDF84D
:102030000E3004A90D3321F8023D324607F10800A5
:10204000FFF7C6FFBDF80E30B58A0733C3F3CF03E1
:10205000ED1A2DB21F2DADF80E30A8BF1F25A3B26B
:10206000AB4204F101040CDABDF80E100822194449
:1020700018333B440093C90000233046FEF788FC28
:10208000EDE7F37E3B87737E7B8705B0F0BD70B5CF
:102090000C4615461346098803220646FEF7A4FDA2
:1020A0002188033189B221802B88012B08D105F1C9
:1020B000080340223046FEF797FD238840332380F3
:1020C00070BD70B50C4615461346098802220646B7
:1020D000FEF78AFD2188023189B221802B88012BED
:1020E00008D105F1080340223046FEF77DFD238824
:1020F0004033238070BD2DE9F743064614468846D9
:1021000040F27312002101F041F902AD052325F8D8
:10211000023D224629463046FFF7B9FFBDF806309A
:1021200004F11002053329463046ADF80630FFF7BA
:10213000AEFFBDF8063004F12002063329463046D2
:10214000ADF80630FFF7BDFFBDF8063004F13002F0
:10215000063329463046ADF80630FFF7B2FFBDF82A
:10216000065040340735ED101FFA85F92046ADF8CA
:10217000069001F0B7F9214682B20746701901F0C6
:102180008FF84F44A8F8007003B0BDE8F08300005A
:10219000014AFFF7B0BF00BFA80200200000000006
:1021A00070B5134D88B02B880446C3B1114E0DF1A4
:1021B0001E013046FFF7ECFFBDF81E30E17E0593AF
:1021C000002304960393A37E193402930B230093F8
:1021D000019405A3D3E90023281DFEF744FB08B0B2
:1021E00070BD00BFAFF30080D5A4D139F922B6A7E6
:1021F00008090020301900202DE9F0470B7E044625
:102200000D4623B90E88022E00F2928013E0DFF80B
:10221000308100274FF0140901F1180A09FB0783E8
:10222000102299685046BEB201F08AF918B1013700
:10223000032FF3D17CE02B894149B3B114227243BF
:102240008B181B79013B052B0FD8DFE803F0030344
:1022500007070B0B8B582A691A7006E08B582A69FE
:102260001A8002E08B582A691A6001230022238613
:102270002384238223800023C4E90623C4E90E2398
:10228000304A0023C4E90A2314237343CA1811797E
:102290002B480139052944D8DFE801F00309102251
:1022A000383EC35800211878C4E9020139E0C35808
:1022B00093F90000C117C4E9020132E0C3580021BC
:1022C0001888C4E9020190890021C4E90601D08977
:1022D0000021C4E90E01108A0021C4E90A0120E0AE
:1022E000C358B3F90000C117C4E90201B2F90C00E8
:1022F000C117C4E90601B2F90E00C117C4E90E0105
:10230000B2F91000C117C4E90A010AE0C3581B68FA
:10231000A3600023E36004E0C3581868C117C4E950
:10232000020104F140009168BDE8F04701F07CB87B
:102330002046BDE8F0476022002101F027B800BF29
:10234000E835000880841E00054B10B500241C8071
:1023500060222146034801F019F8034B1C8010BD90
:10236000681B0020A80200204000002073B504462E
:102370000D464822002101F009F8002319460822E1
:1023800000942846FEF704FB631C082200931146C4
:1023900000232846FEF7FCFAAB8A023BA4F8423041
:1023A0000023B4F84220991C5E1C9BB29A424FEA6B
:1023B000C10109D92344023300930822002328468F
:1023C000FEF7E6FA3346ECE7EB7EA4F844306B7E8A
:1023D000A4F8463002B070BD094B30B503F59252F7
:1023E0000021002400251160C2E9024541F250227B
:1023F0000448995003F592530021C3E9060130BD0A
:1024000008090020A086010010B5094C23880BB9EB
:10241000002010BD201DFEF76DFA0028F8D0FFF750
:10242000F9F80028F4D0201DFEF768FA012010BD4D
:102430000809002010B50B4C86B0208880B1684692
:10244000FFF714FA00280BD009DBFFF791F80246DA
:102450000B46201D6946FEF70FFC012000E001201D
:1024600006B010BD080900202DE9F043204C8BB0C8
:102470002388002B39D0FFF77BF80F4606461D490D
:10248000D1E900894F4508BF464515D31A4A0023B4
:1024900012EB080243EB0903C1E90023FFF768F8D8
:1024A00002460B46201DFEF733FA01A8211DFEF758
:1024B000BBFD03A8FFF794F841F23023E458A4B120
:1024C0000E49D1E900239F4208BF96420DD3002553
:1024D00012196B419F4208BF9642F9D2C1E900230D
:1024E0000BB0BDE8F043FFF7AFBB0BB0BDE8F08326
:1024F00008090020301B002040420F00401B002034
:1025000010B5134C4FF493520021204600F03EFFCB
:10251000201D0021FEF74BF940F6B830002104F5EC
:102520009153C3E9020141F230230A4AE25040F2DA
:10253000DC52002304F59154C4E90623FFF7B2FBF3
:10254000FFF7F6FCFFF700FFBDE81040FFF744BFC0
:102550000809002040420F007FB5FFF7D1FF00209F
:10256000FFF784FA092324215A1CB1FBF2F56A43D0
:10257000242ADEB204D0013B012BF5D100204EE02D
:10258000C3EBC303DA1CD210D0B24FF47A74013219
:102590005443311AC9B20A4494FBF2F2B2F5617F96
:1025A000C2BF03F1FF33C3F3C700311A00F1FF3399
:1025B000C8BFC9B20F2B05D84B1E072B8CBF0023F9
:1025C000012300E00023421802FB0554154AB2FB28
:1025D000F4F2154CA242D1D1002BCFD0ADF80A00B5
:1025E000ADF80C100124022102A8ADF80850ADF896
:1025F0000E40FFF787F90028C0DB00230B4D019345
:102600000B4BA5F1240000934FF48052094B29464F
:10261000FEF7A5F8FFF758F9204625F8284C04B036
:1026200070BD00BF0051250240420F00300900205C
:10263000091B0008612A000808B5FFF78DFF10B1DB
:10264000FEF738FE012008BD034B2F225A809A80E6
:102650004FF47A72DA807047980200200E4B5A8845
:102660004AB1132A9CBF14225A805A88642A82BF16
:10267000094A64215180DA88312A9EBF064A4FF404
:102680007A71D180DA8841F288339A4282BF024B54
:102690004FF47A72DA8070479802002038B5102221
:1026A000FF211E4800F072FEFEF70AFFC0B20428A8
:1026B0001A4D0AD01022FF21184800F067FEFEF7DD
:1026C000FFFEC0B204280FD107E010212846FEF714
:1026D000CBFEC0B204280CD0ECE710210F48FEF767
:1026E000C3FEC0B2042804D01022FF210B4800F022
:1026F0004DFE2B88094C012B0CD0FFF7A5FF20467F
:102700000123074920F8083B00F08EFE10212046E7
:10271000FEF7C2FEBDE83840FFF7A0BF98020020D8
:102720008636000810210148FEF7B6BE9802002048
:1027300038B50588084C25B9FFF7F4FF012323803D
:1027400038BD012D05D1FFF77FFFFFF7EBFF258097
:1027500038BD0023238038BD681B002008B541F236
:102760008830FEF7CBFD0549054BCA6802F4E062EC
:102770001343CB60BFF34F8FFEE700BF00ED00E0D7
:102780000400FA0507B501210420FEF755FD1023CA
:10279000ADF804308DF8073001A9032303488DF804
:1027A0000630FEF7B5FC03B05DF804FB00080140FD
:1027B00037B518238DF807300121032304208DF845
:1027C00006300A4CFEF744FD01210920FEF734FDD6
:1027D000402502A921F8045D2046FEF799FC00225D
:1027E00029462046FEF7E6FC03B030BD000C014050
:1027F00030B5184D89B0002360220124ADF80A30AD
:10280000ADF80630ADF81C30ADF81E30ADF818301C
:10281000ADF81A30ADF81430ADF8163001A92D23FB
:102820002846ADF81020ADF80830ADF81240ADF8EC
:102830000440FDF76BFC04A92846FDF7B1FC2146D6
:102840002846FDF7F1FC21462046FEF7E9FC09B0D9
:1028500030BD00BF0008004008B5FFF7A9FFBDE884
:102860000840FFF7C5BF0000064B002000210022F2
:10287000C3E9060101205A801A825A609A60DA6020
:1028800018807047480000201A4B30B503F130041F
:1028900010F4000F14BF2325122523F8025F9C4279
:1028A0004FEA4000F4D1144B11F4000F14BF232061
:1028B000122024F8020FA3424FEA4101F4D10F493C
:1028C00012F4000F14BF2320122023F8020F9942A4
:1028D0004FEA4202F4D10A4B0022A3F8B020A3F839
:1028E000B220A3F8B420A3F8B620A3F8B820A3F828
:1028F000BA2030BD66000020C6000020F60000208F
:102900004800002010B5124C8CB0201D07C8FFF7FE
:10291000BBFF104B20340193029410230E4C9222E3
:10292000039304924FF480738022079308930692D6
:1029300000234FF440522046059309930A920B93CB
:1029400000F01EFA01A9204600F092FA0CB010BD6A
:1029500048000020340800400800024008B501216A
:10296000054800F0A3FABDE8084001224FF40071C9
:102970000248FDF765BC00BF0800024000080040A7
:1029800008B5022000F0ACFA38B100224FF4007113
:102990000348FDF755FC002008BD012008BD00BF1D
:1029A00000080040D0B50F4C238AABB9FEF7E0FD1C
:1029B000D4E90623053243F10003994208BF90424F
:1029C00006460F460DD3FFF79DFFFFF7C7FF012314
:1029D000C4E906672382D0BD0020FFF7D1FF00B90C
:1029E0002082D0BD48000020084B588868B90849AB
:1029F0008A8C2AB1074A88845A609A60DA607047E4
:102A00005A609A60DA6001238B8470474800002086
:102A1000180000201F1F1F00104B10B51A88DAB1D4
:102A20000478012C18D1C2788178120402EB0122BB
:102A300001795C800A445A6082794179120402EB80
:102A40000122C1790A449A60427A017A120402EBA7
:102A50000122817A0A44DA6010BD00BF48000020DC
:102A600030B50B7E91B0022B0C460FD146F6B46305
:102A7000CA8A9A426AD13648FFF778FC3448FFF791
:102A8000CBFF21463348FEF7E7F85FE0012B5DD12D
:102A9000CB8A013B0A2B59D8DFE803F00658580AC5
:102AA0000E585858583C4A000846FFF74DF94DE07B
:102AB0000846FFF7A9F949E00846FFF7F1F905468E
:102AC000254B214618802348FEF7C6F82046FFF71D
:102AD00007FA002D3AD0FEF74BFD204C00252418B4
:102AE0004D411C48FDF706FF70B1FFF78DFCFEF766
:102AF0003FFD8D4208BF8442F3D205E0FEF738FD6A
:102B00008D4208BF844203D3FEF778FD0028F5D03C
:102B1000FFF724FE6846FFF711FA6846FFF708FE44
:102B200021460C48FEF798F82046FFF729FA0DE0F9
:102B30006846FFF76AFA69460948FFF75DFB0548F2
:102B40002146FEF789F82046FFF72AFB11B030BD79
:102B5000301900200C0900204000002020A10700AF
:102B6000A80200202DE9F041FEF7F0FBFFF70AFE76
:102B7000FEF720FDFFF792FDFFF76EFEFFF75CFD0D
:102B800058B92749CB686420DB4303F0100343F4B2
:102B900080130B61FEF7B9FBF4E7224C2248A178C1
:102BA00001F07F01FDF703FEE2884FF47A7353438F
:102BB00041F230221D498B50FFF756FE1C4B00227C
:102BC000DA801C4A12880AB903229A801A4E144DE0
:102BD00037460024FFF72EFC0028FBD1FFF714FC3A
:102BE00080460028FAD1FFF73FFCFFF7DBFEF38BAE
:102BF0009BB2002BEED0A7F81E8014B940F2F3145C
:102C0000E8E7013CA4B2002CE4D1EB68DB4303F01D
:102C1000100343F480132B61FFF7E6FEDAE700BFF1
:102C200000080140980200200C090020080900203B
:102C3000680200204800002018000020034B044ACE
:102C40005A6002F188325A60704700BF002002408B
:102C500023016745FFF7F2BF024A136943F080037F
:102C60001361704700200240FFF7F6BF084BDA6897
:102C7000D10709D4DA68520708D4DB6813F0100FC3
:102C800014BF0320042070470120704702207047C2
:102C90000020024010B50446FFF7E8FF012806D1E6
:102CA0001CB1FFF7E3FF013CF8E7052010BD002C45
:102CB00008BF052010BD000070B505464FF4005058
:102CC0000E46FFF7E7FF04280ED1084C4FF40050E2
:102CD000236943F0010323612E80FFF7DBFF41F6F8
:102CE000FE7322691340236170BD00BF00200240C3
:102CF00073B5002306464FF400500D460193FFF7CD
:102D0000C9FF04281AD10E4C4FF40050236943F038
:102D100001032361ABB23380FFF7BCFF042808D165
:102D200002360196019B2D0C1D804FF40050FFF7D9
:102D3000B1FF41F6FE7322691340236102B070BDFA
:102D40000020024038B505464FF43020FFF7A2FFBF
:102D5000042812D1094C4FF43020236943F00203B8
:102D600023616561236943F040032361FFF792FF0C
:102D700041F6FD7322691340236138BD00200240F3
:102D80004FF6FE7302681340036000230360436044
:102D90008360C360284B984201D1284A27E0284B22
:102DA000984201D1254A2AE0264B984201D1234A74
:102DB0002DE0254B984201D1204A30E0234B984228
:102DC00001D11E4A33E0224B984204D11B4A53687A
:102DD00043F470032EE01F4B984204D1174A536806
:102DE00043F0706326E01C4B984204D11B4A5368A1
:102DF00043F00F031EE01A4B984204D1174A536860
:102E000043F0F00316E0174B984204D1134A53687D
:102E100043F470630EE0144B984204D10F4A536898
:102E200043F4704306E0114B984204D10B4A5368B7
:102E300043F47023536070470800024000000240D2
:102E40001C00024030000240440002405800024092
:102E50006C0002408000024008040240000402406E
:102E60001C04024030040240440402405804024062
:102E70000A6A10B58C68036814430A6923F4FF4397
:102E800014434A6923F0700314438A691443CA69DE
:102E900014434A6A14438A6A224313430360CB688B
:102EA00043600B6883604B68C36010BD19B1036851
:102EB00043F0010303E04FF6FE7302681340036022
:102EC00070470000C3004CBF034B044B1B68034218
:102ED00014BF01200020704700040240000002409F
:102EE000FFF7F0BFC27810B503780AB3164A03F1B2
:102EF0006043D1684278C943C1F30221C1F104049F
:102F000002FA04F40F22CA40817803F561430A40B3
:102F100022431201D2B283F8002303780122590917
:102F200003F01F0302FA03F3084A42F8213010BDF0
:102F30005A09012103F01F0301FA03F30349203268
:102F400041F8223010BD00BF00ED00E000E100E0DC
:102F5000D0400B1CD1409C46203AD34018435242EB
:102F600063469340184370479140031C90409C4631
:102F7000203A9340194352426346D3401943704765
:102F800053B94AB9002908BF00281CBF4FF0FF31D0
:102F90004FF0FF3000F082B9ADF1080C6DE904CEBE
:102FA00000F006F8DDF804E0DDE9022304B0704724
:102FB0002DE9F04F8C460C460546099E002B4FD15B
:102FC0008A4217466BD9B2FA82FEBEF1000F0BD0CF
:102FD000CEF1200520FA05F501FA0EF345EA030CBF
:102FE00002FA0EF700FA0EF5390CBCFBF1F0BAB29A
:102FF00001FB10C300FB02F84FEA154C4CEA0344F6
:10300000A04509D9E41900F1FF3380F02881A045DB
:1030100040F2258102383C44C8EB0404B4FBF1F3D0
:1030200001FB134C03FB02F2ACB244EA0C418A42AE
:1030300009D9C91903F1FF3480F00F818A4240F2A7
:103040000C81023B39448A1A43EA00400021002ED9
:1030500063D022FA0EF2002386E80C00BDE8F08F60
:103060008B4207D9002E56D0002186E81100084671
:10307000BDE8F08FB3FA83F1002940F09380A342BA
:1030800002D3824200F2FE80851A64EB03039C4661
:103090000120002E41D086E82010BDE8F08F12B943
:1030A0000127B7FBF2F7B7FA87FEBEF1000F36D162
:1030B000E41B4FEA17481FFA87F90121B4FBF8F324
:1030C00008FB134409FB03F24FEA154C4CEA044495
:1030D000A24207D9E41903F1FF3002D2A24200F262
:1030E000D3800346A41AB4FBF8F008FB104809FB90
:1030F00000F9ACB244EA0842914507D9D21900F16F
:10310000FF3402D2914500F2BA802046C9EB020298
:1031100040EA03409BE731463046BDE8F08F07FAAE
:103120000EF7CEF1200C24FA0CF34FEA1748B3FB4C
:10313000F8FA1FFA87F908FB1A3520FA0CFC04FA92
:103140000EF40AFB09FB4CEA040C4FEA1C4242EA6B
:1031500005439B4500FA0EF50AD9DB190AF1FF3247
:1031600080F08B809B4540F28880AAF1020A3B44A4
:10317000CBEB0303B3FBF8F008FB103300FB09F4BF
:103180001FFA8CFC4CEA03439C4207D9DB1900F17F
:10319000FF326ED29C426CD902383B441C1B40EA81
:1031A0000A418BE7C1F1200E8B4022FA0EFC4CEA5B
:1031B000030C24FA0EF74FEA1C49B7FBF9FA1FFA81
:1031C0008CF309FB1A7720FA0EF88C400AFB03F502
:1031D00048EA04044FEA144848EA0747BD4202FAA5
:1031E00001F200FA01FB09D917EB0C070AF1FF30D5
:1031F00041D2BD423FD9AAF1020A67447F1BB7FB07
:10320000F9F509FB157705FB03F3A4B244EA074778
:10321000BB4208D917EB0C0705F1FF3027D2BB42A0
:1032200025D9023D674445EA0A40A0FB0289FF1AFE
:103230004F4545464C4614D329D066B3BBEB050336
:1032400067EB040707FA0EFECB40CF404EEA0303BC
:1032500086E888000021BDE8F08F2346F3E6184693
:10326000DAE6B8EB020569EB0C040138E5E7054640
:10327000D9E7104692E78246C0E7924678E70238DF
:103280003A4443E7084604E7023B3C442AE7C34587
:10329000E7D33C46D1E73146BDE8F08F704700BF29
:1032A000844641EA000313F0030349D1403A23D393
:1032B0000B6803604B6843608B688360CB68C360B6
:1032C0000B6903614B6943618B698361CB69C3619E
:1032D0000B6A03624B6A43628B6A8362CB6AC36286
:1032E0000B6B03634B6B43638B6B8363CB6BC3636E
:1032F00040304031403ADBD230320BD30B680360B0
:103300004B6843608B688360CB68C36010301031BA
:10331000103AF3D20C3205D351F8043B40F8043B89
:10332000043AF9D2043208D0D2071CBF11F8013B8D
:1033300000F8013B01D30B8803806046704700BF53
:10334000082A13D38B07B1D010F00303AED0C3F11A
:103350000403D21ADB071CBF11F8013B00F8013B44
:10336000A4D331F8023B20F8023B9FE7043AD9D3BB
:10337000013A11F8013B00F8013BF9D20B780370D8
:103380004B7843708B7883706046704770B48407C5
:1033900046D0541E002A41D0CDB2034602E0621E40
:1033A000E4B3144603F8015B9A07F8D1032C2ED935
:1033B000CDB245EA05250F2C45EA054519D9264623
:1033C00003F11002103E0F2E42F8105C42F80C5C24
:1033D00042F8085C42F8045C02F11002F2D8A4F151
:1033E000100222F00F0204F00F041032032C1344D9
:1033F0000DD91E462246043A032A46F8045BFAD841
:10340000221F22F003020432134404F003042CB1FF
:10341000C9B21C4403F8011BA342FBD170BC704726
:1034200014460346C2E700BF80EA0102844612F058
:10343000030F4FD111F0030F32D14DF8044D11F0AD
:10344000040F51F8043B0BD0A3F101329A4312F060
:10345000803F04BF4CF8043B51F8043B16D100BF39
:1034600051F8044BA3F101329A4312F0803FA4F1CA
:1034700001320BD14CF8043BA24312F0803F04BF51
:1034800051F8043B4CF8044BEAD023460CF8013BBE
:1034900013F0FF0F4FEA3323F8D15DF8044B704768
:1034A00011F0010F06D011F8012B0CF8012B002AA6
:1034B00008BF704711F0020FBFD031F8022B12F095
:1034C000FF0F16BF2CF8022B8CF8002012F47F4F50
:1034D000B3D1704711F8012B0CF8012B002AF9D158
:1034E000704700BF20F0030110F00300C0F100009E
:1034F00051F8043B00F1040C4FEACC0C6FF00002D1
:103500001CBF22FA0CF213434FF0010C4CEA0C2CB6
:103510004CEA0C4CA3EB0C0222EA030212EACC1296
:1035200004BF51F8043B0430F4D0C2F1000102EAB8
:103530000102B2FA82F2C2F11F0200EBD200704720
:10354000002A3FD040EA010313F00303F0B425D171
:10355000032A23D904680D68AC421FD1043A33D042
:10356000A4F1013525EA040414F0803F2FD1071D92
:103570000D1D0DE057F8043B0E68A3F10134B34272
:1035800024EA03040AD1043A1ED014F0803F21D16A
:10359000032A2946384605F10405EBD803780C7850
:1035A000013A9C420BD17AB114B915E062B173B102
:1035B00010F8013F11F8014F013AA342F6D0181B51
:1035C000F0BC7047104670471046F0BC7047184674
:1035D000F0BC70470020F3E72046F1E72D00002003
:1035E00000002E00003000009A02002003000000BE
:1035F000953600082F000000640000009C020020A7
:10360000030000008B3600082F000000640000005B
:103610009E020020030000009C360008E8033200F0
:10362000881300003F00000000001F00003F000062
:1036300000FF0F00000C01404000000000080040A7
:1036400034080040080002400002000002000000B0
:10365000000C0140800000000008004038080040D5
:103660004400024000040000002000006F6C6C6900
:10367000772E65752E756334682D6E6F7469667963
:103680002D6E6F646500656E6458005072656665E6
:1036900072726564204E6F64654964004E6F6465A4
:0C36A000537461747573205261746500EE
:0836AC0004F9FF7F010000009A
:1036B40000A24A040000000000000000010203040C
:0436C40006070809E4
:0400000508000000EF
:00000001FF
