:020000040800F2
:1000000028170020E50F0008E10F0008E10F0008A5
:10001000E10F0008E10F0008E10F000800000000F8
:10002000000000000000000000000000E10F0008D8
:10003000E10F000800000000E10F0008491B000864
:10004000E10F0008E10F0008E10F0008E10F0008D0
:10005000E10F0008E10F0008E10F0008E10F0008C0
:10006000E10F0008E10F0008E10F0008E10F0008B0
:10007000E10F0008E10F0008E10F0008E10F0008A0
:10008000E10F0008E10F0008E10F0008E10F000890
:100090007921000815220008E10F0008E10F00088F
:1000A000E10F0008E10F0008E10F0008E10F000870
:1000B000E10F0008E10F0008E10F0008E10F000860
:1000C000E10F0008E10F0008E10F0008E10F000850
:1000D000E10F0008251E0008E10F0008E10F0008ED
:1000E000E10F0008E10F0008E10F00080000000028
:1000F0000000000000000000000000000000000000
:1001000000000000000000005FF808F1224A0388A8
:1001100090429BB212D002F5006290420ED0B0F134
:10012000804F0BD0A2F59832904207D002F5806242
:10013000904203D002F58062904203D14A8823F0B6
:1001400070031343154A904208D002F58062904232
:100150001FBF23F44073CA889BB2134303808B886C
:1001600083850B8803850C4B98420FD003F5006301
:1001700098420BD003F54063984207D003F58063A3
:10018000984203D003F58063984201D10B7A03862D
:1001900001238382704700BF002C01400010004003
:1001A000038819B19BB243F0010303E023F001037C
:1001B0001B041B0C03807047384B82B01A6842F056
:1001C00001021A605968364A0A405A601A6822F0D9
:1001D000847222F480321A601A6822F480221A6033
:1001E0005A6822F4FE025A604FF41F029A600022FD
:1001F000009201921A6842F480321A601A6802F47E
:1002000000320192009A01320092019A1AB9009AC2
:10021000B2F5A06FF2D11A6812F4003218BF0122B1
:100220000192019A012A05D01E4B4FF000629A609C
:1002300002B070471C4A116841F01001116011684A
:1002400021F003011160116841F0020111605A6848
:100250005A605A685A605A6842F480625A605A6812
:1002600022F47C125A605A6842F4E8125A601A6802
:1002700042F080721A601968084A8901FBD55168FA
:1002800021F003015160516841F0020151605A6848
:1002900002F00C02082AFAD1C6E700BF00100240A3
:1002A0000000FFF800ED00E0002002402DE9F047DB
:1002B000089D01F007044FEAD508224405F0070520
:1002C0004FF47F4900EBD100944227D005F0070698
:1002D00004F0070AB245D44638BFB446CCF1080151
:1002E000C4EB020C8C4528BF8C46E708C75D29FA91
:1002F0000CFE08EBD50107FA0AF75FFA8EFE4EFAFC
:1003000006FE47FA06F65F5C06EA0E0627EA0E0EC0
:1003100046EA0E065E5464446544D5E7BDE8F087BE
:100320000246006848B1036811891360D38801331D
:100330009BB29942D38038BF1381704770B5044691
:100340000D4688B020220021684605F05BFB204660
:100350000495FFF7E5FF054658B16B46044608AE25
:100360001A4603CAB24220606160134604F10804D1
:10037000F6D1284608B070BD2DE9F0410568DDB121
:100380008E68A84626F06047BB0C4FEAD67EC6F3BF
:10039000807C2A4637EA260628BF1E469368BEEBB5
:1003A000D37F23F060440ED0002B08DAA40CB442B3
:1003B00007D1954213D10D600160BDE8F081B442D0
:1003C00012D0A64206E0A74203D1C3F380739C4536
:1003D00003D1A7422CBF002301232BB1E9E7C8F8C2
:1003E00000100A60BDE8F0811368904613B91160EF
:1003F000BDE8F0811A46D1E7F8B506460F464FF63C
:10040000FF7400252A463046394604F055F9C0B23B
:1004100084EA0024082314F4004F4FEA4404A4B2F1
:100420001CBF84F4815484F00104013BF3D10835EE
:10043000402DE7D12046F8BD10B54B6843B1C468E4
:100440001A681C60C360438A013B43824A60F4E738
:100450000A8B002063F309020A83002110BD0A44BD
:10046000914211D011F8013B80EA0320082310F4D7
:10047000004F4FEA400080B21CBF80F4815080F0F2
:100480000100013BF3D1EBE770472DE9F04F85B058
:1004900081468DE80A00BDF83C409346002A7DD095
:1004A00024B10E9B002B79D0072C27D809F10C0022
:1004B000FFF736FF054610B96FF0020070E020220A
:1004C000002105F09FFA22460E9905F1100005F073
:1004D000BFF9631C2B769BF800302C4403F01F03FC
:1004E00063F03F032374009B09F11C0043F00043B9
:1004F000AB602946FFF740FF012051E04FF00008B4
:1005000046464546019B4FF0800A1B0A029300F1C4
:100510000C0303930398FFF703FF07460028CBD093
:100520002022002105F06EFA3EB99DF80430022227
:100530003B749DF808307B740BE0002209E00E9BB1
:10054000B9180132985DD2B20136072A0874B6B2E2
:1005500001D0B442F3D8A64208BF4FF0400A9BF83E
:100560000010B81801F01F0141EA481141EA0A03DE
:100570000374009B013243F00043BB603A76394676
:1005800009F11C00FFF7F8FEA64205F1010588F00D
:1005900001084FF0000ABDD1284601E06FF00100CC
:1005A00005B0BDE8F08F2DE9F04717460A8B994654
:1005B000C2F30902C2F10603002B0646884618DD85
:1005C00000201FFA89F185B253199BB2052B09D976
:1005D000A9420FD8B8F818300A4462F30903A8F802
:1005E00018306BE0A942F3D93C5C43449C7601305F
:1005F000E9E70025911F1C23B1FBF3FA03FB1A1A4C
:10060000D8F804405FFA8AF10CB1012329E03046A2
:10061000FFF786FE044608B100230360C8F80440D3
:10062000CCB96FF00200BDE8F0874A44063A1C20BE
:10063000B2FBF0F20132D2B293420DD2BAF1000F06
:100640000AD13046FFF76CFE08B1C0F800A0206068
:100650000028E6D0044600211FFA89F94FF0000A6D
:1006600011E020680028E0D00133DBB20446F8E74F
:10067000A3180132785D92B201351C2A1871ADB20F
:1006800005D0A945F4D84D450FD28AB2F0E7A94567
:10069000F9D93046FFF744FE08B1C0F800A0206049
:1006A0000028BED004460021EDE7B8F81820C2F3B8
:1006B0000903994469F30902A8F818200120BDE84C
:1006C000F087F8B5044616460D46242200211F4641
:1006D00005F098F9069B72096360079B002023626E
:1006E0004FF6FF739A4228BF1A4629460346A76071
:1006F000207097B204F10C06934204D031600133AC
:100700000E462031F8E70023336027826382A382FC
:10071000F8BD03781BB94BB2002BC8BF01707047FE
:10072000007870472DE9F7430D9F8046BDF82840BB
:100730000B9E9DF83090BDF838500FB9002D3FD179
:10074000B9F11F0F3CD898F80010A9B9072D34D87B
:1007500034F0030334D12A4639464FF6FF70FFF7D1
:100760007EFE47F6FE73240204F4407444EA0964F2
:10077000034044EA43240FE041EA0421072D41EA03
:10078000096409D919461046FFF736FE2A4639464C
:10079000FFF765FE034601E04FF6FF7301950097F2
:1007A000324621464046FFF770FE33780133DBB214
:1007B0001F2B88BF0023337004E06FF0030001E0BB
:1007C0006FF0010003B0BDE8F0832DE9F7430E9F01
:1007D00081460C46104619460B9D9DF830209DF829
:1007E0003480BDF83C6007B976BB1F2A2CD899F835
:1007F000003063B343F0800343EA04239DF82840AC
:1008000043EAC83343EA0443072E43EA026407D9A4
:10081000FFF7F2FD32463946FFF721FE034601E0BD
:100820004FF6FF73019600972A4621464846FFF788
:100830002CFEB8F1010F0CD12B780133DBB21F2B4A
:1008400088BF00232B7004E06FF0010001E06FF01F
:10085000030003B0BDE8F083C06900B10830704701
:10086000C3691A68C261C2681A60C360438A013BE7
:10087000438270472DE9F047D0F818A00546164688
:100880001F465446DFF868804FF00009002C2CD03A
:10089000D4E90223B21A67EB0303994508BF9045D8
:1008A00020D2AB6921469C4228460DD1FFF7C4FDFA
:1008B000AB691B68AB61EB6823606B8AEC60AC6969
:1008C000013B6B82A246E1E7FFF7B6FD2368CAF859
:1008D0000030EB6823606B8AEC60013B6B82DAF8D6
:1008E0000040D3E7A2462468D0E7BDE8F08700BF08
:1008F00080841E002DE9F04F8BB00E4614460793FE
:10090000149F8246002800F0FF80002F00F0FC803A
:10091000531E3F2B00F2F880012A03D1079B002BC6
:1009200040F0F280BAF814500023ED00AE42089374
:10093000099301D3002505E133199D42DAF80C3003
:100940003ABFAD1BEDB225461BB9DAF81030002BCB
:1009500061D02F2E15D8C6F13008A84528BFA8466B
:10096000002300935FFA88FB4246314608ABDAF871
:1009700008004644CBEB0508FFF798FC5FFA88F8BF
:1009800002E0A8464FF0000BBAF81430302103F112
:100990000053063BDB000493DAF80C300393039B0F
:1009A0006BB3B8F1000F2AD0049BE02B28BFE023E3
:1009B00006930B44B342059318D9C6EB0309C84507
:1009C00038BFC146039828BF5FFA89F9CDF800B057
:1009D000711A08AB4A460430FFF768FCCB44C9EBF8
:1009E00008084E445FFA8BFB5FFA88F8049B069A6E
:1009F00005999B1A0493039B1B680393CFE7DAF8CE
:100A0000100080B1B8F1000F0DD0CDF800B008ABE8
:100A10004246711A05E02A4631460093DAF808008A
:100A200008ABFFF743FC002D84D066070BD00AAB60
:100A300003EBD40111F8082C634203F0070342FAD8
:100A400003F301F8083C082C06D9102C06D9202CF9
:100A50008CBF0823042302E0012300E00223079A4D
:100A6000002A57D0B4EBC30F56D0082C0ED89DF9EE
:100A70002020631E22FA03F3D80760D54FF0FF331E
:100A800003FA04F414438DF8204058E0102C0ED8DB
:100A9000BDF92020631E22FA03F3D90743D54FF096
:100AA000FF3303FA04F41443ADF820403BE0202C5C
:100AB0000CD8089B621E23FA02F2D20737D54FF0FA
:100AC000FF3202FA04F42343089330E0402C1ED096
:100AD000DDE90889621E4046494603F0EDFD00212C
:100AE00000F0010050EA010324D022460120002139
:100AF00003F0EEFD404261EB410140EA080041EAAB
:100B00000901CDE9080115E06FF001051AE06FF069
:100B1000080517E0012C12D0082C10D9102C02D98E
:100B2000202C07D803E0BDF820303B800AE0089B6A
:100B30003B6007E0DDE90823C7E9002302E09DF8F8
:100B400020303B7028460BB0BDE8F08F30B5402A0E
:100B500085B018D8002A08BF01220024012A029477
:100B6000039401D0082A03D81B788DF808300FE0D1
:100B7000102A03D81B88ADF8083009E0202A03D8D2
:100B80001B68029304E04022D3E90045CDE9024509
:100B900053070BD004AB03EBD20515F8084C5342B6
:100BA00003F0070304FA03F305F8083C0091034639
:100BB000002102A8FFF77AFB05B030BD10B5CB6865
:100BC00043B1C4681A681C60C360438A013B438216
:100BD000CA60F4E78B600B618B8210BD2DE9F04F8A
:100BE000D1F800A08FB0CDE90223CAF3C0120446A9
:100BF0000D4622B1CAF3C03BCAF3062802E0904674
:100C00004FF0020BBAF1000F80F2BB812B6813F09A
:100C1000C04F40F0B6812B7C002B00F0B281BBF1BD
:100C2000020F03D02178414540F0AB810AF07F01EB
:100C3000C8B2059012B1CAF3074904E0CAF30F29FC
:100C400009B909F003092B444FEA4868059ADE798F
:100C500048EA0B4848EA8248F30948EA090804933D
:100C60002BD0002200230EA961E90823059B6768A9
:100C700000934A465B462046B847002800F0818131
:100C8000A7694FB9414604F10C00FFF757FB07462F
:100C900088B976E13F681FB13B699845FAD115E004
:100CA000414604F10C00FFF749FB0746002800F01D
:100CB0006881A3693B60A76108E0A769002F00F085
:100CC00060813B69984506D03F68F7E7DDE906019A
:100CD000FFF792FBF88297F819E006F01F08CEF3B1
:100CE000840EB8EB0E0ED7E9022348BF0EF1200E9A
:100CF00052EA0301CAF3046A00F02E81DDE9020121
:100D0000801A61EB03010B46024600219E4899427E
:100D100008BF9042C0F02081049B5BB3BEF1010F7D
:100D200000F31A81730625D5DDE902230021C7E906
:100D3000022306A8202204F065FEDDE90223CDE9A6
:100D4000062305F1080308932B7CADF82E90013B98
:100D5000DBB2ADF82C309DF814308DF830B08DF842
:100D600033308DF831808DF832A0A36806A9204673
:100D70009847DEE07B7EC6F34012B2EBD31F40F013
:100D80000081C3F38403434540F0FB80049A2B7C2D
:100D9000B609002A33D016F001065ED1032B40F2CB
:100DA000F080DDE90223C7E902232B7C05F10A0864
:100DB000033BDBB24246394604F10C00FFF7F3FB7C
:100DC000002812DA39462046FFF736FB7B7EC3F354
:100DD0008402013262F386037B763B8B66F3090360
:100DE0003B831B0A66F3C713B4E06A7A2B7A414649
:100DF00043EA0223BB822A7C033AD2B223E066BBD9
:100E000005F10806013BDBB23246394604F10C001D
:100E1000FFF7C9FB002812DA39462046FFF70CFB22
:100E20007B7EC3F38402013262F386037B76049AED
:100E30003B8B62F309033B83049A1B0A88E031462B
:100E40002A7C013AD2B2F88AFFF709FB7B7EF8824E
:100E5000C3F3C01282F001027AE0388B013BC0F389
:100E600009000528DBB212D8EE1D0021CAB2934258
:100E700028D9013100EB010E16F801CF07EB0E0265
:100E8000BEF1060F82F819C0CAB2EFD11AE07E682F
:100E9000BEB10622316811B11C320E46FAE7801A43
:100EA00005F1070C00EB010EBEF11B0FCAB209D809
:100EB0009A4207D21CF8012FB6448EF80420013163
:100EC000F0E73246DDE902019A42CDE9060107F179
:100ED0001A01089138BF0832796834BF52190022CC
:100EE00009910A923A8BADF82E90C2F3090213448D
:100EF000ADF82C309DF814308DF830B08DF83330CB
:100F000000238DF831808DF832A07B602A7CF88A2E
:100F1000013A05F10801FFF7A2FABB8AF882834281
:100F200003D1A36806A92046984706A92046FFF7E3
:100F300045FE7B7EC3F38402013262F386037B7637
:100F40003B8B6FF309033B831B0A6FF3C71301E06D
:100F500062F3C7137B7614E07B7E394666F3860323
:100F60006FF3C7137B762046FFF766FA049B002BCE
:100F70007FF4D8AE7B7EC3F38402013262F3860332
:100F8000E8E70FB0BDE8F08F80841E00034651F8FB
:100F9000100F8A8818609A801846704720F0004326
:100FA000B3F1FF4F10B500F0004405D347F6FF70D2
:100FB00008BF4FF4F8400EE008484FF0F0611840C9
:100FC00003F0A0FC00F58050B0F1786F88BF4FF0BF
:100FD0007860C0F34F3040EA144010BD00F0FF7F4E
:100FE000FEE7000008B50C4A0C4B0D498B4204D2B9
:100FF00052F8040F43F8040BF8E70A480A494FF087
:1010000000028842B8BF40F8042BFADBFFF7D4F89F
:10101000BDE8084003F076BAA46300080000002091
:101020002C000020300000202813002043690AB162
:10103000194301E023EA010141617047B1F5807F66
:1010400035D00CD8082924D004D801291CD0042973
:101050001DD0704720291FD040291FD07047B1F5FF
:10106000006F22D006D8B1F5007F20D0B1F5806F97
:101070001DD07047B1F5803F13D0B1F5003F12D0BD
:10108000B1F5004F15D110E00A4B8360704708237B
:1010900000E01023C3607047082300E010230361C1
:1010A0007047082304E0102302E000238361042337
:1010B0004360704701010100CA782DE9F041D40670
:1010C00048BF8C780E8802F00F0348BF234316F008
:1010D000FF0F1ED0016800244FF0010E4FF00F0CDF
:1010E0000EFA04F737EA06050FD1A5000CFA05F849
:1010F00021EA080103FA05F5282A41EA050101D190
:10110000476102E0482A08BF07610134082CE7D193
:101110000160FF2E20D9416800244FF0010E4FF0EE
:101120000F0C04F108050EFA05F535EA06070FD194
:10113000A7000CFA07F821EA080103FA07F7282AA2
:1011400041EA070101D1456102E0482A08BF056173
:101150000134082CE5D14160BDE8F08101617047A0
:10116000416170470028164A30B500F44015B4BFFD
:10117000D3695368B5F5401F84B206D1556823F092
:10118000706325F0706555600EE0C20255BF420DD8
:1011900003221201C0F303454CBFAA4004FA02F235
:1011A00023EA020343F0706319B1420D1201944027
:1011B0002343034A0028B4BFD361536030BD00BF4E
:1011C000000001401C4A10B5536803F00C03042BC7
:1011D00001D0082B01D0194B0EE053685168C3F3BE
:1011E0008343CC0303F1020302D55168890301D57F
:1011F000134900E011494B43036053681149C3F39D
:101200000313CC5C0368E34043605468C4F30224D6
:101210000C5D23FA04F484605468C4F3C2240C5DAA
:10122000E340C3605268C2F381320A44127CB3FBCC
:10123000F2F3036110BD00BF0010024000127A00FB
:1012400000093D0014000020044B9A6909B11043C5
:1012500001E022EA00009861704700BF00100240E0
:10126000044BDA6909B1104301E022EA0000D861B9
:10127000704700BF0010024070B50E460446038A56
:10128000CA889BB223F4405313430382828989881E
:10129000338992B20B43718922F4B0520B4322F08E
:1012A0000C0213439BB28381838AB2899BB223F4DD
:1012B000407386B01343838201A8FFF783FF174A68
:1012C000039B049D3168944218BF1D4619226A434E
:1012D000A389642613F4004F14BF4D008D00B2FBA8
:1012E000F5F5B5FBF6F0A28900010109120406FB31
:1012F000115307D5D9003231B1FBF6F202F00702E3
:10130000104306E01A013232B2FBF6F303F00F038A
:10131000184380B2208106B070BD00BF0038014084
:101320004B8810B50C88028A23438C88C98892B2F6
:1013300023430B4322F4706213439BB2038210BD1C
:101340000023038043808380C3807047838919B161
:101350009BB243F4005303E023F400531B041B0C23
:1013600083817047012310B5C1F342149C4201F000
:101370001F0103FA01F101D10C3003E0022C0CBF74
:101380001030143003680AB1194301E023EA010167
:10139000016010BD090A012303FA01F1C94389B2B2
:1013A00001807047034B044A5A6002F188325A6048
:1013B000704700BF0020024023016745FFF7F2BFDE
:1013C000024A136943F08003136170470020024012
:1013D000FFF7F6BF084BDA68D10709D4DA6852077D
:1013E00008D4DB6813F0100F14BF032004207047EB
:1013F00001207047022070470020024010B50446CB
:10140000FFF7E8FF012806D11CB1FFF7E3FF013C1D
:10141000F8E7052010BD002C08BF052010BD000016
:1014200070B505464FF400500E46FFF7E7FF04285D
:101430000ED1084C4FF40050236943F0010323619F
:101440002E80FFF7DBFF41F6FE7322691340236114
:1014500070BD00BF0020024073B5002306464FF464
:1014600000500D460193FFF7C9FF04281AD10E4C16
:101470004FF40050236943F001032361ABB2338082
:10148000FFF7BCFF042808D102360196019B2D0C02
:101490001D804FF40050FFF7B1FF41F6FE73226943
:1014A0001340236102B070BD0020024038B50546EC
:1014B0004FF43020FFF7A2FF042812D1094C4FF45B
:1014C0003020236943F0020323616561236943F0FF
:1014D00040032361FFF792FF41F6FD732269134039
:1014E000236138BD00200240410746BFC30843F0D6
:1014F0000043430D820748BF43F0804318467047BE
:10150000094B9A6912F0700F0DD000229A61074AB8
:10151000516801315160127F12B99B695B0702D596
:10152000034A014B9A60704700640040300000207D
:101530008080800000000000012B2DD1013A0A2A92
:101540002AD8DFE802F00629290D14292929291BA8
:10155000220013A3D3E900230120C1E9002370472F
:1015600011A3D3E900230120C1E90023704710A390
:10157000D3E900230120C1E9002370470EA3D3E97A
:1015800000230120C1E9002370470DA3D3E9002304
:101590000120C1E90023704700207047AFF30080AD
:1015A0009E6AC421818A46EE042B31ECA7766FBE79
:1015B000F017304A39059E56CDD269EBC51A133B58
:1015C000D5A4D139F922B6A72DE9F04F05460F462B
:1015D00014461E468BB04FF0000B4FF001084FF041
:1015E00000094FF07C5A0A231FFA8BF294420ED95D
:1015F00050464449019303F085F9019B824603FB61
:1016000009F2A8FB03890BF1010B9144ECE70023DD
:101610002B70002138468DF8083003F011FB30B1F3
:101620003949284604F0A2FB07F1004703E0374997
:10163000284604F09BFB3946504603F05BF807460A
:1016400003F026FB02A90A22824604F0FFF80146B5
:10165000284604F025FA9CB32D49284604F020FAC8
:10166000504603F0FBF80146384603F041F849467E
:101670000746404603F000F90146384603F042F9B8
:1016800003F044FB0746013C24B200230A2203F086
:1016900025FB50EA010302D0013C24B2F5E7A4B2D5
:1016A0002CB11C49284604F0FBF9013CF7E702A9DC
:1016B0000A22384604F0CAF80146284604F0F0F938
:1016C000EEB1284604F0B0FB864218D3361A36B283
:1016D0000022202193B2B3420AA802F1010203447E
:1016E00002DA03F8201CF5E70022294602A803F8D5
:1016F000202C04F0D5F902A9284604F037FB0BB0E2
:10170000BDE8F08FCDCCCC3DA05F0008A35F000802
:10171000A65F0008A95F000810B5074C40F22551EC
:101720002046FFF737FE2046BDE81040012240F278
:101730002551FFF717BE00BF0038014010B50E4C11
:101740003823E360204623610221FFF777FC20461F
:101750001021FFF773FC094A00231380084A204632
:10176000138002210122FFF761FC2046BDE81040F2
:1017700001221021FFF75ABC006400406C000020D9
:101780007000002000EB8000430018460138FDD8AF
:101790007047402808B5024609D8BDE80840C0EBAC
:1017A000401002EB8000C00080B2FFF7EBBF4FF4A7
:1017B0007A70FFF7E7FF013A92B2002AF7D108BD2D
:1017C00038B5044604F030FB80B20246002330B145
:1017D000013880B2215C2E2908BF0346F7E713B910
:1017E000013A202010E0013B202182B29A4205DA22
:1017F000A55C0130302D0AD1A154F6E738BD655CF7
:101800000133302D03D1605499B29142F7DB38BDDA
:1018100010B530240C70632805D90C786438013475
:101820000C70C0B2F7E730211170092805D9117882
:101830000A3801311170C0B2F7E73030187010BDAE
:1018400010B50C460028BBBF40422D23202340B2D8
:10185000B4BF0B700B708A1CCB1CC0B20131FFF7F8
:10186000D7FF0023237110BD70B50C46002388B04C
:1018700006460370002120468DF8003003F0D6F9AB
:1018800030B130462F4908B0BDE8704004F06EBA60
:101890000021204603F0D4F930B12B49304604F042
:1018A00065FA04F1004403E02849304604F05EFA8A
:1018B00000254FF07E51204603F0C2F938B1204692
:1018C000234903F01FF8013D04462DB2F1E72049FA
:1018D000204603F0C9F938B120461D4903F0C6F887
:1018E000013504462DB2F2E71A49204603F00AF802
:1018F00003F0CEF969460A2203F0A8FF09220DF190
:1019000001010DF1020004F019F82E23694630465A
:101910008DF8013004F0C4F80F49304604F0C0F8E7
:10192000694668B2FFF78CFF9DF800306946202BAE
:1019300008BF2B23304608BF8DF8003004F0B0F804
:1019400008B070BD6A6200086E620008306300086B
:10195000000020418096184B706200080309092B93
:1019600000F00F0094BF3033373309280B7094BF59
:1019700030303730002348708B70704713B50A46FB
:10198000044601A9C0B2FFF7E9FF200A1146FFF79C
:10199000E5FF9DF8043093709DF80530D3709DF8F5
:1019A0000630137102B010BD13B50A46044601A9F2
:1019B000C0B2FFF7D3FF9DF8043001A993719DF8E1
:1019C0000530C4F30720D371FFF7C8FF9DF804303A
:1019D00001A913719DF80530C4F307405371FFF757
:1019E000BDFF9DF8043001A993709DF80530200ECD
:1019F000D370FFF7B3FF9DF8043013709DF80530E6
:101A000053700023137202B010BDF8B50E46069C49
:101A1000002121703178752927D17578632D01D186
:101A2000017807E0692D01D1018803E06C2D40F0B9
:101A30008A800168B778682F3BD1632D05D1214694
:101A4000BDE8F8400078FFF789BF692D05D1214630
:101A5000BDE8F8400088FFF791BF6C2D29D12146E1
:101A6000BDE8F8400068FFF79FBF73296BD171781C
:101A7000632902D190F9001007E0692902D1B0F979
:101A8000001002E06C295ED10168B0782B280AD1E1
:101A9000002903DA2D202070012008E008BF202053
:101AA0002070012006E000294FF0000002DA4942D0
:101AB00000E0002017461D464FF0300E002D06DADC
:101AC000013FBFB2013504F807E02DB2F6E703EAA3
:101AD000E373134418BF01359BB218BF2DB20A2718
:101AE0004FF02E0C984210D2013B9BB2C3EB020E7A
:101AF000AE451FBFB1FBF7FE07FB1E113031E154AD
:101B00000CBF04F803C07146ECE70023A3547A210C
:101B1000304603F0E5FFB0B1601CFFF751FE2046F0
:101B200004F082F9012383420CD2E25C202A06D021
:101B30002278234403F8012C20232370F8BD0133BD
:101B40009BB2F0E7F8BDF8BD034B0122DA831A6AB5
:101B500001321A62704700BF300000200B4B002199
:101B6000D98319620A4B0B4A1B68F020B3FBF2F3CE
:101B70004FF47A725343084A013B5360074B83F892
:101B80002300072391601360704700BF30000020DE
:101B90000000002040420F0010E000E000ED00E0F7
:101BA0002DE9F84F254B264D01281CBFAA461D469E
:101BB000894614462349244A06BF9A4688469046D9
:101BC000FFF7FCFB2846FFF771FC0428074630D1DD
:101BD0004FF6FF7BB9F1000F08BF4FF47A74013460
:101BE00005F1100624F001043444C5EB0A0AA642AC
:101BF00017D0B9F1000F03D13AF8061089B203E00B
:101C0000731B4B4433F8101C594501D10236EEE7E3
:101C1000B0450DD93046FFF703FC04280746F5D040
:101C200007E04FF011312846FFF716FC074600E0A9
:101C30008027FFF7CDFB3846BDE8F88F00E00108AC
:101C400000E40108FFE70108FFE3010810B5FFF712
:101C5000B5FB0748FFF72AFC0428044603D10548D2
:101C6000FFF724FC0446FFF7B3FB204610BD00BF7E
:101C700000E0010800E401080131C1F34F01002335
:101C80009AB291420AD9B3F5FC7F09D0054A1A44A9
:101C90005200128820F813200133F1E70420704726
:101CA0008020704708F0000438B50A4604460D4607
:101CB00001460020FFF774FFC0B2042801D080B2B3
:101CC00038BD2A4621460120FFF76AFFC0B238BD61
:101CD00038B5164B1D68D3F80044B5F1113F07D154
:101CE000B4F1113F01D104201DE0621C0ED104E0CB
:101CF0006B1C0BD1B4F1113F08D100221146012019
:101D0000FFF74EFFC0B204280DD1ECE7FFF79EFFAE
:101D1000C0B2042807D1013504D1013414BF4020DA
:101D2000202000E0402080B238BD00BF00E0010864
:101D30001FB501214FF40060FFF786FA0023ADF8CC
:101D40000A30ADF806304FF6FF73ADF80830094B96
:101D5000094A1B68094CB3FBF2F304A9013B21F8C3
:101D60000C3D2046FEF7D2F901212046FEF718FA75
:101D700004B010BD0000002040420F00002C0140C4
:101D800072B6094B9A8C92B262B6084908488B88A1
:101D90008A8093420B6884BF01330B6002EB0343DC
:101DA000A0FB033080097047002C01406001002037
:101DB000D34D621030B472B60D4B988C80B262B6BF
:101DC0000C490B8AD1E90245834204D9013445F11B
:101DD0000005C1E902452B04220443EA1443141808
:101DE00043F1000508822046294630BC704700BFF9
:101DF000002C01406001002008B50120FFF798FF8A
:101E0000064B00219A8C064B92B2196000200021EB
:101E10009A80C3E902011A8208BD00BF002C01406C
:101E200060010020184B10B5198889B28A060ED5BA
:101E3000164C17489A88238800880133DBB280B299
:101E4000834292B21FBF1348D2B2C25423800B0602
:101E500019D5114B114A1988138889B29BB299423E
:101E60000AD013880133DBB2138013880C4A9BB26B
:101E7000D35C054A938010BD034A938923F0800305
:101E80001B041B0C938110BD003801405C01002035
:101E90005E010020A40E00206E000020820E0020B3
:101EA000A40F00200A490B4A0B8812880133DBB2C9
:101EB00092B293420AD0084AD054084A0B809389C0
:101EC00001209BB243F0800393817047002070474C
:101ED0006E000020820E0020A40F00200038014078
:101EE0000548064972B602880B8892B29BB262B668
:101EF0009A42F7D1704700BF6E000020820E00208A
:101F00001FB5002300900C2269460848ADF8043044
:101F1000ADF80630ADF80830ADF80A20ADF80C3059
:101F2000FFF7AAF905B05DF804FB00BF00380140D7
:101F30007FB5334C012144F20500FFF785F94FF4DA
:101F40000073ADF8003003251823694620468DF84C
:101F500003308DF80250FFF7AFF84FF48063694605
:101F6000ADF800302046482304F540548DF8033086
:101F70008DF80250FFF7A0F802A8FFF7E1F902A9D7
:101F80002046FFF7CDF94FF4E130FFF7B9FF2523E5
:101F90008DF8043001260F2301A88DF805308DF847
:101FA00006308DF8076002F00FFB0022204640F259
:101FB0002771FFF7D7F9204640F22771FFF7EAF9BA
:101FC000204640F22661FFF7E5F90E4B00251D8003
:101FD0000D4B2A46204640F225511D80FFF7C2F9DD
:101FE000204640F22551FFF7D5F9084B31461D80B8
:101FF000074B20461D80FFF7A9F904B070BD00BF54
:1020000000080140820E00206E0000205E010020CA
:102010005C01002008B5FFF78BFFBDE80840FFF723
:102020007BBB000070B504460646044D0FCD0FC4BF
:1020300095E8070084E80700304670BD30000020B6
:10204000044B986800F0E05000F164435842584156
:10205000704700BF006400402DE9F34105460028A9
:102060007DD0046814F000547CD1FFF749FA3F4B4F
:102070009A6802F0E052B2F1E05F51D09A682646C9
:10208000C2F380628DF804209A689B68C2F3C06234
:10209000C3F300738DF805208DF80630FF2401ABE3
:1020A000F35C0BB1F4B234E0330103F1804303F588
:1020B000CB431868FFF718FA2F684FEAD07C4FEA35
:1020C000D778E04527F0604320F0604207F0004EEB
:1020D00000F0004110D0BEF1000F00D09B0C19B1F0
:1020E000900C984215D002E09A4217D010468342D5
:1020F0002CBF002001200BE0934205D1C0F380707B
:10210000C7F38077874203D193422CBF0020012080
:1021100020B10136032EC2D1FF2C01D1002022E0D4
:1021200023012A7C03F1804303F5CB435A60EA681C
:102130002968DA60AA6800299A60BABFCA0042F02A
:1021400004024A05490048BF42F0020242F001027F
:102150001A60074A012053690133536103E06FF0AD
:10216000010000E0034802B0BDE8F08100640040D7
:102170003000002015FCFFFF2DE9F041204F214ADF
:102180003D881388013505F03F059BB29D4290467E
:102190001D4C1CD01D4EF368DB0642BF2368013383
:1021A0002360D6F8B001FFF79FF918236B43184955
:1021B000C850CA18D6F8B43103F00F031374D6F818
:1021C000B8319360D6F8BC31D3603D8002E0A3689B
:1021D0000133A3603B889AB2B8F800309BB2D31A9F
:1021E000228A48BF40339342C4BF074A1382A3697F
:1021F00038220133A361054BDA60BDE8F08100BFEE
:10220000700000206C0000203000002000640040BE
:10221000180200202DE9F041204F214A3D88138803
:10222000013505F03F059BB29D4290461D4C1CD0E8
:102230001D4E3369DB0642BF236801332360D6F8A5
:10224000C001FFF751F918236B431849C850CA1849
:10225000D6F8C43103F00F031374D6F8C831936075
:10226000D6F8CC31D3603D8002E0E3680133E3600F
:102270003B889AB2B8F800309BB2D31A228A48BF82
:1022800040339342C4BF074A1382A3693822013303
:10229000A361054B1A61BDE8F08100BF700000200A
:1022A0006C00002030000020006400401802002074
:1022B000F8B500B3FFF724F9114D124B1A882B889B
:1022C00092B29BB29A4219D02A880F4C013218233D
:1022D00002F03F0203FB0244034604F118072646BE
:1022E00003CEBE4218605960344603F10803F6D1AC
:1022F0002A800120F8BD6FF00100F8BD0020F8BD74
:102300006C000020700000201802002037B5142354
:102310000024012501A88DF804308DF805408DF8C2
:1023200006408DF8075002F04FF9152301A88DF8EB
:1023300004308DF805408DF806408DF8075002F006
:1023400043F903B030BD0000032970B504460D46C3
:102350003ED800283CD00388013B9BB2B3F5806F88
:1023600036D2C388013B9BB2032B31D84388013B53
:102370009BB20F2B2CD88388013B9BB2072B27D80D
:10238000474E1C223046002103F03CFBAA1E53425C
:1023900053413377434B00225A611A684FF47A76DF
:1023A00022F002021A601A6842F001021A601A460C
:1023B00053683C49DB070ED44FF47A70FFF7E2F91B
:1023C000013EF5D14FF400430B606FF47A7070BD9D
:1023D0006FF0010070BD61230B60E2886388013AF1
:1023E000013B12061B0403F4702302F040721A43EF
:1023F0002388012D03F1FF33C3F3090342EA0302EB
:10240000A3884FF47A7403F1FF334FEA035303F4C4
:10241000E00343EA02030CBF4FF000420022032D09
:1024200043EA02030CBF4FF0804200221343CB610A
:102430000B6823F001030B6048681A4A10F0010092
:102440000AD04FF47A70FFF79DF9013CF4D14FF4B4
:1024500000431360144870BDD2F8003223F47C535B
:1024600023F00E0343F4606343F00103C2F800322B
:102470006FF07043C2F80402C2F80C320B4BC2F882
:1024800014320123C2F84002C2F84402C2F81C32DE
:10249000D2F8003223F00103C2F8003270BD00BF51
:1024A000300000200064004016FCFFFFAAAAAA0A20
:1024B000F0B500283DD00E293BD806461E4F00221D
:1024C000C7F81C224FF0010E93B299422FD950F851
:1024D0003250002D02DB7368002B05DB7368EC00C3
:1024E000DB0044F0040401E06C055B056D007568D9
:1024F00048BF44F00204002DB8BF43F004036D0050
:102500004FEAC20505F1804548BF43F0020305F5D7
:10251000C845C5F84042C5F84432D7F81C320EFA17
:1025200002F42343C7F81C3201320836CCE70020FE
:10253000F0BD6FF00100F0BD0064004013B504462B
:1025400001214FF00070FEF78BFE01211CB1092024
:10255000FEF77AFE02E00420FEF776FE48238DF8AF
:10256000073003238DF8063044B14FF4807301A97E
:102570001648ADF80430FEF79FFD07E04FF4006306
:1025800001A91348ADF80430FEF796FD18238DF825
:10259000073003238DF806306CB14FF4007301A9A6
:1025A0000A48ADF80430FEF787FD01214FF4EA1028
:1025B000FEF7D8FD07E04FF4805301A90448ADF8B9
:1025C0000430FEF779FD02B010BD00BF000C0140E1
:1025D0000008014010B5441E14F8010F10B1FFF7B8
:1025E00061FCF9E710BD000070B51E468AB00AAC68
:1025F00024F81A0D05AD134620460A4600950549F4
:10260000FFF703FA2846FFF7E5FF3046FFF7E2FF42
:102610000AB070BD7262000870B51E468AB00AAC7E
:1026200044F81C0D05AD134620460A4600950549A1
:10263000FFF7EBF92846FFF7CDFF3046FFF7CAFF5B
:102640000AB070BD7B62000810B504460748FEF76B
:1026500067F8230403F47F0343F0802343F08003EF
:1026600000F07F0043EA002010BD00BF24080020D6
:1026700038B50C460546002101602346C0F803101A
:102680002022FEF763FA231D022220212846FEF7AE
:102690005DFAA31D032222212846FEF757FA04F112
:1026A0000803032225212846FEF750FA04F10A0305
:1026B000102228212846FEF749FA0448FEF730F890
:1026C000034BA0811B78E38138BD00BF24080020A4
:1026D0007200002010B5FFF76DFB064A002302F0E0
:1026E000FDFA054C20602146BDE810400348FFF785
:1026F000BFBF00BF40420F005C000020480C00201C
:1027000030B50F4C87B02388A3B104F58565284602
:10271000FFF7E0FF0723049314230293094B03956B
:10272000019340F25513201D009303A3D3E9002326
:10273000FDF7F8FF07B030BDF1C6A7C1D068080F9C
:10274000200800207200002010B5064C1022002145
:10275000204603F057F9044B00221A700123E3804E
:1027600010BD00BF5C0000207200002000000000CF
:10277000F7B5044640F279120E46002103F042F903
:102780002046FFF7A7FF1AA1D1E900010423237215
:10279000002502AB012763E90201E571204667725B
:1027A00020225021FEF7D2F90F4AA7751346E5758E
:1027B00003CBA061E16118680C4B206210682934DA
:1027C00044F8050C03F1180253F8041B934244F833
:1027D000041BF9D11A889B782280A370442333808C
:1027E00003B0F0BDAFF30080E8F7FF1F8062000880
:1027F000ED04AE050000000070B5134D88B02B88C5
:102800000446CBB105F585660DF11E013046FFF794
:10281000AFFFBDF81E30E17E0593002304960393BD
:10282000A37E1934029301230093019404A3D3E9F6
:102830000023281DFDF7C9FF08B070BDAFF300806D
:102840009E6AC421818A46EE2008002070B50546A4
:102850008AB00E464922002103F0D4F803A8FFF7FE
:10286000E1FB089B00248DE8180021466B462846B2
:102870003022FEF76BF9099B30228DE818001146D3
:102880006B462846FEF762F9039B049A60211A44BE
:10289000059B28461A44069B13448DE818003022F5
:1028A0006B46FEF753F9122333800AB070BD000067
:1028B00070B5134D88B02B880446CBB105F58566FD
:1028C0000DF11E013046FFF7C1FFBDF81E30E17E5D
:1028D0000593002304960393A37E193402930423E3
:1028E0000093019404A3D3E90023281DFDF76DFF95
:1028F00008B070BDAFF30080042B31ECA7766FBE3B
:102900002008002037B504460D461022002103F0B0
:1029100079F800231946009428222846FDF7EAFF9B
:10292000EB7E23816B7E638103B030BD10B4002445
:1029300004700B460122214610BCFEF707B90000C7
:102940001FB501466846FFF7DDFFDDE9000106A37C
:10295000D3E90023994206BF90420120002005B030
:102960005DF804FBAFF300801E1B55CEAC000000E9
:102970000149FFF7DBBF00BF5A0000200000000044
:1029800070B5114D86B02B880446B3B105F5856648
:102990003046FFF7EDFF0123E17E05930023049607
:1029A0000393A37E1934029305230093019404A397
:1029B000D3E90023281DFDF708FF06B070BD00BF56
:1029C000F017304A39059E5620080020014B00229E
:1029D0001A8070475A00002037B50D460446002380
:1029E000036083801946009008222846FDF782FF85
:1029F000EB7E63806B7EA38003B030BD002202605B
:102A00000B46C0F8032030210122FEF79FB80000DA
:102A10000149FFF7F3BF00BF800E00200000000057
:102A200070B5114D86B02B880446B3B105F58566A7
:102A30003046FFF7EDFF0723E17E05930023049660
:102A40000393A37E193402930A230093019404A3F1
:102A5000D3E90023281DFDF7B8FE06B070BD00BF06
:102A6000CDD269EBC51A133B2008002073B516467A
:102A70000C46054609880023009003223046FDF7E6
:102A800039FF2188033189B221802B88012B08D19D
:102A90000835009540223046FDF72CFF238840334F
:102AA000238002B070BDF0B50E460746002485B005
:102AB00040222146ADF80E4002F0A4FF23460D222D
:102AC000214600973046FDF715FFBDF80E3004A9EA
:102AD0000D3321F8023D324607F10800FFF7C6FF2B
:102AE000BDF80E30B58A0733C3F3CF03ED1A2DB20C
:102AF0001F2DADF80E30A8BF1F25A3B2AB4204F1C5
:102B000001040CDABDF80E100822194418333B44B6
:102B10000093C90000233046FDF7ECFEEDE7F37E9D
:102B20003B87737E7B8705B0F0BD70B50C461546BC
:102B30001346098803220646FEF708F82188033168
:102B400089B221802B88012B08D105F1080340228E
:102B50003046FDF7FBFF23884033238070BD70B5FE
:102B60000C4615461346098802220646FDF7EEFF7D
:102B70002188023189B221802B88012B08D105F1EF
:102B8000080340223046FDF7E1FF238840332380CD
:102B900070BD2DE9F74306461446884640F273128D
:102BA000002102F02FFF02AD052325F8023D224649
:102BB00029463046FFF7B9FFBDF8063004F1100290
:102BC000053329463046ADF80630FFF7AEFFBDF8B5
:102BD000063004F12002063329463046ADF80630AF
:102BE000FFF7BDFFBDF8063004F130020633294679
:102BF0003046ADF80630FFF7B2FFBDF8065040345E
:102C00000735ED101FFA85F92046ADF8069003F060
:102C10000BF9214682B20746701902F019FE4F44A3
:102C2000A8F8007003B0BDE8F0830000014AFFF788
:102C3000B0BF00BFB801002070B5134D88B02B881D
:102C40000446CBB105F585660DF11E013046FFF750
:102C5000EDFFBDF81E30E17E05930023049603933B
:102C6000A37E193402930B230093019404A3D3E9A8
:102C70000023281DFDF7A9FD08B070BDAFF300804B
:102C8000D5A4D139F922B6A7200800202DE9F047B4
:102C90000B7E04460D4623B90E88042E00F2928066
:102CA00013E0DFF8308100274FF0140901F1180A12
:102CB00009FB0783102299685046BEB203F0E2F880
:102CC00018B10137052FF3D17CE02B894149B3B10D
:102CD000142272438B181B79013B052B0FD8DFE8B8
:102CE00003F0030307070B0B8B582A691A7006E0E1
:102CF0008B582A691A8002E08B582A691A600123CE
:102D0000002223862384238223800023C4E9062310
:102D1000C4E90E23304A0023C4E90A231423734371
:102D2000CA1811792B480139052944D8DFE801F088
:102D300003091022383EC35800211878C4E9020163
:102D400039E0C35893F90000C117C4E9020132E029
:102D5000C35800211888C4E9020190890021C4E900
:102D60000601D0890021C4E90E01108A0021C4E9BE
:102D70000A0120E0C358B3F90000C117C4E90201F9
:102D8000B2F90C00C117C4E90601B2F90E00C1176F
:102D9000C4E90E01B2F91000C117C4E90A010AE042
:102DA000C3581B68A3600023E36004E0C35818689D
:102DB000C117C4E9020104F140009168BDE8F04781
:102DC00002F0D4BF2046BDE8F0476022002102F0A7
:102DD00019BE00BFAC5F000880841E00054B10B513
:102DE00000241C8060222146034802F00BFE034BA6
:102DF0001C8010BD800E0020B80100205A00002069
:102E00002DE9F74F0C460B4616460021032280465B
:102E1000FDF79CFEA01C03F007F802AB23F8020D9F
:102E2000052203214046FDF791FE0023BDF8062050
:102E30005F1C9BB29A424FEAC70508D9234402336C
:102E4000082229464046FDF781FE3B46EEE704F1A5
:102E50002307384602F0E8FFAB461FFA80FA0AF172
:102E60002309A1444F4509D03B4659460822404614
:102E7000FDF76CFE0BF1080B0137F3E705EBCA0514
:102E8000ED0835800548FDF74BFC054BA4F88000A4
:102E90001B78A4F8823003B0BDE8F08F240800202E
:102EA000580000200A460149FFF7AABFA4100020DD
:102EB00030B5114C89B02388BBB104F5856528462F
:102EC0000DF11E01FFF7EEFFBDF81E3003950493D0
:102ED00018230293094B201D019343F6FF730093BF
:102EE00003A3D3E90023FDF71DFC09B030BD00BFEB
:102EF000759D040C8EA454D6200800205800002094
:102F000008B584220021034802F07CFD024B002218
:102F10001A7008BDA410002058000020F7B50C4618
:102F2000054617460B4608220021FDF70FFE231D1C
:102F3000284620220821FDF709FE04F1080320227B
:102F400028212846FDF702FEE068FEF727F802AECA
:102F500026F8020D3346102248212846FDF7F6FDDB
:102F60002069FEF71BF83346ADF806001022582101
:102F70002846FDF7EBFD6069FEF710F83346ADF823
:102F80000600102268212846FDF7E0FDA069FEF743
:102F900005F83346ADF80600102278212846FDF7E3
:102FA000D5FD11233B800448FDF7BAFB034BA083FA
:102FB0001B78E38303B0F0BD24080020180800202C
:102FC0000A460149FFF7AABF840E00200000000056
:102FD00030B5114C89B02388BBB104F5856528460E
:102FE0000DF11E01FFF7ECFFBDF81E3003950493B1
:102FF00018230293094B201D019340F203430093D1
:1030000003A3D3E90023FDF78DFB09B030BD00BF5A
:10301000DAF522A18BF37DC72008002018080020D4
:1030200008B520220021034802F0ECFC024B0022EC
:103030001A7008BD840E00201808002038B50C4B0B
:10304000002203F5C961002400250A48C3F8402680
:10305000C3F85026C1E9004503F5CB630021C3E95D
:103060000001FFF74DFFBDE83840FFF7D9BF00BFB3
:1030700020080020A086010010B5104C9CB0012053
:103080000194FFF7E1FA009004200394FFF7DCFAC3
:10309000029005200594FFF7D7FA04900A200794C0
:1030A000FFF7D2FA06900B200994FFF7CDFA05211D
:1030B00008906846FFF7FCF91CB010BD80FFFFC008
:1030C00010B5094C23880BB9002010BD201DFDF759
:1030D000C3FB0028F8D0FEF7BFFF0028F4D0201D66
:1030E000FDF7BEFB012010BD2008002010B50B4CE1
:1030F00086B0208880B16846FFF7DAF800280BD048
:1031000009DDFEF757FE02460B46201D6946FDF716
:1031100065FD012000E0012006B010BD2008002060
:103120002DE9F7431E4C2388002B36D0FEF742FED4
:103130000F46064604F5C561D1E900894F4508BF31
:10314000464512D3174A002312EB080243EB09034A
:10315000C1E90023FEF72EFE02460B46201DFDF7B7
:1031600089FB211D6846FDF711FFD4F83046A4B154
:103170000D49D1E900239F4208BF96420DD3002597
:1031800012196B419F4208BF9642F9D2C1E9002350
:1031900003B0BDE8F043FFF7B3BA03B0BDE8F08376
:1031A0002008002040420F00580E002010B5134C9C
:1031B0004FF4CC620021204602F024FC201D0021A7
:1031C000FDF7A7FA40F6B83040F2DC52002104F5D2
:1031D000C563C3E900010A4B04F5C76444F8083C21
:1031E0000023C4E90023FFF7AFFAFFF7EFFBFFF777
:1031F000F5FDBDE81040FFF721BF00BF200800200B
:1032000040420F007FB5FFF7D1FF0020FFF796F98E
:10321000092324215A1CB1FBF2F56A43242ADEB2A9
:1032200004D0013B012BF5D100204EE0C3EBC303DA
:10323000DA1CD210D0B24FF47A7401325443311AEE
:10324000C9B20A4494FBF2F2B2F5617FC2BF03F146
:10325000FF33C3F3C700311A00F1FF33C8BFC9B24F
:103260000F2B05D84B1E072B8CBF0023012300E03A
:103270000023421802FB0554154AB2FBF4F2154C28
:10328000A242D1D1002BCFD0ADF80A00ADF80C107E
:103290000124022102A8ADF80850ADF80E40FFF756
:1032A00053F80028C0DB00230B4D01930B4BA5F115
:1032B000240000934FF48062094B2946FDF701FA80
:1032C000FFF724F8204625F8284C04B070BD00BF55
:1032D0000051250240420F0048080020391500081F
:1032E000AD34000810B50446FFF78CFF48B105481F
:1032F00004F07F01FDF70DFAFFF7BEFEFEF71EFAA0
:10330000012010BD24080020044BDA884FF47A73A2
:103310005343034AC2F83036704700BF780100209B
:1033200020080020064B31225A809A804FF47A728E
:10333000DA806F221A8101225A81FFF7E5BF00BFB0
:10334000780100201B4B5A885AB1132A9CBF1422C3
:103350005A805A88642A82BF164A642151805A884A
:103360000AB931225A80DA88312A9EBF114A4FF4B5
:103370007A71D18041F28832D988914282BF0D4A58
:103380004FF47A71D1801A895AB1092A9EBF094A2D
:103390006F2111811A89B2F57A7F82BF054A6F21A8
:1033A00011815B89022B82BF024B00225A81FFF7F9
:1033B000ABBF00BF7801002038B51422FF2121489F
:1033C00002F020FBFFF7A0FFFEF782FCC0B204284A
:1033D0001C4D0CD01422FF211A4802F013FBFFF7FA
:1033E00093FFFEF775FCC0B204280FD107E014214B
:1033F0002846FEF741FCC0B204280ED0EAE71421AB
:103400001048FEF739FCC0B2042806D01422FF2170
:103410000C4802F0F7FAFFF777FF2B88094C012BD5
:103420000CD0FFF77FFF20460123074920F80C3B13
:1034300002F09CFC14212046FEF736FCBDE8384023
:10344000FFF780BF780100209C620008142101482A
:10345000FEF72ABC7801002038B50588084C25B94C
:10346000FFF7F4FF0123238038BD012D05D1FFF7BD
:1034700059FFFFF7EBFF258038BD0023238038BDBF
:10348000800E002008B541F28830FEF77BF905492F
:10349000054BCA6802F4E0621343CB60BFF34F8F61
:1034A000FEE700BF00ED00E00400FA0530B50B7E3A
:1034B00091B0012B0C465DD1CB8A013B0A2B59D828
:1034C000DFE803F00658580A0E585858583C4A008E
:1034D0000846FFF791F94DE00846FFF7E9F949E0A2
:1034E0000846FFF72DFA0546234B2146188023484E
:1034F000FDF764FB2046FFF743FA002D3AD0FEF7B4
:1035000059FC1F4C002524184D411C48FDF7A4F917
:1035100070B1FFF7D5FDFEF74DFC8D4208BF844228
:10352000F3D205E0FEF746FC8D4208BF844203D388
:10353000FEF786FD0028F5D0FFF7A4FF6846FFF7E9
:103540004BFA6846FFF788FF21460C48FDF736FB2B
:103550002046FFF765FA0DE06846FFF7A4FA6946D2
:103560000848FFF793FB05482146FDF727FB204657
:10357000FFF762FB11B030BD5A0000202408002084
:1035800020A10700B801002007B501210420FDF7A4
:103590005BFE4FF48073ADF8043010238DF80730D4
:1035A00001A9032303488DF80630FDF785FD03B01C
:1035B0005DF804FB00080140014608B5064801F02B
:1035C00064F80121044801F071F80028F9D002489C
:1035D00001F05DF8C0B208BD0030014038B50546C5
:1035E0000C463CB1FF20FFF7E7FF013C05F8010B5B
:1035F000A4B2F6E738BD38B505460C4634B115F827
:10360000010B013CFFF7D8FFA4B2F7E738BD00007B
:10361000054AC000138800F0380023F038031B046B
:103620001B0C0343138070470030014037B504463C
:10363000184D0021284601F01CF82B88601E23F04D
:10364000030283B2022B86BF0023194612484FEAB9
:1036500002429EBFC01890F8701090F87330120CA0
:103660000B430C4813430380012101F002F80221AF
:10367000084801F01BF80028F9D0064801F007F8C7
:10368000ADF80600BDF806309BB2ADF8063003B0C9
:1036900030BD00BF00300140A05F000870B50121BF
:1036A00088B04FF48050FDF7CFFD01210520FDF7D4
:1036B000CBFD0324A023182602A92648ADF8083024
:1036C0008DF80A408DF80B60FDF7F6FC4023ADF84D
:1036D000083002A948231F488DF80B308DF80A40A6
:1036E000FDF7EAFC4FF48273ADF80E304FF400732F
:1036F00000240125ADF8163003A907231648ADF8BC
:103700001C30ADF80C40ADF81040ADF81240ADF8EB
:103710001450ADF81860ADF81A4000F08BFF214648
:103720000D4800F0B7FF29460B4800F0A2FF022128
:10373000094800F0BBFF0028F9D0074800F0A7FFB8
:10374000ADF80600BDF806309BB2ADF8063008B003
:1037500070BD00BF0008014000300140054B80EA09
:10376000112003EB4000B0F8760080EA012080B21F
:10377000704700BFA05F000800BF00BF00BF00BFD0
:1037800000BF00BF00BF00BF00BF00BF00BF00BF41
:1037900000BF00BF00BF7047074B984203D1012113
:1037A0000420FDF751BD054B984203D101210820AB
:1037B000FDF74ABD704700BF00080140000C014002
:1037C0002DE9F3412A4C2B4D20460221FDF7C6FC82
:1037D00028460221FDF7C2FC28461021FDF7BEFC59
:1037E00020460121FDF7BAFC02AE032302274FF069
:1037F0001008012104208DF806308DF80780FDF7B0
:1038000023FD26F8047D31462846FDF755FC394650
:103810002846FDF7A3FC2046FFF7BEFF31462046B1
:10382000ADF80470FDF748FC39462046FDF796FCDC
:103830002046FFF7B1FF012731462046ADF804705E
:10384000FDF73AFC39462046FDF788FC394604204E
:10385000FDF7FAFC31462846ADF80480FDF72CFC54
:1038600041462846FDF77AFC02B0BDE8F08100BF72
:10387000000C01400008014008B5FFF7A1FFFFF769
:103880000DFFBDE808400320FFF7C2BE2DE9F0415F
:103890000546DFF81C82742202FB00867D4F002162
:1038A00007EB0517304602F0ADF8B7F88412D7F8E9
:1038B0008002FDF753FCD7F87842B7F87C722046B7
:1038C0003946FDF74BFCFFF757FF0020FFF7AEFE30
:1038D000FFF752FF39462046FDF740FCFFF74CFF4B
:1038E00039462046FDF73CFCFFF746FF0320FFF773
:1038F00063FE0020FFF760FE4FF4E6716648FFF7B5
:103900006DFEFFF739FF39462046FDF727FCFFF72C
:1039100033FF614B444603F1100C1A466746B64626
:10392000186859680833AEE8030063457646F6D157
:1039300074236B433E6803F110012144C1F8016018
:103940007E68481CC1F8056039890181B97A03F1A4
:1039500020078172514904EB070E0E4656F8040BFE
:10396000E051306803F12807CEF804008E465EF877
:10397000080FE619E0519EF8040092F828E0307133
:10398000474807F800E0E018034692F83D7001F15F
:10399000670E80F8307092F83F70343380F83170E1
:1039A00092F8417080F8327092F8437080F833706A
:1039B00001F177079C46DEF80000DEF804100EF1F6
:1039C000080EACE80300BE456346F3D1742303FB45
:1039D0000543344F443307F1100C9E46386879682C
:1039E0000837AEE8030067457346F6D1742303FB3E
:1039F00005432D4F543307F1100C9E463868796803
:103A00000837AEE8030067457346F6D1742303FB1D
:103A10000543264900270988A3F864104FF6FF7173
:103A2000D05DFFF79BFE0137B7F5E17F0146F7D187
:103A300074236B43E718B7F86420A7F86600824246
:103A400024D11B4AD3581B4A23F07F4393421DD1F4
:103A50004FF07E53BB661849304602F0A9F808B90A
:103A6000164BBB661649304602F0A2F820B9742303
:103A700003FB0543134A9A66742303FB05440120A4
:103A80000023E366A4F87000BDE8F0810020BDE8E3
:103A9000F08100BFA05F0008281100204311002022
:103AA0007A000020FA1100204A120020EA120020B9
:103AB0007400002052534300A16200080F76D745DE
:103AC000A5620008C31679432DE9F04774264643E2
:103AD000624D8AB0771980463846FEF77BFD0A2092
:103AE000FEF7E0F938461130FEF774FD02AC0A200B
:103AF000FEF7D8F9396A0A2304222046FDF764FD4F
:103B00002046FEF767FD0A20FEF7CCF9796A0A2302
:103B100004222046FDF758FD06F1280720462F44D1
:103B2000FEF758FD0A20FEF7BDF93846FEF752FDB4
:103B30000A20FEF7B7F9B81DFEF74CFD0A20FEF784
:103B4000B1F900274648FEF745FD06F1300038443C
:103B500000230722434928440094FDF756FF2046DE
:103B6000FEF738FD01370A20FEF79CF9042FDFF835
:103B7000ECA0E7D1FEF7B4F9742606FB08F606F1CF
:103B8000300706F140095744CA4457F8041F20463D
:103B9000FDF76AFE2046FEF71DFD0A20FEF782F9BA
:103BA0005745F2D1FEF79CF906F15007A94405EB01
:103BB000070A59F8041F2046FDF756FE2046FEF777
:103BC00009FD0A20FEF76EF9D145F2D1FEF788F91A
:103BD00060362F442E4457F8041F2046FDF744FE5C
:103BE0002046FEF7F7FC0A20FEF75CF9B742F2D157
:103BF000FEF776F91A48FEF7EDFC742303FB08F68E
:103C000006F160072F44002307221749381D00944E
:103C1000FDF7FBFE2046FEF7DDFC0A20FEF742F929
:103C20000F48FEF7D7FC002307220F49B81D009468
:103C3000FDF7EBFE2046FEF7CDFC35440A20FEF7EB
:103C400031F9A96E2046FDF70FFE2046FEF7C2FCB3
:103C50000A20FEF727F90AB0BDE8F08774000020BB
:103C6000AB620008AE620008B26200082DE9F04FB6
:103C7000742646438F4D8BB005EB060ABAF87030B8
:103C800080460C46174633B920468B490BB0BDE839
:103C9000F04F02F06BB88949204602F067F817F040
:103CA00001094CD0864902A802F060F808F13003FF
:103CB00002A920468DF80B3001F0F2FE5146204655
:103CC00001F0EEFE7F49204601F0EAFEA91911310C
:103CD000204601F0E5FE7B49204601F0E1FE0A2383
:103CE0000422DAF8201002A8FDF76EFC02A9204693
:103CF00001F0D6FE7349204601F0D2FE0A230422C9
:103D0000DAF8241002A8FDF75FFC283602A9204645
:103D100001F0C6FE2E446B49204601F0C1FE31463B
:103D2000204601F0BDFE6749204601F0B9FEB11DF5
:103D3000204601F0B5FE6349204601F0B1FEBE0702
:103D400028D56149204601F0ABFE4FF0740A0AFB0A
:103D500008FA00265D49204601F0A2FE0AF1300073
:103D600030440DF1080B0023072259492844CDF8AF
:103D700000B0FDF74AFE5946204601F091FE01369B
:103D80005449204601F08CFE042EE3D14D492046D3
:103D900001F086FE780702D4390737D51BE04E497B
:103DA000204601F07DFE742303FB08F303F1300A83
:103DB0004033AA44EE185AF8041F02A8FDF754FD38
:103DC00002A9204601F06CFE3E49204601F068FE43
:103DD000B245F0D1E0E74149204601F061FE74238D
:103DE00003FB08F303F1400A5033AA44EE185AF8D3
:103DF000041F02A8FDF738FD02A9204601F050FE7D
:103E00003049204601F04CFEB245F0D1FA061AD5F1
:103E10003349204601F044FE742303FB08F303F109
:103E2000500A6033AA44EE185AF8041F02A8FDF79E
:103E30001BFD02A9204601F033FE2249204601F075
:103E40002FFEB245F0D1B9F1000F26D01F49204610
:103E500001F026FE742303FB08F802AE05EB080010
:103E6000002307221F4964300096FDF7CEFD31463E
:103E7000204601F015FEA8441249204601F010FE2C
:103E8000D8F868103046FDF7EFFC3146204601F0C7
:103E900007FE0C49204601F003FE3B0406D52046F0
:103EA00011490BB0BDE8F04F01F0FABD0BB0BDE811
:103EB000F08F00BF74000020B6620008D5620008D1
:103EC000D0620008D4620008D6620008AB62000825
:103ED000AE62000830630008E2620008EB6200088E
:103EE000F2620008B2620008FA62000870B5044687
:103EF00000252046FFF7CAFCAEB2024638B94CF2A4
:103F000050300135FDF73EFC052DF2D12E460D4B0C
:103F10005B89022B0FD102F13000C0B2FDF7C2FF66
:103F200006F13000C0B2FDF7BDFF0A20FDF7BAFF71
:103F30002046FFF7C9FD044B742202FB0434B4F899
:103F4000700070BD78010020740000202DE9F04160
:103F500074244443DFF8A88008EB0403B3F87030FE
:103F6000002B48D0254B03EB0015D5F88062B5F83F
:103F7000847230463946FDF7F1F8B5F87C12D5F871
:103F80007802FDF7EBF8FFF7F7FB0120FFF74EFB98
:103F9000FFF7F2FB39463046FDF7E0F8FFF7ECFBA0
:103FA00039463046FDF7DCF8FFF7E6FB0620FFF761
:103FB00003FB4FF47A70FDF7E5FB4320FFF7FCFAB3
:103FC00004F1300004214044FFF715FB4FF47A70F0
:103FD000FDF7D8FB0820FFF7EFFAFFF7CDFB3046DF
:103FE0003946FDF7BBF8FFF7C7FBBDE8F04141F2EA
:103FF0008830FDF7C7BBBDE8F08100BFA05F0008B7
:1040000074000020F8B514460F46134B03EB001064
:10401000B0F88462D0F8805231462846FDF7A0F807
:10402000FFF7AAFB4420FFF7C7FA600137B140F061
:10403000060000F0E600FFF7BFFA05E040F00400DC
:1040400000F0E400FFF7B8FAFFF796FB3146284688
:10405000BDE8F840FDF782B8A05F0008134B37B504
:1040600003EB0010B0F88452D0F880422946204675
:10407000FDF776F8FFF780FB1020FFF79DFA01A807
:104080000321FFF7ABFAFFF777FB20462946FDF740
:1040900065F89DF805309DF804001B0203EB004312
:1040A0009DF80600184403B030BD00BFA05F0008B3
:1040B00008B5B0F5005F28BFA0F5804000B200F061
:1040C000CDFB4FF0745100F01DFC08BDB1F5005F51
:1040D00028BFA1F58041F8B5064608B2144600F0A5
:1040E000BDFBB6F5000F05462CBF06F17F403046FC
:1040F00000F0B4FBE16E00F0FDFA216C06462846A4
:1041000000F000FCE16B00F0F5FA294600F0FAFB44
:10411000A16B00F0EFFA294600F0F4FB616B00F0B0
:10412000E9FA0146304600F0E3FA216D06462846DA
:1041300000F0E8FBE16C00F0DDFA294600F0E2FB5C
:10414000A16C0746284600F0DDFB0146384600F02A
:10415000D1FA616C00F0CEFA0146304600F086FCE0
:104160000546216E00F0CEFBE16D00F0C3FA294652
:1041700000F0C8FBA16D00F0BDFA294600F0C2FBBB
:10418000616D00F0B7FA216A00F0BCFB616A00F0D3
:10419000B1FAF8BD264B70B55A891E46022A02D1E3
:1041A0002448FEF717FAFFF767FB0020FFF79EFE93
:1041B000214D224C30B195F82E30442B02D10023F2
:1041C000638009E00120FFF791FE28B195F8A23045
:1041D000442B04BF012363806088FFF7B7FE3222BF
:1041E000226161880022E2616262A262742202FBA3
:1041F00001520023A380A360E360638323622383CF
:10420000A382E3827389B2F87020022B22800DD141
:104210000B48FEF7DFF9094B98783030C0B2FDF754
:1042200041FEBDE870400A20FDF73CBE70BD00BFF6
:104230007801002020630008740000208C01002019
:104240002963000838B50B4C238893B10A4D2B899C
:10425000092B0ED9FDF794FDA3682A89C31A93424E
:1042600007D3A38813B1801AA06038BD0123A060D2
:10427000A38038BD8C0100207801002038B50C4B9C
:104280001B889BB10B4C002323800B4B0B4D9A6A70
:104290006560A260E560D869094900F02BFA6561A4
:1042A0002061A561BDE83840FEF792BE38BD00BF71
:1042B00020080020840E00208C0100200000C07F18
:1042C0003393884330B5544C87B0A388013B042B0B
:1042D00000F29F80DFE803F0031A2E456700A28AF0
:1042E00001216088FFF78EFEFDF74AFDA28A4B4B45
:1042F000E06003EB4203B3F898224FF47A7393FB28
:10430000F2F3023323610223A38082E0FDF738FD3C
:10431000E368414DC01A236998427AD36888FFF751
:104320009DFEC0F38F206883FFF7C2FE0323E86180
:10433000AB806EE0E28A00216088FFF763FEFDF744
:104340001FFDE28A354BE06003EB4203B3F898228D
:104350004FF47A7393FBF2F3023323610423A380B7
:1043600057E0FDF70DFDE3682B4DC01A2369984215
:104370004FD36888FFF772FE2B8B28620BB10023A6
:104380002B836388264A742505FB0325618B2A4607
:10439000FFF79CFE01466062A86E00F0B3FA0523A9
:1043A000A062A38035E01F4B5B89022B2DD11E4BF1
:1043B00000220C21206AFEF72FF9206A1A4BB0F573
:1043C000000F28BF00F17F4000220C21FEF724F9E6
:1043D000616A01A8FDF748FA01A8FEF7FBF8124848
:1043E000FEF7F8F8104B00220821B4F91A00FEF786
:1043F000FBF810230622E16901A8FDF7E5F801A802
:10440000FEF7E8F80A20FDF74DFDFFF737FF002320
:10441000A38007B030BD00BF8C010020A05F000862
:1044200074000020780100202E63000838B52D4B61
:104430001B88002B54D02C4B5B89002B50D02B4B6E
:104440001A881AB940F2F3121A8001E0013A1A8070
:104450001C88002C44D1264D2649284620F8024BC2
:1044600001F084FC244B9A8C013292B2132A94BF3F
:104470009A849C849B8C013B042B31D8DFE803F0A9
:10448000030A11181F001D4B01221D495888FFF710
:10449000EDFB1AE0194B022219495888FFF7E6FB99
:1044A00013E0164B042216495888FFF7DFFB0CE097
:1044B000124B082212495888FFF7D8FB05E00F4B32
:1044C00010220F495888FFF7D1FB0D4801F0ACFCD2
:1044D0000023284480F82230BDE83840FEF7E8BCCD
:1044E00038BD00BF200800207801002028000020EF
:1044F000A410002032630008300000208C0100204E
:10450000C71000202DE9F843FDF784FDFDF726FBD9
:10451000FFF73AF8FDF770FCFEF74EFFFFF73AFEA3
:10452000244B9878FEF7DEFE58B92349CB68642007
:10453000DB4303F4807343F080730B61FDF729F9CB
:10454000F4E71E4DFEF7E0FE0023EB801C4B1B88BA
:104550000BB90323AB801B4E174FB0460024FEF768
:10456000C5FD0028FBD1FEF7ABFD81460028FAD13E
:10457000FEF7D6FDF38B9BB2002BF0D0A8F81E906F
:1045800034B9AB8840F2F314002B18BF312409E092
:10459000013CA4B234B9FB68DB4303F4807343F0FD
:1045A00080733B61FFF74EFEFFF78CFEFFF73EFF87
:1045B000D5E700BF78010020000801405C00002022
:1045C0008C01002030000020C27810B503780AB3B7
:1045D000164A03F16043D1684278C943C1F302210E
:1045E000C1F1040402FA04F40F22CA40817803F5F1
:1045F00061430A4022431201D2B283F800230378B8
:104600000122590903F01F0302FA03F3084A42F892
:10461000213010BD5A09012103F01F0301FA03F3F1
:104620000349203241F8223010BD00BF00ED00E008
:1046300000E100E003880A8810B503F441544B8878
:1046400013438A881343CA8813430A8913434A8948
:1046500013438A891343CA89134323439BB20380BC
:10466000838B23F400631B041B0C83830B8A03825C
:1046700010BD038819B19BB243F0400303E023F05F
:1046800040031B041B0C03807047818170478089A5
:1046900080B27047038819B19BB243F4005303E022
:1046A00023F400531B041B0C038070470389194239
:1046B00014BF012000207047D0400B1CD1409C4605
:1046C000203AD34018435242634693401843704700
:1046D0009140031C90409C46203A9340194352421B
:1046E0006346D3401943704780F0004002E000BFAA
:1046F00081F0004142001FBF5FEA410392EA030FCD
:104700007FEA226C7FEA236C6AD04FEA1262D2EB16
:104710001363C1BFD218414048404140B8BF5B421B
:10472000192B88BF704710F0004F40F4000020F0B4
:104730007F4018BF404211F0004F41F4000121F0CA
:104740007F4118BF494292EA030F3FD0A2F1010214
:1047500041FA03FC10EB0C00C3F1200301FA03F152
:1047600000F0004302D5494260EB4000B0F5000F75
:1047700013D3B0F1807F06D340084FEA310102F134
:104780000102FE2A51D2B1F1004F40EBC25008BFE6
:1047900020F0010040EA03007047490040EB0000B0
:1047A00010F4000FA2F10102EDD1B0FA80FCACF1DF
:1047B000080CB2EB0C0200FA0CF0AABF00EBC250DE
:1047C00052421843BCBFD0401843704792F0000FCC
:1047D00081F4000106BF80F400000132013BB5E71F
:1047E0004FEA41037FEA226C18BF7FEA236C21D095
:1047F00092EA030F04D092F0000F08BF08467047FA
:1048000090EA010F1CBF0020704712F07F4F04D1C7
:10481000400028BF40F00040704712F100723CBFDA
:1048200000F50000704700F0004343F0FE4040F404
:10483000000070477FEA226216BF08467FEA2363C2
:104840000146420206BF5FEA412390EA010F40F4AD
:10485000800070474FF0000304E000BF10F00043F9
:1048600048BF40425FEA000C08BF704743F09643E0
:1048700001464FF000001CE050EA010208BF7047FB
:104880004FF000030AE000BF50EA010208BF704782
:1048900011F0004302D5404261EB41015FEA010C97
:1048A00002BF84460146002043F0B64308BFA3F18F
:1048B0008053A3F50003BCFA8CF2083AA3EBC25371
:1048C00010DB01FA02FC634400FA02FCC2F1200290
:1048D000BCF1004F20FA02F243EB020008BF20F0C7
:1048E0000100704702F1200201FA02FCC2F120022D
:1048F00050EA4C0021FA02F243EB020008BF20EA22
:10490000DC7070474FF0FF0C1CEAD0521EBF1CEA4F
:10491000D15392EA0C0F93EA0C0F6FD01A4480EA3D
:10492000010C400218BF5FEA41211ED04FF0006326
:1049300043EA501043EA5111A0FB01310CF0004052
:10494000B1F5000F3EBF490041EAD3715B0040EA78
:10495000010062F17F02FD2A1DD8B3F1004F40EB48
:10496000C25008BF20F00100704790F0000F0CF01B
:10497000004C08BF49024CEA502040EA51207F3ADF
:10498000C2BFD2F1FF0340EAC250704740F40000BA
:104990004FF00003013A5DDC12F1190FDCBF00F0AB
:1049A00000407047C2F10002410021FA02F1C2F159
:1049B000200200FA02FC5FEA310040F1000053EAF5
:1049C0004C0308BF20EADC70704792F0000F00F043
:1049D000004C02BF400010F4000F013AF9D040EA49
:1049E0000C0093F0000F01F0004C02BF490011F4DD
:1049F000000F013BF9D041EA0C018FE70CEAD153DB
:104A000092EA0C0F18BF93EA0C0F0AD030F0004C5A
:104A100018BF31F0004CD8D180EA010000F000400E
:104A2000704790F0000F17BF90F0004F084691F0CC
:104A3000000F91F0004F14D092EA0C0F01D1420206
:104A40000FD193EA0C0F03D14B0218BF084608D1CF
:104A500080EA010000F0004040F0FE4040F4000019
:104A6000704740F0FE4040F4400070474FF0FF0CAC
:104A70001CEAD0521EBF1CEAD15392EA0C0F93EAF3
:104A80000C0F69D0A2EB030280EA010C49024FEA45
:104A9000402037D04FF0805343EA111143EA1013FE
:104AA0000CF000408B4238BF5B0042F17D024FF4B6
:104AB000000C8B4224BF5B1A40EA0C00B3EB510F91
:104AC00024BFA3EB510340EA5C00B3EB910F24BF7A
:104AD000A3EB910340EA9C00B3EBD10F24BFA3EBFF
:104AE000D10340EADC001B0118BF5FEA1C1CE0D1C7
:104AF000FD2A3FF650AF8B4240EBC25008BF20F07A
:104B0000010070470CF0004C4CEA50207F32C2BFCD
:104B1000D2F1FF0340EAC250704740F400004FF06A
:104B20000003013A37E792F0000F00F0004C02BF9B
:104B3000400010F4000F013AF9D040EA0C0093F065
:104B4000000F01F0004C02BF490011F4000F013BBF
:104B5000F9D041EA0C0195E70CEAD15392EA0C0F27
:104B600008D142027FF47DAF93EA0C0F7FF470AF5F
:104B7000084676E793EA0C0F04D14B023FF44CAFA2
:104B800008466EE730F0004C18BF31F0004CCAD137
:104B900030F000427FF45CAF31F000437FF43CAF73
:104BA0005FE700BF4FF0FF3C06E000BF4FF0010C95
:104BB00002E000BF4FF0010C4DF804CD4FEA400277
:104BC0004FEA41037FEA226C18BF7FEA236C11D0C1
:104BD00001B052EA530C18BF90EA010F58BFB2EB74
:104BE000030088BFC81738BF6FEAE17018BF40F0F4
:104BF000010070477FEA226C02D15FEA402C05D1A8
:104C00007FEA236CE4D15FEA412CE1D05DF8040B2C
:104C1000704700BF844608466146FFE70FB5FFF7BF
:104C2000C9FF002848BF10F1000F0FBD4DF808ED77
:104C3000FFF7F4FF0CBF012000205DF808FB00BF68
:104C40004DF808EDFFF7EAFF34BF012000205DF8C2
:104C500008FB00BF4DF808EDFFF7E0FF94BF01200F
:104C600000205DF808FB00BF4DF808EDFFF7D2FF0C
:104C700094BF012000205DF808FB00BF4DF808ED4F
:104C8000FFF7C8FF34BF012000205DF808FB00BF1C
:104C90004FEA4002B2F1FE4F0FD34FF09E03B3EB49
:104CA00012620DD94FEA002343F0004310F0004F89
:104CB00023FA02F018BF404270474FF000007047DF
:104CC00012F1610F01D1420205D110F0004008BF7E
:104CD0006FF0004070474FF00000704753B94AB979
:104CE000002908BF00281CBF4FF0FF314FF0FF30F4
:104CF00000F0A8B9ADF1080C6DE904CE00F02CF875
:104D0000DDF804E0DDE9022304B07047D0B500F01F
:104D1000FFFA00220E4B06460F4600F04DFB00F056
:104D20005DFD044600F0D2FA00220A4B00F044FB7D
:104D300002460B463046394600F08AF900F04EFD37
:104D40002346002242EA000210461946D0BD00BFA9
:104D50000000F03D0000F0412DE9F04F8C460C467C
:104D60000546099E002B4FD18A4217466BD9B2FAED
:104D700082FEBEF1000F0BD0CEF1200520FA05F522
:104D800001FA0EF345EA030C02FA0EF700FA0EF5EB
:104D9000390CBCFBF1F0BAB201FB10C300FB02F806
:104DA0004FEA154C4CEA0344A04509D9E41900F137
:104DB000FF3380F02881A04540F2258102383C4431
:104DC000C8EB0404B4FBF1F301FB134C03FB02F248
:104DD000ACB244EA0C418A4209D9C91903F1FF3443
:104DE00080F00F818A4240F20C81023B39448A1ADA
:104DF00043EA00400021002E63D022FA0EF2002385
:104E000086E80C00BDE8F08F8B4207D9002E56D003
:104E1000002186E811000846BDE8F08FB3FA83F15F
:104E2000002940F09380A34202D3824200F2FE8028
:104E3000851A64EB03039C460120002E41D086E8CE
:104E40002010BDE8F08F12B90127B7FBF2F7B7FACF
:104E500087FEBEF1000F36D1E41B4FEA17481FFA58
:104E600087F90121B4FBF8F308FB134409FB03F2B3
:104E70004FEA154C4CEA0444A24207D9E41903F165
:104E8000FF3002D2A24200F2D3800346A41AB4FB40
:104E9000F8F008FB104809FB00F9ACB244EA0842FC
:104EA000914507D9D21900F1FF3402D2914500F2A1
:104EB000BA802046C9EB020240EA03409BE7314634
:104EC0003046BDE8F08F07FA0EF7CEF1200C24FA39
:104ED0000CF34FEA1748B3FBF8FA1FFA87F908FBFF
:104EE0001A3520FA0CFC04FA0EF40AFB09FB4CEA12
:104EF000040C4FEA1C4242EA05439B4500FA0EF5BA
:104F00000AD9DB190AF1FF3280F08B809B4540F211
:104F10008880AAF1020A3B44CBEB0303B3FBF8F011
:104F200008FB103300FB09F41FFA8CFC4CEA034326
:104F30009C4207D9DB1900F1FF326ED29C426CD93A
:104F400002383B441C1B40EA0A418BE7C1F1200EAA
:104F50008B4022FA0EFC4CEA030C24FA0EF74FEABF
:104F60001C49B7FBF9FA1FFA8CF309FB1A7720FAF0
:104F70000EF88C400AFB03F548EA04044FEA144893
:104F800048EA0747BD4202FA01F200FA01FB09D9DB
:104F900017EB0C070AF1FF3041D2BD423FD9AAF10D
:104FA000020A67447F1BB7FBF9F509FB157705FB80
:104FB00003F3A4B244EA0747BB4208D917EB0C0736
:104FC00005F1FF3027D2BB4225D9023D674445EAAF
:104FD0000A40A0FB0289FF1A4F4545464C4614D3B0
:104FE00029D066B3BBEB050367EB040707FA0EFE97
:104FF000CB40CF404EEA030386E888000021BDE89D
:10500000F08F2346F3E61846DAE6B8EB020569EBC3
:105010000C040138E5E70546D9E7104692E78246D9
:10502000C0E7924678E702383A4443E7084604E787
:10503000023B3C442AE7C345E7D33C46D1E731462F
:10504000BDE8F08F704700BF81F0004102E000BF73
:1050500083F0004330B54FEA41044FEA430594EA38
:10506000050F08BF90EA020F1FBF54EA000C55EA73
:10507000020C7FEA645C7FEA655C00F0E2804FEA44
:105080005454D4EB5555B8BF6D420CDD2C4480EA26
:10509000020281EA030382EA000083EA010180EA56
:1050A000020281EA0303362D88BF30BD11F0004FA4
:1050B0004FEA01314FF4801C4CEA113102D04042DA
:1050C00061EB410113F0004F4FEA03334CEA133315
:1050D00002D0524263EB430394EA050F00F0A7802D
:1050E000A4F10104D5F1200E0DDB02FA0EFC22FA28
:1050F00005F2801841F1000103FA0EF2801843FA1C
:1051000005F359410EE0A5F120050EF1200E012A0C
:1051100003FA0EFC28BF4CF0020C43FA05F3C0184A
:1051200051EBE37101F0004507D54FF0000EDCF1C3
:10513000000C7EEB00006EEB0101B1F5801F1BD36C
:10514000B1F5001F0CD349085FEA30004FEA3C0C70
:1051500004F101044FEA445212F5800F80F09A8066
:10516000BCF1004F08BF5FEA500C50F1000041EB6A
:10517000045141EA050130BD5FEA4C0C404141EB6E
:10518000010111F4801FA4F10104E9D191F0000F95
:1051900004BF01460020B1FA81F308BF2033A3F118
:1051A0000B03B3F120020CDA0C3208DD02F1140C0F
:1051B000C2F10C0201FA0CF021FA02F10CE002F14A
:1051C0001402D8BFC2F1200C01FA02F120FA0CFC43
:1051D000DCBF41EA0C019040E41AA2BF01EB04518C
:1051E000294330BD6FEA04041F3C1CDA0C340EDC8A
:1051F00004F11404C4F1200220FA04F001FA02F3CD
:1052000040EA030021FA04F345EA030130BDC4F18A
:105210000C04C4F1200220FA02F001FA04F340EA7F
:105220000300294630BD21FA04F0294630BD94F030
:10523000000F83F4801306BF81F480110134013D17
:105240004EE77FEA645C18BF7FEA655C29D094EA88
:10525000050F08BF90EA020F05D054EA000C04BF06
:105260001946104630BD91EA030F1EBF00210020F1
:1052700030BD5FEA545C05D14000494128BF41F090
:10528000004130BD14F580043CBF01F5801130BDF4
:1052900001F0004545F0FE4141F470014FF000007F
:1052A00030BD7FEA645C1ABF194610467FEA655C30
:1052B0001CBF0B46024650EA013406BF52EA0335D2
:1052C00091EA030F41F4002130BD00BF90F0000FC0
:1052D00004BF0021704730B54FF4806404F13204FC
:1052E0004FF000054FF0000150E700BF90F0000FB5
:1052F00004BF0021704730B54FF4806404F13204DC
:1053000010F0004548BF40424FF000013EE700BFAB
:1053100042004FEAE2014FEA31014FEA02701FBF3B
:1053200012F07F4393F07F4F81F06051704792F00D
:10533000000F14BF93F07F4F704730B54FF4607487
:1053400001F0004521F0004120E700BF50EA0102D2
:1053500008BF704730B54FF000050AE050EA01027F
:1053600008BF704730B511F0004502D5404261EBEF
:1053700041014FF4806404F132045FEA915C3FF430
:10538000DCAE4FF003025FEADC0C18BF03325FEAC9
:10539000DC0C18BF033202EBDC02C2F1200300FA7E
:1053A00003FC20FA02F001FA03FE40EA0E0021FAA3
:1053B00002F11444C1E600BF70B54FF0FF0C4CF48D
:1053C000E06C1CEA11541DBF1CEA135594EA0C0F43
:1053D00095EA0C0F00F0DEF82C4481EA030621EA7E
:1053E0004C5123EA4C5350EA013518BF52EA0335B9
:1053F00041F4801143F4801338D0A0FB02CE4FF06B
:105400000005E1FB02E506F00042E0FB03E54FF09A
:105410000006E1FB03569CF0000F18BF4EF0010E92
:10542000A4F1FF04B6F5007F64F5407404D25FEA8E
:105430004E0E6D4146EB060642EAC62141EA555141
:105440004FEAC52040EA5E504FEACE2EB4F1FD0C83
:1054500088BFBCF5E06F1ED8BEF1004F08BF5FEA01
:10546000500E50F1000041EB045170BD06F00046B3
:1054700046EA010140EA020081EA0301B4EB5C0460
:10548000C2BFD4EB0C0541EA045170BD41F4801158
:105490004FF0000E013C00F3AB8014F1360FDEBF7D
:1054A000002001F0004170BDC4F10004203C35DA59
:1054B0000C341BDC04F11404C4F1200500FA05F3DC
:1054C00020FA04F001FA05F240EA020001F000427D
:1054D00021F0004110EBD37021FA04F642EB0601F3
:1054E0005EEA430E08BF20EAD37070BDC4F10C041D
:1054F000C4F1200500FA04F320FA05F001FA04F2E1
:1055000040EA020001F0004110EBD37041F10001CC
:105510005EEA430E08BF20EAD37070BDC4F12005D7
:1055200000FA05F24EEA020E20FA04F301FA05F23F
:1055300043EA020321FA04F001F0004121FA04F2E7
:1055400020EA020000EBD3705EEA430E08BF20EAB7
:10555000D37070BD94F0000F0FD101F000464000F1
:1055600041EB010111F4801F08BF013CF7D041EA73
:10557000060195F0000F18BF704703F00046520077
:1055800043EB030313F4801F08BF013DF7D043EA48
:105590000603704794EA0C0F0CEA135518BF95EAFE
:1055A0000C0F0CD050EA410618BF52EA4306D1D185
:1055B00081EA030101F000414FF0000070BD50EAA4
:1055C000410606BF1046194652EA430619D094EA2E
:1055D0000C0F02D150EA013613D195EA0C0F05D118
:1055E00052EA03361CBF104619460AD181EA03016C
:1055F00001F0004141F0FE4141F470014FF0000024
:1056000070BD41F0FE4141F4780170BD70B54FF0BE
:10561000FF0C4CF4E06C1CEA11541DBF1CEA13553E
:1056200094EA0C0F95EA0C0F00F0A7F8A4EB050420
:1056300081EA030E52EA03354FEA013100F0888017
:105640004FEA03334FF0805545EA131343EA1263E0
:105650004FEA022245EA111545EA10654FEA002695
:105660000EF000419D4208BF964244F1FD0404F54E
:10567000407402D25B084FEA3202B61A65EB0305AA
:105680005B084FEA32024FF480104FF4002CB6EB67
:10569000020E75EB030E22BFB61A754640EA0C00E7
:1056A0005B084FEA3202B6EB020E75EB030E22BF27
:1056B000B61A754640EA5C005B084FEA3202B6EB68
:1056C000020E75EB030E22BFB61A754640EA9C0027
:1056D0005B084FEA3202B6EB020E75EB030E22BFF7
:1056E000B61A754640EADC0055EA060E18D04FEAB5
:1056F000051545EA16754FEA06164FEAC30343EA55
:1057000052734FEAC2025FEA1C1CC0D111F4801F21
:105710000BD141EA00014FF000004FF0004CB6E71A
:1057200011F4801F04BF01430020B4F1FD0C88BFB9
:10573000BCF5E06F3FF6AFAEB5EB030C04BFB6EBC4
:10574000020C5FEA500C50F1000041EB045170BDB7
:105750000EF0004E4EEA113114EB5C04C2BFD4EBE4
:105760000C0541EA045170BD41F480114FF0000E68
:10577000013C90E645EA060E8DE60CEA135594EAE4
:105780000C0F08BF95EA0C0F3FF43BAF94EA0C0FE7
:105790000AD150EA01347FF434AF95EA0C0F7FF45C
:1057A00025AF104619462CE795EA0C0F06D152EAB0
:1057B00003353FF4FDAE1046194622E750EA410694
:1057C00018BF52EA43067FF4C5AE50EA41047FF4A5
:1057D0000DAF52EA43057FF4EBAE12E74A0011D257
:1057E00012F5001211D20DD56FF47873B3EB62523B
:1057F0000ED44FEAC12343F0004343EA505323FA47
:1058000002F070474FF00000704750EA013002D1BB
:105810004FF0FF3070474FF000007047931E222B6F
:1058200010D80A2A10B506D000230C46194400F0FF
:1058300077FB204610BD0028F6DA2D230B7040427E
:105840000123F2E700200870704700BFFFF7E6BFB2
:10585000844641EA000313F0030349D1403A23D3BD
:105860000B6803604B6843608B688360CB68C360E0
:105870000B6903614B6943618B698361CB69C361C8
:105880000B6A03624B6A43628B6A8362CB6AC362B0
:105890000B6B03634B6B43638B6B8363CB6BC36398
:1058A00040304031403ADBD230320BD30B680360DA
:1058B0004B6843608B688360CB68C36010301031E5
:1058C000103AF3D20C3205D351F8043B40F8043BB4
:1058D000043AF9D2043208D0D2071CBF11F8013BB8
:1058E00000F8013B01D30B8803806046704700BF7E
:1058F000082A13D38B07B1D010F00303AED0C3F145
:105900000403D21ADB071CBF11F8013B00F8013B6E
:10591000A4D331F8023B20F8023B9FE7043AD9D3E5
:10592000013A11F8013B00F8013BF9D20B78037002
:105930004B7843708B788370604670478842F0B52F
:105940000DD98B1898420AD28118002A51D09A1A80
:1059500013F8014D934201F8014DF9D1F0BD0F2A22
:1059600048D941EA00039B0746D1154600F11004CF
:1059700001F1100353F8106C103D44F8106C53F80B
:105980000C6C0F2D44F80C6C53F8086C04F11004E7
:1059900044F8186C53F8046C03F1100344F8146CC9
:1059A000E8D8A2F1100323F00F0302F00F0E10331A
:1059B000BEF1030F1944034421D90E4674461D1F3E
:1059C00056F8047B043C032C45F8047FF8D8AEF16C
:1059D000040424F0030404342344214402F00302A9
:1059E00062B1013B0A4411F8014B8A4203F8014FAE
:1059F000F9D1F0BD0346F3E70346F2E7F0BD724686
:105A0000EEE700BF70B4840746D0541E002A41D090
:105A1000CDB2034602E0621EE4B3144603F8015B14
:105A20009A07F8D1032C2ED9CDB245EA05250F2CC3
:105A300045EA054519D9264603F11002103E0F2EFE
:105A400042F8105C42F80C5C42F8085C42F8045CD6
:105A500002F11002F2D8A4F1100222F00F0204F0B9
:105A60000F041032032C13440DD91E462246043A6B
:105A7000032A46F8045BFAD8221F22F003020432FC
:105A8000134404F003042CB1C9B21C4403F8011BF5
:105A9000A342FBD170BC704714460346C2E700BF67
:105AA000830710B5044610D10268A2F1013323EA3E
:105AB000020313F0803F08D150F8042FA2F1013304
:105AC00023EA020313F0803FF6D003781BB110F8ED
:105AD000013F002BFBD100F049F9204610BD00BF6B
