:020000040800F2
:10000000081E0020FD110008F9110008F911000870
:10001000F9110008F9110008F911000800000000AA
:10002000000000000000000000000000F9110008BE
:10003000F911000800000000F9110008BD140008C3
:10004000F9110008F9110008F9110008F911000868
:10005000F9110008F9110008F9110008F911000858
:10006000F9110008F9110008F9110008F911000848
:10007000F9110008F9110008F9110008F911000838
:10008000F9110008F9110008F9110008F911000828
:10009000F9110008F9110008F9110008F911000818
:1000A000F9110008F9110008F9110008F911000808
:1000B000F9110008F9110008F9110008F9110008F8
:1000C000F9110008F9110008F9110008F9110008E8
:1000D000F9110008F9110008A1260008F91100081B
:1000E000F9110008F9110008F911000800000000DA
:1000F0000000000000000000000000000000000000
:1001000000000000000000005FF808F1224A0388A8
:1001100090429BB212D002F5006290420ED0B0F134
:10012000804F0BD0A2F59832904207D002F5806242
:10013000904203D002F58062904203D14A8823F0B6
:1001400070031343154A904208D002F58062904232
:100150001FBF23F44073CA889BB2134303808B886C
:1001600083850B8803850C4B98420FD003F5006301
:1001700098420BD003F54063984207D003F58063A3
:10018000984203D003F58063984201D10B7A03862D
:1001900001238382704700BF002C01400010004003
:1001A000038C70B523F001031B041B0C0384028C29
:1001B0008688038B0D8823F073031B041B0C1D43DF
:1001C00022F002020C894B881204120C23431343C1
:1001D000144AB6B290429BB20FD002F50062904230
:1001E0000BD002F54062904207D002F58062904247
:1001F00003D002F5806290420ED14C8923F00803AF
:100200001C438B8824F0040426F4407223438E8917
:10021000CC893443224396B2CA888680058382867D
:10022000038470BD002C0140038C30B523F0100313
:100230001B041B0C0384038C8588028B0C8822F41E
:10024000E6421204120C42EA042223F0200394B284
:100250001B040A891B0C43EA02134A88ADB243EA25
:100260000213124A9BB2904203D002F50062904200
:1002700015D123F080034A899BB243EA02124FF65C
:10028000BF7313408A8825F4406543EA02138A89C4
:100290009BB245EA8205CA8945EA8205ADB2CA88A1
:1002A000858004830287038430BD00BF002C014099
:1002B000038C30B523F480731B041B0C0384038C64
:1002C0008488828B0D8822F073021204120C23F4AE
:1002D000007315431B040A891B0C43EA02234A8856
:1002E000A4B243EA0223124A9BB2904203D002F521
:1002F0000062904215D123F400634A899BB243EA1D
:1003000002224FF6FF3313408A8824F4405443EA14
:1003100002238A899BB244EA0214CA8944EA02147D
:10032000A4B2CA88848085838287038430BD00BFDD
:10033000002C0140038C30B523F480531B041B0CAC
:100340000384038C8488828B0D8822F4E642120495
:10035000120C23F4005342EA05221B040D891B0CE6
:1003600043EA05334D88A4B243EA05330A4D92B2FD
:10037000A8429BB203D005F50065A84205D18D893E
:1003800024F4804444EA8514A4B284808283CA8819
:10039000A0F84020038430BD002C0140038819B12F
:1003A0009BB243F0010303E023F001031B041B0C89
:1003B00003807047B0F8443029B16FEA43436FEAD5
:1003C00053439BB201E0C3F30E03A0F844307047DF
:1003D000384B82B01A6842F001021A605968364AF6
:1003E0000A405A601A6822F0847222F480321A603D
:1003F0001A6822F480221A605A6822F4FE025A60B7
:100400004FF41F029A600022009201921A6842F48F
:1004100080321A601A6802F400320192009A0132A6
:100420000092019A1AB9009AB2F5A06FF2D11A6837
:1004300012F4003218BF01220192019A012A05D05C
:100440001E4B4FF000629A6002B070471C4A116860
:1004500041F010011160116821F003011160116871
:1004600041F0020111605A685A605A685A605A682D
:1004700042F480625A605A6822F47C125A605A68C8
:1004800042F4E8125A601A6842F080721A601968E1
:10049000084A8901FBD5516821F003015160516878
:1004A00041F0020151605A6802F00C02082AFAD1A8
:1004B000C6E700BF001002400000FFF800ED00E0BA
:1004C000002002402DE9F047089D01F007044FEAA3
:1004D000D508224405F007054FF47F4900EBD10011
:1004E000944227D005F0070604F0070AB245D44627
:1004F00038BFB446CCF10801C4EB020C8C4528BFD0
:100500008C46E708C75D29FA0CFE08EBD50107FA0F
:100510000AF75FFA8EFE4EFA06FE47FA06F65F5CB1
:1005200006EA0E0627EA0E0E46EA0E065E546444FC
:100530006544D5E7BDE8F0870246006848B1036826
:1005400011891360D38801339BB29942D38038BF9D
:100550001381704770B504460D4688B020220021F3
:10056000684603F0ADF820460495FFF7E5FF054621
:1005700058B16B46044608AE1A4603CAB242206020
:100580006160134604F10804F6D1284608B070BD36
:100590002DE9F0410568DDB18E68A84626F0604778
:1005A000BB0C4FEAD67EC6F3807C2A4637EA260685
:1005B00028BF1E469368BEEBD37F23F060440ED065
:1005C000002B08DAA40CB44207D1954213D10D6078
:1005D0000160BDE8F081B44212D0A64206E0A74215
:1005E00003D1C3F380739C4503D1A7422CBF0023E2
:1005F00001232BB1E9E7C8F800100A60BDE8F081DB
:100600001368904613B91160BDE8F0811A46D1E72E
:10061000F8B506460F464FF6FF7400252A463046C9
:10062000394602F0DFFCC0B284EA0024082314F447
:10063000004F4FEA4404A4B21CBF84F4815484F0F8
:100640000104013BF3D10835402DE7D12046F8BD28
:1006500010B54B6843B1C4681A681C60C360438A14
:10066000013B43824A60F4E70A8B002063F30902EE
:100670000A83002110BD0A44914211D011F8013BB8
:1006800080EA0320082310F4004F4FEA400080B2B4
:100690001CBF80F4815080F00100013BF3D1EBE7F7
:1006A00070472DE9F04F85B081468DE80A00BDF80E
:1006B0003C409346002A7DD08CB10E9B002B79D014
:1006C000072C0CD9019B4FF000081B0A029300F184
:1006D0000C034FF0800A46464546039363E009F158
:1006E0000C00FFF729FF054610B96FF0020063E028
:1006F0002022002102F0E4FF22460E9905F11000AD
:1007000002F068FF631C2B769BF800302C4403F04A
:100710001F0363F03F032374009B09F11C0043F0A7
:100720000043AB602946FFF733FF012044E0039804
:10073000FFF702FF07460028D7D02022002102F051
:10074000BFFF9EBB9DF8043002223B749DF8083029
:100750007B74B44209D90E9BB9180132985DD2B2AC
:100760000136072A0874F6B2F3D1B44208BF4FF03D
:10077000400A9BF80010B81801F01F0141EA481127
:1007800041EA0A030374009B013243F00043BB605B
:100790003A76394609F11C00FFF7FAFE013588F078
:1007A00001084FF0000AB442C1D101E00022D0E7B5
:1007B000284601E06FF0010005B0BDE8F08F2DE99B
:1007C000F04717460A8B9946C2F30902C2F10603A5
:1007D000002B0646884618DD00201FFA89F185B2F5
:1007E00053199BB2052B09D9A9420FD8B8F8183074
:1007F0000A4462F30903A8F818306BE0A942F3D960
:100800003C5C43449C760130E9E70025911F1C23A2
:10081000B1FBF3FA03FB1A1AD8F804405FFA8AF125
:100820000CB1012329E03046FFF786FE044608B1EB
:1008300000230360C8F80440CCB96FF00200BDE8A3
:10084000F0874A44063A1C20B2FBF0F20132D2B2E1
:1008500093420DD2BAF1000F0AD13046FFF76CFE79
:1008600008B1C0F800A020600028E6D004460021AE
:100870001FFA89F94FF0000A11E020680028E0D043
:100880000133DBB20446F8E7A3180132785D92B277
:1008900001351C2A1871ADB205D0A945F4D84D45D3
:1008A0000FD28AB2F0E7A945F9D93046FFF744FEE6
:1008B00008B1C0F800A020600028BED00446002186
:1008C000EDE7B8F81820C2F30903994469F3090267
:1008D000A8F818200120BDE8F087F8B504461646B0
:1008E0000D46242200211F4602F0EAFE069B7209F3
:1008F0006360079B002023624FF6FF739A4228BF74
:100900001A4629460346A760207097B204F10C06E8
:10091000934204D0316001330E462031F8E70023C2
:10092000336027826382A382F8BD03781BB94BB280
:10093000002BC8BF01707047007870472DE9F7435E
:100940000D9F8046BDF828400B9E9DF83090BDF865
:1009500038500FB9002D3FD1B9F11F0F3CD898F88E
:100960000010A9B9072D34D834F0030334D12A4636
:1009700039464FF6FF70FFF77EFE47F6FE732402FE
:1009800004F4407444EA0964034044EA43240FE059
:1009900041EA0421072D41EA096409D919461046A4
:1009A000FFF736FE2A463946FFF765FE034601E0AB
:1009B0004FF6FF7301950097324621464046FFF7F8
:1009C00070FE33780133DBB21F2B88BF00233370F6
:1009D00004E06FF0030001E06FF0010003B0BDE838
:1009E000F0832DE9F7430E9F81460C4610461946C9
:1009F0000B9D9DF830209DF83480BDF83C6007B910
:100A000076BB1F2A2CD899F8003063B343F08003DB
:100A100043EA04239DF8284043EAC83343EA0443E9
:100A2000072E43EA026407D9FFF7F2FD3246394642
:100A3000FFF721FE034601E04FF6FF730196009792
:100A40002A4621464846FFF72CFEB8F1010F0CD18B
:100A50002B780133DBB21F2B88BF00232B7004E0FF
:100A60006FF0010001E06FF0030003B0BDE8F08318
:100A7000C06900B108307047C3691A68C261C268B2
:100A80001A60C360438A013B438270472DE9F047F7
:100A9000D0F818A0054616461F465446DFF8688071
:100AA0004FF00009002C2CD0D4E90223B21A67EBD6
:100AB0000303994508BF904520D2AB6921469C426B
:100AC00028460DD1FFF7C4FDAB691B68AB61EB682D
:100AD00023606B8AEC60AC69013B6B82A246E1E764
:100AE000FFF7B6FD2368CAF80030EB6823606B8A15
:100AF000EC60013B6B82DAF80040D3E7A246246841
:100B0000D0E7BDE8F08700BF80841E002DE9F04FDC
:100B10008BB00E4614460793149F8246002800F0BF
:100B2000FF80002F00F0FC80531E3F2B00F2F88066
:100B3000012A03D1079B002B40F0F280BAF8145031
:100B40000023ED00AE420893099301D3002505E18F
:100B500033199D42DAF80C303ABFAD1BEDB2254691
:100B60001BB9DAF81030002B61D02F2E15D8C6F142
:100B70003008A84528BFA846002300935FFA88FBE9
:100B80004246314608ABDAF808004644CBEB05088C
:100B9000FFF798FC5FFA88F802E0A8464FF0000BD8
:100BA000BAF81430302103F10053063BDB00049304
:100BB000DAF80C300393039B6BB3B8F1000F2AD023
:100BC000049BE02B28BFE02306930B44B34205931C
:100BD00018D9C6EB0309C84538BFC146039828BFDA
:100BE0005FFA89F9CDF800B0711A08AB4A460430B3
:100BF000FFF768FCCB44C9EB08084E445FFA8BFB57
:100C00005FFA88F8049B069A05999B1A0493039B44
:100C10001B680393CFE7DAF8100080B1B8F1000F3A
:100C20000DD0CDF800B008AB4246711A05E02A4657
:100C300031460093DAF8080008ABFFF743FC002DBB
:100C400084D066070BD00AAB03EBD40111F8082C53
:100C5000634203F0070342FA03F301F8083C082C4F
:100C600006D9102C06D9202C8CBF0823042302E0BF
:100C7000012300E00223079A002A57D0B4EBC30FE8
:100C800056D0082C0ED89DF92020631E22FA03F3BB
:100C9000D80760D54FF0FF3303FA04F414438DF8FE
:100CA000204058E0102C0ED8BDF92020631E22FAF7
:100CB00003F3D90743D54FF0FF3303FA04F4144389
:100CC000ADF820403BE0202C0CD8089B621E23FA94
:100CD00002F2D20737D54FF0FF3202FA04F4234371
:100CE000089330E0402C1ED0DDE90889621E4046A2
:100CF000494602F077F9002100F0010050EA0103B3
:100D000024D022460120002102F078F9404261EB14
:100D1000410140EA080041EA0901CDE9080115E076
:100D20006FF001051AE06FF0080517E0012C12D0F2
:100D3000082C10D9102C02D9202C07D803E0BDF8BC
:100D400020303B800AE0089B3B6007E0DDE9082398
:100D5000C7E9002302E09DF820303B7028460BB025
:100D6000BDE8F08F30B5402A85B018D8002A08BFFA
:100D700001220024012A0294039401D0082A03D8F6
:100D80001B788DF808300FE0102A03D81B88ADF8C7
:100D9000083009E0202A03D81B68029304E04022AF
:100DA000D3E90045CDE9024553070BD004AB03EB73
:100DB000D20515F8084C534203F0070304FA03F375
:100DC00005F8083C00910346002102A8FFF77AFBD2
:100DD00005B030BD10B5CB6843B1C4681A681C605B
:100DE000C360438A013B4382CA60F4E78B600B61B6
:100DF0008B8210BD2DE9F04FD1F800A08FB0CDE966
:100E00000223CAF3C01204460D4622B1CAF3C03B06
:100E1000CAF3062802E090464FF0020BBAF1000F29
:100E200080F2BB812B6813F0C04F40F0B6812B7C61
:100E3000002B00F0B281BBF1020F03D021784145B5
:100E400040F0AB810AF07F01C8B2059012B1CAF33D
:100E5000074904E0CAF30F2909B909F003092B4433
:100E60004FEA4868059ADE7948EA0B4848EA824822
:100E7000F30948EA090804932BD0002200230EA9A5
:100E800061E90823059B676800934A465B46204654
:100E9000B847002800F08181A7694FB9414604F1A5
:100EA0000C00FFF757FB074688B976E13F681FB192
:100EB0003B699845FAD115E0414604F10C00FFF773
:100EC00049FB0746002800F06881A3693B60A761E1
:100ED00008E0A769002F00F060813B69984506D0C3
:100EE0003F68F7E7DDE90601FFF792FBF88297F824
:100EF00019E006F01F08CEF3840EB8EB0E0ED7E90A
:100F0000022348BF0EF1200E52EA0301CAF3046A1D
:100F100000F02E81DDE90201801A61EB03010B462E
:100F2000024600219E48994208BF9042C0F02081AD
:100F3000049B5BB3BEF1010F00F31A81730625D544
:100F4000DDE902230021C7E9022306A8202202F0DE
:100F5000B7FBDDE90223CDE9062305F10803089379
:100F60002B7CADF82E90013BDBB2ADF82C309DF818
:100F700014308DF830B08DF833308DF831808DF825
:100F800032A0A36806A920469847DEE07B7EC6F320
:100F90004012B2EBD31F40F00081C3F384034345FA
:100FA00040F0FB80049A2B7CB609002A33D016F05F
:100FB00001065ED1032B40F2F080DDE90223C7E990
:100FC00002232B7C05F10A08033BDBB2424639467B
:100FD00004F10C00FFF7F3FB002812DA3946204633
:100FE000FFF736FB7B7EC3F38402013262F3860394
:100FF0007B763B8B66F309033B831B0A66F3C713BF
:10100000B4E06A7A2B7A414643EA0223BB822A7C07
:10101000033AD2B223E066BB05F10806013BDBB21E
:101020003246394604F10C00FFF7C9FB002812DAFA
:1010300039462046FFF70CFB7B7EC3F38402013266
:1010400062F386037B76049A3B8B62F309033B834E
:10105000049A1B0A88E031462A7C013AD2B2F88A07
:10106000FFF709FB7B7EF882C3F3C01282F0010216
:101070007AE0388B013BC0F309000528DBB212D8B7
:10108000EE1D0021CAB2934228D9013100EB010EB6
:1010900016F801CF07EB0E02BEF1060F82F819C059
:1010A000CAB2EFD11AE07E68BEB10622316811B132
:1010B0001C320E46FAE7801A05F1070C00EB010E10
:1010C000BEF11B0FCAB209D89A4207D21CF8012FF1
:1010D000B6448EF804200131F0E73246DDE9020122
:1010E0009A42CDE9060107F11A01089138BF08328A
:1010F000796834BF5219002209910A923A8BADF8EF
:101100002E90C2F309021344ADF82C309DF8143030
:101110008DF830B08DF8333000238DF831808DF8A4
:1011200032A07B602A7CF88A013A05F10801FFF7BA
:10113000A2FABB8AF882834203D1A36806A920469B
:10114000984706A92046FFF745FE7B7EC3F384023D
:10115000013262F386037B763B8B6FF309033B839B
:101160001B0A6FF3C71301E062F3C7137B7614E029
:101170007B7E394666F386036FF3C7137B76204682
:10118000FFF766FA049B002B7FF4D8AE7B7EC3F397
:101190008402013262F38603E8E70FB0BDE8F08F06
:1011A00080841E00034651F8100F8A8818609A80C8
:1011B0001846704720F00043B3F1FF4F10B500F020
:1011C000004405D347F6FF7008BF4FF4F8400EE027
:1011D00008484FF0F061184001F01CFF00F5805006
:1011E000B0F1786F88BF4FF07860C0F34F3040EABD
:1011F000144010BD00F0FF7FFEE7000008B50C4A68
:101200000C4B0D498B4204D252F8040F43F8040BE7
:10121000F8E70A480A494FF000028842B8BF40F890
:10122000042BFADBFFF7D4F8BDE8084001F0B2BDAB
:10123000983C000800000020140000201800002046
:10124000081A0020CA782DE9F041D40648BF8C78EE
:101250000E8802F00F0348BF234316F0FF0F1ED085
:10126000016800244FF0010E4FF00F0C0EFA04F746
:1012700037EA06050FD1A5000CFA05F821EA0801A6
:1012800003FA05F5282A41EA050101D1476102E088
:10129000482A08BF07610134082CE7D10160FF2EFE
:1012A00020D9416800244FF0010E4FF00F0C04F1DB
:1012B00008050EFA05F535EA06070FD1A7000CFA66
:1012C00007F821EA080103FA07F7282A41EA07018B
:1012D00001D1456102E0482A08BF05610134082CAC
:1012E000E5D14160BDE8F0810AB10161704741611B
:1012F000704700000028164A30B500F44015B4BF0E
:10130000D3695368B5F5401F84B206D1556823F000
:10131000706325F0706555600EE0C20255BF420D46
:1013200003221201C0F303454CBFAA4004FA02F2A3
:1013300023EA020343F0706319B1420D1201944095
:101340002343034A0028B4BFD361536030BD00BFBC
:1013500000000140044B9A6909B1104301E022EA00
:1013600000009861704700BF00100240044BDA692A
:1013700009B1104301E022EA0000D861704700BFC4
:1013800000100240410746BFC30843F00043430D2D
:10139000820748BF43F0804318467047094B9A695B
:1013A00012F0700F0DD000229A61074A5168013186
:1013B0005160127F12B99B695B0702D5034A014B4A
:1013C0009A60704700640040180000208080800010
:1013D000022B0AD140F206439A4236D11CA3D3E92C
:1013E00000230120C1E900237047012B2DD1013AD0
:1013F0000A2A2AD8DFE802F00629290D142929290A
:10140000291B220014A3D3E900230120C1E90023F2
:10141000704713A3D3E900230120C1E900237047DB
:1014200011A3D3E900230120C1E90023704710A3D1
:10143000D3E900230120C1E9002370470EA3D3E9BB
:1014400000230120C1E9002370470020704700BF3E
:101450001D95ECD7875C7F219E6AC421818A46EE68
:10146000042B31ECA7766FBEF017304A39059E5633
:10147000CDD269EBC51A133BD5A4D139F922B6A751
:1014800000EB8000430018460138FDD87047402823
:1014900008B5024609D8BDE80840C0EB401002EB91
:1014A0008000C00080B2FFF7EBBF4FF47A70FFF707
:1014B000E7FF013A92B2002AF7D108BD034B01229F
:1014C000DA831A6A01321A62704700BF18000020DE
:1014D0000B4B0021D98319620A4B0B4A1B68F02081
:1014E000B3FBF2F34FF47A725343084A013B536063
:1014F000074B83F82300072391601360704700BFF8
:10150000180000200000002040420F0010E000E022
:1015100000ED00E02DE9F84F254B264D01281CBFBA
:10152000AA461D46894614462349244A06BF9A46C0
:101530008846904601F0C0FC284601F035FD04289D
:10154000074630D14FF6FF7BB9F1000F08BF4FF4CB
:101550007A74013405F1100624F001043444C5EB1B
:101560000A0AA64217D0B9F1000F03D13AF80610C3
:1015700089B203E0731B4B4433F8101C594501D169
:101580000236EEE7B0450DD9304601F0C7FC04281D
:101590000746F5D007E04FF01131284601F0DAFC9C
:1015A000074600E0802701F091FC3846BDE8F88F3F
:1015B00000E0010800E40108FFE70108FFE301087B
:1015C00010B501F079FC074801F0EEFC0428044650
:1015D00003D1054801F0E8FC044601F077FC204601
:1015E00010BD00BF00E0010800E401080131C1F3B3
:1015F0004F0100239AB291420AD9B3F5FC7F09D07A
:10160000054A1A445200128820F813200133F1E7EA
:10161000042070478020704708F0000438B50A465F
:1016200004460D4601460020FFF774FFC0B20428AF
:1016300001D080B238BD2A4621460120FFF76AFF5B
:10164000C0B238BD38B5164B1D68D3F80044B5F1AB
:10165000113F07D1B4F1113F01D104201DE0621CFC
:101660000ED104E06B1C0BD1B4F1113F08D1002264
:1016700011460120FFF74EFFC0B204280DD1ECE760
:10168000FFF79EFFC0B2042807D1013504D1013411
:1016900014BF4020202000E0402080B238BD00BFB1
:1016A00000E001081FB501210846FFF75FFE002397
:1016B000ADF80A30ADF806304FF6FF73ADF80830DC
:1016C0000A4B0B4A1B6804A9B3FBF2F3013B21F858
:1016D0000C3D4FF08040FEF719FD01214FF0804096
:1016E000FEF75CFE05B05DF804FB00BF00000020C3
:1016F00040420F0030B472B64FF08043988C80B2F5
:1017000062B60B490B8AD1E90245834204D9013400
:1017100045F10005C1E902452B04220443EA1443C4
:10172000141843F1000508822046294630BC704752
:10173000B800002008B50120FFF7B4FF4FF0804348
:101740009A8C054B002192B21960002000219A80EA
:10175000C3E902011A8208BDB800002070B5044632
:101760000646044D0FCD0FC495E8070084E8070036
:10177000304670BD18000020044B986800F0E0501F
:1017800000F1644358425841704700BF0064004074
:101790002DE9F341054600287DD0046814F000547B
:1017A0007CD1FFF7FBFD3F4B9A6802F0E052B2F1AB
:1017B000E05F51D09A682646C2F380628DF804201B
:1017C0009A689B68C2F3C062C3F300738DF805206A
:1017D0008DF80630FF2401ABF35C0BB1F4B234E0BA
:1017E000330103F1804303F5CB431868FFF7CAFDCB
:1017F0002F684FEAD07C4FEAD778E04527F0604366
:1018000020F0604207F0004E00F0004110D0BEF121
:10181000000F00D09B0C19B1900C984215D002E03B
:101820009A4217D0104683422CBF002001200BE0C3
:10183000934205D1C0F38070C7F38077874203D10C
:1018400093422CBF0020012020B10136032EC2D1CB
:10185000FF2C01D1002022E023012A7C03F18043E8
:1018600003F5CB435A60EA682968DA60AA68002960
:101870009A60BABFCA0042F004024A05490048BF54
:1018800042F0020242F001021A60074A0120536945
:101890000133536103E06FF0010000E0034802B040
:1018A000BDE8F081006400401800002015FCFFFF37
:1018B000F8B5054600282FD0FFF770FD184BDA6801
:1018C000920706D1186910F0030027D00124154EA5
:1018D00001E0154E0024A40004F1804404F5C8443E
:1018E000E368124F13F0100F18BF3B6830681CBF3D
:1018F00001333B60FFF746FD7368286003F00F0378
:101900002B74B3680120AB60F368EB603823E360AD
:10191000BB690133BB61F8BD6FF00100F8BD00BFCA
:1019200000640040C0650040B06500401800002021
:10193000032970B504460D463ED800283CD00388E4
:10194000013B9BB2B3F5806F36D2C388013B9BB29B
:10195000032B31D84388013B9BB20F2B2CD88388B3
:10196000013B9BB2072B27D8474E1C223046002153
:1019700001F0A6FEAA1E534253413377434B002287
:101980005A611A684FF47A7622F002021A601A68D5
:1019900042F001021A601A4653683C49DB070ED434
:1019A0004FF47A70FFF76CFD013EF5D14FF4004320
:1019B0000B606FF47A7070BD6FF0010070BD612331
:1019C0000B60E2886388013A013B12061B0403F4B2
:1019D000702302F040721A432388012D03F1FF3374
:1019E000C3F3090342EA0302A3884FF47A7403F1B4
:1019F000FF334FEA035303F4E00343EA02030CBF4F
:101A00004FF000420022032D43EA02030CBF4FF0C7
:101A1000804200221343CB610B6823F001030B606B
:101A200048681A4A10F001000AD04FF47A70FFF7A4
:101A300027FD013CF4D14FF400431360144870BDFE
:101A4000D2F8003223F47C5323F00E0343F4606396
:101A500043F00103C2F800326FF07043C2F8040291
:101A6000C2F80C320B4BC2F814320123C2F8400208
:101A7000C2F84402C2F81C32D2F8003223F001034B
:101A8000C2F8003270BD00BF1800002000640040A2
:101A900016FCFFFFAAAAAA0A13B5044601214FF0BB
:101AA0000070FFF763FC01211CB10920FFF752FC15
:101AB00002E00420FFF74EFC48238DF80730032393
:101AC0008DF8063044B14FF4807301A91648ADF883
:101AD0000430FFF7B7FB07E04FF4006301A9134898
:101AE000ADF80430FFF7AEFB18238DF80730032361
:101AF0008DF806306CB14FF4007301A90A48ADF8B7
:101B00000430FFF79FFB01214FF4EA10FFF7F2FBCF
:101B100007E04FF4805301A90448ADF80430FFF703
:101B200091FB02B010BD00BF000C01400008014055
:101B300038B50C460546002101602346C0F8031065
:101B40002022FFF70FF9231D022220212846FFF74C
:101B500009F9A31D032222212846FFF703F904F106
:101B60000803032225212846FFF7FCF804F10A03A5
:101B7000102228212846FFF7F5F80448FEF7DCFE7E
:101B8000034BA0811B78E38138BD00BF6C050020AA
:101B9000B000002010B5FFF7ADFD064A002301F0AC
:101BA00089FB054C20602146BDE810400348FFF743
:101BB000BFBF00BF40420F0044000020901500202E
:101BC00030B50F4C87B023889BB10E4D2846FFF7E8
:101BD000E1FF07230493182302930B4B0395019312
:101BE00040F25513201D009303A3D3E90023FEF711
:101BF000A5FE07B030BD00BFF1C6A7C1D068080F71
:101C00006805002090150020B000002010B5064C9B
:101C100010220021204601F053FD044B00221A70CF
:101C20000123E38010BD00BF44000020B00000206D
:101C3000F7B5044640F279120E46002101F040FD4E
:101C40002046FFF7A7FF18A1D1E900010323237263
:101C5000002502AB012763E90201E57120466772A6
:101C600020225021FFF77EF80D4AA7751346E5752F
:101C700003CBA061E16118680A4B20621068293427
:101C800044F8050C03F1140253F8041B934244F882
:101C9000041BF9D11B8823803F23338003B0F0BDA0
:101CA000E8F7FF1FA43B0008ED04AE0500000000AC
:101CB00070B5134D88B02B880446C3B1114E0DF199
:101CC0001E013046FFF7B4FFBDF81E30E17E0593DC
:101CD000002304960393A37E1934029301230093F7
:101CE000019405A3D3E90023281DFEF77AFE08B06E
:101CF00070BD00BFAFF300809E6AC421818A46EEAA
:101D0000680500209015002070B505468AB00E4683
:101D10004922002101F0D4FC03A8FFF71FFD089B16
:101D200000248DE8180021466B4628463022FFF734
:101D300019F8099B30228DE8180011466B46284699
:101D4000FFF710F8039B049A60211A44059B28466C
:101D50001A44069B13448DE8180030226B46FFF7A7
:101D600001F8122333800AB070BD000000000000AB
:101D700070B5134D88B02B880446C3B1114E0DF1D8
:101D80001E013046FFF7C0FFBDF81E30E17E05930F
:101D9000002304960393A37E193402930423009333
:101DA000019405A3D3E90023281DFEF71AFE08B00D
:101DB00070BD00BFAFF30080042B31ECA7766FBE7F
:101DC000680500209015002037B504460D46102206
:101DD000002101F075FC00231946009428222846B2
:101DE000FEF794FEEB7E23816B7E638103B030BDF2
:101DF00010B4002404700B460122214610BCFEF7EB
:101E0000B1BF0000000000001FB501466846FFF7A3
:101E1000DBFFDDE9000106A3D3E90023994206BFF9
:101E200090420120002005B05DF804FBAFF3008074
:101E30001E1B55CEAC0000000149FFF7D9BF00BF03
:101E4000420000200000000070B5114D86B02B88C4
:101E50000446ABB10F4E19343046FFF7EDFF0123B6
:101E6000A17805930023049603936378281D0293B9
:101E700005230093019404A3D3E90023FEF7B1FDE9
:101E800006B070BDAFF30080F017304A39059E569A
:101E90006805002090150020014B00221A80704731
:101EA0004200002037B50D460446002303608380BE
:101EB0001946009008222846FEF728FEEB7E638034
:101EC0006B7EA38003B030BD002202600B46C0F8D9
:101ED000032030210122FEF745BF00000149FFF732
:101EE000F3BF00BFC817002070B5114D86B02B8816
:101EF0000446ABB10F4E19343046FFF7EFFF07230E
:101F0000A17805930023049603936378281D029318
:101F10000A230093019404A3D3E90023FEF761FD93
:101F200006B070BDAFF30080CDD269EBC51A133B8C
:101F3000680500209015002073B516460C4605462E
:101F400009880023009003223046FEF7DFFD218838
:101F5000033189B221802B88012B08D108350095E7
:101F600040223046FEF7D2FD23884033238002B062
:101F700070BDF0B50E460746002485B040222146CC
:101F8000ADF80E4001F09CFB23460D222146009740
:101F90003046FEF7BBFDBDF80E3004A90D3321F825
:101FA000023D324607F10800FFF7C6FFBDF80E30CC
:101FB000B58A0733C3F3CF03ED1A2DB21F2DADF849
:101FC0000E30A8BF1F25A3B2AB4204F101040CDA06
:101FD000BDF80E100822194418333B440093C90081
:101FE00000233046FEF792FDEDE7F37E3B87737EDC
:101FF0007B8705B0F0BD70B50C46154613460988C1
:1020000003220646FEF7AEFE2188033189B2218005
:102010002B88012B08D105F1080340223046FEF73A
:10202000A1FE23884033238070BD70B50C46154651
:102030001346098802220646FEF794FE21880231E3
:1020400089B221802B88012B08D105F10803402299
:102050003046FEF787FE23884033238070BD2DE98C
:10206000F74306461446884640F27312002101F0F9
:1020700027FB02AD052325F8023D224629463046BE
:10208000FFF7B9FFBDF8063004F110020533294609
:102090003046ADF80630FFF7AEFFBDF8063004F16C
:1020A0002002063329463046ADF80630FFF7BDFF63
:1020B000BDF8063004F13002063329463046ADF84B
:1020C0000630FFF7B2FFBDF8065040340735ED107B
:1020D0001FFA85F92046ADF8069001F07BFC2146F9
:1020E00082B20746701901F075FA4F44A8F80070E3
:1020F00003B0BDE8F0830000014AFFF7B0BF00BFA6
:10210000000100200000000070B5134D88B02B883E
:102110000446C3B1114E0DF11E013046FFF7ECFF2E
:10212000BDF81E30E17E0593002304960393A37E41
:10213000193402930B230093019405A3D3E90023E0
:10214000281DFEF74EFC08B070BD00BFAFF3008045
:10215000D5A4D139F922B6A7680500209015002032
:102160002DE9F0470B7E04460D4623B90F88112F49
:1021700000F2918012E0DFF82C8100264FF0140964
:1021800001F1180A09FB068350469968B7B201F0BD
:10219000E5FA18B10136122EF4D17CE02B894149C1
:1021A000B3B114227A438B181B79013B052B0FD84E
:1021B000DFE803F0030307070B0B8B582A691A703B
:1021C00006E08B582A691A8002E08B582A691A6047
:1021D0000123002223862384238223800023C4E951
:1021E0000623C4E90E23304A0023C4E90A2314233A
:1021F0007B43CA1811792B480139052944D8DFE8F7
:1022000001F003091022383EC35800211878C4E9B0
:10221000020139E0C35893F90000C117C4E9020173
:1022200032E0C35800211888C4E9020190890021D6
:10223000C4E90601D0890021C4E90E01108A0021F9
:10224000C4E90A0120E0C358B3F90000C117C4E98A
:102250000201B2F90C00C117C4E90601B2F90E007F
:10226000C117C4E90E01B2F91000C117C4E90A018F
:102270000AE0C3581B68A3600023E36004E0C3586E
:102280001868C117C4E9020104F140009168BDE873
:10229000F04701F041BB2046BDE8F0476022002135
:1022A00001F00EBA3C3A000880841E00054B10B5C0
:1022B00000241C8060222146034801F001FA034BF0
:1022C0001C8010BDC8170020000100204200002023
:1022D0002DE9F3410E462C220021074601F0F0F9CA
:1022E000B6F91430072493FBF4F42344022493FB3F
:1022F000F4F4A4B2132C28BF132400254FF00E08C9
:10230000ABB29C4208FB05F109D907EB45030093EA
:102310000E2201233046FEF7F9FB0135F0E7F37E8C
:102320003B85737E7B8502B0BDE8F08173B50C46BA
:102330000B46202200210546FEF714FD6068FEF7DB
:1023400039FF02AE26F8020D33461022202128461E
:10235000FEF708FDA068FEF72DFF3346ADF8060036
:10236000102230212846FEF7FDFCE068FEF722FF30
:102370003346ADF80600102228464021FEF7F2FC55
:1023800004F11003284612225021FEF7EBFC04F161
:102390001403284607226221FEF7E4FC04F1160329
:1023A000052269212846FEF7DDFC0448FEF7C4FA41
:1023B000034B20831B78638302B070BD6C05002043
:1023C000400000200149FFF7B1BF00BF54000020CA
:1023D00030B50F4C87B023889BB10E4D2846FFF7D0
:1023E000F1FF0E230493182302930B4B03950193E3
:1023F00040F20A43201D009303A3D3E90023FEF714
:102400009DFA07B030BD00BF54B2FBA2AE28AFA901
:1024100068050020901500204000002008B51C220F
:102420000021034801F04CF9024B00221A7008BD4C
:1024300054000020400000200A4B30B403F59252B3
:102440000021002400251160C2E9024530BC41F2A0
:1024500050220548995003F592530021C3E9060123
:10246000FFF7DCBF68050020A086010010B5094C0D
:1024700023880BB9002010BD201DFEF7F9FA0028B3
:10248000F8D0FFF785F90028F4D0201DFEF7F4FA04
:10249000012010BD6805002010B50B4C86B02088C7
:1024A00080B16846FFF704FA00280BD009DDFFF77A
:1024B00021F902460B46201D6946FEF79BFC0120D0
:1024C00000E0012006B010BD680500202DE9F743AB
:1024D0001E4C2388002B36D0FFF70CF90F4606461A
:1024E0001B49D1E900894F4508BF464512D3194A17
:1024F000002312EB080243EB0903C1E90023FFF7B5
:10250000F9F802460B46201DFEF7C0FA211D684669
:10251000FEF748FE41F23023E458A4B10E49D1E958
:1025200000239F4208BF96420DD3002512196B412C
:102530009F4208BF9642F9D2C1E9002303B0BDE82B
:10254000F043FFF73DBB03B0BDE8F0836805002012
:102550009017002040420F00A017002010B5134C28
:102560004FF493520021204601F0AAF8201D0021CB
:10257000FEF7DBF940F6B830002104F59153C3E9CA
:10258000020141F230230A4AE25040F2DC520023B9
:1025900004F59154C4E90623FFF738FBFFF77CFCF0
:1025A000FFF784FEBDE81040FFF746BF6805002036
:1025B00040420F007FB5FFF7D1FF0020FFF76CFA14
:1025C000092324215A1CB1FBF2F56A43242ADEB206
:1025D00004D0013B012BF5D100204CE0C3EBC30339
:1025E000DA1CD210D0B24FF47A7401325443311A4B
:1025F000C9B20A4494FBF2F2B2F5617FC2BF03F1A3
:10260000FF33C3F3C700311A00F1FF33C8BFC9B2AB
:102610000F2B05D84B1E072B8CBF0023012300E096
:102620000023421802FB0554144AB2FBF4F2144C86
:10263000A242D1D1002BCFD0ADF80A00ADF80C10DA
:102640000124022102A8ADF80850ADF80E40FFF7B2
:102650006FF90028C0DB00230A4D01930A4BA5F156
:10266000240000934FF48052084B2946FEF735F9B9
:10267000204625F8284C04B070BD00BF005125024B
:1026800040420F0090050020D1130008D52B000810
:1026900008B5FFF78FFF003018BF012008BD00000C
:1026A0000A4B1A8892060FD509480A499A88038866
:1026B00009880133C3F3090389B28B4218BF064965
:1026C000D2B21CBFCA540380704700BF0044004010
:1026D00060050020B2000020600100200F4B2D2279
:1026E0005A809A804FF47A720320DA800222012104
:1026F0001A819A81DA811A8258829A8204201A8376
:102700009A8306225981D8824FF47A610520DA83B0
:10271000C8221984588359849A847047D0000020B5
:102720002F4B70B55A884AB1132A9CBF14225A8085
:102730005A88642A82BF2A4A64215180DA88022496
:10274000312A9EBF264A4FF47A71D18041F28832F5
:10275000D9881425914282BF214A4FF47A71D180E1
:102760001F4A012602F1180011890229518988BFE8
:10277000148109B9568102E0142988BF55810432B9
:102780008242F1D140F6C311188C154A884203D811
:1027900040F6C411118404E044F62061884288BFE9
:1027A000118440F6C311588C0D4A884203D840F674
:1027B000C411518404E044F62061884288BF5184EA
:1027C0009A8C5AB1C72A9EBF054AC82191849B8C16
:1027D000B3F57A7F82BF024BC8229A8470BD00BFD6
:1027E000D000002038B52E22FF211E4800F068FFDF
:1027F000FEF728FFC0B204281A4D0AD02E22FF216E
:10280000184800F05DFFFEF71DFFC0B204280FD18D
:1028100007E02E212846FEF7E9FEC0B204280CD0BE
:10282000ECE72E210F48FEF7E1FEC0B2042804D0E9
:102830002E22FF210B4800F043FF2B88094C63B187
:10284000FFF74CFF20460023074920F8263B01F004
:1028500063F82E212046FEF7E1FEBDE83840FFF781
:102860005FBF00BFD0000020BB3B00082E21014805
:10287000FEF7D4BED000002038B50588084C25B935
:10288000FFF7F4FF0123238038BD012D05D1FFF7A9
:1028900025FFFFF7EBFF258038BD0023238038BDDF
:1028A000C817002008B541F28830FEF7E9FD054958
:1028B000054BCA6802F4E0621343CB60BFF34F8F4D
:1028C000FEE700BF00ED00E00400FA0507B50121B6
:1028D0000420FEF73FFD1023ADF804308DF80730DB
:1028E00001A9032303488DF80630FEF7ABFC03B0C3
:1028F0005DF804FB00080140F7B518238DF8073098
:102900000121032340F605008DF80630FEF722FD75
:102910000121042002ADFEF729FD4FF40076284C7A
:1029200001210920FEF716FD25F8046D29462046F1
:10293000FEF788FC002231462046FEF7D5FC4FF416
:10294000806729462046ADF80470FEF77BFC002224
:102950003946204604F58064FEF7C6FC4027294628
:102960002046ADF80470FEF76DFC00223946204683
:10297000FEF7BAFC802729462046ADF80470FEF722
:1029800061FC002239462046FEF7AEFC4FF480770A
:1029900029462046ADF80470FEF754FC0022394663
:1029A0002046FEF7A1FC29462046ADF80460FEF75C
:1029B00049FC002231462046FEF796FC03B0F0BDEC
:1029C00000080140394A3A49126810B5B2FBF1F2E9
:1029D00088B00023374CADF80A30ADF80630ADF8BA
:1029E0001C30ADF81E30ADF81830ADF81A30ADF827
:1029F00014304FF47A73013AADF81630238CADF8E9
:102A000004206022013BADF8102001A901222A48D0
:102A1000ADF80830ADF81220FDF778FB23891BB123
:102A200004A92548FDF700FCA3891BB104A922488D
:102A3000FDF73EFC638C01A9013B2048ADF808304E
:102A4000FDF764FB238A1BB104A91C48FDF7A8FB12
:102A5000A38A1BB104A91948FDF7E6FB238B1BB120
:102A600004A91648FDF724FCA38B1BB104A9134845
:102A7000FDF760FC238913B90E4B9B893BB1012103
:102A80000D48FDF797FC01210B48FDF787FC228AD2
:102A9000084B2AB99A8A1AB91A8B0AB99B8B1BB1AF
:102AA00001210648FDF77AFC08B010BD00000020A7
:102AB00040420F00D0000020002C014000080040E0
:102AC00008B5FFF719FFBDE80840FFF77BBF00001E
:102AD000002330B51C46074D4FF47A70591908335E
:102AE000302B044A4C600881F8D1002301209386E2
:102AF000108030BDCC170020002330B51C46074D98
:102B00004FF47A7059190833302B044A4C6008810D
:102B1000F8D1002301209386108030BD7000002082
:102B2000154B1A88002A25D0144A1189012982BF21
:102B30001889134908879189012982BF188A104989
:102B40008887118A012982BF188B0E498886918A4D
:102B5000012982BF188C0B490887118B012982BF7C
:102B6000188D08498887928B012A82BF1A8E054BDF
:102B7000A3F84020704700BF70000020D000002064
:102B8000002C014000080040104A30B41388D3B133
:102B90000F4D00214FF47A744B195B890431013BCE
:102BA00030F913300832002B42F8043CA3BF6343D2
:102BB0005B1303F57A731480A8BF13801829EBD137
:102BC00030BCFFF7ADBF30BC704700BF70000020C5
:102BD000D000002030B50B7E91B0022B0C460FD1F7
:102BE00040F20643CA8A9A426AD13648FFF770FB20
:102BF0003448FFF7C9FF21463348FEF7EBF85FE0A2
:102C0000012B5DD1CB8A013B0A2B59D8DFE803F0B9
:102C10000658580A0E585858583C4A000846FFF7BC
:102C200047F84DE00846FFF7A3F849E00846FFF7EC
:102C3000EBF80546254B214618802348FEF7CAF8D5
:102C40002046FFF701F9002D3AD0FEF753FD204C46
:102C5000002524184D411C48FDF70AFF70B1FFF70D
:102C600005FCFEF747FD8D4208BF8442F3D205E024
:102C7000FEF740FD8D4208BF844203D3FEF77CFD82
:102C80000028F5D0FFF70EFE6846FFF70BF96846FF
:102C9000FFF7F2FD21460C48FEF79CF82046FFF7AF
:102CA00023F90DE06846FFF764F969460948FFF724
:102CB00057FA05482146FEF78DF82046FFF724FA1B
:102CC00011B030BD901500206C050020420000209E
:102CD00020A107000001002038B5264C2388002BD6
:102CE00046D0A38E002B43D0012B06D10023E386D0
:102CF00000220023C4E90E2304E0022B14D1E38E4A
:102D0000052B02D90023A38638BDFEF7F3FCD4E9D6
:102D10000E238B4208BF8242F4D210F57A7041F143
:102D20000001C4E90E01EDE7032BEBD1E28E12495D
:102D3000951C31F82530012B16D9104B002004EBDF
:102D4000C202128918600E481A6158609860D860F3
:102D5000A2F57A720A2092FBF0F201EB85019A82C9
:102D60004A88DA82FFF734FBE38E0133E386C9E752
:102D700038BD00BF70000020D000002054000020AB
:102D80000000C07F024B1A880AB101229A86704760
:102D9000700000202DE9F047FEF79AFBFFF796FD43
:102DA000FEF7C8FCFFF71EFDFFF78AFEFFF770FC79
:102DB00058B93349CB686420DB4303F0100343F474
:102DC00080130B61FEF763FBF4E72E4E2E48B178BB
:102DD00001F07F01FDF7A9FDF2884FF47A735343A8
:102DE00041F2302229494FF4FA708B50FEF74FFB25
:102DF000FFF782FEFFF76CFE254B0022DA80254AA2
:102E0000128812B1244A12880AB903229A80234FE9
:102E100000242546B946DFF86880FFF73DFB00280F
:102E2000FBD1FFF723FB82460028FAD1FFF74EFBC8
:102E3000FFF752FFFB8B9BB2002BEED0A9F81EA030
:102E400015B1013DADB201E040F2F3151CB9B48CEF
:102E5000013CA4B201E0013CA4B245B9D8F80C3061
:102E6000DB4303F0100343F48013C8F81030B38C35
:102E7000002BD2D0002CD0D1FFF784FFCDE700BFCC
:102E800000080140D00000206C05002068050020EB
:102E90004400002070000020CC1700201800002003
:102EA000034B044A5A6002F188325A60704700BFEF
:102EB0000020024023016745FFF7F2BF024A136971
:102EC00043F080031361704700200240FFF7F6BF14
:102ED000084BDA68D10709D4DA68520708D4DB68EE
:102EE00013F0100F14BF0320042070470120704717
:102EF000022070470020024010B50446FFF7E8FFAB
:102F0000012806D11CB1FFF7E3FF013CF8E70520DB
:102F100010BD002C08BF052010BD000070B505468F
:102F20004FF400500E46FFF7E7FF04280ED1084C7F
:102F30004FF40050236943F0010323612E80FFF713
:102F4000DBFF41F6FE7322691340236170BD00BFB1
:102F50000020024073B5002306464FF400500D4692
:102F60000193FFF7C9FF04281AD10E4C4FF400500B
:102F7000236943F001032361ABB23380FFF7BCFF49
:102F8000042808D102360196019B2D0C1D804FF4B8
:102F90000050FFF7B1FF41F6FE7322691340236131
:102FA00002B070BD0020024038B505464FF4302015
:102FB000FFF7A2FF042812D1094C4FF430202369F7
:102FC00043F0020323616561236943F040032361F9
:102FD000FFF792FF41F6FD7322691340236138BD6C
:102FE00000200240D0400B1CD1409C46203AD340E8
:102FF0001843524263469340184370479140031C64
:1030000090409C46203A9340194352426346D34035
:10301000194370474FF0FF0C1CEAD0521EBF1CEA48
:10302000D15392EA0C0F93EA0C0F6FD01A4480EA46
:10303000010C400218BF5FEA41211ED04FF000632F
:1030400043EA501043EA5111A0FB01310CF000405B
:10305000B1F5000F3EBF490041EAD3715B0040EA81
:10306000010062F17F02FD2A1DD8B3F1004F40EB51
:10307000C25008BF20F00100704790F0000F0CF024
:10308000004C08BF49024CEA502040EA51207F3AE8
:10309000C2BFD2F1FF0340EAC250704740F40000C3
:1030A0004FF00003013A5DDC12F1190FDCBF00F0B4
:1030B00000407047C2F10002410021FA02F1C2F162
:1030C000200200FA02FC5FEA310040F1000053EAFE
:1030D0004C0308BF20EADC70704792F0000F00F04C
:1030E000004C02BF400010F4000F013AF9D040EA52
:1030F0000C0093F0000F01F0004C02BF490011F4E6
:10310000000F013BF9D041EA0C018FE70CEAD153E3
:1031100092EA0C0F18BF93EA0C0F0AD030F0004C63
:1031200018BF31F0004CD8D180EA010000F0004017
:10313000704790F0000F17BF90F0004F084691F0D5
:10314000000F91F0004F14D092EA0C0F01D142020F
:103150000FD193EA0C0F03D14B0218BF084608D1D8
:1031600080EA010000F0004040F0FE4040F4000022
:10317000704740F0FE4040F4400070474FF0FF0CB5
:103180001CEAD0521EBF1CEAD15392EA0C0F93EAFC
:103190000C0F69D0A2EB030280EA010C49024FEA4E
:1031A000402037D04FF0805343EA111143EA101307
:1031B0000CF000408B4238BF5B0042F17D024FF4BF
:1031C000000C8B4224BF5B1A40EA0C00B3EB510F9A
:1031D00024BFA3EB510340EA5C00B3EB910F24BF83
:1031E000A3EB910340EA9C00B3EBD10F24BFA3EB08
:1031F000D10340EADC001B0118BF5FEA1C1CE0D1D0
:10320000FD2A3FF650AF8B4240EBC25008BF20F082
:10321000010070470CF0004C4CEA50207F32C2BFD6
:10322000D2F1FF0340EAC250704740F400004FF073
:103230000003013A37E792F0000F00F0004C02BFA4
:10324000400010F4000F013AF9D040EA0C0093F06E
:10325000000F01F0004C02BF490011F4000F013BC8
:10326000F9D041EA0C0195E70CEAD15392EA0C0F30
:1032700008D142027FF47DAF93EA0C0F7FF470AF68
:10328000084676E793EA0C0F04D14B023FF44CAFAB
:1032900008466EE730F0004C18BF31F0004CCAD140
:1032A00030F000427FF45CAF31F000437FF43CAF7C
:1032B0005FE700BF53B94AB9002908BF00281CBF07
:1032C0004FF0FF314FF0FF3000F082B9ADF1080C44
:1032D0006DE904CE00F006F8DDF804E0DDE9022334
:1032E00004B070472DE9F04F8C460C460546099E08
:1032F000002B4FD18A4217466BD9B2FA82FEBEF13B
:10330000000F0BD0CEF1200520FA05F501FA0EF3DF
:1033100045EA030C02FA0EF700FA0EF5390CBCFB75
:10332000F1F0BAB201FB10C300FB02F84FEA154CF2
:103330004CEA0344A04509D9E41900F1FF3380F0B9
:103340002881A04540F2258102383C44C8EB0404A2
:10335000B4FBF1F301FB134C03FB02F2ACB244EA01
:103360000C418A4209D9C91903F1FF3480F00F8159
:103370008A4240F20C81023B39448A1A43EA0040F7
:103380000021002E63D022FA0EF2002386E80C0002
:10339000BDE8F08F8B4207D9002E56D0002186E879
:1033A00011000846BDE8F08FB3FA83F1002940F020
:1033B0009380A34202D3824200F2FE80851A64EB1E
:1033C00003039C460120002E41D086E82010BDE872
:1033D000F08F12B90127B7FBF2F7B7FA87FEBEF1FB
:1033E000000F36D1E41B4FEA17481FFA87F9012175
:1033F000B4FBF8F308FB134409FB03F24FEA154C46
:103400004CEA0444A24207D9E41903F1FF3002D286
:10341000A24200F2D3800346A41AB4FBF8F008FBE2
:10342000104809FB00F9ACB244EA0842914507D9BB
:10343000D21900F1FF3402D2914500F2BA80204641
:10344000C9EB020240EA03409BE731463046BDE843
:10345000F08F07FA0EF7CEF1200C24FA0CF34FEAA6
:103460001748B3FBF8FA1FFA87F908FB1A3520FA58
:103470000CFC04FA0EF40AFB09FB4CEA040C4FEABC
:103480001C4242EA05439B4500FA0EF50AD9DB19B6
:103490000AF1FF3280F08B809B4540F28880AAF1D0
:1034A000020A3B44CBEB0303B3FBF8F008FB1033F9
:1034B00000FB09F41FFA8CFC4CEA03439C4207D939
:1034C000DB1900F1FF326ED29C426CD902383B44CA
:1034D0001C1B40EA0A418BE7C1F1200E8B4022FA07
:1034E0000EFC4CEA030C24FA0EF74FEA1C49B7FB1A
:1034F000F9FA1FFA8CF309FB1A7720FA0EF88C40C0
:103500000AFB03F548EA04044FEA144848EA07476F
:10351000BD4202FA01F200FA01FB09D917EB0C07D0
:103520000AF1FF3041D2BD423FD9AAF1020A6744F5
:103530007F1BB7FBF9F509FB157705FB03F3A4B275
:1035400044EA0747BB4208D917EB0C0705F1FF30E7
:1035500027D2BB4225D9023D674445EA0A40A0FB79
:103560000289FF1A4F4545464C4614D329D066B30D
:10357000BBEB050367EB040707FA0EFECB40CF4019
:103580004EEA030386E888000021BDE8F08F234659
:10359000F3E61846DAE6B8EB020569EB0C040138ED
:1035A000E5E70546D9E7104692E78246C0E792462E
:1035B00078E702383A4443E7084604E7023B3C44D4
:1035C0002AE7C345E7D33C46D1E73146BDE8F08F53
:1035D000704700BF844641EA000313F0030349D15A
:1035E000403A23D30B6803604B6843608B68836069
:1035F000CB68C3600B6903614B6943618B6983616D
:10360000CB69C3610B6A03624B6A43628B6A836254
:10361000CB6AC3620B6B03634B6B43638B6B83633C
:10362000CB6BC36340304031403ADBD230320BD3F6
:103630000B6803604B6843608B688360CB68C36032
:1036400010301031103AF3D20C3205D351F8043B4C
:1036500040F8043B043AF9D2043208D0D2071CBF28
:1036600011F8013B00F8013B01D30B880380604651
:10367000704700BF082A13D38B07B1D010F00303A3
:10368000AED0C3F10403D21ADB071CBF11F8013B13
:1036900000F8013BA4D331F8023B20F8023B9FE73E
:1036A000043AD9D3013A11F8013B00F8013BF9D2B1
:1036B0000B7803704B7843708B788370604670474B
:1036C00070B4840746D0541E002A41D0CDB20346C0
:1036D00002E0621EE4B3144603F8015B9A07F8D1D6
:1036E000032C2ED9CDB245EA05250F2C45EA054518
:1036F00019D9264603F11002103E0F2E42F8105C35
:1037000042F80C5C42F8085C42F8045C02F11002DA
:10371000F2D8A4F1100222F00F0204F00F041032CC
:10372000032C13440DD91E462246043A032A46F8B8
:10373000045BFAD8221F22F003020432134404F07F
:1037400003042CB1C9B21C4403F8011BA342FBD1F2
:1037500070BC704714460346C2E700BF80EA010C04
:103760001CF0030F37D110F0030C20F0030021F000
:10377000030150F8042B08BF51F8043B0ED08CF025
:10378000030C6FF07F434FEACC0C23FA0CFC51F88A
:10379000043B42EA0C0243EA0C0300BFA2F1013CE5
:1037A0009A4201BF2CEA020C1CF0803F50F8042B17
:1037B00051F8043BF2D04FEA02604FEA122201288E
:1037C00028BFB0EB036F08BF1B0AF4D003F0FF0360
:1037D000000EC01A704710F0030F0AD010F8012B2A
:1037E00011F8013B012A28BF9A42F4D0A2EB030052
:1037F00070474DF8045D50F8042B01F0030521F0EB
:10380000030151F8043B022D26D04DD822F07F450C
:10381000B5EB132FA2F1013C2CEA020C0DD11CF0E8
:10382000803C08BF51F8043B0AD185EA0205B5EB9C
:10383000036F0CD150F8042BE8E74FEA13235BE049
:103840003CF07F4C54D10B784FEA126554E04FEABC
:10385000126503F0FF034FE04FEA0245A2F1013C7D
:103860004FEA15452CEA020CB5EB134F18D11CF0AA
:10387000803C08BF51F8043B07D185EA0205B5EB4F
:10388000034F09D150F8042BE6E75FEA0C4C2FD127
:103890000B884FEA12452FE04FEA03434FEA1245E7
:1038A0004FEA134328E000BF02F0FF05B5EB136FAA
:1038B000A2F1013C2CEA020C0DD11CF0803C08BFA7
:1038C00051F8043B0AD185EA0205B5EB032F0AD172
:1038D00050F8042BE8E74FEA13630DE012F0FF0FF6
:1038E00006D051F8043B4FEA122523F07F4303E052
:1038F0004FF0000020BC704705F0FF0203F0FF000E
:10390000012828BF904204BF2D0A1B0AF4D0A2EB65
:10391000000020BC704700BF80EA0102844612F01C
:10392000030F4FD111F0030F32D14DF8044D11F0B8
:10393000040F51F8043B0BD0A3F101329A4312F06B
:10394000803F04BF4CF8043B51F8043B16D100BF44
:1039500051F8044BA3F101329A4312F0803FA4F1D5
:1039600001320BD14CF8043BA24312F0803F04BF5C
:1039700051F8043B4CF8044BEAD023460CF8013BC9
:1039800013F0FF0F4FEA3323F8D15DF8044B704773
:1039900011F0010F06D011F8012B0CF8012B002AB1
:1039A00008BF704711F0020FBFD031F8022B12F0A0
:1039B000FF0F16BF2CF8022B8CF8002012F47F4F5B
:1039C000B3D1704711F8012B0CF8012B002AF9D163
:1039D000704700BF20F0030110F00300C0F10000A9
:1039E00051F8043B00F1040C4FEACC0C6FF00002DC
:1039F0001CBF22FA0CF213434FF0010C4CEA0C2CC2
:103A00004CEA0C4CA3EB0C0222EA030212EACC12A1
:103A100004BF51F8043B0430F4D0C2F1000102EAC3
:103A20000102B2FA82F2C2F11F0200EBD20070472B
:103A30002D00002000002E0000300000D2000020E9
:103A400003000000CA3B00082D00000064000000D5
:103A5000D400002003000000C03B00082D0000003F
:103A600064000000D600002003000000D13B0008E5
:103A7000E803320088130000D80000200300000093
:103A8000E13B00080200000002000000DA00002014
:103A900003000000EC3B00080100010014000000DE
:103AA000DC00002003000000F83B000802000000DA
:103AB00002000000DE00002003000000033C0008BC
:103AC0000200010014000000F000002003000000CC
:103AD0000F3C0008A00FC409204E0000E0000020A9
:103AE000030000001B3C0008020000000200000070
:103AF000E200002003000000263C00080300010053
:103B000014000000E400002003000000323C000824
:103B10000200000002000000E60000200300000098
:103B20003D3C00080400010014000000E8000020F3
:103B300003000000493C00080200000002000000F1
:103B4000EA00002003000000543C000805000100CA
:103B500014000000EC00002003000000603C00089E
:103B60000200000002000000EE0000200300000040
:103B70006B3C00080600010014000000F200002069
:103B800003000000773C0008A00FC409204E00008D
:103B9000F400002003000000833C0008C80000007F
:103BA000E80300006F6C6C69772E65752E756334C1
:103BB000682D6573632D6E6F646500656E645800D3
:103BC000507265666572726564204E6F6465496403
:103BD000004E6F646553746174757320526174652F
:103BE000004F75744131204D6F6465004F7574410D
:103BF0003120496E646578004F75744132204D6FF5
:103C00006465004F7574413220496E646578004FD9
:103C100075744120506572696F64004F757442314C
:103C2000204D6F6465004F7574423120496E6465A4
:103C300078004F75744232204D6F6465004F757483
:103C4000423220496E646578004F75744233204DCE
:103C50006F6465004F7574423320496E6465780067
:103C60004F75744234204D6F6465004F7574423453
:103C700020496E646578004F757442205065726902
:103C80006F6400457363537461747573205261747B
:023C90006500CD
:083C940050F6FF7F0100000063
:103C9C0000A24A040000000000000000010203041E
:043CAC0006070809F6
:0400000508000000EF
:00000001FF
