:020000040800F2
:1000000030170020E50F0008E10F0008E10F00089D
:10001000E10F0008E10F0008E10F000800000000F8
:10002000000000000000000000000000E10F0008D8
:10003000E10F000800000000E10F0008751C000837
:10004000E10F0008E10F0008E10F0008E10F0008D0
:10005000E10F0008E10F0008E10F0008E10F0008C0
:10006000E10F0008E10F0008E10F0008E10F0008B0
:10007000E10F0008E10F0008E10F0008E10F0008A0
:10008000E10F0008E10F0008E10F0008E10F000890
:10009000A522000841230008E10F0008E10F000835
:1000A000E10F0008E10F0008E10F0008E10F000870
:1000B000E10F0008E10F0008E10F0008E10F000860
:1000C000E10F0008E10F0008E10F0008E10F000850
:1000D000E10F0008511F0008E10F0008E10F0008C0
:1000E000E10F0008E10F0008E10F00080000000028
:1000F0000000000000000000000000000000000000
:1001000000000000000000005FF808F1224A0388A8
:1001100090429BB212D002F5006290420ED0B0F134
:10012000804F0BD0A2F59832904207D002F5806242
:10013000904203D002F58062904203D14A8823F0B6
:1001400070031343154A904208D002F58062904232
:100150001FBF23F44073CA889BB2134303808B886C
:1001600083850B8803850C4B98420FD003F5006301
:1001700098420BD003F54063984207D003F58063A3
:10018000984203D003F58063984201D10B7A03862D
:1001900001238382704700BF002C01400010004003
:1001A000038819B19BB243F0010303E023F001037C
:1001B0001B041B0C03807047384B82B01A6842F056
:1001C00001021A605968364A0A405A601A6822F0D9
:1001D000847222F480321A601A6822F480221A6033
:1001E0005A6822F4FE025A604FF41F029A600022FD
:1001F000009201921A6842F480321A601A6802F47E
:1002000000320192009A01320092019A1AB9009AC2
:10021000B2F5A06FF2D11A6812F4003218BF0122B1
:100220000192019A012A05D01E4B4FF000629A609C
:1002300002B070471C4A116841F01001116011684A
:1002400021F003011160116841F0020111605A6848
:100250005A605A685A605A6842F480625A605A6812
:1002600022F47C125A605A6842F4E8125A601A6802
:1002700042F080721A601968084A8901FBD55168FA
:1002800021F003015160516841F0020151605A6848
:1002900002F00C02082AFAD1C6E700BF00100240A3
:1002A0000000FFF800ED00E0002002402DE9F047DB
:1002B000089D01F007044FEAD508224405F0070520
:1002C0004FF47F4900EBD100944227D005F0070698
:1002D00004F0070AB245D44638BFB446CCF1080151
:1002E000C4EB020C8C4528BF8C46E708C75D29FA91
:1002F0000CFE08EBD50107FA0AF75FFA8EFE4EFAFC
:1003000006FE47FA06F65F5C06EA0E0627EA0E0EC0
:1003100046EA0E065E5464446544D5E7BDE8F087BE
:100320000246006848B1036811891360D38801331D
:100330009BB29942D38038BF1381704770B5044691
:100340000D4688B020220021684605F013FD2046A6
:100350000495FFF7E5FF054658B16B46044608AE25
:100360001A4603CAB24220606160134604F10804D1
:10037000F6D1284608B070BD2DE9F0410568DDB121
:100380008E68A84626F06047BB0C4FEAD67EC6F3BF
:10039000807C2A4637EA260628BF1E469368BEEBB5
:1003A000D37F23F060440ED0002B08DAA40CB442B3
:1003B00007D1954213D10D600160BDE8F081B442D0
:1003C00012D0A64206E0A74203D1C3F380739C4536
:1003D00003D1A7422CBF002301232BB1E9E7C8F8C2
:1003E00000100A60BDE8F0811368904613B91160EF
:1003F000BDE8F0811A46D1E7F8B506460F464FF63C
:10040000FF7400252A463046394604F00DFBC0B281
:1004100084EA0024082314F4004F4FEA4404A4B2F1
:100420001CBF84F4815484F00104013BF3D10835EE
:10043000402DE7D12046F8BD10B54B6843B1C468E4
:100440001A681C60C360438A013B43824A60F4E738
:100450000A8B002063F309020A83002110BD0A44BD
:10046000914211D011F8013B80EA0320082310F4D7
:10047000004F4FEA400080B21CBF80F4815080F0F2
:100480000100013BF3D1EBE770472DE9F04F85B058
:1004900081468DE80A00BDF83C409346002A7DD095
:1004A00024B10E9B002B79D0072C27D809F10C0022
:1004B000FFF736FF054610B96FF0020070E020220A
:1004C000002105F057FC22460E9905F1100005F0B9
:1004D00077FB631C2B769BF800302C4403F01F0342
:1004E00063F03F032374009B09F11C0043F00043B9
:1004F000AB602946FFF740FF012051E04FF00008B4
:1005000046464546019B4FF0800A1B0A029300F1C4
:100510000C0303930398FFF703FF07460028CBD093
:100520002022002105F026FC3EB99DF8043002226D
:100530003B749DF808307B740BE0002209E00E9BB1
:10054000B9180132985DD2B20136072A0874B6B2E2
:1005500001D0B442F3D8A64208BF4FF0400A9BF83E
:100560000010B81801F01F0141EA481141EA0A03DE
:100570000374009B013243F00043BB603A76394676
:1005800009F11C00FFF7F8FEA64205F1010588F00D
:1005900001084FF0000ABDD1284601E06FF00100CC
:1005A00005B0BDE8F08F2DE9F04717460A8B994654
:1005B000C2F30902C2F10603002B0646884618DD85
:1005C00000201FFA89F185B253199BB2052B09D976
:1005D000A9420FD8B8F818300A4462F30903A8F802
:1005E00018306BE0A942F3D93C5C43449C7601305F
:1005F000E9E70025911F1C23B1FBF3FA03FB1A1A4C
:10060000D8F804405FFA8AF10CB1012329E03046A2
:10061000FFF786FE044608B100230360C8F80440D3
:10062000CCB96FF00200BDE8F0874A44063A1C20BE
:10063000B2FBF0F20132D2B293420DD2BAF1000F06
:100640000AD13046FFF76CFE08B1C0F800A0206068
:100650000028E6D0044600211FFA89F94FF0000A6D
:1006600011E020680028E0D00133DBB20446F8E74F
:10067000A3180132785D92B201351C2A1871ADB20F
:1006800005D0A945F4D84D450FD28AB2F0E7A94567
:10069000F9D93046FFF744FE08B1C0F800A0206049
:1006A0000028BED004460021EDE7B8F81820C2F3B8
:1006B0000903994469F30902A8F818200120BDE84C
:1006C000F087F8B5044616460D46242200211F4641
:1006D00005F050FB069B72096360079B00202362B4
:1006E0004FF6FF739A4228BF1A4629460346A76071
:1006F000207097B204F10C06934204D031600133AC
:100700000E462031F8E70023336027826382A382FC
:10071000F8BD03781BB94BB2002BC8BF01707047FE
:10072000007870472DE9F7430D9F8046BDF82840BB
:100730000B9E9DF83090BDF838500FB9002D3FD179
:10074000B9F11F0F3CD898F80010A9B9072D34D87B
:1007500034F0030334D12A4639464FF6FF70FFF7D1
:100760007EFE47F6FE73240204F4407444EA0964F2
:10077000034044EA43240FE041EA0421072D41EA03
:10078000096409D919461046FFF736FE2A4639464C
:10079000FFF765FE034601E04FF6FF7301950097F2
:1007A000324621464046FFF770FE33780133DBB214
:1007B0001F2B88BF0023337004E06FF0030001E0BB
:1007C0006FF0010003B0BDE8F0832DE9F7430E9F01
:1007D00081460C46104619460B9D9DF830209DF829
:1007E0003480BDF83C6007B976BB1F2A2CD899F835
:1007F000003063B343F0800343EA04239DF82840AC
:1008000043EAC83343EA0443072E43EA026407D9A4
:10081000FFF7F2FD32463946FFF721FE034601E0BD
:100820004FF6FF73019600972A4621464846FFF788
:100830002CFEB8F1010F0CD12B780133DBB21F2B4A
:1008400088BF00232B7004E06FF0010001E06FF01F
:10085000030003B0BDE8F083C06900B10830704701
:10086000C3691A68C261C2681A60C360438A013BE7
:10087000438270472DE9F047D0F818A00546164688
:100880001F465446DFF868804FF00009002C2CD03A
:10089000D4E90223B21A67EB0303994508BF9045D8
:1008A00020D2AB6921469C4228460DD1FFF7C4FDFA
:1008B000AB691B68AB61EB6823606B8AEC60AC6969
:1008C000013B6B82A246E1E7FFF7B6FD2368CAF859
:1008D0000030EB6823606B8AEC60013B6B82DAF8D6
:1008E0000040D3E7A2462468D0E7BDE8F08700BF08
:1008F00080841E002DE9F04F8BB00E4614460793FE
:10090000149F8246002800F0FF80002F00F0FC803A
:10091000531E3F2B00F2F880012A03D1079B002BC6
:1009200040F0F280BAF814500023ED00AE42089374
:10093000099301D3002505E133199D42DAF80C3003
:100940003ABFAD1BEDB225461BB9DAF81030002BCB
:1009500061D02F2E15D8C6F13008A84528BFA8466B
:10096000002300935FFA88FB4246314608ABDAF871
:1009700008004644CBEB0508FFF798FC5FFA88F8BF
:1009800002E0A8464FF0000BBAF81430302103F112
:100990000053063BDB000493DAF80C300393039B0F
:1009A0006BB3B8F1000F2AD0049BE02B28BFE023E3
:1009B00006930B44B342059318D9C6EB0309C84507
:1009C00038BFC146039828BF5FFA89F9CDF800B057
:1009D000711A08AB4A460430FFF768FCCB44C9EBF8
:1009E00008084E445FFA8BFB5FFA88F8049B069A6E
:1009F00005999B1A0493039B1B680393CFE7DAF8CE
:100A0000100080B1B8F1000F0DD0CDF800B008ABE8
:100A10004246711A05E02A4631460093DAF808008A
:100A200008ABFFF743FC002D84D066070BD00AAB60
:100A300003EBD40111F8082C634203F0070342FAD8
:100A400003F301F8083C082C06D9102C06D9202CF9
:100A50008CBF0823042302E0012300E00223079A4D
:100A6000002A57D0B4EBC30F56D0082C0ED89DF9EE
:100A70002020631E22FA03F3D80760D54FF0FF331E
:100A800003FA04F414438DF8204058E0102C0ED8DB
:100A9000BDF92020631E22FA03F3D90743D54FF096
:100AA000FF3303FA04F41443ADF820403BE0202C5C
:100AB0000CD8089B621E23FA02F2D20737D54FF0FA
:100AC000FF3202FA04F42343089330E0402C1ED096
:100AD000DDE90889621E4046494603F0A5FF002172
:100AE00000F0010050EA010324D022460120002139
:100AF00003F0A6FF404261EB410140EA080041EAF1
:100B00000901CDE9080115E06FF001051AE06FF069
:100B1000080517E0012C12D0082C10D9102C02D98E
:100B2000202C07D803E0BDF820303B800AE0089B6A
:100B30003B6007E0DDE90823C7E9002302E09DF8F8
:100B400020303B7028460BB0BDE8F08F30B5402A0E
:100B500085B018D8002A08BF01220024012A029477
:100B6000039401D0082A03D81B788DF808300FE0D1
:100B7000102A03D81B88ADF8083009E0202A03D8D2
:100B80001B68029304E04022D3E90045CDE9024509
:100B900053070BD004AB03EBD20515F8084C5342B6
:100BA00003F0070304FA03F305F8083C0091034639
:100BB000002102A8FFF77AFB05B030BD10B5CB6865
:100BC00043B1C4681A681C60C360438A013B438216
:100BD000CA60F4E78B600B618B8210BD2DE9F04F8A
:100BE000D1F800A08FB0CDE90223CAF3C0120446A9
:100BF0000D4622B1CAF3C03BCAF3062802E0904674
:100C00004FF0020BBAF1000F80F2BB812B6813F09A
:100C1000C04F40F0B6812B7C002B00F0B281BBF1BD
:100C2000020F03D02178414540F0AB810AF07F01EB
:100C3000C8B2059012B1CAF3074904E0CAF30F29FC
:100C400009B909F003092B444FEA4868059ADE798F
:100C500048EA0B4848EA8248F30948EA090804933D
:100C60002BD0002200230EA961E90823059B6768A9
:100C700000934A465B462046B847002800F0818131
:100C8000A7694FB9414604F10C00FFF757FB07462F
:100C900088B976E13F681FB13B699845FAD115E004
:100CA000414604F10C00FFF749FB0746002800F01D
:100CB0006881A3693B60A76108E0A769002F00F085
:100CC00060813B69984506D03F68F7E7DDE906019A
:100CD000FFF792FBF88297F819E006F01F08CEF3B1
:100CE000840EB8EB0E0ED7E9022348BF0EF1200E9A
:100CF00052EA0301CAF3046A00F02E81DDE9020121
:100D0000801A61EB03010B46024600219E4899427E
:100D100008BF9042C0F02081049B5BB3BEF1010F7D
:100D200000F31A81730625D5DDE902230021C7E906
:100D3000022306A8202205F01DF8DDE90223CDE9F3
:100D4000062305F1080308932B7CADF82E90013B98
:100D5000DBB2ADF82C309DF814308DF830B08DF842
:100D600033308DF831808DF832A0A36806A9204673
:100D70009847DEE07B7EC6F34012B2EBD31F40F013
:100D80000081C3F38403434540F0FB80049A2B7C2D
:100D9000B609002A33D016F001065ED1032B40F2CB
:100DA000F080DDE90223C7E902232B7C05F10A0864
:100DB000033BDBB24246394604F10C00FFF7F3FB7C
:100DC000002812DA39462046FFF736FB7B7EC3F354
:100DD0008402013262F386037B763B8B66F3090360
:100DE0003B831B0A66F3C713B4E06A7A2B7A414649
:100DF00043EA0223BB822A7C033AD2B223E066BBD9
:100E000005F10806013BDBB23246394604F10C001D
:100E1000FFF7C9FB002812DA39462046FFF70CFB22
:100E20007B7EC3F38402013262F386037B76049AED
:100E30003B8B62F309033B83049A1B0A88E031462B
:100E40002A7C013AD2B2F88AFFF709FB7B7EF8824E
:100E5000C3F3C01282F001027AE0388B013BC0F389
:100E600009000528DBB212D8EE1D0021CAB2934258
:100E700028D9013100EB010E16F801CF07EB0E0265
:100E8000BEF1060F82F819C0CAB2EFD11AE07E682F
:100E9000BEB10622316811B11C320E46FAE7801A43
:100EA00005F1070C00EB010EBEF11B0FCAB209D809
:100EB0009A4207D21CF8012FB6448EF80420013163
:100EC000F0E73246DDE902019A42CDE9060107F179
:100ED0001A01089138BF0832796834BF52190022CC
:100EE00009910A923A8BADF82E90C2F3090213448D
:100EF000ADF82C309DF814308DF830B08DF83330CB
:100F000000238DF831808DF832A07B602A7CF88A2E
:100F1000013A05F10801FFF7A2FABB8AF882834281
:100F200003D1A36806A92046984706A92046FFF7E3
:100F300045FE7B7EC3F38402013262F386037B7637
:100F40003B8B6FF309033B831B0A6FF3C71301E06D
:100F500062F3C7137B7614E07B7E394666F3860323
:100F60006FF3C7137B762046FFF766FA049B002BCE
:100F70007FF4D8AE7B7EC3F38402013262F3860332
:100F8000E8E70FB0BDE8F08F80841E00034651F8FB
:100F9000100F8A8818609A801846704720F0004326
:100FA000B3F1FF4F10B500F0004405D347F6FF70D2
:100FB00008BF4FF4F8400EE008484FF0F0611840C9
:100FC00003F058FE00F58050B0F1786F88BF4FF005
:100FD0007860C0F34F3040EA144010BD00F0FF7F4E
:100FE000FEE7000008B50C4A0C4B0D498B4204D2B9
:100FF00052F8040F43F8040BF8E70A480A494FF087
:1010000000028842B8BF40F8042BFADBFFF7D4F89F
:10101000BDE8084003F0A6BC6C6700080000002093
:101020002C000020300000203013002043690AB15A
:10103000194301E023EA010141617047B1F5807F66
:1010400035D00CD8082924D004D801291CD0042973
:101050001DD0704720291FD040291FD07047B1F5FF
:10106000006F22D006D8B1F5007F20D0B1F5806F97
:101070001DD07047B1F5803F13D0B1F5003F12D0BD
:10108000B1F5004F15D110E00A4B8360704708237B
:1010900000E01023C3607047082300E010230361C1
:1010A0007047082304E0102302E000238361042337
:1010B0004360704701010100CA782DE9F041D40670
:1010C00048BF8C780E8802F00F0348BF234316F008
:1010D000FF0F1ED0016800244FF0010E4FF00F0CDF
:1010E0000EFA04F737EA06050FD1A5000CFA05F849
:1010F00021EA080103FA05F5282A41EA050101D190
:10110000476102E0482A08BF07610134082CE7D193
:101110000160FF2E20D9416800244FF0010E4FF0EE
:101120000F0C04F108050EFA05F535EA06070FD194
:10113000A7000CFA07F821EA080103FA07F7282AA2
:1011400041EA070101D1456102E0482A08BF056173
:101150000134082CE5D14160BDE8F08101617047A0
:10116000416170470028164A30B500F44015B4BFFD
:10117000D3695368B5F5401F84B206D1556823F092
:10118000706325F0706555600EE0C20255BF420DD8
:1011900003221201C0F303454CBFAA4004FA02F235
:1011A00023EA020343F0706319B1420D1201944027
:1011B0002343034A0028B4BFD361536030BD00BF4E
:1011C000000001401C4A10B5536803F00C03042BC7
:1011D00001D0082B01D0194B0EE053685168C3F3BE
:1011E0008343CC0303F1020302D55168890301D57F
:1011F000134900E011494B43036053681149C3F39D
:101200000313CC5C0368E34043605468C4F30224D6
:101210000C5D23FA04F484605468C4F3C2240C5DAA
:10122000E340C3605268C2F381320A44127CB3FBCC
:10123000F2F3036110BD00BF0010024000127A00FB
:1012400000093D0014000020044B9A6909B11043C5
:1012500001E022EA00009861704700BF00100240E0
:10126000044BDA6909B1104301E022EA0000D861B9
:10127000704700BF0010024070B50E460446038A56
:10128000CA889BB223F4405313430382828989881E
:10129000338992B20B43718922F4B0520B4322F08E
:1012A0000C0213439BB28381838AB2899BB223F4DD
:1012B000407386B01343838201A8FFF783FF174A68
:1012C000039B049D3168944218BF1D4619226A434E
:1012D000A389642613F4004F14BF4D008D00B2FBA8
:1012E000F5F5B5FBF6F0A28900010109120406FB31
:1012F000115307D5D9003231B1FBF6F202F00702E3
:10130000104306E01A013232B2FBF6F303F00F038A
:10131000184380B2208106B070BD00BF0038014084
:101320004B8810B50C88028A23438C88C98892B2F6
:1013300023430B4322F4706213439BB2038210BD1C
:101340000023038043808380C3807047838919B161
:101350009BB243F4005303E023F400531B041B0C23
:1013600083817047012310B5C1F342149C4201F000
:101370001F0103FA01F101D10C3003E0022C0CBF74
:101380001030143003680AB1194301E023EA010167
:10139000016010BD090A012303FA01F1C94389B2B2
:1013A00001807047034B044A5A6002F188325A6048
:1013B000704700BF0020024023016745FFF7F2BFDE
:1013C000024A136943F08003136170470020024012
:1013D000FFF7F6BF084BDA68D10709D4DA6852077D
:1013E00008D4DB6813F0100F14BF032004207047EB
:1013F00001207047022070470020024010B50446CB
:10140000FFF7E8FF012806D11CB1FFF7E3FF013C1D
:10141000F8E7052010BD002C08BF052010BD000016
:1014200070B505464FF400500E46FFF7E7FF04285D
:101430000ED1084C4FF40050236943F0010323619F
:101440002E80FFF7DBFF41F6FE7322691340236114
:1014500070BD00BF0020024073B5002306464FF464
:1014600000500D460193FFF7C9FF04281AD10E4C16
:101470004FF40050236943F001032361ABB2338082
:10148000FFF7BCFF042808D102360196019B2D0C02
:101490001D804FF40050FFF7B1FF41F6FE73226943
:1014A0001340236102B070BD0020024038B50546EC
:1014B0004FF43020FFF7A2FF042812D1094C4FF45B
:1014C0003020236943F0020323616561236943F0FF
:1014D00040032361FFF792FF41F6FD732269134039
:1014E000236138BD00200240C27810B503780AB3EA
:1014F000164A03F16043D1684278C943C1F302211F
:10150000C1F1040402FA04F40F22CA40817803F501
:1015100061430A4022431201D2B283F800230378C8
:101520000122590903F01F0302FA03F3084A42F8A3
:10153000213010BD5A09012103F01F0301FA03F302
:101540000349203241F8223010BD00BF00ED00E019
:1015500000E100E003880A8810B503F441544B8889
:1015600013438A881343CA8813430A8913434A8959
:1015700013438A891343CA89134323439BB20380CD
:10158000838B23F400631B041B0C83830B8A03826D
:1015900010BD038819B19BB243F0400303E023F070
:1015A00040031B041B0C03807047818170478089B6
:1015B00080B27047038819B19BB243F4005303E033
:1015C00023F400531B041B0C03807047038919424A
:1015D00014BF012000207047410746BFC30843F0F5
:1015E0000043430D820748BF43F0804318467047CD
:1015F000094B9A6912F0700F0DD000229A61074AC8
:10160000516801315160127F12B99B695B0702D5A5
:10161000034A014B9A60704700640040300000208C
:101620008080800000000000012B2DD1013A0A2AA1
:101630002AD8DFE802F00629290D14292929291BB7
:10164000220013A3D3E900230120C1E9002370473E
:1016500011A3D3E900230120C1E90023704710A39F
:10166000D3E900230120C1E9002370470EA3D3E989
:1016700000230120C1E9002370470DA3D3E9002313
:101680000120C1E90023704700207047AFF30080BC
:101690009E6AC421818A46EE042B31ECA7766FBE88
:1016A000F017304A39059E56CDD269EBC51A133B67
:1016B000D5A4D139F922B6A72DE9F04F05460F463A
:1016C00014461E468BB04FF0000B4FF001084FF050
:1016D00000094FF07C5A0A231FFA8BF294420ED96C
:1016E00050464449019303F0C5FA019B824603FB2F
:1016F00009F2A8FB03890BF1010B9144ECE70023ED
:101700002B70002138468DF8083003F051FC30B1C1
:101710003949284604F0E2FC07F1004703E0374965
:10172000284604F0DBFC3946504603F09BF9074697
:1017300003F066FC02A90A22824604F03FFA014641
:10174000284604F065FB9CB32D49284604F060FB55
:10175000504603F03BFA0146384603F081F949460A
:101760000746404603F040FA0146384603F082FA45
:1017700003F084FC0746013C24B200230A2203F054
:1017800065FC50EA010302D0013C24B2F5E7A4B2A3
:101790002CB11C49284604F03BFB013CF7E702A9A9
:1017A0000A22384604F00AFA0146284604F030FBC3
:1017B000EEB1284604F0F0FC864218D3361A36B251
:1017C0000022202193B2B3420AA802F1010203448D
:1017D00002DA03F8201CF5E70022294602A803F8E4
:1017E000202C04F015FB02A9284604F077FC0BB06E
:1017F000BDE8F08FCDCCCC3D10630008136300082A
:10180000166300081963000810B5074C40F2255113
:101810002046FFF7BFFD2046BDE81040012240F200
:101820002551FFF79FBD00BF0038014010B50E4C99
:101830003823E360204623610221FFF7FFFB2046A7
:101840001021FFF7FBFB094A00231380084A2046BA
:10185000138002210122FFF7E9FB2046BDE810407A
:1018600001221021FFF7E2BB006400406C00002061
:101870007000002000EB8000430018460138FDD8BE
:101880007047402808B5024609D8BDE80840C0EBBB
:10189000401002EB8000C00080B2FFF7EBBF4FF4B6
:1018A0007A70FFF7E7FF013A92B2002AF7D108BD3C
:1018B00038B5044604F070FC80B20246002330B113
:1018C000013880B2215C2E2908BF0346F7E713B91F
:1018D000013A202010E0013B202182B29A4205DA31
:1018E000A55C0130302D0AD1A154F6E738BD655C06
:1018F0000133302D03D1605499B29142F7DB38BDEA
:1019000010B530240C70632805D90C786438013484
:101910000C70C0B2F7E730211170092805D9117891
:101920000A3801311170C0B2F7E73030187010BDBD
:1019300010B50C460028BBBF40422D23202340B2E7
:10194000B4BF0B700B708A1CCB1CC0B20131FFF707
:10195000D7FF0023237110BD70B50C46002388B05B
:1019600006460370002120468DF8003003F016FB78
:1019700030B130462F4908B0BDE8704004F0AEBB2E
:101980000021204603F014FB30B12B49304604F00F
:10199000A5FB04F1004403E02849304604F09EFB17
:1019A00000254FF07E51204603F002FB38B120465F
:1019B000234903F05FF9013D04462DB2F1E72049C8
:1019C000204603F009FB38B120461D4903F006FA12
:1019D000013504462DB2F2E71A49204603F04AF9D0
:1019E00003F00EFB69460A2204F0E8F809220DF123
:1019F00001010DF1020004F059F92E236946304629
:101A00008DF8013004F004FA0F49304604F000FA72
:101A1000694668B2FFF78CFF9DF800306946202BBD
:101A200008BF2B23304608BF8DF8003004F0F0F9D2
:101A300008B070BD1C66000820660008DD6600085E
:101A4000000020418096184B226600080309092BEC
:101A500000F00F0094BF3033373309280B7094BF68
:101A600030303730002348708B70704713B50A460A
:101A7000044601A9C0B2FFF7E9FF200A1146FFF7AB
:101A8000E5FF9DF8043093709DF80530D3709DF804
:101A90000630137102B010BD13B50A46044601A901
:101AA000C0B2FFF7D3FF9DF8043001A993719DF8F0
:101AB0000530C4F30720D371FFF7C8FF9DF8043049
:101AC00001A913719DF80530C4F307405371FFF766
:101AD000BDFF9DF8043001A993709DF80530200EDC
:101AE000D370FFF7B3FF9DF8043013709DF80530F5
:101AF00053700023137202B010BDF8B50D46069C5A
:101B0000002121702978752931D16E78632E01D199
:101B1000017807E0692E01D1018803E06C2E40F0C6
:101B2000A7800168AF78682F17D1632E05D12146B1
:101B3000BDE8F8400078FFF789BF692E05D121463E
:101B4000BDE8F8400088FFF791BF6C2E33D12146E5
:101B5000BDE8F8400068FFF79FBF2B2F2BD111B1D4
:101B60002770012628E020202070012624E0732918
:101B70007ED16978632902D190F9001007E06929C4
:101B800002D1B0F9001002E06C2971D10168A87887
:101B90002B280AD1002903DA2D202070012608E025
:101BA00008BF20202070012606E000294FF0000623
:101BB00002DA494200E00026174618464FF0300E80
:101BC000002806DA013FBFB2013004F807E000B296
:101BD000F6E703EAE373134418BF01309BB218BF62
:101BE00000B20A274FF02E0C9E4210D2013B9BB24E
:101BF000C3EB020E86451FBFB1FBF7FE07FB1E11AC
:101C00003031E1540CBF04F803C07146ECE7002307
:101C1000A3547A21284604F01BF948B3AB782B2B48
:101C20000FD1601CFFF744FE204604F0B5FA0123F3
:101C3000834205D2E25C202A0BD101339BB2F7E745
:101C4000F8BD2046FFF734FE204604F0A5FA012334
:101C50000BE02278234403F8012C20232370F8BDE5
:101C6000E25C202AF5D101339BB28342F8D3F8BD60
:101C7000F8BD0000034B0122DA831A6A01321A62AE
:101C8000704700BF300000200B4B0021D983196240
:101C90000A4B0B4A1B68F020B3FBF2F34FF47A7245
:101CA0005343084A013B5360074B83F82300072343
:101CB00091601360704700BF3000002000000020DA
:101CC00040420F0010E000E000ED00E02DE9F84F89
:101CD000254B264D01281CBFAA461D4689461446A1
:101CE0002349244A06BF9A4688469046FFF766FB7A
:101CF0002846FFF7DBFB0428074630D14FF6FF7B71
:101D0000B9F1000F08BF4FF47A74013405F11006E1
:101D100024F001043444C5EB0A0AA64217D0B9F1F5
:101D2000000F03D13AF8061089B203E0731B4B444D
:101D300033F8101C594501D10236EEE7B0450DD9F4
:101D40003046FFF76DFB04280746F5D007E04FF05B
:101D500011312846FFF780FB074600E08027FFF798
:101D600037FB3846BDE8F88F00E0010800E40108C1
:101D7000FFE70108FFE3010810B5FFF71FFB074865
:101D8000FFF794FB0428044603D10548FFF78EFBB8
:101D90000446FFF71DFB204610BD00BF00E0010810
:101DA00000E401080131C1F34F0100239AB29142CE
:101DB0000AD9B3F5FC7F09D0054A1A4452001288AB
:101DC00020F813200133F1E704207047802070478A
:101DD00008F0000438B50A4604460D4601460020C6
:101DE000FFF774FFC0B2042801D080B238BD2A4684
:101DF00021460120FFF76AFFC0B238BD38B5164B47
:101E00001D68D3F80044B5F1113F07D1B4F1113F7B
:101E100001D104201DE0621C0ED104E06B1C0BD12B
:101E2000B4F1113F08D1002211460120FFF74EFF07
:101E3000C0B204280DD1ECE7FFF79EFFC0B2042822
:101E400007D1013504D1013414BF4020202000E027
:101E5000402080B238BD00BF00E001081FB501215D
:101E60004FF40060FFF7F0F90023ADF80A30ADF849
:101E700006304FF6FF73ADF80830094B094A1B686E
:101E8000094CB3FBF2F304A9013B21F80C3D2046B9
:101E9000FEF73CF901212046FEF782F904B010BD9F
:101EA0000000002040420F00002C014072B6094B98
:101EB0009A8C92B262B6084908488B888A8093420D
:101EC0000B6884BF01330B6002EB0343A0FB0330BC
:101ED00080097047002C014078010020D34D62102A
:101EE00030B472B60D4B988C80B262B60C490B8A36
:101EF000D1E90245834204D9013445F10005C1E925
:101F000002452B04220443EA1443141843F100054C
:101F100008822046294630BC704700BF002C014093
:101F20007801002008B50120FFF798FF064B00213B
:101F30009A8C064B92B21960002000219A80C3E966
:101F400002011A8208BD00BF002C01407801002068
:101F5000184B10B5198889B28A060ED5164C174849
:101F60009A88238800880133DBB280B2834292B220
:101F70001FBF1348D2B2C25423800B0619D5114B90
:101F8000114A1988138889B29BB299420AD01388E2
:101F90000133DBB2138013880C4A9BB2D35C054A31
:101FA000938010BD034A938923F080031B041B0C0C
:101FB000938110BD0038014074010020760100209B
:101FC000AC0E00206E0000208A0E0020AC0F002016
:101FD0000A490B4A0B8812880133DBB292B2934252
:101FE0000AD0084AD054084A0B80938901209BB23A
:101FF00043F0800393817047002070476E000020FB
:102000008A0E0020AC0F0020003801400548064928
:1020100072B602880B8892B29BB262B69A42F7D12E
:10202000704700BF6E0000208A0E00201FB50023FD
:1020300000900C2269460848ADF80430ADF806302F
:10204000ADF80830ADF80A20ADF80C30FFF714F900
:1020500005B05DF804FB00BF003801407FB5334C8C
:10206000012144F20500FFF7EFF84FF40073ADF8DB
:10207000003003251823694620468DF803308DF87B
:102080000250FFF719F84FF480636946ADF800304D
:102090002046482304F540548DF803308DF8025053
:1020A000FFF70AF802A8FFF74BF902A92046FFF74D
:1020B00037F94FF4E130FFF7B9FF25238DF80430ED
:1020C00001260F2301A88DF805308DF806308DF814
:1020D0000760FFF709FA0022204640F22771FFF758
:1020E00041F9204640F22771FFF754F9204640F2AB
:1020F0002661FFF74FF90E4B00251D800D4B2A4638
:10210000204640F225511D80FFF72CF9204640F271
:102110002551FFF73FF9084B31461D80074B2046FC
:102120001D80FFF713F904B070BD00BF0008014027
:102130008A0E00206E00002076010020740100202D
:1021400008B5FFF78BFFBDE80840FFF75DBB000057
:1021500070B504460646044D0FCD0FC495E8070040
:1021600084E80700304670BD30000020044B9868BA
:1021700000F0E05000F1644358425841704700BFFE
:10218000006400402DE9F341054600287DD0046835
:1021900014F000547CD1FFF72BFA3F4B9A6802F001
:1021A000E052B2F1E05F51D09A682646C2F38062F5
:1021B0008DF804209A689B68C2F3C062C3F3007371
:1021C0008DF805208DF80630FF2401ABF35C0BB1D0
:1021D000F4B234E0330103F1804303F5CB431868D4
:1021E000FFF7FAF92F684FEAD07C4FEAD778E0453D
:1021F00027F0604320F0604207F0004E00F00041FD
:1022000010D0BEF1000F00D09B0C19B1900C984279
:1022100015D002E09A4217D0104683422CBF00200E
:1022200001200BE0934205D1C0F38070C7F38077A3
:10223000874203D193422CBF0020012020B10136F8
:10224000032EC2D1FF2C01D1002022E023012A7CE1
:1022500003F1804303F5CB435A60EA682968DA60EA
:10226000AA6800299A60BABFCA0042F004024A056F
:10227000490048BF42F0020242F001021A60074AD8
:10228000012053690133536103E06FF0010000E066
:10229000034802B0BDE8F081006400403000002037
:1022A00015FCFFFF2DE9F041204F214A3D8813889E
:1022B000013505F03F059BB29D4290461D4C1CD058
:1022C0001D4EF368DB0642BF236801332360D6F856
:1022D000B001FFF781F918236B431849C850CA1899
:1022E000D6F8B43103F00F031374D6F8B831936005
:1022F000D6F8BC31D3603D8002E0A3680133A3600F
:102300003B889AB2B8F800309BB2D31A228A48BFF1
:1023100040339342C4BF074A1382A3693822013372
:10232000A361054BDA60BDE8F08100BF70000020BA
:102330006C000020300000200064004040020020BB
:102340002DE9F041204F214A3D881388013505F0E1
:102350003F059BB29D4290461D4C1CD01D4E3369DB
:10236000DB0642BF236801332360D6F8C001FFF7C4
:1023700033F918236B431849C850CA18D6F8C4312A
:1023800003F00F031374D6F8C8319360D6F8CC313C
:10239000D3603D8002E0E3680133E3603B889AB29A
:1023A000B8F800309BB2D31A228A48BF4033934218
:1023B000C4BF074A1382A36938220133A361054BC6
:1023C0001A61BDE8F08100BF700000206C000020A1
:1023D000300000200064004040020020F8B500B347
:1023E000FFF706F9114D124B1A882B8892B29BB257
:1023F0009A4219D02A880F4C0132182302F03F026A
:1024000003FB0244034604F11807264603CEBE42EE
:1024100018605960344603F10803F6D12A80012080
:10242000F8BD6FF00100F8BD0020F8BD6C00002081
:10243000700000204002002037B51423002401253D
:1024400001A88DF804308DF805408DF806408DF810
:102450000750FFF749F8152301A88DF804308DF8CF
:1024600005408DF806408DF80750FFF73DF803B0A2
:1024700030BD0000032970B504460D463ED8002843
:102480003CD00388013B9BB2B3F5806F36D2C38842
:10249000013B9BB2032B31D84388013B9BB20F2BEE
:1024A0002CD88388013B9BB2072B27D8474E1C2290
:1024B0003046002103F05EFCAA1E5342534133779D
:1024C000434B00225A611A684FF47A7622F00202D6
:1024D0001A601A6842F001021A601A4653683C49B1
:1024E000DB070ED44FF47A70FFF7C4F9013EF5D143
:1024F0004FF400430B606FF47A7070BD6FF0010011
:1025000070BD61230B60E2886388013A013B1206CB
:102510001B0403F4702302F040721A432388012D38
:1025200003F1FF33C3F3090342EA0302A3884FF424
:102530007A7403F1FF334FEA035303F4E00343EAF1
:1025400002030CBF4FF000420022032D43EA0203B6
:102550000CBF4FF0804200221343CB610B6823F085
:1025600001030B6048681A4A10F001000AD04FF4CA
:102570007A70FFF77FF9013CF4D14FF40043136008
:10258000144870BDD2F8003223F47C5323F00E03BC
:1025900043F4606343F00103C2F800326FF070430C
:1025A000C2F80402C2F80C320B4BC2F814320123F9
:1025B000C2F84002C2F84402C2F81C32D2F800321B
:1025C00023F00103C2F8003270BD00BF30000020CC
:1025D0000064004016FCFFFFAAAAAA0AF0B5002872
:1025E0003DD00E293BD806461E4F0022C7F81C22BC
:1025F0004FF0010E93B299422FD950F83250002D6E
:1026000002DB7368002B05DB7368EC00DB0044F031
:10261000040401E06C055B056D00756848BF44F07B
:102620000204002DB8BF43F004036D004FEAC20559
:1026300005F1804548BF43F0020305F5C845C5F8DC
:102640004042C5F84432D7F81C320EFA02F4234354
:10265000C7F81C3201320836CCE70020F0BD6FF01D
:102660000100F0BD0064004013B5044601214FF0A5
:102670000070FEF7F5FD01211CB10920FEF7E4FD15
:1026800002E00420FEF7E0FD48238DF80730032325
:102690008DF8063044B14FF4807301A91648ADF8A7
:1026A0000430FEF709FD07E04FF4006301A9134869
:1026B000ADF80430FEF700FD18238DF80730032332
:1026C0008DF806306CB14FF4007301A90A48ADF8DB
:1026D0000430FEF7F1FC01214FF4EA10FEF742FD51
:1026E00007E04FF4805301A90448ADF80430FEF729
:1026F000E3FC02B010BD00BF000C01400008014027
:1027000010B5441E14F8010F10B1FFF761FCF9E792
:1027100010BD000070B51E468AB00AAC24F81A0D30
:1027200005AD134620460A4600950549FFF7E5F931
:102730002846FFF7E5FF3046FFF7E2FF0AB070BD1D
:102740002466000870B51E468AB00AAC44F81C0D19
:1027500005AD134620460A4600950549FFF7CDF919
:102760002846FFF7CDFF3046FFF7CAFF0AB070BD1D
:102770002D66000810B504460748FDF7D1FF230475
:1027800003F47F0343F0802343F0800300F07F00D5
:1027900043EA002010BD00BF4C08002038B50C46AD
:1027A0000546002101602346C0F803102022FEF7F1
:1027B000CDF9231D022220212846FEF7C7F9A31DCB
:1027C000032222212846FEF7C1F904F1080303225F
:1027D00025212846FEF7BAF904F10A031022282120
:1027E0002846FEF7B3F90448FDF79AFF034BA08192
:1027F0001B78E38138BD00BF4C0800208800002012
:1028000010B5FFF76DFB064A002302F01FFC054CD4
:1028100020602146BDE810400348FFF7BFBF00BF5E
:1028200040420F005C000020700C002000000000FF
:1028300030B50F4C87B02388A3B104F585652846D1
:10284000FFF7DEFF0723049314230293094B03953C
:10285000019340F25513201D009303A3D3E90023F5
:10286000FDF760FF07B030BDF1C6A7C1D068080F03
:10287000480800208800002010B5064C10220021D6
:10288000204603F077FA044B00221A700123E380FC
:1028900010BD00BF5C000020880000200000000088
:1028A000F7B5044640F279120E46002103F062FAB1
:1028B0002046FFF7A5FF18A1D1E9000106232372E6
:1028C000002502AB012763E90201E571204667722A
:1028D00020225021FEF73AF90D4AA7751346E575F7
:1028E00003CBA061E16118680A4B206210682934AB
:1028F00044F8050C03F1140253F8041B934244F806
:10290000041BF9D11B8823803F23338003B0F0BD23
:10291000E8F7FF1F32660008ED04AE050000000076
:1029200070B5134D88B02B880446CBB105F585668C
:102930000DF11E013046FFF7B3FFBDF81E30E17EFA
:102940000593002304960393A37E19340293012375
:102950000093019404A3D3E90023281DFDF735FF5C
:1029600008B070BDAFF300809E6AC421818A46EE34
:102970004808002070B505468AB00E46492200215D
:1029800003F0F8F903A8FFF7E3FB089B00248DE8A8
:10299000180021466B4628463022FEF7D7F8099BDF
:1029A00030228DE8180011466B462846FEF7CEF817
:1029B000039B049A60211A44059B28461A44069BEF
:1029C00013448DE8180030226B46FEF7BFF812233F
:1029D00033800AB070BD000070B5134D88B02B88ED
:1029E0000446CBB105F585660DF11E013046FFF7B3
:1029F000C1FFBDF81E30E17E0593002304960393CA
:102A0000A37E1934029304230093019404A3D3E911
:102A10000023281DFDF7D9FE08B070BDAFF300807C
:102A2000042B31ECA7766FBE4808002037B504466A
:102A30000D461022002103F09DF900231946009451
:102A400028222846FDF756FFEB7E23816B7E6381AB
:102A500003B030BD10B4002404700B46012221469F
:102A600010BCFEF773B800001FB501466846FFF7BB
:102A7000DDFFDDE9000106A3D3E90023994206BF8B
:102A800090420120002005B05DF804FBAFF3008008
:102A90001E1B55CEAC0000000149FFF7DBBF00BF95
:102AA0005A0000200000000070B5114D86B02B8840
:102AB0000446B3B105F585663046FFF7EDFF012307
:102AC000E17E0593002304960393A37E19340293B9
:102AD00005230093019404A3D3E90023281DFDF7E7
:102AE00074FE06B070BD00BFF017304A39059E561F
:102AF00048080020014B00221A8070475A0000202D
:102B000037B50D46044600230360838019460090C4
:102B100008222846FDF7EEFEEB7E63806B7EA380E5
:102B200003B030BD002202600B46C0F80320302104
:102B30000122FEF70BB800000149FFF7F3BF00BF09
:102B4000880E00200000000070B5114D86B02B8863
:102B50000446B3B105F585663046FFF7EDFF072360
:102B6000E17E0593002304960393A37E1934029318
:102B70000A230093019404A3D3E90023281DFDF741
:102B800024FE06B070BD00BFCDD269EBC51A133B61
:102B90004808002073B50D461446009200230968CA
:102BA00003220646FDF7A6FE296823880331012B80
:102BB00029600CD0022B13D1083401230094202269
:102BC0003046FDF797FE2B6820332B6008E0083471
:102BD000009440223046FDF78DFE2B6840332B6079
:102BE00002B070BDF0B50E460746002485B0402205
:102BF0002146039403F0BEF823460D222146009798
:102C00003046FDF777FE039B04A90D3341F8043DE0
:102C100007F108023046FFF7BDFF039DB38A073571
:102C2000A3EBD5052DB21F2DA8BF1F25A2B2AA4226
:102C300004F101040CDA18323A440092002308220D
:102C400003993046FDF756FE039B08330393EDE7E7
:102C5000F37E3B87737E7B8705B0F0BD70B50C4675
:102C600015461346096803220646FDF76FFF2168E3
:102C70002B880331012B216002D0022B0AD070BDBA
:102C800005F1080340223046FDF760FF236840331A
:102C9000236070BD05F1080320223046FDF756FF82
:102CA00023682033236070BD70B50C46154613466B
:102CB000096802220646FDF749FF21682B88023188
:102CC000012B216002D0022B0AD070BD05F1080350
:102CD00040223046FDF73AFF23684033236070BD41
:102CE00005F1080320223046FDF730FF236820332A
:102CF000236070BD2DE9F7430446154600260DF10B
:102D000008090F4640F273123146009603F032F87C
:102D100049F8046D4B46314620460522FDF716FF63
:102D2000009B0DF10808053348F8083D2A46414646
:102D30002046FFF793FF4B46009920460522019657
:102D4000FDF704FF009B05F11002053341462046C4
:102D50000093FFF783FF4B46009920460622019619
:102D6000FDF7F4FE009B05F12002063341462046A4
:102D70000093FFF799FF4B460099204606220196E3
:102D8000FDF7E4FE009B05F1300206334146204684
:102D90000093FFF789FF009E40350736F608284666
:102DA000009603F0F9F91FFA80F84246A019294667
:102DB00002F006FF46443E8003B0BDE8F083000009
:102DC000014AFFF797BF00BFE001002000000000AC
:102DD00070B5134D88B02B880446CBB105F58566D8
:102DE0000DF11E013046FFF7EBFFBDF81E30E17E0E
:102DF0000593002304960393A37E193402930B23B7
:102E00000093019404A3D3E90023281DFDF7DDFC02
:102E100008B070BDAFF30080D5A4D139F922B6A7B0
:102E200048080020054B10B500241C806022214674
:102E3000034802F09FFF034B1C8010BD880E00204A
:102E4000E00100205A0000202DE9F74F0C460B4608
:102E50001646002103228046FDF778FEA01C03F0F1
:102E60009BF902AB23F8020D052203214046FDF732
:102E70006DFE0023BDF806205F1C9BB29A424FEA0C
:102E8000C70508D923440233082229464046FDF7E6
:102E90005DFE3B46EEE704F12307384603F07CF97C
:102EA000AB461FFA80FA0AF12309A1444F4509D025
:102EB0003B46594608224046FDF748FE0BF1080BF9
:102EC0000137F3E705EBCA05ED0835800548FDF746
:102ED00027FC054BA4F880001B78A4F8823003B0CF
:102EE000BDE8F08F4C080020580000200A46014938
:102EF000FFF7AABFAC10002030B5114C89B0238871
:102F0000BBB104F5856528460DF11E01FFF7EEFF04
:102F1000BDF81E300395049318230293094B201D1E
:102F2000019343F6FF73009303A3D3E90023FDF756
:102F3000F9FB09B030BD00BF759D040C8EA454D6BA
:102F4000480800205800002008B5842200210348CA
:102F500002F010FF024B00221A7008BDAC100020D6
:102F600058000020F7B50C46054617460B460822C8
:102F70000021FDF7EBFD231D284620220821FDF747
:102F8000E5FD04F10803202228212846FDF7DEFD97
:102F9000E068FEF703F802AE26F8020D3346102271
:102FA00048212846FDF7D2FD2069FDF7F7FF33469B
:102FB000ADF80600102258212846FDF7C7FD6069CC
:102FC000FDF7ECFF3346ADF80600102268212846D5
:102FD000FDF7BCFDA069FDF7E1FF3346ADF8060043
:102FE000102278212846FDF7B1FD11233B800448CB
:102FF000FDF796FB034BA0831B78E38303B0F0BD82
:103000004C080020400800200A460149FFF7AABFEB
:103010008C0E00200000000030B5114C89B02388D0
:10302000BBB104F5856528460DF11E01FFF7ECFFE5
:10303000BDF81E300395049318230293094B201DFD
:10304000019340F20343009303A3D3E90023FDF768
:1030500069FB09B030BD00BFDAF522A18BF37DC753
:10306000480800204008002008B52022002103481D
:1030700002F080FE024B00221A7008BD8C0E002068
:103080004008002008B5FFF75FFFBDE80840FFF7E4
:10309000EBBF000010B5104C9CB001200194FFF76D
:1030A00069FB009004200394FFF764FB0290052065
:1030B0000594FFF75FFB04900A200794FFF75AFB83
:1030C00006900B200994FFF755FB052108906846F0
:1030D000FFF784FA1CB010BD80FFFFC010B5094C8B
:1030E00023880BB9002010BD201DFDF7B5FB00287B
:1030F000F8D0FFF747F80028F4D0201DFDF7B0FB0B
:10310000012010BD4808002010B50B4C86B0208867
:1031100080B16846FFF762F900280BD009DDFEF7A1
:10312000DFFE02460B46201D6946FDF757FD0120D4
:1031300000E0012006B010BD480800202DE9F7434B
:103140001E4C2388002B36D0FEF7CAFE0F460646DB
:1031500004F5C561D1E900894F4508BF464512D342
:10316000174A002312EB080243EB0903C1E90023CD
:10317000FEF7B6FE02460B46201DFDF77BFB211D28
:103180006846FDF703FFD4F83046A4B10D49D1E9F4
:1031900000239F4208BF96420DD3002512196B41B0
:1031A0009F4208BF9642F9D2C1E9002303B0BDE8AF
:1031B000F043FFF73DBB03B0BDE8F08348080020B3
:1031C00040420F00800E002010B5134C4FF4C8622F
:1031D0000021204602F0CEFD201D0021FDF799FAC6
:1031E00040F6B83040F2DC52002104F5C563C3E973
:1031F00000010A4B04F5C76444F8083C0023C4E905
:103200000023FFF739FBFFF775FCFFF70BFEBDE866
:103210001040FFF737BF00BF4808002040420F00B2
:103220007FB5FFF7D1FF0020FFF71EFA0923242105
:103230005A1CB1FBF2F56A43242ADEB204D0013BEA
:10324000012BF5D100204EE0C3EBC303DA1CD210F2
:10325000D0B24FF47A7401325443311AC9B20A44DD
:1032600094FBF2F2B2F5617FC2BF03F1FF33C3F307
:10327000C700311A00F1FF33C8BFC9B20F2B05D800
:103280004B1E072B8CBF0023012300E000234218B4
:1032900002FB0554154AB2FBF4F2154CA242D1D1FF
:1032A000002BCFD0ADF80A00ADF80C10012402219C
:1032B00002A8ADF80850ADF80E40FFF7DBF8002883
:1032C000C0DB00230B4D01930B4BA5F124000093B1
:1032D0004FF48062094B2946FDF7F3F9FFF7ACF88C
:1032E000204625F8284C04B070BD00BF00512502CF
:1032F00040420F0070080020291600084D450008C4
:1033000010B50446FFF78CFF48B1054804F07F0173
:10331000FDF7FFF9FFF7BEFEFEF788FA012010BDAA
:103320004C080020064B4FF47A72D9884A4305496D
:10333000C1F830261A8A022A04BF01221A82704775
:103340009001002048080020084B31225A809A80C2
:103350004FF47A72DA8032221A810022DA60002277
:103360001A8201225A82FFF7DDBF00BF90010020C0
:1033700010B5274C63885BB1132B9CBF142363806B
:103380006388642B82BF224B64225A8063880BB906
:1033900031236380E388312B9EBF1D4B4FF47A723B
:1033A000DA8041F28833E2889A4282BF184B4FF4A8
:1033B0007A72DA8023895BB1132B9EBF144B3222C1
:1033C0001A812389B3F57A7F82BF114B32221A8189
:1033D0001049E06801F00AFE10B10D4B0022DA60DE
:1033E0000D49E06801F0E4FD10B1094B0022DA60FC
:1033F000238A022B82BF064B00221A82638ABDE811
:103400001040022B82BF024B00225A82FFF78ABF74
:103410009001002000409C4500409CC538B51C220E
:10342000FF21214802F0A6FCFFF77CFFFEF7E6FC37
:10343000C0B204281C4D0CD01C22FF211A4802F0F7
:1034400099FCFFF76FFFFEF7D9FCC0B204280FD13B
:1034500007E01C212846FEF7A5FCC0B204280ED0C8
:10346000EAE71C211048FEF79DFCC0B2042806D0F4
:103470001C22FF210C4802F07DFCFFF753FF2B8834
:10348000094C062B0CD0FFF75FFF204606230749A7
:1034900020F8143B02F022FE1C212046FEF79AFC85
:1034A000BDE83840FFF764BF90010020496600087E
:1034B0001C210148FEF78EBC9001002038B505881C
:1034C000084C25B9FFF7F4FF0123238038BD012DF7
:1034D00005D1FFF739FFFFF7EBFF258038BD00234B
:1034E000238038BD880E002008B541F28830FEF7F1
:1034F000C1F90549054BCA6802F4E0621343CB6089
:10350000BFF34F8FFEE700BF00ED00E00400FA05B7
:1035100007B501210420FDF797FE4FF48073ADF845
:10352000043010238DF8073001A9032303488DF8D8
:103530000630FDF7C1FD03B05DF804FB0008014053
:10354000014608B50648FEF730F801210448FEF7A9
:103550003DF80028F9D00248FEF729F8C0B208BDAE
:103560000030014038B505460C463CB1FF20FFF75E
:10357000E7FF013C05F8010BA4B2F6E738BD38B50A
:1035800005460C4634B115F8010B013CFFF7D8FF96
:10359000A4B2F7E738BD0000054AC000138800F068
:1035A000380023F038031B041B0C034313807047BF
:1035B0000030014037B50446184D00212846FDF77C
:1035C000E8FF2B88601E23F0030283B2022B86BF24
:1035D0000023194612484FEA02429EBFC01890F8D5
:1035E000B41090F8B730120C0B430C48134303800F
:1035F0000121FDF7CEFF02210848FDF7E7FF002873
:10360000F9D00648FDF7D3FFADF80600BDF8063047
:103610009BB2ADF8063003B030BD00BF00300140B2
:103620001063000870B5012188B04FF48050FDF799
:103630000BFE01210520FDF707FE0324A023182619
:1036400002A92648ADF808308DF80A408DF80B60C5
:10365000FDF732FD4023ADF8083002A948231F488A
:103660008DF80B308DF80A40FDF726FD4FF482737C
:10367000ADF80E304FF4007300240125ADF816307C
:1036800003A907231648ADF81C30ADF80C40ADF87F
:103690001040ADF81240ADF81450ADF81860ADF818
:1036A0001A40FDF757FF21460D48FDF783FF2946D5
:1036B0000B48FDF76EFF02210948FDF787FF002840
:1036C000F9D00748FDF773FFADF80600BDF80630E6
:1036D0009BB2ADF8063008B070BD00BF00080140D5
:1036E00000300140054B80EA112003EB4000B0F8A8
:1036F000BA0080EA012080B2704700BF1063000862
:1037000000BF00BF00BF00BF00BF00BF00BF00BFC1
:1037100000BF00BF00BF00BF00BF00BF00BF7047B9
:10372000074B984203D101210420FDF78DBD054BC5
:10373000984203D101210820FDF786BD704700BFE4
:1037400000080140000C01402DE9F3412A4C2B4DAB
:1037500020460221FDF702FD28460221FDF7FEFC6E
:1037600028461021FDF7FAFC20460121FDF7F6FC62
:1037700002AE032302274FF01008012104208DF828
:1037800006308DF80780FDF75FFD26F8047D314691
:103790002846FDF791FC39462846FDF7DFFC204618
:1037A000FFF7BEFF31462046ADF80470FDF784FCFC
:1037B00039462046FDF7D2FC2046FFF7B1FF01272E
:1037C00031462046ADF80470FDF776FC39462046B8
:1037D000FDF7C4FC39460420FDF736FD3146284686
:1037E000ADF80480FDF768FC41462846FDF7B6FCBD
:1037F00002B0BDE8F08100BF000C014000080140AC
:1038000008B5FFF7A1FFFFF70DFFBDE80840032053
:10381000FFF7C2BE2DE9F0410546DFF81C82742295
:1038200002FB00867D4F002107EB0517304602F0B2
:10383000A1FAB7F8D412D7F8D002FDF78FFCD7F869
:10384000C842B7F8CC7220463946FDF787FCFFF72F
:1038500057FF0020FFF7AEFEFFF752FF3946204624
:10386000FDF77CFCFFF74CFF39462046FDF778FC5E
:10387000FFF746FF0320FFF763FE0020FFF760FE1F
:103880004FF4E6716648FFF76DFEFFF739FF3946E2
:103890002046FDF763FCFFF733FF614B444603F11D
:1038A000100C1A466746B646186859680833AEE8E1
:1038B000030063457646F6D174236B433E6803F1FB
:1038C00010012144C1F801607E68481CC1F8056000
:1038D00039890181B97A03F120078172514904EBDA
:1038E000070E0E4656F8040BE051306803F1280726
:1038F000CEF804008E465EF8080FE619E0519EF8F7
:10390000040092F828E03071474807F800E0E0181A
:10391000034692F83D7001F1670E80F8307092F81E
:103920003F70343380F8317092F8417080F8327013
:1039300092F8437080F8337001F177079C46DEF807
:103940000000DEF804100EF1080EACE80300BE45DE
:103950006346F3D1742303FB0543344F443307F12B
:10396000100C9E46386879680837AEE80300674552
:103970007346F6D1742303FB05432D4F543307F1EF
:10398000100C9E46386879680837AEE80300674532
:103990007346F6D1742303FB0543264900270988A3
:1039A000A3F864104FF6FF71D05DFFF79BFE01375F
:1039B000B7F5E17F0146F7D174236B43E718B7F8F9
:1039C0006420A7F86600824224D11B4AD3581B4AC0
:1039D00023F07F4393421DD14FF07E53BB661849BD
:1039E000304602F09DFA08B9164BBB6616493046C0
:1039F00002F096FA20B9742303FB0543134A9A6632
:103A0000742303FB054401200023E366A4F870003F
:103A1000BDE8F0810020BDE8F08100BF1063000820
:103A2000301100204B1100209200002002120020D3
:103A300052120020F21200208C000020525343004A
:103A40004E6600080F76D74552660008C3167943C4
:103A50002DE9F04774264643624D8AB077198046B7
:103A60003846FEF74DFE0A20FEF7B2FA384611300E
:103A7000FEF746FE02AC0A20FEF7AAFA396A0A23CC
:103A800004222046FDF718FE2046FEF739FE0A20E4
:103A9000FEF79EFA796A0A2304222046FDF70CFEFF
:103AA00006F1280720462F44FEF72AFE0A20FEF7DB
:103AB0008FFA3846FEF724FE0A20FEF789FAB81D71
:103AC000FEF71EFE0A20FEF783FA00274648FEF79F
:103AD00017FE06F1300038440023072243492844EA
:103AE0000094FEF70AF82046FEF70AFE01370A2086
:103AF000FEF76EFA042FDFF8ECA0E7D1FEF786FAA6
:103B0000742606FB08F606F1300706F14009574413
:103B1000CA4457F8041F2046FDF71EFF2046FEF753
:103B2000EFFD0A20FEF754FA5745F2D1FEF76EFA80
:103B300006F15007A94405EB070A59F8041F20466F
:103B4000FDF70AFF2046FEF7DBFD0A20FEF740FAEC
:103B5000D145F2D1FEF75AFA60362F442E4457F879
:103B6000041F2046FDF7F8FE2046FEF7C9FD0A2097
:103B7000FEF72EFAB742F2D1FEF748FA1A48FEF7DE
:103B8000BFFD742303FB08F606F160072F440023F2
:103B900007221749381D0094FDF7AFFF2046FEF7B6
:103BA000AFFD0A20FEF714FA0F48FEF7A9FD002327
:103BB00007220F49B81D0094FDF79FFF2046FEF72E
:103BC0009FFD35440A20FEF703FAA96E2046FDF753
:103BD000C3FE2046FEF794FD0A20FEF7F9F90AB06D
:103BE000BDE8F0878C000020586600085B6600087E
:103BF0005F6600082DE9F04F742646438F4D8BB069
:103C000005EB060ABAF8703080460C46174633B901
:103C100020468B490BB0BDE8F04F02F05FBA8949EE
:103C2000204602F05BFA17F001094CD0864902A841
:103C300002F054FA08F1300302A920468DF80B3047
:103C400002F0E6F85146204602F0E2F87F492046AD
:103C500002F0DEF8A9191131204602F0D9F87B49AB
:103C6000204602F0D5F80A230422DAF8201002A830
:103C7000FDF722FD02A9204602F0CAF8734920464A
:103C800002F0C6F80A230422DAF8241002A8FDF78D
:103C900013FD283602A9204602F0BAF82E446B49DB
:103CA000204602F0B5F83146204602F0B1F86749E7
:103CB000204602F0ADF8B11D204602F0A9F8634994
:103CC000204602F0A5F8BE0728D56149204602F03B
:103CD0009FF84FF0740A0AFB08FA00265D49204657
:103CE00002F096F80AF1300030440DF1080B002381
:103CF000072259492844CDF800B0FDF7FEFE594689
:103D0000204602F085F801365449204602F080F83A
:103D1000042EE3D14D49204602F07AF8780702D408
:103D2000390737D51BE04E49204602F071F874235D
:103D300003FB08F303F1300A4033AA44EE185AF8A3
:103D4000041F02A8FDF708FE02A9204602F060F851
:103D50003E49204602F05CF8B245F0D1E0E7414927
:103D6000204602F055F8742303FB08F303F1400AE0
:103D70005033AA44EE185AF8041F02A8FDF7ECFDD0
:103D800002A9204602F044F83049204602F040F8EB
:103D9000B245F0D1FA061AD53349204602F038F878
:103DA000742303FB08F303F1500A6033AA44EE18AE
:103DB0005AF8041F02A8FDF7CFFD02A9204602F021
:103DC00027F82249204602F023F8B245F0D1B9F194
:103DD000000F26D01F49204602F01AF8742303FB77
:103DE00008F802AE05EB0800002307221F496430E3
:103DF0000096FDF782FE3146204602F009F8A844FD
:103E00001249204602F004F8D8F868103046FDF751
:103E1000A3FD3146204601F0FBFF0C49204601F08E
:103E2000F7FF3B0406D5204611490BB0BDE8F04F23
:103E300001F0EEBF0BB0BDE8F08F00BF8C0000209A
:103E400063660008826600087D66000881660008D7
:103E500083660008586600085B660008DD66000897
:103E60008F660008986600089F6600085F66000875
:103E7000A766000870B5044600252046FFF7CAFC77
:103E8000AEB2024638B94CF250300135FDF7F2FCC3
:103E9000052DF2D12E460D4B5B8A022B0FD102F17C
:103EA0003000C0B2FEF794F806F13000C0B2FEF761
:103EB0008FF80A20FEF78CF82046FFF7C9FD044B67
:103EC000742202FB0434B4F8700070BD900100202D
:103ED0008C0000202DE9F04174244443DFF8A880D1
:103EE00008EB0403B3F87030002B48D0254B03EBEC
:103EF0000015D5F8D062B5F8D47230463946FDF7D2
:103F00002DF9B5F8CC12D5F8C802FDF727F9FFF75F
:103F1000F7FB0120FFF74EFBFFF7F2FB3946304677
:103F2000FDF71CF9FFF7ECFB39463046FDF718F9B1
:103F3000FFF7E6FB0620FFF703FB4FF47A70FDF76F
:103F400099FC4320FFF7FCFA04F1300004214044BF
:103F5000FFF715FB4FF47A70FDF78CFC0820FFF794
:103F6000EFFAFFF7CDFB30463946FDF7F7F8FFF7DC
:103F7000C7FBBDE8F04141F28830FDF77BBCBDE8EE
:103F8000F08100BF106300088C000020F8B51446D3
:103F90000F46134B03EB0010B0F8D462D0F8D052A8
:103FA00031462846FDF7DCF8FFF7AAFB4420FFF76F
:103FB000C7FA600137B140F0060000F0E600FFF7F5
:103FC000BFFA05E040F0040000F0E400FFF7B8FAA3
:103FD000FFF796FB31462846BDE8F840FDF7BEB82E
:103FE00010630008134B37B503EB0010B0F8D45240
:103FF000D0F8D04229462046FDF7B2F8FFF780FB03
:104000001020FFF79DFA01A80321FFF7ABFAFFF795
:1040100077FB20462946FDF7A1F89DF805309DF86D
:1040200004001B0203EB00439DF80600184403B094
:1040300030BD00BF1063000808B5B0F5005F28BFB1
:10404000A0F5804000B200F0C1FD4FF0745100F0C7
:1040500011FE08BDB1F5005F28BFA1F58041F8B59C
:10406000064608B2144600F0B1FDB6F5000F05464D
:104070002CBF06F17F40304600F0A8FDE16E00F055
:10408000F1FC216C0646284600F0F4FDE16B00F0DF
:10409000E9FC294600F0EEFDA16B00F0E3FC2946A7
:1040A00000F0E8FD616B00F0DDFC0146304600F0F9
:1040B000D7FC216D0646284600F0DCFDE16C00F0DF
:1040C000D1FC294600F0D6FDA16C0746284600F039
:1040D000D1FD0146384600F0C5FC616C00F0C2FC21
:1040E0000146304600F07AFE0546216E00F0C2FD22
:1040F000E16D00F0B7FC294600F0BCFDA16D00F0B9
:10410000B1FC294600F0B6FD616D00F0ABFC216A00
:1041100000F0B0FD616A00F0A5FCF8BDB1F5005FEC
:1041200028BFA1F5804170B5044608B2154600F0DD
:104130004DFD0646B4F5000F296C28BF04F17F44FD
:1041400000F098FDE96B00F08DFC314600F092FD27
:10415000A96B00F087FC314600F08CFD696B00F024
:1041600081FC0546204600F031FD0146284600F05E
:1041700077FC70BD274B70B55A8A1E46022A02D1C1
:104180002548FEF7BDFAFFF73BFB0020FFF772FE64
:10419000224D234C30B195F82E30442B02D1002310
:1041A000638009E00120FFF765FE28B195F8A23091
:1041B000442B04BF012363806088FFF78BFE608877
:1041C000742101FB00510023A380A360E36063849A
:1041D000A362A382E38223832384738A3222B1F809
:1041E00070102261022B4FF000026262E2622263D1
:1041F0002180E2610DD10B48FEF782FA084B9878D6
:104200003030C0B2FDF7E4FEBDE870400A20FDF793
:10421000DFBE70BD90010020CD6600088C0000203C
:10422000AC010020D666000838B50B4C238893B14A
:104230000A4D2B89132B0ED9FDF738FEA3682A8966
:10424000C31A934207D3A388A06013B1801AA06059
:1042500038BD0123A38038BDAC01002090010020AF
:10426000034B01221A830022DA6100221A8470476C
:10427000AC0100202DE9F0470B7E04460E4633B911
:10428000B1F80080B8F1060F00F2528113E04FF050
:104290001809954F002501EB090A09FB0573102247
:1042A000996850461FFA85F801F0A4FF18B101354E
:1042B000072DF2D13CE133898B4D002B53D01823CD
:1042C00003FB08F3E9180979013908294BD8DFE81D
:1042D00001F0050B191F2D2D4A4A3800EB58327C8E
:1042E0001978914207D10AE0EB5896F9102093F91A
:1042F0000010914203D0012606FA08F600E00026DD
:104300001A7031E0EB58328A1988914207D10AE0DD
:10431000EB58B6F91020B3F90010914203D00126F2
:1043200006FA08F600E000261A801DE0EB58326914
:1043300019681A6091421ABF012606FA08F600268B
:1043400012E055F80390D6F810A0D9F800005146B5
:1043500000F024FE18B9012606FA08F600E000264F
:10436000C9F800A000E00026182202FB08F8454426
:104370002A795D4B013A082A00F2B880DFE812F092
:10438000090021003D00550071008600B600B6000E
:104390009E0053F808300122228622842282228045
:1043A0001A780023C4E902232A7B0023C4E90623E8
:1043B0002A7C0023C4E90E232A7D0023C4E90A23B2
:1043C000A3E053F808300122228622842282228030
:1043D00093F90020D317C4E9022395F90C20D317D1
:1043E000C4E9062395F91020D317C4E90E2395F9E3
:1043F0001420D317C4E90A2387E053F808300122B8
:1044000022862284228222801A880023C4E9022381
:10441000AA890023C4E906232A8A0023C4E90E23BB
:10442000AA8A0023C4E90A236FE053F80830012266
:104430002286228422822280B3F90020D317C4E985
:104440000223B5F90C20D317C4E90623B5F91020CF
:10445000D317C4E90E23B5F91420D317C4E90A23EE
:1044600053E053F8083001222286228422822280DF
:104470001A680023A260E360EA68E361A2612A6926
:10448000E363A2636A69E362A2623EE053F8083024
:10449000012222862284228222801A68D317C4E94C
:1044A0000223EA68D317C4E906232A69D317C4E9AB
:1044B0000E236A69D317C4E90A2326E053F80830AB
:1044C00002221B682286A360E8682284228222805E
:1044D00000F07CFBA061286900F078FBA0636869AC
:1044E00000F074FBA06210E01C63000801230022AE
:1044F00023862384238223800023C4E90623C4E97E
:104500000E23104A0023C4E90A23A96804F14000DD
:1045100006F02006002701F0E1FD56EA07030ED061
:10452000094B1B8A022B0AD1BDE8F047FFF798BE62
:104530002046BDE8F0476022002101F01BBCBDE829
:10454000F08700BF80841E009001002030B50B7EF4
:1045500091B0012B0C465DD1CB8A013B0A2B59D877
:10456000DFE803F00658580A0E585858583C4A00DD
:104570000846FEF7D5F94DE00846FEF72DFA49E06A
:104580000846FEF771FA0546234B2146188023485A
:10459000FCF714FB2046FEF787FA002D3AD0FDF712
:1045A0009FFC1F4C002524184D411C48FCF754F972
:1045B00070B1FEF793FDFDF793FC8D4208BF844276
:1045C000F3D205E0FDF78CFC8D4208BF844203D393
:1045D000FDF7CCFD0028F5D0FEF786FF6846FEF714
:1045E0008FFA6846FEF76AFF21460C48FCF7E6FAA8
:1045F0002046FEF7A9FA0DE06846FEF7F3FA694691
:104600000848FFF737FE05482146FCF7D7FA204651
:10461000FEF7DEFB11B030BD5A0000204C08002030
:1046200020A10700E0010020084A742303FB0020BA
:10463000B0F8703043B1064B1A8A012A02D1DB6808
:10464000C36670470023C366704700BF8C0000201C
:10465000900100200D4B1B894F2B0AD8312B0AD813
:104660001A2B0AD8132B0AD80B2B8CBF0423052333
:1046700006E0002304E0012302E0022300E003231C
:10468000034A591C9182D382704700BF90010020D9
:10469000AC01002038B50C4B1B889BB10B4C0023A0
:1046A00023800B4B0B4D1A6B6560A260E560586A66
:1046B000094900F0D7F965612061A561BDE838407E
:1046C000FEF7AABC38BD00BF480800208C0E0020B1
:1046D000AC0100200000C07F339388432DE9F041F6
:1046E000654C86B0A388013B042B00F2C280DFE852
:1046F00003F0031C31488A00FFF7ACFFA28A0121B6
:104700006088FFF743FCFDF7D1FBA28A5B4BE060BA
:1047100003EB4203B3F8BA224FF47A7393FBF2F33C
:10472000023323610223A380A3E0FDF7BFFBE3680C
:10473000514DC01A23699842C0F09B806888FFF7EA
:1047400051FCC0F38F206884FFF776FC0323686276
:10475000AB808EE0E28A00216088FFF717FCFDF74E
:10476000A5FBE28A454BE06003EB4203B3F8BA22B3
:104770004FF47A7393FBF2F3023323610423A38093
:1047800077E0FDF793FBE3683B4DC01A236998423D
:104790006FD36888FFF726FC2B8BA862384EEBB1ED
:1047A0006B88742202FB0362698CFFF7B7FCE9692E
:1047B00000F058F98046E861288C013080B2092861
:1047C00028840BD900F0FEF90146404600F006FBB4
:1047D0002C4F01233B820023F8602B836088FFF776
:1047E00023FF6388742505FB0365618C2A46A06A54
:1047F000FFF730FC0146E062A86E00F03BFA0523AB
:104800002063A38035E01F4B5B8A022B2DD11E4B0A
:1048100000220C21A06AFDF795FFA06A1A4BB0F5A3
:10482000000F28BF00F17F4000220C21FDF78AFF16
:10483000E16A01A8FDF790F801A8FDF761FF1248B1
:10484000FDF75EFF104B00220821B4F92200FDF7AE
:1048500061FF10230622616A01A8FCF72DFF01A861
:10486000FDF74EFF0A20FDF7B3FBFFF713FF002310
:10487000A38006B0BDE8F081AC0100201063000801
:104880008C00002090010020DB66000838B52D4B1D
:104890001B88002B54D02C4B5B8A002B50D02B4B09
:1048A0001A881AB940F2F3121A8001E0013A1A800C
:1048B0001C88002C44D1264D2649284620F8024B5E
:1048C00001F00CFC244B9A8C013292B2132A94BF53
:1048D0009A849C849B8C013B042B31D8DFE803F045
:1048E000030A11181F001D4B01221D495888FFF7AC
:1048F00081F91AE0194B022219495888FFF77AF911
:1049000013E0164B042216495888FFF773F90CE0A0
:10491000124B082212495888FFF76CF905E00F4B3B
:1049200010220F495888FFF765F90D4801F034FC53
:104930000023284480F82230BDE83840FEF7DCBA76
:1049400038BD00BF4808002090010020280000204A
:10495000AC1000203B66000830000020AC010020B5
:10496000CF1000202DE9F843FDF7EAFBFDF78CF9A5
:10497000FEF7CEFDFDF7D6FAFEF750FDFFF7FAFB86
:10498000244B9878FEF7BCFC58B92349CB686420C7
:10499000DB4303F4807343F080730B61FCF771FF1A
:1049A000F4E71E4DFEF7BEFC0023EB801C4B1B887A
:1049B0000BB90323AB801B4E174FB0460024FEF704
:1049C000A3FB0028FBD1FEF789FB81460028FAD122
:1049D000FEF7B4FBF38B9BB2002BF0D0A8F81E902F
:1049E00034B9AB8840F2F314002B18BF312409E02E
:1049F000013CA4B234B9FB68DB4303F4807343F099
:104A000080733B61FFF710FCFFF768FEFFF73EFF86
:104A1000D5E700BF90010020000801405C000020A5
:104A2000AC01002030000020D0400B1CD1409C463F
:104A3000203AD3401843524263469340184370478C
:104A40009140031C90409C46203A934019435242A7
:104A50006346D3401943704780F0004002E000BF36
:104A600081F0004142001FBF5FEA410392EA030F59
:104A70007FEA226C7FEA236C6AD04FEA1262D2EBA3
:104A80001363C1BFD218414048404140B8BF5B42A8
:104A9000192B88BF704710F0004F40F4000020F041
:104AA0007F4018BF404211F0004F41F4000121F057
:104AB0007F4118BF494292EA030F3FD0A2F10102A1
:104AC00041FA03FC10EB0C00C3F1200301FA03F1DF
:104AD00000F0004302D5494260EB4000B0F5000F02
:104AE00013D3B0F1807F06D340084FEA310102F1C1
:104AF0000102FE2A51D2B1F1004F40EBC25008BF73
:104B000020F0010040EA03007047490040EB00003C
:104B100010F4000FA2F10102EDD1B0FA80FCACF16B
:104B2000080CB2EB0C0200FA0CF0AABF00EBC2506A
:104B300052421843BCBFD0401843704792F0000F58
:104B400081F4000106BF80F400000132013BB5E7AB
:104B50004FEA41037FEA226C18BF7FEA236C21D021
:104B600092EA030F04D092F0000F08BF0846704786
:104B700090EA010F1CBF0020704712F07F4F04D154
:104B8000400028BF40F00040704712F100723CBF67
:104B900000F50000704700F0004343F0FE4040F491
:104BA000000070477FEA226216BF08467FEA23634F
:104BB0000146420206BF5FEA412390EA010F40F43A
:104BC000800070474FF0000304E000BF10F0004386
:104BD00048BF40425FEA000C08BF704743F096436D
:104BE00001464FF000001CE050EA010208BF704788
:104BF0004FF000030AE000BF50EA010208BF70470F
:104C000011F0004302D5404261EB41015FEA010C23
:104C100002BF84460146002043F0B64308BFA3F11B
:104C20008053A3F50003BCFA8CF2083AA3EBC253FD
:104C300010DB01FA02FC634400FA02FCC2F120021C
:104C4000BCF1004F20FA02F243EB020008BF20F053
:104C50000100704702F1200201FA02FCC2F12002B9
:104C600050EA4C0021FA02F243EB020008BF20EAAE
:104C7000DC7070474FF0FF0C1CEAD0521EBF1CEADC
:104C8000D15392EA0C0F93EA0C0F6FD01A4480EACA
:104C9000010C400218BF5FEA41211ED04FF00063B3
:104CA00043EA501043EA5111A0FB01310CF00040DF
:104CB000B1F5000F3EBF490041EAD3715B0040EA05
:104CC000010062F17F02FD2A1DD8B3F1004F40EBD5
:104CD000C25008BF20F00100704790F0000F0CF0A8
:104CE000004C08BF49024CEA502040EA51207F3A6C
:104CF000C2BFD2F1FF0340EAC250704740F4000047
:104D00004FF00003013A5DDC12F1190FDCBF00F037
:104D100000407047C2F10002410021FA02F1C2F1E5
:104D2000200200FA02FC5FEA310040F1000053EA81
:104D30004C0308BF20EADC70704792F0000F00F0CF
:104D4000004C02BF400010F4000F013AF9D040EAD5
:104D50000C0093F0000F01F0004C02BF490011F469
:104D6000000F013BF9D041EA0C018FE70CEAD15367
:104D700092EA0C0F18BF93EA0C0F0AD030F0004CE7
:104D800018BF31F0004CD8D180EA010000F000409B
:104D9000704790F0000F17BF90F0004F084691F059
:104DA000000F91F0004F14D092EA0C0F01D1420293
:104DB0000FD193EA0C0F03D14B0218BF084608D15C
:104DC00080EA010000F0004040F0FE4040F40000A6
:104DD000704740F0FE4040F4400070474FF0FF0C39
:104DE0001CEAD0521EBF1CEAD15392EA0C0F93EA80
:104DF0000C0F69D0A2EB030280EA010C49024FEAD2
:104E0000402037D04FF0805343EA111143EA10138A
:104E10000CF000408B4238BF5B0042F17D024FF442
:104E2000000C8B4224BF5B1A40EA0C00B3EB510F1D
:104E300024BFA3EB510340EA5C00B3EB910F24BF06
:104E4000A3EB910340EA9C00B3EBD10F24BFA3EB8B
:104E5000D10340EADC001B0118BF5FEA1C1CE0D153
:104E6000FD2A3FF650AF8B4240EBC25008BF20F006
:104E7000010070470CF0004C4CEA50207F32C2BF5A
:104E8000D2F1FF0340EAC250704740F400004FF0F7
:104E90000003013A37E792F0000F00F0004C02BF28
:104EA000400010F4000F013AF9D040EA0C0093F0F2
:104EB000000F01F0004C02BF490011F4000F013B4C
:104EC000F9D041EA0C0195E70CEAD15392EA0C0FB4
:104ED00008D142027FF47DAF93EA0C0F7FF470AFEC
:104EE000084676E793EA0C0F04D14B023FF44CAF2F
:104EF00008466EE730F0004C18BF31F0004CCAD1C4
:104F000030F000427FF45CAF31F000437FF43CAFFF
:104F10005FE700BF4FF0FF3C06E000BF4FF0010C21
:104F200002E000BF4FF0010C4DF804CD4FEA400203
:104F30004FEA41037FEA226C18BF7FEA236C11D04D
:104F400001B052EA530C18BF90EA010F58BFB2EB00
:104F5000030088BFC81738BF6FEAE17018BF40F080
:104F6000010070477FEA226C02D15FEA402C05D134
:104F70007FEA236CE4D15FEA412CE1D05DF8040BB9
:104F8000704700BF844608466146FFE70FB5FFF74C
:104F9000C9FF002848BF10F1000F0FBD4DF808ED04
:104FA000FFF7F4FF0CBF012000205DF808FB00BFF5
:104FB0004DF808EDFFF7EAFF34BF012000205DF84F
:104FC00008FB00BF4DF808EDFFF7E0FF94BF01209C
:104FD00000205DF808FB00BF4DF808EDFFF7D2FF99
:104FE00094BF012000205DF808FB00BF4DF808EDDC
:104FF000FFF7C8FF34BF012000205DF808FB00BFA9
:105000004FEA4002B2F1FE4F0FD34FF09E03B3EBD5
:1050100012620DD94FEA002343F0004310F0004F15
:1050200023FA02F018BF404270474FF0000070476B
:1050300012F1610F01D1420205D110F0004008BF0A
:105040006FF0004070474FF00000704753B94AB905
:10505000002908BF00281CBF4FF0FF314FF0FF3080
:1050600000F0A8B9ADF1080C6DE904CE00F02CF801
:10507000DDF804E0DDE9022304B07047D0B500F0AC
:10508000FFFA00220E4B06460F4600F04DFB00F0E3
:105090005DFD044600F0D2FA00220A4B00F044FB0A
:1050A00002460B463046394600F08AF900F04EFDC4
:1050B0002346002242EA000210461946D0BD00BF36
:1050C0000000F03D0000F0412DE9F04F8C460C4609
:1050D0000546099E002B4FD18A4217466BD9B2FA7A
:1050E00082FEBEF1000F0BD0CEF1200520FA05F5AF
:1050F00001FA0EF345EA030C02FA0EF700FA0EF578
:10510000390CBCFBF1F0BAB201FB10C300FB02F892
:105110004FEA154C4CEA0344A04509D9E41900F1C3
:10512000FF3380F02881A04540F2258102383C44BD
:10513000C8EB0404B4FBF1F301FB134C03FB02F2D4
:10514000ACB244EA0C418A4209D9C91903F1FF34CF
:1051500080F00F818A4240F20C81023B39448A1A66
:1051600043EA00400021002E63D022FA0EF2002311
:1051700086E80C00BDE8F08F8B4207D9002E56D090
:10518000002186E811000846BDE8F08FB3FA83F1EC
:10519000002940F09380A34202D3824200F2FE80B5
:1051A000851A64EB03039C460120002E41D086E85B
:1051B0002010BDE8F08F12B90127B7FBF2F7B7FA5C
:1051C00087FEBEF1000F36D1E41B4FEA17481FFAE5
:1051D00087F90121B4FBF8F308FB134409FB03F240
:1051E0004FEA154C4CEA0444A24207D9E41903F1F2
:1051F000FF3002D2A24200F2D3800346A41AB4FBCD
:10520000F8F008FB104809FB00F9ACB244EA084288
:10521000914507D9D21900F1FF3402D2914500F22D
:10522000BA802046C9EB020240EA03409BE73146C0
:105230003046BDE8F08F07FA0EF7CEF1200C24FAC5
:105240000CF34FEA1748B3FBF8FA1FFA87F908FB8B
:105250001A3520FA0CFC04FA0EF40AFB09FB4CEA9E
:10526000040C4FEA1C4242EA05439B4500FA0EF546
:105270000AD9DB190AF1FF3280F08B809B4540F29E
:105280008880AAF1020A3B44CBEB0303B3FBF8F09E
:1052900008FB103300FB09F41FFA8CFC4CEA0343B3
:1052A0009C4207D9DB1900F1FF326ED29C426CD9C7
:1052B00002383B441C1B40EA0A418BE7C1F1200E37
:1052C0008B4022FA0EFC4CEA030C24FA0EF74FEA4C
:1052D0001C49B7FBF9FA1FFA8CF309FB1A7720FA7D
:1052E0000EF88C400AFB03F548EA04044FEA144820
:1052F00048EA0747BD4202FA01F200FA01FB09D968
:1053000017EB0C070AF1FF3041D2BD423FD9AAF199
:10531000020A67447F1BB7FBF9F509FB157705FB0C
:1053200003F3A4B244EA0747BB4208D917EB0C07C2
:1053300005F1FF3027D2BB4225D9023D674445EA3B
:105340000A40A0FB0289FF1A4F4545464C4614D33C
:1053500029D066B3BBEB050367EB040707FA0EFE23
:10536000CB40CF404EEA030386E888000021BDE829
:10537000F08F2346F3E61846DAE6B8EB020569EB50
:105380000C040138E5E70546D9E7104692E7824666
:10539000C0E7924678E702383A4443E7084604E714
:1053A000023B3C442AE7C345E7D33C46D1E73146BC
:1053B000BDE8F08F704700BF81F0004102E000BF00
:1053C00083F0004330B54FEA41044FEA430594EAC5
:1053D000050F08BF90EA020F1FBF54EA000C55EA00
:1053E000020C7FEA645C7FEA655C00F0E2804FEAD1
:1053F0005454D4EB5555B8BF6D420CDD2C4480EAB3
:10540000020281EA030382EA000083EA010180EAE2
:10541000020281EA0303362D88BF30BD11F0004F30
:105420004FEA01314FF4801C4CEA113102D0404266
:1054300061EB410113F0004F4FEA03334CEA1333A1
:1054400002D0524263EB430394EA050F00F0A780B9
:10545000A4F10104D5F1200E0DDB02FA0EFC22FAB4
:1054600005F2801841F1000103FA0EF2801843FAA8
:1054700005F359410EE0A5F120050EF1200E012A99
:1054800003FA0EFC28BF4CF0020C43FA05F3C018D7
:1054900051EBE37101F0004507D54FF0000EDCF150
:1054A000000C7EEB00006EEB0101B1F5801F1BD3F9
:1054B000B1F5001F0CD349085FEA30004FEA3C0CFD
:1054C00004F101044FEA445212F5800F80F09A80F3
:1054D000BCF1004F08BF5FEA500C50F1000041EBF7
:1054E000045141EA050130BD5FEA4C0C404141EBFB
:1054F000010111F4801FA4F10104E9D191F0000F22
:1055000004BF01460020B1FA81F308BF2033A3F1A4
:105510000B03B3F120020CDA0C3208DD02F1140C9B
:10552000C2F10C0201FA0CF021FA02F10CE002F1D6
:105530001402D8BFC2F1200C01FA02F120FA0CFCCF
:10554000DCBF41EA0C019040E41AA2BF01EB045118
:10555000294330BD6FEA04041F3C1CDA0C340EDC16
:1055600004F11404C4F1200220FA04F001FA02F359
:1055700040EA030021FA04F345EA030130BDC4F117
:105580000C04C4F1200220FA02F001FA04F340EA0C
:105590000300294630BD21FA04F0294630BD94F0BD
:1055A000000F83F4801306BF81F480110134013DA4
:1055B0004EE77FEA645C18BF7FEA655C29D094EA15
:1055C000050F08BF90EA020F05D054EA000C04BF93
:1055D0001946104630BD91EA030F1EBF002100207E
:1055E00030BD5FEA545C05D14000494128BF41F01D
:1055F000004130BD14F580043CBF01F5801130BD81
:1056000001F0004545F0FE4141F470014FF000000B
:1056100030BD7FEA645C1ABF194610467FEA655CBC
:105620001CBF0B46024650EA013406BF52EA03355E
:1056300091EA030F41F4002130BD00BF90F0000F4C
:1056400004BF0021704730B54FF4806404F1320488
:105650004FF000054FF0000150E700BF90F0000F41
:1056600004BF0021704730B54FF4806404F1320468
:1056700010F0004548BF40424FF000013EE700BF38
:1056800042004FEAE2014FEA31014FEA02701FBFC8
:1056900012F07F4393F07F4F81F06051704792F09A
:1056A000000F14BF93F07F4F704730B54FF4607414
:1056B00001F0004521F0004120E700BF50EA01025F
:1056C00008BF704730B54FF000050AE050EA01020C
:1056D00008BF704730B511F0004502D5404261EB7C
:1056E00041014FF4806404F132045FEA915C3FF4BD
:1056F000DCAE4FF003025FEADC0C18BF03325FEA56
:10570000DC0C18BF033202EBDC02C2F1200300FA0A
:1057100003FC20FA02F001FA03FE40EA0E0021FA2F
:1057200002F11444C1E600BF70B54FF0FF0C4CF419
:10573000E06C1CEA11541DBF1CEA135594EA0C0FCF
:1057400095EA0C0F00F0DEF82C4481EA030621EA0A
:105750004C5123EA4C5350EA013518BF52EA033545
:1057600041F4801143F4801338D0A0FB02CE4FF0F7
:105770000005E1FB02E506F00042E0FB03E54FF027
:105780000006E1FB03569CF0000F18BF4EF0010E1F
:10579000A4F1FF04B6F5007F64F5407404D25FEA1B
:1057A0004E0E6D4146EB060642EAC62141EA5551CE
:1057B0004FEAC52040EA5E504FEACE2EB4F1FD0C10
:1057C00088BFBCF5E06F1ED8BEF1004F08BF5FEA8E
:1057D000500E50F1000041EB045170BD06F0004640
:1057E00046EA010140EA020081EA0301B4EB5C04ED
:1057F000C2BFD4EB0C0541EA045170BD41F48011E5
:105800004FF0000E013C00F3AB8014F1360FDEBF09
:10581000002001F0004170BDC4F10004203C35DAE5
:105820000C341BDC04F11404C4F1200500FA05F368
:1058300020FA04F001FA05F240EA020001F0004209
:1058400021F0004110EBD37021FA04F642EB06017F
:105850005EEA430E08BF20EAD37070BDC4F10C04A9
:10586000C4F1200500FA04F320FA05F001FA04F26D
:1058700040EA020001F0004110EBD37041F1000159
:105880005EEA430E08BF20EAD37070BDC4F1200564
:1058900000FA05F24EEA020E20FA04F301FA05F2CC
:1058A00043EA020321FA04F001F0004121FA04F274
:1058B00020EA020000EBD3705EEA430E08BF20EA44
:1058C000D37070BD94F0000F0FD101F0004640007E
:1058D00041EB010111F4801F08BF013CF7D041EA00
:1058E000060195F0000F18BF704703F00046520004
:1058F00043EB030313F4801F08BF013DF7D043EAD5
:105900000603704794EA0C0F0CEA135518BF95EA8A
:105910000C0F0CD050EA410618BF52EA4306D1D111
:1059200081EA030101F000414FF0000070BD50EA30
:10593000410606BF1046194652EA430619D094EABA
:105940000C0F02D150EA013613D195EA0C0F05D1A4
:1059500052EA03361CBF104619460AD181EA0301F8
:1059600001F0004141F0FE4141F470014FF00000B0
:1059700070BD41F0FE4141F4780170BD70B54FF04B
:10598000FF0C4CF4E06C1CEA11541DBF1CEA1355CB
:1059900094EA0C0F95EA0C0F00F0A7F8A4EB0504AD
:1059A00081EA030E52EA03354FEA013100F08880A4
:1059B0004FEA03334FF0805545EA131343EA12636D
:1059C0004FEA022245EA111545EA10654FEA002622
:1059D0000EF000419D4208BF964244F1FD0404F5DB
:1059E000407402D25B084FEA3202B61A65EB030537
:1059F0005B084FEA32024FF480104FF4002CB6EBF4
:105A0000020E75EB030E22BFB61A754640EA0C0073
:105A10005B084FEA3202B6EB020E75EB030E22BFB3
:105A2000B61A754640EA5C005B084FEA3202B6EBF4
:105A3000020E75EB030E22BFB61A754640EA9C00B3
:105A40005B084FEA3202B6EB020E75EB030E22BF83
:105A5000B61A754640EADC0055EA060E18D04FEA41
:105A6000051545EA16754FEA06164FEAC30343EAE1
:105A700052734FEAC2025FEA1C1CC0D111F4801FAE
:105A80000BD141EA00014FF000004FF0004CB6E7A7
:105A900011F4801F04BF01430020B4F1FD0C88BF46
:105AA000BCF5E06F3FF6AFAEB5EB030C04BFB6EB51
:105AB000020C5FEA500C50F1000041EB045170BD44
:105AC0000EF0004E4EEA113114EB5C04C2BFD4EB71
:105AD0000C0541EA045170BD41F480114FF0000EF5
