:020000040800F2
:1000000050240020A10F00089D0F00089D0F00083C
:100010009D0F00089D0F00089D0F000800000000C4
:100020000000000000000000000000009D0F00081C
:100030009D0F0008000000009D0F0008BD1500087E
:100040009D0F00089D0F00089D0F00089D0F0008E0
:100050009D0F00089D0F00089D0F00089D0F0008D0
:100060009D0F00089D0F00089D0F00089D0F0008C0
:100070009D0F00089D0F00089D0F00089D0F0008B0
:100080009D0F00089D0F00089D0F00089D0F0008A0
:10009000691C0008051D00089D0F00089D0F000841
:1000A0009D0F00089D0F00089D0F00089D0F000880
:1000B0009D0F00089D0F00089D0F00089D0F000870
:1000C0009D0F00089D0F00089D0F00089D0F000860
:1000D0009D0F000899180008412C00089D0F00088A
:1000E0009D0F00089D0F00089D0F000800000000F4
:1000F0000000000000000000000000000000000000
:1001000000000000000000005FF808F1224A0388A8
:1001100090429BB212D002F5006290420ED0B0F134
:10012000804F0BD0A2F59832904207D002F5806242
:10013000904203D002F58062904203D14A8823F0B6
:1001400070031343154A904208D002F58062904232
:100150001FBF23F44073CA889BB2134303808B886C
:1001600083850B8803850C4B98420FD003F5006301
:1001700098420BD003F54063984207D003F58063A3
:10018000984203D003F58063984201D10B7A03862D
:1001900001238382704700BF002C01400010004003
:1001A000038819B19BB243F0010303E023F001037C
:1001B0001B041B0C03807047384B82B01A6842F056
:1001C00001021A605968364A0A405A601A6822F0D9
:1001D000847222F480321A601A6822F480221A6033
:1001E0005A6822F4FE025A604FF41F029A600022FD
:1001F000009201921A6842F480321A601A6802F47E
:1002000000320192009A01320092019A1AB9009AC2
:10021000B2F5A06FF2D11A6812F4003218BF0122B1
:100220000192019A012A05D01E4B4FF000629A609C
:1002300002B070471C4A116841F01001116011684A
:1002400021F003011160116841F0020111605A6848
:100250005A605A685A605A6842F480625A605A6812
:1002600022F47C125A605A6842F4E8125A601A6802
:1002700042F080721A601968084A8901FBD55168FA
:1002800021F003015160516841F0020151605A6848
:1002900002F00C02082AFAD1C6E700BF00100240A3
:1002A0000000FFF800ED00E0002002402DE9F047DB
:1002B000089D01F007044FEAD508224405F0070520
:1002C0004FF47F4900EBD100944227D005F0070698
:1002D00004F0070AB245D44638BFB446CCF1080151
:1002E000C4EB020C8C4528BF8C46E708C75D29FA91
:1002F0000CFE08EBD50107FA0AF75FFA8EFE4EFAFC
:1003000006FE47FA06F65F5C06EA0E0627EA0E0EC0
:1003100046EA0E065E5464446544D5E7BDE8F087BE
:100320000246006848B1036811891360D38801331D
:100330009BB29942D38038BF1381704770B5044691
:100340000D4688B020220021684603F0DBFE2046DF
:100350000495FFF7E5FF054658B16B46044608AE25
:100360001A4603CAB24220606160134604F10804D1
:10037000F6D1284608B070BD2DE9F0410568DDB121
:100380008E68A84626F06047BB0C4FEAD67EC6F3BF
:10039000807C2A4637EA260628BF1E469368BEEBB5
:1003A000D37F23F060440ED0002B08DAA40CB442B3
:1003B00007D1954213D10D600160BDE8F081B442D0
:1003C00012D0A64206E0A74203D1C3F380739C4536
:1003D00003D1A7422CBF002301232BB1E9E7C8F8C2
:1003E00000100A60BDE8F0811368904613B91160EF
:1003F000BDE8F0811A46D1E7F8B506460F464FF63C
:10040000FF7400252A463046394603F05DFCC0B231
:1004100084EA0024082314F4004F4FEA4404A4B2F1
:100420001CBF84F4815484F00104013BF3D10835EE
:10043000402DE7D12046F8BD10B54B6843B1C468E4
:100440001A681C60C360438A013B43824A60F4E738
:100450000A8B002063F309020A83002110BD0A44BD
:10046000914211D011F8013B80EA0320082310F4D7
:10047000004F4FEA400080B21CBF80F4815080F0F2
:100480000100013BF3D1EBE770472DE9F04F85B058
:1004900081468DE80A00BDF83C409346002A7DD095
:1004A00024B10E9B002B79D0072C27D809F10C0022
:1004B000FFF736FF054610B96FF0020070E020220A
:1004C000002103F01FFE22460E9905F1100003F0F3
:1004D000A3FD631C2B769BF800302C4403F01F0314
:1004E00063F03F032374009B09F11C0043F00043B9
:1004F000AB602946FFF740FF012051E04FF00008B4
:1005000046464546019B4FF0800A1B0A029300F1C4
:100510000C0303930398FFF703FF07460028CBD093
:100520002022002103F0EEFD3EB99DF804300222A6
:100530003B749DF808307B740BE0002209E00E9BB1
:10054000B9180132985DD2B20136072A0874B6B2E2
:1005500001D0B442F3D8A64208BF4FF0400A9BF83E
:100560000010B81801F01F0141EA481141EA0A03DE
:100570000374009B013243F00043BB603A76394676
:1005800009F11C00FFF7F8FEA64205F1010588F00D
:1005900001084FF0000ABDD1284601E06FF00100CC
:1005A00005B0BDE8F08F2DE9F04717460A8B994654
:1005B000C2F30902C2F10603002B0646884618DD85
:1005C00000201FFA89F185B253199BB2052B09D976
:1005D000A9420FD8B8F818300A4462F30903A8F802
:1005E00018306BE0A942F3D93C5C43449C7601305F
:1005F000E9E70025911F1C23B1FBF3FA03FB1A1A4C
:10060000D8F804405FFA8AF10CB1012329E03046A2
:10061000FFF786FE044608B100230360C8F80440D3
:10062000CCB96FF00200BDE8F0874A44063A1C20BE
:10063000B2FBF0F20132D2B293420DD2BAF1000F06
:100640000AD13046FFF76CFE08B1C0F800A0206068
:100650000028E6D0044600211FFA89F94FF0000A6D
:1006600011E020680028E0D00133DBB20446F8E74F
:10067000A3180132785D92B201351C2A1871ADB20F
:1006800005D0A945F4D84D450FD28AB2F0E7A94567
:10069000F9D93046FFF744FE08B1C0F800A0206049
:1006A0000028BED004460021EDE7B8F81820C2F3B8
:1006B0000903994469F30902A8F818200120BDE84C
:1006C000F087F8B5044616460D46242200211F4641
:1006D00003F018FD069B72096360079B00202362EC
:1006E0004FF6FF739A4228BF1A4629460346A76071
:1006F000207097B204F10C06934204D031600133AC
:100700000E462031F8E70023336027826382A382FC
:10071000F8BD03781BB94BB2002BC8BF01707047FE
:10072000007870472DE9F7430D9F8046BDF82840BB
:100730000B9E9DF83090BDF838500FB9002D3FD179
:10074000B9F11F0F3CD898F80010A9B9072D34D87B
:1007500034F0030334D12A4639464FF6FF70FFF7D1
:100760007EFE47F6FE73240204F4407444EA0964F2
:10077000034044EA43240FE041EA0421072D41EA03
:10078000096409D919461046FFF736FE2A4639464C
:10079000FFF765FE034601E04FF6FF7301950097F2
:1007A000324621464046FFF770FE33780133DBB214
:1007B0001F2B88BF0023337004E06FF0030001E0BB
:1007C0006FF0010003B0BDE8F0832DE9F7430E9F01
:1007D00081460C46104619460B9D9DF830209DF829
:1007E0003480BDF83C6007B976BB1F2A2CD899F835
:1007F000003063B343F0800343EA04239DF82840AC
:1008000043EAC83343EA0443072E43EA026407D9A4
:10081000FFF7F2FD32463946FFF721FE034601E0BD
:100820004FF6FF73019600972A4621464846FFF788
:100830002CFEB8F1010F0CD12B780133DBB21F2B4A
:1008400088BF00232B7004E06FF0010001E06FF01F
:10085000030003B0BDE8F083C06900B10830704701
:10086000C3691A68C261C2681A60C360438A013BE7
:10087000438270472DE9F047D0F818A00546164688
:100880001F465446DFF868804FF00009002C2CD03A
:10089000D4E90223B21A67EB0303994508BF9045D8
:1008A00020D2AB6921469C4228460DD1FFF7C4FDFA
:1008B000AB691B68AB61EB6823606B8AEC60AC6969
:1008C000013B6B82A246E1E7FFF7B6FD2368CAF859
:1008D0000030EB6823606B8AEC60013B6B82DAF8D6
:1008E0000040D3E7A2462468D0E7BDE8F08700BF08
:1008F00080841E002DE9F04F8BB00E4614460793FE
:10090000149F8246002800F0FF80002F00F0FC803A
:10091000531E3F2B00F2F880012A03D1079B002BC6
:1009200040F0F280BAF814500023ED00AE42089374
:10093000099301D3002505E133199D42DAF80C3003
:100940003ABFAD1BEDB225461BB9DAF81030002BCB
:1009500061D02F2E15D8C6F13008A84528BFA8466B
:10096000002300935FFA88FB4246314608ABDAF871
:1009700008004644CBEB0508FFF798FC5FFA88F8BF
:1009800002E0A8464FF0000BBAF81430302103F112
:100990000053063BDB000493DAF80C300393039B0F
:1009A0006BB3B8F1000F2AD0049BE02B28BFE023E3
:1009B00006930B44B342059318D9C6EB0309C84507
:1009C00038BFC146039828BF5FFA89F9CDF800B057
:1009D000711A08AB4A460430FFF768FCCB44C9EBF8
:1009E00008084E445FFA8BFB5FFA88F8049B069A6E
:1009F00005999B1A0493039B1B680393CFE7DAF8CE
:100A0000100080B1B8F1000F0DD0CDF800B008ABE8
:100A10004246711A05E02A4631460093DAF808008A
:100A200008ABFFF743FC002D84D066070BD00AAB60
:100A300003EBD40111F8082C634203F0070342FAD8
:100A400003F301F8083C082C06D9102C06D9202CF9
:100A50008CBF0823042302E0012300E00223079A4D
:100A6000002A57D0B4EBC30F56D0082C0ED89DF9EE
:100A70002020631E22FA03F3D80760D54FF0FF331E
:100A800003FA04F414438DF8204058E0102C0ED8DB
:100A9000BDF92020631E22FA03F3D90743D54FF096
:100AA000FF3303FA04F41443ADF820403BE0202C5C
:100AB0000CD8089B621E23FA02F2D20737D54FF0FA
:100AC000FF3202FA04F42343089330E0402C1ED096
:100AD000DDE90889621E4046494603F0F5F8002129
:100AE00000F0010050EA010324D022460120002139
:100AF00003F0F6F8404261EB410140EA080041EAA8
:100B00000901CDE9080115E06FF001051AE06FF069
:100B1000080517E0012C12D0082C10D9102C02D98E
:100B2000202C07D803E0BDF820303B800AE0089B6A
:100B30003B6007E0DDE90823C7E9002302E09DF8F8
:100B400020303B7028460BB0BDE8F08F30B5402A0E
:100B500085B018D8002A08BF01220024012A029477
:100B6000039401D0082A03D81B788DF808300FE0D1
:100B7000102A03D81B88ADF8083009E0202A03D8D2
:100B80001B68029304E04022D3E90045CDE9024509
:100B900053070BD004AB03EBD20515F8084C5342B6
:100BA00003F0070304FA03F305F8083C0091034639
:100BB000002102A8FFF77AFB05B030BD10B5CB6865
:100BC00043B1C4681A681C60C360438A013B438216
:100BD000CA60F4E78B600B618B8210BD2DE9F04F8A
:100BE000D1F800A08FB0CDE90223CAF3C0120446A9
:100BF0000D4622B1CAF3C03BCAF3062802E0904674
:100C00004FF0020BBAF1000F80F2BB812B6813F09A
:100C1000C04F40F0B6812B7C002B00F0B281BBF1BD
:100C2000020F03D02178414540F0AB810AF07F01EB
:100C3000C8B2059012B1CAF3074904E0CAF30F29FC
:100C400009B909F003092B444FEA4868059ADE798F
:100C500048EA0B4848EA8248F30948EA090804933D
:100C60002BD0002200230EA961E90823059B6768A9
:100C700000934A465B462046B847002800F0818131
:100C8000A7694FB9414604F10C00FFF757FB07462F
:100C900088B976E13F681FB13B699845FAD115E004
:100CA000414604F10C00FFF749FB0746002800F01D
:100CB0006881A3693B60A76108E0A769002F00F085
:100CC00060813B69984506D03F68F7E7DDE906019A
:100CD000FFF792FBF88297F819E006F01F08CEF3B1
:100CE000840EB8EB0E0ED7E9022348BF0EF1200E9A
:100CF00052EA0301CAF3046A00F02E81DDE9020121
:100D0000801A61EB03010B46024600219E4899427E
:100D100008BF9042C0F02081049B5BB3BEF1010F7D
:100D200000F31A81730625D5DDE902230021C7E906
:100D3000022306A8202203F0E5F9DDE90223CDE92C
:100D4000062305F1080308932B7CADF82E90013B98
:100D5000DBB2ADF82C309DF814308DF830B08DF842
:100D600033308DF831808DF832A0A36806A9204673
:100D70009847DEE07B7EC6F34012B2EBD31F40F013
:100D80000081C3F38403434540F0FB80049A2B7C2D
:100D9000B609002A33D016F001065ED1032B40F2CB
:100DA000F080DDE90223C7E902232B7C05F10A0864
:100DB000033BDBB24246394604F10C00FFF7F3FB7C
:100DC000002812DA39462046FFF736FB7B7EC3F354
:100DD0008402013262F386037B763B8B66F3090360
:100DE0003B831B0A66F3C713B4E06A7A2B7A414649
:100DF00043EA0223BB822A7C033AD2B223E066BBD9
:100E000005F10806013BDBB23246394604F10C001D
:100E1000FFF7C9FB002812DA39462046FFF70CFB22
:100E20007B7EC3F38402013262F386037B76049AED
:100E30003B8B62F309033B83049A1B0A88E031462B
:100E40002A7C013AD2B2F88AFFF709FB7B7EF8824E
:100E5000C3F3C01282F001027AE0388B013BC0F389
:100E600009000528DBB212D8EE1D0021CAB2934258
:100E700028D9013100EB010E16F801CF07EB0E0265
:100E8000BEF1060F82F819C0CAB2EFD11AE07E682F
:100E9000BEB10622316811B11C320E46FAE7801A43
:100EA00005F1070C00EB010EBEF11B0FCAB209D809
:100EB0009A4207D21CF8012FB6448EF80420013163
:100EC000F0E73246DDE902019A42CDE9060107F179
:100ED0001A01089138BF0832796834BF52190022CC
:100EE00009910A923A8BADF82E90C2F3090213448D
:100EF000ADF82C309DF814308DF830B08DF83330CB
:100F000000238DF831808DF832A07B602A7CF88A2E
:100F1000013A05F10801FFF7A2FABB8AF882834281
:100F200003D1A36806A92046984706A92046FFF7E3
:100F300045FE7B7EC3F38402013262F386037B7637
:100F40003B8B6FF309033B831B0A6FF3C71301E06D
:100F500062F3C7137B7614E07B7E394666F3860323
:100F60006FF3C7137B762046FFF766FA049B002BCE
:100F70007FF4D8AE7B7EC3F38402013262F3860332
:100F8000E8E70FB0BDE8F08F80841E00034651F8FB
:100F9000100F8A8818609A8018467047FEE7000094
:100FA00008B50C4A0C4B0D498B4204D252F8040F81
:100FB00043F8040BF8E70A480A494FF00002884258
:100FC000B8BF40F8042BFADBFFF7F6F8BDE808409D
:100FD00002F054BC40460008000000202C00002015
:100FE000300000205020002043690AB1194301E07D
:100FF00023EA010141617047B1F5807F35D00CD8FB
:10100000082924D004D801291CD004291DD07047F8
:1010100020291FD040291FD07047B1F5006F22D082
:1010200006D8B1F5007F20D0B1F5806F1DD0704794
:10103000B1F5803F13D0B1F5003F12D0B1F5004FAC
:1010400015D110E00A4B83607047082300E010239D
:10105000C3607047082300E0102303617047082332
:1010600004E0102302E000238361042343607047FF
:1010700001010100CA782DE9F041D40648BF8C78FF
:101080000E8802F00F0348BF234316F0FF0F1ED057
:10109000016800244FF0010E4FF00F0C0EFA04F718
:1010A00037EA06050FD1A5000CFA05F821EA080178
:1010B00003FA05F5282A41EA050101D1476102E05A
:1010C000482A08BF07610134082CE7D10160FF2ED0
:1010D00020D9416800244FF0010E4FF00F0C04F1AD
:1010E00008050EFA05F535EA06070FD1A7000CFA38
:1010F00007F821EA080103FA07F7282A41EA07015D
:1011000001D1456102E0482A08BF05610134082C7D
:10111000E5D14160BDE8F0810028164A30B500F401
:101120004015B4BFD3695368B5F5401F84B206D1EA
:10113000556823F0706325F0706555600EE0C202BB
:1011400055BF420D03221201C0F303454CBFAA4014
:1011500004FA02F223EA020343F0706319B1420D6C
:10116000120194402343034A0028B4BFD361536063
:1011700030BD00BF00000140410746BFC30843F037
:101180000043430D820748BF43F080431846704731
:10119000094B9A6912F0700F0DD000229A61074A2C
:1011A000516801315160127F12B99B695B0702D50A
:1011B000034A014B9A6070470064004030000020F1
:1011C0008080800000000000022B0AD140F2DA7318
:1011D0009A4236D11CA3D3E900230120C1E90023A0
:1011E0007047012B2DD1013A0A2A2AD8DFE802F0F4
:1011F0000629290D14292929291B220014A3D3E922
:1012000000230120C1E90023704713A3D3E9002381
:101210000120C1E90023704711A3D3E90023012075
:10122000C1E90023704710A3D3E900230120C1E9DD
:10123000002370470EA3D3E900230120C1E9002356
:1012400070470020704700BF851E4BCFD9D4A25AEB
:101250009E6AC421818A46EE042B31ECA7766FBECC
:10126000F017304A39059E56CDD269EBC51A133BAB
:10127000D5A4D139F922B6A710B5074C40F22551B3
:10128000204602F041FC2046BDE81040012240F219
:10129000255102F021BC00BF0038014010B50E4CB2
:1012A0003823E360204623610221FFF7A5FE204694
:1012B0001021FFF7A1FE094A00231380084A2046A7
:1012C000138002210122FFF78FFE2046BDE8104067
:1012D00001221021FFF788BE006400408004002036
:1012E0008404002010B5074C40F22551204602F03E
:1012F0000BFC2046BDE81040012240F2255102F0CF
:10130000EBBB00BF0044004000EB800043001846E8
:101310000138FDD87047402808B5024609D8BDE815
:101320000840C0EB401002EB8000C00080B2FFF725
:10133000EBBF4FF47A70FFF7E7FF013A92B2002A51
:10134000F7D108BD38B5044603F010F880B2024664
:10135000002330B1013880B2215C2E2908BF03463A
:10136000F7E713B9013A202010E0013B202182B2B7
:101370009A4205DAA55C0130302D0AD1A154F6E776
:1013800038BD655C0133302D03D1605499B2914270
:10139000F7DB38BD0309092B00F00F0094BF303391
:1013A000373309280B7094BF303037300023487032
:1013B0008B70704713B50A46044601A9C0B2FFF707
:1013C000E9FF200A1146FFF7E5FF9DF8043093700E
:1013D0009DF80530D3709DF80630137102B010BD32
:1013E00013B50A46044601A9C0B2FFF7D3FF9DF822
:1013F000043001A993719DF80530C4F30720D3711F
:10140000FFF7C8FF9DF8043001A913719DF805305E
:10141000C4F307405371FFF7BDFF9DF8043001A9E5
:1014200093709DF80530200ED370FFF7B3FF9DF841
:10143000043013709DF8053053700023137202B00E
:1014400010BDF8B50D46069C00212170297875293C
:1014500031D16E78632E01D1017807E0692E01D178
:10146000018803E06C2E40F0A7800168AF78682FF8
:1014700017D1632E05D12146BDE8F8400078FFF76B
:1014800089BF692E05D12146BDE8F8400088FFF7E5
:1014900091BF6C2E33D12146BDE8F8400068FFF7BC
:1014A0009FBF2B2F2BD111B12770012628E02020C0
:1014B0002070012624E073297ED16978632902D146
:1014C00090F9001007E0692902D1B0F9001002E09C
:1014D0006C2971D10168A8782B280AD1002903DA78
:1014E0002D202070012608E008BF20202070012652
:1014F00006E000294FF0000602DA494200E000262B
:10150000174618464FF0300E002806DA013FBFB2EA
:10151000013004F807E000B2F6E703EAE37313448E
:1015200018BF01309BB218BF00B20A274FF02E0C33
:101530009E4210D2013B9BB2C3EB020E86451FBFF9
:10154000B1FBF7FE07FB1E113031E1540CBF04F86C
:1015500003C07146ECE70023A3547A21284602F029
:101560003FFE48B3AB782B2B0FD1601CFFF7EAFE90
:10157000204602F0FBFE0123834205D2E25C202AD2
:101580000BD101339BB2F7E7F8BD2046FFF7DAFE37
:10159000204602F0EBFE01230BE02278234403F8FF
:1015A000012C20232370F8BDE25C202AF5D1013301
:1015B0009BB28342F8D3F8BDF8BD0000034B012273
:1015C000DA831A6A01321A62704700BF30000020C5
:1015D0000B4B0021D98319620A4B0B4A1B68F02080
:1015E000B3FBF2F34FF47A725343084A013B536062
:1015F000074B83F82300072391601360704700BFF7
:10160000300000200000002040420F0010E000E009
:1016100000ED00E02DE9F84F254B264D01281CBFB9
:10162000AA461D46894614462349244A06BF9A46BF
:101630008846904602F07CFA284602F0F1FA042827
:10164000074630D14FF6FF7BB9F1000F08BF4FF4CA
:101650007A74013405F1100624F001043444C5EB1A
:101660000A0AA64217D0B9F1000F03D13AF80610C2
:1016700089B203E0731B4B4433F8101C594501D168
:101680000236EEE7B0450DD9304602F083FA042861
:101690000746F5D007E04FF01131284602F096FAE0
:1016A000074600E0802702F04DFA3846BDE8F88F83
:1016B00000E0010800E40108FFE70108FFE301087A
:1016C00010B502F035FA074802F0AAFA04280446D9
:1016D00003D1054802F0A4FA044602F033FA20468A
:1016E00010BD00BF00E0010800E401080131C1F3B2
:1016F0004F0100239AB291420AD9B3F5FC7F09D079
:10170000054A1A445200128820F813200133F1E7E9
:10171000042070478020704708F0000438B50A465E
:1017200004460D4601460020FFF774FFC0B20428AE
:1017300001D080B238BD2A4621460120FFF76AFF5A
:10174000C0B238BD38B5164B1D68D3F80044B5F1AA
:10175000113F07D1B4F1113F01D104201DE0621CFB
:101760000ED104E06B1C0BD1B4F1113F08D1002263
:1017700011460120FFF74EFFC0B204280DD1ECE75F
:10178000FFF79EFFC0B2042807D1013504D1013410
:1017900014BF4020202000E0402080B238BD00BFB0
:1017A00000E001081FB501214FF4006002F006F9C6
:1017B0000023ADF80A30ADF806304FF6FF73ADF8F0
:1017C0000830094B094A1B68094CB3FBF2F304A922
:1017D000013B21F80C3D2046FEF798FC01212046F4
:1017E000FEF7DEFC04B010BD0000002040420F00F8
:1017F000002C014072B6094B9A8C92B262B608492D
:1018000008488B888A8093420B6884BF01330B6041
:1018100002EB0343A0FB033080097047002C01401A
:1018200090040020D34D621030B472B60D4B988CEA
:1018300080B262B60C490B8AD1E90245834204D9D1
:10184000013445F10005C1E902452B04220443EAB5
:101850001443141843F1000508822046294630BC81
:10186000704700BF002C01409004002008B5012003
:10187000FFF798FF064B00219A8C064B92B2196035
:10188000002000219A80C3E902011A8208BD00BF2E
:10189000002C014090040020194B10B5198889B222
:1018A0008A060FD5174C18489A8823880088013378
:1018B000C3F3090380B2834292B21FBF1348D2B26E
:1018C000C25423800B061AD5114B124A198813886B
:1018D00089B29BB299420BD013880133C3F3090339
:1018E000138013880C4A9BB2D35C054A938010BDC9
:1018F000034A938923F080031B041B0C938110BDC2
:1019000000380140880400208A040020C615002009
:1019100082040020C4110020C61900200B490C4A83
:101920000B8812880133C3F3090392B293420AD0A1
:10193000084AD054084A0B80938901209BB243F097
:101940008003938170470020704700BF820400200D
:10195000C4110020C619002000380140013938B5F3
:10196000451E4418A54204D015F8010FFFF7D6FF15
:10197000F8E738BD024A00231380024A13807047FB
:10198000C411002082040020054A064B1B881088E1
:10199000181A80B2030444BF00F5806080B270471B
:1019A0008A0400208804002010B50948094C2188C9
:1019B000038889B29BB29942054AF8D01388013353
:1019C000C3F3090313801388034A9BB2D05C10BD94
:1019D0008A04002088040020C6150020024A002343
:1019E0001380024A138070478A0400208804002074
:1019F0001FB5002300900C2269460848ADF804305A
:101A0000ADF80630ADF80830ADF80A20ADF80C306E
:101A100001F0ECFF05B05DF804FB00BF00380140A9
:101A20007FB5334C012144F2050001F0C7FF4FF4AC
:101A30000073ADF8003003251823694620468DF861
:101A400003308DF80250FFF715FB4FF480636946B1
:101A5000ADF800302046482304F540548DF803309B
:101A60008DF80250FFF706FB02A802F023F802A946
:101A7000204602F00FF84FF4E130FFF7B9FF2523BD
:101A80008DF8043001260F2301A88DF805308DF85C
:101A900006308DF8076002F0E1F80022204640F29F
:101AA000277102F019F8204640F2277102F02CF855
:101AB000204640F2266102F027F80E4B00251D80DB
:101AC0000D4B2A46204640F225511D8002F004F8B5
:101AD000204640F2255102F017F8084B31461D8090
:101AE000074B20461D8001F0EBFF04B070BD00BF26
:101AF00000080140C4110020820400208A04002054
:101B00008804002008B5FFF78BFFBDE80840FFF709
:101B1000B3BB000070B504460646044D0FCD0FC49C
:101B200095E8070084E80700304670BD30000020CB
:101B3000044B986800F0E05000F16443584258416B
:101B4000704700BF006400402DE9F34105460028BE
:101B50007DD0046814F000547CD1FFF719FB3F4B93
:101B60009A6802F0E052B2F1E05F51D09A682646DE
:101B7000C2F380628DF804209A689B68C2F3C06249
:101B8000C3F300738DF805208DF80630FF2401ABF8
:101B9000F35C0BB1F4B234E0330103F1804303F59D
:101BA000CB431868FFF7E8FA2F684FEAD07C4FEA7A
:101BB000D778E04527F0604320F0604207F0004E00
:101BC00000F0004110D0BEF1000F00D09B0C19B105
:101BD000900C984215D002E09A4217D010468342EA
:101BE0002CBF002001200BE0934205D1C0F3807090
:101BF000C7F38077874203D193422CBF0020012096
:101C000020B10136032EC2D1FF2C01D1002022E0E9
:101C100023012A7C03F1804303F5CB435A60EA6831
:101C20002968DA60AA6800299A60BABFCA0042F03F
:101C300004024A05490048BF42F0020242F0010294
:101C40001A60074A012053690133536103E06FF0C2
:101C5000010000E0034802B0BDE8F08100640040EC
:101C60003000002015FCFFFF2DE9F041204F214AF4
:101C70003D881388013505F03F059BB29D42904693
:101C80001D4C1CD01D4EF368DB0642BF2368013398
:101C90002360D6F8B001FFF76FFA18236B43184999
:101CA000C850CA18D6F8B43103F00F031374D6F82D
:101CB000B8319360D6F8BC31D3603D8002E0A368B0
:101CC0000133A3603B889AB2B8F800309BB2D31AB4
:101CD000228A48BF40339342C4BF074A1382A36994
:101CE00038220133A361054BDA60BDE8F08100BF03
:101CF00084040020800400203000002000640040A4
:101D0000380500202DE9F041204F214A3D881388F5
:101D1000013505F03F059BB29D4290461D4C1CD0FD
:101D20001D4E3369DB0642BF236801332360D6F8BA
:101D3000C001FFF721FA18236B431849C850CA188D
:101D4000D6F8C43103F00F031374D6F8C83193608A
:101D5000D6F8CC31D3603D8002E0E3680133E36024
:101D60003B889AB2B8F800309BB2D31A228A48BF97
:101D700040339342C4BF074A1382A3693822013318
:101D8000A361054B1A61BDE8F08100BF8404002007
:101D9000800400203000002000640040380500204E
:101DA000F8B500B3FFF7F4F9114D124B1A882B88E0
:101DB00092B29BB29A4219D02A880F4C0132182352
:101DC00002F03F0203FB0244034604F118072646D3
:101DD00003CEBE4218605960344603F10803F6D1C1
:101DE0002A800120F8BD6FF00100F8BD0020F8BD89
:101DF00080040020840400203805002037B5142317
:101E00000024012501A88DF804308DF805408DF8D7
:101E100006408DF8075001F021FF152301A88DF829
:101E200004308DF805408DF806408DF8075001F01C
:101E300015FF03B030BD0000032970B504460D4600
:101E40003ED800283CD00388013B9BB2B3F5806F9D
:101E500036D2C388013B9BB2032B31D84388013B68
:101E60009BB20F2B2CD88388013B9BB2072B27D822
:101E7000474E1C223046002102F044F9AA1E53426C
:101E800053413377434B00225A611A684FF47A76F4
:101E900022F002021A601A6842F001021A601A4621
:101EA00053683C49DB070ED44FF47A70FFF72CFAE5
:101EB000013EF5D14FF400430B606FF47A7070BDB2
:101EC0006FF0010070BD61230B60E2886388013A06
:101ED000013B12061B0403F4702302F040721A4304
:101EE0002388012D03F1FF33C3F3090342EA030200
:101EF000A3884FF47A7403F1FF334FEA035303F4DA
:101F0000E00343EA02030CBF4FF000420022032D1E
:101F100043EA02030CBF4FF0804200221343CB611F
:101F20000B6823F001030B6048681A4A10F00100A7
:101F30000AD04FF47A70FFF7E7F9013CF4D14FF47F
:101F400000431360144870BDD2F8003223F47C5370
:101F500023F00E0343F4606343F00103C2F8003240
:101F60006FF07043C2F80402C2F80C320B4BC2F897
:101F700014320123C2F84002C2F84402C2F81C32F3
:101F8000D2F8003223F00103C2F8003270BD00BF66
:101F9000300000200064004016FCFFFFAAAAAA0A35
:101FA000F0B500283DD00E293BD806461E4F002232
:101FB000C7F81C224FF0010E93B299422FD950F866
:101FC0003250002D02DB7368002B05DB7368EC00D8
:101FD000DB0044F0040401E06C055B056D007568EE
:101FE00048BF44F00204002DB8BF43F004036D0065
:101FF0004FEAC20505F1804548BF43F0020305F5ED
:10200000C845C5F84042C5F84432D7F81C320EFA2C
:1020100002F42343C7F81C3201320836CCE7002013
:10202000F0BD6FF00100F0BD0064004013B5044640
:1020300001214FF0007001F0CDFC01211CB10920FD
:1020400001F0BCFC02E0042001F0B8FC48238DF84C
:10205000073003238DF8063044B14FF4807301A993
:102060001648ADF80430FFF705F807E04FF40063B9
:1020700001A91348ADF80430FEF7FCFF18238DF8D2
:10208000073003238DF806306CB14FF4007301A9BB
:102090000A48ADF80430FEF7EDFF01214FF4EA10D5
:1020A000FFF73AF807E04FF4805301A90448ADF870
:1020B0000430FEF7DFFF02B010BD00BF000C01408E
:1020C0000008014010B504460748FEF729FB230429
:1020D00003F47F0343F0802343F0800300F07F008C
:1020E00043EA002010BD00BF840B002038B50C4629
:1020F0000546002101602346C0F803102022FEF7A8
:1021000025FD231D022220212846FEF71FFDA31DC9
:10211000032222212846FEF719FD04F108030322B9
:1021200025212846FEF712FD04F10A03102228217A
:102130002846FEF70BFD0448FEF7F2FA034BA08198
:102140001B78E38138BD00BF840B0020860400208B
:1021500010B5FFF769FB064A002301F0CDFD054CE1
:1021600020602146BDE810400348FFF7BFBF00BF15
:1021700040420F0070040020A80F00200000000063
:1021800030B50F4C87B02388A3B104F58565284688
:10219000FFF7DEFF0723049314230293094B0395F3
:1021A000019340F25513201D009303A3D3E90023AC
:1021B000FEF7B8FA07B030BDF1C6A7C1D068080F66
:1021C000800B00208604002010B5064C1022002150
:1021D000204601F097FF044B00221A700123E38090
:1021E00010BD00BF70040020860400200000000025
:1021F000F7B5044640F279120E46002101F082FF45
:102200002046FFF7A5FF18A1D1E90001042323729E
:10221000002502AB012763E90201E57120466772E0
:1022200020225021FEF792FC0D4AA7751346E57552
:1022300003CBA061E16118680A4B20621068293461
:1022400044F8050C03F1180253F8041B934244F8B8
:10225000041BF9D14123338003B0F0BDAFF30080FC
:10226000E8F7FF1F5E450008ED04AE050000000022
:1022700070B5134D88B02B880446CBB105F5856643
:102280000DF11E013046FFF7B3FFBDF81E30E17EB1
:102290000593002304960393A37E1934029301232C
:1022A0000093019404A3D3E90023281DFEF78DFABF
:1022B00008B070BDAFF300809E6AC421818A46EEEB
:1022C000800B002070B505468AB00E4649220021D9
:1022D00001F018FF03A8FFF71DFC089B00248DE800
:1022E000180021466B4628463022FEF72FFC099B3A
:1022F00030228DE8180011466B462846FEF726FC72
:10230000039B049A60211A44059B28461A44069BA5
:1023100013448DE8180030226B46FEF717FC122399
:1023200033800AB070BD000070B5134D88B02B88A3
:102330000446CBB105F585660DF11E013046FFF769
:10234000C1FFBDF81E30E17E059300230496039380
:10235000A37E1934029304230093019404A3D3E9C8
:102360000023281DFEF731FA08B070BDAFF30080DE
:10237000042B31ECA7766FBE800B002037B50446E6
:102380000D461022002101F0BDFE002319460094E5
:1023900028222846FEF7AEFAEB7E23816B7E63810E
:1023A00003B030BD10B4002404700B460122214656
:1023B00010BCFEF7CBBB00001FB501466846FFF717
:1023C000DDFFDDE9000106A3D3E90023994206BF42
:1023D00090420120002005B05DF804FBAFF30080BF
:1023E0001E1B55CEAC0000000149FFF7DBBF00BF4C
:1023F000640000200000000070B5114D86B02B88ED
:102400000446B3B105F585663046FFF7EDFF0123BD
:10241000E17E0593002304960393A37E193402936F
:1024200005230093019404A3D3E90023281DFEF79C
:10243000CCF906B070BD00BFF017304A39059E5682
:10244000800B0020014B00221A807047640000209E
:1024500037B50D460446002303608380194600907B
:1024600008222846FEF746FAEB7E63806B7EA38047
:1024700003B030BD002202600B46C0F803203021BB
:102480000122FEF763BB00000149FFF7F3BF00BF65
:10249000C21100200000000070B5114D86B02B88DD
:1024A0000446B3B105F585663046FFF7EDFF072317
:1024B000E17E0593002304960393A37E19340293CF
:1024C0000A230093019404A3D3E90023281DFEF7F7
:1024D0007CF906B070BD00BFCDD269EBC51A133BC5
:1024E000800B002073B516460C460546098800236C
:1024F000009003223046FEF7FDF92188033189B2AE
:1025000021802B88012B08D10835009540223046C8
:10251000FEF7F0F923884033238002B070BDF0B598
:102520000E460746002485B040222146ADF80E40F5
:1025300001F0E8FD23460D22214600973046FEF7C4
:10254000D9F9BDF80E3004A90D3321F8023D324609
:1025500007F10800FFF7C6FFBDF80E30B58A073354
:10256000C3F3CF03ED1A2DB21F2DADF80E30A8BF67
:102570001F25A3B2AB4204F101040CDABDF80E1022
:102580000822194418333B440093C9000023304605
:10259000FEF7B0F9EDE7F37E3B87737E7B8705B0EE
:1025A000F0BD70B50C461546134609880322064651
:1025B000FEF7CCFA2188033189B221802B88012BC8
:1025C00008D105F1080340223046FEF7BFFA238800
:1025D0004033238070BD70B50C46154613460988FC
:1025E00002220646FEF7B2FA2188023189B2218022
:1025F0002B88012B08D105F1080340223046FEF755
:10260000A5FA23884033238070BD2DE9F7430646A1
:102610001446884640F27312002101F073FD02ADAA
:10262000052325F8023D224629463046FFF7B9FF2B
:10263000BDF8063004F11002053329463046ADF8E6
:102640000630FFF7AEFFBDF8063004F12002063376
:1026500029463046ADF80630FFF7BDFFBDF806301D
:1026600004F13002063329463046ADF80630FFF754
:10267000B2FFBDF8065040340735ED101FFA85F95A
:102680002046ADF8069001F071FE214682B2074661
:10269000701901F0C1FC4F44A8F8007003B0BDE808
:1026A000F0830000014AFFF7B0BF00BFD80400204C
:1026B00070B5134D88B02B880446CBB105F58566FF
:1026C0000DF11E013046FFF7EDFFBDF81E30E17E33
:1026D0000593002304960393A37E193402930B23DE
:1026E0000093019404A3D3E90023281DFEF76DF89D
:1026F00008B070BDAFF30080D5A4D139F922B6A7D8
:10270000800B0020054B10B500241C806022214660
:10271000034801F0F7FC034B1C8010BDC2110020E0
:10272000D8040020640000202DE9F74F0C460B462A
:102730001646002103228046FEF708FAA01C01F08D
:1027400015FE02AB23F8020D052203214046FEF7D9
:10275000FDF90023BDF806205F1C9BB29A424FEAA8
:10276000C70508D923440233082229464046FEF70C
:10277000EDF93B46EEE704F12307384601F0F6FD9C
:10278000AB461FFA80FA0AF12309A1444F4509D04C
:102790003B46594608224046FEF7D8F90BF1080B94
:1027A0000137F3E705EBCA05ED0835800548FDF76D
:1027B000B7FF054BA4F880001B78A4F8823003B063
:1027C000BDE8F08F840B0020600000200A4601491C
:1027D000FFF7AABFC81D002030B5114C89B023886F
:1027E000BBB104F5856528460DF11E01FFF7EEFF2C
:1027F000BDF81E300395049318230293094B201D46
:10280000019343F6FF73009303A3D3E90023FDF77D
:1028100089FF09B030BD00BF759D040C8EA454D64D
:10282000800B00206000002008B5842200210348AE
:1028300001F068FC024B00221A7008BDC81D002080
:102840006000002073B504460D464422002101F0CB
:1028500059FC00231946082200942846FEF74AF83E
:10286000631C08220093114600232846FEF742F815
:10287000AB8A023BE3870023E28F991C5E1C9BB26C
:102880009A424FEAC10109D9234402330093082236
:1028900000232846FEF72EF83346EDE7EB7EA4F83A
:1028A00040306B7EA4F8423002B070BDF8B50C46E3
:1028B00005460B46164600210822FEF747F9082276
:1028C000631C11462846FEF741F9E38F3C2B84BF79
:1028D0003C23E3870023E28F991C5F1C9BB2934249
:1028E0004FEAC10107D22344023308222846FEF7EB
:1028F0002DF93B46EFE7023232800548FDF710FF25
:10290000044BA4F840001B78A4F84230F8BD00BF87
:10291000840B0020C01100200A460149FFF7C6BF02
:10292000380B00200000000030B5114C89B023881E
:10293000BBB104F5856528460DF11E01FFF7ECFFDC
:10294000BDF81E300395049318230293094B201DF4
:10295000019340F2DA73009303A3D3E90023FDF758
:10296000E1FE09B030BD00BF851E4BCFD9D4A25ABD
:10297000800B0020C011002008B54422002103482C
:1029800001F0C0FB024B00221A7008BD380B00207A
:10299000C011002008B5FFF747FFBDE80840FFF76A
:1029A000EBBF000010B5124B124C9CB001208DE81B
:1029B00018000394FFF786FB029004200594FFF7AC
:1029C00081FB049005200794FFF77CFB06900A200A
:1029D0000994FFF777FB08900B200B94FFF772FB2D
:1029E00006210A906846FFF7DBFA1CB010BD00BF55
:1029F00000DA078080FFFFC010B5094C23880BB9AF
:102A0000002010BD201DFDF727FF0028F8D0FFF79C
:102A10009BF80028F4D0201DFDF722FF012010BDF7
:102A2000800B002010B50B4C86B0208880B1684622
:102A3000FFF7B6F900280BD009DDFEF7F5FE0246D8
:102A40000B46201D6946FEF7C9F8012000E0012071
:102A500006B010BD800B00202DE9F7431E4C2388E3
:102A6000002B36D0FEF7E0FE0F46064604F5C561A2
:102A7000D1E900894F4508BF464512D3174A0023C4
:102A800012EB080243EB0903C1E90023FEF7CCFE79
:102A900002460B46201DFDF7EDFE211D6846FEF7A0
:102AA00075FAD4F83046A4B10D49D1E900239F420C
:102AB00008BF96420DD3002512196B419F4208BFF3
:102AC0009642F9D2C1E9002303B0BDE8F043FFF715
:102AD00057BB03B0BDE8F083800B002040420F00DD
:102AE000B811002010B5134C4FF4C86200212046E5
:102AF00001F008FB201D0021FDF70BFE40F6B83069
:102B000040F2DC52002104F5C563C3E900010A4B21
:102B100004F5C76444F8083C0023C4E90023FFF728
:102B200053FBFFF78FFCFFF7EDFDBDE81040FFF70B
:102B300031BF00BF800B002040420F007FB5FFF780
:102B4000D1FF0020FFF772FA092324215A1CB1FBA0
:102B5000F2F56A43242ADEB204D0013B012BF5D101
:102B600000204EE0C3EBC303DA1CD210D0B24FF406
:102B70007A7401325443311AC9B20A4494FBF2F216
:102B8000B2F5617FC2BF03F1FF33C3F3C700311A4F
:102B900000F1FF33C8BFC9B20F2B05D84B1E072B5E
:102BA0008CBF0023012300E00023421802FB0554E0
:102BB000154AB2FBF4F2154CA242D1D1002BCFD072
:102BC000ADF80A00ADF80C100124022102A8ADF8FE
:102BD0000850ADF80E40FFF72FF90028C0DB0023A6
:102BE0000B4D01930B4BA5F1240000934FF4806231
:102BF000094B2946FDF765FDFFF700F9204625F84A
:102C0000284C04B070BD00BF0051250240420F00A7
:102C1000A80B0020C9110008A536000810B504460D
:102C2000FFF78CFF48B1054804F07F01FDF771FD07
:102C3000FFF7B8FEFEF732FB012010BD840B002029
:102C4000194B10B519889A8889B2880692B20DD5A9
:102C5000164C1748238800880133C3F3090380B258
:102C600083421FBF1348D2B2C25423800B061AD529
:102C7000114B124A1988138889B29BB299420BD022
:102C800013880133C3F30903138013880C4A9BB2E2
:102C9000D35C054A938010BD034A938923F08003D7
:102CA0001B041B0C938110BD00440040C61D002076
:102CB00062000020C61100208C0400204C2000205F
:102CC000700000200B490C4A0B8812880133C3F3B3
:102CD000090392B293420AD0084AD054084A0B80A2
:102CE000938901209BB243F08003938170470020B9
:102CF000704700BF8C0400204C2000207000002092
:102D000000440040013938B5451E4418A54204D09E
:102D100015F8010FFFF7D6FFF8E738BD024A002388
:102D20001380024A138070474C2000208C0400203E
:102D3000054A064B1B881088181A80B2030444BF4A
:102D400000F5806080B2704762000020C61D002040
:102D500010B50948094C2188038889B29BB2994271
:102D6000054AF8D013880133C3F30903138013888D
:102D7000034A9BB2D05C10BD62000020C61D00203B
:102D8000C6110020024A00231380024A13807047B4
:102D900062000020C61D00201FB5002300900C22F9
:102DA00069460848ADF80430ADF80630ADF8083093
:102DB000ADF80A20ADF80C3000F018FE05B05DF853
:102DC00004FB00BF004400407FB501214FF40030F8
:102DD00000F000FE314C0121052000F0EFFD04233E
:102DE000ADF8003003251823694620468DF80330DE
:102DF0008DF80250FEF73EF908236946ADF8003021
:102E000020464823A4F544448DF803308DF8025041
:102E1000FEF730F902A800F04DFE02A9204600F0AE
:102E200039FE4FF4E130FFF7B7FF26238DF8043069
:102E300001260F2301A88DF805308DF806308DF896
:102E4000076000F00BFF0022204640F2277100F0DF
:102E500043FE204640F2277100F056FE204640F225
:102E6000266100F051FE0E4B00251D800D4B2A46B9
:102E7000204640F225511D8000F02EFE204640F2F3
:102E8000255100F041FE084B31461D80074B20467E
:102E90001D8000F015FE04B070BD00BF00080140A9
:102EA0004C2000208C04002062000020C61D002061
:102EB00008B5FFF789FFBDE80840FEF713BA000028
:102EC00024210148FEF72ABCA804002008B541F2DD
:102ED0008830FEF719FA0549054BCA6802F4E0622A
:102EE0001343CB60BFF34F8FFEE700BF00ED00E060
:102EF0000400FA0507B50121042000F05FFD10234E
:102F0000ADF804308DF8073001A9032303488DF88C
:102F10000630FEF7AFF803B05DF804FB000801408F
:102F200008B5FEF727FDBDE80840FEF757BD08B518
:102F3000FFF7F4FEBDE80840FFF724BF034B4FF452
:102F4000E1325A6001221A80704700BFCC04002091
:102F5000034B4FF4E1325A6001221A80704700BFE0
:102F60006800002008B5084B198859B1596881429A
:102F700008D05860FEF73CFDFEF7FCFCBDE80840B9
:102F8000FEF72CBD08BD00BFCC04002008B5084BDF
:102F9000198859B15968814208D05860FFF7FCFE82
:102FA000FFF7BCFEBDE80840FFF7ECBE08BD00BF60
:102FB0006800002010B5084C4FF47A73E288E0688E
:102FC0005343064AC2F83036FFF7CCFF6069BDE8CC
:102FD0001040FFF7DBBF00BFA8040020800B0020DB
:102FE000094B4FF47A71D9804FF6FF7132225A8023
:102FF0009A801A814FF4E132DA605A610022198214
:103000001A83FFF7D7BF00BFA804002038B5058892
:10301000084C25B9FFF754FF0123238038BD012D4B
:1030200005D1FFF7DDFFFFF74BFF258038BD0023FB
:10303000238038BDC21100202B4B5A885AB1132A65
:103040009CBF14225A805A88642A82BF264A64216F
:1030500051805A880AB932225A80DA88312A9EBFB2
:10306000214A4FF47A71D18041F28832D988914255
:1030700082BF1D4A4FF47A71D180B3F90820013222
:10308000BEBF4FF6FF71184A1181B3F90820FF2A1D
:10309000C2BF154A32211181B3F910200132BEBFDF
:1030A0004FF6FF71104A1182B3F91020FF2AC2BFF8
:1030B0004FF6FF710C4A1182DA68B2F5E12F82BF38
:1030C000094A4FF4E131D1605A691B8BB2F5E12F07
:1030D00082BF054A4FF4E1315161022B82BF024B9E
:1030E00000221A83FFF766BFA804002038B5242207
:1030F000FF21214801F006F8FFF75CFFFEF722FBF5
:10310000C0B204281C4D0CD02422FF211A4800F024
:10311000F9FFFFF74FFFFEF715FBC0B204280FD1F0
:1031200007E024212846FEF7E1FAC0B204280ED0B9
:10313000EAE724211048FEF7D9FAC0B2042806D0E5
:103140002422FF210C4800F0DDFFFFF733FF2B881E
:10315000094C012B0CD0FFF743FF20460123074900
:1031600020F81A3B01F0A4F824212046FEF7D6FAF5
:10317000BDE83840FFF760BFA8040020774500088D
:1031800038B51446002302F00802134301D0FFF7BC
:10319000C7FE04F010020023134303D00B4BD86882
:1031A000FFF7E0FE04F020020023134301D0FFF7F5
:1031B000BEFE04F04004002554EA050305D0034B8D
:1031C0005869BDE83840FFF7E1BE38BDA8040020CB
:1031D0002DE9F0470B7E06460C4623B90F88072FD2
:1031E00000F2F88013E04FF01809DFF8F8810025AD
:1031F00001EB090A09FB0583102299685046AFB21A
:1032000001F0E2F818B10135082DF3D1E2E0B4F88D
:103210000880744BB8F1000F42D018227A439818F6
:103220000079013805283BD8DFE800F00309181EB3
:103230002D2D9A58217C1078884207D10AE09A589F
:1032400094F9101092F90000884203D00124BC4088
:10325000E51701E000240025117023E09A58218A27
:103260001088884207D10AE09A58B4F91010B2F9D0
:103270000000884203D00124BC40E51701E000248F
:10328000002511800EE09A5821691068116088426B
:103290001DBF0124BC40E517002408BF002501E044
:1032A000002400250122002000213286328432824F
:1032B00032801822C6E90601C6E90E0157434A4882
:1032C0000021C6E90A013B441A794649013A052A18
:1032D00074D8DFE802F003152B3D5362CA59002170
:1032E0001078C6E90201187B0021C6E90601187CA6
:1032F0000021C6E90E01187D0021C6E90A015DE042
:10330000CA5992F90000C117C6E9020193F90C00ED
:10331000C117C6E9060193F91000C117C6E90E01ED
:1033200093F91400C117C6E90A0147E0CA59002100
:103330001088C6E9020198890021C6E90601188AA9
:103340000021C6E90E01988A0021C6E90A0135E08C
:10335000CA59B2F90000C117C6E90201B3F90C005D
:10336000C117C6E90601B3F91000C117C6E90E017D
:10337000B3F91400C117C6E90A011FE0CA59116860
:103380000022B160F260D968F261B1611969F2633B
:10339000B1635969F262B16210E0CA591068C1178D
:1033A000C6E90201D868C117C6E906011869C11744
:1033B000C6E90E015869C117C6E90A01996806F104
:1033C000400000F075FF22462B464046BDE8F0471E
:1033D000FFF7D6BE3046BDE8F0476022002100F07E
:1033E00091BE00BF7044000880841E00F8B50C4BED
:1033F00007461D461C46FE221A700A4A461C1289C0
:103400001E4405F8012FB54204D0FEF7CDFA05F8A9
:10341000010FF8E7E787BDE8F840FFF785BA00BF7E
:10342000380B0020A8040020F8B50C4B07461D46B9
:103430001C46FE221A700A4A461C128A1E4405F8CF
:10344000012FB54204D0FFF783FC05F8010FF8E720
:10345000E787BDE8F840FFF767BA00BF380B0020E8
:10346000A80400201A4B70B51B8883B3FEF7C2F97D
:10347000184B0446B3F908201D46002A11DB164BF1
:103480001B8873B1FEF780FA144E48B13B2804D86C
:10349000736AE31A092B04D900E03C20FFF7A6FF6A
:1034A0007462B5F91030002B11DB0D4B1B8873B122
:1034B000FFF73EFC094D48B13B2804D8AB6AE31A3C
:1034C000092B01D870BD3C20FFF7AEFFAC6270BD88
:1034D000800B0020A8040020CC0400203000002035
:1034E00068000020114B10B5B3F908201C46002AD3
:1034F0000ADB0F4B1B883BB10E4BFE215A7000229A
:103500001970DA87FFF710FAB4F91020002A0CDBE3
:10351000094B1B884BB1074BFE215A7019700022D2
:10352000BDE81040DA87FFF7FFB910BDA8040020FE
:10353000CC040020380B00206800002030B51F4B61
:10354000ABB01B880546002B35D01D4B1B8B002BC9
:1035500031D01C48002420F8024B1B4900F0A8FE83
:10356000012D10D102AD19490AA800F0A1FE009565
:103570002346092216491748FDF763FF29460AA882
:1035800000F00EFE11E0022D0FD1134902AD0AA882
:1035900000F08EFE0E491148009523460922FDF7E2
:1035A00050FF29460AA800F0FBFD0AA90C4800F0CC
:1035B0007FFEFFF711F92BB030BD00BF800B00205C
:1035C000A8040020C81D0020674500087C450008AD
:1035D00093450008D0040020974500086C000020A7
:1035E000EB1D00200F4B07B51B88BBB10378C18FC3
:1035F000FF2B0DD1042911D1D0F8020001900198C0
:10360000FFF7B0FC012003B05DF804EBFFF796BFB5
:10361000023003B05DF804EBFEF7A0B903B05DF82B
:1036200004FB00BFCC0400200F4B07B51B88BBB1C7
:103630000378C18FFF2B0DD1042911D1D0F80200DE
:1036400001900198FFF7A2FC022003B05DF804EBA3
:10365000FFF774BF023003B05DF804EBFFF752BB15
:1036600003B05DF804FB00BF6800002038B50C4BC8
:103670000546B3F908201C46002A04DB4378934230
:1036800001D1FFF7AFFFB4F91030002B07DB6A78E8
:103690009A4204D12846BDE83840FFF7C5BF38BD7F
:1036A000A804002030B50B7E91B0022B0C460FD140
:1036B00040F2DA73CA8A9A426AD13648FFF7C2F8F2
:1036C0003448FFF7D3FF21463348FDF777FA5FE030
:1036D000012B5DD1CB8A013B0A2B59D8DFE803F0DF
:1036E0000658580A0E585858583C4A000846FEF7E3
:1036F000BFFD4DE00846FEF717FE49E00846FEF71D
:103700005BFE0546254B214618802348FDF756FAF7
:103710002046FEF771FE002D3AD0FEF785F8204CCA
:10372000002524184D411C48FDF796F870B1FFF7AD
:1037300063F9FEF779F88D4208BF8442F3D205E0C1
:10374000FEF772F88D4208BF844203D3FEF7F0F90A
:103750000028F5D0FFF7BAFB6846FEF779FE684609
:10376000FFF754FC21460C48FDF728FA2046FEF7E7
:1037700093FE0DE06846FEF7D2FE69460948FFF762
:1037800027FD05482146FDF719FA2046FEF790FF70
:1037900011B030BDA80F0020840B00206400002071
:1037A00020A10700D804002070B5284BAAB01B88C0
:1037B000002B48D0264B1B8B002B44D0254B1A885E
:1037C0001AB941F287321A8001E0013A1A801D8845
:1037D000002D38D1204E2149304620F8025B00F000
:1037E00067FD1F490AA800F063FD02AC1D490AA845
:1037F00000F0D6FC2B4609221B491C480094FDF71B
:1038000020FE21460AA800F0CBFC19490AA800F0C6
:10381000C7FC18490AA800F0C3FC2B46092212492C
:1038200015480094FDF70DFE21460AA800F0B8FCEB
:103830000F490AA800F0B4FC0AA906F1230000F021
:1038400037FDFEF7C9FF2AB070BD00BF800B002016
:10385000A804002014000020C81D002067450008AF
:10386000C2450008AE45000893450008D00400207A
:10387000C1450008C34500086C0000202DE9F8434D
:10388000FEF740F9FFF714FBFDF7A2FEFFF732FB4E
:10389000FDF7ECFFFFF72AFC234B9878FFF7BEF902
:1038A00058B92249CB686420DB4303F0100343F48A
:1038B00080130B61FDF72FFDF4E71D4D1D4E002415
:1038C000FFF778FBB046FFF739FBFFF741FBEC80D1
:1038D000FFF708FE154FFFF7A5F80028FBD1FFF70B
:1038E0008BF881460028FAD1FFF7B6F8F38B9BB22C
:1038F000002BF0D0A8F81E9034B9AB8840F2F31436
:10390000002B18BF312409E0013CA4B234B9FB6894
:10391000DB4303F0100343F480133B61FFF7A2FD88
:10392000FFF742FFD7E700BFA804002000080140CE
:1039300070040020300000201C4A10B5536803F0CA
:103940000C03042B01D0082B01D0194B0EE0536857
:103950005168C3F38343CC0303F1020302D55168DA
:10396000890301D5134900E011494B4303605368B3
:103970001149C3F30313CC5C0368E340436054680C
:10398000C4F302240C5D23FA04F484605468C4F385
:10399000C2240C5DE340C3605268C2F381320A4422
:1039A000127CB3FBF2F3036110BD00BF00100240B4
:1039B00000127A0000093D0016000020044B9A69AD
:1039C00009B1104301E022EA00009861704700BF8E
:1039D00000100240044BDA6909B1104301E022EA09
:1039E0000000D861704700BF0010024070B50E465D
:1039F0000446038ACA889BB223F4405313430382CC
:103A000082898988338992B20B43718922F4B0523A
:103A10000B4322F00C0213439BB28381838AB28949
:103A20009BB223F4407386B01343838201A8FFF74F
:103A300083FF174A039B049D3168944218BF1D46BB
:103A400019226A43A389642613F4004F14BF4D0062
:103A50008D00B2FBF5F5B5FBF6F0A2890001010976
:103A6000120406FB115307D5D9003231B1FBF6F22F
:103A700002F00702104306E01A013232B2FBF6F3FD
:103A800003F00F03184380B2208106B070BD00BF61
:103A9000003801404B8810B50C88028A23438C887B
:103AA000C98892B223430B4322F4706213439BB242
:103AB000038210BD0023038043808380C38070474E
:103AC000838919B19BB243F4005303E023F40053FC
:103AD0001B041B0C83817047012310B5C1F34214F2
:103AE0009C4201F01F0103FA01F101D10C3003E007
:103AF000022C0CBF1030143003680AB1194301E0E6
:103B000023EA0101016010BD090A012303FA01F152
:103B1000C94389B201807047034B044A5A6002F1DD
:103B200088325A60704700BF002002402301674579
:103B3000FFF7F2BF024A136943F080031361704735
:103B400000200240FFF7F6BF084BDA68D10709D41E
:103B5000DA68520708D4DB6813F0100F14BF032093
:103B60000420704701207047022070470020024067
:103B700010B50446FFF7E8FF012806D11CB1FFF796
:103B8000E3FF013CF8E7052010BD002C08BF05202D
:103B900010BD000070B505464FF400500E46FFF70B
:103BA000E7FF04280ED1084C4FF40050236943F07E
:103BB000010323612E80FFF7DBFF41F6FE732269CC
:103BC0001340236170BD00BF0020024073B5002385
:103BD00006464FF400500D460193FFF7C9FF042835
:103BE0001AD10E4C4FF40050236943F001032361B6
:103BF000ABB23380FFF7BCFF042808D10236019630
:103C0000019B2D0C1D804FF40050FFF7B1FF41F6D2
:103C1000FE7322691340236102B070BD0020024090
:103C200038B505464FF43020FFF7A2FF042812D123
:103C3000094C4FF43020236943F00203236165618E
:103C4000236943F040032361FFF792FF41F6FD73C0
:103C500022691340236138BD00200240C27810B5AC
:103C600003780AB3164A03F16043D1684278C94326
:103C7000C1F30221C1F1040402FA04F40F22CA4084
:103C8000817803F561430A4022431201D2B283F8DE
:103C9000002303780122590903F01F0302FA03F3FA
:103CA000084A42F8213010BD5A09012103F01F03D0
:103CB00001FA03F30349203241F8223010BD00BF5E
:103CC00000ED00E000E100E0D0400B1CD1409C463C
:103CD000203AD340184352426346934018437047FA
:103CE0009140031C90409C46203A93401943524215
:103CF0006346D3401943704753B94AB9002908BFF6
:103D000000281CBF4FF0FF314FF0FF3000F082B9A8
:103D1000ADF1080C6DE904CE00F006F8DDF804E022
:103D2000DDE9022304B070472DE9F04F8C460C46C4
:103D30000546099E002B4FD18A4217466BD9B2FA2D
:103D400082FEBEF1000F0BD0CEF1200520FA05F562
:103D500001FA0EF345EA030C02FA0EF700FA0EF52B
:103D6000390CBCFBF1F0BAB201FB10C300FB02F846
:103D70004FEA154C4CEA0344A04509D9E41900F177
:103D8000FF3380F02881A04540F2258102383C4471
:103D9000C8EB0404B4FBF1F301FB134C03FB02F288
:103DA000ACB244EA0C418A4209D9C91903F1FF3483
:103DB00080F00F818A4240F20C81023B39448A1A1A
:103DC00043EA00400021002E63D022FA0EF20023C5
:103DD00086E80C00BDE8F08F8B4207D9002E56D044
:103DE000002186E811000846BDE8F08FB3FA83F1A0
:103DF000002940F09380A34202D3824200F2FE8069
:103E0000851A64EB03039C460120002E41D086E80E
:103E10002010BDE8F08F12B90127B7FBF2F7B7FA0F
:103E200087FEBEF1000F36D1E41B4FEA17481FFA98
:103E300087F90121B4FBF8F308FB134409FB03F2F3
:103E40004FEA154C4CEA0444A24207D9E41903F1A5
:103E5000FF3002D2A24200F2D3800346A41AB4FB80
:103E6000F8F008FB104809FB00F9ACB244EA08423C
:103E7000914507D9D21900F1FF3402D2914500F2E1
:103E8000BA802046C9EB020240EA03409BE7314674
:103E90003046BDE8F08F07FA0EF7CEF1200C24FA79
:103EA0000CF34FEA1748B3FBF8FA1FFA87F908FB3F
:103EB0001A3520FA0CFC04FA0EF40AFB09FB4CEA52
:103EC000040C4FEA1C4242EA05439B4500FA0EF5FA
:103ED0000AD9DB190AF1FF3280F08B809B4540F252
:103EE0008880AAF1020A3B44CBEB0303B3FBF8F052
:103EF00008FB103300FB09F41FFA8CFC4CEA034367
:103F00009C4207D9DB1900F1FF326ED29C426CD97A
:103F100002383B441C1B40EA0A418BE7C1F1200EEA
:103F20008B4022FA0EFC4CEA030C24FA0EF74FEAFF
:103F30001C49B7FBF9FA1FFA8CF309FB1A7720FA30
:103F40000EF88C400AFB03F548EA04044FEA1448D3
:103F500048EA0747BD4202FA01F200FA01FB09D91B
:103F600017EB0C070AF1FF3041D2BD423FD9AAF14D
:103F7000020A67447F1BB7FBF9F509FB157705FBC0
:103F800003F3A4B244EA0747BB4208D917EB0C0776
:103F900005F1FF3027D2BB4225D9023D674445EAEF
:103FA0000A40A0FB0289FF1A4F4545464C4614D3F0
:103FB00029D066B3BBEB050367EB040707FA0EFED7
:103FC000CB40CF404EEA030386E888000021BDE8DD
:103FD000F08F2346F3E61846DAE6B8EB020569EB04
:103FE0000C040138E5E70546D9E7104692E782461A
:103FF000C0E7924678E702383A4443E7084604E7C8
:10400000023B3C442AE7C345E7D33C46D1E731466F
:10401000BDE8F08F704700BF844641EA000313F00B
:10402000030349D1403A23D30B6803604B684360D4
:104030008B688360CB68C3600B6903614B69436124
:104040008B698361CB69C3610B6A03624B6A43620C
:104050008B6A8362CB6AC3620B6B03634B6B4363F4
:104060008B6B8363CB6BC36340304031403ADBD210
:1040700030320BD30B6803604B6843608B688360FE
:10408000CB68C36010301031103AF3D20C3205D334
:1040900051F8043B40F8043B043AF9D2043208D00A
:1040A000D2071CBF11F8013B00F8013B01D30B887C
:1040B00003806046704700BF082A13D38B07B1D036
:1040C00010F00303AED0C3F10403D21ADB071CBF08
:1040D00011F8013B00F8013BA4D331F8023B20F872
:1040E000023B9FE7043AD9D3013A11F8013B00F8AB
:1040F000013BF9D20B7803704B7843708B78837057
:104100006046704770B4840746D0541E002A41D0E0
:10411000CDB2034602E0621EE4B3144603F8015B2D
:104120009A07F8D1032C2ED9CDB245EA05250F2CDC
:1041300045EA054519D9264603F11002103E0F2E17
:1041400042F8105C42F80C5C42F8085C42F8045CEF
:1041500002F11002F2D8A4F1100222F00F0204F0D2
:104160000F041032032C13440DD91E462246043A84
:10417000032A46F8045BFAD8221F22F00302043215
:10418000134404F003042CB1C9B21C4403F8011B0E
:10419000A342FBD170BC704714460346C2E700BF80
:1041A000830710B5044610D10268A2F1013323EA57
:1041B000020313F0803F08D150F8042FA2F101331D
:1041C00023EA020313F0803FF6D003781BB110F806
:1041D000013F002BFBD100F06BF8204610BD00BF63
:1041E00070B411F0FF0434D085070FD00378002B92
:1041F0005AD09C422BD0431C05E013F8012B002A17
:104200004FD0944223D09A071846F6D10E0206F4F6
:104210007F462643036846EA064601E050F8043F1D
:1042200086EA0305A5F10132A3F1013122EA050274
:1042300021EA0303134313F0803FEFD0037823B93F
:1042400032E010F8013F002B2ED09C42F9D170BC17
:10425000704784070BD00378002BF8D0431C03E091
:1042600002780133002AF2D099071846F8D1026883
:10427000A2F1013323EA020313F0803F08D150F882
:10428000042FA2F1013323EA020313F0803FF6D09A
:104290000378002BDBD010F8013F002BFBD170BC62
:1042A0007047104670BC7047184670BC704700BF1E
:1042B00080EA0102844612F0030F4FD111F0030F80
:1042C00032D14DF8044D11F0040F51F8043B0BD0DE
:1042D000A3F101329A4312F0803F04BF4CF8043B33
:1042E00051F8043B16D100BF51F8044BA3F1013241
:1042F0009A4312F0803FA4F101320BD14CF8043BF9
:10430000A24312F0803F04BF51F8043B4CF8044B29
:10431000EAD023460CF8013B13F0FF0F4FEA33239A
:10432000F8D15DF8044B704711F0010F06D011F879
:10433000012B0CF8012B002A08BF704711F0020F67
:10434000BFD031F8022B12F0FF0F16BF2CF8022B52
:104350008CF8002012F47F4FB3D1704711F8012B75
:104360000CF8012B002AF9D1704700BF20F003019F
:1043700010F00300C0F1000051F8043B00F1040C00
:104380004FEACC0C6FF000021CBF22FA0CF2134370
:104390004FF0010C4CEA0C2C4CEA0C4CA3EB0C0239
:1043A00022EA030212EACC1204BF51F8043B0430A3
:1043B000F4D0C2F1000102EA0102B2FA82F2C2F1C3
:1043C0001F0200EBD2007047002A3FD040EA0103F1
:1043D00013F00303F0B425D1032A23D904680D6830
:1043E000AC421FD1043A33D0A4F1013525EA0404CC
:1043F00014F0803F2FD1071D0D1D0DE057F8043B31
:104400000E68A3F10134B34224EA03040AD1043A4A
:104410001ED014F0803F21D1032A2946384605F1E9
:104420000405EBD803780C78013A9C420BD17AB1A1
:1044300014B915E062B173B110F8013F11F8014FE2
:10444000013AA342F6D0181BF0BC704710467047E3
:104450001046F0BC70471846F0BC70470020F3E7E8
:104460002046F1E72D00002000002E000030000063
:10447000AA04002003000000E0450008320000000C
:104480000000000064000000AC04002003000000F5
:10449000D645000832000000000000006400000063
:1044A000AE04002003000000E7450008E803000018
:1044B0003200000088130000B00400200400000057
:1044C000F745000832000000FFFFFFFFFF0000007B
:1044D000B4040020050000000746000800C20100E7
:1044E0000000000000080700B804002004000000DD
:1044F00016460008FFFFFFFFFFFFFFFFFF00000061
:10450000BC040020050000002646000800C201008F
:104510000000000000080700C004002003000000A5
:104520003546000800000000000000000200000006
:10453000746F6F206C6172676520776964746800BE
:10454000746F6F206C617267652070726563697348
:10455000696F6E00302E30002D00200045006F6C1A
:104560006C69772E65752E756334682D756172746C
:1045700062726964676500656E64580055617274A3
:1045800031204261756472617465206368616E6791
:10459000656400756C7A00556172743220426175F1
:1045A0006472617465206368616E6765640055615B
:1045B0007274312063757220426175647261746532
:1045C000000A005561727432206375722042617571
:1045D000647261746500507265666572726564200C
:1045E0004E6F64654964004E6F6465537461747501
:1045F00073205261746500556172743120436861A3
:104600006E6E656C4964005561727431204261754B
:104610006472617465005561727432204368616E22
:104620006E656C4964005561727432204261756434
:0B4630007261746500446562756700EC
:08463C00ECF6FF7F0100000015
:1046440000A24A040000000000000000010203046C
:10465400060708090100000000000102030401022A
:0C46640003040607080902040608000011
:0400000508000000EF
:00000001FF
