:020000040800F2
:10000000281D0020E50F0008E10F0008E10F00089F
:10001000E10F0008E10F0008E10F000800000000F8
:10002000000000000000000000000000E10F0008D8
:10003000E10F000800000000E10F00086D16000845
:10004000E10F0008E10F0008E10F0008E10F0008D0
:10005000E10F0008E10F0008E10F0008E10F0008C0
:10006000E10F0008E10F0008E10F0008E10F0008B0
:10007000E10F0008E10F0008E10F0008E10F0008A0
:10008000E10F0008E10F0008E10F0008E10F000890
:10009000E91A0008851B0008E10F0008E10F0008BD
:1000A000E10F0008E10F0008E10F0008E10F000870
:1000B000E10F0008E10F0008E10F0008E10F000860
:1000C000E10F0008E10F0008E10F0008E10F000850
:1000D000E10F000815190008E10F0008E10F000802
:1000E000E10F0008E10F0008E10F00080000000028
:1000F0000000000000000000000000000000000000
:1001000000000000000000005FF808F1224A0388A8
:1001100090429BB212D002F5006290420ED0B0F134
:10012000804F0BD0A2F59832904207D002F5806242
:10013000904203D002F58062904203D14A8823F0B6
:1001400070031343154A904208D002F58062904232
:100150001FBF23F44073CA889BB2134303808B886C
:1001600083850B8803850C4B98420FD003F5006301
:1001700098420BD003F54063984207D003F58063A3
:10018000984203D003F58063984201D10B7A03862D
:1001900001238382704700BF002C01400010004003
:1001A000038819B19BB243F0010303E023F001037C
:1001B0001B041B0C03807047384B82B01A6842F056
:1001C00001021A605968364A0A405A601A6822F0D9
:1001D000847222F480321A601A6822F480221A6033
:1001E0005A6822F4FE025A604FF41F029A600022FD
:1001F000009201921A6842F480321A601A6802F47E
:1002000000320192009A01320092019A1AB9009AC2
:10021000B2F5A06FF2D11A6812F4003218BF0122B1
:100220000192019A012A05D01E4B4FF000629A609C
:1002300002B070471C4A116841F01001116011684A
:1002400021F003011160116841F0020111605A6848
:100250005A605A685A605A6842F480625A605A6812
:1002600022F47C125A605A6842F4E8125A601A6802
:1002700042F080721A601968084A8901FBD55168FA
:1002800021F003015160516841F0020151605A6848
:1002900002F00C02082AFAD1C6E700BF00100240A3
:1002A0000000FFF800ED00E0002002402DE9F047DB
:1002B000089D01F007044FEAD508224405F0070520
:1002C0004FF47F4900EBD100944227D005F0070698
:1002D00004F0070AB245D44638BFB446CCF1080151
:1002E000C4EB020C8C4528BF8C46E708C75D29FA91
:1002F0000CFE08EBD50107FA0AF75FFA8EFE4EFAFC
:1003000006FE47FA06F65F5C06EA0E0627EA0E0EC0
:1003100046EA0E065E5464446544D5E7BDE8F087BE
:100320000246006848B1036811891360D38801331D
:100330009BB29942D38038BF1381704770B5044691
:100340000D4688B020220021684606F063F9204659
:100350000495FFF7E5FF054658B16B46044608AE25
:100360001A4603CAB24220606160134604F10804D1
:10037000F6D1284608B070BD2DE9F0410568DDB121
:100380008E68A84626F06047BB0C4FEAD67EC6F3BF
:10039000807C2A4637EA260628BF1E469368BEEBB5
:1003A000D37F23F060440ED0002B08DAA40CB442B3
:1003B00007D1954213D10D600160BDE8F081B442D0
:1003C00012D0A64206E0A74203D1C3F380739C4536
:1003D00003D1A7422CBF002301232BB1E9E7C8F8C2
:1003E00000100A60BDE8F0811368904613B91160EF
:1003F000BDE8F0811A46D1E7F8B506460F464FF63C
:10040000FF7400252A463046394604F053FFC0B237
:1004100084EA0024082314F4004F4FEA4404A4B2F1
:100420001CBF84F4815484F00104013BF3D10835EE
:10043000402DE7D12046F8BD10B54B6843B1C468E4
:100440001A681C60C360438A013B43824A60F4E738
:100450000A8B002063F309020A83002110BD0A44BD
:10046000914211D011F8013B80EA0320082310F4D7
:10047000004F4FEA400080B21CBF80F4815080F0F2
:100480000100013BF3D1EBE770472DE9F04F85B058
:1004900081468DE80A00BDF83C409346002A7DD095
:1004A00024B10E9B002B79D0072C27D809F10C0022
:1004B000FFF736FF054610B96FF0020070E020220A
:1004C000002106F0A7F822460E9905F1100006F06B
:1004D0002BF8631C2B769BF800302C4403F01F0391
:1004E00063F03F032374009B09F11C0043F00043B9
:1004F000AB602946FFF740FF012051E04FF00008B4
:1005000046464546019B4FF0800A1B0A029300F1C4
:100510000C0303930398FFF703FF07460028CBD093
:100520002022002106F076F83EB99DF80430022220
:100530003B749DF808307B740BE0002209E00E9BB1
:10054000B9180132985DD2B20136072A0874B6B2E2
:1005500001D0B442F3D8A64208BF4FF0400A9BF83E
:100560000010B81801F01F0141EA481141EA0A03DE
:100570000374009B013243F00043BB603A76394676
:1005800009F11C00FFF7F8FEA64205F1010588F00D
:1005900001084FF0000ABDD1284601E06FF00100CC
:1005A00005B0BDE8F08F2DE9F04717460A8B994654
:1005B000C2F30902C2F10603002B0646884618DD85
:1005C00000201FFA89F185B253199BB2052B09D976
:1005D000A9420FD8B8F818300A4462F30903A8F802
:1005E00018306BE0A942F3D93C5C43449C7601305F
:1005F000E9E70025911F1C23B1FBF3FA03FB1A1A4C
:10060000D8F804405FFA8AF10CB1012329E03046A2
:10061000FFF786FE044608B100230360C8F80440D3
:10062000CCB96FF00200BDE8F0874A44063A1C20BE
:10063000B2FBF0F20132D2B293420DD2BAF1000F06
:100640000AD13046FFF76CFE08B1C0F800A0206068
:100650000028E6D0044600211FFA89F94FF0000A6D
:1006600011E020680028E0D00133DBB20446F8E74F
:10067000A3180132785D92B201351C2A1871ADB20F
:1006800005D0A945F4D84D450FD28AB2F0E7A94567
:10069000F9D93046FFF744FE08B1C0F800A0206049
:1006A0000028BED004460021EDE7B8F81820C2F3B8
:1006B0000903994469F30902A8F818200120BDE84C
:1006C000F087F8B5044616460D46242200211F4641
:1006D00005F0A0FF069B72096360079B0020236260
:1006E0004FF6FF739A4228BF1A4629460346A76071
:1006F000207097B204F10C06934204D031600133AC
:100700000E462031F8E70023336027826382A382FC
:10071000F8BD03781BB94BB2002BC8BF01707047FE
:10072000007870472DE9F7430D9F8046BDF82840BB
:100730000B9E9DF83090BDF838500FB9002D3FD179
:10074000B9F11F0F3CD898F80010A9B9072D34D87B
:1007500034F0030334D12A4639464FF6FF70FFF7D1
:100760007EFE47F6FE73240204F4407444EA0964F2
:10077000034044EA43240FE041EA0421072D41EA03
:10078000096409D919461046FFF736FE2A4639464C
:10079000FFF765FE034601E04FF6FF7301950097F2
:1007A000324621464046FFF770FE33780133DBB214
:1007B0001F2B88BF0023337004E06FF0030001E0BB
:1007C0006FF0010003B0BDE8F0832DE9F7430E9F01
:1007D00081460C46104619460B9D9DF830209DF829
:1007E0003480BDF83C6007B976BB1F2A2CD899F835
:1007F000003063B343F0800343EA04239DF82840AC
:1008000043EAC83343EA0443072E43EA026407D9A4
:10081000FFF7F2FD32463946FFF721FE034601E0BD
:100820004FF6FF73019600972A4621464846FFF788
:100830002CFEB8F1010F0CD12B780133DBB21F2B4A
:1008400088BF00232B7004E06FF0010001E06FF01F
:10085000030003B0BDE8F083C06900B10830704701
:10086000C3691A68C261C2681A60C360438A013BE7
:10087000438270472DE9F047D0F818A00546164688
:100880001F465446DFF868804FF00009002C2CD03A
:10089000D4E90223B21A67EB0303994508BF9045D8
:1008A00020D2AB6921469C4228460DD1FFF7C4FDFA
:1008B000AB691B68AB61EB6823606B8AEC60AC6969
:1008C000013B6B82A246E1E7FFF7B6FD2368CAF859
:1008D0000030EB6823606B8AEC60013B6B82DAF8D6
:1008E0000040D3E7A2462468D0E7BDE8F08700BF08
:1008F00080841E002DE9F04F8BB00E4614460793FE
:10090000149F8246002800F0FF80002F00F0FC803A
:10091000531E3F2B00F2F880012A03D1079B002BC6
:1009200040F0F280BAF814500023ED00AE42089374
:10093000099301D3002505E133199D42DAF80C3003
:100940003ABFAD1BEDB225461BB9DAF81030002BCB
:1009500061D02F2E15D8C6F13008A84528BFA8466B
:10096000002300935FFA88FB4246314608ABDAF871
:1009700008004644CBEB0508FFF798FC5FFA88F8BF
:1009800002E0A8464FF0000BBAF81430302103F112
:100990000053063BDB000493DAF80C300393039B0F
:1009A0006BB3B8F1000F2AD0049BE02B28BFE023E3
:1009B00006930B44B342059318D9C6EB0309C84507
:1009C00038BFC146039828BF5FFA89F9CDF800B057
:1009D000711A08AB4A460430FFF768FCCB44C9EBF8
:1009E00008084E445FFA8BFB5FFA88F8049B069A6E
:1009F00005999B1A0493039B1B680393CFE7DAF8CE
:100A0000100080B1B8F1000F0DD0CDF800B008ABE8
:100A10004246711A05E02A4631460093DAF808008A
:100A200008ABFFF743FC002D84D066070BD00AAB60
:100A300003EBD40111F8082C634203F0070342FAD8
:100A400003F301F8083C082C06D9102C06D9202CF9
:100A50008CBF0823042302E0012300E00223079A4D
:100A6000002A57D0B4EBC30F56D0082C0ED89DF9EE
:100A70002020631E22FA03F3D80760D54FF0FF331E
:100A800003FA04F414438DF8204058E0102C0ED8DB
:100A9000BDF92020631E22FA03F3D90743D54FF096
:100AA000FF3303FA04F41443ADF820403BE0202C5C
:100AB0000CD8089B621E23FA02F2D20737D54FF0FA
:100AC000FF3202FA04F42343089330E0402C1ED096
:100AD000DDE90889621E4046494604F0EBFB00212F
:100AE00000F0010050EA010324D022460120002139
:100AF00004F0ECFB404261EB410140EA080041EAAE
:100B00000901CDE9080115E06FF001051AE06FF069
:100B1000080517E0012C12D0082C10D9102C02D98E
:100B2000202C07D803E0BDF820303B800AE0089B6A
:100B30003B6007E0DDE90823C7E9002302E09DF8F8
:100B400020303B7028460BB0BDE8F08F30B5402A0E
:100B500085B018D8002A08BF01220024012A029477
:100B6000039401D0082A03D81B788DF808300FE0D1
:100B7000102A03D81B88ADF8083009E0202A03D8D2
:100B80001B68029304E04022D3E90045CDE9024509
:100B900053070BD004AB03EBD20515F8084C5342B6
:100BA00003F0070304FA03F305F8083C0091034639
:100BB000002102A8FFF77AFB05B030BD10B5CB6865
:100BC00043B1C4681A681C60C360438A013B438216
:100BD000CA60F4E78B600B618B8210BD2DE9F04F8A
:100BE000D1F800A08FB0CDE90223CAF3C0120446A9
:100BF0000D4622B1CAF3C03BCAF3062802E0904674
:100C00004FF0020BBAF1000F80F2BB812B6813F09A
:100C1000C04F40F0B6812B7C002B00F0B281BBF1BD
:100C2000020F03D02178414540F0AB810AF07F01EB
:100C3000C8B2059012B1CAF3074904E0CAF30F29FC
:100C400009B909F003092B444FEA4868059ADE798F
:100C500048EA0B4848EA8248F30948EA090804933D
:100C60002BD0002200230EA961E90823059B6768A9
:100C700000934A465B462046B847002800F0818131
:100C8000A7694FB9414604F10C00FFF757FB07462F
:100C900088B976E13F681FB13B699845FAD115E004
:100CA000414604F10C00FFF749FB0746002800F01D
:100CB0006881A3693B60A76108E0A769002F00F085
:100CC00060813B69984506D03F68F7E7DDE906019A
:100CD000FFF792FBF88297F819E006F01F08CEF3B1
:100CE000840EB8EB0E0ED7E9022348BF0EF1200E9A
:100CF00052EA0301CAF3046A00F02E81DDE9020121
:100D0000801A61EB03010B46024600219E4899427E
:100D100008BF9042C0F02081049B5BB3BEF1010F7D
:100D200000F31A81730625D5DDE902230021C7E906
:100D3000022306A8202205F06DFCDDE90223CDE99F
:100D4000062305F1080308932B7CADF82E90013B98
:100D5000DBB2ADF82C309DF814308DF830B08DF842
:100D600033308DF831808DF832A0A36806A9204673
:100D70009847DEE07B7EC6F34012B2EBD31F40F013
:100D80000081C3F38403434540F0FB80049A2B7C2D
:100D9000B609002A33D016F001065ED1032B40F2CB
:100DA000F080DDE90223C7E902232B7C05F10A0864
:100DB000033BDBB24246394604F10C00FFF7F3FB7C
:100DC000002812DA39462046FFF736FB7B7EC3F354
:100DD0008402013262F386037B763B8B66F3090360
:100DE0003B831B0A66F3C713B4E06A7A2B7A414649
:100DF00043EA0223BB822A7C033AD2B223E066BBD9
:100E000005F10806013BDBB23246394604F10C001D
:100E1000FFF7C9FB002812DA39462046FFF70CFB22
:100E20007B7EC3F38402013262F386037B76049AED
:100E30003B8B62F309033B83049A1B0A88E031462B
:100E40002A7C013AD2B2F88AFFF709FB7B7EF8824E
:100E5000C3F3C01282F001027AE0388B013BC0F389
:100E600009000528DBB212D8EE1D0021CAB2934258
:100E700028D9013100EB010E16F801CF07EB0E0265
:100E8000BEF1060F82F819C0CAB2EFD11AE07E682F
:100E9000BEB10622316811B11C320E46FAE7801A43
:100EA00005F1070C00EB010EBEF11B0FCAB209D809
:100EB0009A4207D21CF8012FB6448EF80420013163
:100EC000F0E73246DDE902019A42CDE9060107F179
:100ED0001A01089138BF0832796834BF52190022CC
:100EE00009910A923A8BADF82E90C2F3090213448D
:100EF000ADF82C309DF814308DF830B08DF83330CB
:100F000000238DF831808DF832A07B602A7CF88A2E
:100F1000013A05F10801FFF7A2FABB8AF882834281
:100F200003D1A36806A92046984706A92046FFF7E3
:100F300045FE7B7EC3F38402013262F386037B7637
:100F40003B8B6FF309033B831B0A6FF3C71301E06D
:100F500062F3C7137B7614E07B7E394666F3860323
:100F60006FF3C7137B762046FFF766FA049B002BCE
:100F70007FF4D8AE7B7EC3F38402013262F3860332
:100F8000E8E70FB0BDE8F08F80841E00034651F8FB
:100F9000100F8A8818609A801846704720F0004326
:100FA000B3F1FF4F10B500F0004405D347F6FF70D2
:100FB00008BF4FF4F8400EE008484FF0F0611840C9
:100FC00004F040FF00F58050B0F1786F88BF4FF01B
:100FD0007860C0F34F3040EA144010BD00F0FF7F4E
:100FE000FEE7000008B50C4A0C4B0D498B4204D2B9
:100FF00052F8040F43F8040BF8E70A480A494FF087
:1010000000028842B8BF40F8042BFADBFFF7D4F89F
:10101000BDE8084003F086BA906B0008000000208D
:1010200044040020480400202819002043690AB124
:10103000194301E023EA010141617047B1F5807F66
:1010400035D00CD8082924D004D801291CD0042973
:101050001DD0704720291FD040291FD07047B1F5FF
:10106000006F22D006D8B1F5007F20D0B1F5806F97
:101070001DD07047B1F5803F13D0B1F5003F12D0BD
:10108000B1F5004F15D110E00A4B8360704708237B
:1010900000E01023C3607047082300E010230361C1
:1010A0007047082304E0102302E000238361042337
:1010B0004360704701010100CA782DE9F041D40670
:1010C00048BF8C780E8802F00F0348BF234316F008
:1010D000FF0F1ED0016800244FF0010E4FF00F0CDF
:1010E0000EFA04F737EA06050FD1A5000CFA05F849
:1010F00021EA080103FA05F5282A41EA050101D190
:10110000476102E0482A08BF07610134082CE7D193
:101110000160FF2E20D9416800244FF0010E4FF0EE
:101120000F0C04F108050EFA05F535EA06070FD194
:10113000A7000CFA07F821EA080103FA07F7282AA2
:1011400041EA070101D1456102E0482A08BF056173
:101150000134082CE5D14160BDE8F081806880B29F
:10116000704700000028164A30B500F44015B4BF9F
:10117000D3695368B5F5401F84B206D1556823F092
:10118000706325F0706555600EE0C20255BF420DD8
:1011900003221201C0F303454CBFAA4004FA02F235
:1011A00023EA020343F0706319B1420D1201944027
:1011B0002343034A0028B4BFD361536030BD00BF4E
:1011C00000000140034A536823F440431843506031
:1011D000704700BF00100240044B9A6909B11043E8
:1011E00001E022EA00009861704700BF0010024051
:1011F000044BDA6909B1104301E022EA0000D8612A
:10120000704700BF00100240436810B523F47022FD
:101210000B6822F4807213430A7943EA0223436085
:10122000CA688B6884681A43084B234013434A7981
:1012300043EA42038360C36A23F470020B7C013BE0
:10124000DBB242EA0353C36210BD00BFFDF7F1FFFA
:10125000836811B143F0010301E023F001038360CF
:101260007047836843F00803836070478068C0F369
:10127000C0007047836843F0040383607047806850
:10128000C0F380007047836811B143F4A00301E00C
:1012900023F4A00383607047092970B50DD9A1F12B
:1012A0000A04C66804EB44040725A54026EA0505A0
:1012B00003FA04F42C43C4600AE0066901EB41041C
:1012C0000725A54026EA050503FA04F42C4304612A
:1012D000062A0CD8013A446B02EB82021F2393408A
:1012E00024EA030301FA02F21A43426370BD0C2A96
:1012F0000CD8073A046B02EB82021F23934024EAC6
:10130000030301FA02F21A43026370BD0D3AC46A84
:1013100002EB82021F23934024EA030301FA02F244
:101320001A43C26270BDC06C80B27047034B044A5E
:101330005A6002F188325A60704700BF00200240B4
:1013400023016745FFF7F2BF024A136943F08003A8
:101350001361704700200240FFF7F6BF084BDA68C0
:10136000D10709D4DA68520708D4DB6813F0100FEC
:1013700014BF0320042070470120704702207047EB
:101380000020024010B50446FFF7E8FF012806D10F
:101390001CB1FFF7E3FF013CF8E7052010BD002C6E
:1013A00008BF052010BD000070B505464FF4005081
:1013B0000E46FFF7E7FF04280ED1084C4FF400500B
:1013C000236943F0010323612E80FFF7DBFF41F621
:1013D000FE7322691340236170BD00BF00200240EC
:1013E00073B5002306464FF400500D460193FFF7F6
:1013F000C9FF04281AD10E4C4FF40050236943F062
:1014000001032361ABB23380FFF7BCFF042808D18E
:1014100002360196019B2D0C1D804FF40050FFF702
:10142000B1FF41F6FE7322691340236102B070BD23
:101430000020024038B505464FF43020FFF7A2FFE8
:10144000042812D1094C4FF43020236943F00203E1
:1014500023616561236943F040032361FFF792FF35
:1014600041F6FD7322691340236138BD002002401C
:10147000C27810B503780AB3164A03F16043D16805
:101480004278C943C1F30221C1F1040402FA04F411
:101490000F22CA40817803F561430A4022431201BA
:1014A000D2B283F8002303780122590903F01F0305
:1014B00002FA03F3084A42F8213010BD5A0901210B
:1014C00003F01F0301FA03F30349203241F82230ED
:1014D00010BD00BF00ED00E000E100E0410746BFA5
:1014E000C30843F00043430D820748BF43F08043E5
:1014F000184670474FF6FF7230B51546013989B26C
:10150000A9420DD010F8013B534083EA0313DBB22C
:101510001C0984EA122242EA032282EAC302EDE7AE
:10152000104630BD094B9A6912F0700F0DD00022A1
:101530009A61074A516801315160127F12B99B6963
:101540005B0702D5034A014B9A6070470064004074
:101550004804002080808000012B2DD1013A0A2A06
:101560002AD8DFE802F00629290D14292929291B88
:10157000220013A3D3E900230120C1E9002370470F
:1015800011A3D3E900230120C1E90023704710A370
:10159000D3E900230120C1E9002370470EA3D3E95A
:1015A00000230120C1E9002370470DA3D3E90023E4
:1015B0000120C1E90023704700207047AFF300808D
:1015C0009E6AC421818A46EE042B31ECA7766FBE59
:1015D000F017304A39059E56CDD269EBC51A133B38
:1015E000D5A4D139F922B6A710B50E4C3823E36043
:1015F000204623610221FFF721FD20461021FFF73D
:101600001DFD094A00231380084A20461380022149
:101610000122FFF70BFD2046BDE8104001221021FA
:10162000FFF704BD00640040DE040020E204002057
:1016300000EB8000430018460138FDD87047402871
:1016400008B5024609D8BDE80840C0EB401002EBDF
:101650008000C00080B2FFF7EBBF4FF47A70FFF755
:10166000E7FF013A92B2002AF7D108BD034B0122ED
:10167000DA831A6A01321A62704700BF48040020F8
:101680000B4B0021D98319620A4B0B4A1B68F020CF
:10169000B3FBF2F34FF47A725343084A013B5360B1
:1016A000074B83F82300072391601360704700BF46
:1016B000480400200000002040420F0010E000E03D
:1016C00000ED00E02DE9F84F254B264D01281CBF09
:1016D000AA461D46894614462349244A06BF9A460F
:1016E00088469046FFF72EFE2846FFF7A3FE042803
:1016F000074630D14FF6FF7BB9F1000F08BF4FF41A
:101700007A74013405F1100624F001043444C5EB69
:101710000A0AA64217D0B9F1000F03D13AF8061011
:1017200089B203E0731B4B4433F8101C594501D1B7
:101730000236EEE7B0450DD93046FFF735FE0428F6
:101740000746F5D007E04FF011312846FFF748FE75
:10175000074600E08027FFF7FFFD3846BDE8F88F19
:1017600000E0010800E40108FFE70108FFE30108C9
:1017700010B5FFF7E7FD0748FFF75CFE04280446B5
:1017800003D10548FFF756FE0446FFF7E5FD204666
:1017900010BD00BF00E0010800E401080131C1F301
:1017A0004F0100239AB291420AD9B3F5FC7F09D0C8
:1017B000054A1A445200128820F813200133F1E739
:1017C000042070478020704708F0000438B50A46AE
:1017D00004460D4601460020FFF774FFC0B20428FE
:1017E00001D080B238BD2A4621460120FFF76AFFAA
:1017F000C0B238BD38B5164B1D68D3F80044B5F1FA
:10180000113F07D1B4F1113F01D104201DE0621C4A
:101810000ED104E06B1C0BD1B4F1113F08D10022B2
:1018200011460120FFF74EFFC0B204280DD1ECE7AE
:10183000FFF79EFFC0B2042807D1013504D101345F
:1018400014BF4020202000E0402080B238BD00BFFF
:1018500000E001081FB501214FF40060FFF7BCFC58
:101860000023ADF80A30ADF806304FF6FF73ADF83F
:101870000830094B094A1B68094CB3FBF2F304A971
:10188000013B21F80C3D2046FEF740FC012120469B
:10189000FEF786FC04B010BD0000002040420F009F
:1018A000002C014030B472B60D4B988C80B262B6F9
:1018B0000C490B8AD1E90245834204D9013445F130
:1018C0000005C1E902452B04220443EA144314181D
:1018D00043F1000508822046294630BC704700BF0E
:1018E000002C01402006002008B50120FFF7B2FFC0
:1018F000064B00219A8C064B92B219600020002101
:101900009A80C3E902011A8208BD00BF002C014081
:1019100020060020184B10B5198889B28A060ED50A
:10192000164C17489A88238800880133DBB280B2AE
:10193000834292B21FBF1348D2B2C25423800B0617
:1019400019D5114B114A1988138889B29BB2994253
:101950000AD013880133DBB2138013880C4A9BB280
:10196000D35C054A938010BD034A938923F080031A
:101970001B041B0C938110BD00380140040600209D
:101980000606002078130020E004002054130020F5
:10199000A614002070B504460646044D0FCD0FC4B2
:1019A00095E8070084E80700304670BD4804002031
:1019B000044B986800F0E05000F1644358425841ED
:1019C000704700BF006400402DE9F3410546002840
:1019D0007DD0046814F000547CD1FFF7A3FD3F4B89
:1019E0009A6802F0E052B2F1E05F51D09A68264660
:1019F000C2F380628DF804209A689B68C2F3C062CB
:101A0000C3F300738DF805208DF80630FF2401AB79
:101A1000F35C0BB1F4B234E0330103F1804303F51E
:101A2000CB431868FFF75AFD2F684FEAD07C4FEA86
:101A3000D778E04527F0604320F0604207F0004E81
:101A400000F0004110D0BEF1000F00D09B0C19B186
:101A5000900C984215D002E09A4217D0104683426B
:101A60002CBF002001200BE0934205D1C0F3807011
:101A7000C7F38077874203D193422CBF0020012017
:101A800020B10136032EC2D1FF2C01D1002022E06B
:101A900023012A7C03F1804303F5CB435A60EA68B3
:101AA0002968DA60AA6800299A60BABFCA0042F0C1
:101AB00004024A05490048BF42F0020242F0010216
:101AC0001A60074A012053690133536103E06FF044
:101AD000010000E0034802B0BDE8F081006400406E
:101AE0004804002015FCFFFF2DE9F041204F214A5A
:101AF0003D881388013505F03F059BB29D42904615
:101B00001D4C1CD01D4EF368DB0642BF2368013319
:101B10002360D6F8B001FFF7E1FC18236B431849A6
:101B2000C850CA18D6F8B43103F00F031374D6F8AE
:101B3000B8319360D6F8BC31D3603D8002E0A36831
:101B40000133A3603B889AB2B8F800309BB2D31A35
:101B5000228A48BF40339342C4BF074A1382A36915
:101B600038220133A361054BDA60BDE8F08100BF84
:101B7000E2040020DE04002048040020006400404D
:101B8000C80600202DE9F041204F214A3D881388E6
:101B9000013505F03F059BB29D4290461D4C1CD07F
:101BA0001D4E3369DB0642BF236801332360D6F83C
:101BB000C001FFF793FC18236B431849C850CA189B
:101BC000D6F8C43103F00F031374D6F8C83193600C
:101BD000D6F8CC31D3603D8002E0E3680133E360A6
:101BE0003B889AB2B8F800309BB2D31A228A48BF19
:101BF00040339342C4BF074A1382A369382201339A
:101C0000A361054B1A61BDE8F08100BFE20400202A
:101C1000DE0400204804002000640040C8060020C4
:101C2000F8B500B3FFF77EFC114D124B1A882B88D4
:101C300092B29BB29A4219D02A880F4C01321823D3
:101C400002F03F0203FB0244034604F11807264654
:101C500003CEBE4218605960344603F10803F6D142
:101C60002A800120F8BD6FF00100F8BD0020F8BD0A
:101C7000DE040020E2040020C806002037B514234B
:101C80000024012501A88DF804308DF805408DF859
:101C900006408DF80750FFF7EBFB152301A88DF8E0
:101CA00004308DF805408DF806408DF80750FFF799
:101CB000DFFB03B030BD0000032970B504460D46BC
:101CC0003ED800283CD00388013B9BB2B3F5806F1F
:101CD00036D2C388013B9BB2032B31D84388013BEA
:101CE0009BB20F2B2CD88388013B9BB2072B27D8A4
:101CF000474E1C223046002104F08CFCAA1E5342A1
:101D000053413377434B00225A611A684FF47A7675
:101D100022F002021A601A6842F001021A601A46A2
:101D200053683C49DB070ED44FF47A70FFF780FC10
:101D3000013EF5D14FF400430B606FF47A7070BD33
:101D40006FF0010070BD61230B60E2886388013A87
:101D5000013B12061B0403F4702302F040721A4385
:101D60002388012D03F1FF33C3F3090342EA030281
:101D7000A3884FF47A7403F1FF334FEA035303F45B
:101D8000E00343EA02030CBF4FF000420022032DA0
:101D900043EA02030CBF4FF0804200221343CB61A1
:101DA0000B6823F001030B6048681A4A10F0010029
:101DB0000AD04FF47A70FFF73BFC013CF4D14FF4AA
:101DC00000431360144870BDD2F8003223F47C53F2
:101DD00023F00E0343F4606343F00103C2F80032C2
:101DE0006FF07043C2F80402C2F80C320B4BC2F819
:101DF00014320123C2F84002C2F84402C2F81C3275
:101E0000D2F8003223F00103C2F8003270BD00BFE7
:101E1000480400200064004016FCFFFFAAAAAA0A9A
:101E2000F0B500283DD00E293BD806461E4F0022B3
:101E3000C7F81C224FF0010E93B299422FD950F8E7
:101E40003250002D02DB7368002B05DB7368EC0059
:101E5000DB0044F0040401E06C055B056D0075686F
:101E600048BF44F00204002DB8BF43F004036D00E6
:101E70004FEAC20505F1804548BF43F0020305F56E
:101E8000C845C5F84042C5F84432D7F81C320EFAAE
:101E900002F42343C7F81C3201320836CCE7002095
:101EA000F0BD6FF00100F0BD0064004013B50446C2
:101EB00001214FF00070FFF79BF901211CB10920AF
:101EC000FFF78AF902E00420FFF786F948238DF82E
:101ED000073003238DF8063044B14FF4807301A915
:101EE0001648ADF80430FFF7E7F807E04FF4006359
:101EF00001A91348ADF80430FFF7DEF818238DF878
:101F0000073003238DF806306CB14FF4007301A93C
:101F10000A48ADF80430FFF7CFF801214FF4EA107A
:101F2000FFF720F907E04FF4805301A90448ADF80A
:101F30000430FFF7C1F802B010BD00BF000C014033
:101F40000008014010B504460748FEF7E9FB2304EA
:101F500003F47F0343F0802343F0800300F07F000D
:101F600043EA002010BD00BF140D002038B50C4618
:101F70000546002101602346C0F803102022FEF729
:101F8000E5FD231D022220212846FEF7DFFDA31DCB
:101F9000032222212846FEF7D9FD04F1080303227B
:101FA00025212846FEF7D2FD04F10A03102228213C
:101FB0002846FEF7CBFD0448FEF7B2FB034BA08199
:101FC0001B78E38138BD00BF140D0020F904002008
:101FD00010B5FFF767FC064A002304F00FF9054C23
:101FE00020602146BDE810400348FFF7BFBF00BF97
:101FF00040420F00CC0400203811002000000000F7
:1020000030B50F4C87B02388A3B104F58565284609
:10201000FFF7DEFF0723049314230293094B039574
:10202000019340F25513201D009303A3D3E900232D
:10203000FEF778FB07B030BDF1C6A7C1D068080F26
:10204000100D0020F904002010B5064C10220021CC
:10205000204604F0DFFA044B00221A700123E380CB
:1020600010BD00BFCC040020F904002000000000D7
:10207000F7B5044640F279120E46002104F0CAFA80
:102080002046FFF7A5FF18A1D1E900010323237221
:10209000002502AB012763E90201E5712046677262
:1020A00020225021FEF752FD0D4AA7751346E57513
:1020B00003CBA061E16118680A4B206210682934E3
:1020C00044F8050C03F1140253F8041B934244F83E
:1020D000041BF9D11B8823803F23338003B0F0BD5C
:1020E000E8F7FF1F666A0008ED04AE050000000077
:1020F00070B5134D88B02B880446CBB105F58566C5
:102100000DF11E013046FFF7B3FFBDF81E30E17E32
:102110000593002304960393A37E193402930123AD
:102120000093019404A3D3E90023281DFEF74DFB7F
:1021300008B070BDAFF300809E6AC421818A46EE6C
:10214000100D002070B505468AB00E4649220021C8
:1021500004F060FA03A8FFF71DFC089B00248DE83B
:10216000180021466B4628463022FEF7EFFC099BFB
:1021700030228DE8180011466B462846FEF7E6FC33
:10218000039B049A60211A44059B28461A44069B27
:1021900013448DE8180030226B46FEF7D7FC12235B
:1021A00033800AB070BD000070B5134D88B02B8825
:1021B0000446CBB105F585660DF11E013046FFF7EB
:1021C000C1FFBDF81E30E17E059300230496039302
:1021D000A37E1934029304230093019404A3D3E94A
:1021E0000023281DFEF7F1FA08B070BDAFF30080A0
:1021F000042B31ECA7766FBE100D002037B50446D6
:102200000D461022002104F005FA0023194600941F
:1022100028222846FEF76EFBEB7E23816B7E6381CE
:1022200003B030BD10B4002404700B4601222146D7
:1022300010BCFEF78BBC00001FB501466846FFF7D7
:10224000DDFFDDE9000106A3D3E90023994206BFC3
:1022500090420120002005B05DF804FBAFF3008040
:102260001E1B55CEAC0000000149FFF7DBBF00BFCD
:10227000C80400200000000070B5114D86B02B8806
:102280000446B3B105F585663046FFF7EDFF01233F
:10229000E17E0593002304960393A37E19340293F1
:1022A00005230093019404A3D3E90023281DFEF71E
:1022B0008CFA06B070BD00BFF017304A39059E5643
:1022C000100D0020014B00221A807047C804002026
:1022D00037B50D46044600230360838019460090FD
:1022E00008222846FEF706FBEB7E63806B7EA38008
:1022F00003B030BD002202600B46C0F8032030213D
:102300000122FEF723BC00000149FFF7F3BF00BF25
:10231000521300200000000070B5114D86B02B88CC
:102320000446B3B105F585663046FFF7EDFF072398
:10233000E17E0593002304960393A37E1934029350
:102340000A230093019404A3D3E90023281DFEF778
:102350003CFA06B070BD00BFCDD269EBC51A133B85
:10236000100D002073B50D46144600920023096835
:1023700003220646FEF7BEFA296823880331012BA3
:1023800029600CD0022B13D10834012300942022A1
:102390003046FEF7AFFA2B6820332B6008E0083494
:1023A000009440223046FEF7A5FA2B6840332B609C
:1023B00002B070BDF0B50E460746002485B040223D
:1023C0002146039404F026F923460D222146009766
:1023D0003046FEF78FFA039B04A90D3341F8043D04
:1023E00007F108023046FFF7BDFF039DB38A0735AA
:1023F000A3EBD5052DB21F2DA8BF1F25A2B2AA425F
:1024000004F101040CDA18323A4400920023082245
:1024100003993046FEF76EFA039B08330393EDE70A
:10242000F37E3B87737E7B8705B0F0BD70B50C46AD
:1024300015461346096803220646FEF787FB216806
:102440002B880331012B216002D0022B0AD070BDF2
:1024500005F1080340223046FEF778FB236840333D
:10246000236070BD05F1080320223046FEF76EFBA5
:1024700023682033236070BD70B50C4615461346A3
:10248000096802220646FEF761FB21682B880231AB
:10249000012B216002D0022B0AD070BD05F1080388
:1024A00040223046FEF752FB23684033236070BD64
:1024B00005F1080320223046FEF748FB236820334D
:1024C000236070BD2DE9F7430446154600260DF143
:1024D00008090F4640F273123146009604F09AF84C
:1024E00049F8046D4B46314620460522FEF72EFB87
:1024F000009B0DF10808053348F8083D2A4641467F
:102500002046FFF793FF4B4600992046052201968F
:10251000FEF71CFB009B05F11002053341462046E7
:102520000093FFF783FF4B46009920460622019651
:10253000FEF70CFB009B05F12002063341462046C6
:102540000093FFF799FF4B4600992046062201961B
:10255000FEF7FCFA009B05F13002063341462046A7
:102560000093FFF789FF009E40350736F60828469E
:10257000009604F0FBF81FFA80F84246A01929469D
:1025800003F0D2FF46443E8003B0BDE8F083000074
:10259000014AFFF797BF00BF680600200000000057
:1025A00070B5134D88B02B880446CBB105F5856610
:1025B0000DF11E013046FFF7EBFFBDF81E30E17E46
:1025C0000593002304960393A37E193402930B23EF
:1025D0000093019404A3D3E90023281DFEF7F5F826
:1025E00008B070BDAFF30080D5A4D139F922B6A7E9
:1025F000100D0020054B10B500241C8060222146E0
:10260000034804F007F8034B1C8010BD5213002050
:1026100068060020C804002008B584220021034871
:1026200003F0F8FF024B00221A7008BD28160020A4
:1026300071040020F8B50C4605460B4616460021ED
:102640000822FEF783FA0822631C11462846FEF78B
:102650007DFAE38F3C2B84BF3C23E3870023E28F8A
:10266000991C5F1C9BB293424FEAC10107D22344DD
:10267000023308222846FEF769FA3B46EFE70232AA
:1026800032800548FEF74CF8044BA4F840001B7854
:10269000A4F84230F8BD00BF140D002050130020F4
:1026A0000A460149FFF7C6BFCA0C0020000000001F
:1026B00030B5114C89B02388BBB104F58565284637
:1026C0000DF11E01FFF7ECFFBDF81E3003950493DA
:1026D00018230293094B201D019340F2DA730093F3
:1026E00003A3D3E90023FEF71DF809B030BD00BFF6
:1026F000851E4BCFD9D4A25A100D002050130020B4
:1027000008B544220021034803F084FF024B002255
:102710001A7008BDCA0C0020501300202DE9F743A1
:102720000D460B469146002108220746FEF70EFA99
:102730006868FEF733FC02AE26F8020D334610221D
:1027400008213846FEF702FAA868FEF727FC334650
:1027500010221821ADF806003846FEF7F7F9E868B0
:10276000FEF71CFC3346ADF806001022282138463F
:10277000FEF7ECF9AB8E93B105F10C08382458F84C
:10278000040FFEF70BFC2146ADF80600334610227D
:1027900038461034FEF7DAF9C82CF0D100E03824BE
:1027A0000734E408A9F800400448FDF7B9FF044BDA
:1027B000E8861B782B8703B0BDE8F083140D00205A
:1027C0000E0D00200A460149FFF7A8BFAC160020F5
:1027D00030B5114C89B02388BBB104F58565284616
:1027E0000DF11E01FFF7EEFFBDF81E3003950493B7
:1027F00010230293094B201D019340F2EA3300930A
:1028000003A3D3E90023FDF78DFF09B030BD00BF5E
:102810007E293024440CACB6100D00200E0D002093
:1028200008B53C220021034803F0F4FE024B0022CD
:102830001A7008BDAC1600200E0D0020F7B50C462E
:10284000054617460B4608220021FEF77FF9231D97
:10285000284620220821FEF779F904F108032022F6
:1028600028212846FEF772F9E068FEF797FB02AED2
:1028700026F8020D3346102248212846FEF766F955
:102880002069FEF78BFB3346ADF806001022582175
:102890002846FEF75BF96069FEF780FB3346ADF82A
:1028A0000600102268212846FEF750F9A069FEF7BD
:1028B00075FB3346ADF80600102278212846FEF756
:1028C00045F911233B800448FDF72AFF034BA08301
:1028D0001B78E38303B0F0BD140D0020C80C00206A
:1028E0000A460149FFF7AABF581300200000000064
:1028F00030B5114C89B02388BBB104F585652846F5
:102900000DF11E01FFF7ECFFBDF81E300395049397
:1029100018230293094B201D019340F203430093B7
:1029200003A3D3E90023FDF7FDFE09B030BD00BFCE
:10293000DAF522A18BF37DC7100D0020C80C002012
:1029400008B520220021034803F064FE024B002258
:102950001A7008BD58130020C80C00202DE9F84358
:1029600016460A8D0746013292B2142A28BF142255
:102970000D4614464FF000084FF00E091FFA88F379
:102980009C424FF00E0209FB08F107D905EB480302
:102990003846FEF7DBF808F10108EFE7624307323B
:1029A000D20832800448FDF7BBFE044B68851B78D3
:1029B000AB85BDE8F88300BF140D00207004002033
:1029C0000A460149FFF7CABF781400200000000042
:1029D00030B5114C89B02388BBB104F58565284614
:1029E0000DF11E01FFF7ECFFBDF81E3003950493B7
:1029F00008230293094B201D019340F206430093E4
:102A000003A3D3E90023FDF78DFE09B030BD00BF5D
:102A10001D95ECD7875C7F21100D002070040020ED
:102A200008B52E220021034803F0F4FD024B0022DA
:102A30001A7008BD78140020700400202DE9F347B7
:102A400080460E4691460D46B1F8784000270F2C7F
:102A500028BF0F2401EBC40A55451AD02B4639462E
:102A600008224046FEF772F80822B918AB1C40460F
:102A7000FEF76CF86868FEF791FA1022ADF80600D0
:102A8000B9180DF106034046FEF760F82037083507
:102A9000E2E7A400A9F800400548FDF741FE054B18
:102AA000A6F87A001B78A6F87C3002B0BDE8F08763
:102AB000140D0020DC1500200A460149FFF7BEBFB7
:102AC000840500200000000030B5114C89B0238837
:102AD000BBB104F5856528460DF11E01FFF7ECFF3B
:102AE000BDF81E300395049310230293094B201D5B
:102AF000019340F2F233009303A3D3E90023FDF7DF
:102B000011FE09B030BD00BFF33AEC386248A7D8D7
:102B1000100D0020DC15002008B58022002103489C
:102B200003F078FD024B00221A7008BD84050020D6
:102B3000DC15002073B50C460B461022002106461A
:102B4000FEF704F86068FEF729FA02AD25F8020DD9
:102B500010222B4611463046FDF7F8FFA068FEF71D
:102B60001DFA2B46ADF80600102230462021FDF755
:102B7000EDFF04F10C03082230213046FDF7E6FF9B
:102B80000448FDF7CDFD044BE0811B78238202B0A1
:102B900070BD00BF140D0020F80400200149FFF7AC
:102BA000C9BF00BF0806002030B50F4C87B023888E
:102BB000A3B104F585652846FFF7F0FF07230493CA
:102BC00018230293094B0395019340F24343201DC0
:102BD000009303A3D3E90023FDF7A4FD07B030BDA4
:102BE00015A1DD0D3DD31383100D0020F804002046
:102BF00008B514220021034803F00CFD024B00220B
:102C00001A7008BD08060020F8040020F7B50C462D
:102C1000174600215422054603F0FCFC2068FEF70D
:102C2000BDF902AE26F8020D3346102200212846D7
:102C3000FDF78CFF6068FEF7B1F9102211463346AC
:102C4000ADF806002846FDF781FFA068FEF7A6F95B
:102C5000334610222021ADF806002846FDF776FF06
:102C6000E068FEF79BF9334610223021ADF80600EC
:102C70002846FDF76BFF2069FEF790F933461022D6
:102C80004021ADF806002846FDF760FF6069FEF7B9
:102C900085F9334610225021ADF806002846FDF78D
:102CA00055FFA069FEF77AF93346ADF80600102209
:102CB00060212846FDF74AFF04F11C030B22702116
:102CC0002846FDF743FF04F11E0307227B21284617
:102CD000FDF73CFF04F12003072282212846FDF77F
:102CE00035FF04F12203072289212846FDF72EFF34
:102CF00004F12403082290212846FDF727FF04F160
:102D00002803202298212846FDF720FFB4F84C30F4
:102D10001F2B84BF1F23A4F84C300023B4F84C2091
:102D200003F117015E1C9BB29A424FEAC10107D919
:102D300023442C3308222846FDF708FF3346EDE7ED
:102D4000C90839800548FDF7EBFC054BA4F84E0097
:102D50001B78A4F8503003B0F0BD00BF140D002064
:102D6000C01500200A460149FFF750BF7404002037
:102D700030B5114C89B02388BBB104F58565284670
:102D80000DF11E01FFF7EEFFBDF81E300395049311
:102D900018230293094B201D019340F244430093F2
:102DA00003A3D3E90023FDF7BDFC09B030BD00BF8C
:102DB0006619718A54269C24100D0020C01500202D
:102DC00008B554220021034803F024FC024B0022E2
:102DD0001A7008BD74040020C015002073B50C469D
:102DE0000B46102200210646FDF7B0FE6068FEF794
:102DF000D5F802AD25F8020D10222B4611463046BB
:102E0000FDF7A4FEA068FEF7C9F82B46ADF8060052
:102E1000102220213046FDF799FEE068FEF7BEF84B
:102E20002B46ADF80600102230463021FDF78EFE0D
:102E300004F11003082240213046FDF787FE0448C4
:102E4000FDF76EFC034B60821B78A38202B070BD5D
:102E5000140D0020241900200149FFF7BFBF00BF57
:102E6000C41500200000000030B50F4C87B0238847
:102E7000A3B104F585652846FFF7EEFF0923049307
:102E800018230293094B0395019340F24543201DFB
:102E9000009303A3D3E90023FDF744FC07B030BD42
:102EA000B44E80E64FCDFEC7100D0020241900203F
:102EB00008B518220021034803F0ACFB024B0022A6
:102EC0001A7008BDC41500202419002073B50C46E3
:102ED0000B46102200210646FDF738FE6068FEF71B
:102EE0005DF802AD25F8020D10222B461146304642
:102EF000FDF72CFEA068FEF751F82B46ADF8060052
:102F0000102220213046FDF721FEE068FEF746F84A
:102F10002B46ADF80600102230463021FDF716FE94
:102F200004F11003082240213046FDF70FFE04484B
:102F3000FDF7F6FB034B60821B78A38202B070BDE5
:102F4000140D0020E81600200149FFF7BFBF00BFA5
:102F5000A81500200000000030B50F4C87B0238872
:102F6000A3B104F585652846FFF7EEFF0923049316
:102F700018230293094B0395019346F69663201D8F
:102F8000009303A3D3E90023FDF7CCFB07B030BDCA
:102F90000270C93367ACA319100D0020E816002099
:102FA00008B518220021034803F034FB024B00222D
:102FB0001A7008BDA8150020E8160020F7B50C46C9
:102FC00005460B46174600210822FDF7BFFD0822E3
:102FD0001146A31C2846FDF7B9FD231D0822102128
:102FE0002846FDF7B3FDA388012B21D001D3022B86
:102FF0003BD104F10803284620221821FDF7A6FD45
:1030000004F10C03284620223821FDF79FFD04F12E
:103010001003284620225821FDF798FD02AB00221C
:1030200043F8042D782120222846FDF78FFD1EE06D
:1030300004F11403284620221821FDF787FD04F12E
:103040001803284620223821FDF780FD04F11C03D7
:10305000284620225821FDF779FD04F12003202283
:1030600078212846FDF772FD01E0182600E0982639
:10307000238EB3B1314604F1240320222846FDF704
:1030800065FD2022B11804F128032846FDF75EFDF6
:1030900006F1400104F12C0320222846FDF756FDDD
:1030A00060360736F6083E800448FDF739FB044BCE
:1030B00060861B78A38603B0F0BD00BF140D00200E
:1030C000DC0400200A460149FFF778BFEC18002015
:1030D00030B5114C89B02388BBB104F5856528460D
:1030E0000DF11E01FFF7EEFFBDF81E3003950493AE
:1030F00018230293094B201D019346F68C6300931D
:1031000003A3D3E90023FDF70DFB09B030BD00BFD9
:103110009955CE0563FB15BF100D0020DC0400207F
:1031200008B538220021034803F074FA024B00224C
:103130001A7008BDEC180020DC040020F8B50C461D
:103140000B461646002108220746FDF7FFFCB4F89F
:103150008230802B84BF8023A4F882300023B4F80F
:1031600082205D1C9BB293424FEAC50107D22344E3
:10317000013308223846FDF7E9FC2B46EFE7013220
:1031800032800548FDF7CCFA044BA4F884001B7884
:10319000A4F88630F8BD00BF140D0020A61500204D
:1031A0000A460149FFF7CABFFA04002000000000E8
:1031B00030B5114C89B02388BBB104F5856528462C
:1031C0000DF11E01FFF7ECFFBDF81E3003950493CF
:1031D00018230293094B201D019346F68E6300933A
:1031E00003A3D3E90023FDF79DFA09B030BD00BF6A
:1031F00075DAB9AD324D8749100D0020A6150020B3
:1032000008B588220021034803F004FA024B00228B
:103210001A7008BDFA040020A615002008B5FFF7B3
:10322000FBF9FFF76DFAFFF7FBFAFFF789FBFFF7F2
:10323000F7FBFFF771FCFFF7DBFCFFF7C1FDFFF7C2
:1032400037FEFFF7ADFEFFF76BFFBDE80840FFF765
:10325000D7BF000010B5104C9CB001200194FEF7C0
:1032600071FE009004200394FEF76CFE029005208E
:103270000594FEF767FE04900A200794FEF762FEAD
:1032800006900B200994FEF75DFE05210890684624
:10329000FEF7C6FD1CB010BD80FFFFC010B5094C85
:1032A00023880BB9002010BD201DFDF7D5FA00289A
:1032B000F8D0FEF789FB0028F4D0201DFDF7D0FAE6
:1032C000012010BD100D002010B50B4C86B02088D9
:1032D00080B16846FEF7A4FC00280BD009DDFEF79C
:1032E000E1FA02460B46201D6946FDF777FC0120F6
:1032F00000E0012006B010BD100D00202DE9F743BD
:103300001E4C2388002B36D0FEF7CCFA0F4606461B
:1033100004F5C561D1E900894F4508BF464512D380
:10332000174A002312EB080243EB0903C1E900230B
:10333000FEF7B8FA02460B46201DFDF79BFA211D49
:103340006846FDF723FED4F83046A4B10D49D1E913
:1033500000239F4208BF96420DD3002512196B41EE
:103360009F4208BF9642F9D2C1E9002303B0BDE8ED
:10337000F043FEF745BE03B0BDE8F083100D00201A
:1033800040420F004813002010B5134C4FF4C862A0
:103390000021204603F03EF9201D0021FDF7B9F978
:1033A00040F6B83040F2DC52002104F5C563C3E9B1
:1033B00000010A4B04F5C76444F8083C0023C4E943
:1033C0000023FEF741FEFEF77DFFFFF713F9BDE88E
:1033D0001040FFF723BF00BF100D002040420F0038
:1033E0007FB5FFF7D1FF0020FEF760FD0923242100
:1033F0005A1CB1FBF2F56A43242ADEB204D0013B29
:10340000012BF5D100204EE0C3EBC303DA1CD21030
:10341000D0B24FF47A7401325443311AC9B20A441B
:1034200094FBF2F2B2F5617FC2BF03F1FF33C3F345
:10343000C700311A00F1FF33C8BFC9B20F2B05D83E
:103440004B1E072B8CBF0023012300E000234218F2
:1034500002FB0554154AB2FBF4F2154CA242D1D13D
:10346000002BCFD0ADF80A00ADF80C1001240221DA
:1034700002A8ADF80850ADF80E40FEF71DFC00287C
:10348000C0DB00230B4D01930B4BA5F124000093EF
:103490004FF48062094B2946FDF713F9FEF7EEFB66
:1034A000204625F8284C04B070BD00BF005125020D
:1034B00040420F00380D00205915000891390008CE
:1034C00010B50446FFF78CFF48B1054804F07F01B2
:1034D000FDF71FF9FFF7BEFEFEF786F8012010BDCD
:1034E000140D00202D4B1A895AB1092A9CBF0A22BB
:1034F0001A811A89B2F57A7F82BF284A4FF47A710D
:103500001181DA8962B1092A9EBF244A0A21D18138
:10351000DA89B2F57A7F82BF204A4FF47A71D1817D
:103520009A8A62B1092A9EBF1C4A0A2191829A8A0C
:10353000B2F57A7F82BF194A4FF47A7191825A8B21
:1035400062B1092A9EBF154A0A2151835A8BB2F5EE
:103550007A7F82BF114A4FF47A7151831A8C62B11B
:10356000092A9EBF0D4A0A2111841A8CB2F57A7F6E
:1035700082BF0A4A4FF47A7111845A8C62B1092AC7
:103580009EBF064A0A2151845B8CB3F57A7F82BFC5
:10359000024B4FF47A725A84704700BF38060020FD
:1035A0002DE9F0470B7E04460E4633B9B1F8008092
:1035B000B8F1120F00F2088113E04FF01809874F9D
:1035C000002501EB090A09FB057310229968504692
:1035D0001FFA85F803F0F8F818B10135132DF2D170
:1035E000F2E037897D4DEFB1182202FB08F2AB18EB
:1035F0001B79013B082B15D8DFE803F00505090905
:103600000D0D14141100AB5832691A700AE0AB5852
:1036100032691A8006E0AB5832691A6002E03069FC
:10362000AB581860182303FB08F31D4429796B4A33
:103630000139082900F2AF80DFE811F0090020000D
:103640003B0052006D008100AD00AD009800D358E2
:10365000012121862184218221801A780023C4E956
:1036600002232A7B0023C4E906232A7C0023C4E921
:103670000E232A7D0023C4E90A239BE0D3580121AD
:10368000218621842182218093F90020D317C4E967
:10369000022395F90C20D317C4E9062395F91020CD
:1036A000D317C4E90E2395F91420D317C4E90A23CC
:1036B00080E0D358012121862184218221801A882B
:1036C0000023C4E90223AA890023C4E906232A8A25
:1036D0000023C4E90E23AA8A0023C4E90A2369E06F
:1036E000D35801212186218421822180B3F9002031
:1036F000D317C4E90223B5F90C20D317C4E9062374
:10370000B5F91020D317C4E90E23B5F91420D31747
:10371000C4E90A234EE0D35801211A680023A260AD
:10372000E360EA68E361A2612A69E363A2636A690C
:103730002186218421822180A262E3623AE0D3586B
:1037400001211A682186D317C4E90223EA6821847B
:10375000D317C4E906232A692182D317C4E90E23AB
:103760006A692180D317C4E90A2323E0D3580221D0
:103770001B682186A360E86821842182218002F0F1
:103780000DFBA061286902F009FBA063686902F0E3
:1037900005FBA0620EE001230022238623842382FE
:1037A00023800023C4E90623C4E90E230C4A002326
:1037B000C4E90A23A96804F1400002F079FF57B177
:1037C000BDE8F047FFF78EBE2046BDE8F047602217
:1037D000002102F01FBFBDE8F08700BF706800083D
:1037E00080841E00044BDA884FF47A735343034AF3
:1037F000C2F83036704700BF38060020100D002098
:103800000D4B33225A809A804FF47A720121DA806C
:10381000472000221A815A819981DA811A825982BD
:103820009A82D8821A835A839983DA831A845A84B3
:103830009A84D984FFF7D6BF38060020164808B509
:1038400043885BB1132B9CBF142343804388642BB4
:1038500082BF114B64225A8043880BB933234380C3
:10386000C388312B9EBF0C4B4FF47A72DA8041F241
:103870008833C2889A4282BF074B4FF47A72DA804B
:10388000FFF730FEC38C022B82BF034B0022DA8489
:10389000BDE80840FFF7A6BF3806002038B5302243
:1038A000FF21214802F0B6FEFFF79CFFFDF7A2FFC3
:1038B000C0B204281C4D0CD03022FF211A4802F05F
:1038C000A9FEFFF78FFFFDF795FFC0B204280FD1C7
:1038D00007E030212846FDF761FFC0B204280ED072
:1038E000EAE730211048FDF759FFC0B2042806D09E
:1038F0003022FF210C4802F08DFEFFF773FF2B886A
:10390000094C032B0CD0FFF77BFF2046032307490C
:1039100020F8283B02F0CCFE30212046FDF756FF70
:10392000BDE83840FFF78ABF380600207D6A0008EE
:1039300030210148FDF74ABF3806002038B5058818
:10394000084C25B9FFF7F4FF0123238038BD012D72
:1039500005D1FFF755FFFFF7EBFF258038BD0023AA
:10396000238038BD5213002008B541F28830FDF79E
:103970005FFE0549054BCA6802F4E0621343CB6061
:10398000BFF34F8FFEE700BF00ED00E00400FA0533
:1039900030B50B7E91B0012B0C465DD1CB8A013B3B
:1039A0000A2B59D8DFE803F00658580A0E58585821
:1039B000583C4A000846FEF79BFB4DE00846FEF7E0
:1039C000F3FB49E00846FEF737FC0546234B21464A
:1039D00018802348FDF7F2F82046FEF74DFC002D35
:1039E0003AD0FDF75FFF1F4C002524184D411C48BD
:1039F000FCF732FF70B1FFF751FCFDF753FF8D422A
:103A000008BF8442F3D205E0FDF74CFF8D4208BFAA
:103A1000844203D3FDF7CCFF0028F5D0FFF7A4FFC5
:103A20006846FEF755FC6846FFF788FF21460C48BC
:103A3000FDF7C4F82046FEF76FFC0DE06846FEF780
:103A4000B9FC69460848FFF7ABFD05482146FDF77C
:103A5000B5F82046FEF7A4FD11B030BDC804002023
:103A6000140D002020A1070068060020F0B503B364
:103A7000D2E90045A94208BFA0421CD342F2107609
:103A8000041B61EB05050027AF4208BFA64201D227
:103A9000C2E900019CB20025D2E90067B94208BF23
:103AA000B04204D336196F41C2E90067F4E7012040
:103AB000F0BD1846F0BD0020F0BD000007B50121A3
:103AC0000420FDF789FB1023ADF804308DF8073092
:103AD00001A9032303488DF80630FDF7EDFA03B082
:103AE0005DF804FB0008014070B54FF4004086B05B
:103AF000FDF768FB012140F20520FDF76DFB002377
:103B00008DF8033001938DF80830049306AC082338
:103B100024F8183D01254FF46022032621462E4843
:103B200003928DF802608DF809508DF81450FDF75E
:103B3000C3FA01A92948FDF767FB07232A46314646
:103B40002648FDF7A9FB25482946FDF781FB2348B8
:103B5000FDF787FB2148FDF789FB0028FAD11F48B4
:103B6000FDF788FB1D48FDF78AFB0028FAD10121EB
:103B70001A48FDF788FB012140F20540FDF72CFBB8
:103B8000042321461448ADF80030FDF795FA01A949
:103B90001348FDF739FB0723012202211048FDF7E6
:103BA0007BFB0F480121FDF753FB0D48FDF759FB47
:103BB0000B48FDF75BFB0028FAD10948FDF75AFBDB
:103BC0000748FDF75CFB0028FAD101210448FDF706
:103BD0005AFB06B070BD00BF000801400024014040
:103BE0000028014008B50448FDF7B8FA80F040000D
:103BF000C0F3801008BD00BF000C014007B50121D3
:103C00000820FDF7E9FA48238DF8073003238DF8E3
:103C1000063002A9402321F8043D0348FDF74CFA81
:103C200003B05DF804FB00BF000C014038B5F92378
:103C30000370062343701223837004460D4601303F
:103C40000821FDF757FC0B23A4F809002B8038BD91
:103C500038B5F92303700E23437011238370044693
:103C60000D4601301021FDF745FC1323A4F8110087
:103C70002B8038BDA0F50062282A10B5A1F500639D
:103C800002DDA0F6280004E02832B4BFA0F5FB60F6
:103C90000020282B02DDA1F6280104E02833B4BF60
:103CA000A1F5FB610021042301F5006191FBF3F113
:103CB0000D4C00F5006090FBF3F001F57771218168
:103CC00021460A4B00F57770DB8A0022A08001F8BC
:103CD000823BE280601CFFF7A9FFB4F88230023B10
:103CE000A4F8823010BD00BFFA040020380600207E
:103CF00010B5094C00232146A380E3802381074BA4
:103D0000601CDB8A01F8823BFFF790FFB4F8823039
:103D1000023BA4F8823010BDFA04002038060020CF
:103D2000A0F50062282A70B5A1F5006302DDA0F6B7
:103D3000280004E02832B4BFA0F5FB600020282B47
:103D400002DDA1F6280504E02833B4BFA1F5FB6528
:103D5000002502F023F8134902F074F84FF068517F
:103D600002F070F8104C00266060A660284602F051
:103D700015F80C4902F066F84FF0685102F062F84D
:103D800021460A4BE060DB8A267401F8823B6674A8
:103D9000601CFFF75DFFB4F88230023BA4F882306C
:103DA00070BD00BF00003442FA0400203806002035
:103DB000A0F50062282AA1F5006302DDA0F6280024
:103DC00004E02832B4BFA0F5FB600020282B02DD00
:103DD000A1F6280104E02833B4BFA1F5FB6100215E
:103DE00000F50063042093FBF0F301F5006191FB03
:103DF000F0F10B4A03F57773A2F805300023D37175
:103E00001372FE231370074B01F57771DB8AA2F85A
:103E10000910901C02F13E015370FFF707BF00BF6D
:103E2000CA0C002038060020094800234371837122
:103E3000C371037243728372FE230370054B00F15A
:103E40003E01DB8A023000F8013CFFF7EFBE00BF05
:103E5000CA0C002038060020A0F50062282A70B5A0
:103E6000A1F5006302DDA0F6280004E02832B4BF0B
:103E7000A0F5FB600020282B02DDA1F6280504E058
:103E80002833B4BFA1F5FB65002501F087FF134976
:103E900001F0D8FF4FF0685101F0D4FF104C00261C
:103EA000C4F805002846C4F8096001F077FF0B4903
:103EB00001F0C8FF4FF0685101F0C4FFFE232370EA
:103EC000084BC4F80D00DB8A6674A674637004F1B5
:103ED0003E01A01CBDE87040FFF7BABE00003442AE
:103EE000CA0C002038060020A0F50062282A70B510
:103EF000A1F5006302DDA0F6280004E02832B4BF7B
:103F0000A0F5FB600020282B02DDA1F6280504E0C7
:103F10002833B4BFA1F5FB650025104B104CDB8A9C
:103F2000002623800023A3606680A68001F036FF70
:103F30000C4901F087FF4FF0685101F083FFE0600A
:103F4000284601F02BFF074901F07CFF4FF0685134
:103F500001F078FF2686206170BD00BF3806002082
:103F6000EC180020C3F5C83F104B6F200021C3E9B7
:103F7000060175200021C3E908017A200021C3E968
:103F80000A01802000210022C3E90C0185200021C4
:103F9000C3E90E015A608B2000219A609A81DA8170
:103FA0001A820122C3E910011A807047E01500202F
:103FB00010B50548FDF7B7F9044C60600448FDF7FB
:103FC000B2F9A06010BD00BF00240140E015002040
:103FD0000028014010B50B4C0023E381FFF702FEDF
:103FE000234628B1A2893B2A04D80132A28101E0EC
:103FF000A08120829B89034A322B02BF0123D381F7
:10400000138210BDE0150020274B70B51B88002BD4
:1040100049D0264C2389002B45D0B4F90A30002B17
:1040200003DAB4F90C30002B3DDBFDF73BFC2589AE
:104030004FF47A72002302F0E1F82B461C4AFFF796
:1040400015FD00282FD000210E46184B194DB3F94D
:104050000A20B4F90C30142AA8BF4FF0FF32142BF9
:10406000A8BF4FF0FF3390B28342C8BF98B28CB262
:10407000013125F814608CB284420E4CF7D9002A25
:10408000A8BF0D492085A2BF4968490024F8121035
:10409000002BA1BF084A9268520024F81320BDE803
:1040A0007040FEF795BC70BD100D00203806002052
:1040B000F815002078140020E01500202D4B70B575
:1040C0001B88002B54D02C4DEB89002B50D0B5F918
:1040D0001030002B03DAB5F91230002B48DBFDF766
:1040E000E1FBEC894FF47A72002302F087F8234653
:1040F000224AFFF7BBFC00283AD01F4B0024B3F93B
:104100001030002B10DB1E4E33801E4B748058681D
:1041100001F040FE4FF0685101F094FE4FF07E51E7
:1041200001F086FD01247060B5F91230002B16DB1A
:10413000134D25F8343005EBC40500236B80114B7B
:104140000134986801F026FE4FF0685101F07AFEC4
:104150004FF07E5101F06CFDA4B2686001E03CB10B
:104160000124074BA3F87840BDE87040FEF7ACBCD3
:1041700070BD00BF100D0020380600200016002082
:1041800084050020E015002038B5274B1B88002B44
:1041900049D0264DAB8A002B45D0B5F91630002BFF
:1041A00041DBFDF77FFBAC8A4FF47A72002302F00B
:1041B00025F823461E4AFFF759FC1E4C10B32B8BE3
:1041C000A168042B606804D1FFF7AAFDFEF7F0FF99
:1041D00018E0032B04D1FFF74DFDFEF7E9FF11E0D6
:1041E000022B04D1FFF780FEFEF772FF0AE0012BDD
:1041F00004D1FFF731FEFEF75BFA03E0FFF7D8FDCD
:10420000FEF756FAE38973B12B8B012B05D9FFF723
:104210006FFDBDE83840FEF7CBBFFFF705FEBDE8F8
:104220003840FEF745BA38BD100D00203806002092
:1042300008160020E01500205B4B2DE9F0411B889B
:10424000002B00F0AE80594D6B8B002B00F0A98045
:10425000B5F91C30002BC0F2A480FDF723FB6C8B5A
:104260004FF47A72002301F0C9FF2346504AFFF74A
:10427000FDFB002800F09580EF8B4E4C032F22D1E0
:10428000AB8B4D4E6068338001F084FD4B4901F0EB
:10429000D9FD4FF0665101F0D5FD7060A06801F0C6
:1042A00079FD464901F0CEFD4FF0665101F0CAFD9F
:1042B0000023B381238AB0600BB10123B381BDE831
:1042C000F041FEF771BC022F1ED1AB8B3C4E6068F3
:1042D000B38401F05FFD394901F0B4FD4FF0665140
:1042E00001F0B0FD7060A06801F054FD334901F0A9
:1042F000A9FD4FF0665101F0A5FD0123B060B38325
:10430000BDE8F041FEF734BD012F4FF0000823D186
:10431000AB8B2C4E6068338001F03CFD274901F0E7
:1043200091FD4FF0665101F08DFD7060A06801F0C5
:1043300031FD224901F086FD4FF0665101F082FD0A
:1043400000233382238AB060C6F80C8003B1378221
:10435000BDE8F041FEF788BDAB8B1B4E6068338033
:1043600001F018FD154901F06DFD4FF0665101F0A7
:1043700069FD7060A06801F00DFD104901F062FD5B
:104380004FF0665101F05EFD00233382238AB06056
:10439000C6F80C800BB101233382BDE8F041FEF773
:1043A000DBBDBDE8F08100BF100D00203806002005
:1043B00010160020E0150020080600200000A04193
:1043C00074040020C4150020A8150020254B70B5EA
:1043D0001B88002B45D0244C238C002B41D0FDF7AB
:1043E00061FA248C4FF47A72002301F007FF234610
:1043F0001E4AFFF73BFB002833D01D4E1D4C706852
:1044000001F0C8FC1C4901F01DFD4FF0665101F0A0
:1044100019FD1A4901F016FD0146194801F008FC82
:104420001849054601F00EFD174900F0EBF800238E
:104430002380164901F006FD6060B06801F0AAFC17
:10444000134901F0FFFC4FF0665101F0FBFC114BEA
:10445000A060E56025616361A361BDE87040FEF77F
:1044600047BA70BD100D0020380600201816002035
:10447000E01500205813002000E02B46F4FDD43B4B
:1044800033139043E66F633B2530A84080E6C54771
:104490000080BB450000C07F38B51D4B1B88002B3A
:1044A00034D01C4D6B8C8BB3FDF7FCF96C8C4FF446
:1044B0007A72002301F0A2FE2346174AFFF7D6FACC
:1044C00020B3AB8C154C164D2380686801F062FC5C
:1044D0004FF0665101F0B6FC4FF07C5101F0A8FBA3
:1044E0006060A86801F056FC4FF0665101F0AAFC2C
:1044F0004FF07C5101F09CFB4FF07C53E3600023B4
:10450000A060A386BDE83840FEF762B938BD00BFA1
:10451000100D00203806002020160020AC160020C8
:10452000E01500202DE9F843FDF7AAF8FFF7C6FAD9
:10453000FDF7DAF9FFF7B2F90120FFF7D5FA01200C
:10454000FFF75CFBFFF710FD294B9878FEF7B8FFEB
:1045500058B92849CB686420DB4303F0100343F4C7
:1045600080130B61FDF76BF8F4E7234DFFF73AF981
:104570000023EB80214B1B880BB90323AB80204E1B
:104580001C4FB0460024FEF79FFE0028FBD1FEF72B
:1045900085FE81460028FAD1FEF7B0FEF38B9BB270
:1045A000002BF0D0A8F81E9034B9AB8840F2F31479
:1045B000002B18BF312409E0013CA4B234B9FB68D8
:1045C000DB4303F0100343F480133B61FFF7F0FC7F
:1045D000FFF700FDFFF718FDFFF770FDFFF7D4FDB3
:1045E000FFF72AFEFFF7F2FEFFF756FFCBE700BF0B
:1045F0003806002000080140CC040020E01500200F
:10460000480400202DE9F0478AB006460D4600F028
:1046100077F9DFF8E882044698F900707B1C3FD0F8
:104620002946284601F0D4FD8246002838D131467B
:10463000304601F0CDFD00218146002840F09780F2
:10464000304601F093FD00282ED00021284601F0CD
:104650008DFD8246D0B1A34A0123304601920093DA
:10466000CDF8209000F0A2FFCDE90201284600F02D
:104670009DFF00220023CDE90401CDE90623002F90
:1046800062D04FF07E500AB0BDE8F087284600F0B7
:10469000A7FD28B10021284601F072FD00283AD17B
:1046A00020460AB0BDE8F087204600F099FD074695
:1046B000002878D00021204601F058FD0028EFD0D6
:1046C000304600F08DFD0028EAD0284600F088FD35
:1046D0000028E5D083490023042230460893009245
:1046E000019100F063FFCDE90201284600F05EFF72
:1046F00098F9003000240025022BCDE90401CDE912
:10470000064503D0684600F0D5FC18BB01F006FF53
:10471000222303601EE0734A012330460093019276
:10472000CDF820A000F042FFCDE90201284600F0BC
:104730003DFF98F90030CDE90401002B40F0908056
:1047400000220023CDE90623684600F0B3FC0028D0
:1047500000F08180089B1BB101F0E0FE089B036024
:10476000DDE9060101F010FA0AB0BDE8F08728463D
:1047700001F0FCFC002893D05A4A012330460192F4
:104780000093CDF820A000F011FFCDE902012846EA
:1047900000F00CFF544B0022022FCDE90401CDE9BB
:1047A0000623D1D16DE7304600F01AFD002881D0F4
:1047B000284600F015FD00283FF47CAF2146204636
:1047C00001F006FD0346002874D146490322304615
:1047D00008930092019100F0E9FECDE9020128461C
:1047E00000F0E4FE98F90040CDE90401002C3ED130
:1047F0003E4B4FF0604230460021CDE9062301F0E8
:10480000BFFC00283FF47EAF28464FF07C5101F0FA
:1048100019FB00F0CBFE04460D4600F04DFC0246AD
:104820000B462046294601F07DF900283FD1304B48
:104830004FF06042CDE9062398F90040022C7FF446
:1048400061AF63E71046194601F02EF8022CCDE95E
:1048500006017FF479AF01F061FE2123036079E75F
:1048600024490020022BCDE90601F4D06CE7224B4D
:10487000002230460021CDE9062301F081FC00280A
:10488000DCD028464FF07C5101F0DCFA00F08EFEBF
:1048900004460D4600F010FC02460B462046294611
:1048A00001F040F918B9134B0022CDE9062398F91D
:1048B0000040C3E70B4A012330460192009308975A
:1048C00000F074FECDE90201284600F06FFE98F971
:1048D0000040CDE9040100220023002CB2D1CDE933
:1048E000062331E7706B00080000F03FFFFFEF4741
:1048F000FFFFEFC70000F0FF0000F07F1400002072
:104900002DE9F04F31F0004887B011D020F0004978
:10491000B9F1FF4F824605DD514807B0BDE8F04FC1
:1049200000F066BCB8F1FF4F07DDB9F17E5FF3D14F
:104930004FF07E5007B0BDE8F08F00280C464ADBF0
:104940000025B8F1FF4F3ED0B8F17E5F07460E4616
:1049500054D0B4F1804F6BD0B4F17C5F1DD000F027
:104960003BFCB9F1FF4F51D0B9F1000F4ED0B9F176
:104970007E5F4BD04FEADA7A0AF1FF3255EA020342
:1049800066D0B8F19A4F6FDD364B994500F36182DE
:10499000002CC0F264820020CCE7BAF1000F4BDAA1
:1049A00000F01AFCB9F1FF4F02D0B9F1000FDED1CF
:1049B000A9F17E5959EA050343D0012DBAD100F17E
:1049C00000410846B6E7B9F17E5FB1D02BDD002C7F
:1049D000E1DB0846AEE7B8F1974F22DAB8F17E5F27
:1049E0000ADB4FEAE853C3F1960348FA03F202FAEE
:1049F00003F3984500F028820025A5E7002C99DAFA
:104A000001464FF07E5001F0D1FA93E7002C04DA12
:104A100001464FF07E5001F0C9FABAF1000F89DA71
:104A2000C6E702258DE7002CB5DA01F1004081E7E9
:104A3000014601F007FA7DE707B0BDE8F04F00F04E
:104A4000E5BA014601F0F4F8014601F0AFFA71E76A
:104A50003946384601F0ECF8014601F0A7FA69E75B
:104A6000746B0008F7FF7F3FB9F5000F80F20582F5
:104A70004FF09741009201F0E5F98146009A6FF0FE
:104A800017014FEAE953B448C9F316097F3B0B44B9
:104A900081451946009349F07E5740F3E581AF4BBD
:104AA000994540F33E820023184603930B46013399
:104AB00000930023A7F50007029001934FF07E5A60
:104AC00051463846059201F0B3F8514683463846C0
:104AD00001F0B0F801464FF07E5001F067FA014650
:104AE0000490584601F0AEF97910019B41F0005155
:104AF000B94601F5802120F47F670B4427F00F07AA
:104B0000194680463846019301F09CF90146584603
:104B100001F08EF851468346019801F089F801466C
:104B2000484601F085F8394601F08CF901465846AF
:104B300001F07EF8049B194601F084F94146834652
:104B4000404601F07FF98146854901F07BF98549AE
:104B500001F070F8494601F075F9834901F06AF8EF
:104B6000494601F06FF9814901F064F8494601F0C6
:104B700069F97F4901F05EF8494601F063F97D4922
:104B800001F058F849468246484601F05BF9014673
:104B9000504601F057F981463946404601F04AF83F
:104BA000594601F04FF9494601F044F8394682462A
:104BB000384601F047F97049019001F03BF8514641
:104BC00001F038F820F47F6929F00F09494638468A
:104BD00001F038F968490746484601F029F8019B79
:104BE000194601F025F80146504601F021F84146EA
:104BF00001F028F949468046584601F023F901465C
:104C0000404601F017F882460146384601F012F896
:104C100020F47F6929F00F094846584901F012F93C
:104C200039468046484601F003F80146504600F0F8
:104C3000FFFF534901F006F952490746484601F083
:104C400001F90146384600F0F5FF029900F0F2FF45
:104C50000746009801F0A2F881463946404600F028
:104C6000E9FFDDF80CB0594600F0E4FF494600F0DA
:104C7000E1FF20F47F6A2AF00F0A4946504600F00F
:104C8000D7FF594600F0D4FF414600F0D1FF01465E
:104C9000384600F0CDFF8046059A24F47F6424F066
:104CA0000F04013D55EA02032146304614BF4FF080
:104CB0007E57354F00F0BCFF514601F0C3F8314636
:104CC0000546404601F0BEF80146284600F0B2FF16
:104CD00021460646504601F0B5F88046304641462A
:104CE00000F0A8FF002881460446C24620F0004597
:104CF00040F30181B5F1864F00F3CF8000F0BF8013
:104D0000B5F17C5F00F3D1800025A94624F47F64CF
:104D100024F00F0420461D4901F094F851468046C6
:104D2000204600F085FF0146304600F081FF18491B
:104D300001F088F817490646204601F083F801463D
:104D4000304600F077FF06460146404600F072FF0D
:104D50004146044620E000BF71C41C00D6B35D008C
:104D600042F1533E55326C3E05A38B3EABAAAA3EA0
:104D7000B76DDB3E9A99193F000040400038763FFE
:104D80004F38763FA0C39D36000080BF0072313F90
:104D90001872313F8CBEBF3500F04AFF01463046E5
:104DA00000F046FF21468046204601F04BF80646BB
:104DB000854901F047F8854900F03AFF314601F096
:104DC00041F8834900F036FF314601F03BF8814954
:104DD00000F02EFF314601F035F87F4900F02AFF40
:104DE000314601F02FF80146204600F021FF06462B
:104DF0000146204601F026F84FF0804182463046B9
:104E000000F016FF0146504601F0D0F84146064634
:104E1000204601F017F8414600F00CFF01463046ED
:104E200000F006FF214600F003FF01464FF07E50E0
:104E300000F0FEFE4319B3F5000FC0F2C080184623
:104E4000394600F0FFFF75E502F00102C2F10205EC
:104E50007AE5624B99456EDD002C7FF79CAD604989
:104E6000084600F0EFFF65E5002319460393002391
:104E7000019302914FF07E5A22E6002101E6594942
:104E8000304600F0D7FE41468246484600F0D0FE4C
:104E90000146504601F092F938B13846504900F0C9
:104EA000D1FF4F4900F0CEFF44E5ED154FF400036C
:104EB0007E3D43FA05F52B19C3F3C7524A49C3F3A4
:104EC00016097F3A114149F40009C2F1170249FA63
:104ED00002F9002C23EA01014046B8BFC9F10009DC
:104EE00000F0A6FE01468246304600F0A3FE4FEADF
:104EF000C95504460AE73D4B9D420ADC7FF400AFEA
:104F0000414600F095FE0146304601F043F9002885
:104F1000CBD03846364900F095FF354900F092FF76
:104F200008E5344B4FF07F5A0393334B02934FF411
:104F300000130193C4E54FF07E51009200F078FE1B
:104F40002E49074600F07EFF2D498046384600F086
:104F500079FF4FF07A518146384600F073FF0146E1
:104F6000284800F065FE394600F06CFF01464FF01E
:104F70007C5000F05DFE39468246384600F062FF04
:104F80000146504600F05EFF1F4900F05BFF0146FE
:104F9000484600F04DFE01460746404600F04AFEF6
:104FA00020F47F6A2AF00F0A4146504600F040FE86
:104FB0000146384600F03CFE009A80466DE64946C0
:104FC00000F01AF93CE700BF4CBB31330EEADD3587
:104FD00055B38A38610B363BABAA2A3E0700803FA7
:104FE000CAF249713CAA3833FFFF7F000000164324
:104FF0006042A20D00C0153FDCCFD13500AAB83FFA
:1050000070A5EC36ABAAAA3E3BAAB83F20F00042FE
:10501000B2F1FF4F70B504462ED262B300280346AA
:105020003DDBB2F5000F4FEAE0502CD300263146AD
:105030007F38C3F31603C20743F4000348BF5B0085
:1050400040105B0019244FF080728D189D4202DCE5
:105050005B1BA9181644013C4FEA43034FEA520276
:10506000F3D113B106F001031E44761006F17C560D
:1050700006EBC05070BD70BD014600F0E3FE214656
:1050800000F0D8FD70BD14F4000201D00EE00A4615
:105090005B001C0202F10101F9D5801AC6E7014646
:1050A00000F0C6FD014600F081FF70BD4FF0FF32F9
:1050B000F3E700BF00207047F0B5C1F30A5EAEF21F
:1050C000FF36132E83B002460B460C464FEAD175CD
:1050D00007462EDC002E49DB3D49314103EA010041
:1050E00010432BD049080B4053EA02070CD04FF471
:1050F0008023132E24EA010143FA06F444EA010452
:105100000CBF4FF000470027324B214603EBC5058B
:10511000D5E90045384622462B4600F0E9F8CDE9AE
:105120000001DDE9000122462B4600F0DFF803B064
:10513000F0BD332E06DDB6F5806F45D0104619461A
:1051400003B0F0BDAEF2134E4FF0FF3121FA0EF175
:105150000842F3D049080842D6D04FF0804320EAF5
:10516000010143FA0EFE4EEA0107CDE721F00041AE
:1051700001431946E4D0C3F3130343EA000CCCF116
:10518000000343EA0C0C134B640C4FEA1C3C0CF478
:10519000002C03EBC5036404D3E900674CEA040167
:1051A00032463B4600F0A4F8CDE90001DDE90001FC
:1051B00032463B4600F09AF8024621F0004141EAAF
:1051C000C57310461946BBE700F092F8B8E700BF78
:1051D000FFFF0F00786B000820F00040704700BF11
:1051E00020F00040B0F1FF4FACBF0020012070471D
:1051F000004870470000C07F30F0004238B50346D9
:1052000016D0B2F1FF4F0FD2B2F5000F0D4610D3FA
:105210000446D20D2A44FE2A2EDC002A1DDD24F08D
:10522000FF4444EAC25038BD014600F003FD38BDDA
:1052300038BD4FF0984100F005FE184A03469542EC
:1052400007DBC0F3C7520446193AE3E7144800F0FD
:105250002BF8134900F0F6FD38BD12F1160F13DAE2
:105260004CF2503295421946F0DD0E4800F01CF821
:105270000C4900F0E7FD38BD19460A4800F014F863
:10528000084900F0DFFD38BD193224F0FF4040EA44
:10529000C2504FF04C5100F0D5FD38BDB03CFFFF7F
:1052A0006042A20DCAF2497101F0004120F00040B5
:1052B00008437047D0400B1CD1409C46203AD34055
:1052C0001843524263469340184370479140031C71
:1052D00090409C46203A9340194352426346D34043
:1052E0001943704781F0004102E000BF83F00043A2
:1052F00030B54FEA41044FEA430594EA050F08BF71
:1053000090EA020F1FBF54EA000C55EA020C7FEA34
:10531000645C7FEA655C00F0E2804FEA5454D4EBB1
:105320005555B8BF6D420CDD2C4480EA020281EA7B
:10533000030382EA000083EA010180EA020281EAB3
:105340000303362D88BF30BD11F0004F4FEA013105
:105350004FF4801C4CEA113102D0404261EB410114
:1053600013F0004F4FEA03334CEA133302D052429A
:1053700063EB430394EA050F00F0A780A4F1010456
:10538000D5F1200E0DDB02FA0EFC22FA05F2801890
:1053900041F1000103FA0EF2801843FA05F3594176
:1053A0000EE0A5F120050EF1200E012A03FA0EFCF5
:1053B00028BF4CF0020C43FA05F3C01851EBE3711F
:1053C00001F0004507D54FF0000EDCF1000C7EEB3C
:1053D00000006EEB0101B1F5801F1BD3B1F5001F7A
:1053E0000CD349085FEA30004FEA3C0C04F1010499
:1053F0004FEA445212F5800F80F09A80BCF1004FC2
:1054000008BF5FEA500C50F1000041EB045141EA43
:10541000050130BD5FEA4C0C404141EB010111F444
:10542000801FA4F10104E9D191F0000F04BF0146EF
:105430000020B1FA81F308BF2033A3F10B03B3F1CD
:1054400020020CDA0C3208DD02F1140CC2F10C025D
:1054500001FA0CF021FA02F10CE002F11402D8BFBB
:10546000C2F1200C01FA02F120FA0CFCDCBF41EA87
:105470000C019040E41AA2BF01EB0451294330BD56
:105480006FEA04041F3C1CDA0C340EDC04F1140433
:10549000C4F1200220FA04F001FA02F340EA03000A
:1054A00021FA04F345EA030130BDC4F10C04C4F150
:1054B000200220FA02F001FA04F340EA0300294630
:1054C00030BD21FA04F0294630BD94F0000F83F47A
:1054D000801306BF81F480110134013D4EE77FEA5D
:1054E000645C18BF7FEA655C29D094EA050F08BFA9
:1054F00090EA020F05D054EA000C04BF194610468A
:1055000030BD91EA030F1EBF0021002030BD5FEACD
:10551000545C05D14000494128BF41F0004130BDF5
:1055200014F580043CBF01F5801130BD01F0004549
:1055300045F0FE4141F470014FF0000030BD7FEABC
:10554000645C1ABF194610467FEA655C1CBF0B46B7
:10555000024650EA013406BF52EA033591EA030FCE
:1055600041F4002130BD00BF90F0000F04BF0021C6
:10557000704730B54FF4806404F132044FF00005F9
:105580004FF0000150E700BF90F0000F04BF002172
:10559000704730B54FF4806404F1320410F00045D8
:1055A00048BF40424FF000013EE700BF42004FEAD3
:1055B000E2014FEA31014FEA02701FBF12F07F4350
:1055C00093F07F4F81F06051704792F0000F14BF4D
:1055D00093F07F4F704730B54FF4607401F0004591
:1055E00021F0004120E700BF50EA010208BF7047E8
:1055F00030B54FF000050AE050EA010208BF7047DD
:1056000030B511F0004502D5404261EB41014FF445
:10561000806404F132045FEA915C3FF4DCAE4FF049
:1056200003025FEADC0C18BF03325FEADC0C18BF30
:10563000033202EBDC02C2F1200300FA03FC20FA81
:1056400002F001FA03FE40EA0E0021FA02F11444CE
:10565000C1E600BF70B54FF0FF0C4CF4E06C1CEAE3
:1056600011541DBF1CEA135594EA0C0F95EA0C0F58
:1056700000F0DEF82C4481EA030621EA4C5123EACB
:105680004C5350EA013518BF52EA033541F48011FA
:1056900043F4801338D0A0FB02CE4FF00005E1FBAD
:1056A00002E506F00042E0FB03E54FF00006E1FBF7
:1056B00003569CF0000F18BF4EF0010EA4F1FF043A
:1056C000B6F5007F64F5407404D25FEA4E0E6D417A
:1056D00046EB060642EAC62141EA55514FEAC5208B
:1056E00040EA5E504FEACE2EB4F1FD0C88BFBCF507
:1056F000E06F1ED8BEF1004F08BF5FEA500E50F1B8
:10570000000041EB045170BD06F0004646EA01017D
:1057100040EA020081EA0301B4EB5C04C2BFD4EBAF
:105720000C0541EA045170BD41F480114FF0000EA8
:10573000013C00F3AB8014F1360FDEBF002001F016
:10574000004170BDC4F10004203C35DA0C341BDC90
:1057500004F11404C4F1200500FA05F320FA04F062
:1057600001FA05F240EA020001F0004221F0004196
:1057700010EBD37021FA04F642EB06015EEA430E09
:1057800008BF20EAD37070BDC4F10C04C4F1200539
:1057900000FA04F320FA05F001FA04F240EA0200EC
:1057A00001F0004110EBD37041F100015EEA430EBD
:1057B00008BF20EAD37070BDC4F1200500FA05F2DD
:1057C0004EEA020E20FA04F301FA05F243EA02035C
:1057D00021FA04F001F0004121FA04F220EA02006B
:1057E00000EBD3705EEA430E08BF20EAD37070BDB1
:1057F00094F0000F0FD101F00046400041EB010191
:1058000011F4801F08BF013CF7D041EA060195F072
:10581000000F18BF704703F00046520043EB03032C
:1058200013F4801F08BF013DF7D043EA0603704719
:1058300094EA0C0F0CEA135518BF95EA0C0F0CD024
:1058400050EA410618BF52EA4306D1D181EA03016A
:1058500001F000414FF0000070BD50EA410606BF64
:105860001046194652EA430619D094EA0C0F02D1A9
:1058700050EA013613D195EA0C0F05D152EA0336EE
:105880001CBF104619460AD181EA030101F000410C
:1058900041F0FE4141F470014FF0000070BD41F055
:1058A000FE4141F4780170BD70B54FF0FF0C4CF42F
:1058B000E06C1CEA11541DBF1CEA135594EA0C0F4E
:1058C00095EA0C0F00F0A7F8A4EB050481EA030E9B
:1058D00052EA03354FEA013100F088804FEA033382
:1058E0004FF0805545EA131343EA12634FEA022250
:1058F00045EA111545EA10654FEA00260EF0004111
:105900009D4208BF964244F1FD0404F5407402D262
:105910005B084FEA3202B61A65EB03055B084FEAF3
:1059200032024FF480104FF4002CB6EB020E75EBF0
:10593000030E22BFB61A754640EA0C005B084FEA18
:105940003202B6EB020E75EB030E22BFB61A754695
:1059500040EA5C005B084FEA3202B6EB020E75EBE0
:10596000030E22BFB61A754640EA9C005B084FEA58
:105970003202B6EB020E75EB030E22BFB61A754665
:1059800040EADC0055EA060E18D04FEA051545EA54
:1059900016754FEA06164FEAC30343EA52734FEAFD
:1059A000C2025FEA1C1CC0D111F4801F0BD141EA76
:1059B00000014FF000004FF0004CB6E711F4801FDB
:1059C00004BF01430020B4F1FD0C88BFBCF5E06FBB
:1059D0003FF6AFAEB5EB030C04BFB6EB020C5FEACB
:1059E000500C50F1000041EB045170BD0EF0004E20
:1059F0004EEA113114EB5C04C2BFD4EB0C0541EA52
:105A0000045170BD41F480114FF0000E013C90E64E
:105A100045EA060E8DE60CEA135594EA0C0F08BF12
:105A200095EA0C0F3FF43BAF94EA0C0F0AD150EA11
:105A300001347FF434AF95EA0C0F7FF425AF1046A4
:105A400019462CE795EA0C0F06D152EA03353FF4CC
:105A5000FDAE1046194622E750EA410618BF52EA49
:105A600043067FF4C5AE50EA41047FF40DAF52EA1D
:105A700043057FF4EBAE12E74FF0FF3C06E000BFBA
:105A80004FF0010C02E000BF4FF0010C4DF804CDC7
:105A90004FEA410C7FEA6C5C4FEA430C18BF7FEA87
:105AA0006C5C1BD001B050EA410C0CBF52EA430CB5
:105AB00091EA030F02BF90EA020F0020704710F135
:105AC000000F91EA030F58BF994208BF90422CBFC4
:105AD000D8176FEAE37040F0010070474FEA410CBD
