:020000040800F2
:10000000D01A0020A11000089D1000089D100008C3
:100010009D1000089D1000089D10000800000000C1
:100020000000000000000000000000009D1000081B
:100030009D100008000000009D1000087D1A0008B7
:100040009D1000089D1000089D1000089D100008DC
:100050009D1000089D1000089D1000089D100008CC
:100060009D1000089D1000089D1000089D100008BC
:100070009D1000089D1000089D1000089D100008AC
:100080009D1000089D1000089D1000089D1000089C
:100090009D1E0008391F00089D100008ED3500085E
:1000A0009D1000089D1000089D1000089D1000087C
:1000B000513600089D1000089D1000089D10000892
:1000C0009D1000089D1000089D1000089D1000085C
:1000D0009D1000089D1000089D1000089D1000084C
:1000E0009D1000089D1000089D10000800000000F1
:1000F0000000000000000000000000000000000000
:1001000000000000000000005FF808F1224A0388A8
:1001100090429BB212D002F5006290420ED0B0F134
:10012000804F0BD0A2F59832904207D002F5806242
:10013000904203D002F58062904203D14A8823F0B6
:1001400070031343154A904208D002F58062904232
:100150001FBF23F44073CA889BB2134303808B886C
:1001600083850B8803850C4B98420FD003F5006301
:1001700098420BD003F54063984207D003F58063A3
:10018000984203D003F58063984201D10B7A03862D
:1001900001238382704700BF002C01400010004003
:1001A000038C70B523F001031B041B0C0384028C29
:1001B0008688038B0D8823F073031B041B0C1D43DF
:1001C00022F002020C894B881204120C23431343C1
:1001D000144AB6B290429BB20FD002F50062904230
:1001E0000BD002F54062904207D002F58062904247
:1001F00003D002F5806290420ED14C8923F00803AF
:100200001C438B8824F0040426F4407223438E8917
:10021000CC893443224396B2CA888680058382867D
:10022000038470BD002C0140038819B19BB243F0D8
:10023000010303E023F001031B041B0C0380704740
:1002400083899BB20AB1194301E023EA010181814C
:100250007047FFF7F5BF038A828911EA030092B263
:1002600003D0114214BF012000207047C94389B256
:1002700001827047384B82B01A6842F001021A605E
:100280005968364A0A405A601A6822F0847222F489
:1002900080321A601A6822F480221A605A6822F4A6
:1002A000FE025A604FF41F029A60002200920192EF
:1002B0001A6842F480321A601A6802F4003201921D
:1002C000009A01320092019A1AB9009AB2F5A06F11
:1002D000F2D11A6812F4003218BF01220192019A79
:1002E000012A05D01E4B4FF000629A6002B07047A1
:1002F0001C4A116841F010011160116821F00301DE
:100300001160116841F0020111605A685A605A6820
:100310005A605A6842F480625A605A6822F47C1229
:100320005A605A6842F4E8125A601A6842F08072C1
:100330001A601968084A8901FBD5516821F0030148
:100340005160516841F0020151605A6802F00C029C
:10035000082AFAD1C6E700BF001002400000FFF8EB
:1003600000ED00E0002002402DE9F047089D01F07B
:1003700007044FEAD508224405F007054FF47F49EA
:1003800000EBD100944227D005F0070604F0070ADD
:10039000B245D44638BFB446CCF10801C4EB020CD8
:1003A0008C4528BF8C46E708C75D29FA0CFE08EB90
:1003B000D50107FA0AF75FFA8EFE4EFA06FE47FAF3
:1003C00006F65F5C06EA0E0627EA0E0E46EA0E0601
:1003D0005E5464446544D5E7BDE8F0870246006892
:1003E00048B1036811891360D38801339BB29942E5
:1003F000D38038BF1381704770B504460D4688B06E
:1004000020220021684605F069FC20460495FFF78C
:10041000E5FF054658B16B46044608AE1A4603CAC6
:10042000B24220606160134604F10804F6D1284608
:1004300008B070BD2DE9F0410568DDB18E68A846B1
:1004400026F06047BB0C4FEAD67EC6F3807C2A4676
:1004500037EA260628BF1E469368BEEBD37F23F0FB
:1004600060440ED0002B08DAA40CB44207D19542A8
:1004700013D10D600160BDE8F081B44212D0A642F4
:1004800006E0A74203D1C3F380739C4503D1A74282
:100490002CBF002301232BB1E9E7C8F800100A6044
:1004A000BDE8F0811368904613B91160BDE8F08192
:1004B0001A46D1E7F8B506460F464FF6FF740025F9
:1004C0002A463046394604F085FAC0B284EA002450
:1004D000082314F4004F4FEA4404A4B21CBF84F470
:1004E000815484F00104013BF3D10835402DE7D15C
:1004F0002046F8BD10B54B6843B1C4681A681C604B
:10050000C360438A013B43824A60F4E70A8B0020C0
:1005100063F309020A83002110BD0A44914211D0FD
:1005200011F8013B80EA0320082310F4004F4FEA42
:10053000400080B21CBF80F4815080F00100013B7C
:10054000F3D1EBE770472DE9F04F85B081468DE898
:100550000A00BDF83C409346002A7DD024B10E9B92
:10056000002B79D0072C27D809F10C00FFF736FFB4
:10057000054610B96FF0020070E02022002105F05E
:10058000ADFB22460E9905F1100005F031FB631C0E
:100590002B769BF800302C4403F01F0363F03F03DD
:1005A0002374009B09F11C0043F00043AB60294613
:1005B000FFF740FF012051E04FF000084646454656
:1005C000019B4FF0800A1B0A029300F10C03039376
:1005D0000398FFF703FF07460028CBD02022002115
:1005E00005F07CFB3EB99DF8043002223B749DF877
:1005F00008307B740BE0002209E00E9BB918013231
:10060000985DD2B20136072A0874B6B201D0B4425E
:10061000F3D8A64208BF4FF0400A9BF80010B81864
:1006200001F01F0141EA481141EA0A030374009BEB
:10063000013243F00043BB603A76394609F11C00B1
:10064000FFF7F8FEA64205F1010588F001084FF01A
:10065000000ABDD1284601E06FF0010005B0BDE8F9
:10066000F08F2DE9F04717460A8B9946C2F309022D
:10067000C2F10603002B0646884618DD00201FFA4B
:1006800089F185B253199BB2052B09D9A9420FD81C
:10069000B8F818300A4462F30903A8F818306BE080
:1006A000A942F3D93C5C43449C760130E9E700253C
:1006B000911F1C23B1FBF3FA03FB1A1AD8F804406C
:1006C0005FFA8AF10CB1012329E03046FFF786FE7C
:1006D000044608B100230360C8F80440CCB96FF0A9
:1006E0000200BDE8F0874A44063A1C20B2FBF0F253
:1006F0000132D2B293420DD2BAF1000F0AD1304684
:10070000FFF76CFE08B1C0F800A020600028E6D01A
:10071000044600211FFA89F94FF0000A11E0206811
:100720000028E0D00133DBB20446F8E7A318013219
:10073000785D92B201351C2A1871ADB205D0A94579
:10074000F4D84D450FD28AB2F0E7A945F9D9304621
:10075000FFF744FE08B1C0F800A020600028BED01A
:1007600004460021EDE7B8F81820C2F309039944C4
:1007700069F30902A8F818200120BDE8F087F8B550
:10078000044616460D46242200211F4605F0A6FA0F
:10079000069B72096360079B002023624FF6FF737C
:1007A0009A4228BF1A4629460346A760207097B28E
:1007B00004F10C06934204D0316001330E4620311F
:1007C000F8E70023336027826382A382F8BD0378B1
:1007D0001BB94BB2002BC8BF01707047007870473F
:1007E0002DE9F7430D9F8046BDF828400B9E9DF8EC
:1007F0003090BDF838500FB9002D3FD1B9F11F0F1F
:100800003CD898F80010A9B9072D34D834F0030368
:1008100034D12A4639464FF6FF70FFF77EFE47F681
:10082000FE73240204F4407444EA0964034044EA79
:1008300043240FE041EA0421072D41EA096409D964
:1008400019461046FFF736FE2A463946FFF765FE81
:10085000034601E04FF6FF730195009732462146AB
:100860004046FFF770FE33780133DBB21F2B88BFA1
:100870000023337004E06FF0030001E06FF001002B
:1008800003B0BDE8F0832DE9F7430E9F81460C4687
:10089000104619460B9D9DF830209DF83480BDF818
:1008A0003C6007B976BB1F2A2CD899F8003063B397
:1008B00043F0800343EA04239DF8284043EAC83309
:1008C00043EA0443072E43EA026407D9FFF7F2FD27
:1008D00032463946FFF721FE034601E04FF6FF732B
:1008E000019600972A4621464846FFF72CFEB8F1AC
:1008F000010F0CD12B780133DBB21F2B88BF0023F3
:100900002B7004E06FF0010001E06FF0030003B012
:10091000BDE8F083C06900B108307047C3691A6848
:10092000C261C2681A60C360438A013B4382704758
:100930002DE9F047D0F818A0054616461F46544644
:10094000DFF868804FF00009002C2CD0D4E9022396
:10095000B21A67EB0303994508BF904520D2AB69F3
:1009600021469C4228460DD1FFF7C4FDAB691B68A8
:10097000AB61EB6823606B8AEC60AC69013B6B8216
:10098000A246E1E7FFF7B6FD2368CAF80030EB683E
:1009900023606B8AEC60013B6B82DAF80040D3E79E
:1009A000A2462468D0E7BDE8F08700BF80841E001F
:1009B0002DE9F04F8BB00E4614460793149F8246E4
:1009C000002800F0FF80002F00F0FC80531E3F2B1A
:1009D00000F2F880012A03D1079B002B40F0F2803F
:1009E000BAF814500023ED00AE420893099301D3E6
:1009F000002505E133199D42DAF80C303ABFAD1BF2
:100A0000EDB225461BB9DAF81030002B61D02F2E3D
:100A100015D8C6F13008A84528BFA8460023009382
:100A20005FFA88FB4246314608ABDAF808004644D4
:100A3000CBEB0508FFF798FC5FFA88F802E0A846C0
:100A40004FF0000BBAF81430302103F10053063B8D
:100A5000DB000493DAF80C300393039B6BB3B8F11B
:100A6000000F2AD0049BE02B28BFE02306930B4401
:100A7000B342059318D9C6EB0309C84538BFC14630
:100A8000039828BF5FFA89F9CDF800B0711A08AB56
:100A90004A460430FFF768FCCB44C9EB08084E44D3
:100AA0005FFA8BFB5FFA88F8049B069A05999B1AFC
:100AB0000493039B1B680393CFE7DAF8100080B11F
:100AC000B8F1000F0DD0CDF800B008AB4246711A56
:100AD00005E02A4631460093DAF8080008ABFFF734
:100AE00043FC002D84D066070BD00AAB03EBD40186
:100AF00011F8082C634203F0070342FA03F301F8EC
:100B0000083C082C06D9102C06D9202C8CBF0823B1
:100B1000042302E0012300E00223079A002A57D0B1
:100B2000B4EBC30F56D0082C0ED89DF92020631EBD
:100B300022FA03F3D80760D54FF0FF3303FA04F429
:100B400014438DF8204058E0102C0ED8BDF9202019
:100B5000631E22FA03F3D90743D54FF0FF3303FA9C
:100B600004F41443ADF820403BE0202C0CD8089B43
:100B7000621E23FA02F2D20737D54FF0FF3202FA93
:100B800004F42343089330E0402C1ED0DDE90889AB
:100B9000621E4046494603F01DFF002100F001009F
:100BA00050EA010324D022460120002103F01EFF59
:100BB000404261EB410140EA080041EA0901CDE908
:100BC000080115E06FF001051AE06FF0080517E065
:100BD000012C12D0082C10D9102C02D9202C07D8A7
:100BE00003E0BDF820303B800AE0089B3B6007E053
:100BF000DDE90823C7E9002302E09DF820303B70BF
:100C000028460BB0BDE8F08F30B5402A85B018D823
:100C1000002A08BF01220024012A0294039401D073
:100C2000082A03D81B788DF808300FE0102A03D863
:100C30001B88ADF8083009E0202A03D81B6802930E
:100C400004E04022D3E90045CDE9024553070BD02B
:100C500004AB03EBD20515F8084C534203F007032D
:100C600004FA03F305F8083C00910346002102A8AA
:100C7000FFF77AFB05B030BD10B5CB6843B1C4684F
:100C80001A681C60C360438A013B4382CA60F4E770
:100C90008B600B618B8210BD2DE9F04FD1F800A065
:100CA0008FB0CDE90223CAF3C01204460D4622B12B
:100CB000CAF3C03BCAF3062802E090464FF0020B8D
:100CC000BAF1000F80F2BB812B6813F0C04F40F0E7
:100CD000B6812B7C002B00F0B281BBF1020F03D058
:100CE0002178414540F0AB810AF07F01C8B2059000
:100CF00012B1CAF3074904E0CAF30F2909B909F090
:100D000003092B444FEA4868059ADE7948EA0B4804
:100D100048EA8248F30948EA090804932BD00022E4
:100D200000230EA961E90823059B676800934A46E2
:100D30005B462046B847002800F08181A7694FB97B
:100D4000414604F10C00FFF757FB074688B976E1EE
:100D50003F681FB13B699845FAD115E0414604F15F
:100D60000C00FFF749FB0746002800F06881A369E3
:100D70003B60A76108E0A769002F00F060813B6934
:100D8000984506D03F68F7E7DDE90601FFF792FBDB
:100D9000F88297F819E006F01F08CEF3840EB8EB3E
:100DA0000E0ED7E9022348BF0EF1200E52EA0301CE
:100DB000CAF3046A00F02E81DDE90201801A61EBBA
:100DC00003010B46024600219E48994208BF90420B
:100DD000C0F02081049B5BB3BEF1010F00F31A81C8
:100DE000730625D5DDE902230021C7E9022306A801
:100DF000202204F073FFDDE90223CDE9062305F18B
:100E0000080308932B7CADF82E90013BDBB2ADF8C4
:100E10002C309DF814308DF830B08DF833308DF8CB
:100E200031808DF832A0A36806A920469847DEE0FD
:100E30007B7EC6F34012B2EBD31F40F00081C3F3B8
:100E40008403434540F0FB80049A2B7CB609002ABA
:100E500033D016F001065ED1032B40F2F080DDE9BD
:100E60000223C7E902232B7C05F10A08033BDBB20E
:100E70004246394604F10C00FFF7F3FB002812DA72
:100E800039462046FFF736FB7B7EC3F384020132EE
:100E900062F386037B763B8B66F309033B831B0A75
:100EA00066F3C713B4E06A7A2B7A414643EA022319
:100EB000BB822A7C033AD2B223E066BB05F1080666
:100EC000013BDBB23246394604F10C00FFF7C9FBA7
:100ED000002812DA39462046FFF70CFB7B7EC3F36D
:100EE0008402013262F386037B76049A3B8B62F3C1
:100EF00009033B83049A1B0A88E031462A7C013AA5
:100F0000D2B2F88AFFF709FB7B7EF882C3F3C012E6
:100F100082F001027AE0388B013BC0F3090005281A
:100F2000DBB212D8EE1D0021CAB2934228D901319A
:100F300000EB010E16F801CF07EB0E02BEF1060F13
:100F400082F819C0CAB2EFD11AE07E68BEB106229B
:100F5000316811B11C320E46FAE7801A05F1070C10
:100F600000EB010EBEF11B0FCAB209D89A4207D29C
:100F70001CF8012FB6448EF804200131F0E7324608
:100F8000DDE902019A42CDE9060107F11A01089153
:100F900038BF0832796834BF5219002209910A9289
:100FA0003A8BADF82E90C2F309021344ADF82C3001
:100FB0009DF814308DF830B08DF8333000238DF863
:100FC00031808DF832A07B602A7CF88A013A05F1E5
:100FD0000801FFF7A2FABB8AF882834203D1A36813
:100FE00006A92046984706A92046FFF745FE7B7EC6
:100FF000C3F38402013262F386037B763B8B6FF38B
:1010000009033B831B0A6FF3C71301E062F3C713A5
:101010007B7614E07B7E394666F386036FF3C71355
:101020007B762046FFF766FA049B002B7FF4D8AE50
:101030007B7EC3F38402013262F38603E8E70FB0DC
:10104000BDE8F08F80841E00034651F8100F8A8897
:1010500018609A801846704720F00043B3F1FF4FA4
:1010600010B500F0004405D347F6FF7008BF4FF4F9
:10107000F8400EE008484FF0F061184003F0D0FD52
:1010800000F58050B0F1786F88BF4FF07860C0F302
:101090004F3040EA144010BD00F0FF7FFEE7000033
:1010A00008B50C4A0C4B0D498B4204D252F8040F80
:1010B00043F8040BF8E70A480A494FF00002884257
:1010C000B8BF40F8042BFADBFFF7D4F8BDE80840BE
:1010D00003F00ABC00640008000000206C0400203B
:1010E00070040020D016002043690AB1194301E0C2
:1010F00023EA010141617047B1F5807F35D00CD8FA
:10110000082924D004D801291CD004291DD07047F7
:1011100020291FD040291FD07047B1F5006F22D081
:1011200006D8B1F5007F20D0B1F5806F1DD0704793
:10113000B1F5803F13D0B1F5003F12D0B1F5004FAB
:1011400015D110E00A4B83607047082300E010239C
:10115000C3607047082300E0102303617047082331
:1011600004E0102302E000238361042343607047FE
:1011700001010100CA782DE9F041D40648BF8C78FE
:101180000E8802F00F0348BF234316F0FF0F1ED056
:10119000016800244FF0010E4FF00F0C0EFA04F717
:1011A00037EA06050FD1A5000CFA05F821EA080177
:1011B00003FA05F5282A41EA050101D1476102E059
:1011C000482A08BF07610134082CE7D10160FF2ECF
:1011D00020D9416800244FF0010E4FF00F0C04F1AC
:1011E00008050EFA05F535EA06070FD1A7000CFA37
:1011F00007F821EA080103FA07F7282A41EA07015C
:1012000001D1456102E0482A08BF05610134082C7C
:10121000E5D14160BDE8F0810161704741617047EF
:101220000028164A30B500F44015B4BFD36953689E
:10123000B5F5401F84B206D1556823F0706325F0E0
:10124000706555600EE0C20255BF420D03221201C7
:10125000C0F303454CBFAA4004FA02F223EA02039A
:1012600043F0706319B1420D120194402343034AC5
:101270000028B4BFD361536030BD00BF00000140FF
:1012800001F0030301F0FC0101F1804101F580311F
:1012900010B59B008C680F229A4024EA02028A60F3
:1012A0008A6898401043886010BD0000034A536864
:1012B00023F4404318435060704700BF00100240C1
:1012C000044B9A6909B1104301E022EA00009861D9
:1012D000704700BF00100240044BDA6909B11043A7
:1012E00001E022EA0000D861704700BF0010024010
:1012F000827970B50168037942B3CE43184A03F18D
:101300008043156803F582333540156054683440D6
:1013100054601C682143196001689468CD432C40D7
:101320009460D3682B40D3604379102B06D1936827
:101330000B439360D3681943D16070BD03F18043C0
:1013400003F582331A681143196070BD03F18043BD
:1013500003F582331A6822EA01021A6070BD00BFE9
:1013600000040140054B1A685B69034004D0024247
:1013700014BF012000207047184670470004014048
:10138000014B5861704700BF00040140436810B52D
:1013900023F470220B6822F4807213430A7943EA23
:1013A00002234360CA688B6884681A43084B234051
:1013B00013434A7943EA42038360C36A23F4700209
:1013C0000B7C013BDBB242EA0353C36210BD00BF9A
:1013D000FDF7F1FF836811B143F0010301E023F051
:1013E000010383607047836843F00803836070479C
:1013F0008068C0F3C0007047836843F004038360D3
:1014000070478068C0F380007047836811B143F46F
:10141000A00301E023F4A00383607047092970B59D
:101420000DD9A1F10A04C66804EB44040725A540C0
:1014300026EA050503FA04F42C43C4600AE00669B1
:1014400001EB41040725A54026EA050503FA04F44B
:101450002C430461062A0CD8013A446B02EB820249
:101460001F23934024EA030301FA02F21A43426362
:1014700070BD0C2A0CD8073A046B02EB82021F23C2
:10148000934024EA030301FA02F21A43026370BD97
:101490000D3AC46A02EB82021F23934024EA03033D
:1014A00001FA02F21A43C26270BDC06C80B270478A
:1014B000034B044A5A6002F188325A60704700BFF9
:1014C0000020024023016745FFF7F2BF024A13697B
:1014D00043F080031361704700200240FFF7F6BF1E
:1014E000084BDA68D10709D4DA68520708D4DB68F8
:1014F00013F0100F14BF0320042070470120704721
:10150000022070470020024010B50446FFF7E8FFB4
:10151000012806D11CB1FFF7E3FF013CF8E70520E5
:1015200010BD002C08BF052010BD000070B5054699
:101530004FF400500E46FFF7E7FF04280ED1084C89
:101540004FF40050236943F0010323612E80FFF71D
:10155000DBFF41F6FE7322691340236170BD00BFBB
:101560000020024073B5002306464FF400500D469C
:101570000193FFF7C9FF04281AD10E4C4FF4005015
:10158000236943F001032361ABB23380FFF7BCFF53
:10159000042808D102360196019B2D0C1D804FF4C2
:1015A0000050FFF7B1FF41F6FE732269134023613B
:1015B00002B070BD0020024038B505464FF430201F
:1015C000FFF7A2FF042812D1094C4FF43020236901
:1015D00043F0020323616561236943F04003236103
:1015E000FFF792FF41F6FD7322691340236138BD76
:1015F00000200240C27810B503780AB3164A03F1FE
:101600006043D1684278C943C1F30221C1F10404A7
:1016100002FA04F40F22CA40817803F561430A40BC
:1016200022431201D2B283F8002303780122590920
:1016300003F01F0302FA03F3084A42F8213010BDF9
:101640005A09012103F01F0301FA03F30349203271
:1016500041F8223010BD00BF00ED00E000E100E0E5
:10166000410746BFC30843F00043430D820748BF0C
:1016700043F0804318467047094B9A6912F0700F87
:101680000DD000229A61074A516801315160127FE2
:1016900012B99B695B0702D5034A014B9A607047F8
:1016A0000064004070040020808080000000000082
:1016B00070B50C4615461E46FFF790F850B9022E3D
:1016C0000AD1012D08D122A3D3E900232846C4E979
:1016D000002303E0002001E04FF6FF7000B2012874
:1016E00032D001302FD0012E2DD1013D0A2D2AD824
:1016F000DFE805F00629290D14292929291B2200D4
:1017000015A3D3E900230120C4E9002370BD14A36D
:10171000D3E900230120C4E9002370BD12A3D3E95B
:1017200000230120C4E9002370BD11A3D3E90023E5
:101730000120C4E9002370BD0FA3D3E900230120D9
:10174000C4E9002370BD002070BD00BFAFF300806E
:10175000401DA12026812A0B9E6AC421818A46EE63
:10176000042B31ECA7766FBEF017304A39059E5630
:10177000CDD269EBC51A133BD5A4D139F922B6A74E
:1017800010B50E4C3823E360204623610221FFF799
:10179000B3FC20461021FFF7AFFC094A0023138059
:1017A000084A2046138002210122FFF79DFC2046B3
:1017B000BDE8104001221021FFF796BC00640040F4
:1017C0001C0500201E05002000EB80004300184689
:1017D0000138FDD87047402808B5024609D8BDE851
:1017E0000840C0EB401002EB8000C00080B2FFF761
:1017F000EBBF4FF47A70FFF7E7FF013A92B2002A8D
:10180000F7D108BD38B5044604F0C6FB80B20246E5
:10181000002330B1013880B2215C2E2908BF034675
:10182000F7E713B9013A202010E0013B202182B2F2
:101830009A4205DAA55C0130302D0AD1A154F6E7B1
:1018400038BD655C0133302D03D1605499B29142AB
:10185000F7DB38BD0309092B00F00F0094BF3033CC
:10186000373309280B7094BF30303730002348706D
:101870008B70704713B50A46044601A9C0B2FFF742
:10188000E9FF200A1146FFF7E5FF9DF80430937049
:101890009DF80530D3709DF80630137102B010BD6D
:1018A00013B50A46044601A9C0B2FFF7D3FF9DF85D
:1018B000043001A993719DF80530C4F30720D3715A
:1018C000FFF7C8FF9DF8043001A913719DF805309A
:1018D000C4F307405371FFF7BDFF9DF8043001A921
:1018E00093709DF80530200ED370FFF7B3FF9DF87D
:1018F000043013709DF8053053700023137202B04A
:1019000010BDF8B50D46069C002121702978752977
:1019100031D16E78632E01D1017807E0692E01D1B3
:10192000018803E06C2E40F0A7800168AF78682F33
:1019300017D1632E05D12146BDE8F8400078FFF7A6
:1019400089BF692E05D12146BDE8F8400088FFF720
:1019500091BF6C2E33D12146BDE8F8400068FFF7F7
:101960009FBF2B2F2BD111B12770012628E02020FB
:101970002070012624E073297ED16978632902D181
:1019800090F9001007E0692902D1B0F9001002E0D7
:101990006C2971D10168A8782B280AD1002903DAB3
:1019A0002D202070012608E008BF2020207001268D
:1019B00006E000294FF0000602DA494200E0002666
:1019C000174618464FF0300E002806DA013FBFB226
:1019D000013004F807E000B2F6E703EAE3731344CA
:1019E00018BF01309BB218BF00B20A274FF02E0C6F
:1019F0009E4210D2013B9BB2C3EB020E86451FBF35
:101A0000B1FBF7FE07FB1E113031E1540CBF04F8A7
:101A100003C07146ECE70023A3547A21284604F062
:101A2000F5F948B3AB782B2B0FD1601CFFF7EAFE1A
:101A3000204604F0B1FA0123834205D2E25C202A59
:101A40000BD101339BB2F7E7F8BD2046FFF7DAFE72
:101A5000204604F0A1FA01230BE02278234403F886
:101A6000012C20232370F8BDE25C202AF5D101333C
:101A70009BB28342F8D3F8BDF8BD0000034B0122AE
:101A8000DA831A6A01321A62704700BF70040020BC
:101A90000B4B0021D98319620A4B0B4A1B68F020BB
:101AA000B3FBF2F34FF47A725343084A013B53609D
:101AB000074B83F82300072391601360704700BF32
:101AC000700400200000002040420F0010E000E001
:101AD00000ED00E02DE9F84F254B264D01281CBFF5
:101AE000AA461D46894614462349244A06BF9A46FB
:101AF00088469046FFF7E8FC2846FFF75DFD04287E
:101B0000074630D14FF6FF7BB9F1000F08BF4FF405
:101B10007A74013405F1100624F001043444C5EB55
:101B20000A0AA64217D0B9F1000F03D13AF80610FD
:101B300089B203E0731B4B4433F8101C594501D1A3
:101B40000236EEE7B0450DD93046FFF7EFFC04282A
:101B50000746F5D007E04FF011312846FFF702FDA8
:101B6000074600E08027FFF7B9FC3846BDE8F88F4C
:101B700000E0010800E40108FFE70108FFE30108B5
:101B800010B5FFF7A1FC0748FFF716FD042804462F
:101B900003D10548FFF710FD0446FFF79FFC2046E0
:101BA00010BD00BF00E0010800E401080131C1F3ED
:101BB0004F0100239AB291420AD9B3F5FC7F09D0B4
:101BC000054A1A445200128820F813200133F1E725
:101BD000042070478020704708F0000438B50A469A
:101BE00004460D4601460020FFF774FFC0B20428EA
:101BF00001D080B238BD2A4621460120FFF76AFF96
:101C0000C0B238BD38B5164B1D68D3F80044B5F1E5
:101C1000113F07D1B4F1113F01D104201DE0621C36
:101C20000ED104E06B1C0BD1B4F1113F08D100229E
:101C300011460120FFF74EFFC0B204280DD1ECE79A
:101C4000FFF79EFFC0B2042807D1013504D101344B
:101C500014BF4020202000E0402080B238BD00BFEB
:101C600000E001081FB501214FF40060FFF728FBD9
:101C70000023ADF80A30ADF806304FF6FF73ADF82B
:101C80000830094B094A1B68094CB3FBF2F304A95D
:101C9000013B21F80C3D2046FEF738FA0121204691
:101CA000FEF7C2FA04B010BD0000002040420F0051
:101CB000002C014072B6064B9B8C9BB262B6054A63
:101CC00091889380994282BF1168013111607047F9
:101CD000002C01403006002030B472B60D4B988CB9
:101CE00080B262B60C490B8AD1E90245834204D91D
:101CF000013445F10005C1E902452B04220443EA01
:101D00001443141843F1000508822046294630BCCC
:101D1000704700BF002C01403006002008B50120AC
:101D2000FFF7A0FF064B00219A8C064B92B2196078
:101D3000002000219A80C3E902011A8208BD00BF79
:101D4000002C01403006002070B504460646044DC4
:101D50000FCD0FC495E8070084E80700304670BD3A
:101D600070040020044B986800F0E05000F16443D8
:101D700058425841704700BF006400402DE9F341CC
:101D8000054600287DD0046814F000547CD1FFF78C
:101D900073FC3F4B9A6802F0E052B2F1E05F51D021
:101DA0009A682646C2F380628DF804209A689B6880
:101DB000C2F3C062C3F300738DF805208DF80630BE
:101DC000FF2401ABF35C0BB1F4B234E0330103F157
:101DD000804303F5CB431868FFF742FC2F684FEAB6
:101DE000D07C4FEAD778E04527F0604320F060428E
:101DF00007F0004E00F0004110D0BEF1000F00D0FF
:101E00009B0C19B1900C984215D002E09A4217D061
:101E1000104683422CBF002001200BE0934205D1E5
:101E2000C0F38070C7F38077874203D193422CBF01
:101E30000020012020B10136032EC2D1FF2C01D198
:101E4000002022E023012A7C03F1804303F5CB43E9
:101E50005A60EA682968DA60AA6800299A60BABFFD
:101E6000CA0042F004024A05490048BF42F002029B
:101E700042F001021A60074A01205369013353619D
:101E800003E06FF0010000E0034802B0BDE8F0811C
:101E9000006400407004002015FCFFFF2DE9F041B4
:101EA000204F214A3D881388013505F03F059BB23C
:101EB0009D4290461D4C1CD01D4EF368DB0642BF70
:101EC000236801332360D6F8B001FFF7C9FB18235C
:101ED0006B431849C850CA18D6F8B43103F00F0341
:101EE0001374D6F8B8319360D6F8BC31D3603D8016
:101EF00002E0A3680133A3603B889AB2B8F80030CF
:101F00009BB2D31A228A48BF40339342C4BF074AC8
:101F10001382A36938220133A361054BDA60BDE85F
:101F2000F08100BF1E0500201C0500207004002069
:101F300000640040500700202DE9F041204F214A65
:101F40003D881388013505F03F059BB29D429046C0
:101F50001D4C1CD01D4E3369DB0642BF2368013384
:101F60002360D6F8C001FFF77BFB18236B431849A9
:101F7000C850CA18D6F8C43103F00F031374D6F84A
:101F8000C8319360D6F8CC31D3603D8002E0E3687D
:101F90000133E3603B889AB2B8F800309BB2D31AA1
:101FA000228A48BF40339342C4BF074A1382A369C1
:101FB00038220133A361054B1A61BDE8F08100BFEF
:101FC0001E0500201C050020700400200064004055
:101FD00050070020F8B500B3FFF74EFB114D124B30
:101FE0001A882B8892B29BB29A4219D02A880F4C39
:101FF0000132182302F03F0203FB0244034604F1BE
:102000001807264603CEBE4218605960344603F1D5
:102010000803F6D12A800120F8BD6FF00100F8BD59
:102020000020F8BD1C0500201E05002050070020E0
:1020300037B514230024012501A88DF804308DF84C
:1020400005408DF806408DF80750FFF7D3FA1523A9
:1020500001A88DF804308DF805408DF806408DF804
:102060000750FFF7C7FA03B030BD0000012810B5D4
:1020700003D1BDE81040FFF783BB0E4C00220221C4
:102080002046FFF731F8002210212046FFF72CF8F8
:1020900002212046FFF730F810212046FFF72CF8E8
:1020A0003823054AE360236100231380034A138029
:1020B00010BD00BF006400401C0500201E0500206C
:1020C000032970B504460D463ED800283CD003884D
:1020D000013B9BB2B3F5806F36D2C388013B9BB204
:1020E000032B31D84388013B9BB20F2B2CD883881C
:1020F000013B9BB2072B27D8474E1C2230460021BC
:1021000003F0ECFDAA1E534253413377434B0022A8
:102110005A611A684FF47A7622F002021A601A683D
:1021200042F001021A601A4653683C49DB070ED49C
:102130004FF47A70FFF748FB013EF5D14FF40043AE
:102140000B606FF47A7070BD6FF0010070BD612399
:102150000B60E2886388013A013B12061B0403F41A
:10216000702302F040721A432388012D03F1FF33DC
:10217000C3F3090342EA0302A3884FF47A7403F11C
:10218000FF334FEA035303F4E00343EA02030CBFB7
:102190004FF000420022032D43EA02030CBF4FF030
:1021A000804200221343CB610B6823F001030B60D4
:1021B00048681A4A10F001000AD04FF47A70FFF70D
:1021C00003FB013CF4D14FF400431360144870BD8D
:1021D000D2F8003223F47C5323F00E0343F46063FF
:1021E00043F00103C2F800326FF07043C2F80402FA
:1021F000C2F80C320B4BC2F814320123C2F8400271
:10220000C2F84402C2F81C32D2F8003223F00103B3
:10221000C2F8003270BD00BF7004002000640040AE
:1022200016FCFFFFAAAAAA0AF0B500283DD00E2985
:102230003BD806461E4F0022C7F81C224FF0010E65
:1022400093B299422FD950F83250002D02DB7368B7
:10225000002B05DB7368EC00DB0044F0040401E0B4
:102260006C055B056D00756848BF44F00204002DE5
:10227000B8BF43F004036D004FEAC20505F1804585
:1022800048BF43F0020305F5C845C5F84042C5F80C
:102290004432D7F81C320EFA02F42343C7F81C323A
:1022A00001320836CCE70020F0BD6FF00100F0BD30
:1022B0000064004013B5044601214FF00070FFF7A1
:1022C0000BF801211CB10920FEF7FAFF02E00420FF
:1022D000FEF7F6FF48238DF8073003238DF806300C
:1022E00044B14FF4807301A91648ADF80430FEF7ED
:1022F00041FF07E04FF4006301A91348ADF8043033
:10230000FEF738FF18238DF8073003238DF80630C9
:102310006CB14FF4007301A90A48ADF80430FEF720
:1023200029FF01214FF4EA10FEF77AFF07E04FF48E
:10233000805301A90448ADF80430FEF71BFF02B03A
:1023400010BD00BF000C01400008014038B529480D
:1023500003F022FE44F2213141F23423254D0022C4
:1023600094B2A04202F1010204D92C5D23449BB235
:102370006140F5E741F29152934203D144F2403378
:10238000994200D0FEE748F2657145F278631A4C35
:102390000022A05C01320344192A9BB281EA0001A9
:1023A000F7D145F68812934203D148F25B73994204
:1023B00000D0FEE7104803F0EFFD082814D90F4CB9
:1023C0000F49204603F08AFD0E49204603F0FEFC2B
:1023D0000849204603F0FAFC204603F0DDFD002307
:1023E000204400F8033C38BD02490448BDE83840A9
:1023F00003F074BD140000201E000020FA06002027
:1024000026000020AC62000810B50C480B4C03F00D
:10241000C3FD00234FF0FF319AB2904205D9A25C70
:102420002E2A08BF19B20133F6E7044B01311944D3
:102430000348BDE8104003F051BD00BFFA0600207C
:102440007005002010B504460748FEF7C7F92304BD
:1024500003F47F0343F0802343F0800300F07F0008
:1024600043EA002010BD00BF5C0D002008B503F05A
:102470008DFC02F081FB4FF0405102F0D1FB08BD12
:1024800008B518220021044803F028FCBDE80840E4
:10249000002003F071BC00BF3014002038B50C469A
:1024A0000546002101602346C0F803102022FEF7F4
:1024B000ABFB231D022220212846FEF7A5FBA31D0E
:1024C000032222212846FEF79FFB04F10803032282
:1024D00025212846FEF798FB04F10A031022282143
:1024E0002846FEF791FB0448FEF778F9034BA081DC
:1024F0001B78E38138BD00BF5C0D0020AC050020D7
:1025000010B5FFF7E9FB0023064A02F09FFD064CD9
:102510000023206063812146BDE810400348FFF797
:10252000BDBF00BF40420F00080500208011002001
:1025300030B50F4C87B02388A3B104F585652846D4
:10254000FFF7DEFF0723049314230293094B03953F
:10255000019340F25513201D009303A3D3E90023F8
:10256000FEF73EF907B030BDF1C6A7C1D068080F2D
:10257000580D0020AC05002010B5064C102200219B
:10258000204603F0ABFB044B00221A700123E380CA
:1025900010BD00BF08050020AC05002000000000B1
:1025A000F7B504460F4640F27912002103F096FB7E
:1025B0002046FFF7A5FF1AA1D1E900010B23002552
:1025C0002372012602AB63E90201E57166722046BF
:1025D00020225021FEF718FB0F4AA6751346E57519
:1025E00003CBE161A06118680C4E20621068606244
:1025F000304603F0D1FC80B24F2828BF4F2002465E
:102600000546314604F1290003F0F2FA29353D80F0
:1026100003B0F0BDAFF30080E8F7FF1FFA0600201B
:10262000192003170000000070B5134D88B02B88E7
:102630000446CBB105F585660DF11E013046FFF766
:10264000AFFFBDF81E30E17E05930023049603938F
:10265000A37E1934029301230093019404A3D3E9C8
:102660000023281DFEF70FF908B070BDAFF30080FE
:102670009E6AC421818A46EE580D002070B5054639
:102680008AB00E464922002103F028FB03A8FFF779
:102690005BFB089B00248DE8180021466B4628460A
:1026A0003022FEF7B1FA099B30228DE8180011465E
:1026B0006B462846FEF7A8FA039B049A60211A4449
:1026C000059B28461A44069B13448DE818003022C7
:1026D0006B46FEF799FA122333800AB070BD0000F2
:1026E00070B5134D88B02B880446CBB105F58566CF
:1026F0000DF11E013046FFF7C1FFBDF81E30E17E2F
:102700000593002304960393A37E193402930423B4
:102710000093019404A3D3E90023281DFEF7B3F826
:1027200008B070BDAFF30080042B31ECA7766FBE0C
:10273000580D002037B504460D461022002103F045
:10274000CDFA00231946009428222846FEF730F9D6
:10275000EB7E23816B7E638103B030BD10B4002417
:1027600004700B460122214610BCFEF74DBA000052
:102770001FB501466846FFF7DDFFDDE9000106A34E
:10278000D3E90023994206BF90420120002005B002
:102790005DF804FBAFF300801E1B55CEAC000000BB
:1027A0000149FFF7DBBF00BFF0040020000000007C
:1027B00070B5114D86B02B880446B3B105F585661A
:1027C0003046FFF7EDFF0123E17E059300230496D9
:1027D0000393A37E1934029305230093019404A369
:1027E000D3E90023281DFEF74EF806B070BD00BFE8
:1027F000F017304A39059E56580D0020014B002233
:102800001A807047F004002037B50D4604460023B7
:10281000036083801946009008222846FEF7C8F816
:10282000EB7E63806B7EA38003B030BD002202602C
:102830000B46C0F8032030210122FEF7E5B9000065
:102840000149FFF7F3BF00BFAC13002000000000F8
:1028500070B5114D86B02B880446B3B105F5856679
:102860003046FFF7EDFF0723E17E05930023049632
:102870000393A37E193402930A230093019404A3C3
:10288000D3E90023281DFDF7FEFF06B070BD00BF91
:10289000CDD269EBC51A133B580D002073B50D4618
:1028A000144600920023096803220646FEF780F8CA
:1028B000296823880331012B29600CD0022B13D106
:1028C00008340123009420223046FEF771F82B686B
:1028D00020332B6008E00834009440223046FEF795
:1028E00067F82B6840332B6002B070BDF0B50E4620
:1028F0000746002485B040222146039403F0EEF9F8
:1029000023460D22214600973046FEF751F8039BDF
:1029100004A90D3341F8043D07F108023046FFF7E2
:10292000BDFF039DB38A0735A3EBD5052DB21F2D3F
:10293000A8BF1F25A2B2AA4204F101040CDA183282
:102940003A4400920023082203993046FEF730F8FB
:10295000039B08330393EDE7F37E3B87737E7B870E
:1029600005B0F0BD70B50C46154613460968032244
:102970000646FEF749F921682B880331012B2160B7
:1029800002D0022B0AD070BD05F108034022304668
:10299000FEF73AF923684033236070BD05F1080360
:1029A00020223046FEF730F923682033236070BDC3
:1029B00070B50C4615461346096802220646FEF716
:1029C00023F921682B880231012B216002D0022BD0
:1029D0000AD070BD05F1080340223046FEF714F915
:1029E00023684033236070BD05F108032022304680
:1029F000FEF70AF923682033236070BD2DE9F74301
:102A00000446154600260DF108090F4640F27312E0
:102A10003146009603F062F949F8046D4B463146A1
:102A200020460522FEF7F0F8009B0DF1080805335B
:102A300048F8083D2A4641462046FFF793FF4B469B
:102A40000099204605220196FEF7DEF8009B05F16D
:102A500010020533414620460093FFF783FF4B46A3
:102A60000099204606220196FEF7CEF8009B05F15C
:102A700020020633414620460093FFF799FF4B465C
:102A80000099204606220196FEF7BEF8009B05F14C
:102A900030020633414620460093FFF789FF009E2F
:102AA00040350736F6082846009603F075FA1FFAF7
:102AB00080F84246A019294603F09AF846443E8021
:102AC00003B0BDE8F0830000014AFFF797BF00BFE5
:102AD000980600200000000070B5134D88B02B88C8
:102AE0000446CBB105F585660DF11E013046FFF7B2
:102AF000EBFFBDF81E30E17E05930023049603939F
:102B0000A37E193402930B230093019404A3D3E909
:102B10000023281DFDF7B7FE08B070BDAFF300809D
:102B2000D5A4D139F922B6A7580D00202DE9F047D8
:102B30000B7E04460E4623B90F88122F00F2038144
:102B400013E04FF01809DFF80C82002501EB090AA9
:102B500009FB0583102299685046AFB203F04AFA88
:102B600018B10135132DF3D1EDE03389794DE3B17F
:102B700018227A43AB181B79013B082B15D8DFE8E4
:102B800003F0050509090D0D14141100AB58326945
:102B90001A700AE0AB5832691A8006E0AB58326905
:102BA0001A6002E03069AB58186018237B431D445B
:102BB0002979684A0139082900F2AF80DFE811F06D
:102BC000090020003B0052006D008100AD00AD0007
:102BD0009800D358012121862184218221801A78EE
:102BE0000023C4E902232A7B0023C4E906232A7CAC
:102BF0000023C4E90E232A7D0023C4E90A239BE0B5
:102C0000D3580121218621842182218093F900203B
:102C1000D317C4E9022395F90C20D317C4E906237E
:102C200095F91020D317C4E90E2395F91420D31772
:102C3000C4E90A2380E0D35801212186218421821E
:102C400021801A880023C4E90223AA890023C4E949
:102C500006232A8A0023C4E90E23AA8A0023C4E992
:102C60000A2369E0D3580121218621842182218011
:102C7000B3F90020D317C4E90223B5F90C20D31708
:102C8000C4E90623B5F91020D317C4E90E23B5F91A
:102C90001420D317C4E90A234EE0D35801211A683F
:102CA0000023A260E360EA68E361A2612A69E3634A
:102CB000A2636A692186218421822180A262E36263
:102CC0003AE0D35801211A682186D317C4E90223B8
:102CD000EA682184D317C4E906232A692182D3171D
:102CE000C4E90E236A692180D317C4E90A2323E0CB
:102CF000D35802211B682186A360E86821842182C1
:102D0000218001F039FFA061286901F035FFA0633F
:102D1000686901F031FFA0620EE0012300222386E2
:102D20002384238223800023C4E90623C4E90E23DD
:102D3000094A0023C4E90A23A96804F14000BDE858
:102D4000F04703F0CBB82046BDE8F04760220021F1
:102D500002F0C4BF9C60000880841E00034B002169
:102D600019806022024802F0B9BF00BFAC130020F6
:102D7000980600202DE9F74F0C460B461646002119
:102D800003228046FDF740FFA01C03F005F902ABCB
:102D900023F8020D052203214046FDF735FF0023ED
:102DA000BDF806205F1C9BB29A424FEAC70508D9BE
:102DB00023440233082229464046FDF725FF3B46BF
:102DC000EEE704F12307384603F0E6F8AB461FFAB6
:102DD00080FA0AF12309A1444F4509D03B465946E0
:102DE00008224046FDF710FF0BF1080B0137F3E70F
:102DF00005EBCA05ED0835800548FDF7EFFC054BEE
:102E0000A4F880001B78A4F8823003B0BDE8F08FEE
:102E10005C0D00209A0400200A460149FFF7AABF72
:102E2000481400200000000030B5114C89B0238800
:102E3000BBB104F5856528460DF11E01FFF7ECFFD7
:102E4000BDF81E300395049318230293094B201DEF
:102E5000019343F6FF73009303A3D3E90023FDF727
:102E6000BFFC09B030BD00BF759D040C8EA454D6C4
:102E7000580D00209A04002008B584220021034840
:102E800002F02CFF024B00221A7008BD48140020EB
:102E90009A040020F7B50C46174600215422054637
:102EA00002F01CFF2068FEF7D7F802AE26F8020DEC
:102EB0003346102200212846FDF7A6FE6068FEF783
:102EC000CBF8102211463346ADF806002846FDF730
:102ED0009BFEA068FEF7C0F8334610222021ADF813
:102EE00006002846FDF790FEE068FEF7B5F8334689
:102EF00010223021ADF806002846FDF785FE206936
:102F0000FEF7AAF8334610224021ADF80600284605
:102F1000FDF77AFE6069FEF79FF8334610225021D4
:102F2000ADF806002846FDF76FFEA069FEF794F89D
:102F30003346ADF80600102260212846FDF764FEF6
:102F400004F11C030B2270212846FDF75DFE04F1FD
:102F50001E0307227B212846FDF756FE04F12003BD
:102F6000072282212846FDF74FFE04F122030722A3
:102F700089212846FDF748FE04F124030822902108
:102F80002846FDF741FE04F1280320229821284617
:102F9000FDF73AFEB4F84C301F2B84BF1F23A4F872
:102FA0004C300023B4F84C2003F117015E1C9BB297
:102FB0009A424FEAC10107D923442C3308222846FC
:102FC000FDF722FE3346EDE7C90839800548FDF7D5
:102FD00005FC054BA4F84E001B78A4F8503003B054
:102FE000F0BD00BF5C0D0020281400200A460149F6
:102FF000FFF750BF9C04002030B5114C89B02388E6
:10300000BBB104F5856528460DF11E01FFF7EEFF03
:10301000BDF81E300395049318230293094B201D1D
:10302000019340F24443009303A3D3E90023FDF747
:10303000D7FB09B030BD00BF6619718A54269C24A5
:10304000580D00202814002008B554220021034800
:1030500002F044FE024B00221A7008BD9C040020BE
:10306000281400202DE9F7430C460B461746002193
:1030700010220646FDF7C8FD6068FDF7EDFF02ADC2
:1030800025F8020D102211462B463046FDF7BCFDF7
:10309000A068FDF7E1FF2B4610222021ADF80600C5
:1030A0003046FDF7B1FDE068FDF7D6FF2B46102254
:1030B0003021ADF806003046FDF7A6FD2069FDF78A
:1030C000CBFF2B46ADF80600102240213046FDF71D
:1030D0009BFD04F11403082250213046FDF794FDB6
:1030E000B4F848300C2B84BF0C23A4F848300023DC
:1030F000B4F848101A0103F101089BB2994202F199
:1031000058090ED9063354F82300FDF7A5FF2B46C6
:10311000ADF80600102249463046FDF775FD4346DE
:10312000E6E75F32D2083A800548FDF757FB054BCA
:10313000A4F84A001B78A4F84C3003B0BDE8F08333
:103140005C0D0020CC1400200A460149FFF78ABF1D
:10315000B01300200000000030B5114C89B0238866
:10316000BBB104F5856528460DF11E01FFF7ECFFA4
:10317000BDF81E300395049318230293094B201DBC
:10318000019346F69663009303A3D3E90023FDF76A
:1031900027FB09B030BD00BFD503D5CBD81A7104C9
:1031A000580D0020CC14002008B5502200210348FF
:1031B00002F094FD024B00221A7008BDB0130020EB
:1031C000CC14002008B5FFF757FEFFF73DFFBDE820
:1031D0000840FFF7E9BF0000F8B50F881F4E00EB6D
:1031E000C7035E607B1C04460B8001200D46FFF781
:1031F00029F944F837002F88042004EBC7035E60E8
:103200007B1C2B80FFF71EF944F837002F88052020
:1032100004EBC7035E607B1C2B80FFF713F944F8B7
:1032200037002F880A2004EBC7035E607B1C2B80CD
:10323000FFF708F944F837002F880B2004EBC70389
:103240005E607B1C2B80FFF7FDF8298844F837006F
:103250002046BDE8F840FEF7E7BF00BF80FFFFC093
:1032600000B59FB01EA9002321F8723D02A8FFF708
:10327000B3FFBDF8061002A8FEF7D6FF1FB05DF839
:1032800004FB08B50020FEF7F1FE4FF47A70FEF75C
:103290009BFAFFF7E5FF4FF47A70FEF795FABDE869
:1032A0000840FEF76DBA000010B5094C23880BB931
:1032B000002010BD201DFDF72DFB0028F8D0FEF7E3
:1032C0005DFD0028F4D0201DFDF728FB012010BD76
:1032D000580D002010B50B4C86B0208880B1684690
:1032E000FEF778FE00280BD009DDFEF7F5FC02465C
:1032F0000B46201D6946FDF7CFFC012000E00120B0
:1033000006B010BD580D0020F0B535488DB0FDF762
:1033100065FA08B100205CE0FEF7DEFC0F460646C9
:10332000FFF7A4F82F4901F07BFC01F0A7FE2E4A1D
:10333000002392197B412D4D80185941C5E90201A6
:10334000FEF7CAFCD5E90223994208BF904204D394
:103350002348FDF743FA50B1DCE72148FDF73EFA78
:103360000028F5D1FFF7A0FFFFF7B4FFE8E72B78BF
:103370002E8A5B00DBB28DF818301EB943F00103D2
:103380008DF818301A4C08AB94E8070083E8070062
:103390002268C6F11004E4B2062C28BF062499194D
:1033A0000B920DF11900224602F022FC06AB0393AA
:1033B0001823013402930F4B0494012401930094C9
:1033C00005A3D3E900230648FDF70AFA20460023A7
:1033D0002B820DB0F0BD00BF401DA12026812A0B1D
:1033E0005C0D00200050C348C027090030140020A5
:1033F000E8F7FF1F4214002008B5FFF785FF0028FB
:10340000FBD108BD2DE9F7431E4C2388002B36D095
:10341000FEF762FC0F46064604F5C561D1E9008956
:103420004F4508BF464512D3174A002312EB080246
:1034300043EB0903C1E90023FEF74EFC02460B46AD
:10344000201DFDF775FA211D6846FDF7FDFDD4F836
:103450003046A4B10D49D1E900239F4208BF9642EE
:103460000DD3002512196B419F4208BF9642F9D235
:10347000C1E9002303B0BDE8F043FFF759B803B03A
:10348000BDE8F083580D002040420F00901300204B
:1034900010B5144C4FF4C8620021204602F01EFC07
:1034A000201D0021FDF793F940F6B83040F2DC52C0
:1034B000002104F5C563C3E900010B4B04F5C764A3
:1034C00044F8083C0023C4E90023FFF755F8FEF751
:1034D000D7FFFFF793F9FFF741FCBDE81040FFF776
:1034E00071BE00BF580D002040420F007FB5FFF7AE
:1034F000CFFF0020FEF7DEFE092324215A1CB1FB7A
:10350000F2F56A43242ADEB204D0013B012BF5D147
:1035100000204EE0C3EBC303DA1CD210D0B24FF44C
:103520007A7401325443311AC9B20A4494FBF2F25C
:10353000B2F5617FC2BF03F1FF33C3F3C700311A95
:1035400000F1FF33C8BFC9B20F2B05D84B1E072BA4
:103550008CBF0023012300E00023421802FB055426
:10356000154AB2FBF4F2154CA242D1D1002BCFD0B8
:10357000ADF80A00ADF80C100124022102A8ADF844
:103580000850ADF80E40FEF79BFD0028C0DB00237D
:103590000B4D01930B4BA5F1240000934FF4806277
:1035A000094B2946FDF7EBF8FEF742FD204625F8CA
:1035B000284C04B070BD00BF0051250240420F00EE
:1035C000800D0020B11600088D40000810B504469B
:1035D000FFF78CFF38B1044804F07F01FDF7F7F8DE
:1035E000FEF7CEF8012010BD5C0D002038B54FF479
:1035F0000070FDF7B7FE0128054621D14FF4007099
:10360000FDF7BEFE0F4A4FF08044A38C12880421C0
:1036100013449BB223872046FCF728FE2A46042148
:103620002046FCF716FE084B00221D80074B1A802F
:1036300002F1804202F58232136823F400731360B2
:1036400038BD00BF98130020180500202A14002060
:10365000F7B502214FF08040FCF7FDFD0128074639
:103660007FD102214FF08040FCF700FE654B4FF008
:1036700080451B88AA8E644C13449BB2AB86268877
:10368000B6B2002E4BD0238801339BB2238023880F
:103690009BB2022B11D84FF400715C48FDF7BCFDC2
:1036A0005B4A1388013303F03F0313801388594AA0
:1036B0009BB2D35C584A138053E023889BB20A2BF9
:1036C00010D8554C4FF4007123885048DA0702D5C2
:1036D000FDF7A4FD01E0FDF79FFD2388C3F34E0332
:1036E00023803EE023884FF400719BB20B2B4748A8
:1036F0000BD1FDF793FD494B1A88454B92B21B88BD
:103700009BB29A422DD027802BE0FDF787FD002247
:1037100002212846FCF79DFD002323800AE04FF498
:1037200000713A48FDF77AFD324602212846FCF73F
:1037300090FD26804FF40073ADF8043028238DF8F7
:10374000073001A9032331488DF80630FDF712FD3B
:1037500004212846FCF78AFD314A136843F40073BC
:10376000136004214FF08040FCF775FD012847D11C
:1037700004214FF08040FCF779FD224B4FF080424E
:103780001B88118F274C0B449BB2138723889BB255
:10379000002B28D023889BB2082B24D82388224AC8
:1037A00001339BB223801388C3F34E031380174B5E
:1037B0009B689B055FBF13889BB243F08003138017
:1037C00023889BB2082B1BD91848194903880988FC
:1037D000013303F03F0389B28B4204D012881549AC
:1037E000D2B2CA540380002204214FF08040FCF77B
:1037F00030FD00230A4A2380136843F400731360EA
:1038000003B0F0BD2C140020500D00200008014032
:10381000EE050020AD050020980400201A050020C8
:1038200000040140180500202A140020520D002039
:10383000F8060020F005002037B52349234A0B88FD
:103840001288013303F03F0392B2934236D0204AEC
:103850004FF08045D0540B80AB89012413F0020F48
:103860002ED11C4B1C4A1C801368042123F40073C6
:1038700013602846FCF7FAFC4FF400711748FDF777
:10388000CDFC4FF40073ADF8043010238DF80730F1
:1038900001A9032311488DF80630FDF76BFCAB8CB2
:1038A000022110339BB2AB862846FCF7DFFC28468A
:1038B00022460221FCF7CDFC204602E0002000E079
:1038C000204603B030BD00BF1A050020EE050020E1
:1038D000AD050020500D002000040140000801400B
:1038E000044B1888044B80B21B889BB2C01A18BFC7
:1038F00001207047520D0020F806002010B509483D
:10390000094C2188038889B29BB29942054AF8D0B4
:103910001388013303F03F0313801388034A9BB2DB
:10392000D05C10BDF8060020520D0020F0050020EC
:10393000B0F5614F0B4A0C4B0BD0B0F5E13F08D10D
:1039400072B64521118062B672B668221A8062B6DC
:10395000704772B68B21118062B672B6D0221A807F
:1039600062B670472C14002098130020044B0128E5
:103970001A680CBF42F4007222F400721A60704799
:103980000004014070B501218CB00420FDF798FCC3
:1039900028234FF400758DF8073001A9032343480D
:1039A0008DF80630ADF80450FDF7E4FB0121084620
:1039B000FDF792FC4FF6FF73ADF818303C4B3D4AD3
:1039C0001B680CA9B3FBF2F3013B002421F81C3D5A
:1039D0004FF08040ADF81A40ADF81640FCF796FB6A
:1039E00001214FF08040FCF71FFC08A94FF08040F8
:1039F000ADF82040ADF82240ADF82440ADF82640A7
:103A0000ADF82840ADF82A40ADF82C40ADF82E4076
:103A1000FCF7C6FB1C2301268DF8083002210F237A
:103A20004FF080408DF809308DF80A308DF80B602A
:103A3000FCF71CFC04214FF08040FCF717FC02A8A7
:103A4000FDF7D8FD09212046FDF71AFC082303A83D
:103A50008DF8113003958DF810408DF81260FDF748
:103A600047FC2046FFF782FF17238DF808302846D1
:103A70000B238DF809308DF80A408DF80B60FDF7A7
:103A80007FFC02A8FDF7B6FD4FF46140FFF750FF41
:103A9000094B1C80094B1C80094B1C80094B1C8066
:103AA000094B1C80094B1C800CB070BD0008014004
:103AB0000000002000127A00EE0500201A05002008
:103AC000500D0020F8060020520D0020180500209F
:103AD00008B5FFF757FF034A136843F400731360F8
:103AE00008BD00BF0004014010B50D4C0023238029
:103AF0000C4B5B8F642B04BF01232380FEF726FC55
:103B000009490A4802F062F923880848012B0CBFD2
:103B10000749084902F05AF9BDE81040FEF774BCA5
:103B20009A13002048060020CC620008FA06002004
:103B3000D2620008B362000850210148FEF74EB877
:103B40004806002008B541F28830FDF73DFE0549E2
:103B5000054BCA6802F4E0621343CB60BFF34F8F9A
:103B6000FEE700BF00ED00E00400FA0549F6404022
:103B7000FDF72ABE064B002201205A609A60DA60E7
:103B80001A615A619A61DA611A62988418807047E2
:103B9000200500200348002320F8023B024902F0E0
:103BA0009DB900BF4814002070050020F0B503B394
:103BB000D2E90045A94208BFA0421CD342F21076C8
:103BC000041B61EB05050027AF4208BFA64201D2E6
:103BD000C2E900019CB20025D2E90067B94208BFE2
:103BE000B04204D336196F41C2E90067F4E70120FF
:103BF000F0BD1846F0BD0020F0BD000007B5012162
:103C00000420FDF75DFB1023ADF804308DF807307C
:103C100001A9032303488DF80630FDF7ABFA03B082
:103C20005DF804FB0008014070B54FF4004086B019
:103C3000FDF73CFB012403223B4E00238DF80220BC
:103C400021464FF4602240F2052003928DF80330A4
:103C500001938DF8083004938DF809408DF81440D5
:103C6000FDF72EFB338806ADA3420CBF08230223C9
:103C700025F8183D29462D48FDF77CFA01A92C4866
:103C8000FDF784FB33882246A3420CBF0321214663
:103C900007232748FDF7C2FB25482146FDF79AFB7D
:103CA0002348FDF7A0FB2248FDF7A2FB0028FAD12C
:103CB0001F48FDF7A1FB1E48FDF7A3FB0028FAD122
:103CC00001211B48FDF7A1FB012140F20540FDF752
:103CD000F7FA042329461548ADF80030FDF74AFAF3
:103CE00001A91448FDF752FB0723012202211148C4
:103CF000FDF794FB0F480121FDF76CFB0D48FDF724
:103D000072FB0C48FDF774FB0028FAD10948FDF757
:103D100073FB0848FDF775FB0028FAD1012105481F
:103D2000FDF773FB06B070BD9A1300200008014038
:103D30000024014000280140024B00225A81DA8110
:103D40001A617047F4040020034B00205A89082AA6
:103D500004BF588101207047F40400201F4900B5BA
:103D60004A890B46082A36D0102809D112B10A69AF
:103D700001320A6101225A810022DA815DF804FBD6
:103D80004AB37D2803D10123CB815DF804FBC989A7
:103D900019B1002180F02000D981511E06291AD8BE
:103DA000DFE801F004090E0E0E0E15000222187055
:103DB0005A815DF804FB032258705A815DF804FBB8
:103DC000074950545A8901325A815DF804FB002298
:103DD000DA8108225A815DF804FB00BFF404002058
:103DE000F5040020034B1888A0F540735842584151
:103DF000704700BFF404002070B50D460C4906461C
:103E00004C6804F00F011180C4F303121A80C4F34C
:103E10000B2000F0ADFE074900F0B6FF3060200D2A
:103E200000F0A6FE034900F0AFFF286070BD00BFA0
:103E3000F40400200000FA4338B50D4C002525801D
:103E4000FFF746FEFFF778FF4FF6FF730021A380D0
:103E50006580E5802581084600F096FF0123E0603B
:103E600020616061A061E0612062A584238038BD8B
:103E7000480500202DE9FF474C4C63883BB9E38897
:103E8000002B14BF4FF4A6730B23638001E0013BAA
:103E900063806388454A3BBBD18831B9938801333D
:103EA0001BB21B2BD4BF938091807E20FFF7C4FCF4
:103EB000B4F904303E4A3D4E134493F8D401FFF761
:103EC000BBFCE58885B1013DADB2F58065B936F83A
:103ED000087FABB29F4207D90021084600F054FF8B
:103EE000013546F8040FF4E7304EFFF7F9FC0028DF
:103EF00059D0FFF703FDFFF731FFFFF725FF00283B
:103F0000F3D0FFF76FFF00282DD00DF1060301AAB3
:103F100003A902A8FFF770FFBDF806502389AB4242
:103F20000BD005B135810021084600F02DFFE0607F
:103F300020616061A061E0612062BDF80430052B62
:103F400005D89D4282BF029904EB8302D160013300
:103F50009BB2052BADF8043005D89D4282BF039A71
:103F600004EB8303DA6000252F46A8460323B4F848
:103F700008A0DFF84090E380A584ABB29A450DD944
:103F80000021084600F000FF014659F8040F00F038
:103F9000DBFF08B90127B8460135EEE7002FA4D0B2
:103FA000A4F82480A1E704B0BDE8F087480500200C
:103FB0009060000850050020084B00227B20002163
:103FC000C3E902011A61002000215A610122C3E9FC
:103FD0000601C3E908011A80704700BF00140020E1
:103FE000024B00221A615A61704700BF0014002082
:103FF000044BDA8C4FF47A735343034AC2F83036D9
:10400000FFF7EEBF48060020580D0020134B4FF479
:104010007A71D98459869986D986198740F28D118B
:10402000D98740F2F531A3F8401040F21A712E22E0
:104030005A849A8401221A85C8220A205A850022AD
:104040009A85D88518865A879A87A3F84210A3F8CC
:104050004420A3F84620FFF7CBBF00BF480600204E
:1040600038B50588084C25B9FFF766FD0123238084
:1040700038BD012D05D1FFF7C9FFFFF75DFD258094
:1040800038BD0023238038BDAC1300202DE9F04358
:1040900099B00C468046FCF7A1FB237E054600281C
:1040A00062D1022B40F0C280E38A012B40F0BE8037
:1040B000FDF712FE0F460646FEF7D8F95D4900F0FF
:1040C000AFFD00F0DBFF5C4A002392197B418018B2
:1040D000DFF880915941E37EC9E902014F4683B17F
:1040E000284611E0554E08AB96E8070083E8070024
:1040F000326819460B9204A82A4601F047FD034690
:10410000B0B100233B8291E0A38A85B2013B9D427E
:1041100000F10106E6DA691C04AB1D44C90089B24E
:104120000095002308222046FCF742FC3046EBE7CE
:104130000F2D0AD8D7E90201414A4FF0FF33121878
:104140004B413D82C7E9022370E018AA22F8520DC4
:104150000092014607222046FCF72AFC9DF80E102B
:104160004046FCF734FB61E0012B5FD1E38A013B61
:104170000A2B5BD8DFE803F0065A5A0A0E5A5A5A3D
:104180005A3C4B002046FEF74FFA4FE02046FEF720
:10419000A7FA4BE02046FEF7EBFA0546294B2146ED
:1041A00018802948FCF768FD2046FEF701FB002D2A
:1041B0003CD0FDF791FD254C002524184D412248A7
:1041C000FCF7A8FB70B1FFF76FF8FDF785FD8D4296
:1041D00008BF8442F3D205E0FDF77EFD8D4208BFA3
:1041E000844203D3FDF7BEFD0028F5D0FFF7AAFCFB
:1041F000214608A8FEF708FB08A8FFF731FF214673
:104200001148FCF739FD2046FEF722FB0EE021465F
:1042100008A8FEF76BFB08A90D48FEF787FC0A48C3
:104220002146FCF729FD2046FEF756FC19B0BDE8F3
:10423000F08300BF0050C348C0270900E8F7FF1F04
:1042400040D8F6FFF00400205C0D002020A10700FC
:1042500098060020301400205B4B5A8C4AB1132A78
:104260009CBF14225A845A8C642A82BF564A642105
:104270005184DA8C312A9EBF534A4FF47A71D1842B
:1042800041F28832D98C914282BF4F4A4FF47A7101
:10429000D1845A8D72B1312A9EBF4B4A4FF4C871F6
:1042A000518541F28832598D914282BF464A4FF47E
:1042B000C87151859A8D012A82BF434A0021918598
:1042C000DA8DC82A82BF404AC821D1851A8EC82AF1
:1042D00082BF3D4AC82111865A8EB2F5FA7F3EBF91
:1042E000394A4FF4FA7151865A8EB2F5FA6F82BF8D
:1042F000354A4FF4FA6151869A8EB2F5FA7F3EBF85
:10430000314A4FF4FA7191869A8EB2F5FA6F82BFF4
:104310002D4A4FF4FA619186DA8EB2F5FA7F3EBFEC
:10432000294A4FF4FA71D186DA8EB2F5FA6F82BF5C
:10433000254A4FF4FA61D1861A8FB2F5FA7F3EBF53
:10434000214A4FF4FA7111871A8FB2F5FA6F82BFC2
:104350001D4A4FF4FA611187B3F93E20002ABEBF0F
:1043600040F28D11184AD1875A8F042A04D9642A41
:104370001EBF154A002151879A8F12B1124A00219F
:104380009187B3F8402022B940F2F5310E4AA2F8E5
:104390004010B3F8422022B940F21A710A4AA2F83A
:1043A0004210B3F94420B3F84630002ABEBF064A93
:1043B0000021A2F84410022B82BF034B0022A3F875
:1043C0004620FFF715BE00BF4806002010B550225A
:1043D000FF21254801F082FCFFF70AFEFDF712FCE1
:1043E000C0B20428204C0CD05022FF211E4801F0FE
:1043F00075FCFFF7FDFDFDF705FCC0B204280FD1E9
:1044000007E050212046FDF7D1FBC0B204280ED0B2
:10441000EAE750211448FDF7C9FBC0B2042806D0D2
:104420005022FF21104801F059FCFFF7E1FD238CD9
:104430000B2B05D11E220D490B4801F0DBFD78B195
:10444000FFF7E4FD0B2309490748238401F046FDEB
:104450000749084801F042FD50210348FDF7BEFB23
:10446000BDE81040FFF7F8BE48060020AE62000825
:10447000DD620008900600202DE9F84F344D834698
:10448000688E14461E46894600F072FB314900F0E2
:10449000C7FB3149804600F0C3FB8246584600F016
:1044A0006BFB0146504600F0BBFB2060A88E00F07D
:1044B0005FFB284900F0B4FB284900F0B1FB05463A
:1044C000484600F059FB294600F0AAFB24490C9FFE
:1044D000814600F043FD08B1DFF88490C6F80090F3
:1044E000002320683B801F4900F038FD1E4C48B176
:1044F00001233B800023336000220023C4E906230C
:10450000C4E90823D4E906014FF46162002300F0F6
:104510004DFD00F047FB294600F082FB0A9B134A41
:1045200018600023D4E9080100F040FD00F03AFBD8
:1045300009490446284600F073FB414600F070FB31
:104540000146204600F06CFB0B9B1860BDE8F88F1D
:10455000480600206F12833A2E33113C0C04013DB3
:10456000CDCC4CBD0000E0400014002080EE3600B1
:104570002DE9F047304D8246B5F8400014461F46FD
:10458000894600F0F5FA2D4900F04AFB2C4900F06D
:1045900047FB0646504600F0EFFA314600F040FB7C
:1045A0002060B5F8420000F0E3FA244900F038FB3F
:1045B000234900F035FB0546484600F0DDFA294660
:1045C00000F02EFBDDF82880386000232068A8F872
:1045D00000301C4900F0C2FC1B4C50B10123A8F86C
:1045E000003000233B6000220023C4E90623C4E915
:1045F0000823D4E906014FF46162002300F0D6FCE1
:1046000000F0D0FA294600F00BFB089B0F4A186017
:104610000023D4E9080100F0C9FC00F0C3FA2946E0
:104620000446304600F0FCFA0146204600F0F8FA55
:10463000099B1860BDE8F087480600200AD7233C94
:104640003333533A0000E0400014002080EE36007F
:104650002DE9F047664B8AB01B88002B00F0C5801F
:104660006448FCF722FF824607466348FCF71DFFBB
:10467000624D634CEB8D0646012B89BF21690023F7
:104680004A4292FBF3F384BF53445B1823615D4BB2
:10469000DFF86C911A889846012A0CBFB5F94430AE
:1046A000B5F93E30002BC8BFC61A2B8E0AFB06FA9E
:1046B000012B89BF616900234A4292FBF3F384BF57
:1046C0009B195B186361D4E90623921943EBE673E7
:1046D000C4E90623D4E9082312EB0A0243EBEA7388
:1046E000C4E90823FDF7F8FAB5F82AA04FF47A7266
:1046F000002300F0ABFC534609F10802FFF756FA1D
:10470000002872D03D4B0DF11601DB8D09AA012B5B
:1047100084BFD9F8107097FBF3F72B8E3846012B26
:1047200084BF666996FBF3F6B8F800300291012B5E
:1047300008AB0192009306AA07AB314602D1FFF7FE
:1047400017FF01E0FFF798FEAB8D2C48012B06996F
:10475000079A19D12C4C008D61600021A260A084C1
:10476000A383084600F010FB7F23E38364232384A4
:104770002060E06020616061A061FEF73DFC234A9B
:1047800053690133536130E0214B008D9A60089AE0
:104790001880DA60099A59601A6100229A82BDF87D
:1047A00016200AB102229A821A4A1B4F1446168911
:1047B000B2F82480A3F848600025ABB29E420ED91F
:1047C000B8F1000F03D004EB8503D86803E00021A3
:1047D000084600F0D9FA47F8040F0135EDE7FEF777
:1047E000BBFC0A4A5369013353610AB0BDE8F08744
:1047F000580D0020002401400028014048060020F8
:10480000001400209A1300209C04002020050020A2
:10481000B013002048050020C413002070B50C46DA
:1048200006468AB00B49204601F058FB7EB90A497A
:1048300002AD204601F0CAFA0849094800953346FE
:104840000C22FDF75EF82946204601F0BFFA0AB0B7
:1048500070BD00BFA9620008E2620008E5620008BE
:10486000340500201A4B10B51B88002B2ED0194B95
:10487000B3F8463053B3184B9A8C1AB940F2F3127E
:104880009A8401E0013A9A849C8CFCB9FFF782F982
:10489000124B1349DA8C013292B2132A94BFDA8494
:1048A000DC84D88CFFF7BAFF0D4801F075FB80B2AD
:1048B00060B10C4B184490F823300A2B04BF00233E
:1048C00080F82330BDE81040FEF7AEBA10BD00BF3F
:1048D000580D00204806002020050020140000206C
:1048E0006B140020471400202DE9F843334CFFF7E8
:1048F0003DF9FDF7CDF8FFF781F9FDF70FFAFFF766
:1049000065FDFFF7F1F80120FFF78EF9FFF754FB83
:10491000FFF792FA94F82200FEF758FE58B928499A
:10492000CB686420DB4303F0100343F480130B6176
:10493000FCF751FFF4E7FFF75BFB224BA28C224D03
:104940001A80FEF759FDFEF79CFC0023EB801F4BFD
:104950001B880BB90323AB801D4EFFF70BF9B04644
:10496000174F0024FEF7B6FC0028FBD1FEF79CFC95
:1049700081460028FAD1FEF745FDF38B9BB2002B50
:10498000F0D0A8F81E90FDF795F934B9AB8840F245
:10499000F314002B18BF312409E0013CA4B234B950
:1049A000FB68DB4303F0100343F480133B61FFF724
:1049B0004FFEFFF75FFAFFF755FFD3E748060020E9
:1049C00000080140301400200805002000140020D9
:1049D00070040020D0400B1CD1409C46203AD340AC
:1049E0001843524263469340184370479140031C5A
:1049F00090409C46203A9340194352426346D3402C
:104A00001943704780F0004002E000BF81F0004190
:104A100042001FBF5FEA410392EA030F7FEA226C64
:104A20007FEA236C6AD04FEA1262D2EB1363C1BFF4
:104A3000D218414048404140B8BF5B42192B88BF63
:104A4000704710F0004F40F4000020F07F4018BF86
:104A5000404211F0004F41F4000121F07F4118BFA6
:104A6000494292EA030F3FD0A2F1010241FA03FC4E
:104A700010EB0C00C3F1200301FA03F100F0004336
:104A800002D5494260EB4000B0F5000F13D3B0F1FE
:104A9000807F06D340084FEA310102F10102FE2A6D
:104AA00051D2B1F1004F40EBC25008BF20F00100DD
:104AB00040EA03007047490040EB000010F4000F8B
:104AC000A2F10102EDD1B0FA80FCACF1080CB2EB1E
:104AD0000C0200FA0CF0AABF00EBC250524218437D
:104AE000BCBFD0401843704792F0000F81F4000122
:104AF00006BF80F400000132013BB5E74FEA4103F5
:104B00007FEA226C18BF7FEA236C21D092EA030F60
:104B100004D092F0000F08BF0846704790EA010FDA
:104B20001CBF0020704712F07F4F04D1400028BF07
:104B300040F00040704712F100723CBF00F50000E9
:104B4000704700F0004343F0FE4040F4000070471F
:104B50007FEA226216BF08467FEA236301464202CB
:104B600006BF5FEA412390EA010F40F480007047DE
:104B70004FF0000304E000BF10F0004348BF404284
:104B80005FEA000C08BF704743F0964301464FF0C0
:104B900000001CE050EA010208BF70474FF000031C
:104BA0000AE000BF50EA010208BF704711F000435D
:104BB00002D5404261EB41015FEA010C02BF84462D
:104BC0000146002043F0B64308BFA3F18053A3F58C
:104BD0000003BCFA8CF2083AA3EBC25310DB01FAD3
:104BE00002FC634400FA02FCC2F12002BCF1004F57
:104BF00020FA02F243EB020008BF20F001007047E8
:104C000002F1200201FA02FCC2F1200250EA4C003B
:104C100021FA02F243EB020008BF20EADC70704781
:104C20004FF0FF0C1CEAD0521EBF1CEAD15392EA8F
:104C30000C0F93EA0C0F6FD01A4480EA010C40026B
:104C400018BF5FEA41211ED04FF0006343EA5010C5
:104C500043EA5111A0FB01310CF00040B1F5000F07
:104C60003EBF490041EAD3715B0040EA010062F1B6
:104C70007F02FD2A1DD8B3F1004F40EBC25008BFA0
:104C800020F00100704790F0000F0CF0004C08BFBE
:104C900049024CEA502040EA51207F3AC2BFD2F18B
:104CA000FF0340EAC250704740F400004FF0000399
:104CB000013A5DDC12F1190FDCBF00F000407047D3
:104CC000C2F10002410021FA02F1C2F1200200FA11
:104CD00002FC5FEA310040F1000053EA4C0308BFD8
:104CE00020EADC70704792F0000F00F0004C02BF29
:104CF000400010F4000F013AF9D040EA0C0093F0A4
:104D0000000F01F0004C02BF490011F4000F013BFD
:104D1000F9D041EA0C018FE70CEAD15392EA0C0F6B
:104D200018BF93EA0C0F0AD030F0004C18BF31F0D6
:104D3000004CD8D180EA010000F00040704790F0AC
:104D4000000F17BF90F0004F084691F0000F91F050
:104D5000004F14D092EA0C0F01D142020FD193EA16
:104D60000C0F03D14B0218BF084608D180EA01009E
:104D700000F0004040F0FE4040F40000704740F07A
:104D8000FE4040F4400070474FF0FF0C1CEAD05248
:104D90001EBF1CEAD15392EA0C0F93EA0C0F69D0A4
:104DA000A2EB030280EA010C49024FEA402037D00F
:104DB0004FF0805343EA111143EA10130CF0004006
:104DC0008B4238BF5B0042F17D024FF4000C8B42F6
:104DD00024BF5B1A40EA0C00B3EB510F24BFA3EBD6
:104DE000510340EA5C00B3EB910F24BFA3EB9103A6
:104DF00040EA9C00B3EBD10F24BFA3EBD10340EA00
:104E0000DC001B0118BF5FEA1C1CE0D1FD2A3FF645
:104E100050AF8B4240EBC25008BF20F001007047FA
:104E20000CF0004C4CEA50207F32C2BFD2F1FF039D
:104E300040EAC250704740F400004FF00003013ACE
:104E400037E792F0000F00F0004C02BF400010F472
:104E5000000F013AF9D040EA0C0093F0000F01F086
:104E6000004C02BF490011F4000F013BF9D041EAA8
:104E70000C0195E70CEAD15392EA0C0F08D14202DB
:104E80007FF47DAF93EA0C0F7FF470AF084676E7AE
:104E900093EA0C0F04D14B023FF44CAF08466EE787
:104EA00030F0004C18BF31F0004CCAD130F0004255
:104EB0007FF45CAF31F000437FF43CAF5FE700BFAD
:104EC0004FF0FF3C06E000BF4FF0010C02E000BFD6
:104ED0004FF0010C4DF804CD4FEA40024FEA410378
:104EE0007FEA226C18BF7FEA236C11D001B052EA2E
:104EF000530C18BF90EA010F58BFB2EB030088BFF4
:104F0000C81738BF6FEAE17018BF40F00100704762
:104F10007FEA226C02D15FEA402C05D17FEA236C44
:104F2000E4D15FEA412CE1D05DF8040B704700BF8B
:104F3000844608466146FFE70FB5FFF7C9FF002822
:104F400048BF10F1000F0FBD4DF808EDFFF7F4FF5B
:104F50000CBF012000205DF808FB00BF4DF808EDF4
:104F6000FFF7EAFF34BF012000205DF808FB00BF17
:104F70004DF808EDFFF7E0FF94BF012000205DF839
:104F800008FB00BF4DF808EDFFF7D2FF94BF0120EA
:104F900000205DF808FB00BF4DF808EDFFF7C8FFE3
:104FA00034BF012000205DF808FB00BF7BB972B957
:104FB0000029BEBF00204FF0004106E008BF0028D6
:104FC0001CBF6FF000414FF0FF3000F0F3B9ADF1BE
:104FD000080C6DE904CE002909DB002B1ADB00F078
:104FE00073F8DDF804E0DDE9022304B070474042C5
:104FF00061EB4101002B1BDB00F066F8DDF804E0FB
:10500000DDE9022304B0404261EB4101524263EB0F
:1050100043037047524263EB430300F055F8DDF859
:1050200004E0DDE9022304B0404261EB4101704736
:10503000524263EB430300F047F8DDF804E0DDE99A
:10504000022304B0524263EB4303704753B94AB999
:10505000002908BF00281CBF4FF0FF314FF0FF3080
:1050600000F0A8B9ADF1080C6DE904CE00F02CF801
:10507000DDF804E0DDE9022304B07047D0B500F0AC
:10508000FFFA00220E4B06460F4600F04DFB00F0E3
:105090005DFD044600F0D2FA00220A4B00F044FB0A
:1050A00002460B463046394600F08AF900F04EFDC4
:1050B0002346002242EA000210461946D0BD00BF36
:1050C0000000F03D0000F0412DE9F04F8C460C4609
:1050D0000546099E002B4FD18A4217466BD9B2FA7A
:1050E00082FEBEF1000F0BD0CEF1200520FA05F5AF
:1050F00001FA0EF345EA030C02FA0EF700FA0EF578
:10510000390CBCFBF1F0BAB201FB10C300FB02F892
:105110004FEA154C4CEA0344A04509D9E41900F1C3
:10512000FF3380F02881A04540F2258102383C44BD
:10513000C8EB0404B4FBF1F301FB134C03FB02F2D4
:10514000ACB244EA0C418A4209D9C91903F1FF34CF
:1051500080F00F818A4240F20C81023B39448A1A66
:1051600043EA00400021002E63D022FA0EF2002311
:1051700086E80C00BDE8F08F8B4207D9002E56D090
:10518000002186E811000846BDE8F08FB3FA83F1EC
:10519000002940F09380A34202D3824200F2FE80B5
:1051A000851A64EB03039C460120002E41D086E85B
:1051B0002010BDE8F08F12B90127B7FBF2F7B7FA5C
:1051C00087FEBEF1000F36D1E41B4FEA17481FFAE5
:1051D00087F90121B4FBF8F308FB134409FB03F240
:1051E0004FEA154C4CEA0444A24207D9E41903F1F2
:1051F000FF3002D2A24200F2D3800346A41AB4FBCD
:10520000F8F008FB104809FB00F9ACB244EA084288
:10521000914507D9D21900F1FF3402D2914500F22D
:10522000BA802046C9EB020240EA03409BE73146C0
:105230003046BDE8F08F07FA0EF7CEF1200C24FAC5
:105240000CF34FEA1748B3FBF8FA1FFA87F908FB8B
:105250001A3520FA0CFC04FA0EF40AFB09FB4CEA9E
:10526000040C4FEA1C4242EA05439B4500FA0EF546
:105270000AD9DB190AF1FF3280F08B809B4540F29E
:105280008880AAF1020A3B44CBEB0303B3FBF8F09E
:1052900008FB103300FB09F41FFA8CFC4CEA0343B3
:1052A0009C4207D9DB1900F1FF326ED29C426CD9C7
:1052B00002383B441C1B40EA0A418BE7C1F1200E37
:1052C0008B4022FA0EFC4CEA030C24FA0EF74FEA4C
:1052D0001C49B7FBF9FA1FFA8CF309FB1A7720FA7D
:1052E0000EF88C400AFB03F548EA04044FEA144820
:1052F00048EA0747BD4202FA01F200FA01FB09D968
:1053000017EB0C070AF1FF3041D2BD423FD9AAF199
:10531000020A67447F1BB7FBF9F509FB157705FB0C
:1053200003F3A4B244EA0747BB4208D917EB0C07C2
:1053300005F1FF3027D2BB4225D9023D674445EA3B
:105340000A40A0FB0289FF1A4F4545464C4614D33C
:1053500029D066B3BBEB050367EB040707FA0EFE23
:10536000CB40CF404EEA030386E888000021BDE829
:10537000F08F2346F3E61846DAE6B8EB020569EB50
:105380000C040138E5E70546D9E7104692E7824666
:10539000C0E7924678E702383A4443E7084604E714
:1053A000023B3C442AE7C345E7D33C46D1E73146BC
:1053B000BDE8F08F704700BF81F0004102E000BF00
:1053C00083F0004330B54FEA41044FEA430594EAC5
:1053D000050F08BF90EA020F1FBF54EA000C55EA00
:1053E000020C7FEA645C7FEA655C00F0E2804FEAD1
:1053F0005454D4EB5555B8BF6D420CDD2C4480EAB3
:10540000020281EA030382EA000083EA010180EAE2
:10541000020281EA0303362D88BF30BD11F0004F30
:105420004FEA01314FF4801C4CEA113102D0404266
:1054300061EB410113F0004F4FEA03334CEA1333A1
:1054400002D0524263EB430394EA050F00F0A780B9
:10545000A4F10104D5F1200E0DDB02FA0EFC22FAB4
:1054600005F2801841F1000103FA0EF2801843FAA8
:1054700005F359410EE0A5F120050EF1200E012A99
:1054800003FA0EFC28BF4CF0020C43FA05F3C018D7
:1054900051EBE37101F0004507D54FF0000EDCF150
:1054A000000C7EEB00006EEB0101B1F5801F1BD3F9
:1054B000B1F5001F0CD349085FEA30004FEA3C0CFD
:1054C00004F101044FEA445212F5800F80F09A80F3
:1054D000BCF1004F08BF5FEA500C50F1000041EBF7
:1054E000045141EA050130BD5FEA4C0C404141EBFB
:1054F000010111F4801FA4F10104E9D191F0000F22
:1055000004BF01460020B1FA81F308BF2033A3F1A4
:105510000B03B3F120020CDA0C3208DD02F1140C9B
:10552000C2F10C0201FA0CF021FA02F10CE002F1D6
:105530001402D8BFC2F1200C01FA02F120FA0CFCCF
:10554000DCBF41EA0C019040E41AA2BF01EB045118
:10555000294330BD6FEA04041F3C1CDA0C340EDC16
:1055600004F11404C4F1200220FA04F001FA02F359
:1055700040EA030021FA04F345EA030130BDC4F117
:105580000C04C4F1200220FA02F001FA04F340EA0C
:105590000300294630BD21FA04F0294630BD94F0BD
:1055A000000F83F4801306BF81F480110134013DA4
:1055B0004EE77FEA645C18BF7FEA655C29D094EA15
:1055C000050F08BF90EA020F05D054EA000C04BF93
:1055D0001946104630BD91EA030F1EBF002100207E
:1055E00030BD5FEA545C05D14000494128BF41F01D
:1055F000004130BD14F580043CBF01F5801130BD81
:1056000001F0004545F0FE4141F470014FF000000B
:1056100030BD7FEA645C1ABF194610467FEA655CBC
:105620001CBF0B46024650EA013406BF52EA03355E
:1056300091EA030F41F4002130BD00BF90F0000F4C
:1056400004BF0021704730B54FF4806404F1320488
:105650004FF000054FF0000150E700BF90F0000F41
:1056600004BF0021704730B54FF4806404F1320468
:1056700010F0004548BF40424FF000013EE700BF38
:1056800042004FEAE2014FEA31014FEA02701FBFC8
:1056900012F07F4393F07F4F81F06051704792F09A
:1056A000000F14BF93F07F4F704730B54FF4607414
:1056B00001F0004521F0004120E700BF50EA01025F
:1056C00008BF704730B54FF000050AE050EA01020C
:1056D00008BF704730B511F0004502D5404261EB7C
:1056E00041014FF4806404F132045FEA915C3FF4BD
:1056F000DCAE4FF003025FEADC0C18BF03325FEA56
:10570000DC0C18BF033202EBDC02C2F1200300FA0A
:1057100003FC20FA02F001FA03FE40EA0E0021FA2F
:1057200002F11444C1E600BF70B54FF0FF0C4CF419
:10573000E06C1CEA11541DBF1CEA135594EA0C0FCF
:1057400095EA0C0F00F0DEF82C4481EA030621EA0A
:105750004C5123EA4C5350EA013518BF52EA033545
:1057600041F4801143F4801338D0A0FB02CE4FF0F7
:105770000005E1FB02E506F00042E0FB03E54FF027
:105780000006E1FB03569CF0000F18BF4EF0010E1F
:10579000A4F1FF04B6F5007F64F5407404D25FEA1B
:1057A0004E0E6D4146EB060642EAC62141EA5551CE
:1057B0004FEAC52040EA5E504FEACE2EB4F1FD0C10
:1057C00088BFBCF5E06F1ED8BEF1004F08BF5FEA8E
:1057D000500E50F1000041EB045170BD06F0004640
:1057E00046EA010140EA020081EA0301B4EB5C04ED
:1057F000C2BFD4EB0C0541EA045170BD41F48011E5
:105800004FF0000E013C00F3AB8014F1360FDEBF09
:10581000002001F0004170BDC4F10004203C35DAE5
:105820000C341BDC04F11404C4F1200500FA05F368
:1058300020FA04F001FA05F240EA020001F0004209
:1058400021F0004110EBD37021FA04F642EB06017F
:105850005EEA430E08BF20EAD37070BDC4F10C04A9
:10586000C4F1200500FA04F320FA05F001FA04F26D
:1058700040EA020001F0004110EBD37041F1000159
:105880005EEA430E08BF20EAD37070BDC4F1200564
:1058900000FA05F24EEA020E20FA04F301FA05F2CC
:1058A00043EA020321FA04F001F0004121FA04F274
:1058B00020EA020000EBD3705EEA430E08BF20EA44
:1058C000D37070BD94F0000F0FD101F0004640007E
:1058D00041EB010111F4801F08BF013CF7D041EA00
:1058E000060195F0000F18BF704703F00046520004
:1058F00043EB030313F4801F08BF013DF7D043EAD5
:105900000603704794EA0C0F0CEA135518BF95EA8A
:105910000C0F0CD050EA410618BF52EA4306D1D111
:1059200081EA030101F000414FF0000070BD50EA30
:10593000410606BF1046194652EA430619D094EABA
:105940000C0F02D150EA013613D195EA0C0F05D1A4
:1059500052EA03361CBF104619460AD181EA0301F8
:1059600001F0004141F0FE4141F470014FF00000B0
:1059700070BD41F0FE4141F4780170BD70B54FF04B
:10598000FF0C4CF4E06C1CEA11541DBF1CEA1355CB
:1059900094EA0C0F95EA0C0F00F0A7F8A4EB0504AD
:1059A00081EA030E52EA03354FEA013100F08880A4
:1059B0004FEA03334FF0805545EA131343EA12636D
:1059C0004FEA022245EA111545EA10654FEA002622
:1059D0000EF000419D4208BF964244F1FD0404F5DB
:1059E000407402D25B084FEA3202B61A65EB030537
:1059F0005B084FEA32024FF480104FF4002CB6EBF4
:105A0000020E75EB030E22BFB61A754640EA0C0073
:105A10005B084FEA3202B6EB020E75EB030E22BFB3
:105A2000B61A754640EA5C005B084FEA3202B6EBF4
:105A3000020E75EB030E22BFB61A754640EA9C00B3
:105A40005B084FEA3202B6EB020E75EB030E22BF83
:105A5000B61A754640EADC0055EA060E18D04FEA41
:105A6000051545EA16754FEA06164FEAC30343EAE1
:105A700052734FEAC2025FEA1C1CC0D111F4801FAE
:105A80000BD141EA00014FF000004FF0004CB6E7A7
:105A900011F4801F04BF01430020B4F1FD0C88BF46
:105AA000BCF5E06F3FF6AFAEB5EB030C04BFB6EB51
:105AB000020C5FEA500C50F1000041EB045170BD44
:105AC0000EF0004E4EEA113114EB5C04C2BFD4EB71
:105AD0000C0541EA045170BD41F480114FF0000EF5
