:020000040800F2
:10000000083400208D1D0008891D0008891D000886
:10001000891D0008891D0008891D000800000000D6
:10002000000000000000000000000000891D000822
:10003000891D000800000000891D0008B527000880
:10004000891D0008891D0008891D0008891D0008F8
:10005000891D0008891D0008891D0008891D0008E8
:10006000891D0008891D0008891D0008891D0008D8
:10007000891D0008891D0008891D0008891D0008C8
:10008000D1040008DD040008891D0008891D00084E
:10009000092C0008A52C0008891D0008891D0008EE
:1000A000891D0008891D0008891D0008891D000898
:1000B000891D0008891D0008891D0008B504000875
:1000C000C1040008891D0008891D0008891D000859
:1000D000891D0008891D0008891D0008891D000868
:1000E000891D0008891D0008891D00080000000006
:1000F0000000000000000000000000000000000000
:1001000000000000000000005FF808F1084B10B587
:1001100053F820400121204601F096FF204600219F
:1001200001F092FF2046BDE81040012101F080BFA0
:1001300020810008084B10B553F8204001212046CB
:1001400001F082FF2046002101F07EFF2046BDE83D
:100150001040002101F06CBF208100082DE9F3411F
:100160000746134C8500631998681B6901211843E1
:1001700001F052FF03238DF8063004EB47041C23E3
:100180008DF80730238B02AEDFF8288026F8043D77
:10019000314658F8270001F063FE4544A38B3146F1
:1001A000A868ADF8043001F05BFE02B0BDE8F08154
:1001B0002081000800000020F7B507460E4E0323FB
:1001C00006EB40068DF8063004238DF80730338B9C
:1001D00002AD0A4C25F8043D294654F8200001F0F0
:1001E0003FFE04EB8704B38B2946A068ADF80430CA
:1001F00001F036FE03B0F0BD2081000800000020B1
:1002000070B5184C85002C440E46206A012101F07F
:10021000F7FE4FF6FF7314498022CB6000230B6179
:100220008B61CB618B62A36A4A6116F0010F4FF4B8
:1002300040524A620B600C4606D010238B600B4B79
:100240002B44186902F026F8B30709D50023A360F0
:10025000064B05491D44A869BDE8704002F01AB874
:1002600070BD00BF2081000888050020000000202C
:1002700010B40C4B0C6849688000D9600A4912F42C
:1002800080420144896A18BF20221A6210225C60F1
:1002900019609A60054B03491844006910BC01F0CD
:1002A000F9BF00BF88050020208100080000002061
:1002B00010B40C4B0C6849688000D9600A4912F4EC
:1002C00000420144896A18BF20221A6200225C6041
:1002D00019609A60054B03491844806910BC01F00D
:1002E000D9BF00BF88050020208100080000002041
:1002F000CA0738B504460D4605D5084B03EB800305
:10030000186901F04FFFAB0707D5044800EB8400E4
:100310008069BDE8384001F045BF38BD00000020CD
:100320002DE9F74305460F46404C9046661999461D
:1003300006F0C8F901238DF8073096F8303001A88F
:100340008DF8043096F832308DF8053096F8343058
:100350008DF8063006F0C4F9780217D496F83630D6
:1003600001A88DF8043096F838308DF8053096F8ED
:100370003A308DF8063006F0B3F92D4B03EB8503C8
:100380001A6A93889BB243F480739380B9F1020F89
:1003900049D118F0010F21D0631993F83C2001A82E
:1003A0008DF8042093F83E2093F840308DF8052016
:1003B0008DF8063006F094F91D4BB90503EB850363
:1003C0001B691A6842F002021A601A6842F00802B9
:1003D0001A6042BF1A6842F004021A6018F0020F55
:1003E00021D0631993F8422001A88DF8042093F8D6
:1003F000442093F846308DF805208DF8063006F03D
:100400006FF90B4B03EB8505AB691A6842F00202EA
:100410001A601A6842F008021A60FA0442BF1A68A9
:1004200042F004021A6003B0BDE8F08320810008A6
:10043000000000202DE9F3478A461D4E99463718E3
:1004400000238DF805308DF806308DF8073097F8C9
:10045000303002AC04F8043D05462046904606F0D4
:100460003FF91AF4800F06D197F8363020468DF800
:10047000043006F035F9B9F1020F15D118F0010F6B
:1004800007D0731993F83C3020468DF8043006F0FD
:1004900027F918F0020F07D0354495F8423020466E
:1004A0008DF8043006F01CF902B0BDE8F08700BFFB
:1004B00020810008014800F055BC00BF2800002042
:1004C00008B5024800F04AFA002008BD28000020C4
:1004D000014800F089BA00BF28000020014800F060
:1004E00011BB00BF28000020224A038890429BB223
:1004F00012D002F5006290420ED0B0F1804F0BD0C6
:10050000A2F59832904207D002F58062904203D063
:1005100002F58062904203D14A8823F070031343AE
:10052000154A904208D002F5806290421FBF23F422
:100530004073CA889BB2134303808B8883850B88E2
:1005400003850C4B98420FD003F5006398420BD003
:1005500003F54063984207D003F58063984203D0C7
:1005600003F58063984201D10B7A038601238382CD
:10057000704700BF002C014000100040038C70B594
:1005800023F001031B041B0C0384028C8688038B5D
:100590000D8823F073031B041B0C1D4322F0020281
:1005A0000C894B881204120C23431343144AB6B22D
:1005B00090429BB20FD002F5006290420BD002F540
:1005C0004062904207D002F58062904203D002F56B
:1005D000806290420ED14C8923F008031C438B8823
:1005E00024F0040426F4407223438E89CC893443DA
:1005F000224396B2CA88868005838286038470BDB2
:10060000002C0140038C30B523F010031B041B0C9D
:100610000384038C8588028B0C8822F4E642120442
:10062000120C42EA042223F0200394B21B040A892C
:100630001B0C43EA02134A88ADB243EA0213124A82
:100640009BB2904203D002F50062904215D123F094
:1006500080034A899BB243EA02124FF6BF731340EC
:100660008A8825F4406543EA02138A899BB245EAE9
:100670008205CA8945EA8205ADB2CA8885800483AD
:100680000287038430BD00BF002C0140038C30B5CD
:1006900023F480731B041B0C0384038C8488828BDB
:1006A0000D8822F073021204120C23F40073154318
:1006B0001B040A891B0C43EA02234A88A4B243EABA
:1006C0000223124A9BB2904203D002F5006290428C
:1006D00015D123F400634A899BB243EA02224FF604
:1006E000FF3313408A8824F4405443EA02238A8962
:1006F0009BB244EA0214CA8944EA0214A4B2CA882A
:10070000848085838287038430BD00BF002C014034
:10071000038C30B523F480531B041B0C0384038C1F
:100720008488828B0D8822F4E6421204120C23F492
:10073000005342EA05221B040D891B0C43EA0533D2
:100740004D88A4B243EA05330A4D92B2A8429BB247
:1007500003D005F50065A84205D18D8924F48044B5
:1007600044EA8514A4B284808283CA88A0F8402019
:10077000038430BD002C0140038819B19BB243F0C3
:10078000010303E023F001031B041B0C03807047EB
:10079000B0F8443029B16FEA43436FEA53439BB248
:1007A00001E0C3F30E03A0F8443070474FF0FF326E
:1007B000826110220273FF22026103F049BE000031
:1007C000037B70B5012B044605D0037B102B02D0B0
:1007D000037B002B68D1E078012802D1102323731A
:1007E00070BD2078314D55F82020138823F0010387
:1007F0001B041B0C1380FFF7DFFC2078FFF79AFC2B
:10080000E378022B03D161782078FFF771FD20781F
:10081000FFF77CFC2078FFF7A1FC2378E16955F80D
:10082000230003889BB243F00103038005F08EFF91
:100830006269207812F4801F07D01C4B53F82010F7
:100840000B889BB243F040030B80D10712D555F8BB
:10085000201002F0FE068B899BB243F001038B81CE
:100860008B8923F0FE031B041B0C8B818B899BB2AD
:1008700033438B81530007D555F820100B8823F4A0
:1008800080631B041B0C0B80E378022B02D1617880
:10089000FFF7B6FCE378207862786169FFF740FDE6
:1008A00001232373002070BD012070BD20000020B3
:1008B000037B10B5012B044604D0037B102B01D021
:1008C000037B13BB2078FFF777FC2078104B53F89D
:1008D0002020138823F001031B041B0C1380FFF757
:1008E00029FCE378022B03D161782078FFF700FD23
:1008F000E378207862786169FFF79CFD00204FF073
:10090000FF3320732061A36110BD012010BD00BF23
:10091000200000200F4A1049034611604BF6FF717A
:10092000D1804FF4806151814FF48041002091814A
:1009300003211081908059700221D9704FF0FF314E
:100940001873987018615860986058619961DA61FD
:10095000704700BFB4050020A0860100827808B56A
:10096000012A03461F4A00780ED15968496859B9CF
:10097000197B012902D0197B062905D152F82030B4
:100980004FF2FF029A822BE052F82020918A01F464
:1009900070611961102119734FF2FF019182196979
:1009A000C9050AD511886FEA41416FEA514189B200
:1009B00011801188C1F30E011180196989050AD5CA
:1009C00011886FEA41416FEA514189B21180118863
:1009D000C1F30E0111801A691A69196903F054FDF7
:1009E000002008BD200000204FF0FF3370B43F4AC4
:1009F000836103783E4952F8234051F8235022681E
:100A00002A4253D04268466900215160720461D481
:100A10008278002A5ED1374A52F82320918821F447
:100A200000610904090C918005218161918A4907BF
:100A300005D48169012902D081690131F6D181692A
:100A400001291DD0816901311AD04FF0FF313602E2
:100A500081611BD4118889B241F400711180062193
:100A60008161118B890705D58169012902D08169CE
:100A70000131F6D18169012902D08169013102D1A8
:100A800070BCFFF793BE4FF0FF3181611A4951F8F6
:100A90002360316821F001013160918821F40071F7
:100AA0000904090C91800122027313E0134A2168A2
:100AB00052F8232011420DD1114A216852F8232007
:100AC000114207D00C49102251F8231002734968D3
:100AD00042685160094A0A4952F8232051F82330EC
:100AE0002A4313436360002070BC70474800002015
:100AF000908100082000002010000020888100085C
:100B0000808100084FF0FF3370B4374A8361037867
:100B1000364952F8234051F8235022682A4243D0E4
:100B20008268002151604269160451D48278002AFB
:100B30004ED12F4A52F82320118889B241F4007116
:100B40001180918821F400610904090C918006212B
:100B50008161118B890705D58169012902D08169DD
:100B60000131F6D18169012902D08169013102D1B7
:100B700070BCFFF71BBE4FF0FF3181611D4951F87A
:100B80002360316821F001013160918821F4007106
:100B90000904090C9180918821F480510904090C01
:100BA00091800122027313E0134A216852F8232036
:100BB00011420DD1114A216852F82320114207D069
:100BC0000C49102251F82310027349688268516061
:100BD000094A0A4952F8232051F823302A43134383
:100BE0006360002070BC70474800002078810008D6
:100BF0002000002018000020708100086881000893
:100C000038B5C3780446012B02D0022B0AD047E046
:100C10000278264B53F8222093889BB243F48063DA
:100C2000938041E00078214D55F82020938823F4EB
:100C300000731B041B0C938093889BB243F40063E6
:100C40009380237B062B01D001290ED16269616854
:100C5000FFF70EFB227855F822108B8823F480537F
:100C60001B041B0C8B80124B13E0237B0A2B01D03F
:100C7000022919D16269A168FFF71AFBA3782278CB
:100C800033B955F822108B889BB243F480538B8084
:100C9000084B53F82220136843F00103136003E06C
:100CA00010230373012038BD002038BD2000002030
:100CB000100000201800002038B5037B0446980778
:100CC0004BD4237B032B48D0237B052B45D0237BA0
:100CD000002B42D0237B102B3FD06269022312F0FD
:100CE000807F23731E4D23781AD1062155F82300E7
:100CF000A161018B890705D5A169012902D0A169EC
:100D00000131F6D1A169012902D0A169013104D1D3
:100D10002046BDE83840FFF749BD4FF0FF31A161E3
:100D2000A17881B955F823100B889BB243F48073E6
:100D30000B80D30303D501212046FFF761FF032376
:100D400023731F23A3612378002055F82320938861
:100D50009BB243F40073938038BD012038BD00BFBF
:100D60002000002073B50023ADF806308C4E0378C8
:100D7000044656F823309A8A02F0DF02ADF80620C6
:100D80008278FAB9BDF80620D0071DD54FF0FF32A2
:100D9000A261E2699289B2F5804F13D1227B052AC4
:100DA00007D1A268926842F00102D2B21A820A23E5
:100DB00005E06268926802F0FE021A82062323733D
:100DC0000423A3610025E7E0BDF80620910767D55D
:100DD000E17802290BD1227B062A01D1626803E067
:100DE000227B0A2A03D1A2685268013201E04FF047
:100DF000FF32A261227B0A2A0DD101290BD1A26800
:100E0000556845B91A8892B242F400721A809A8ADB
:100E10001B8B2173C0E0237B0A2B05D1012903D151
:100E200002212046FFF7ECFE237856F823309A8AF9
:100E30001A8B227B0A2A0ED1A2685268012A0AD193
:100E40001A8822F480621204120C1A801A8892B254
:100E500042F400721A80626912F48035B2D1217BAB
:100E6000062918D1920316D46268127B1A820322D3
:100E7000A2619A8A160605D4A269012A02D0A26943
:100E80000132F6D1A369012B71D0A36901336ED071
:100E90004FF0FF33A36103212046FFF7B1FE7BE053
:100EA000BDF8062050068DD5227B0A2A8AD1E27829
:100EB000012A87D1A1684A68022A0A6817D11B8AC9
:100EC0001370237856F82320138823F480631B04BF
:100ED0001B0C138013889BB243F400731380A36828
:100EE0005A68013A5A601A6801321A6010E049687B
:100EF0001B8A0129137004D1A2685368013B536017
:100F000006E0A3681A6801321A605A68013A5A600A
:100F1000A3685D68002D7FF455AF237856F8233021
:100F20009A8822F400721204120C9A809A8822F491
:100F300080621204120C9A809A8A1A8A626991025B
:100F400041BF22F4001262610222E2700622A26115
:100F50001A8B920705D5A269012A02D0A269013233
:100F6000F6D1A269012A02D0A269013204D1204639
:100F7000FFF71CFC05460FE04FF0FF32A2611A8814
:100F800092B242F480621A801A8822F4006212043B
:100F9000120C1A8001232373284602B070BD00BFD3
:100FA00020000020384B82B01A6842F001021A601B
:100FB0005968364A0A405A601A6822F0847222F44C
:100FC00080321A601A6822F480221A605A6822F469
:100FD000FE025A604FF41F029A60002200920192B2
:100FE0001A6842F480321A601A6802F400320192E0
:100FF000009A01320092019A1AB9009AB2F5A06FD4
:10100000F2D11A6812F4003218BF01220192019A3B
:10101000012A05D01E4B4FF000629A6002B0704763
:101020001C4A116841F010011160116821F00301A0
:101030001160116841F0020111605A685A605A68E3
:101040005A605A6842F480625A605A6822F47C12EC
:101050005A605A6842F4E8125A601A6842F0807284
:101060001A601968084A8901FBD5516821F003010B
:101070005160516841F0020151605A6802F00C025F
:10108000082AFAD1C6E700BF001002400000FFF8AE
:1010900000ED00E0002002402DE9F047089D01F03E
:1010A00007044FEAD508224405F007054FF47F49AD
:1010B00000EBD100944227D005F0070604F0070AA0
:1010C000B245D44638BFB446CCF10801C4EB020C9B
:1010D0008C4528BF8C46E708C75D29FA0CFE08EB53
:1010E000D50107FA0AF75FFA8EFE4EFA06FE47FAB6
:1010F00006F65F5C06EA0E0627EA0E0E46EA0E06C4
:101100005E5464446544D5E7BDE8F0870246006854
:1011100048B1036811891360D38801339BB29942A7
:10112000D38038BF1381704770B504460D4688B030
:1011300020220021684606F055FC20460495FFF762
:10114000E5FF054658B16B46044608AE1A4603CA89
:10115000B24220606160134604F10804F6D12846CB
:1011600008B070BD2DE9F0410568DDB18E68A84674
:1011700026F06047BB0C4FEAD67EC6F3807C2A4639
:1011800037EA260628BF1E469368BEEBD37F23F0BE
:1011900060440ED0002B08DAA40CB44207D195426B
:1011A00013D10D600160BDE8F081B44212D0A642B7
:1011B00006E0A74203D1C3F380739C4503D1A74245
:1011C0002CBF002301232BB1E9E7C8F800100A6007
:1011D000BDE8F0811368904613B91160BDE8F08155
:1011E0001A46D1E7F8B506460F464FF6FF740025BC
:1011F0002A463046394605F013FBC0B284EA002483
:10120000082314F4004F4FEA4404A4B21CBF84F432
:10121000815484F00104013BF3D10835402DE7D11E
:101220002046F8BD10B54B6843B1C4681A681C600D
:10123000C360438A013B43824A60F4E70A8B002083
:1012400063F309020A83002110BD0A44914211D0C0
:1012500011F8013B80EA0320082310F4004F4FEA05
:10126000400080B21CBF80F4815080F00100013B3F
:10127000F3D1EBE770472DE9F04F85B081468DE85B
:101280000A00BDF83C409346002A7DD024B10E9B55
:10129000002B79D0072C27D809F10C00FFF736FF77
:1012A000054610B96FF0020070E02022002106F020
:1012B00099FB22460E9905F1100006F01DFB631CF8
:1012C0002B769BF800302C4403F01F0363F03F03A0
:1012D0002374009B09F11C0043F00043AB602946D6
:1012E000FFF740FF012051E04FF000084646454619
:1012F000019B4FF0800A1B0A029300F10C03039339
:101300000398FFF703FF07460028CBD020220021D7
:1013100006F068FB3EB99DF8043002223B749DF84C
:1013200008307B740BE0002209E00E9BB9180132F3
:10133000985DD2B20136072A0874B6B201D0B44221
:10134000F3D8A64208BF4FF0400A9BF80010B81827
:1013500001F01F0141EA481141EA0A030374009BAE
:10136000013243F00043BB603A76394609F11C0074
:10137000FFF7F8FEA64205F1010588F001084FF0DD
:10138000000ABDD1284601E06FF0010005B0BDE8BC
:10139000F08F2DE9F04717460A8B9946C2F30902F0
:1013A000C2F10603002B0646884618DD00201FFA0E
:1013B00089F185B253199BB2052B09D9A9420FD8DF
:1013C000B8F818300A4462F30903A8F818306BE043
:1013D000A942F3D93C5C43449C760130E9E70025FF
:1013E000911F1C23B1FBF3FA03FB1A1AD8F804402F
:1013F0005FFA8AF10CB1012329E03046FFF786FE3F
:10140000044608B100230360C8F80440CCB96FF06B
:101410000200BDE8F0874A44063A1C20B2FBF0F215
:101420000132D2B293420DD2BAF1000F0AD1304646
:10143000FFF76CFE08B1C0F800A020600028E6D0DD
:10144000044600211FFA89F94FF0000A11E02068D4
:101450000028E0D00133DBB20446F8E7A3180132DC
:10146000785D92B201351C2A1871ADB205D0A9453C
:10147000F4D84D450FD28AB2F0E7A945F9D93046E4
:10148000FFF744FE08B1C0F800A020600028BED0DD
:1014900004460021EDE7B8F81820C2F30903994487
:1014A00069F30902A8F818200120BDE8F087F8B513
:1014B000044616460D46242200211F4606F092FAE5
:1014C000069B72096360079B002023624FF6FF733F
:1014D0009A4228BF1A4629460346A760207097B251
:1014E00004F10C06934204D0316001330E462031E2
:1014F000F8E70023336027826382A382F8BD037874
:101500001BB94BB2002BC8BF017070470078704701
:101510002DE9F7430D9F8046BDF828400B9E9DF8AE
:101520003090BDF838500FB9002D3FD1B9F11F0FE1
:101530003CD898F80010A9B9072D34D834F003032B
:1015400034D12A4639464FF6FF70FFF77EFE47F644
:10155000FE73240204F4407444EA0964034044EA3C
:1015600043240FE041EA0421072D41EA096409D927
:1015700019461046FFF736FE2A463946FFF765FE44
:10158000034601E04FF6FF7301950097324621466E
:101590004046FFF770FE33780133DBB21F2B88BF64
:1015A0000023337004E06FF0030001E06FF00100EE
:1015B00003B0BDE8F0832DE9F7430E9F81460C464A
:1015C000104619460B9D9DF830209DF83480BDF8DB
:1015D0003C6007B976BB1F2A2CD899F8003063B35A
:1015E00043F0800343EA04239DF8284043EAC833CC
:1015F00043EA0443072E43EA026407D9FFF7F2FDEA
:1016000032463946FFF721FE034601E04FF6FF73ED
:10161000019600972A4621464846FFF72CFEB8F16E
:10162000010F0CD12B780133DBB21F2B88BF0023B5
:101630002B7004E06FF0010001E06FF0030003B0D5
:10164000BDE8F083C06900B108307047C3691A680B
:10165000C261C2681A60C360438A013B438270471B
:101660002DE9F047D0F818A0054616461F46544607
:10167000DFF868804FF00009002C2CD0D4E9022359
:10168000B21A67EB0303994508BF904520D2AB69B6
:1016900021469C4228460DD1FFF7C4FDAB691B686B
:1016A000AB61EB6823606B8AEC60AC69013B6B82D9
:1016B000A246E1E7FFF7B6FD2368CAF80030EB6801
:1016C00023606B8AEC60013B6B82DAF80040D3E761
:1016D000A2462468D0E7BDE8F08700BF80841E00E2
:1016E0002DE9F04F8BB00E4614460793149F8246A7
:1016F000002800F0FF80002F00F0FC80531E3F2BDD
:1017000000F2F880012A03D1079B002B40F0F28001
:10171000BAF814500023ED00AE420893099301D3A8
:10172000002505E133199D42DAF80C303ABFAD1BB4
:10173000EDB225461BB9DAF81030002B61D02F2E00
:1017400015D8C6F13008A84528BFA8460023009345
:101750005FFA88FB4246314608ABDAF80800464497
:10176000CBEB0508FFF798FC5FFA88F802E0A84683
:101770004FF0000BBAF81430302103F10053063B50
:10178000DB000493DAF80C300393039B6BB3B8F1DE
:10179000000F2AD0049BE02B28BFE02306930B44C4
:1017A000B342059318D9C6EB0309C84538BFC146F3
:1017B000039828BF5FFA89F9CDF800B0711A08AB19
:1017C0004A460430FFF768FCCB44C9EB08084E4496
:1017D0005FFA8BFB5FFA88F8049B069A05999B1ABF
:1017E0000493039B1B680393CFE7DAF8100080B1E2
:1017F000B8F1000F0DD0CDF800B008AB4246711A19
:1018000005E02A4631460093DAF8080008ABFFF7F6
:1018100043FC002D84D066070BD00AAB03EBD40148
:1018200011F8082C634203F0070342FA03F301F8AE
:10183000083C082C06D9102C06D9202C8CBF082374
:10184000042302E0012300E00223079A002A57D074
:10185000B4EBC30F56D0082C0ED89DF92020631E80
:1018600022FA03F3D80760D54FF0FF3303FA04F4EC
:1018700014438DF8204058E0102C0ED8BDF92020DC
:10188000631E22FA03F3D90743D54FF0FF3303FA5F
:1018900004F41443ADF820403BE0202C0CD8089B06
:1018A000621E23FA02F2D20737D54FF0FF3202FA56
:1018B00004F42343089330E0402C1ED0DDE908896E
:1018C000621E4046494604F0ABFF002100F00100D3
:1018D00050EA010324D022460120002104F0ACFF8D
:1018E000404261EB410140EA080041EA0901CDE9CB
:1018F000080115E06FF001051AE06FF0080517E028
:10190000012C12D0082C10D9102C02D9202C07D869
:1019100003E0BDF820303B800AE0089B3B6007E015
:10192000DDE90823C7E9002302E09DF820303B7081
:1019300028460BB0BDE8F08F30B5402A85B018D8E6
:10194000002A08BF01220024012A0294039401D036
:10195000082A03D81B788DF808300FE0102A03D826
:101960001B88ADF8083009E0202A03D81B680293D1
:1019700004E04022D3E90045CDE9024553070BD0EE
:1019800004AB03EBD20515F8084C534203F00703F0
:1019900004FA03F305F8083C00910346002102A86D
:1019A000FFF77AFB05B030BD10B5CB6843B1C46812
:1019B0001A681C60C360438A013B4382CA60F4E733
:1019C0008B600B618B8210BD2DE9F04FD1F800A028
:1019D0008FB0CDE90223CAF3C01204460D4622B1EE
:1019E000CAF3C03BCAF3062802E090464FF0020B50
:1019F000BAF1000F80F2BB812B6813F0C04F40F0AA
:101A0000B6812B7C002B00F0B281BBF1020F03D01A
:101A10002178414540F0AB810AF07F01C8B20590C2
:101A200012B1CAF3074904E0CAF30F2909B909F052
:101A300003092B444FEA4868059ADE7948EA0B48C7
:101A400048EA8248F30948EA090804932BD00022A7
:101A500000230EA961E90823059B676800934A46A5
:101A60005B462046B847002800F08181A7694FB93E
:101A7000414604F10C00FFF757FB074688B976E1B1
:101A80003F681FB13B699845FAD115E0414604F122
:101A90000C00FFF749FB0746002800F06881A369A6
:101AA0003B60A76108E0A769002F00F060813B69F7
:101AB000984506D03F68F7E7DDE90601FFF792FB9E
:101AC000F88297F819E006F01F08CEF3840EB8EB01
:101AD0000E0ED7E9022348BF0EF1200E52EA030191
:101AE000CAF3046A00F02E81DDE90201801A61EB7D
:101AF00003010B46024600219E48994208BF9042CE
:101B0000C0F02081049B5BB3BEF1010F00F31A818A
:101B1000730625D5DDE902230021C7E9022306A8C3
:101B2000202205F05FFFDDE90223CDE9062305F160
:101B3000080308932B7CADF82E90013BDBB2ADF887
:101B40002C309DF814308DF830B08DF833308DF88E
:101B500031808DF832A0A36806A920469847DEE0C0
:101B60007B7EC6F34012B2EBD31F40F00081C3F37B
:101B70008403434540F0FB80049A2B7CB609002A7D
:101B800033D016F001065ED1032B40F2F080DDE980
:101B90000223C7E902232B7C05F10A08033BDBB2D1
:101BA0004246394604F10C00FFF7F3FB002812DA35
:101BB00039462046FFF736FB7B7EC3F384020132B1
:101BC00062F386037B763B8B66F309033B831B0A38
:101BD00066F3C713B4E06A7A2B7A414643EA0223DC
:101BE000BB822A7C033AD2B223E066BB05F1080629
:101BF000013BDBB23246394604F10C00FFF7C9FB6A
:101C0000002812DA39462046FFF70CFB7B7EC3F32F
:101C10008402013262F386037B76049A3B8B62F383
:101C200009033B83049A1B0A88E031462A7C013A67
:101C3000D2B2F88AFFF709FB7B7EF882C3F3C012A9
:101C400082F001027AE0388B013BC0F309000528DD
:101C5000DBB212D8EE1D0021CAB2934228D901315D
:101C600000EB010E16F801CF07EB0E02BEF1060FD6
:101C700082F819C0CAB2EFD11AE07E68BEB106225E
:101C8000316811B11C320E46FAE7801A05F1070CD3
:101C900000EB010EBEF11B0FCAB209D89A4207D25F
:101CA0001CF8012FB6448EF804200131F0E73246CB
:101CB000DDE902019A42CDE9060107F11A01089116
:101CC00038BF0832796834BF5219002209910A924C
:101CD0003A8BADF82E90C2F309021344ADF82C30C4
:101CE0009DF814308DF830B08DF8333000238DF826
:101CF00031808DF832A07B602A7CF88A013A05F1A8
:101D00000801FFF7A2FABB8AF882834203D1A368D5
:101D100006A92046984706A92046FFF745FE7B7E88
:101D2000C3F38402013262F386037B763B8B6FF34D
:101D300009033B831B0A6FF3C71301E062F3C71368
:101D40007B7614E07B7E394666F386036FF3C71318
:101D50007B762046FFF766FA049B002B7FF4D8AE13
:101D60007B7EC3F38402013262F38603E8E70FB09F
:101D7000BDE8F08F80841E00034651F8100F8A885A
:101D800018609A8018467047FEE7000008B50C4AB4
:101D90000C4B0D498B4204D252F8040F43F8040B4C
:101DA000F8E70A480A494FF000028842B8BF40F8F5
:101DB000042BFADBFFF7F6F8BDE8084004F006BC98
:101DC0001C960008000000205C0500206005002033
:101DD0000430002043690AB1194301E023EA0101FC
:101DE00041617047B1F5807F35D00CD8082924D0E7
:101DF00004D801291CD004291DD0704720291FD0E8
:101E000040291FD07047B1F5006F22D006D8B1F538
:101E1000007F20D0B1F5806F1DD07047B1F5803FB5
:101E200013D0B1F5003F12D0B1F5004F15D110E03D
:101E30000A4B83607047082300E01023C36070479B
:101E4000082300E0102303617047082304E01023F7
:101E500002E0002383610423436070470101010015
:101E6000CA782DE9F041D40648BF8C780E8802F07C
:101E70000F0348BF234316F0FF0F1ED00168002454
:101E80004FF0010E4FF00F0C0EFA04F737EA06057B
:101E90000FD1A5000CFA05F821EA080103FA05F5AF
:101EA000282A41EA050101D1476102E0482A08BF1A
:101EB00007610134082CE7D10160FF2E20D9416869
:101EC00000244FF0010E4FF00F0C04F108050EFA3C
:101ED00005F535EA06070FD1A7000CFA07F821EA45
:101EE000080103FA07F7282A41EA070101D14561F1
:101EF00002E0482A08BF05610134082CE5D14160A1
:101F0000BDE8F0818368194214BF012000207047AA
:101F10000AB1016170474161704700000028164A0C
:101F200030B500F44015B4BFD3695368B5F5401F10
:101F300084B206D1556823F0706325F07065556052
:101F40000EE0C20255BF420D03221201C0F3034549
:101F50004CBFAA4004FA02F223EA020343F0706382
:101F600019B1420D120194402343034A0028B4BF23
:101F7000D361536030BD00BF000001401C4A10B562
:101F8000536803F00C03042B01D0082B01D0194B2C
:101F90000EE053685168C3F38343CC0303F102039B
:101FA00002D55168890301D5134900E011494B431B
:101FB000036053681149C3F30313CC5C0368E34027
:101FC00043605468C4F302240C5D23FA04F4846073
:101FD0005468C4F3C2240C5DE340C3605268C2F38A
:101FE00081320A44127CB3FBF2F3036110BD00BFDF
:101FF0000010024000127A0000093D006C00002031
:10200000044B5A6909B1104301E022EA000058610B
:10201000704700BF00100240044B9A6909B1104399
:1020200001E022EA00009861704700BF0010024002
:10203000044BDA6909B1104301E022EA0000D861DB
:10204000704700BF00100240044B1A6909B11043E9
:1020500001E022EA00001861704700BF0010024052
:10206000034B044A5A6002F188325A60704700BF3D
:102070000020024023016745FFF7F2BF024A1369BF
:1020800043F080031361704700200240FFF7F6BF62
:10209000084BDA68D10709D4DA68520708D4DB683C
:1020A00013F0100F14BF0320042070470120704765
:1020B000022070470020024010B50446FFF7E8FFF9
:1020C000012806D11CB1FFF7E3FF013CF8E705202A
:1020D00010BD002C08BF052010BD000070B50546DE
:1020E0004FF400500E46FFF7E7FF04280ED1084CCE
:1020F0004FF40050236943F0010323612E80FFF762
:10210000DBFF41F6FE7322691340236170BD00BFFF
:102110000020024073B5002306464FF400500D46E0
:102120000193FFF7C9FF04281AD10E4C4FF4005059
:10213000236943F001032361ABB23380FFF7BCFF97
:10214000042808D102360196019B2D0C1D804FF406
:102150000050FFF7B1FF41F6FE732269134023617F
:1021600002B070BD0020024038B505464FF4302063
:10217000FFF7A2FF042812D1094C4FF43020236945
:1021800043F0020323616561236943F04003236147
:10219000FFF792FF41F6FD7322691340236138BDBA
:1021A000002002404FF6FE730268134003600023D4
:1021B000036043608360C360284B984201D1284A82
:1021C00027E0284B984201D1254A2AE0264B984225
:1021D00001D1234A2DE0254B984201D1204A30E01D
:1021E000234B984201D11E4A33E0224B984204D13E
:1021F0001B4A536843F470032EE01F4B984204D1EE
:10220000174A536843F0706326E01C4B984204D190
:102210001B4A536843F00F031EE01A4B984204D147
:10222000174A536843F0F00316E0174B984204D165
:10223000134A536843F470630EE0144B984204D180
:102240000F4A536843F4704306E0114B984204D19F
:102250000B4A536843F470235360704708000240F0
:10226000000002401C0002403000024044000240D6
:10227000580002406C000240800002400804024006
:10228000000402401C0402403004024044040240A6
:10229000580402400A6A10B58C68036814430A693E
:1022A00023F4FF4314434A6923F0700314438A69FB
:1022B0001443CA6914434A6A14438A6A2243134383
:1022C0000360CB6843600B6883604B68C36010BDDC
:1022D000410746BFC30843F00043430D820748BF90
:1022E00043F0804318467047094B9A6912F0700F0B
:1022F0000DD000229A61074A516801315160127F66
:1023000012B99B695B0702D5034A014B9A6070477B
:102310000064004060050020808080000000000014
:1023200070B50E4615461C46FFF7F0F850B9022C62
:102330000AD1012D08D138A3D3E900232846C6E9E4
:10234000002303E0002001E04FF6FF7003B2012BF1
:1023500017D001335AD0022C15D140F239439D4297
:102360000AD046F6B4639D4250D12DA3D3E9002391
:102370000120C6E9002370BD2BA3D3E90023C6E9E1
:102380000023012070BD012C36D1052D1FD00AD8A5
:10239000012D15D0042D39D125A3D3E900232046E2
:1023A000C6E9002370BD0B2D18D0282D1DD00A2D95
:1023B0002CD121A3D3E900232046C6E9002370BD18
:1023C0001FA3D3E900232846C6E9002370BD1EA33E
:1023D000D3E900232046C6E9002370BD1CA3D3E93E
:1023E00000232046C6E9002370BD1BA3D3E90023C8
:1023F0002046C6E9002370BD44B9302D08D118A38A
:10240000D3E900230120C6E9002370BD002070BD80
:10241000204670BDAFF30080401DA12026812A0B0D
:102420006FC971D4B02CBC69C41EDD8B3CD931207E
:10243000042B31ECA7766FBECDD269EBC51A133BE6
:102440009E6AC421818A46EEF017304A39059E56AD
:10245000D5A4D139F922B6A726417272DF25D7B7A4
:1024600078F6339F93CACD8D10B50E4C3823E360B8
:10247000204623610221FFF7B5FC20461021FFF71B
:10248000B1FC094A00231380084A20461380022128
:102490000122FFF79FFC2046BDE8104001221021D9
:1024A000FFF798BC00640040120B0020960C00203F
:1024B00000EB8000430018460138FDD870474028E3
:1024C00008B5024609D8BDE80840C0EB401002EB51
:1024D0008000C00080B2FFF7EBBF4FF47A70FFF7C7
:1024E000E7FF013A92B2002AF7D108BDF8B50E46CF
:1024F0002E21144605F062FD054605F0AFFC013CB7
:10250000A4B2A04238BF84B2621E0B4F711E681E77
:10251000324491420CD010F8013F3D681D446D7863
:1025200005F00305022D08BF203B01F8013FF0E74D
:1025300000233355F8BD00BF2801002038B50446FC
:1025400005F08CFC80B20246002330B1013880B225
:10255000215C2E2908BF0346F7E713B9013A202072
:1025600010E0013B202182B29A4205DAA55C0130DD
:10257000302D0AD1A154F6E738BD655C0133302D0A
:1025800003D1605499B29142F7DB38BD0309092B9E
:1025900000F00F0094BF3033373309280B7094BF1D
:1025A00030303730002348708B70704713B50A46BF
:1025B000044601A9C0B2FFF7E9FF200A1146FFF760
:1025C000E5FF9DF8043093709DF80530D3709DF8B9
:1025D0000630137102B010BD13B50A46044601A9B6
:1025E000C0B2FFF7D3FF9DF8043001A993719DF8A5
:1025F0000530C4F30720D371FFF7C8FF9DF80430FE
:1026000001A913719DF80530C4F307405371FFF71A
:10261000BDFF9DF8043001A993709DF80530200E90
:10262000D370FFF7B3FF9DF8043013709DF80530A9
:1026300053700023137202B010BDF8B50D46069C0E
:10264000002121702978752931D16E78632E01D14E
:10265000017807E0692E01D1018803E06C2E40F07B
:10266000A7800168AF78682F17D1632E05D1214666
:10267000BDE8F8400078FFF789BF692E05D12146F3
:10268000BDE8F8400088FFF791BF6C2E33D121469A
:10269000BDE8F8400068FFF79FBF2B2F2BD111B189
:1026A0002770012628E020202070012624E07329CD
:1026B0007ED16978632902D190F9001007E0692979
:1026C00002D1B0F9001002E06C2971D10168A8783C
:1026D0002B280AD1002903DA2D202070012608E0DA
:1026E00008BF20202070012606E000294FF00006D8
:1026F00002DA494200E00026174618464FF0300E35
:10270000002806DA013FBFB2013004F807E000B24A
:10271000F6E703EAE373134418BF01309BB218BF16
:1027200000B20A274FF02E0C9E4210D2013B9BB202
:10273000C3EB020E86451FBFB1FBF7FE07FB1E1160
:102740003031E1540CBF04F803C07146ECE70023BC
:10275000A3547A21284605F0DDF948B3AB782B2B3A
:102760000FD1601CFFF7EAFE204605F077FB01233E
:10277000834205D2E25C202A0BD101339BB2F7E7FA
:10278000F8BD2046FFF7DAFE204605F067FB01237F
:102790000BE02278234403F8012C20232370F8BD9A
:1027A000E25C202AF5D101339BB28342F8D3F8BD15
:1027B000F8BD0000034B0122DA831A6A01321A6263
:1027C000704700BF600500200B4B0021D9831962C0
:1027D0000A4B0B4A1B68F020B3FBF2F34FF47A72FA
:1027E0005343084A013B5360074B83F823000723F8
:1027F00091601360704700BF600500205800002002
:1028000040420F0010E000E000ED00E02DE9F84F3D
:10281000254B264D01281CBFAA461D468946144655
:102820002349244A06BF9A4688469046FFF724FC6F
:102830002846FFF799FC0428074630D14FF6FF7B66
:10284000B9F1000F08BF4FF47A74013405F1100696
:1028500024F001043444C5EB0A0AA64217D0B9F1AA
:10286000000F03D13AF8061089B203E0731B4B4402
:1028700033F8101C594501D10236EEE7B0450DD9A9
:102880003046FFF72BFC04280746F5D007E04FF051
:1028900011312846FFF73EFC074600E08027FFF78E
:1028A000F5FB3846BDE8F88F00E0010800E40108B8
:1028B000FFE70108FFE3010810B5FFF7DDFB07485C
:1028C000FFF752FC0428044603D10548FFF74CFCEF
:1028D0000446FFF7DBFB204610BD00BF00E0010807
:1028E00000E401080131C1F34F0100239AB2914283
:1028F0000AD9B3F5FC7F09D0054A1A445200128860
:1029000020F813200133F1E704207047802070473E
:1029100008F0000438B50A4604460D46014600207A
:10292000FFF774FFC0B2042801D080B238BD2A4638
:1029300021460120FFF76AFFC0B238BD38B5164BFB
:102940001D68D3F80044B5F1113F07D1B4F1113F30
:1029500001D104201DE0621C0ED104E06B1C0BD1E0
:10296000B4F1113F08D1002211460120FFF74EFFBC
:10297000C0B204280DD1ECE7FFF79EFFC0B20428D7
:1029800007D1013504D1013414BF4020202000E0DC
:10299000402080B238BD00BF00E001081FB5012112
:1029A0000420FFF745FB0023ADF80A30ADF80630F0
:1029B0004FF6FF73ADF80830094B0A4A1B680A4C02
:1029C000B3FBF2F304A9013B21F80C3D2046FDF7CF
:1029D0008BFD01212046FDF7CFFE04B010BD00BFE6
:1029E0005800002040420F000008004072B6064B1D
:1029F0009B8C9BB262B6054A91889380994282BFB4
:102A0000116801311160704700080040380D002046
:102A100072B6094B9A8C92B262B6084908488B8804
:102A20008A8093420B6884BF01330B6002EB03433F
:102A3000A0FB03308009704700080040380D0020DB
:102A4000D34D621030B472B60D4B988C80B262B622
:102A50000C490B8AD1E90245834204D9013445F17E
:102A60000005C1E902452B04220443EA144314186B
:102A700043F1000508822046294630BC704700BF5C
:102A800000080040380D002008B50120FFF786FF40
:102A9000064B00219A8C064B92B21960002000214F
:102AA0009A80C3E902011A8208BD00BF00080040F5
:102AB000380D002070B504460646044D0FCD0FC4F6
:102AC00095E8070084E80700304670BD60050020E7
:102AD000044B986800F0E05000F1644358425841BC
:102AE000704700BF006400402DE9F341054600280F
:102AF0007DD0046814F000547CD1FFF7F5FB3F4B08
:102B00009A6802F0E052B2F1E05F51D09A6826462E
:102B1000C2F380628DF804209A689B68C2F3C06299
:102B2000C3F300738DF805208DF80630FF2401AB48
:102B3000F35C0BB1F4B234E0330103F1804303F5ED
:102B4000CB431868FFF7C4FB2F684FEAD07C4FEAED
:102B5000D778E04527F0604320F0604207F0004E50
:102B600000F0004110D0BEF1000F00D09B0C19B155
:102B7000900C984215D002E09A4217D0104683423A
:102B80002CBF002001200BE0934205D1C0F38070E0
:102B9000C7F38077874203D193422CBF00200120E6
:102BA00020B10136032EC2D1FF2C01D1002022E03A
:102BB00023012A7C03F1804303F5CB435A60EA6882
:102BC0002968DA60AA6800299A60BABFCA0042F090
:102BD00004024A05490048BF42F0020242F00102E5
:102BE0001A60074A012053690133536103E06FF013
:102BF000010000E0034802B0BDE8F081006400403D
:102C00006005002015FCFFFF2DE9F041204F214A0F
:102C10003D881388013505F03F059BB29D429046E3
:102C20001D4C1CD01D4EF368DB0642BF23680133E8
:102C30002360D6F8B001FFF74BFB18236B4318490C
:102C4000C850CA18D6F8B43103F00F031374D6F87D
:102C5000B8319360D6F8BC31D3603D8002E0A36800
:102C60000133A3603B889AB2B8F800309BB2D31A04
:102C7000228A48BF40339342C4BF074A1382A369E4
:102C800038220133A361054BDA60BDE8F08100BF53
:102C9000960C0020120B002060050020006400400C
:102CA000F81900202DE9F041204F214A3D88138872
:102CB000013505F03F059BB29D4290461D4C1CD04E
:102CC0001D4E3369DB0642BF236801332360D6F80B
:102CD000C001FFF7FDFA18236B431849C850CA1802
:102CE000D6F8C43103F00F031374D6F8C8319360DB
:102CF000D6F8CC31D3603D8002E0E3680133E36075
:102D00003B889AB2B8F800309BB2D31A228A48BFE7
:102D100040339342C4BF074A1382A3693822013368
:102D2000A361054B1A61BDE8F08100BF960C00203D
:102D3000120B00206005002000640040F8190020FC
:102D4000F8B500B3FFF7D0FA114D124B1A882B8853
:102D500092B29BB29A4219D02A880F4C01321823A2
:102D600002F03F0203FB0244034604F11807264623
:102D700003CEBE4218605960344603F10803F6D111
:102D80002A800120F8BD6FF00100F8BD0020F8BDD9
:102D9000120B0020960C0020F819002037B51423E0
:102DA0000024012501A88DF804308DF805408DF828
:102DB00006408DF8075003F093FC152301A88DF809
:102DC00004308DF805408DF806408DF8075003F06B
:102DD00087FC03B030BD0000012810B503D1BDE869
:102DE0001040FFF741BB0E4C002202212046FEF7A7
:102DF000F1FF002210212046FEF7ECFF02212046C1
:102E0000FEF7F0FF10212046FEF7ECFF3823054ABD
:102E1000E360236100231380034A138010BD00BFC9
:102E200000640040120B0020960C0020032970B5AE
:102E300004460D463ED800283CD00388013B9BB297
:102E4000B3F5806F36D2C388013B9BB2032B31D8D8
:102E50004388013B9BB20F2B2CD88388013B9BB24C
:102E6000072B27D8474E1C223046002104F0BAFD1C
:102E7000AA1E534253413377434B00225A611A68CA
:102E80004FF47A7622F002021A601A6842F00102C8
:102E90001A601A4653683C49DB070ED44FF47A7027
:102EA000FFF706FB013EF5D14FF400430B606FF4D2
:102EB0007A7070BD6FF0010070BD61230B60E28815
:102EC0006388013A013B12061B0403F4702302F0ED
:102ED00040721A432388012D03F1FF33C3F3090322
:102EE00042EA0302A3884FF47A7403F1FF334FEAF6
:102EF000035303F4E00343EA02030CBF4FF0004224
:102F00000022032D43EA02030CBF4FF0804200224F
:102F10001343CB610B6823F001030B6048681A4A26
:102F200010F001000AD04FF47A70FFF7C1FA013CAB
:102F3000F4D14FF400431360144870BDD2F800324E
:102F400023F47C5323F00E0343F4606343F0010346
:102F5000C2F800326FF07043C2F80402C2F80C32BB
:102F60000B4BC2F814320123C2F84002C2F84402EB
:102F7000C2F81C32D2F8003223F00103C2F800324A
:102F800070BD00BF600500200064004016FCFFFF1C
:102F9000AAAAAA0AF0B500283DD00E293BD80646B9
:102FA0001E4F0022C7F81C224FF0010E93B2994227
:102FB0002FD950F83250002D02DB7368002B05DB4F
:102FC0007368EC00DB0044F0040401E06C055B0571
:102FD0006D00756848BF44F00204002DB8BF43F08F
:102FE00004036D004FEAC20505F1804548BF43F078
:102FF000020305F5C845C5F84042C5F84432D7F884
:103000001C320EFA02F42343C7F81C320132083690
:10301000CCE70020F0BD6FF00100F0BD006400407F
:1030200013B5044601214FF00070FFF701F80121AC
:103030001CB10920FEF7F0FF02E00420FEF7ECFFD0
:1030400048238DF8073003238DF8063044B14FF440
:10305000807301A91648ADF80430FEF701FF07E0C0
:103060004FF4006301A91348ADF80430FEF7F8FEF1
:1030700018238DF8073003238DF806306CB14FF418
:10308000007301A90A48ADF80430FEF7E9FE0121FA
:103090004FF4EA10FEF742FF07E04FF4805301A916
:1030A0000448ADF80430FEF7DBFE02B010BD00BFEF
:1030B000000C01400008014049F64040FFF7F8B914
:1030C00038B5294804F0CAFE44F2213141F23423D4
:1030D000254D002294B2A04202F1010204D92C5DD8
:1030E00023449BB26140F5E741F29152934203D1F0
:1030F00044F24033994200D0FEE748F2657145F250
:1031000078631A4C0022A05C01320344192A9BB256
:1031100081EA0001F7D145F68812934203D148F2C3
:103120005B73994200D0FEE7104804F097FE082830
:1031300014D90F4C0F49204604F032FE0E492046A8
:1031400004F0C8FC0849204604F0C4FC204604F002
:1031500085FE0023204400F8033C38BD02490448A2
:10316000BDE8384004F01CBE800000208A0000202A
:10317000A5190020920000209693000810B50C4875
:103180000B4C04F06BFE00234FF0FF319AB29042DB
:1031900005D9A25C2E2A08BF19B20133F6E7044B09
:1031A000013119440348BDE8104004F0F9BD00BFE7
:1031B000A5190020E00C002008B5FFF781FF0449A5
:1031C000044804F087FCBDE80840FFF7D7BF00BF04
:1031D000C6920008A519002010B504460748FEF75E
:1031E00095F9230403F47F0343F0802343F0800325
:1031F00000F07F0043EA002010BD00BFDC2000206B
:1032000010B504460748FEF781F9230403F47F0351
:1032100043F0004343F0800300F07F0043EA0020C6
:1032200010BD00BFDC20002008B504F033FC03F023
:10323000C9FB4FF0405103F019FC08BD08B5182236
:103240000021044804F0CEFBBDE80840002004F053
:1032500017BC00BF602D002038B50C460546002184
:1032600001602346C0F803102022FEF765FB231DF2
:10327000022220212846FEF75FFBA31D0322222104
:103280002846FEF759FB04F10803032225212846AE
:10329000FEF752FB04F10A03102228212846FEF70C
:1032A0004BFB0448FEF732F9034BA0811B78E38106
:1032B00038BD00BFDC2000201C0D002010B5FFF73A
:1032C000C1FB0023064A03F041FD064C00232060A9
:1032D00063812146BDE810400348FFF7BDBF00BF32
:1032E00040420F00FC0900200029002000000000DF
:1032F00030B50F4C87B02388A3B104F628052846C3
:10330000FFF7DCFF0723049314230293094B039573
:10331000019340F25513201D009303A3D3E900232A
:10332000FEF7F6F807B030BDF1C6A7C1D068080FA8
:10333000D82000201C0D002010B5064C10220021C2
:10334000204604F04FFB044B00221A700123E38057
:1033500010BD00BFFC0900201C0D00200000000073
:10336000F7B504460F4640F27912002104F03AFB0B
:103370002046FFF7A3FF1AA1D1E900010C23002585
:103380002372012602AB63E90201E57166722046F1
:1033900020225021FEF7D0FA0F4AA6751346E57594
:1033A00003CBE161A06118680C4E20621068606276
:1033B000304604F053FD80B24F2828BF4F2002460C
:1033C0000546314604F1290004F096FA29353D807E
:1033D00003B0F0BDAFF30080E8F7FF1FA519002090
:1033E000192004090000000070B5134D88B02B8827
:1033F0000446CBB105F628060DF11E013046FFF755
:10340000AFFFBDF81E30E17E0593002304960393C1
:10341000A37E1934029301230093019404A3D3E9FA
:103420000023281DFEF7C7F808B070BDAFF3008079
:103430009E6AC421818A46EED820002070B50546D8
:103440008AB00E464922002104F0CCFA03A8FFF707
:1034500031FB089B00248DE8180021466B46284666
:103460003022FEF769FA099B30228DE818001146D8
:103470006B462846FEF760FA039B049A60211A44C3
:10348000059B28461A44069B13448DE818003022F9
:103490006B46FEF751FA122333800AB070BD00006C
:1034A00070B5134D88B02B880446CBB105F62806BD
:1034B0000DF11E013046FFF7C1FFBDF81E30E17E61
:1034C0000593002304960393A37E193402930423E7
:1034D0000093019404A3D3E90023281DFEF76BF8A1
:1034E00008B070BDAFF30080042B31ECA7766FBE3F
:1034F000D820002037B504460D461022002104F0E4
:1035000071FA00231946009428222846FEF7E8F8AD
:10351000EB7E23816B7E638103B030BD10B4002449
:1035200004700B460122214610BCFEF705BA0000CC
:103530001FB501466846FFF7DDFFDDE9000106A380
:10354000D3E90023994206BF90420120002005B034
:103550005DF804FBAFF300801E1B55CEAC000000ED
:103560000149FFF7DBBF00BFF809002000000000A1
:1035700070B5114D86B02B880446B3B105F6280608
:103580003046FFF7EDFF0123E17E0593002304960B
:103590000393A37E1934029305230093019404A39B
:1035A000D3E90023281DFEF706F806B070BD00BF62
:1035B000F017304A39059E56D8200020014B0022D2
:1035C0001A807047F809002037B50D4604460023DD
:1035D000036083801946009008222846FEF780F891
:1035E000EB7E63806B7EA38003B030BD002202605F
:1035F0000B46C0F8032030210122FEF79DB90000E0
:103600000149FFF7F3BF00BF282B00200000000096
:1036100070B5114D86B02B880446B3B105F6280667
:103620003046FFF7EDFF0723E17E05930023049664
:103630000393A37E193402930A230093019404A3F5
:10364000D3E90023281DFDF7B6FF06B070BD00BF0B
:10365000CDD269EBC51A133BD820002073B50D46B7
:10366000144600920023096803220646FEF738F844
:10367000296823880331012B29600CD0022B13D138
:1036800008340123009420223046FEF729F82B68E5
:1036900020332B6008E00834009440223046FEF7C7
:1036A0001FF82B6840332B6002B070BDF0B50E469A
:1036B0000746002485B040222146039404F092F985
:1036C00023460D22214600973046FEF709F8039B5A
:1036D00004A90D3341F8043D07F108023046FFF715
:1036E000BDFF039DB38A0735A3EBD5052DB21F2D72
:1036F000A8BF1F25A2B2AA4204F101040CDA1832B5
:103700003A4400920023082203993046FDF7E8FF6F
:10371000039B08330393EDE7F37E3B87737E7B8740
:1037200005B0F0BD70B50C46154613460968032276
:103730000646FEF701F921682B880331012B216031
:1037400002D0022B0AD070BD05F10803402230469A
:10375000FEF7F2F823684033236070BD05F10803DB
:1037600020223046FEF7E8F823682033236070BD3E
:1037700070B50C4615461346096802220646FEF748
:10378000DBF821682B880231012B216002D0022B4B
:103790000AD070BD05F1080340223046FEF7CCF890
:1037A00023684033236070BD05F1080320223046B2
:1037B000FEF7C2F823682033236070BD2DE9F7437C
:1037C0000446154600260DF108090F4640F2731213
:1037D0003146009604F006F949F8046D4B4631462F
:1037E00020460522FEF7A8F8009B0DF108080533D6
:1037F00048F8083D2A4641462046FFF793FF4B46CE
:103800000099204605220196FEF796F8009B05F1E7
:1038100010020533414620460093FFF783FF4B46D5
:103820000099204606220196FEF786F8009B05F1D6
:1038300020020633414620460093FFF799FF4B468E
:103840000099204606220196FEF776F8009B05F1C6
:1038500030020633414620460093FFF789FF009E61
:1038600040350736F6082846009604F0F7FA1FFAA6
:1038700080F84246A019294604F03EF846443E80AE
:1038800003B0BDE8F0830000014AFFF797BF00BF17
:10389000F80F00200000000070B5134D88B02B8891
:1038A0000446CBB105F628060DF11E013046FFF7A0
:1038B000EBFFBDF81E30E17E0593002304960393D1
:1038C000A37E193402930B230093019404A3D3E93C
:1038D0000023281DFDF76FFE08B070BDAFF3008018
:1038E000D5A4D139F922B6A7D82000202DE9F04778
:1038F0000B7E04460E4623B90F880A2F00F203817F
:1039000013E04FF01809DFF80C82002501EB090ADB
:1039100009FB0583102299685046AFB204F0CCFA37
:1039200018B101350B2DF3D1EDE03389794DE3B1B9
:1039300018227A43AB181B79013B082B15D8DFE816
:1039400003F0050509090D0D14141100AB58326977
:103950001A700AE0AB5832691A8006E0AB58326937
:103960001A6002E03069AB58186018237B431D448D
:103970002979684A0139082900F2AF80DFE811F09F
:10398000090020003B0052006D008100AD00AD0039
:103990009800D358012121862184218221801A7820
:1039A0000023C4E902232A7B0023C4E906232A7CDE
:1039B0000023C4E90E232A7D0023C4E90A239BE0E7
:1039C000D3580121218621842182218093F900206E
:1039D000D317C4E9022395F90C20D317C4E90623B1
:1039E00095F91020D317C4E90E2395F91420D317A5
:1039F000C4E90A2380E0D358012121862184218251
:103A000021801A880023C4E90223AA890023C4E97B
:103A100006232A8A0023C4E90E23AA8A0023C4E9C4
:103A20000A2369E0D3580121218621842182218043
:103A3000B3F90020D317C4E90223B5F90C20D3173A
:103A4000C4E90623B5F91020D317C4E90E23B5F94C
:103A50001420D317C4E90A234EE0D35801211A6871
:103A60000023A260E360EA68E361A2612A69E3637C
:103A7000A2636A692186218421822180A262E36295
:103A80003AE0D35801211A682186D317C4E90223EA
:103A9000EA682184D317C4E906232A692182D3174F
:103AA000C4E90E236A692180D317C4E90A2323E0FD
:103AB000D35802211B682186A360E86821842182F3
:103AC000218002F07FFFA061286902F07BFFA063E4
:103AD000686902F077FFA0620EE0012300222386CE
:103AE0002384238223800023C4E90623C4E90E2310
:103AF000094A0023C4E90A23A96804F14000BDE88B
:103B0000F04704F04DB92046BDE8F047602200219F
:103B100003F068BFA481000880841E00034B0021CD
:103B200019806022024803F05DBF00BF282B0020EF
:103B3000F80F0020F7B50E460546CE22002103F00F
:103B400051FF00231946009508223046FDF7C8FDB5
:103B5000B48A0023013C24B2C72CA8BFC7245F1C31
:103B60009BB2A3424FEAC70109DA2B440133009309
:103B7000082200233046FDF7B3FD3B46EFE72C4417
:103B800000236370F37EA5F8CA30737EA5F8CC30AD
:103B900003B0F0BD70B5054616460C4680220021E4
:103BA00003F020FF3346082200212846FDF7C4FE1B
:103BB0000123238070BD0000064B10B100221A7053
:103BC0007047054AD288032A0CBF0222FF221A70CE
:103BD000704700BF24190020FC090020014AFFF7AC
:103BE000D9BF00BF2419002070B5134D88B02B88B1
:103BF0000446CBB105F628060DF11E013046FFF74D
:103C0000EDFFBDF81E30E17E05930023049603937B
:103C1000A37E1934029328230093019404A3D3E9CB
:103C20000023281DFDF7C7FC08B070BDAFF300806E
:103C300026417272DF25D7B7D820002081220021CB
:103C4000014803F0CFBE00BF24190020F7B5044699
:103C50000F464FF48572002103F0C4FE0094012347
:103C6000102200213846FDF73BFDB4F900501DB18C
:103C70000023A4F804311EE0BE8A023EB6B2B6F5B7
:103C8000807F05D947F6FF73A4F80451238012E022
:103C9000ABB2A91CB3424FEAC10105F1010508DA34
:103CA000234402330093082200233846FDF718FD11
:103CB000EEE7A4F80461FB7EA4F806317B7EA4F84D
:103CC000083103B0F0BDF8B5064614460F46CD22C4
:103CD000002103F087FE23462822002130460834C5
:103CE000FDF72AFE204604F0B9F885B22A4621469F
:103CF000701D053503F000FE3D80F8BD014AFFF759
:103D0000E2BF00BF0020002070B5134C88B02388AC
:103D10000646CBB104F628050DF11E012846FFF733
:103D2000EDFFBDF81E300495059301230393002396
:103D300002930A4B3146019330230093201D04A3C4
:103D4000D3E90023FDF737FC08B070BDAFF3008066
:103D500078F6339F93CACD8DD82000200C0A00201E
:103D600008B5D8220021034803F03CFE024B002294
:103D70001A7008BD002000200C0A00202DE9F74F22
:103D80000C460B461646002103228046FDF7D4FD63
:103D9000A01C04F063F802AB23F8020D05220321F6
:103DA0004046FDF7C9FD0023BDF806205F1C9BB20D
:103DB0009A424FEAC70508D923440233082229460C
:103DC0004046FDF7B9FD3B46EEE704F123073846D0
:103DD00004F044F8AB461FFA80FA0AF12309A14423
:103DE0004F4509D03B46594608224046FDF7A4FD01
:103DF0000BF1080B0137F3E705EBCA05ED08358039
:103E00000548FDF783FB054BA4F880001B78A4F858
:103E1000823003B0BDE8F08FDC200020D005002008
:103E20000A460149FFF7AABF782D002000000000D4
:103E300030B5114C89B02388BBB104F6280528465B
:103E40000DF11E01FFF7ECFFBDF81E300395049342
:103E500018230293094B201D019343F6FF7300932F
:103E600003A3D3E90023FDF753FB09B030BD00BF26
:103E7000759D040C8EA454D6D8200020D0050020B7
:103E800008B584220021034803F0ACFD024B002258
:103E90001A7008BD782D0020D00500202DE9F341CF
:103EA0000D46A6220021064603F09CFDAB8A0322A4
:103EB000B3FBF2F300242746142B88BF1423A6F883
:103EC000A030B6F8A03004F10108A4B2A34226D96C
:103ED00006EBC40439460094002308222846FDF767
:103EE000FFFBA31C07F108010093052200232846CD
:103EF000FDF7F6FB231D07F10D01009306220023B9
:103F000006342846FDF7ECFB009407F1130100236B
:103F100005222846FDF7E4FB18374446D1E7EB7E3F
:103F2000A6F8A2306B7EA6F8A43002B0BDE8F081FE
:103F300073B504460D464822002103F053FD0023CB
:103F40001946082200942846FDF7CAFB631C082284
:103F50000093114600232846FDF7C2FBAB8A023BC3
:103F6000A4F842300023B4F84220991C5E1C9BB296
:103F70009A424FEAC10109D923440233009308222F
:103F800000232846FDF7ACFB3346ECE7EB7EA4F8B4
:103F900044306B7EA4F8463002B070BDF8B50F888F
:103FA0002A4E00EBC7035E607B1C04460B80012099
:103FB0000D46FFF711F944F837002F88042004EB71
:103FC000C7035E607B1C2B80FFF706F944F83700BF
:103FD0002F88052004EBC7035E607B1C2B80FFF756
:103FE000FBF844F837002F880A2004EBC7035E6013
:103FF0007B1C2B80FFF7F0F844F837002F880B204C
:1040000004EBC7035E607B1C2B80FFF7E5F844F8E8
:1040100037002F88282004EBC7035E607B1C2B80B1
:10402000FFF7DAF844F837002F88302004EBC70395
:104030005E607B1C2B80FFF7E3F8298844F837008B
:104040002046BDE8F840FEF7A5BF00BF80FFFFC0D7
:1040500000B50C4B9FB00393059302230A4AADF8B9
:1040600006300A4B0DF1060102A802920493FFF7F5
:1040700095FFBDF8061002A8FEF78CFF1FB05DF893
:1040800004FB00BF80FFFFC00039048000B46E80D5
:1040900008B50020FEF7A0FE4FF47A70FEF708FA8C
:1040A000FFF7D6FF4FF47A70FEF702FABDE808403A
:1040B000FEF7DAB910B5094C23880BB9002010BD02
:1040C000201DFDF7BFFA0028F8D0FEF70DFD0028EF
:1040D000F4D0201DFDF7BAFA012010BDD820002031
:1040E00010B50B4C86B0208880B16846FEF728FEDC
:1040F00000280BD009DDFEF7A5FC02460B46201D6B
:104100006946FDF761FC012000E0012006B010BD0A
:10411000D820002000000000F0B535488DB0FDF734
:10412000F5F908B100205CE0FEF78CFC0F4606466E
:10413000FFF77AF82F4902F099FC02F01FFE2E4A91
:10414000002392197B412D4D80185941C5E9020188
:10415000FEF778FCD5E90223994208BF904204D3C8
:104160002348FDF7D3F950B1DCE72148FDF7CEF93C
:104170000028F5D1FFF79EFFFFF7B2FFE8E72B78A5
:104180002E8A5B00DBB28DF818301EB943F00103B4
:104190008DF818301A4C08AB94E8070083E8070044
:1041A0002268C6F11004E4B2062C28BF062499192F
:1041B0000B920DF11900224603F09EFB06AB039310
:1041C0001823013402930F4B0494012401930094AB
:1041D00005A3D3E900230648FDF79AF920460023FA
:1041E0002B820DB0F0BD00BF401DA12026812A0BFF
:1041F000DC2000200050C348C0270900602D0020AB
:10420000E8F7FF1F722D002008B5FFF785FF002893
:10421000FBD108BD2DE9F7431E4C2388002B36D077
:10422000FEF710FC0F46064604F62821D1E9008966
:104230004F4508BF464512D3174A002312EB080228
:1042400043EB0903C1E90023FEF7FCFB02460B46E2
:10425000201DFDF705FA211D6846FDF78DFDD4F8F8
:10426000304AA4B10D49D1E900239F4208BF9642CC
:104270000DD3002512196B419F4208BF9642F9D217
:10428000C1E9002303B0BDE8F043FFF731B803B044
:10429000BDE8F083D820002040420F00102B002002
:1042A00010B5164C4FF424620021204603F09AFB0F
:1042B000201D0021FDF723F940F6B83040F2DC5212
:1042C000002104F62823C3E900010D4B04F638242D
:1042D00044F8083C0023C4E90023FFF72DF8FEF75B
:1042E000ADFFFFF76BF9FFF719FCFFF7A7FCFFF72E
:1042F00037FDBDE81040FFF7C3BD00BFD820002048
:1043000040420F007FB5FFF7CBFF0020FEF788FE8D
:10431000092324215A1CB1FBF2F56A43242ADEB298
:1043200004D0013B012BF5D100204EE0C3EBC303C9
:10433000DA1CD210D0B24FF47A7401325443311ADD
:10434000C9B20A4494FBF2F2B2F5617FC2BF03F135
:10435000FF33C3F3C700311A00F1FF33C8BFC9B23E
:104360000F2B05D84B1E072B8CBF0023012300E029
:104370000023421802FB0554154AB2FBF4F2154C17
:10438000A242D1D1002BCFD0ADF80A00ADF80C106D
:104390000124022102A8ADF80850ADF80E40FEF746
:1043A00045FD0028C0DB00230B4D01930B4BA5F10D
:1043B000240000934FF40062094B2946FDF777F87B
:1043C000FEF7ECFC204625F8284C04B070BD00BF79
:1043D0000051250240420F00002100202123000847
:1043E0006563000810B50446FFF78CFF38B1044838
:1043F00004F07F01FDF783F8FEF736F8012010BDC9
:10440000DC20002070B504460E461546FCF750FA35
:104410002046FCF77FFA4BF6FF72032363700223FA
:10442000E370E3690020A0706660A560DA804FF455
:1044300080625A814FF480429A81044A98801881A0
:104440001A602046FCF7BCF980B270BD801A0600E5
:10445000084A08B51388084901339BB21380074AFC
:104460000748136801331360064AFFF7CBFF0020AB
:1044700008BD00BFD2050020D00C0020FC2D00207C
:1044800028000020C00C0020064A0749138807486E
:1044900001339BB21380064A136801331360054A47
:1044A000FFF7B0BFD2050020D00C0020280000206C
:1044B000FC2D0020C00C0020024A03490348FFF7EE
:1044C000A1BF00BFC00C0020D00C0020280000209D
:1044D000024608B506490B7B012B05D00120FDF7EC
:1044E000E7FF1AB1013AF6E7002008BD012008BD38
:1044F0002800002010B50E4C4000A0600D4822603E
:104500006360E160FCF7D8FB28B10B4A0120136817
:104510000133136010BDBDF80830012B06D142F203
:104520001070FFF7D5FF003018BF012010BD00BF8D
:10453000D00C002028000020FC2D002013B5064BD5
:104540001C780023009313460A4601462046FFF7D5
:10455000D1FF02B010BD00BF582D002013B5064B8F
:104560001C780123009313460A4601462046FFF7B4
:10457000C1FF02B010BD00BF582D0020034B3C22EC
:104580001A7003491F220020FFF7E8BF582D0020B2
:10459000AC82000807B5074B062218689B8800907C
:1045A00069460020ADF80430FFF7D8FF03B05DF88E
:1045B00004FB00BFCB820008034B3C221A70034966
:1045C0001A220020FFF7CABF582D0020D182000810
:1045D000044B188010B1012802D07047FFF7CEBFFE
:1045E000FFF7EABFD4050020164BF7B51B88044639
:1045F0000D46DBB1012B21D1B025022710268DF805
:104600000450032201A9002001358DF805708DF8B2
:104610000660EDB2FFF7A2FF214680224020FFF79F
:104620009DFFB82D04F18004E9D107E0FFF7B2FF48
:104630002A4621464020FFF781FF00E0002003B01A
:10464000F0BD00BFD405002010B5094C238B6BB121
:104650004FF4806104F12200FFF7C6FF30B9638890
:1046600020846383A388A083E383208310BD00BFDD
:10467000D40500200D4B4022D88020F002000128F4
:104680004FF0800116BF59805A809A805A8808BF1F
:1046900099805A839A880021DA8305484FF4806212
:1046A00019849983198303F09DB900BFD4050020B4
:1046B000F60500207F2870B533D83F2931D8194B33
:1046C00005B2B3F91A600CB2AE42B3F91E60C8BFAE
:1046D0005D83AE42C4BF134EF583B3F91C50A542AF
:1046E000BCBF104DAC83B3F92050A542BCBF0D4DEB
:1046F0002C8401241C830B4DCB0800EBC31001F06C
:104700000701284412F0010F04FA01F490F8221076
:1047100003D00C4380F8224070BD21EA040480F8E5
:10472000224070BDD4050020144BB3F91A005988FB
:104730000028C4BF002058830139B3F91E0009B214
:104740008842C8BF0D489A88C8BFC183B3F91C10FE
:10475000013A0029BEBF094900208883B3F920101F
:1047600012B29142B8BF05490548B8BF0A84012278
:104770001A8300214FF4806203F034B9D40500207D
:10478000F60500200B46144900B5C98803291DD839
:10479000DFE801F01C020A14C3F17F0381B25DF867
:1047A00004EB98B2FFF786BFC3F13F01C0F17F0071
:1047B00089B280B25DF804EBFFF77CBFC0F13F0126
:1047C00089B298B25DF804EBFFF774BF99B280B27A
:1047D0005DF804EBFFF76EBFD4050020002A2DE939
:1047E000F04104460E461F4603DA4FF000085542DA
:1047F00003E084B2224495B20FE00FFA88F3AB4293
:1048000009DAC8EB04003A46314600B2FFF7BAFFB6
:1048100008F10108F1E7BDE8F081AC4207D020B211
:104820003A4631460134FFF7ADFFA4B2F5E7BDE8E3
:10483000F0812DE9F041002B06461746BDF818809F
:104840000C4601EB03050CDAAC4208DD2146434679
:104850003A463046013CFFF7C1FF24B2F4E7BDE819
:10486000F081AC4208DA214643463A4630460134EC
:10487000FFF7B4FF24B2F4E7BDE8F0810A282DE980
:10488000F74F08D1264A00235189138193890B449D
:104890000833538141E01F283FD9214C2038B4F917
:1048A0000830628806339342C0B206DB0023628977
:1048B0002381A389134408336381B4F808A0062632
:1048C0000AF106022281174A638906FB0026A3F13A
:1048D000060902331FFA89F94FF000081FFA83FB1B
:1048E000B4F9103016F808500BB1ED43EDB24F4655
:1048F0000AEB08031BB239B201372A461846BFB289
:104900000193FFF73FFFBB454FEA5505019BF2D1ED
:1049100008F10108B8F1060FE2D103B0BDE8F08F4D
:10492000D4050020EE8200082DE9F04F394B0A280B
:10493000596985B08D7A1A4607D100221A815A89A1
:1049400015449A8915445D8161E00B7A98425ED3E3
:104950004C7A84425BD34E680C68C01A06EBC001E7
:1049600091F9057091F804800194CB788C7891F9D5
:1049700006E0D1891FFA84FA8844B2F908101FFAB8
:1049800088F839440C4451888C4206DD002111819D
:1049900051890D4491890D445581118936F8309023
:1049A00008EB01040026148135463446B2F90AC0EA
:1049B0000F440CEB0E020292B2B2934227D9029935
:1049C0004FF000080A440FFA82FB1FFA88F02A18F9
:1049D000824592B217D9510701BF019909F101022D
:1049E00011F809401FFA82F9220607D5384401223E
:1049F000594600B20393FFF7C5FE039B6400A4B2BF
:104A000008F10108E1E75544ADB20136D4E705B03D
:104A1000BDE8F08FD4050020F8B5104B5969A9B155
:104A20000D7A4E7ADF89421E002012F8013F63B1F1
:104A30009D42FAD89E42F8D34C685B1B04EBC3033B
:104A40001B793B44184480B2EFE7F8BD03F006FA47
:104A500000EB4000400080B2F8BD00BFD40500204C
:104A6000034B5B690BB1FFF75FBFFFF707BF00BFE9
:104A7000D405002010B5441E14F8010F10B1FFF743
:104A8000EFFFF9E710BD000010B50446FFF7C4FFC3
:104A9000054A5388181A022390FBF3F01081204630
:104AA000BDE81040FFF7E6BFD405002038B50B4C39
:104AB000FFF78EFD8023638040230025A380012320
:104AC0002383E580FFF730FEFFF7BEFD0623258137
:104AD00063816561A581E581258238BDD40500200B
:104AE000064A00231380538002EB830001790133CF
:104AF00041F03F01402B0171F6D170470E0A0020B2
:104B000013B5064A02A941F8040D1388086802EBA0
:104B1000830401336060138002B010BD0E0A0020D0
:104B2000F0B51D4F3F283E8898BF00F03F0007EBCF
:104B3000860488BF3F2012B2032994BF01F003010D
:104B40000321002A2279BDF81C501BB260F3050234
:104B5000D4BF4FF0000E4FF0010E2271002BA2883F
:104B6000D4BF002301233F2D94BF05F03F0500254E
:104B700065F38B12A2806279013661F305126EF340
:104B8000861263F3C71262719DF814303E80A371E0
:104B90009DF81830E371F0BD0E0A00200A4B10B5E5
:104BA0001C8800214FF0FF3288B2844209D903EB00
:104BB000810040790131C0F301109042C8BF02B2B8
:104BC000F2E701325A8010BD0E0A0020F0B585B020
:104BD0000024FFF785FF012301251A4621461846C8
:104BE000029401940094FFF79BFF0D262B462A4662
:104BF000214602948DE830000220FFF791FF0096D5
:104C00002B462A462146029401940320FFF788FF91
:104C100000962B461C262A46214602940195042024
:104C2000FFF77EFF092723462A46214602948DE896
:104C300050000520FFF774FF23462A4621460294C0
:104C4000019600970620FFF76BFF0F2300932A467B
:104C500023462146029401960720FFF761FF0523B2
:104C600001932A462B462146029400940820FFF720
:104C700057FF06230293019400942B462A462946A7
:104C80003846FFF74DFF05B0F0BD0000034B002292
:104C90001A80A3F8CA20A3F8CC207047240F002064
:104CA0002DE9F043804691B04FF47A700C46FDF741
:104CB000FFFB00273D463E460B7843F03F030B7059
:104CC0000B886FF38B130B80404603F0C7F81FFA75
:104CD00087F9484540F2EF8018F8093010AA2C2BCC
:104CE000324408D03B2B06D03B2E04D8013602F8C4
:104CF000403CB6B2DDE0002302F8403C052D00F256
:104D0000A080DFE805F0036C7A87949971496846C2
:104D100002F068FF28B92378012262F305032370AB
:104D2000C4E06D49684602F05DFF28B9237802228D
:104D300062F305032370B9E06849684602F052FF48
:104D400028B92378032262F305032370AEE0644997
:104D5000684602F047FF28B92378042262F305036E
:104D60002370A3E05F49684602F03CFF28B923782E
:104D7000052262F30503237098E05B49684602F060
:104D800031FF28B92378062262F3050323708DE0F2
:104D90005649684602F026FF28B92378072262F3B5
:104DA0000503237082E05249684602F01BFF28B9D0
:104DB0002378082262F30503237077E04D496846A3
:104DC00002F010FF002871D12378092262F3050355
:104DD00023702388022262F38B13238066E06846E7
:104DE00002F054FD83B2032B637894BF00F00300FC
:104DF000032060F30513637058E0684602F046FD37
:104E000000B200286378D4BF0020012060F386132D
:104E100063704BE0684602F039FD00B20028637809
:104E2000D4BF0020012060F3C71363703EE06846E2
:104E300002F02CFDA07039E0684602F027FDE0701A
:104E400034E0237813F03F0330D0042B15D9092B1D
:104E50002CD106222849684603F02EF8064628BBC6
:104E6000684602F0FBFF062820D90DF1060002F08B
:104E70000DFD83B23F2B15D812E005221F4968466D
:104E800003F01AF8064688B9684602F0E7FF0528DD
:104E90000CD90DF1050002F0F9FC83B23F2B01D8CB
:104EA00000F03F06238866F38B1323800135ADB2F3
:104EB0000026013708E7237803F03F033F2B04D097
:104EC000052D94BF0020012000E0002011B0BDE8B6
:104ED000F08300BFD2920008DD920008E59200083E
:104EE000EC920008F3920008FA920008FE92000883
:104EF0000293000809930008139300081A9300080E
:104F000037B5254CB4F8CC30002B42D1202812D92B
:104F10003B283ED02388C32B3BD85A1C22801F4AF3
:104F20001C4412680244527802F00302022A08BFAD
:104F30002038A0702DE00A2829D12388164DE218C8
:104F400001333B219BB2917023440022A81C9A702C
:104F5000228002F083FF01281BD9B5F8CA3043B97B
:104F60000F49A81C02F03EFE18B10123A5F8CC3071
:104F70000FE001A90B48FFF793FE10B10198FFF76E
:104F8000BFFDB4F8CA300133A4F8CA3001E00028EC
:104F9000D3D003B030BD00BF240F00202801002073
:104FA00020930008260F0020044BDA8C4FF47A730C
:104FB0005343034AC2F8303A704700BF500D0020F7
:104FC000D82000200A4908B52F234B848B844FF446
:104FD0007A73CB84322300204B851923C8854886F9
:104FE000088688850B858886FFF7DEFFC88608BDA2
:104FF000500D0020254908B54B8C4BB1132B9CBF9D
:1050000014234B844B8C642B82BF204B64225A8424
:10501000CB8C312B9EBF1D4B4FF47A72DA8441F258
:105020008833CA8C9A4282BF184B4FF47A72DA8462
:10503000CB8D012B82BF154B0022DA854B8E012BC5
:1050400082BF124B00225A860B8E13B10F4B0022E7
:105050001A868B8DC82B82BF0C4B00229A854B8DF4
:10506000642B82BF094B32225A850B8D642B82BF81
:10507000064B19221A858B8E022B82BF034B00220E
:105080009A86FFF791FF0023CB8608BD500D0020C4
:1050900010B54FF4EA72FF21244802F0A3FCFDF79B
:1050A0004DFCC0B20428214C0BD04FF4EA72FF2112
:1050B0001E4802F097FCFDF741FCC0B2042811D154
:1050C00008E04FF4EA712046FDF70CFCC0B204285A
:1050D0000ED0EAE74FF4EA711448FDF703FCC0B2C2
:1050E000042805D04FF4EA72FF21104802F07AFC40
:1050F000238C0B2B05D11E220D490C4802F0DCFE3F
:1051000080B1FFF75FFF0B2309490848238402F0B1
:1051100047FE0849084802F043FE4FF4EA7103488D
:10512000FDF7F8FBBDE81040FFF764BF500D00200D
:10513000C6920008359300081C0F00204FF4EA7156
:105140000148FDF7E7BB00BF500D002010B50A4C29
:10515000FDF7B2FB4FF4EA72FF21204602F042FC59
:10516000FFF730FF20464FF4EA71FDF7D3FBBDE8AF
:105170001040FFF73FBF00BF500D002038B5058835
:10518000074C25B9FFF7DAFF0123238038BD012D35
:1051900003D1FFF7DBFF258038BD0023238038BD16
:1051A000282B002008B541F28830FDF781F9054928
:1051B000054BCA6802F4E0621343CB60BFF34F8F24
:1051C000FEE700BF00ED00E00400FA05064B0022F8
:1051D00001205A609A60DA601A615A619A61DA6154
:1051E0001A62988418807047980C002003480023A6
:1051F00020F8023B024902F0D3BD00BF782D002009
:10520000E00C002007B501210420FCF705FF102366
:10521000ADF804308DF8073001A9032303488DF859
:105220000630FCF71DFE03B05DF804FB00080140EA
:105230002DE9F84305461C2606FB0106264FDFF83C
:105240009C80DFF89C900024AE423FD0E0070DD454
:10525000AB68BB420AD101214FF40060FCF7DCFED1
:105260000121052044F00104FCF7D6FEA1070DD46E
:10527000AB68B3F1804F09D101210846FCF7D8FE95
:105280000121052044F00204FCF7C6FE62070CD49D
:10529000AB68434509D101210220FCF7C9FE012179
:1052A000092044F00404FCF7B7FE23070CD4AB68D4
:1052B0004B4509D101210420FCF7BAFE0121092048
:1052C00044F00804FCF7A8FE1C35BDE701210846A0
:1052D000BDE8F843FCF794BE002C014000040040F8
:1052E0000008004037B518238DF8073003238DF8E8
:1052F00006301C2303FB0101041D01F120051C34B1
:10530000AC4210D034F81C3C01A954F8200CADF884
:105310000430FCF7A5FD002234F81C1C54F8200CC6
:10532000FCF7F6FDEBE703B030BD000000232DE9EC
:10533000F04F0546064607461C464FF01C0889B04C
:10534000602208FB0108ADF810200122ADF8122000
:10535000ADF80420DFF854912D22DFF854A1DFF8D6
:1053600054B1ADF80A30ADF806308DF80C30ADF818
:105370001C30ADF81E30ADF81830ADF81A30ADF86D
:105380001430ADF81630ADF8082047452DD0E007B1
:1053900008D4BB684B4505D101A9484644F0010437
:1053A000FBF7A2F8A10708D4B868B0F1804F04D188
:1053B00001A944F00204FBF797F8620708D4BB6820
:1053C000534505D101A9504644F00404FBF78CF87D
:1053D000230708D4BB685B4505D101A9584644F0B2
:1053E0000804FBF781F81C37CFE72C46444521D051
:1053F000238AB3F5007F03D104A9A068FBF7BEF8A8
:10540000238AB3F5806F03D104A9A068FBF7FAF8EB
:10541000238AB3F5006F03D104A9A068FBF736F91E
:10542000238AB3F5805F03D104A9A068FBF770F964
:105430001C34DBE71D4D1E4FDFF8789000244645F5
:1054400031D0E0070CD4B368AB4209D10121284622
:10545000FBF792F90121284644F00104FBF798F983
:10546000A10708D4B068B0F1804F04D1012144F005
:105470000204FBF781F9620708D4B368BB4205D187
:105480000121384644F00404FBF776F9230708D4D9
:10549000B3684B4505D10121484644F00804FBF7A9
:1054A0006BF91C36CBE709B0BDE8F08F002C01404A
:1054B000000400400008004038B504460D46FFF7E0
:1054C000B7FE29462046FFF731FF29462046BDE8B2
:1054D0003840FFF707BF000002210148FFF7ECBF8B
:1054E00028850008642B28BF642303EB83035B003B
:1054F0009BB2584359435A4310B501F5FA714FF422
:105500007A7400F5FA70B0FBF4F0B1FBF4F302F535
:10551000FA72B2FBF4F200021B0400F47F4003F4C1
:105520007F030344D0B2184410BD0000054B022194
:105530000022198001215A809980DA809A81DA81CB
:105540009A6070471411002007B501210420FCF770
:1055500063FD0823ADF8043048238DF8073001A916
:10556000032306488DF80630FCF77AFC044B002232
:105570009A801A805A8003B05DF804FB000801404D
:10558000602B002008B508210E48FCF7BBFC0E4B31
:1055900028B99A88092A04D801329A8001E00022A9
:1055A0009A809A881988092A94BF002001201880BF
:1055B0005B882BB921B9092A82BF034B01225A808B
:1055C00008BD00BF00080140602B0020F7B505466C
:1055D000114F124C97F8A5006288691E013A30B944
:1055E00000900A2312B209B2FFF723F911E0012655
:1055F00000960A2312B209B20020FFF71AF9063505
:10560000268207F1A500002626816581FFF732FA80
:10561000268203B0F0BD00BF58100020D405002042
:1056200070B5064602F01AFC4FF6FB730F4C638010
:105630002080FDF7EDF904F10C056060A0603146B3
:10564000284602F0ADFB20880949284402F0A8FB57
:1056500034F8A50B31460A30284402F0A1FB294654
:105660002046BDE87040152202F074BC581000209E
:105670003A93000838B51A4D95F8A53073B3FDF785
:10568000C7F9AB6803F59C432033984203D9002344
:1056900085F8A53038BD6B6803F5FA7398421DD9BB
:1056A0006B88686005339AB22B8811B203F10A0047
:1056B0008142C2BFC3F57F43F6339B186980C8BFE0
:1056C0006B80B5F90210074815220029ACBF4118BC
:1056D000011CBDE83840993002F03CBC38BD00BF29
:1056E0005810002064100020034B06221A8000226C
:1056F0005A809A80DA807047140B00202DE9F04F11
:10570000334E85B073884BB9324A063050813248E7
:10571000138105B0BDE8F04FFFF7B6B93288DFF866
:10572000B4904FF000089A42CA46434600F1FF3059
:1057300094BFB6F804B04FF0000B84B272881FFA21
:1057400088F7BA4240D9224A07EB0B051288ADB25E
:10575000954202D3AD1AADB2FAE7E21DA9F80A20CC
:10576000721992F87B210020A9F80800DAB143B140
:10577000B9F80220611E013A012312B209B2FFF703
:105780002DF80FB121B200E03946BAF80220012706
:10579000013A0A23009712B20020FFF74AF8AAF84C
:1057A00010703B4600E01346352000FB05600830D2
:1057B00003930B34FFF75EF90022AAF8102008F1DA
:1057C0000108A4B2039BB9E705B0BDE8F08F00BFA4
:1057D000140B0020D40500204693000838B5054678
:1057E000224C3520A388152200FB034029460830AF
:1057F00002F0B0FBA388E188E21882F87B1161888F
:1058000022882846914238BF013102F1FF3238BF69
:1058100061809342B4BF01330023A38002F01EFBDA
:1058200015281CD9A388352000FB03401522A91890
:10583000083002F08FFBA388E188E21882F87B1120
:105840006188228891423CBF0848013102F1FF3251
:1058500038BF41809342B4BF01330023A380E38863
:10586000B3FA83F35B09E38038BD00BF140B00205B
:1058700038B515460E4C0AB10E4B63610E4A06311F
:10588000D378618103F0030391789B0143EA91038C
:10589000162B98BF094A20819ABF02EB8303986AAE
:1058A0000748FFF7E7F80DB10023636138BD00BF7B
:1058B000D405002060850008C80500208000002075
:1058C00052930008F0B5164689B0184C0AB1184B2F
:1058D0006361184B0631618120815868164901F0D7
:1058E000C5F801F013FA08AD25F8120D04AF022334
:1058F0000097062211492846FCF79FFE9DF81030BC
:10590000302B08D19DF811202023302A8DF810303B
:1059100008BF8DF811303846FFF7ACF80848FFF79C
:10592000A9F80EB10023636109B0F0BDD4050020D1
:1059300060850008C80500200000C8425A9300088E
:105940005D93000838B515461F4C0AB11F4B6361C3
:105950001F4B06311A782081C2F3820261811D4BF0
:10596000062A28D8DFE802F004090E13181D2200C9
:10597000D3F88800FFF77EF821E0D3F88C00FFF71A
:1059800079F81CE0D3F89000FFF774F817E0D3F82B
:105990009400FFF76FF812E0D3F89800FFF76AF869
:1059A0000DE0D3F89C00FFF765F808E0D3F8A000FD
:1059B000FFF760F803E0D3F88400FFF75BF80DB160
:1059C0000023636138BD00BFD40500206085000856
:1059D000C80500208000002030B5144685B0194D60
:1059E0000AB1194B6B610631288118486981FFF7AC
:1059F00041F8174A5378117803F00703DB0043EAB4
:105A000051139AB2092A06D830338DF8003000239A
:105A10008DF801300EE00A21B2FBF1F303F1300002
:105A200001FB132330338DF8013000238DF8000083
:105A30008DF802306846FFF71DF80CB100236B614A
:105A400005B030BDD40500206085000860930008D3
:105A5000C805002070B506460D460C4C8B1D2081F4
:105A60000B486381FFF706F80A4B03365B78113564
:105A70005B062681658104D5BDE870400648FEF7C7
:105A8000F9BF0648BDE87040FEF7F4BFD40500201A
:105A900066930008C80500206D9300087093000805
:105AA00070B506460D460C4C8B1D20810B4863815A
:105AB000FEF7E0FF0A4B03365B7811359B06268123
:105AC000658104D4BDE870400648FEF7D3BF0648A0
:105AD000BDE87040FEF7CEBFD4050020FA92000862
