:020000040800F2
:10000000A82B00209D1D0008991D0008991D0008BF
:10001000991D0008991D0008991D000800000000A6
:10002000000000000000000000000000991D000812
:10003000991D000800000000991D00080526000811
:10004000991D0008991D0008991D0008991D0008B8
:10005000991D0008991D0008991D0008991D0008A8
:10006000991D0008991D0008991D0008991D000898
:10007000991D0008991D0008991D0008991D000888
:10008000D1040008DD040008991D0008991D00082E
:10009000812A00081D2B0008991D0008991D0008E1
:1000A000991D0008991D0008991D0008991D000858
:1000B000991D0008991D0008991D0008B504000845
:1000C000C1040008991D0008991D0008991D000829
:1000D000991D0008991D0008991D0008991D000828
:1000E000991D0008991D0008991D000800000000D6
:1000F0000000000000000000000000000000000000
:1001000000000000000000005FF808F1084B10B587
:1001100053F820400121204601F098FF204600219D
:1001200001F094FF2046BDE81040012101F082BF9C
:1001300004710008084B10B553F8204001212046F7
:1001400001F084FF2046002101F080FF2046BDE839
:100150001040002101F06EBF047100082DE9F34149
:100160000746134C8500631998681B6901211843E1
:1001700001F054FF03238DF8063004EB47041C23E1
:100180008DF80730238B02AEDFF8288026F8043D77
:10019000314658F8270001F06BFE4544A38B3146E9
:1001A000A868ADF8043001F063FE02B0BDE8F0814C
:1001B0000471000800000020F7B507460E4E032327
:1001C00006EB40068DF8063004238DF80730338B9C
:1001D00002AD0A4C25F8043D294654F8200001F0F0
:1001E00047FE04EB8704B38B2946A068ADF80430C2
:1001F00001F03EFE03B0F0BD0471000800000020D5
:1002000070B5184C85002C440E46206A012101F07F
:10021000F9FE4FF6FF7314498022CB6000230B6177
:100220008B61CB618B62A36A4A6116F0010F4FF4B8
:1002300040524A620B600C4606D010238B600B4B79
:100240002B44186905F08AFBB30709D50023A36086
:10025000064B05491D44A869BDE8704005F07EBB0A
:1002600070BD00BF04710008800500200000002060
:1002700010B40C4B0C6849688000D9600A4912F42C
:1002800080420144896A18BF20221A6210225C60F1
:1002900019609A60054B03491844006910BC05F0C9
:1002A0005DBB00BF80050020047100080000002035
:1002B00010B40C4B0C6849688000D9600A4912F4EC
:1002C00000420144896A18BF20221A6200225C6041
:1002D00019609A60054B03491844806910BC05F009
:1002E0003DBB00BF80050020047100080000002015
:1002F000CA0738B504460D4605D5084B03EB800305
:10030000186905F0B3FAAB0707D5044800EB840081
:100310008069BDE8384005F0A9BA38BD000000206A
:100320002DE9F74305460F46404C9046661999461D
:1003300005F04EFB01238DF8073096F8303001A808
:100340008DF8043096F832308DF8053096F8343058
:100350008DF8063005F04AFB780217D496F836304F
:1003600001A88DF8043096F838308DF8053096F8ED
:100370003A308DF8063005F039FB2D4B03EB850341
:100380001A6A93889BB243F480739380B9F1020F89
:1003900049D118F0010F21D0631993F83C2001A82E
:1003A0008DF8042093F83E2093F840308DF8052016
:1003B0008DF8063005F01AFB1D4BB90503EB8503DC
:1003C0001B691A6842F002021A601A6842F00802B9
:1003D0001A6042BF1A6842F004021A6018F0020F55
:1003E00021D0631993F8422001A88DF8042093F8D6
:1003F000442093F846308DF805208DF8063005F03E
:10040000F5FA0B4B03EB8505AB691A6842F0020263
:100410001A601A6842F008021A60FA0442BF1A68A9
:1004200042F004021A6003B0BDE8F08304710008D2
:10043000000000202DE9F3478A461D4E99463718E3
:1004400000238DF805308DF806308DF8073097F8C9
:10045000303002AC04F8043D05462046904605F0D5
:10046000C5FA1AF4800F06D197F8363020468DF879
:10047000043005F0BBFAB9F1020F15D118F0010FE5
:1004800007D0731993F83C3020468DF8043005F0FE
:10049000ADFA18F0020F07D0354495F842302046E7
:1004A0008DF8043005F0A2FA02B0BDE8F08700BF75
:1004B00004710008014800F05DBC00BF2800002066
:1004C00008B5024800F052FA002008BD28000020BC
:1004D000014800F091BA00BF28000020014800F058
:1004E00019BB00BF28000020224A038890429BB21B
:1004F00012D002F5006290420ED0B0F1804F0BD0C6
:10050000A2F59832904207D002F58062904203D063
:1005100002F58062904203D14A8823F070031343AE
:10052000154A904208D002F5806290421FBF23F422
:100530004073CA889BB2134303808B8883850B88E2
:1005400003850C4B98420FD003F5006398420BD003
:1005500003F54063984207D003F58063984203D0C7
:1005600003F58063984201D10B7A038601238382CD
:10057000704700BF002C014000100040038C70B594
:1005800023F001031B041B0C0384028C8688038B5D
:100590000D8823F073031B041B0C1D4322F0020281
:1005A0000C894B881204120C23431343144AB6B22D
:1005B00090429BB20FD002F5006290420BD002F540
:1005C0004062904207D002F58062904203D002F56B
:1005D000806290420ED14C8923F008031C438B8823
:1005E00024F0040426F4407223438E89CC893443DA
:1005F000224396B2CA88868005838286038470BDB2
:10060000002C0140038C30B523F010031B041B0C9D
:100610000384038C8588028B0C8822F4E642120442
:10062000120C42EA042223F0200394B21B040A892C
:100630001B0C43EA02134A88ADB243EA0213124A82
:100640009BB2904203D002F50062904215D123F094
:1006500080034A899BB243EA02124FF6BF731340EC
:100660008A8825F4406543EA02138A899BB245EAE9
:100670008205CA8945EA8205ADB2CA8885800483AD
:100680000287038430BD00BF002C0140038C30B5CD
:1006900023F480731B041B0C0384038C8488828BDB
:1006A0000D8822F073021204120C23F40073154318
:1006B0001B040A891B0C43EA02234A88A4B243EABA
:1006C0000223124A9BB2904203D002F5006290428C
:1006D00015D123F400634A899BB243EA02224FF604
:1006E000FF3313408A8824F4405443EA02238A8962
:1006F0009BB244EA0214CA8944EA0214A4B2CA882A
:10070000848085838287038430BD00BF002C014034
:10071000038C30B523F480531B041B0C0384038C1F
:100720008488828B0D8822F4E6421204120C23F492
:10073000005342EA05221B040D891B0C43EA0533D2
:100740004D88A4B243EA05330A4D92B2A8429BB247
:1007500003D005F50065A84205D18D8924F48044B5
:1007600044EA8514A4B284808283CA88A0F8402019
:10077000038430BD002C0140038819B19BB243F0C3
:10078000010303E023F001031B041B0C03807047EB
:10079000B0F8443029B16FEA43436FEA53439BB248
:1007A00001E0C3F30E03A0F84430704783899BB285
:1007B0000AB1194301E023EA0101818170474FF03A
:1007C000FF32826110220273FF22026103F024BC17
:1007D000037B70B5012B044605D0037B102B02D0A0
:1007E000037B002B68D1E078012802D1102323730A
:1007F00070BD2078314D55F82020138823F0010377
:100800001B041B0C1380FFF7D7FC2078FFF792FC2A
:10081000E378022B03D161782078FFF769FD207817
:10082000FFF774FC2078FFF799FC2378E16955F80D
:10083000230003889BB243F00103038005F00CF909
:100840006269207812F4801F07D01C4B53F82010E7
:100850000B889BB243F040030B80D10712D555F8AB
:10086000201002F0FE068B899BB243F001038B81BE
:100870008B8923F0FE031B041B0C8B818B899BB29D
:1008800033438B81530007D555F820100B8823F490
:1008900080631B041B0C0B80E378022B02D1617870
:1008A000FFF7AEFCE378207862786169FFF738FDE6
:1008B00001232373002070BD012070BD20000020A3
:1008C000037B10B5012B044604D0037B102B01D011
:1008D000037B13BB2078FFF76FFC2078104B53F895
:1008E0002020138823F001031B041B0C1380FFF747
:1008F00021FCE378022B03D161782078FFF7F8FC24
:10090000E378207862786169FFF794FD00204FF06A
:10091000FF3320732061A36110BD012010BD00BF13
:10092000200000200F4A1049034611604BF6FF716A
:10093000D1804FF4806151814FF48041002091813A
:1009400003211081908059700221D9704FF0FF313E
:100950001873987018615860986058619961DA61ED
:10096000704700BFAC050020A0860100827808B562
:10097000012A03461F4A00780ED15968496859B9BF
:10098000197B012902D0197B062905D152F82030A4
:100990004FF2FF029A822BE052F82020918A01F454
:1009A00070611961102119734FF2FF019182196969
:1009B000C9050AD511886FEA41416FEA514189B2F0
:1009C00011801188C1F30E011180196989050AD5BA
:1009D00011886FEA41416FEA514189B21180118853
:1009E000C1F30E0111801A691A69196903F030FB0D
:1009F000002008BD200000204FF0FF3370B43F4AB4
:100A0000836103783E4952F8234051F8235022680D
:100A10002A4253D04268466900215160720461D471
:100A20008278002A5ED1374A52F82320918821F437
:100A300000610904090C918005218161918A4907AF
:100A400005D48169012902D081690131F6D181691A
:100A500001291DD0816901311AD04FF0FF313602D2
:100A600081611BD4118889B241F400711180062183
:100A70008161118B890705D58169012902D08169BE
:100A80000131F6D18169012902D08169013102D198
:100A900070BCFFF794BE4FF0FF3181611A4951F8E5
:100AA0002360316821F001013160918821F40071E7
:100AB0000904090C91800122027313E0134A216892
:100AC00052F8232011420DD1114A216852F82320F7
:100AD000114207D00C49102251F8231002734968C3
:100AE00042685160094A0A4952F8232051F82330DC
:100AF0002A4313436360002070BC70474800002005
:100B00007471000820000020100000206C710008A3
:100B1000647100084FF0FF3370B4374A8361037883
:100B2000364952F8234051F8235022682A4243D0D4
:100B30008268002151604269160451D48278002AEB
:100B40004ED12F4A52F82320118889B241F4007106
:100B50001180918821F400610904090C918006211B
:100B60008161118B890705D58169012902D08169CD
:100B70000131F6D18169012902D08169013102D1A7
:100B800070BCFFF71CBE4FF0FF3181611D4951F869
:100B90002360316821F001013160918821F40071F6
:100BA0000904090C9180918821F480510904090CF1
:100BB00091800122027313E0134A216852F8232026
:100BC00011420DD1114A216852F82320114207D059
:100BD0000C49102251F82310027349688268516051
:100BE000094A0A4952F8232051F823302A43134373
:100BF0006360002070BC7047480000205C710008F2
:100C00002000002018000020547100084C710008DA
:100C100038B5C3780446012B02D0022B0AD047E036
:100C20000278264B53F8222093889BB243F48063CA
:100C3000938041E00078214D55F82020938823F4DB
:100C400000731B041B0C938093889BB243F40063D6
:100C50009380237B062B01D001290ED16269616844
:100C6000FFF706FB227855F822108B8823F4805377
:100C70001B041B0C8B80124B13E0237B0A2B01D02F
:100C8000022919D16269A168FFF712FBA3782278C3
:100C900033B955F822108B889BB243F480538B8074
:100CA000084B53F82220136843F00103136003E05C
:100CB00010230373012038BD002038BD2000002020
:100CC000100000201800002038B5037B0446980768
:100CD0004BD4237B032B48D0237B052B45D0237B90
:100CE000002B42D0237B102B3FD06269022312F0ED
:100CF000807F23731E4D23781AD1062155F82300D7
:100D0000A161018B890705D5A169012902D0A169DB
:100D10000131F6D1A169012902D0A169013104D1C3
:100D20002046BDE83840FFF74ABD4FF0FF31A161D2
:100D3000A17881B955F823100B889BB243F48073D6
:100D40000B80D30303D501212046FFF761FF032366
:100D500023731F23A3612378002055F82320938851
:100D60009BB243F40073938038BD012038BD00BFAF
:100D70002000002073B50023ADF806308C4E0378B8
:100D8000044656F823309A8A02F0DF02ADF80620B6
:100D90008278FAB9BDF80620D0071DD54FF0FF3292
:100DA000A261E2699289B2F5804F13D1227B052AB4
:100DB00007D1A268926842F00102D2B21A820A23D5
:100DC00005E06268926802F0FE021A82062323732D
:100DD0000423A3610025E7E0BDF80620910767D54D
:100DE000E17802290BD1227B062A01D1626803E057
:100DF000227B0A2A03D1A2685268013201E04FF037
:100E0000FF32A261227B0A2A0DD101290BD1A268EF
:100E1000556845B91A8892B242F400721A809A8ACB
:100E20001B8B2173C0E0237B0A2B05D1012903D141
:100E300002212046FFF7ECFE237856F823309A8AE9
:100E40001A8B227B0A2A0ED1A2685268012A0AD183
:100E50001A8822F480621204120C1A801A8892B244
:100E600042F400721A80626912F48035B2D1217B9B
:100E7000062918D1920316D46268127B1A820322C3
:100E8000A2619A8A160605D4A269012A02D0A26933
:100E90000132F6D1A369012B71D0A36901336ED061
:100EA0004FF0FF33A36103212046FFF7B1FE7BE043
:100EB000BDF8062050068DD5227B0A2A8AD1E27819
:100EC000012A87D1A1684A68022A0A6817D11B8AB9
:100ED0001370237856F82320138823F480631B04AF
:100EE0001B0C138013889BB243F400731380A36818
:100EF0005A68013A5A601A6801321A6010E049686B
:100F00001B8A0129137004D1A2685368013B536006
:100F100006E0A3681A6801321A605A68013A5A60FA
:100F2000A3685D68002D7FF455AF237856F8233011
:100F30009A8822F400721204120C9A809A8822F481
:100F400080621204120C9A809A8A1A8A626991024B
:100F500041BF22F4001262610222E2700622A26105
:100F60001A8B920705D5A269012A02D0A269013223
:100F7000F6D1A269012A02D0A269013204D1204629
:100F8000FFF71DFC05460FE04FF0FF32A2611A8803
:100F900092B242F480621A801A8822F4006212042B
:100FA000120C1A8001232373284602B070BD00BFC3
:100FB00020000020384B82B01A6842F001021A600B
:100FC0005968364A0A405A601A6822F0847222F43C
:100FD00080321A601A6822F480221A605A6822F459
:100FE000FE025A604FF41F029A60002200920192A2
:100FF0001A6842F480321A601A6802F400320192D0
:10100000009A01320092019A1AB9009AB2F5A06FC3
:10101000F2D11A6812F4003218BF01220192019A2B
:10102000012A05D01E4B4FF000629A6002B0704753
:101030001C4A116841F010011160116821F0030190
:101040001160116841F0020111605A685A605A68D3
:101050005A605A6842F480625A605A6822F47C12DC
:101060005A605A6842F4E8125A601A6842F0807274
:101070001A601968084A8901FBD5516821F00301FB
:101080005160516841F0020151605A6802F00C024F
:10109000082AFAD1C6E700BF001002400000FFF89E
:1010A00000ED00E0002002402DE9F047089D01F02E
:1010B00007044FEAD508224405F007054FF47F499D
:1010C00000EBD100944227D005F0070604F0070A90
:1010D000B245D44638BFB446CCF10801C4EB020C8B
:1010E0008C4528BF8C46E708C75D29FA0CFE08EB43
:1010F000D50107FA0AF75FFA8EFE4EFA06FE47FAA6
:1011000006F65F5C06EA0E0627EA0E0E46EA0E06B3
:101110005E5464446544D5E7BDE8F0870246006844
:1011200048B1036811891360D38801339BB2994297
:10113000D38038BF1381704770B504460D4688B020
:1011400020220021684605F0CFFD20460495FFF7D8
:10115000E5FF054658B16B46044608AE1A4603CA79
:10116000B24220606160134604F10804F6D12846BB
:1011700008B070BD2DE9F0410568DDB18E68A84664
:1011800026F06047BB0C4FEAD67EC6F3807C2A4629
:1011900037EA260628BF1E469368BEEBD37F23F0AE
:1011A00060440ED0002B08DAA40CB44207D195425B
:1011B00013D10D600160BDE8F081B44212D0A642A7
:1011C00006E0A74203D1C3F380739C4503D1A74235
:1011D0002CBF002301232BB1E9E7C8F800100A60F7
:1011E000BDE8F0811368904613B91160BDE8F08145
:1011F0001A46D1E7F8B506460F464FF6FF740025AC
:101200002A463046394604F091FCC0B284EA0024F4
:10121000082314F4004F4FEA4404A4B21CBF84F422
:10122000815484F00104013BF3D10835402DE7D10E
:101230002046F8BD10B54B6843B1C4681A681C60FD
:10124000C360438A013B43824A60F4E70A8B002073
:1012500063F309020A83002110BD0A44914211D0B0
:1012600011F8013B80EA0320082310F4004F4FEAF5
:10127000400080B21CBF80F4815080F00100013B2F
:10128000F3D1EBE770472DE9F04F85B081468DE84B
:101290000A00BDF83C409346002A7DD024B10E9B45
:1012A000002B79D0072C27D809F10C00FFF736FF67
:1012B000054610B96FF0020070E02022002105F011
:1012C00013FD22460E9905F1100005F097FC631CF2
:1012D0002B769BF800302C4403F01F0363F03F0390
:1012E0002374009B09F11C0043F00043AB602946C6
:1012F000FFF740FF012051E04FF000084646454609
:10130000019B4FF0800A1B0A029300F10C03039328
:101310000398FFF703FF07460028CBD020220021C7
:1013200005F0E2FC3EB99DF8043002223B749DF8C2
:1013300008307B740BE0002209E00E9BB9180132E3
:10134000985DD2B20136072A0874B6B201D0B44211
:10135000F3D8A64208BF4FF0400A9BF80010B81817
:1013600001F01F0141EA481141EA0A030374009B9E
:10137000013243F00043BB603A76394609F11C0064
:10138000FFF7F8FEA64205F1010588F001084FF0CD
:10139000000ABDD1284601E06FF0010005B0BDE8AC
:1013A000F08F2DE9F04717460A8B9946C2F30902E0
:1013B000C2F10603002B0646884618DD00201FFAFE
:1013C00089F185B253199BB2052B09D9A9420FD8CF
:1013D000B8F818300A4462F30903A8F818306BE033
:1013E000A942F3D93C5C43449C760130E9E70025EF
:1013F000911F1C23B1FBF3FA03FB1A1AD8F804401F
:101400005FFA8AF10CB1012329E03046FFF786FE2E
:10141000044608B100230360C8F80440CCB96FF05B
:101420000200BDE8F0874A44063A1C20B2FBF0F205
:101430000132D2B293420DD2BAF1000F0AD1304636
:10144000FFF76CFE08B1C0F800A020600028E6D0CD
:10145000044600211FFA89F94FF0000A11E02068C4
:101460000028E0D00133DBB20446F8E7A3180132CC
:10147000785D92B201351C2A1871ADB205D0A9452C
:10148000F4D84D450FD28AB2F0E7A945F9D93046D4
:10149000FFF744FE08B1C0F800A020600028BED0CD
:1014A00004460021EDE7B8F81820C2F30903994477
:1014B00069F30902A8F818200120BDE8F087F8B503
:1014C000044616460D46242200211F4605F00CFC5A
:1014D000069B72096360079B002023624FF6FF732F
:1014E0009A4228BF1A4629460346A760207097B241
:1014F00004F10C06934204D0316001330E462031D2
:10150000F8E70023336027826382A382F8BD037863
:101510001BB94BB2002BC8BF0170704700787047F1
:101520002DE9F7430D9F8046BDF828400B9E9DF89E
:101530003090BDF838500FB9002D3FD1B9F11F0FD1
:101540003CD898F80010A9B9072D34D834F003031B
:1015500034D12A4639464FF6FF70FFF77EFE47F634
:10156000FE73240204F4407444EA0964034044EA2C
:1015700043240FE041EA0421072D41EA096409D917
:1015800019461046FFF736FE2A463946FFF765FE34
:10159000034601E04FF6FF7301950097324621465E
:1015A0004046FFF770FE33780133DBB21F2B88BF54
:1015B0000023337004E06FF0030001E06FF00100DE
:1015C00003B0BDE8F0832DE9F7430E9F81460C463A
:1015D000104619460B9D9DF830209DF83480BDF8CB
:1015E0003C6007B976BB1F2A2CD899F8003063B34A
:1015F00043F0800343EA04239DF8284043EAC833BC
:1016000043EA0443072E43EA026407D9FFF7F2FDD9
:1016100032463946FFF721FE034601E04FF6FF73DD
:10162000019600972A4621464846FFF72CFEB8F15E
:10163000010F0CD12B780133DBB21F2B88BF0023A5
:101640002B7004E06FF0010001E06FF0030003B0C5
:10165000BDE8F083C06900B108307047C3691A68FB
:10166000C261C2681A60C360438A013B438270470B
:101670002DE9F047D0F818A0054616461F465446F7
:10168000DFF868804FF00009002C2CD0D4E9022349
:10169000B21A67EB0303994508BF904520D2AB69A6
:1016A00021469C4228460DD1FFF7C4FDAB691B685B
:1016B000AB61EB6823606B8AEC60AC69013B6B82C9
:1016C000A246E1E7FFF7B6FD2368CAF80030EB68F1
:1016D00023606B8AEC60013B6B82DAF80040D3E751
:1016E000A2462468D0E7BDE8F08700BF80841E00D2
:1016F0002DE9F04F8BB00E4614460793149F824697
:10170000002800F0FF80002F00F0FC80531E3F2BCC
:1017100000F2F880012A03D1079B002B40F0F280F1
:10172000BAF814500023ED00AE420893099301D398
:10173000002505E133199D42DAF80C303ABFAD1BA4
:10174000EDB225461BB9DAF81030002B61D02F2EF0
:1017500015D8C6F13008A84528BFA8460023009335
:101760005FFA88FB4246314608ABDAF80800464487
:10177000CBEB0508FFF798FC5FFA88F802E0A84673
:101780004FF0000BBAF81430302103F10053063B40
:10179000DB000493DAF80C300393039B6BB3B8F1CE
:1017A000000F2AD0049BE02B28BFE02306930B44B4
:1017B000B342059318D9C6EB0309C84538BFC146E3
:1017C000039828BF5FFA89F9CDF800B0711A08AB09
:1017D0004A460430FFF768FCCB44C9EB08084E4486
:1017E0005FFA8BFB5FFA88F8049B069A05999B1AAF
:1017F0000493039B1B680393CFE7DAF8100080B1D2
:10180000B8F1000F0DD0CDF800B008AB4246711A08
:1018100005E02A4631460093DAF8080008ABFFF7E6
:1018200043FC002D84D066070BD00AAB03EBD40138
:1018300011F8082C634203F0070342FA03F301F89E
:10184000083C082C06D9102C06D9202C8CBF082364
:10185000042302E0012300E00223079A002A57D064
:10186000B4EBC30F56D0082C0ED89DF92020631E70
:1018700022FA03F3D80760D54FF0FF3303FA04F4DC
:1018800014438DF8204058E0102C0ED8BDF92020CC
:10189000631E22FA03F3D90743D54FF0FF3303FA4F
:1018A00004F41443ADF820403BE0202C0CD8089BF6
:1018B000621E23FA02F2D20737D54FF0FF3202FA46
:1018C00004F42343089330E0402C1ED0DDE908895E
:1018D000621E4046494604F029F9002100F001004B
:1018E00050EA010324D022460120002104F02AF905
:1018F000404261EB410140EA080041EA0901CDE9BB
:10190000080115E06FF001051AE06FF0080517E017
:10191000012C12D0082C10D9102C02D9202C07D859
:1019200003E0BDF820303B800AE0089B3B6007E005
:10193000DDE90823C7E9002302E09DF820303B7071
:1019400028460BB0BDE8F08F30B5402A85B018D8D6
:10195000002A08BF01220024012A0294039401D026
:10196000082A03D81B788DF808300FE0102A03D816
:101970001B88ADF8083009E0202A03D81B680293C1
:1019800004E04022D3E90045CDE9024553070BD0DE
:1019900004AB03EBD20515F8084C534203F00703E0
:1019A00004FA03F305F8083C00910346002102A85D
:1019B000FFF77AFB05B030BD10B5CB6843B1C46802
:1019C0001A681C60C360438A013B4382CA60F4E723
:1019D0008B600B618B8210BD2DE9F04FD1F800A018
:1019E0008FB0CDE90223CAF3C01204460D4622B1DE
:1019F000CAF3C03BCAF3062802E090464FF0020B40
:101A0000BAF1000F80F2BB812B6813F0C04F40F099
:101A1000B6812B7C002B00F0B281BBF1020F03D00A
:101A20002178414540F0AB810AF07F01C8B20590B2
:101A300012B1CAF3074904E0CAF30F2909B909F042
:101A400003092B444FEA4868059ADE7948EA0B48B7
:101A500048EA8248F30948EA090804932BD0002297
:101A600000230EA961E90823059B676800934A4695
:101A70005B462046B847002800F08181A7694FB92E
:101A8000414604F10C00FFF757FB074688B976E1A1
:101A90003F681FB13B699845FAD115E0414604F112
:101AA0000C00FFF749FB0746002800F06881A36996
:101AB0003B60A76108E0A769002F00F060813B69E7
:101AC000984506D03F68F7E7DDE90601FFF792FB8E
:101AD000F88297F819E006F01F08CEF3840EB8EBF1
:101AE0000E0ED7E9022348BF0EF1200E52EA030181
:101AF000CAF3046A00F02E81DDE90201801A61EB6D
:101B000003010B46024600219E48994208BF9042BD
:101B1000C0F02081049B5BB3BEF1010F00F31A817A
:101B2000730625D5DDE902230021C7E9022306A8B3
:101B3000202205F0D9F8DDE90223CDE9062305F1DD
:101B4000080308932B7CADF82E90013BDBB2ADF877
:101B50002C309DF814308DF830B08DF833308DF87E
:101B600031808DF832A0A36806A920469847DEE0B0
:101B70007B7EC6F34012B2EBD31F40F00081C3F36B
:101B80008403434540F0FB80049A2B7CB609002A6D
:101B900033D016F001065ED1032B40F2F080DDE970
:101BA0000223C7E902232B7C05F10A08033BDBB2C1
:101BB0004246394604F10C00FFF7F3FB002812DA25
:101BC00039462046FFF736FB7B7EC3F384020132A1
:101BD00062F386037B763B8B66F309033B831B0A28
:101BE00066F3C713B4E06A7A2B7A414643EA0223CC
:101BF000BB822A7C033AD2B223E066BB05F1080619
:101C0000013BDBB23246394604F10C00FFF7C9FB59
:101C1000002812DA39462046FFF70CFB7B7EC3F31F
:101C20008402013262F386037B76049A3B8B62F373
:101C300009033B83049A1B0A88E031462A7C013A57
:101C4000D2B2F88AFFF709FB7B7EF882C3F3C01299
:101C500082F001027AE0388B013BC0F309000528CD
:101C6000DBB212D8EE1D0021CAB2934228D901314D
:101C700000EB010E16F801CF07EB0E02BEF1060FC6
:101C800082F819C0CAB2EFD11AE07E68BEB106224E
:101C9000316811B11C320E46FAE7801A05F1070CC3
:101CA00000EB010EBEF11B0FCAB209D89A4207D24F
:101CB0001CF8012FB6448EF804200131F0E73246BB
:101CC000DDE902019A42CDE9060107F11A01089106
:101CD00038BF0832796834BF5219002209910A923C
:101CE0003A8BADF82E90C2F309021344ADF82C30B4
:101CF0009DF814308DF830B08DF8333000238DF816
:101D000031808DF832A07B602A7CF88A013A05F197
:101D10000801FFF7A2FABB8AF882834203D1A368C5
:101D200006A92046984706A92046FFF745FE7B7E78
:101D3000C3F38402013262F386037B763B8B6FF33D
:101D400009033B831B0A6FF3C71301E062F3C71358
:101D50007B7614E07B7E394666F386036FF3C71308
:101D60007B762046FFF766FA049B002B7FF4D8AE03
:101D70007B7EC3F38402013262F38603E8E70FB08F
:101D8000BDE8F08F80841E00034651F8100F8A884A
:101D900018609A8018467047FEE7000008B50C4AA4
:101DA0000C4B0D498B4204D252F8040F43F8040B3C
:101DB000F8E70A480A494FF000028842B8BF40F8E5
:101DC000042BFADBFFF7F6F8BDE8084003F0CABCC5
:101DD0002884000800000020540500205805002039
:101DE000A827002043690AB1194301E023EA010151
:101DF00041617047B1F5807F35D00CD8082924D0D7
:101E000004D801291CD004291DD0704720291FD0D7
:101E100040291FD07047B1F5006F22D006D8B1F528
:101E2000007F20D0B1F5806F1DD07047B1F5803FA5
:101E300013D0B1F5003F12D0B1F5004F15D110E02D
:101E40000A4B83607047082300E01023C36070478B
:101E5000082300E0102303617047082304E01023E7
:101E600002E0002383610423436070470101010005
:101E7000CA782DE9F041D40648BF8C780E8802F06C
:101E80000F0348BF234316F0FF0F1ED00168002444
:101E90004FF0010E4FF00F0C0EFA04F737EA06056B
:101EA0000FD1A5000CFA05F821EA080103FA05F59F
:101EB000282A41EA050101D1476102E0482A08BF0A
:101EC00007610134082CE7D10160FF2E20D9416859
:101ED00000244FF0010E4FF00F0C04F108050EFA2C
:101EE00005F535EA06070FD1A7000CFA07F821EA35
:101EF000080103FA07F7282A41EA070101D14561E1
:101F000002E0482A08BF05610134082CE5D1416090
:101F1000BDE8F0810AB1016170474161704700007E
:101F20000028164A30B500F44015B4BFD369536891
:101F3000B5F5401F84B206D1556823F0706325F0D3
:101F4000706555600EE0C20255BF420D03221201BA
:101F5000C0F303454CBFAA4004FA02F223EA02038D
:101F600043F0706319B1420D120194402343034AB8
:101F70000028B4BFD361536030BD00BF00000140F2
:101F80001C4A10B5536803F00C03042B01D0082B36
:101F900001D0194B0EE053685168C3F38343CC035F
:101FA00003F1020302D55168890301D5134900E00A
:101FB00011494B43036053681149C3F30313CC5CCD
:101FC0000368E34043605468C4F302240C5D23FAC1
:101FD00004F484605468C4F3C2240C5DE340C3601D
:101FE0005268C2F381320A44127CB3FBF2F30361FC
:101FF00010BD00BF0010024000127A0000093D0031
:102000006C000020044B5A6909B1104301E022EA38
:1020100000005861704700BF00100240044B9A69ED
:1020200009B1104301E022EA00009861704700BF47
:1020300000100240044BDA6909B1104301E022EAC2
:102040000000D861704700BF00100240044B1A69BD
:1020500009B1104301E022EA00001861704700BF97
:1020600000100240034B044A5A6002F188325A6061
:10207000704700BF0020024023016745FFF7F2BF11
:10208000024A136943F08003136170470020024045
:10209000FFF7F6BF084BDA68D10709D4DA685207B0
:1020A00008D4DB6813F0100F14BF0320042070471E
:1020B00001207047022070470020024010B50446FE
:1020C000FFF7E8FF012806D11CB1FFF7E3FF013C51
:1020D000F8E7052010BD002C08BF052010BD00004A
:1020E00070B505464FF400500E46FFF7E7FF042891
:1020F0000ED1084C4FF40050236943F001032361D3
:102100002E80FFF7DBFF41F6FE7322691340236147
:1021100070BD00BF0020024073B5002306464FF497
:1021200000500D460193FFF7C9FF04281AD10E4C49
:102130004FF40050236943F001032361ABB23380B5
:10214000FFF7BCFF042808D102360196019B2D0C35
:102150001D804FF40050FFF7B1FF41F6FE73226976
:102160001340236102B070BD0020024038B505461F
:102170004FF43020FFF7A2FF042812D1094C4FF48E
:102180003020236943F0020323616561236943F032
:1021900040032361FFF792FF41F6FD73226913406C
:1021A000236138BD00200240410746BFC30843F009
:1021B0000043430D820748BF43F0804318467047F1
:1021C000094B9A6912F0700F0DD000229A61074AEC
:1021D000516801315160127F12B99B695B0702D5CA
:1021E000034A014B9A607047006400405805002084
:1021F000808080000000000070B50C4615461E4629
:10220000FFF78CF950B9022E0AD1012D08D12EA367
:10221000D3E900232846C4E9002303E0002001E0BD
:102220004FF6FF7000B201284AD0013047D0022E8D
:1022300015D140F239439D420AD046F6B4639D421F
:102240003DD123A3D3E900230120C4E9002370BDBD
:1022500021A3D3E900230120C4E9002370BD012E8E
:102260002DD1013D0A2D2AD8DFE805F00629290DD8
:1022700014292929291B220019A3D3E900230120AD
:10228000C4E9002370BD18A3D3E900230120C4E9E9
:10229000002370BD16A3D3E900230120C4E9002365
:1022A00070BD15A3D3E900230120C4E9002370BD4C
:1022B00013A3D3E900230120C4E9002370BD00204B
:1022C00070BD00BFAFF30080401DA12026812A0B06
:1022D0006FC971D4B02CBC69C41EDD8B3CD93120D0
:1022E0009E6AC421818A46EE042B31ECA7766FBE2C
:1022F000F017304A39059E56CDD269EBC51A133B0B
:10230000D5A4D139F922B6A710B50E4C3823E36015
:10231000204623610221FFF76DFD20461021FFF7C3
:1023200069FD094A00231380084A204613800221D0
:102330000122FFF757FD2046BDE810400122102181
:10234000FFF750BD00640040040A0020060A002088
:1023500000EB8000430018460138FDD87047402844
:1023600008B5024609D8BDE80840C0EB401002EBB2
:102370008000C00080B2FFF7EBBF4FF47A70FFF728
:10238000E7FF013A92B2002AF7D108BD38B50446FA
:1023900004F008FE80B20246002330B1013880B25A
:1023A000215C2E2908BF0346F7E713B9013A202024
:1023B00010E0013B202182B29A4205DAA55C01308F
:1023C000302D0AD1A154F6E738BD655C0133302DBC
:1023D00003D1605499B29142F7DB38BD0309092B50
:1023E00000F00F0094BF3033373309280B7094BFCF
:1023F00030303730002348708B70704713B50A4671
:10240000044601A9C0B2FFF7E9FF200A1146FFF711
:10241000E5FF9DF8043093709DF80530D3709DF86A
:102420000630137102B010BD13B50A46044601A967
:10243000C0B2FFF7D3FF9DF8043001A993719DF856
:102440000530C4F30720D371FFF7C8FF9DF80430AF
:1024500001A913719DF80530C4F307405371FFF7CC
:10246000BDFF9DF8043001A993709DF80530200E42
:10247000D370FFF7B3FF9DF8043013709DF805305B
:1024800053700023137202B010BDF8B50D46069CC0
:10249000002121702978752931D16E78632E01D100
:1024A000017807E0692E01D1018803E06C2E40F02D
:1024B000A7800168AF78682F17D1632E05D1214618
:1024C000BDE8F8400078FFF789BF692E05D12146A5
:1024D000BDE8F8400088FFF791BF6C2E33D121464C
:1024E000BDE8F8400068FFF79FBF2B2F2BD111B13B
:1024F0002770012628E020202070012624E073297F
:102500007ED16978632902D190F9001007E069292A
:1025100002D1B0F9001002E06C2971D10168A878ED
:102520002B280AD1002903DA2D202070012608E08B
:1025300008BF20202070012606E000294FF0000689
:1025400002DA494200E00026174618464FF0300EE6
:10255000002806DA013FBFB2013004F807E000B2FC
:10256000F6E703EAE373134418BF01309BB218BFC8
:1025700000B20A274FF02E0C9E4210D2013B9BB2B4
:10258000C3EB020E86451FBFB1FBF7FE07FB1E1112
:102590003031E1540CBF04F803C07146ECE700236E
:1025A000A3547A21284604F037FC48B3AB782B2B90
:1025B0000FD1601CFFF7EAFE204604F0F3FC012374
:1025C000834205D2E25C202A0BD101339BB2F7E7AC
:1025D000F8BD2046FFF7DAFE204604F0E3FC0123B5
:1025E0000BE02278234403F8012C20232370F8BD4C
:1025F000E25C202AF5D101339BB28342F8D3F8BDC7
:10260000F8BD0000034B0122DA831A6A01321A6214
:10261000704700BF580500200B4B0021D983196279
:102620000A4B0B4A1B68F020B3FBF2F34FF47A72AB
:102630005343084A013B5360074B83F823000723A9
:1026400091601360704700BF5805002058000020BB
:1026500040420F0010E000E000ED00E02DE9F84FEF
:10266000254B264D01281CBFAA461D468946144607
:102670002349244A06BF9A4688469046FFF7FEFC47
:102680002846FFF773FD0428074630D14FF6FF7B3D
:10269000B9F1000F08BF4FF47A74013405F1100648
:1026A00024F001043444C5EB0A0AA64217D0B9F15C
:1026B000000F03D13AF8061089B203E0731B4B44B4
:1026C00033F8101C594501D10236EEE7B0450DD95B
:1026D0003046FFF705FD04280746F5D007E04FF028
:1026E00011312846FFF718FD074600E08027FFF765
:1026F000CFFC3846BDE8F88F00E0010800E401088F
:10270000FFE70108FFE3010810B5FFF7B7FC074832
:10271000FFF72CFD0428044603D10548FFF726FDEA
:102720000446FFF7B5FC204610BD00BF00E00108DD
:1027300000E401080131C1F34F0100239AB2914234
:102740000AD9B3F5FC7F09D0054A1A445200128811
:1027500020F813200133F1E70420704780207047F0
:1027600008F0000438B50A4604460D46014600202C
:10277000FFF774FFC0B2042801D080B238BD2A46EA
:1027800021460120FFF76AFFC0B238BD38B5164BAD
:102790001D68D3F80044B5F1113F07D1B4F1113FE2
:1027A00001D104201DE0621C0ED104E06B1C0BD192
:1027B000B4F1113F08D1002211460120FFF74EFF6E
:1027C000C0B204280DD1ECE7FFF79EFFC0B2042889
:1027D00007D1013504D1013414BF4020202000E08E
:1027E000402080B238BD00BF00E001081FB50121C4
:1027F0000220FFF71FFC0023ADF80A30ADF80630C9
:102800004FF6FF73ADF80830094B0A4A1B680A4CB3
:10281000B3FBF2F304A9013B21F80C3D2046FDF780
:1028200063FE01212046FDF7A7FF04B010BD00BFE5
:102830005800002040420F000004004072B6064BD2
:102840009B8C9BB262B6054A91889380994282BF65
:10285000116801311160704700040040600B0020D6
:1028600072B6074B9B8C9BB262B6064A9188106881
:10287000994284BF01301060938003EB00407047A1
:1028800000040040600B002072B6094B9A8C92B293
:1028900062B6084908488B888A8093420B6884BFD7
:1028A00001330B6002EB0343A0FB03308009704748
:1028B00000040040600B0020D34D621030B472B6AB
:1028C0000D4B988C80B262B60C490B8AD1E9024557
:1028D000834204D9013445F10005C1E902452B04C6
:1028E000220443EA1443141843F1000508822046E9
:1028F000294630BC704700BF00040040600B002038
:1029000008B50120FFF772FF064B00219A8C064B99
:1029100092B21960002000219A80C3E902011A8254
:1029200008BD00BF00040040600B002070B50446E5
:102930000646044D0FCD0FC495E8070084E8070054
:10294000304670BD58050020044B986800F0E050F8
:1029500000F1644358425841704700BF0064004092
:102960002DE9F341054600287DD0046814F0005499
:102970007CD1FFF725FC3F4B9A6802F0E052B2F1A0
:10298000E05F51D09A682646C2F380628DF8042039
:102990009A689B68C2F3C062C3F300738DF8052088
:1029A0008DF80630FF2401ABF35C0BB1F4B234E0D8
:1029B000330103F1804303F5CB431868FFF7F4FBC1
:1029C0002F684FEAD07C4FEAD778E04527F0604384
:1029D00020F0604207F0004E00F0004110D0BEF140
:1029E000000F00D09B0C19B1900C984215D002E05A
:1029F0009A4217D0104683422CBF002001200BE0E2
:102A0000934205D1C0F38070C7F38077874203D12A
:102A100093422CBF0020012020B10136032EC2D1E9
:102A2000FF2C01D1002022E023012A7C03F1804306
:102A300003F5CB435A60EA682968DA60AA6800297E
:102A40009A60BABFCA0042F004024A05490048BF72
:102A500042F0020242F001021A60074A0120536963
:102A60000133536103E06FF0010000E0034802B05E
:102A7000BDE8F081006400405805002015FCFFFF10
:102A80002DE9F041204F214A3D881388013505F09A
:102A90003F059BB29D4290461D4C1CD01D4EF368D5
:102AA000DB0642BF236801332360D6F8B001FFF78D
:102AB0007BFB18236B431849C850CA18D6F8B431A9
:102AC00003F00F031374D6F8B8319360D6F8BC3115
:102AD000D3603D8002E0A3680133A3603B889AB2D3
:102AE000B8F800309BB2D31A228A48BF40339342D1
:102AF000C4BF074A1382A36938220133A361054B7F
:102B0000DA60BDE8F08100BF060A0020040A002058
:102B10005805002000640040781400202DE9F041A1
:102B2000204F214A3D881388013505F03F059BB2AF
:102B30009D4290461D4C1CD01D4E3369DB0642BFA2
:102B4000236801332360D6F8C001FFF72DFB18235B
:102B50006B431849C850CA18D6F8C43103F00F03A4
:102B60001374D6F8C8319360D6F8CC31D3603D8069
:102B700002E0E3680133E3603B889AB2B8F80030C2
:102B80009BB2D31A228A48BF40339342C4BF074A3C
:102B90001382A36938220133A361054B1A61BDE892
:102BA000F08100BF060A0020040A0020580500201A
:102BB0000064004078140020F8B500B3FFF700FB74
:102BC000114D124B1A882B8892B29BB29A4219D09F
:102BD0002A880F4C0132182302F03F0203FB024403
:102BE000034604F11807264603CEBE42186059601A
:102BF000344603F10803F6D12A800120F8BD6FF0B6
:102C00000100F8BD0020F8BD040A0020060A0020DB
:102C10007814002037B514230024012501A88DF86D
:102C200004308DF805408DF806408DF8075002F00D
:102C3000DDFE152301A88DF804308DF805408DF8D0
:102C400006408DF8075002F0D1FE03B030BD000001
:102C5000012810B503D1BDE81040FFF755BB0E4C5D
:102C6000002202212046FFF7BDF800221021204655
:102C7000FFF7B8F802212046FFF7BCF810212046E4
:102C8000FFF7B8F83823054AE36023610023138077
:102C9000034A138010BD00BF00640040040A0020F6
:102CA000060A0020032970B504460D463ED80028C8
:102CB0003CD00388013B9BB2B3F5806F36D2C3880A
:102CC000013B9BB2032B31D84388013B9BB20F2BB6
:102CD0002CD88388013B9BB2072B27D8474E1C2258
:102CE0003046002104F000F8AA1E534253413377C6
:102CF000434B00225A611A684FF47A7622F002029E
:102D00001A601A6842F001021A601A4653683C4978
:102D1000DB070ED44FF47A70FFF71AFB013EF5D1B2
:102D20004FF400430B606FF47A7070BD6FF00100D8
:102D300070BD61230B60E2886388013A013B120693
:102D40001B0403F4702302F040721A432388012D00
:102D500003F1FF33C3F3090342EA0302A3884FF4EC
:102D60007A7403F1FF334FEA035303F4E00343EAB9
:102D700002030CBF4FF000420022032D43EA02037E
:102D80000CBF4FF0804200221343CB610B6823F04D
:102D900001030B6048681A4A10F001000AD04FF492
:102DA0007A70FFF7D5FA013CF4D14FF40043136079
:102DB000144870BDD2F8003223F47C5323F00E0384
:102DC00043F4606343F00103C2F800326FF07043D4
:102DD000C2F80402C2F80C320B4BC2F814320123C1
:102DE000C2F84002C2F84402C2F81C32D2F80032E3
:102DF00023F00103C2F8003270BD00BF5805002067
:102E00000064004016FCFFFFAAAAAA0AF0B5002839
:102E10003DD00E293BD806461E4F0022C7F81C2283
:102E20004FF0010E93B299422FD950F83250002D35
:102E300002DB7368002B05DB7368EC00DB0044F0F9
:102E4000040401E06C055B056D00756848BF44F043
:102E50000204002DB8BF43F004036D004FEAC20521
:102E600005F1804548BF43F0020305F5C845C5F8A4
:102E70004042C5F84432D7F81C320EFA02F423431C
:102E8000C7F81C3201320836CCE70020F0BD6FF0E5
:102E90000100F0BD0064004013B5044601214FF06D
:102EA0000070FFF7C7F801211CB10920FFF7B6F841
:102EB00002E00420FFF7B2F848238DF8073003231F
:102EC0008DF8063044B14FF4807301A91648ADF86F
:102ED0000430FEF7CDFF07E04FF4006301A913486B
:102EE000ADF80430FEF7C4FF18238DF80730032334
:102EF0008DF806306CB14FF4007301A90A48ADF8A3
:102F00000430FEF7B5FF01214FF4EA10FFF708F88F
:102F100007E04FF4805301A90448ADF80430FEF7F0
:102F2000A7FF02B010BD00BF000C01400008014027
:102F300038B5294804F036F844F2213141F23423FF
:102F4000254D002294B2A04202F1010204D92C5D69
:102F500023449BB26140F5E741F29152934203D181
:102F600044F24033994200D0FEE748F2657145F2E1
:102F700078631A4C0022A05C01320344192A9BB2E8
:102F800081EA0001F7D145F68812934203D148F255
:102F90005B73994200D0FEE7104804F003F808285C
:102FA00014D90F4C0F49204603F09EFF0E492046CE
:102FB00003F012FF0849204603F00EFF204603F0FD
:102FC000F1FF0023204400F8033C38BD02490448C7
:102FD000BDE8384003F088BF800000208A00002050
:102FE00028140020920000209D82000810B50C4893
:102FF0000B4C03F0D7FF00234FF0FF319AB2904201
:1030000005D9A25C2E2A08BF19B20133F6E7044B9A
:10301000013119440348BDE8104003F065BF00BF0B
:1030200028140020500A002008B5FFF781FF04494A
:10303000044803F0D1FEBDE80840FFF7D7BF00BF4A
:103040007A8200082814002010B504460748FEF7CD
:1030500065FA230403F47F0343F0802343F08003E5
:1030600000F07F0043EA002010BD00BF841A00205A
:1030700008B503F091FE02F02BFE4FF0405102F034
:103080007BFE08BD08B518220021044803F02CFE81
:10309000BDE80840002003F075BE00BF08250020F1
:1030A00038B50C460546002101602346C0F80310E0
:1030B0002022FEF749FC231D022220212846FEF78C
:1030C00043FCA31D032222212846FEF73DFC04F108
:1030D0000803032225212846FEF736FC04F10A03E3
:1030E000102228212846FEF72FFC0448FEF716FA86
:1030F000034BA0811B78E38138BD00BF841A0020F8
:103100008C0A002010B5FFF7D9FB0023064A02F015
:10311000A3FF064C0023206063812146BDE81040D8
:103120000348FFF7BDBF00BF40420F00F409002075
:10313000A82200200000000030B50F4C87B0238883
:10314000A3B104F628052846FFF7DCFF0723049304
:1031500014230293094B0395019340F25513201D4C
:10316000009303A3D3E90023FEF7DAF907B030BDDB
:10317000F1C6A7C1D068080F801A00208C0A002071
:1031800010B5064C10220021204603F0ADFD044B83
:1031900000221A700123E38010BD00BFF409002053
:1031A0008C0A002000000000F7B504460F4640F2EC
:1031B0007912002103F098FD2046FFF7A3FF1AA122
:1031C000D1E900010B2300252372012602AB63E93C
:1031D0000201E5716672204620225021FEF7B4FB01
:1031E0000F4AA6751346E57503CBE161A061186827
:1031F0000C4E206210686062304603F0D3FE80B24D
:103200004F2828BF4F2002460546314604F12900C9
:1032100003F0F4FC29353D8003B0F0BDAFF300802E
:10322000E8F7FF1F28140020192004060000000002
:1032300070B5134D88B02B880446CBB105F628062F
:103240000DF11E013046FFF7AFFFBDF81E30E17EE5
:103250000593002304960393A37E1934029301235C
:103260000093019404A3D3E90023281DFEF7ABF9D2
:1032700008B070BDAFF300809E6AC421818A46EE1B
:10328000801A002070B505468AB00E4649220021FA
:1032900003F02AFD03A8FFF749FB089B00248DE8F3
:1032A000180021466B4628463022FEF74DFB099B4D
:1032B00030228DE8180011466B462846FEF744FB85
:1032C000039B049A60211A44059B28461A44069BD6
:1032D00013448DE8180030226B46FEF735FB1223AD
:1032E00033800AB070BD000070B5134D88B02B88D4
:1032F0000446CBB105F628060DF11E013046FFF756
:10330000C1FFBDF81E30E17E0593002304960393B0
:10331000A37E1934029304230093019404A3D3E9F8
:103320000023281DFEF74FF908B070BDAFF30080F1
:10333000042B31ECA7766FBE801A002037B5044607
:103340000D461022002103F0CFFC00231946009403
:1033500028222846FEF7CCF9EB7E23816B7E638121
:1033600003B030BD10B4002404700B460122214686
:1033700010BCFEF7E9BA00001FB501466846FFF72A
:10338000DDFFDDE9000106A3D3E90023994206BF72
:1033900090420120002005B05DF804FBAFF30080EF
:1033A0001E1B55CEAC0000000149FFF7DBBF00BF7C
:1033B000F00900200000000070B5114D86B02B8888
:1033C0000446B3B105F628063046FFF7EDFF0123AA
:1033D000E17E0593002304960393A37E19340293A0
:1033E00005230093019404A3D3E90023281DFEF7CD
:1033F000EAF806B070BD00BFF017304A39059E5696
:10340000801A0020014B00221A807047F00900202A
:1034100037B50D46044600230360838019460090AB
:1034200008222846FEF764F9EB7E63806B7EA3805A
:1034300003B030BD002202600B46C0F803203021EB
:103440000122FEF781BA00000149FFF7F3BF00BF78
:10345000D02400200000000070B5114D86B02B88EC
:103460000446B3B105F628063046FFF7EDFF072303
:10347000E17E0593002304960393A37E19340293FF
:103480000A230093019404A3D3E90023281DFEF727
:103490009AF806B070BD00BFCDD269EBC51A133BD8
:1034A000801A002073B50D46144600920023096867
:1034B00003220646FEF71CF9296823880331012BF5
:1034C00029600CD0022B13D1083401230094202250
:1034D0003046FEF70DF92B6820332B6008E00834E6
:1034E000009440223046FEF703F92B6840332B60EE
:1034F00002B070BDF0B50E460746002485B04022EC
:103500002146039403F0F0FB23460D222146009749
:103510003046FEF7EDF8039B04A90D3341F8043D56
:1035200007F108023046FFF7BDFF039DB38A073558
:10353000A3EBD5052DB21F2DA8BF1F25A2B2AA420D
:1035400004F101040CDA18323A44009200230822F4
:1035500003993046FEF7CCF8039B08330393EDE75D
:10356000F37E3B87737E7B8705B0F0BD70B50C465C
:1035700015461346096803220646FEF7E5F9216859
:103580002B880331012B216002D0022B0AD070BDA1
:1035900005F1080340223046FEF7D6F92368403390
:1035A000236070BD05F1080320223046FEF7CCF9F8
:1035B00023682033236070BD70B50C461546134652
:1035C000096802220646FEF7BFF921682B880231FE
:1035D000012B216002D0022B0AD070BD05F1080337
:1035E00040223046FEF7B0F923684033236070BDB7
:1035F00005F1080320223046FEF7A6F923682033A0
:10360000236070BD2DE9F7430446154600260DF1F1
:1036100008090F4640F273123146009603F064FB2E
:1036200049F8046D4B46314620460522FEF78CF9D9
:10363000009B0DF10808053348F8083D2A4641462D
:103640002046FFF793FF4B4600992046052201963E
:10365000FEF77AF9009B05F110020533414620463A
:103660000093FFF783FF4B46009920460622019600
:10367000FEF76AF9009B05F1200206334146204619
:103680000093FFF799FF4B460099204606220196CA
:10369000FEF75AF9009B05F13002063341462046F9
:1036A0000093FFF789FF009E40350736F60828464D
:1036B000009603F077FC1FFA80F84246A0192946CD
:1036C00003F09CFA46443E8003B0BDE8F08300005E
:1036D000014AFFF797BF00BFB80B002000000000B1
:1036E00070B5134D88B02B880446CBB105F628067B
:1036F0000DF11E013046FFF7EBFFBDF81E30E17EF5
:103700000593002304960393A37E193402930B239D
:103710000093019404A3D3E90023281DFDF753FF70
:1037200008B070BDAFF30080D5A4D139F922B6A797
:10373000801A00202DE9F0470B7E04460E4623B97F
:103740000F88082F00F2038113E04FF01809DFF80B
:103750000C82002501EB090A09FB058310229968F8
:103760005046AFB203F04CFC18B10135092DF3D12E
:10377000EDE03389794DE3B118227A43AB181B7918
:10378000013B082B15D8DFE803F0050509090D0DED
:1037900014141100AB5832691A700AE0AB58326940
:1037A0001A8006E0AB5832691A6002E03069AB5803
:1037B000186018237B431D442979684A0139082978
:1037C00000F2AF80DFE811F0090020003B0052005A
:1037D0006D008100AD00AD009800D3580121218615
:1037E0002184218221801A780023C4E902232A7BC4
:1037F0000023C4E906232A7C0023C4E90E232A7D82
:103800000023C4E90A239BE0D358012121862184A7
:103810002182218093F90020D317C4E9022395F96E
:103820000C20D317C4E9062395F91020D317C4E957
:103830000E2395F91420D317C4E90A2380E0D35846
:10384000012121862184218221801A880023C4E954
:103850000223AA890023C4E906232A8A0023C4E993
:103860000E23AA8A0023C4E90A2369E0D358012160
:103870002186218421822180B3F90020D317C4E955
:103880000223B5F90C20D317C4E90623B5F910209B
:10389000D317C4E90E23B5F91420D317C4E90A23BA
:1038A0004EE0D35801211A680023A260E360EA6861
:1038B000E361A2612A69E363A2636A6921862184C4
:1038C00021822180A262E3623AE0D35801211A6882
:1038D0002186D317C4E90223EA682184D317C4E9F7
:1038E00006232A692182D317C4E90E236A6921803D
:1038F000D317C4E90A2323E0D35802211B68218689
:10390000A360E86821842182218002F0E1F9A061AE
:10391000286902F0DDF9A063686902F0D9F9A062B4
:103920000EE00123002223862384238223800023A8
:10393000C4E90623C4E90E23094A0023C4E90A2383
:10394000A96804F14000BDE8F04703F0CDBA204675
:10395000BDE8F0476022002103F0C6B98871000875
:1039600080841E00034B002119806022024803F06E
:10397000BBB900BFD0240020B80B00202DE9F74FC1
:103980000C460B461646002103228046FDF7DCFF5D
:10399000A01C03F007FB02AB23F8020D0522032154
:1039A0004046FDF7D1FF0023BDF806205F1C9BB207
:1039B0009A424FEAC70508D9234402330822294610
:1039C0004046FDF7C1FF3B46EEE704F123073846CA
:1039D00003F0E8FAAB461FFA80FA0AF12309A14482
:1039E0004F4509D03B46594608224046FDF7ACFFFB
:1039F0000BF1080B0137F3E705EBCA05ED0835803D
:103A00000548FDF78BFD054BA4F880001B78A4F852
:103A1000823003B0BDE8F08F841A0020C805002072
:103A20000A460149FFF7AABF202500200000000038
:103A300030B5114C89B02388BBB104F6280528465F
:103A40000DF11E01FFF7ECFFBDF81E300395049346
:103A500018230293094B201D019343F6FF73009333
:103A600003A3D3E90023FDF75BFD09B030BD00BF20
:103A7000759D040C8EA454D6801A0020C805002021
:103A800008B584220021034803F02EF9024B0022DE
:103A90001A7008BD20250020C80500202DE9F3413B
:103AA0000D46A6220021064603F01EF9AB8A03222A
:103AB000B3FBF2F300242746142B88BF1423A6F887
:103AC000A030B6F8A03004F10108A4B2A34226D970
:103AD00006EBC40439460094002308222846FDF76B
:103AE00007FEA31C07F108010093052200232846C6
:103AF000FDF7FEFD231D07F10D01009306220023B3
:103B000006342846FDF7F4FD009407F11301002365
:103B100005222846FDF7ECFD18374446D1E7EB7E39
:103B2000A6F8A2306B7EA6F8A43002B0BDE8F08102
:103B300073B504460D464822002103F0D5F8002352
:103B40001946082200942846FDF7D2FD631C08227E
:103B50000093114600232846FDF7CAFDAB8A023BBD
:103B6000A4F842300023B4F84220991C5E1C9BB29A
:103B70009A424FEAC10109D9234402330093082233
:103B800000232846FDF7B4FD3346ECE7EB7EA4F8AE
:103B900044306B7EA4F8463002B070BDF8B50F8893
:103BA0001F4E00EBC7035E607B1C04460B800120A8
:103BB0000D46FFF749FA44F837002F88042004EB3C
:103BC000C7035E607B1C2B80FFF73EFA44F837008A
:103BD0002F88052004EBC7035E607B1C2B80FFF75A
:103BE00033FA44F837002F880A2004EBC7035E60DD
:103BF0007B1C2B80FFF728FA44F837002F880B2016
:103C000004EBC7035E607B1C2B80FFF71DFA29883D
:103C100044F837002046BDE8F840FFF7F7B800BF8A
:103C200080FFFFC000B50C4B9FB0039305930223A8
:103C30000A4AADF806300A4B0DF1060102A80292BD
:103C40000493FFF7ABFFBDF8061002A8FFF7DEF8FC
:103C50001FB05DF804FB00BF80FFFFC00039048087
:103C600000B46E8008B50020FEF7F2FF4FF47A70C2
:103C7000FEF76EFBFFF7D6FF4FF47A70FEF768FB96
:103C8000BDE80840FEF740BB10B5094C23880BB9CE
:103C9000002010BD201DFDF7DDFC0028F8D0FEF748
:103CA0005FFE0028F4D0201DFDF7D8FC012010BDD8
:103CB000801A002010B50B4C86B0208880B1684671
:103CC000FEF77AFF00280BD009DDFEF7F7FD02466C
:103CD0000B46201D6946FDF77FFE012000E0012014
:103CE00006B010BD801A0020F0B535488DB0FDF744
:103CF00015FC08B100205CE0FEF7E0FD0F4606462B
:103D0000FFF7B6F92F4902F037F802F0BDF92E4A55
:103D1000002392197B412D4D80185941C5E90201BC
:103D2000FEF7CCFDD5E90223994208BF904204D3A7
:103D30002348FDF7F3FB50B1DCE72148FDF7EEFB2C
:103D40000028F5D1FFF7A0FFFFF7B4FFE8E72B78D5
:103D50002E8A5B00DBB28DF818301EB943F00103E8
:103D60008DF818301A4C08AB94E8070083E8070078
:103D70002268C6F11004E4B2062C28BF0624991963
:103D80000B920DF11900224602F038FF06AB0393A7
:103D90001823013402930F4B0494012401930094DF
:103DA00005A3D3E900230648FDF7BAFB204600230C
:103DB0002B820DB0F0BD00BF401DA12026812A0B33
:103DC000841A00200050C348C0270900082500209D
:103DD000E8F7FF1F1A25002008B5FFF785FF002828
:103DE000FBD108BD2DE9F7431E4C2388002B36D0AC
:103DF000FEF764FD0F46064604F62821D1E9008946
:103E00004F4508BF464512D3174A002312EB08025C
:103E100043EB0903C1E90023FEF750FD02460B46C0
:103E2000201DFDF725FC211D6846FDF7ADFFD4F8E8
:103E3000304AA4B10D49D1E900239F4208BF964200
:103E40000DD3002512196B419F4208BF9642F9D24B
:103E5000C1E9002303B0BDE8F043FFF76DB903B03B
:103E6000BDE8F083801A002040420F00B8240020F3
:103E700010B5144C4FF424620021204602F034FFA8
:103E8000201D0021FDF743FB40F6B83040F2DC5224
:103E9000002104F62823C3E900010B4B04F6382463
:103EA00044F8083C0023C4E90023FFF769F9FFF751
:103EB000E9F8FFF7A7FAFFF755FDBDE81040FFF757
:103EC000DFBD00BF801A002040420F007FB5FFF722
:103ED000CFFF0020FEF7E0FF092324215A1CB1FB8D
:103EE000F2F56A43242ADEB204D0013B012BF5D15E
:103EF00000204EE0C3EBC303DA1CD210D0B24FF463
:103F00007A7401325443311AC9B20A4494FBF2F272
:103F1000B2F5617FC2BF03F1FF33C3F3C700311AAB
:103F200000F1FF33C8BFC9B20F2B05D84B1E072BBA
:103F30008CBF0023012300E00023421802FB05543C
:103F4000154AB2FBF4F2154CA242D1D1002BCFD0CE
:103F5000ADF80A00ADF80C100124022102A8ADF85A
:103F60000850ADF80E40FEF79DFE0028C0DB002390
:103F70000B4D01930B4BA5F1240000934FF400620D
:103F8000094B2946FDF79BFAFEF744FE204625F82B
:103F9000284C04B070BD00BF0051250240420F0004
:103FA000A81A0020F92100088154000810B5044621
:103FB000FFF78CFF38B1044804F07F01FDF7A7FA42
:103FC000FEF7A2F9012010BD841A002070B5044646
:103FD0000E461546FCF774FC2046FCF7A3FC4BF696
:103FE000FF72032363700223E370E3690020A07073
:103FF0006660A560DA804FF480625A814FF4804297
:104000009A81044A988018811A602046FCF7E0FBE8
:1040100080B270BD801A0600084A08B513880849A6
:1040200001339BB21380074A0748136801331360BA
:10403000064AFFF7CBFF002008BD00BFCA050020DD
:10404000400A0020A425002028000020300A00207B
:10405000064A07491388074801339BB21380064A72
:10406000136801331360054AFFF7B0BFCA0500208B
:10407000400A002028000020A4250020300A00204B
:10408000024A03490348FFF7A1BF00BF300A0020DE
:10409000400A002028000020024608B506490B7B94
:1040A000012B05D00120FEF753F91AB1013AF6E7CA
:1040B000002008BD012008BD2800002010B50E4CCE
:1040C0004000A0600D4822606360E160FCF7FCFDE9
:1040D00028B10B4A012013680133136010BDBDF8ED
:1040E0000830012B06D142F21070FFF7D5FF0030E7
:1040F00018BF012010BD00BF400A0020280000208A
:10410000A425002013B5064B1C780023009313460A
:104110000A4601462046FFF7D1FF02B010BD00BF9E
:104120000725002013B5064B1C7801230093134686
:104130000A4601462046FFF7C1FF02B010BD00BF8E
:1041400007250020034B3C221A7003491F22002040
:10415000FFF7E8BF072500206072000807B5074B8E
:10416000062218689B88009069460020ADF804304C
:10417000FFF7D8FF03B05DF804FB00BF7F720008B3
:10418000034B3C221A7003491A220020FFF7CABFD2
:104190000725002085720008044B188010B1012803
:1041A00002D07047FFF7CEBFFFF7EABFCC05002073
:1041B000164BF7B51B8804460D46DBB1012B21D108
:1041C000B025022710268DF80450032201A90020F3
:1041D00001358DF805708DF80660EDB2FFF7A2FF8E
:1041E000214680224020FFF79DFFB82D04F1800476
:1041F000E9D107E0FFF7B2FF2A4621464020FFF74A
:1042000081FF00E0002003B0F0BD00BFCC0500201E
:1042100010B5094C238B6BB14FF4806104F122007F
:10422000FFF7C6FF30B9638820846383A388A08327
:10423000E383208310BD00BFCC0500200D4B40223E
:10424000D88020F0020001284FF0800116BF59806D
:104250005A809A805A8808BF99805A839A88002188
:10426000DA8305484FF4806219849983198302F038
:104270003BBD00BFCC050020EE0500207F2870B5B7
:1042800033D83F2931D8194B05B2B3F91A600CB2B3
:10429000AE42B3F91E60C8BF5D83AE42C4BF134EC9
:1042A000F583B3F91C50A542BCBF104DAC83B3F9E4
:1042B0002050A542BCBF0D4D2C8401241C830B4D06
:1042C000CB0800EBC31001F00701284412F0010FE6
:1042D00004FA01F490F8221003D00C4380F8224035
:1042E00070BD21EA040480F8224070BDCC05002096
:1042F000144BB3F91A0059880028C4BF0020588312
:104300000139B3F91E0009B28842C8BF0D489A8826
:10431000C8BFC183B3F91C10013A0029BEBF0949C7
:1043200000208883B3F9201012B29142B8BF05492A
:104330000548B8BF0A8401221A8300214FF4806225
:1043400002F0D2BCCC050020EE0500200B4614493B
:1043500000B5C98803291DD8DFE801F01C020A1442
:10436000C3F17F0381B25DF804EB98B2FFF786BF1B
:10437000C3F13F01C0F17F0089B280B25DF804EB68
:10438000FFF77CBFC0F13F0189B298B25DF804EB42
:10439000FFF774BF99B280B25DF804EBFFF76EBF10
:1043A000CC0500202DE9F041141E05460E461F469F
:1043B0004FF000080FDA64421FFA88F0A04208DAD2
:1043C000281A3A46314600B2FFF7C0FF08F101084B
:1043D000F2E7BDE8F0811FFA88F0A04208DA28442D
:1043E0003A46314600B2FFF7B1FF08F10108F2E7A3
:1043F000BDE8F0812DE9F041002B06461746BDF8D7
:1044000018808CB201EB03050CDAAC4208DD21B256
:1044100043463A463046013CFFF7C4FFA4B2F4E7F6
:10442000BDE8F081AC4208DA21B243463A46304654
:104430000134FFF7B7FFA4B2F4E7BDE8F081000054
:104440000A282DE9F74F08D1264A00235189138104
:1044500093890B440833538141E01F283FD9214CF5
:104460002038B4F90830628806339342C0B206DBC4
:10447000002362892381A389134408336381B4F83C
:1044800008A006260AF106022281174A638906FB64
:104490000026A3F1060902331FFA89F94FF000083C
:1044A0001FFA83FBB4F9103016F808500BB1ED4336
:1044B000EDB24F460AEB08031BB239B201372A4668
:1044C0001846BFB20193FFF741FFBB454FEA5505C0
:1044D000019BF2D108F10108B8F1060FE2D103B057
:1044E000BDE8F08FCC050020A27200082DE9F04F46
:1044F000394B0A28596985B08D7A1A4607D10022AE
:104500001A815A8915449A8915445D8161E00B7AB4
:1045100098425ED34C7A84425BD34E680C68C01AD2
:1045200006EBC00191F9057091F804800194CB78F5
:104530008C7891F906E0D1891FFA84FA8844B2F99F
:1045400008101FFA88F839440C4451888C4206DD63
:104550000021118151890D4491890D4455811189A2
:1045600036F8309008EB01040026148135463446B5
:10457000B2F90AC00F440CEB0E020292B2B293429F
:1045800027D902994FF000080A440FFA82FB1FFA5C
:1045900088F02A18824592B217D9510701BF0199B4
:1045A00009F1010211F809401FFA82F9220607D524
:1045B00038440122594600B20393FFF7C7FE039B1C
:1045C0006400A4B208F10108E1E75544ADB2013638
:1045D000D4E705B0BDE8F08FCC050020F8B5104B4E
:1045E0005969A9B10D7A4E7ADF89421E002012F86E
:1045F000013F63B19D42FAD89E42F8D34C685B1BE1
:1046000004EBC3031B793B44184480B2EFE7F8BDC9
:1046100002F0C8FC00EB4000400080B2F8BD00BFD3
:10462000CC050020034B5B690BB1FFF75FBFFFF7C1
:1046300007BF00BFCC05002010B5441E14F8010FC1
:1046400010B1FFF7EFFFF9E710BD000010B5044609
:10465000FFF7C4FF054A5388181A022390FBF3F0B2
:1046600010812046BDE81040FFF7E6BFCC050020D2
:1046700038B50B4CFFF790FD802363804023002565
:10468000A38001232383E580FFF732FEFFF7C0FDFF
:104690000623258163816561A581E581258238BD79
:1046A000CC050020044BDA8C4FF47A735343034A51
:1046B000C2F8303A704700BF780B0020801A002003
:1046C000084B2F2232215A849A844FF47A72DA846A
:1046D000598500221921DA851A869A8519855A8604
:1046E000FFF7E0BF780B0020204B5A8C4AB1132A09
:1046F0009CBF14225A845A8C642A82BF1B4A6421AC
:104700005184DA8C312A9EBF184A4FF47A71D184D1
:1047100041F28832D98C914282BF144A4FF47A71A7
:10472000D184DA8D012A82BF104A0021D1851A8EE8
:1047300012B10E4A002111869A8DC82A82BF0B4AF7
:10474000002191855A8D642A82BF084A3221518501
:104750001A8D5B8E642A82BF044A19211185022BAF
:1047600082BF024B00225A86FFF79CBF780B0020C5
:1047700010B53C22FF21254802F0B6FAFFF792FF60
:10478000FEF704F8C0B20428204C0CD03C22FF21D4
:104790001E4802F0A9FAFFF785FFFDF7F7FFC0B248
:1047A00004280FD107E03C212046FDF7C3FFC0B22B
:1047B00004280ED0EAE73C211448FDF7BBFFC0B245
:1047C000042806D03C22FF21104802F08DFAFFF7A2
:1047D00069FF238C0B2B05D11E220D490B4802F0DB
:1047E0000FFC78B1FFF76CFF0B23094907482384BE
:1047F00002F07AFB0749084802F076FB3C210348A7
:10480000FDF7B0FFBDE81040FFF76EBF780B00204A
:104810007A82000886820008AC0B00203C21014807
:10482000FDF7A0BF780B002038B50588084C25B9E6
:10483000FFF7F4FF0123238038BD012D05D1FFF7D9
:104840003FFFFFF7EBFF258038BD0023238038BDF5
:10485000D024002008B541F28830FDF779FD0549E4
:10486000054BCA6802F4E0621343CB60BFF34F8F7D
:10487000FEE700BF00ED00E00400FA0549F6404005
:10488000FDF766BD064B002201205A609A60DA608F
:104890001A615A619A61DA611A62988418807047C5
:1048A000080A00200348002320F8023B024902F0D6
:1048B0001BBB00BF20250020500A002007B50121A6
:1048C0000420FDF7ABFB1023ADF804308DF8073062
:1048D00001A9032303488DF80630FDF7C9FA03B098
:1048E0005DF804FB000801402DE9F84305461C264D
:1048F00006FB0106264FDFF89C80DFF89C90002421
:10490000AE423FD0E0070DD4AB68BB420AD10121D3
:104910004FF40060FDF782FB0121052044F0010403
:10492000FDF77CFBA1070DD4AB68B3F1804F09D133
:1049300001210846FDF77EFB0121052044F0020419
:10494000FDF76CFB62070CD4AB68434509D101212C
:104950000220FDF76FFB0121092044F00404FDF75C
:104960005DFB23070CD4AB684B4509D10121042022
:10497000FDF760FB0121092044F00804FDF74EFB20
:104980001C35BDE701210846BDE8F843FDF73ABBF9
:10499000002C0140000400400008004037B51823F7
:1049A0008DF8073003238DF806301C2303FB01012B
:1049B000041D01F120051C34AC4210D034F81C3C1D
:1049C00001A954F8200CADF80430FDF751FA00228B
:1049D00034F81C1C54F8200CFDF79CFAEBE703B0EC
:1049E00030BD000000232DE9F04F0546064607467E
:1049F0001C464FF01C0889B0602208FB0108ADF886
:104A000010200122ADF81220ADF80420DFF85491F7
:104A10002D22DFF854A1DFF854B1ADF80A30ADF81B
:104A200006308DF80C30ADF81C30ADF81E30ADF806
:104A30001830ADF81A30ADF81430ADF81630ADF8C6
:104A4000082047452DD0E00708D4BB684B4505D169
:104A500001A9484644F00104FBF746FDA10708D42C
:104A6000B868B0F1804F04D101A944F00204FBF70B
:104A70003BFD620708D4BB68534505D101A95046E8
:104A800044F00404FBF730FD230708D4BB685B4502
:104A900005D101A9584644F00804FBF725FD1C3751
:104AA000CFE72C46444521D0238AB3F5007F03D1BC
:104AB00004A9A068FBF762FD238AB3F5806F03D1D8
:104AC00004A9A068FBF79EFD238AB3F5006F03D10C
:104AD00004A9A068FBF7DAFD238AB3F5805F03D150
:104AE00004A9A068FBF714FE1C34DBE71D4D1E4F24
:104AF000DFF878900024464531D0E0070CD4B36845
:104B0000AB4209D101212846FBF736FE0121284698
:104B100044F00104FBF73CFEA10708D4B068B0F1F3
:104B2000804F04D1012144F00204FBF725FE620707
:104B300008D4B368BB4205D10121384644F00404CF
:104B4000FBF71AFE230708D4B3684B4505D10121B2
:104B5000484644F00804FBF70FFE1C36CBE709B0CB
:104B6000BDE8F08F002C0140000400400008004028
:104B700038B504460D46FFF7B7FE29462046FFF735
:104B800031FF29462046BDE83840FFF707BF000047
:104B900002210148FFF7ECBFDC740008642B28BF3A
:104BA000642303EB83035B009BB2584359435A438E
:104BB00010B501F5FA714FF47A7400F5FA70B0FB94
:104BC000F4F0B1FBF4F302F5FA72B2FBF4F2000276
:104BD0001B0400F47F4003F47F030344D0B2184465
:104BE00010BD0000054B02210022198001215A80CE
:104BF0009980DA809A81DA819A607047180C0020D7
:104C0000224B30B503F1300410F4000F14BF1E2501
:104C1000152523F8025F9C424FEA4000F4D11C4B5B
:104C200011F4000F14BF1E20152024F8020FA34218
:104C30004FEA4101F4D1174912F4000F14BF1E20AE
:104C4000152023F8020F99424FEA4202F4D1124C88
:104C5000482215250020111889B201300831182882
:104C60000D4B24F81150F6D1183292B2F02AF1D13E
:104C70000022A3F8F021A3F8F221A3F8F421A3F86D
:104C8000F621A3F8F821A3F8FA2130BD260C002064
:104C9000860C0020B60C0020180C0020F0B5134E36
:104CA000002205460024111915F4000F89B204F101
:104CB000010414BF1E2715270831182C0B4B26F8AA
:104CC00011704FEA4505EED1183292B2F02AE8D1C0
:104CD0000022A3F8F021A3F8F221A3F8F421A3F80D
:104CE000F621A3F8F821A3F8FA21F0BD180C002052
:104CF00070B50B4E0B4CB2891C2505FB02420121FD
:104D0000D2F8740300F048FEB28905FB0243BDE807
:104D100070400122B3F87013D3F86803FBF746BD67
:104D2000180C00207C71000870B50C4E0C4CB28938
:104D30001C2505FB0242D2F8780300F047FE58B16B
:104D4000B28905FB02430022D3F86803B3F870135D
:104D5000FBF72CFD002070BD012070BD180C002059
:104D60007C71000808B5FFF783FC0020FFF766FAA6
:104D7000024B002283F8A52008BD00BF900A002046
:104D800038B5094C094B0A4863611B236381FFF75F
:104D90005DFC01230025238206483C236561638175
:104DA000FFF754FC258238BDCC050020147500089F
:104DB0008B8200089382000810B5FFF799FA054C22
:104DC000054B0648636125236381FFF73FFC002301
:104DD000636110BDCC050020147500089F82000897
:104DE00073B5124C124EA388628896F8A500013B59
:104DF000013A30B900901BB212B23621FFF7FAFA2D
:104E000011E0012500951BB212B236210020FFF7F8
:104E1000F1FA25823D23002506F1A5002581638155
:104E2000FFF70AFC258202B070BD00BFCC05002050
:104E3000900A002038B5164B9B78DB0726D415481E
:104E400002F0B0F84FF6FB73134C63802080FDF73F
:104E50001BFD04F10C056060A0600E49284602F0BD
:104E600043F820880D49284402F03EF8208809497B
:104E70000A30284402F038F8294604F1A50015222A
:104E800002F00CF9BDE83840FFF7AABF38BD00BFFB
:104E9000C0050020D2240020900A0020AB82000828
:104EA000F0B56C4D89B0AB7813F0010640F0CF80BF
:104EB000694CFFF71DFAFFF793FF06236381EB7838
:104EC000AA7803F003039B0143EA9203634F162B76
:104ED0009ABF07EB8303986A61482681FFF7ACFB12
:104EE00000236049686823811123638100F044FF37
:104EF00001F092F80DF1200E2EF8120D04AE0223EF
:104F00000096062258497046FDF7BFFA9DF810300A
:104F1000302B08D19DF811202023302A8DF8103035
:104F200008BF8DF811303046FFF786FB4F48FFF77A
:104F300083FB4E232381062363812B78C3F38203F3
:104F4000062B28D8DFE803F004090E13181D2200F1
:104F5000D7F88800FFF770FB21E0D7F88C00FFF747
:104F60006BFB1CE0D7F89000FFF766FB17E0D7F863
:104F70009400FFF761FB12E0D7F89800FFF75CFBA5
:104F80000DE0D7F89C00FFF757FB08E0D7F8A0002A
:104F9000FFF752FB03E0D7F88400FFF74DFB4E23E9
:104FA0002381334811236381FFF746FB6B782A780E
:104FB00003F00703DB0043EA52139AB2092A06D82A
:104FC00030338DF8103000238DF811300EE00A21B7
:104FD000B2FBF1F303F1300001FB132330338DF802
:104FE000113000238DF810008DF812303046FFF795
:104FF00023FB222363811F4800232381FFF71CFB2F
:1050000036231D482381FFF717FB1C485A232381B1
:10501000FFF712FB2D236381032323816B7859064D
:105020004CBF17481748FFF707FB392323816B78DC
:105030009A0654BF12481348FFF7FEFA5D232381F6
:105040006B78DB064CBF0E480E48FFF7F5FA09B047
:10505000F0BD00BFC0050020CC050020800000206E
:10506000B78200080000C842BF820008C282000860
:10507000C5820008CB820008D2820008D6820008D0
:10508000DA820008DD82000838B51D4D95F8A5309C
:10509000002B33D0FDF7F8FBAB6803F59C432033BE
:1050A000984206D9002385F8A530BDE83840FFF7BF
:1050B00097BE6B6803F5FA7398421FD96B886860D6
:1050C00005339AB22B8811B203F10A008142C2BFA4
:1050D000C3F57F43F6339B186980C8BF6B80B5F971
:1050E0000210084815220029ACBF4118011C993054
:1050F00001F0D4FFBDE83840FFF772BE38BD00BFF5
:10510000900A00209C0A0020114A10B5938C144686
:10511000BBB9FFF7B9FFE38C13B93123E38401E096
:10512000013BE384E38C93B90A4B9B78DB0704D5FE
:10513000FFF742FE064B01229A84BDE81040FFF7BC
:1051400067B8044B9B7813F0010308BF938410BD2C
:1051500058050020C005002010B503786BB94478CD
:10516000012C0AD10346064953F8022F0A605A68F7
:105170004A60FFF795FE204610BD002010BD00BF1D
:10518000C005002010B503780446FE2B10D1B0F8FE
:105190004220322A0CD8074B811C184601F02EFD04
:1051A000B4F8422000218154FFF744FE012010BDD5
:1051B000002010BDD2240020054B002201205A807F
:1051C000DA609A605A601A825A821880704700BF6B
:1051D0004C0B0020024B181D07C8FFF711BD00BF84
:1051E0004C0B002038B5114B5A88EAB95A8A1AB9C3
:1051F00040F2F3125A8201E0013A5A825D8A0B4C66
:1052000095B9238A5BB10A4B7F221B8D114610464C
:10521000FFF7C4FC2582E060A060606038BDE360F9
:10522000A36063600123238238BD00BF4C0B0020C4
:10523000780B00202A4B70B51A781E46C2F3820103
:105240000229284D284C07DD00222B8D7F21104696
:10525000FFF7A4FC60600EE002F01C02082A08BF01
:10526000FF214FF000022B8D0EBF08461146FF2094
:10527000FFF794FC6060767806F0200303F0FF01EE
:105280003BB100222B8D1146FF20FFF787FCA06069
:1052900012E006F0100303F0FF023BB10A462B8D2B
:1052A0007F211046FFF77AFCA06005E0FF212B8DDF
:1052B0000846FFF773FCA06006F0400606F0FF0208
:1052C0002B8D36B100227F211046FFF767FCE0608E
:1052D00070BD1146FF20FFF761FCE06070BD00BFAC
:1052E000C0050020780B00204C0B0020034B00224F
:1052F00001205A805A601880704700BF781A002039
:10530000014B5868FFF7CABC781A002008B9FFF7AC
:1053100061BF012801D1FFF7F3BF704770B51B4C87
:105320008CB0E089FFF7F2FFE389194D04EB4303EA
:105330005B881C26012B88BF0023A381A389154904
:1053400006FB0353D3F86C23029101924FF4F171E1
:105350001022039204914FF48072802107920892E8
:10536000069100224FF44051D3F87403059209923C
:105370000A910B9200F07AFAA28901A906FB025366
:10538000D3F8740300F0EAFA0CB070BD180C0020DA
:105390007C710008280C002038B5124C238803B318
:1053A000E38883B9FDF75CFA41F2AB72A368054666
:1053B000C31A934215D9FFF7B1FFFFF799FC0123F8
:1053C000A560E38038BDFFF7AFFC50B9E3892288C0
:1053D00001339BB2E3819A424FF0000398BFE08112
:1053E000E38038BD180C002038B5094C05462388E9
:1053F0006BB1FFF7B1FE18B1FFF71CFF012363800B
:105400002846FFF7BFFE034A53680133536038BD97
:105410004C0B0020080A0020F8B5164D2B8843B32A
:10542000154BB0F8A0605F8D0023044600EBC60664
:10543000184669686A88B44213D0B4F800E0BEF137
:10544000000F0CD1E288A18860883B46D200890019
:10545000C000FFF7A3FB012301461A461846083493
:10546000E9E700B1696003B16A80044A5368013317
:105470005360F8BD781A0020780B0020080A00203D
:105480002DE9F04399B00C468046FCF747F8237E9F
:105490000546002862D1022B40F0E580E38A012B0B
:1054A00040F0E180FDF70AFA0F460646FDF7E0FD01
:1054B0006E4900F061FC00F0E7FD6D4A002392198F
:1054C0007B418018DFF8C8915941E37EC9E90201A8
:1054D0004F4683B1284611E0664E08AB96E80700B8
:1054E00083E80700326819460B9204A82A4601F0A7
:1054F00053FB0346B0B100233B82B4E0A38A85B2DC
:10550000013B9D4200F10106E6DA691C04AB1D4433
:10551000C90089B20095002308222046FCF7E8F86C
:105520003046EBE70F2D0AD8D7E90201524A4FF077
:10553000FF3312184B413D82C7E9022393E018AABA
:1055400022F8520D0092014607222046FCF7D0F8BF
:105550009DF80E104046FBF7DAFF84E0022B20D1C5
:1055600040F23942E38A93420FD046F6B462934246
:1055700079D121464148FEF7DBFA4048FFF734FF76
:1055800021463F48FCF718FA6DE021463B48FEF7FC
:1055900085FA3A48FFF740FF21463948FCF70CFAF4
:1055A00061E0012B5FD1E38A013B0A2B5BD8DFE886
:1055B00003F0065A5A0A0E5A5A5A5A3C4B002046D1
:1055C000FDF736FE4FE02046FDF78EFE4BE020460D
:1055D000FDF7D2FE05462B4B214618802848FCF7E4
:1055E000EBF92046FDF7E8FE002D3CD0FDF766F90B
:1055F000254C002524184D412148FCF72BF870B1AB
:10560000FEF742FBFDF75AF98D4208BF8442F3D200
:1056100005E0FDF753F98D4208BF844203D3FDF73F
:1056200093F90028F5D0FFF715F9214608A8FDF7F2
:10563000EFFE08A8FFF7F8F821461148FCF7BCF97F
:105640002046FDF709FF0EE0214608A8FDF752FFAE
:1056500008A90E48FEF76EF809482146FCF7ACF998
:105660002046FEF73DF819B0BDE8F0830050C3486E
:10567000C0270900E8F7FF1F40D8F6FFA822002046
:10568000841A0020F009002020A10700B80B002098
:105690000825002070B50C4606468AB00B49204606
:1056A00001F022FC7EB90A4902AD204601F094FBCC
:1056B00008490948009533460C22FCF7E6FE2946C6
:1056C000204601F089FB0AB070BD00BFB682000819
:1056D000E2820008E58200080C0A00201B4B10B58E
:1056E0001B88002B31D01A4B5B8E73B3194B9A8CED
:1056F0001AB940F2F3129A8401E0013A9A849C8C20
:105700001CBBFFF7CFF8144B1449B3F8A4200132A7
:1057100092B2132A94BFA3F8A420A3F8A440B3F82C
:10572000A400FFF7B7FF0D4801F03CFC80B260B168
:105730000B4B184490F823300A2B04BF002380F849
:105740002330BDE81040FEF773B910BD801A002069
:10575000780B0020080A002080000020432500204C
:105760001F2500202DE9F843FFF788F84620FCF7B5
:10577000F6FDFEF785FCFCF74FFFFFF79FF8FDF7FE
:10578000BFF862B6334CFEF7F3FFFDF74DFCFFF7B1
:10579000FFF9FFF727FAE08DFFF7E4FA94F822000B
:1057A000FEF704FC58B92C49CB686420DB4303F0B6
:1057B000100343F480130B61FCF7D1FDF4E7FEF70F
:1057C00071FFFFF7F9FCFFF791FD244BA28C244DEC
:1057D0001A80FEF701FBFEF745FA0023EB80214B10
:1057E0001B880BB90323AB801F4EFFF7C9FAB046E5
:1057F000FFF748F8184F0024FEF75CFA0028FBD1A9
:10580000FEF742FA81460028FAD1FEF7EBFAFFF7DD
:10581000C3FDF38B9BB2002BEED0A8F81E90FDF7D2
:105820000DF834B9AB8840F2F314002B18BF3124C3
:1058300009E0013CA4B234B9FB68DB4303F0100378
:1058400043F480133B61FFF7CDFCFFF75DFCFFF7EE
:1058500045FFD1E7780B0020000801400825002013
:10586000F40900204C0B0020580500204FF6FE7371
:105870000268134003600023036043608360C360D9
:10588000284B984201D1284A27E0284B984201D161
:10589000254A2AE0264B984201D1234A2DE0254B88
:1058A000984201D1204A30E0234B984201D11E4A50
:1058B00033E0224B984204D11B4A536843F47003EF
:1058C0002EE01F4B984204D1174A536843F070638F
:1058D00026E01C4B984204D11B4A536843F00F0347
:1058E0001EE01A4B984204D1174A536843F0F00364
:1058F00016E0174B984204D1134A536843F470637F
:105900000EE0144B984204D10F4A536843F470439D
:1059100006E0114B984204D10B4A536843F47023BC
:105920005360704708000240000002401C00024023
:105930003000024044000240580002406C00024027
:105940008000024008040240000402401C0402409F
:105950003004024044040240580402400A6A10B570
:105960008C68036814430A6923F4FF4314434A69AB
:1059700023F0700314438A691443CA6914434A6AC2
:1059800014438A6A224313430360CB6843600B6865
:1059900083604B68C36010BD19B1036843F0010315
:1059A00003E04FF6FE730268134003607047000087
:1059B000C3004CBF034B044B1B68034214BF0120C0
:1059C000002070470004024000000240FFF7F0BFD3
:1059D0004FF4A06000F000B840F0BF60024B40F40C
:1059E0000030D860704700BF00ED00E0C27810B50D
:1059F00003780AB3164A03F16043D1684278C94379
:105A0000C1F30221C1F1040402FA04F40F22CA40D6
:105A1000817803F561430A4022431201D2B283F830
:105A2000002303780122590903F01F0302FA03F34C
:105A3000084A42F8213010BD5A09012103F01F0322
:105A400001FA03F30349203241F8223010BD00BFB0
:105A500000ED00E000E100E070B586B00446868805
:105A600001A80D46FCF78CFA039A2E4826F03F0653
:105A7000B2FBF0F03604360C81B20E43A6802388C8
:105A8000294E23F001031B041B0C23802B68B34217
:105A90000AD85B00B2FBF3F301319BB2032B89B24E
:105AA00098BF0423218423E04BF6FF71EE888E42D9
:105AB0001BBF19214B4303EB4303B2FBF3F30BBFB3
:105AC000B2FBF3F39BB29BB243F48043C3F30B02EC
:105AD0000AB943F001034FF4967101FB00F24FF451
