:020000040800F2
:10000000482C0020E13D0008DD3D0008DD3D0008F2
:10001000DD3D0008DD3D0008DD3D0008000000007A
:10002000000000000000000000000000DD3D0008AE
:10003000DD3D000800000000DD3D00080516000859
:10004000DD3D0008DD3D0008DD3D0008DD3D000828
:10005000DD3D0008DD3D0008DD3D0008DD3D000818
:10006000DD3D0008DD3D0008DD3D0008DD3D000808
:10007000DD3D0008DD3D0008DD3D0008DD3D0008F8
:10008000DD3D0008DD3D0008DD3D0008DD3D0008E8
:100090004D1A0008E91A0008DD3D0008DD3D0008A2
:1000A000DD3D0008DD3D0008DD3D0008DD3D0008C8
:1000B000DD3D0008DD3D0008DD3D0008DD3D0008B8
:1000C000DD3D0008DD3D0008DD3D0008DD3D0008A8
:1000D000DD3D0008DD3D0008DD3D0008DD3D000898
:1000E000DD3D0008DD3D0008DD3D000800000000AA
:1000F0000000000000000000000000000000000000
:1001000000000000000000005FF808F1224A0388A8
:1001100090429BB212D002F5006290420ED0B0F134
:10012000804F0BD0A2F59832904207D002F5806242
:10013000904203D002F58062904203D14A8823F0B6
:1001400070031343154A904208D002F58062904232
:100150001FBF23F44073CA889BB2134303808B886C
:1001600083850B8803850C4B98420FD003F5006301
:1001700098420BD003F54063984207D003F58063A3
:10018000984203D003F58063984201D10B7A03862D
:1001900001238382704700BF002C01400010004003
:1001A000038C70B523F001031B041B0C0384028C29
:1001B0008688038B0D8823F073031B041B0C1D43DF
:1001C00022F002020C894B881204120C23431343C1
:1001D000144AB6B290429BB20FD002F50062904230
:1001E0000BD002F54062904207D002F58062904247
:1001F00003D002F5806290420ED14C8923F00803AF
:100200001C438B8824F0040426F4407223438E8917
:10021000CC893443224396B2CA888680058382867D
:10022000038470BD002C0140038C30B523F0100313
:100230001B041B0C0384038C8588028B0C8822F41E
:10024000E6421204120C42EA042223F0200394B284
:100250001B040A891B0C43EA02134A88ADB243EA25
:100260000213124A9BB2904203D002F50062904200
:1002700015D123F080034A899BB243EA02124FF65C
:10028000BF7313408A8825F4406543EA02138A89C4
:100290009BB245EA8205CA8945EA8205ADB2CA88A1
:1002A000858004830287038430BD00BF002C014099
:1002B000038C30B523F480731B041B0C0384038C64
:1002C0008488828B0D8822F073021204120C23F4AE
:1002D000007315431B040A891B0C43EA02234A8856
:1002E000A4B243EA0223124A9BB2904203D002F521
:1002F0000062904215D123F400634A899BB243EA1D
:1003000002224FF6FF3313408A8824F4405443EA14
:1003100002238A899BB244EA0214CA8944EA02147D
:10032000A4B2CA88848085838287038430BD00BFDD
:10033000002C0140038C30B523F480531B041B0CAC
:100340000384038C8488828B0D8822F4E642120495
:10035000120C23F4005342EA05221B040D891B0CE6
:1003600043EA05334D88A4B243EA05330A4D92B2FD
:10037000A8429BB203D005F50065A84205D18D893E
:1003800024F4804444EA8514A4B284808283CA8819
:10039000A0F84020038430BD002C0140038819B12F
:1003A0009BB243F0010303E023F001031B041B0C89
:1003B00003807047B0F8443029B16FEA43436FEAD5
:1003C00053439BB201E0C3F30E03A0F844307047DF
:1003D00083899BB20AB1194301E023EA01018181BB
:1003E00070470000384B82B01A6842F001021A6070
:1003F0005968364A0A405A601A6822F0847222F418
:1004000080321A601A6822F480221A605A6822F434
:10041000FE025A604FF41F029A600022009201927D
:100420001A6842F480321A601A6802F400320192AB
:10043000009A01320092019A1AB9009AB2F5A06F9F
:10044000F2D11A6812F4003218BF01220192019A07
:10045000012A05D01E4B4FF000629A6002B070472F
:100460001C4A116841F010011160116821F003016C
:100470001160116841F0020111605A685A605A68AF
:100480005A605A6842F480625A605A6822F47C12B8
:100490005A605A6842F4E8125A601A6842F0807250
:1004A0001A601968084A8901FBD5516821F00301D7
:1004B0005160516841F0020151605A6802F00C022B
:1004C000082AFAD1C6E700BF001002400000FFF87A
:1004D00000ED00E0002002402DE9F047089D01F00A
:1004E00007044FEAD508224405F007054FF47F4979
:1004F00000EBD100944227D005F0070604F0070A6C
:10050000B245D44638BFB446CCF10801C4EB020C66
:100510008C4528BF8C46E708C75D29FA0CFE08EB1E
:10052000D50107FA0AF75FFA8EFE4EFA06FE47FA81
:1005300006F65F5C06EA0E0627EA0E0E46EA0E068F
:100540005E5464446544D5E7BDE8F0870246006820
:1005500048B1036811891360D38801339BB2994273
:10056000D38038BF1381704770B504460D4688B0FC
:1005700020220021684604F091FF20460495FFF7F1
:10058000E5FF054658B16B46044608AE1A4603CA55
:10059000B24220606160134604F10804F6D1284697
:1005A00008B070BD2DE9F0410568DDB18E68A84640
:1005B00026F06047BB0C4FEAD67EC6F3807C2A4605
:1005C00037EA260628BF1E469368BEEBD37F23F08A
:1005D00060440ED0002B08DAA40CB44207D1954237
:1005E00013D10D600160BDE8F081B44212D0A64283
:1005F00006E0A74203D1C3F380739C4503D1A74211
:100600002CBF002301232BB1E9E7C8F800100A60D2
:10061000BDE8F0811368904613B91160BDE8F08120
:100620001A46D1E7F8B506460F464FF6FF74002587
:100630002A463046394603F073FEC0B284EA0024ED
:10064000082314F4004F4FEA4404A4B21CBF84F4FE
:10065000815484F00104013BF3D10835402DE7D1EA
:100660002046F8BD10B54B6843B1C4681A681C60D9
:10067000C360438A013B43824A60F4E70A8B00204F
:1006800063F309020A83002110BD0A44914211D08C
:1006900011F8013B80EA0320082310F4004F4FEAD1
:1006A000400080B21CBF80F4815080F00100013B0B
:1006B000F3D1EBE770472DE9F04F85B081468DE827
:1006C0000A00BDF83C409346002A7DD024B10E9B21
:1006D000002B79D0072C27D809F10C00FFF736FF43
:1006E000054610B96FF0020070E02022002104F0EE
:1006F000D5FE22460E9905F1100004F059FE631C48
:100700002B769BF800302C4403F01F0363F03F036B
:100710002374009B09F11C0043F00043AB602946A1
:10072000FFF740FF012051E04FF0000846464546E4
:10073000019B4FF0800A1B0A029300F10C03039304
:100740000398FFF703FF07460028CBD020220021A3
:1007500004F0A4FE3EB99DF8043002223B749DF8DB
:1007600008307B740BE0002209E00E9BB9180132BF
:10077000985DD2B20136072A0874B6B201D0B442ED
:10078000F3D8A64208BF4FF0400A9BF80010B818F3
:1007900001F01F0141EA481141EA0A030374009B7A
:1007A000013243F00043BB603A76394609F11C0040
:1007B000FFF7F8FEA64205F1010588F001084FF0A9
:1007C000000ABDD1284601E06FF0010005B0BDE888
:1007D000F08F2DE9F04717460A8B9946C2F30902BC
:1007E000C2F10603002B0646884618DD00201FFADA
:1007F00089F185B253199BB2052B09D9A9420FD8AB
:10080000B8F818300A4462F30903A8F818306BE00E
:10081000A942F3D93C5C43449C760130E9E70025CA
:10082000911F1C23B1FBF3FA03FB1A1AD8F80440FA
:100830005FFA8AF10CB1012329E03046FFF786FE0A
:10084000044608B100230360C8F80440CCB96FF037
:100850000200BDE8F0874A44063A1C20B2FBF0F2E1
:100860000132D2B293420DD2BAF1000F0AD1304612
:10087000FFF76CFE08B1C0F800A020600028E6D0A9
:10088000044600211FFA89F94FF0000A11E02068A0
:100890000028E0D00133DBB20446F8E7A3180132A8
:1008A000785D92B201351C2A1871ADB205D0A94508
:1008B000F4D84D450FD28AB2F0E7A945F9D93046B0
:1008C000FFF744FE08B1C0F800A020600028BED0A9
:1008D00004460021EDE7B8F81820C2F30903994453
:1008E00069F30902A8F818200120BDE8F087F8B5DF
:1008F000044616460D46242200211F4604F0CEFD74
:10090000069B72096360079B002023624FF6FF730A
:100910009A4228BF1A4629460346A760207097B21C
:1009200004F10C06934204D0316001330E462031AD
:10093000F8E70023336027826382A382F8BD03783F
:100940001BB94BB2002BC8BF0170704700787047CD
:100950002DE9F7430D9F8046BDF828400B9E9DF87A
:100960003090BDF838500FB9002D3FD1B9F11F0FAD
:100970003CD898F80010A9B9072D34D834F00303F7
:1009800034D12A4639464FF6FF70FFF77EFE47F610
:10099000FE73240204F4407444EA0964034044EA08
:1009A00043240FE041EA0421072D41EA096409D9F3
:1009B00019461046FFF736FE2A463946FFF765FE10
:1009C000034601E04FF6FF7301950097324621463A
:1009D0004046FFF770FE33780133DBB21F2B88BF30
:1009E0000023337004E06FF0030001E06FF00100BA
:1009F00003B0BDE8F0832DE9F7430E9F81460C4616
:100A0000104619460B9D9DF830209DF83480BDF8A6
:100A10003C6007B976BB1F2A2CD899F8003063B325
:100A200043F0800343EA04239DF8284043EAC83397
:100A300043EA0443072E43EA026407D9FFF7F2FDB5
:100A400032463946FFF721FE034601E04FF6FF73B9
:100A5000019600972A4621464846FFF72CFEB8F13A
:100A6000010F0CD12B780133DBB21F2B88BF002381
:100A70002B7004E06FF0010001E06FF0030003B0A1
:100A8000BDE8F083C06900B108307047C3691A68D7
:100A9000C261C2681A60C360438A013B43827047E7
:100AA0002DE9F047D0F818A0054616461F465446D3
:100AB000DFF868804FF00009002C2CD0D4E9022325
:100AC000B21A67EB0303994508BF904520D2AB6982
:100AD00021469C4228460DD1FFF7C4FDAB691B6837
:100AE000AB61EB6823606B8AEC60AC69013B6B82A5
:100AF000A246E1E7FFF7B6FD2368CAF80030EB68CD
:100B000023606B8AEC60013B6B82DAF80040D3E72C
:100B1000A2462468D0E7BDE8F08700BF80841E00AD
:100B20002DE9F04F8BB00E4614460793149F824672
:100B3000002800F0FF80002F00F0FC80531E3F2BA8
:100B400000F2F880012A03D1079B002B40F0F280CD
:100B5000BAF814500023ED00AE420893099301D374
:100B6000002505E133199D42DAF80C303ABFAD1B80
:100B7000EDB225461BB9DAF81030002B61D02F2ECC
:100B800015D8C6F13008A84528BFA8460023009311
:100B90005FFA88FB4246314608ABDAF80800464463
:100BA000CBEB0508FFF798FC5FFA88F802E0A8464F
:100BB0004FF0000BBAF81430302103F10053063B1C
:100BC000DB000493DAF80C300393039B6BB3B8F1AA
:100BD000000F2AD0049BE02B28BFE02306930B4490
:100BE000B342059318D9C6EB0309C84538BFC146BF
:100BF000039828BF5FFA89F9CDF800B0711A08ABE5
:100C00004A460430FFF768FCCB44C9EB08084E4461
:100C10005FFA8BFB5FFA88F8049B069A05999B1A8A
:100C20000493039B1B680393CFE7DAF8100080B1AD
:100C3000B8F1000F0DD0CDF800B008AB4246711AE4
:100C400005E02A4631460093DAF8080008ABFFF7C2
:100C500043FC002D84D066070BD00AAB03EBD40114
:100C600011F8082C634203F0070342FA03F301F87A
:100C7000083C082C06D9102C06D9202C8CBF082340
:100C8000042302E0012300E00223079A002A57D040
:100C9000B4EBC30F56D0082C0ED89DF92020631E4C
:100CA00022FA03F3D80760D54FF0FF3303FA04F4B8
:100CB00014438DF8204058E0102C0ED8BDF92020A8
:100CC000631E22FA03F3D90743D54FF0FF3303FA2B
:100CD00004F41443ADF820403BE0202C0CD8089BD2
:100CE000621E23FA02F2D20737D54FF0FF3202FA22
:100CF00004F42343089330E0402C1ED0DDE908893A
:100D0000621E4046494603F00BFB002100F0010043
:100D100050EA010324D022460120002103F00CFBFD
:100D2000404261EB410140EA080041EA0901CDE996
:100D3000080115E06FF001051AE06FF0080517E0F3
:100D4000012C12D0082C10D9102C02D9202C07D835
:100D500003E0BDF820303B800AE0089B3B6007E0E1
:100D6000DDE90823C7E9002302E09DF820303B704D
:100D700028460BB0BDE8F08F30B5402A85B018D8B2
:100D8000002A08BF01220024012A0294039401D002
:100D9000082A03D81B788DF808300FE0102A03D8F2
:100DA0001B88ADF8083009E0202A03D81B6802939D
:100DB00004E04022D3E90045CDE9024553070BD0BA
:100DC00004AB03EBD20515F8084C534203F00703BC
:100DD00004FA03F305F8083C00910346002102A839
:100DE000FFF77AFB05B030BD10B5CB6843B1C468DE
:100DF0001A681C60C360438A013B4382CA60F4E7FF
:100E00008B600B618B8210BD2DE9F04FD1F800A0F3
:100E10008FB0CDE90223CAF3C01204460D4622B1B9
:100E2000CAF3C03BCAF3062802E090464FF0020B1B
:100E3000BAF1000F80F2BB812B6813F0C04F40F075
:100E4000B6812B7C002B00F0B281BBF1020F03D0E6
:100E50002178414540F0AB810AF07F01C8B205908E
:100E600012B1CAF3074904E0CAF30F2909B909F01E
:100E700003092B444FEA4868059ADE7948EA0B4893
:100E800048EA8248F30948EA090804932BD0002273
:100E900000230EA961E90823059B676800934A4671
:100EA0005B462046B847002800F08181A7694FB90A
:100EB000414604F10C00FFF757FB074688B976E17D
:100EC0003F681FB13B699845FAD115E0414604F1EE
:100ED0000C00FFF749FB0746002800F06881A36972
:100EE0003B60A76108E0A769002F00F060813B69C3
:100EF000984506D03F68F7E7DDE90601FFF792FB6A
:100F0000F88297F819E006F01F08CEF3840EB8EBCC
:100F10000E0ED7E9022348BF0EF1200E52EA03015C
:100F2000CAF3046A00F02E81DDE90201801A61EB48
:100F300003010B46024600219E48994208BF904299
:100F4000C0F02081049B5BB3BEF1010F00F31A8156
:100F5000730625D5DDE902230021C7E9022306A88F
:100F6000202204F09BFADDE90223CDE9062305F1F6
:100F7000080308932B7CADF82E90013BDBB2ADF853
:100F80002C309DF814308DF830B08DF833308DF85A
:100F900031808DF832A0A36806A920469847DEE08C
:100FA0007B7EC6F34012B2EBD31F40F00081C3F347
:100FB0008403434540F0FB80049A2B7CB609002A49
:100FC00033D016F001065ED1032B40F2F080DDE94C
:100FD0000223C7E902232B7C05F10A08033BDBB29D
:100FE0004246394604F10C00FFF7F3FB002812DA01
:100FF00039462046FFF736FB7B7EC3F3840201327D
:1010000062F386037B763B8B66F309033B831B0A03
:1010100066F3C713B4E06A7A2B7A414643EA0223A7
:10102000BB822A7C033AD2B223E066BB05F10806F4
:10103000013BDBB23246394604F10C00FFF7C9FB35
:10104000002812DA39462046FFF70CFB7B7EC3F3FB
:101050008402013262F386037B76049A3B8B62F34F
:1010600009033B83049A1B0A88E031462A7C013A33
:10107000D2B2F88AFFF709FB7B7EF882C3F3C01275
:1010800082F001027AE0388B013BC0F309000528A9
:10109000DBB212D8EE1D0021CAB2934228D9013129
:1010A00000EB010E16F801CF07EB0E02BEF1060FA2
:1010B00082F819C0CAB2EFD11AE07E68BEB106222A
:1010C000316811B11C320E46FAE7801A05F1070C9F
:1010D00000EB010EBEF11B0FCAB209D89A4207D22B
:1010E0001CF8012FB6448EF804200131F0E7324697
:1010F000DDE902019A42CDE9060107F11A010891E2
:1011000038BF0832796834BF5219002209910A9217
:101110003A8BADF82E90C2F309021344ADF82C308F
:101120009DF814308DF830B08DF8333000238DF8F1
:1011300031808DF832A07B602A7CF88A013A05F173
:101140000801FFF7A2FABB8AF882834203D1A368A1
:1011500006A92046984706A92046FFF745FE7B7E54
:10116000C3F38402013262F386037B763B8B6FF319
:1011700009033B831B0A6FF3C71301E062F3C71334
:101180007B7614E07B7E394666F386036FF3C713E4
:101190007B762046FFF766FA049B002B7FF4D8AEDF
:1011A0007B7EC3F38402013262F38603E8E70FB06B
:1011B000BDE8F08F80841E00034651F8100F8A8826
:1011C00018609A8018467047410746BFC30843F02D
:1011D0000043430D820748BF43F0804318467047E1
:1011E000094B9A6912F0700F0DD000229A61074ADC
:1011F000516801315160127F12B99B695B0702D5BA
:10120000034A014B9A60704700640040E8040020E4
:10121000808080000000000070B50C4615461E4618
:10122000FFF794FB50B9022E0AD1012D08D128A353
:10123000D3E900232846C4E9002303E0002001E0AD
:101240004FF6FF7000B201283FD001303CD0022E93
:101250000AD146F6B4639D4236D11FA3D3E90023D9
:101260000120C4E9002370BD012E2DD1013D0A2DBE
:101270002AD8DFE805F00629290D14292929291B78
:10128000220017A3D3E900230120C4E9002370BD85
:1012900015A3D3E900230120C4E9002370BD14A3E2
:1012A000D3E900230120C4E9002370BD12A3D3E9D0
:1012B00000230120C4E9002370BD11A3D3E900235A
:1012C0000120C4E9002370BD002070BDAFF3008091
:1012D000401DA12026812A0B6FC971D4B02CBC6996
:1012E0009E6AC421818A46EE042B31ECA7766FBE3C
:1012F000F017304A39059E56CDD269EBC51A133B1B
:10130000D5A4D139F922B6A710B50E4C3823E36025
:1013100020462361022102F08FFD2046102102F0B9
:101320008BFD094A00231380084A204613800221BE
:10133000012202F079FD2046BDE810400122102173
:1013400002F072BD00640040D8050020DA050020DC
:1013500000EB8000430018460138FDD87047402854
:1013600008B5024609D8BDE80840C0EB401002EBC2
:101370008000C00080B2FFF7EBBF4FF47A70FFF738
:10138000E7FF013A92B2002AF7D108BD38B504460A
:1013900004F0E2F980B20246002330B1013880B295
:1013A000215C2E2908BF0346F7E713B9013A202034
:1013B00010E0013B202182B29A4205DAA55C01309F
:1013C000302D0AD1A154F6E738BD655C0133302DCC
:1013D00003D1605499B29142F7DB38BD0309092B60
:1013E00000F00F0094BF3033373309280B7094BFDF
:1013F00030303730002348708B70704713B50A4681
:10140000044601A9C0B2FFF7E9FF200A1146FFF721
:10141000E5FF9DF8043093709DF80530D3709DF87A
:101420000630137102B010BD13B50A46044601A977
:10143000C0B2FFF7D3FF9DF8043001A993719DF866
:101440000530C4F30720D371FFF7C8FF9DF80430BF
:1014500001A913719DF80530C4F307405371FFF7DC
:10146000BDFF9DF8043001A993709DF80530200E52
:10147000D370FFF7B3FF9DF8043013709DF805306B
:1014800053700023137202B010BDF8B50D46069CD0
:10149000002121702978752931D16E78632E01D110
:1014A000017807E0692E01D1018803E06C2E40F03D
:1014B000A7800168AF78682F17D1632E05D1214628
:1014C000BDE8F8400078FFF789BF692E05D12146B5
:1014D000BDE8F8400088FFF791BF6C2E33D121465C
:1014E000BDE8F8400068FFF79FBF2B2F2BD111B14B
:1014F0002770012628E020202070012624E073298F
:101500007ED16978632902D190F9001007E069293A
:1015100002D1B0F9001002E06C2971D10168A878FD
:101520002B280AD1002903DA2D202070012608E09B
:1015300008BF20202070012606E000294FF0000699
:1015400002DA494200E00026174618464FF0300EF6
:10155000002806DA013FBFB2013004F807E000B20C
:10156000F6E703EAE373134418BF01309BB218BFD8
:1015700000B20A274FF02E0C9E4210D2013B9BB2C4
:10158000C3EB020E86451FBFB1FBF7FE07FB1E1122
:101590003031E1540CBF04F803C07146ECE700237E
:1015A000A3547A21284604F011F848B3AB782B2BCA
:1015B0000FD1601CFFF7EAFE204604F0CDF80123AE
:1015C000834205D2E25C202A0BD101339BB2F7E7BC
:1015D000F8BD2046FFF7DAFE204604F0BDF80123EF
:1015E0000BE02278234403F8012C20232370F8BD5C
:1015F000E25C202AF5D101339BB28342F8D3F8BDD7
:10160000F8BD0000034B0122DA831A6A01321A6224
:10161000704700BFE80400200B4B0021D9831962FA
:101620000A4B0B4A1B68F020B3FBF2F34FF47A72BB
:101630005343084A013B5360074B83F823000723B9
:1016400091601360704700BFE80400200000002094
:1016500040420F0010E000E000ED00E02DE9F84FFF
:10166000254B264D01281CBFAA461D468946144617
:101670002349244A06BF9A468846904602F0D2FC87
:10168000284602F047FD0428074630D14FF6FF7B7D
:10169000B9F1000F08BF4FF47A74013405F1100658
:1016A00024F001043444C5EB0A0AA64217D0B9F16C
:1016B000000F03D13AF8061089B203E0731B4B44C4
:1016C00033F8101C594501D10236EEE7B0450DD96B
:1016D000304602F0D9FC04280746F5D007E04FF069
:1016E0001131284602F0ECFC074600E0802702F0AA
:1016F000A3FC3846BDE8F88F00E0010800E40108CB
:10170000FFE70108FFE3010810B502F08BFC074872
:1017100002F000FD0428044603D1054802F0FAFC5B
:10172000044602F089FC204610BD00BF00E001081D
:1017300000E401080131C1F34F0100239AB2914244
:101740000AD9B3F5FC7F09D0054A1A445200128821
:1017500020F813200133F1E7042070478020704700
:1017600008F0000438B50A4604460D46014600203C
:10177000FFF774FFC0B2042801D080B238BD2A46FA
:1017800021460120FFF76AFFC0B238BD38B5164BBD
:101790001D68D3F80044B5F1113F07D1B4F1113FF2
:1017A00001D104201DE0621C0ED104E06B1C0BD1A2
:1017B000B4F1113F08D1002211460120FFF74EFF7E
:1017C000C0B204280DD1ECE7FFF79EFFC0B2042899
:1017D00007D1013504D1013414BF4020202000E09E
:1017E000402080B238BD00BF00E001081FB50121D4
:1017F000022002F0FFFB0023ADF80A30ADF80630FE
:101800004FF6FF73ADF80830094B0A4A1B680A4CC3
:10181000B3FBF2F304A9013B21F80C3D2046FEF78F
:1018200075FC01212046FEF7B9FD04B010BD00BFD4
:101830000000002040420F000004004072B6064B3A
:101840009B8C9BB262B6054A91889380994282BF75
:101850001168013111607047000400404806002003
:1018600072B6074B9B8C9BB262B6064A9188106891
:10187000994284BF01301060938003EB00407047B1
:10188000000400404806002030B472B60D4B988C1E
:1018900080B262B60C490B8AD1E90245834204D971
:1018A000013445F10005C1E902452B04220443EA55
:1018B0001443141843F1000508822046294630BC21
:1018C000704700BF000400404806002008B5012012
:1018D000FFF78CFF064B00219A8C064B92B21960E1
:1018E000002000219A80C3E902011A8208BD00BFCE
:1018F000000400404806002070B504460646044D2A
:101900000FCD0FC495E8070084E80700304670BD8E
:10191000E8040020044B986800F0E05000F16443B4
:1019200058425841704700BF006400402DE9F34120
:10193000054600287DD0046814F000547CD1FFF7E0
:101940004FFC3F4B9A6802F0E052B2F1E05F51D099
:101950009A682646C2F380628DF804209A689B68D4
:10196000C2F3C062C3F300738DF805208DF8063012
:10197000FF2401ABF35C0BB1F4B234E0330103F1AB
:10198000804303F5CB431868FFF71EFC2F684FEA2E
:10199000D07C4FEAD778E04527F0604320F06042E2
:1019A00007F0004E00F0004110D0BEF1000F00D053
:1019B0009B0C19B1900C984215D002E09A4217D0B6
:1019C000104683422CBF002001200BE0934205D13A
:1019D000C0F38070C7F38077874203D193422CBF56
:1019E0000020012020B10136032EC2D1FF2C01D1ED
:1019F000002022E023012A7C03F1804303F5CB433E
:101A00005A60EA682968DA60AA6800299A60BABF51
:101A1000CA0042F004024A05490048BF42F00202EF
:101A200042F001021A60074A0120536901335361F1
:101A300003E06FF0010000E0034802B0BDE8F08170
:101A400000640040E804002015FCFFFF2DE9F04190
:101A5000204F214A3D881388013505F07F059BB250
:101A60009D4290461D4C1CD01D4EF368DB0642BFC4
:101A7000236801332360D6F8B001FFF7A5FB1823D4
:101A80006B431849C850CA18D6F8B43103F00F0395
:101A90001374D6F8B8319360D6F8BC31D3603D806A
:101AA00002E0A3680133A3603B889AB2B8F8003023
:101AB0009BB2D31A228A48BF80339342C4BF074ADD
:101AC0001382A36938220133A361054BDA60BDE8B4
:101AD000F08100BFDA050020D8050020E8040020CE
:101AE00000640040600F00202DE9F041204F214AA2
:101AF0003D881388013505F07F059BB29D429046D5
:101B00001D4C1CD01D4E3369DB0642BF23680133D8
:101B10002360D6F8C001FFF757FB18236B43184921
:101B2000C850CA18D6F8C43103F00F031374D6F89E
:101B3000C8319360D6F8CC31D3603D8002E0E368D1
:101B40000133E3603B889AB2B8F800309BB2D31AF5
:101B5000228A48BF80339342C4BF074A1382A369D5
:101B600038220133A361054B1A61BDE8F08100BF43
:101B7000DA050020D8050020E804002000640040B9
:101B8000600F0020F8B500B3FFF72AFB114D124B90
:101B90001A882B8892B29BB29A4219D02A880F4C8D
:101BA0000132182302F07F0203FB0244034604F1D2
:101BB0001807264603CEBE4218605960344603F12A
:101BC0000803F6D12A800120F8BD6FF00100F8BDAE
:101BD0000020F8BDD8050020DA050020600F0020A5
:101BE00037B514230024012501A88DF804308DF8A1
:101BF00005408DF806408DF8075002F05BFB152379
:101C000001A88DF804308DF805408DF806408DF858
:101C1000075002F04FFB03B030BD0000012810B5A3
:101C200003D1BDE81040FFF76FBB0E4C002202212C
:101C3000204602F0F9F800221021204602F0F4F8C4
:101C40000221204602F0F8F81021204602F0F4F8B4
:101C50003823054AE360236100231380034A13807D
:101C600010BD00BF00640040D8050020DA05002048
:101C7000032970B504460D463ED800283CD00388A1
:101C8000013B9BB2B3F5806F36D2C388013B9BB258
:101C9000032B31D84388013B9BB20F2B2CD8838870
:101CA000013B9BB2072B27D8474E1C223046002110
:101CB00003F0F4FBAA1E534253413377434B0022F7
:101CC0005A611A684FF47A7622F002021A601A6892
:101CD00042F001021A601A4653683C49DB070ED4F1
:101CE0004FF47A70FFF734FB013EF5D14FF4004317
:101CF0000B606FF47A7070BD6FF0010070BD6123EE
:101D00000B60E2886388013A013B12061B0403F46E
:101D1000702302F040721A432388012D03F1FF3330
:101D2000C3F3090342EA0302A3884FF47A7403F170
:101D3000FF334FEA035303F4E00343EA02030CBF0B
:101D40004FF000420022032D43EA02030CBF4FF084
:101D5000804200221343CB610B6823F001030B6028
:101D600048681A4A10F001000AD04FF47A70FFF761
:101D7000EFFA013CF4D14FF400431360144870BDF6
:101D8000D2F8003223F47C5323F00E0343F4606353
:101D900043F00103C2F800326FF07043C2F804024E
:101DA000C2F80C320B4BC2F814320123C2F84002C5
:101DB000C2F84402C2F81C32D2F8003223F0010308
:101DC000C2F8003270BD00BFE8040020006400408B
:101DD00016FCFFFFAAAAAA0AF0B500283DD00E29DA
:101DE0003BD806461E4F0022C7F81C224FF0010EBA
:101DF00093B299422FD950F83250002D02DB73680C
:101E0000002B05DB7368EC00DB0044F0040401E008
:101E10006C055B056D00756848BF44F00204002D39
:101E2000B8BF43F004036D004FEAC20505F18045D9
:101E300048BF43F0020305F5C845C5F84042C5F860
:101E40004432D7F81C320EFA02F42343C7F81C328E
:101E500001320836CCE70020F0BD6FF00100F0BD84
:101E60000064004013B5044601214FF0007002F0F9
:101E7000C1F801211CB1092002F0B0F802E00420F1
:101E800002F0ACF848238DF8073003238DF80630B4
:101E900044B14FF4807301A91648ADF8043002F044
:101EA00009F807E04FF4006301A91348ADF80430C6
:101EB00002F000F818238DF8073003238DF8063060
:101EC0006CB14FF4007301A90A48ADF8043001F079
:101ED000F1FF01214FF4EA1002F044F807E04FF45B
:101EE000805301A90448ADF8043001F0E3FF02B0CB
:101EF00010BD00BF000C01400008014038B52D485E
:101F000003F02AFC44F2213141F23423294D00220E
:101F100094B2A04202F1010204D92C5D23449BB289
:101F20006140F5E741F29152934203D144F24033CC
:101F3000994200D0FEE748F2657245F278631E4C84
:101F40000021605C0131034419299BB282EA00023E
:101F5000F7D145F688118B4203D148F25B718A4272
:101F600008D045F65D418B4203D148F210739A4286
:101F700000D0FEE7104803F0EFFB082814D90F4CFF
:101F80000F49204603F08AFB0E49204603F0FEFA73
:101F90000849204603F0FAFA204603F0DDFB00234F
:101FA000204400F8033C38BD02490448BDE83840ED
:101FB00003F074BB140000201E0000200C0F002052
:101FC000260000207059000810B50C480B4C03F097
:101FD000C3FB00234FF0FF319AB2904205D9A25CB7
:101FE0002E2A08BF19B20133F6E7044B0131194418
:101FF0000348BDE8104003F051BB00BF0C0F0020A8
:102000000406002008B5FFF779FF0449044803F0EF
:10201000BDFABDE80840FFF7D7BF00BF72590008FE
:102020000C0F002010B504460748FEF78FFC230470
:1020300003F47F0343F0802343F0800300F07F002C
:1020400043EA002010BD00BF641B002008B503F068
:102050007DFA02F037FA4FF0405102F087FA08BDDE
:1020600008B518220021044803F018FABDE808401A
:10207000002003F061BA00BFA825002038B50C4647
:102080000546002101602346C0F803102022FEF718
:1020900073FE231D022220212846FEF76DFEA31D9C
:1020A000032222212846FEF767FE04F108030322DB
:1020B00025212846FEF760FE04F10A03102228219C
:1020C0002846FEF759FE0448FEF740FC034BA0816A
:1020D0001B78E38138BD00BF641B00204006002050
:1020E00010B5FFF7D1FB0023064A02F08FFB064C28
:1020F0000023206063812146BDE810400348FFF7BC
:10210000BDBF00BF40420F00C8050020882300204B
:1021100030B50F4C87B02388A3B104F628052846B4
:10212000FFF7DEFF0723049314230293094B039563
:10213000019340F25513201D009303A3D3E900231C
:10214000FEF706FC07B030BDF1C6A7C1D068080F86
:10215000601B00204006002010B5064C1022002114
:10216000204603F09BF9044B00221A700123E38000
:1021700010BD00BFC8050020400600200000000080
:10218000F7B504460F4640F27912002103F086F9B4
:102190002046FFF7A5FF1AA1D1E90001062300257B
:1021A0002372012602AB63E90201E57166722046E3
:1021B00020225021FEF7E0FD0F4AA6751346E57573
:1021C00003CBE161A06118680C4E20621068606268
:1021D000304603F0C1FA80B24F2828BF4F20024694
:1021E0000546314604F1290003F0E2F829353D8027
:1021F00003B0F0BDAFF30080E8F7FF1F0C0F002025
:10220000ED04AE050000000070B5134D88B02B88BA
:102210000446CBB105F628060DF11E013046FFF746
:10222000AFFFBDF81E30E17E0593002304960393B3
:10223000A37E1934029301230093019404A3D3E9EC
:102240000023281DFEF7D7FB08B070BDAFF3008058
:102250009E6AC421818A46EE601B002070B5054647
:102260008AB00E464922002103F018F903A8FFF7AF
:1022700043FB089B00248DE8180021466B46284646
:102280003022FEF779FD099B30228DE818001146B7
:102290006B462846FEF770FD039B049A60211A44A2
:1022A000059B28461A44069B13448DE818003022EB
:1022B0006B46FEF761FD122333800AB070BD00004B
:1022C00070B5134D88B02B880446CBB105F62806AF
:1022D0000DF11E013046FFF7C1FFBDF81E30E17E53
:1022E0000593002304960393A37E193402930423D9
:1022F0000093019404A3D3E90023281DFEF77BFB80
:1023000008B070BDAFF30080042B31ECA7766FBE30
:10231000601B002037B504460D461022002103F053
:10232000BDF800231946009428222846FEF7F8FB42
:10233000EB7E23816B7E638103B030BD10B400243B
:1023400004700B460122214610BCFEF715BD0000AB
:102350001FB501466846FFF7DDFFDDE9000106A372
:10236000D3E90023994206BF90420120002005B026
:102370005DF804FBAFF300801E1B55CEAC000000DF
:102380000149FFF7DBBF00BF1A0500200000000075
:1023900070B5114D86B02B880446B3B105F62806FA
:1023A0003046FFF7EDFF0123E17E059300230496FD
:1023B0000393A37E1934029305230093019404A38D
:1023C000D3E90023281DFEF716FB06B070BD00BF41
:1023D000F017304A39059E56601B0020014B002241
:1023E0001A8070471A05002037B50D4604460023B1
:1023F000036083801946009008222846FEF790FB70
:10240000EB7E63806B7EA38003B030BD0022026050
:102410000B46C0F8032030210122FEF7ADBC0000BE
:102420000149FFF7F3BF00BFA02500200000000016
:1024300070B5114D86B02B880446B3B105F6280659
:102440003046FFF7EDFF0723E17E05930023049656
:102450000393A37E193402930A230093019404A3E7
:10246000D3E90023281DFEF7C6FA06B070BD00BFF1
:10247000CDD269EBC51A133B601B002073B50D4626
:10248000144600920023096803220646FEF748FB23
:10249000296823880331012B29600CD0022B13D12A
:1024A00008340123009420223046FEF739FB2B68C4
:1024B00020332B6008E00834009440223046FEF7B9
:1024C0002FFB2B6840332B6002B070BDF0B50E4679
:1024D0000746002485B040222146039402F0DEFF27
:1024E00023460D22214600973046FEF719FB039B39
:1024F00004A90D3341F8043D07F108023046FFF707
:10250000BDFF039DB38A0735A3EBD5052DB21F2D63
:10251000A8BF1F25A2B2AA4204F101040CDA1832A6
:102520003A4400920023082203993046FEF7F8FA55
:10253000039B08330393EDE7F37E3B87737E7B8732
:1025400005B0F0BD70B50C46154613460968032268
:102550000646FEF711FC21682B880331012B216010
:1025600002D0022B0AD070BD05F10803402230468C
:10257000FEF702FC23684033236070BD05F10803B9
:1025800020223046FEF7F8FB23682033236070BD1D
:1025900070B50C4615461346096802220646FEF73A
:1025A000EBFB21682B880231012B216002D0022B2A
:1025B0000AD070BD05F1080340223046FEF7DCFB6F
:1025C00023684033236070BD05F1080320223046A4
:1025D000FEF7D2FB23682033236070BD2DE9F7435B
:1025E0000446154600260DF108090F4640F2731205
:1025F0003146009602F052FF49F8046D4B463146D1
:1026000020460522FEF7B8FB009B0DF108080533B4
:1026100048F8083D2A4641462046FFF793FF4B46BF
:102620000099204605220196FEF7A6FB009B05F1C6
:1026300010020533414620460093FFF783FF4B46C7
:102640000099204606220196FEF796FB009B05F1B5
:1026500020020633414620460093FFF799FF4B4680
:102660000099204606220196FEF786FB009B05F1A5
:1026700030020633414620460093FFF789FF009E53
:1026800040350736F6082846009603F065F81FFA2D
:1026900080F84246A019294602F08AFE46443E8050
:1026A00003B0BDE8F0830000014AFFF797BF00BF09
:1026B000980600200000000070B5134D88B02B88EC
:1026C0000446CBB105F628060DF11E013046FFF792
:1026D000EBFFBDF81E30E17E0593002304960393C3
:1026E000A37E193402930B230093019404A3D3E92E
:1026F0000023281DFEF77FF908B070BDAFF30080FE
:10270000D5A4D139F922B6A7601B00202DE9F047E6
:102710000B7E04460E4623B90F88042F00F2038176
:1027200013E04FF01809DFF80C82002501EB090ACD
:1027300009FB0583102299685046AFB203F03AF8BE
:1027400018B10135052DF3D1EDE03389794DE3B1B1
:1027500018227A43AB181B79013B082B15D8DFE808
:1027600003F0050509090D0D14141100AB58326969
:102770001A700AE0AB5832691A8006E0AB58326929
:102780001A6002E03069AB58186018237B431D447F
:102790002979684A0139082900F2AF80DFE811F091
:1027A000090020003B0052006D008100AD00AD002B
:1027B0009800D358012121862184218221801A7812
:1027C0000023C4E902232A7B0023C4E906232A7CD0
:1027D0000023C4E90E232A7D0023C4E90A239BE0D9
:1027E000D3580121218621842182218093F9002060
:1027F000D317C4E9022395F90C20D317C4E90623A3
:1028000095F91020D317C4E90E2395F91420D31796
:10281000C4E90A2380E0D358012121862184218242
:1028200021801A880023C4E90223AA890023C4E96D
:1028300006232A8A0023C4E90E23AA8A0023C4E9B6
:102840000A2369E0D3580121218621842182218035
:10285000B3F90020D317C4E90223B5F90C20D3172C
:10286000C4E90623B5F91020D317C4E90E23B5F93E
:102870001420D317C4E90A234EE0D35801211A6863
:102880000023A260E360EA68E361A2612A69E3636E
:10289000A2636A692186218421822180A262E36287
:1028A0003AE0D35801211A682186D317C4E90223DC
:1028B000EA682184D317C4E906232A692182D31741
:1028C000C4E90E236A692180D317C4E90A2323E0EF
:1028D000D35802211B682186A360E86821842182E5
:1028E000218001F0EFFDA061286901F0EBFDA063FC
:1028F000686901F0E7FDA0620EE001230022238653
:102900002384238223800023C4E90623C4E90E2301
:10291000094A0023C4E90A23A96804F14000BDE87C
:10292000F04702F0BBBE2046BDE8F0476022002120
:1029300002F0B4BD5C58000880841E00054B10B541
:1029400000241C8060222146034802F0A7FD034BAF
:102950001C8010BDA0250020980600201A0500202C
:102960002DE9F74F0C460B46164600210322804600
:10297000FEF702FAA01C02F0EFFE02AB23F8020DF4
:10298000052203214046FEF7F7F90023BDF8062093
:102990005F1C9BB29A424FEAC70508D92344023311
:1029A000082229464046FEF7E7F93B46EEE704F1E8
:1029B0002307384602F0D0FEAB461FFA80FA0AF130
:1029C0002309A1444F4509D03B46594608224046B9
:1029D000FEF7D2F90BF1080B0137F3E705EBCA0557
:1029E000ED0835800548FDF7B1FF054BA4F88000E0
:1029F0001B78A4F8823003B0BDE8F08F641B002080
:102A0000180500200A460149FFF7AABFC02500208B
:102A100030B5114C89B02388BBB104F6280528468F
:102A20000DF11E01FFF7EEFFBDF81E300395049374
:102A300018230293094B201D019343F6FF73009363
:102A400003A3D3E90023FDF783FF09B030BD00BF26
:102A5000759D040C8EA454D6601B00201805002020
:102A600008B584220021034802F018FD024B002221
:102A70001A7008BDC02500201805002073B5044653
:102A80000D464822002102F009FD002319460822C4
:102A900000942846FEF744F8631C08220093114670
:102AA00000232846FEF73CF8AB8A023BA4F84230EC
:102AB0000023B4F84220991C5E1C9BB29A424FEA54
:102AC000C10109D923440233009308220023284678
:102AD000FEF726F83346ECE7EB7EA4F844306B7E35
:102AE000A4F8463002B070BD10B5124B124C9CB029
:102AF00001208DE818000394FFF794FA0290042057
:102B00000594FFF78FFA049005200794FFF78AFADF
:102B100006900A200994FFF785FA08900B200B9481
:102B2000FFF780FA06210A906846FFF755F91CB0B6
:102B300010BD00BF00B46E8080FFFFC008B500204C
:102B4000FFF76CF84FF47A70FEF702FCFFF7CCFF4A
:102B50004FF47A70FEF7FCFBBDE80840FEF7D4BBEB
:102B600010B5094C23880BB9002010BD201DFDF7BE
:102B700089FF0028F8D0FEF7D9FE0028F4D0201DE8
:102B8000FDF784FF012010BD601B002010B50B4C29
:102B900086B0208880B16846FEF7F4FF00280BD08D
:102BA00009DDFEF771FE02460B46201D6946FEF761
:102BB0002BF9012000E0012006B010BD601B0020B1
:102BC000F0B535488DB0FDF7C1FE08B100205CE0DE
:102BD000FEF75AFE0F460646FFF738FA2F4901F076
:102BE000C5FC01F02BFE2E4A002392197B412D4D8E
:102BF00080185941C5E90201FEF746FED5E90223D6
:102C0000994208BF904204D32348FDF79FFE50B17C
:102C1000DCE72148FDF79AFE0028F5D1FFF7A0FF79
:102C2000FFF7B4FFE8E72B782E8A5B00DBB28DF864
:102C300018301EB943F001038DF818301A4C08AB58
:102C400094E8070083E807002268C6F11004E4B2A4
:102C5000062C28BF062499190B920DF11900224663
:102C600002F0A6FB06AB03931823013402930F4B2B
:102C7000049401240193009405A3D3E9002306489A
:102C8000FDF766FE204600232B820DB0F0BD00BF8D
:102C9000401DA12026812A0B641B00200050C34840
:102CA000C0270900A8250020E8F7FF1FBA2500204B
:102CB00008B5FFF785FF0028FBD108BD2DE9F743D4
:102CC0001E4C2388002B36D0FEF7DEFD0F4606464D
:102CD00004F62821D1E900894F4508BF464512D3A3
:102CE000174A002312EB080243EB0903C1E9002352
:102CF000FEF7CAFD02460B46201DFDF7D1FE211D41
:102D00006846FEF759FAD4F8304AA4B10D49D1E922
:102D100000239F4208BF96420DD3002512196B4134
:102D20009F4208BF9642F9D2C1E9002303B0BDE833
:102D3000F043FFF7EDB903B0BDE8F083601B00205E
:102D400040420F009825002010B5144C4FF4246227
:102D50000021204602F0A2FB201D0021FDF7EFFD1F
:102D600040F6B83040F2DC52002104F62823C3E9D3
:102D700000010B4B04F6382444F8083C0023C4E956
:102D80000023FFF7E9F9FFF76BF9FFF727FBFFF7E0
:102D9000D5FDBDE81040FFF763BE00BF601B0020FB
:102DA00040420F007FB5FFF7CFFF0020FFF75AF832
:102DB000092324215A1CB1FBF2F56A43242ADEB20E
:102DC00004D0013B012BF5D100204EE0C3EBC3033F
:102DD000DA1CD210D0B24FF47A7401325443311A53
:102DE000C9B20A4494FBF2F2B2F5617FC2BF03F1AB
:102DF000FF33C3F3C700311A00F1FF33C8BFC9B2B4
:102E00000F2B05D84B1E072B8CBF0023012300E09E
:102E10000023421802FB0554154AB2FBF4F2154C8C
:102E2000A242D1D1002BCFD0ADF80A00ADF80C10E2
:102E30000124022102A8ADF80850ADF80E40FEF7BB
:102E400017FF0028C0DB00230B4D01930B4BA5F1AE
:102E5000240000934FF40062094B2946FDF747FD1B
:102E6000FEF7BEFE204625F8284C04B070BD00BF1A
:102E70000051250240420F00881B00201912000853
:102E8000553A000810B50446FFF78CFF38B10448E6
:102E900004F07F01FDF753FDFEF736FA012010BD67
:102EA000641B0020044BDA8C4FF47A735343034ABB
:102EB000C2F8303A704700BF60060020601B002057
:102EC000064B30225A849A844FF47A72DA84322282
:102ED0001A8500225A85FFF7E5BF00BF6006002073
:102EE000154B5A8C4AB1132A9CBF14225A845A8C0F
:102EF000642A82BF104A64215184DA8C312A9EBF31
:102F00000D4A4FF47A71D18441F28832D98C9142C2
:102F100082BF094A4FF47A71D1841A8D5B8D642A7D
:102F200082BF054A32211185022B82BF024B00224B
:102F30005A85FFF7B7BF00BF6006002010B53422E6
:102F4000FF21254802F0AAFAFFF7ACFFFEF71EFCAE
:102F5000C0B20428204C0CD03422FF211E4802F0BD
:102F60009DFAFFF79FFFFEF711FCC0B204280FD1B6
:102F700007E034212046FEF7DDFBC0B204280ED066
:102F8000EAE734211448FEF7D5FBC0B2042806D086
:102F90003422FF21104802F081FAFFF783FF238CCF
:102FA000052B05D11E220D490B4802F003FC78B118
:102FB000FFF786FF052309490748238402F06EFBCB
:102FC0000749084802F06AFB34210348FEF7CAFBB0
:102FD000BDE81040FFF784BF60060020725900086A
:102FE0007F5900088C06002034210148FEF7BABB47
:102FF0006006002038B50588084C25B9FFF7F4FFB6
:103000000123238038BD012D05D1FFF759FFFFF7BC
:10301000EBFF258038BD0023238038BDA02500208C
:1030200008B541F28830FEF793F90549054BCA68A7
:1030300002F4E0621343CB60BFF34F8FFEE700BFA3
:1030400000ED00E00400FA05064B002201205A6062
:103050009A60DA601A615A619A61DA611A62988438
:1030600018807047DC0500200348002320F8023B4D
:10307000024902F013BB00BFC02500200406002057
:1030800007B50121042000F0A9FF1023ADF804309A
:103090008DF8073001A9032303488DF8063000F0AE
:1030A00009FF03B05DF804FB000801402DE9F84377
:1030B00005461C2606FB0106264FDFF89C80DFF83C
:1030C0009C900024AE423FD0E0070DD4AB68BB42D9
:1030D0000AD101214FF4006000F080FF012105209A
:1030E00044F0010400F07AFFA1070DD4AB68B3F1FE
:1030F000804F09D10121084600F07CFF0121052005
:1031000044F0020400F06AFF62070CD4AB68434548
:1031100009D10121022000F06DFF0121092044F0B6
:10312000040400F05BFF23070CD4AB684B4509D1C6
:103130000121042000F05EFF0121092044F0080471
:1031400000F04CFF1C35BDE701210846BDE8F843FF
:1031500000F038BF002C014000040040000800408F
:1031600037B518238DF8073003238DF806301C235C
:1031700003FB0101041D01F120051C34AC4210D0F9
:1031800034F81C3C01A954F8200CADF8043000F0D0
:1031900091FE002234F81C1C54F8200C00F0DCFED8
:1031A000EBE703B030BD000000232DE9F04F0546EA
:1031B000064607461C464FF01C0889B0602208FBF3
:1031C0000108ADF810200122ADF81220ADF804205E
:1031D000DFF854912D22DFF854A1DFF854B1ADF897
:1031E0000A30ADF806308DF80C30ADF81C30ADF873
:1031F0001E30ADF81830ADF81A30ADF81430ADF817
:103200001630ADF8082047452DD0E00708D4BB683C
:103210004B4505D101A9484644F00104FCF776FF6F
:10322000A10708D4B868B0F1804F04D101A944F0D7
:103230000204FCF76BFF620708D4BB68534505D155
:1032400001A9504644F00404FCF760FF230708D4AA
:10325000BB685B4505D101A9584644F00804FCF75A
:1032600055FF1C37CFE72C46444521D0238AB3F5C0
:10327000007F03D104A9A068FCF792FF238AB3F56D
:10328000806F03D104A9A068FCF7CEFF238AB3F5B1
:10329000006F03D104A9A068FDF70AF8238AB3F5EB
:1032A000805F03D104A9A068FDF744F81C34DBE774
:1032B0001D4D1E4FDFF878900024464531D0E007C1
:1032C0000CD4B368AB4209D101212846FDF766F85A
:1032D0000121284644F00104FDF76CF8A10708D449
:1032E000B068B0F1804F04D1012144F00204FDF731
:1032F00055F8620708D4B368BB4205D101213846AE
:1033000044F00404FDF74AF8230708D4B3684B459A
:1033100005D10121484644F00804FDF73FF81C366A
:10332000CBE709B0BDE8F08F002C0140000400405D
:103330000008004038B504460D46FFF7B7FE2946A1
:103340002046FFF731FF29462046BDE83840FFF709
:1033500007BF000004210148FFF7ECBFD458000864
:10336000642B28BF642303EB83035B009BB25843A9
:1033700059435A4310B501F5FA714FF47A7400F5C8
:10338000FA70B0FBF4F0B1FBF4F302F5FA72B2FBA1
:10339000F4F200021B0400F47F4003F47F030344B3
:1033A000D0B2184410BD0B46C2B2C0F30741C0F3FF
:1033B0000720FFF7D5BF000070B504460D4616463E
:1033C0000E4A1846118DFFF7EEFF0D4B6401A9B2AE
:1033D0001D192A898A4207D16A89B24204D1AA8971
:1033E00012B92A69904207D0234400229A8101220F
:1033F00019815E8118619A8270BD00BF600600204D
:1034000020050020074B012199800221D98003214A
:103410000022198104215A8019805A811A825A8205
:10342000DA607047F8060020F0B5134E002205461A
:103430000024111915F4000F89B204F1010414BF1E
:103440001E27152706EB4101182C0B4B8F824FEAE4
:103450004505EED1183292B2F02AE8D10022A3F845
:10346000F421A3F8F621A3F8F821A3F8FA21A3F890
:10347000FC21A3F8FE21F0BDF806002070B50B4E2C
:103480000B4C328A1C2505FB02420121D2F8980020
:1034900000F0F4FE328A05FB0243BDE870400122D1
:1034A000B3F89410D3F88C00FCF792BFF806002014
:1034B0005058000870B50C4E0C4C328A1C2505FB88
:1034C0000242D2F89C0000F0F3FE58B1328A05FBAC
:1034D00002430022D3F88C00B3F89410FCF778FF75
:1034E000002070BD012070BDF80600205058000873
:1034F00010B503785BB94178012908D10346054C22
:1035000053F8022F084622605A68626010BD0020FE
:1035100010BD00BF100500200F4B70B51E460024E3
:103520005C8004F10800202200213044203401F0A6
:10353000B5FF802C084DF4D100220023C5E92223D9
:10354000C5E92423C5E9262301200023A5F8A030DE
:10355000A5F8A230288070BD20050020024B03EBA7
:103560004010006AFFF760BF2005002070B51B4CBB
:103570008CB0608AFFF7F2FF638A194D04EB4303B6
:103580005B881C26032B88BF00232382238A1549CE
:1035900006FB0353D3F89020029101924FF4F1718E
:1035A0001022039204914FF48072802107920892B6
:1035B000069100224FF44051D3F8980005920992E9
:1035C0000A910B9200F0C4FD228A01A906FB025366
:1035D000D3F8980000F034FE0CB070BDF80600205F
:1035E000505800080C07002038B5114D6B8983B97D
:1035F000FEF736F940F6D532EB680446C31A93421B
:1036000015D9FFF7B3FFFFF739FF0123EC606B819A
:1036100038BDFFF74FFF50B96B8A2A8801339BB240
:103620006B829A424FF0000398BF68826B8138BD6D
:10363000F806002070B52C4E7388002B52D1B6F8D6
:10364000A2301BB9C723A6F8A23002E0013BA6F8BE
:10365000A230B6F8A230244D002B43D1B5F8A040DB
:103660002B622B642B66C5F88030F4B91F4B1F22E8
:103670001B8D11461046FFF773FE28621B4B1F225D
:103680001B8D11461046FFF76BFE24F002033064D9
:103690006BB9164B1F221B8D11461046FFF760FEBB
:1036A00024F00203306633B10FE0022CE6D0042C84
:1036B000EFD0062C0CD10D4B1F221B8D114610464E
:1036C000FFF74EFEC6F8800002E0042CF3D0F0E7CE
:1036D0000134A4B20B2C8ABF0023A6F8A040A6F8A0
:1036E000A03070BD70BD00BF200500206006002026
:1036F000F8B50D460446FEF7C7F8134BD3E9226729
:10370000BD4208BFB44203D200260027C3E92267A6
:10371000D3E9222352EA03070B4E0DD0A41A65EB1E
:103720000305D6E92423821A61EB0303A21A65EB91
:103730000303C6E92623F8BDC6E92245C6E92401EC
:10374000C6E92623F8BD00BF2005002008B5FEF716
:103750009BF8034BD3E926238018594108BD00BFCD
:10376000200500202DE9F047404C6388002B7AD0DB
:10377000FFF7ECFF43F2D409234604F1800A002648
:103780004FF0040E02274FF005084FF0030C9A8A01
:10379000012A5A891ED11C89032C1AD8DFE804F0AB
:1037A00002060A0F1E611E629E8213E01C699E8241
:1037B0001C620FE022B1C3E906019F820AE01AB938
:1037C0001C699A821C6205E0C3E90601A3F814E0B3
:1037D00000E09E829C8A09FB02F2023C032C3FD847
:1037E000DFE804F002112030D3E90645A41845EBC8
:1037F000E2758D4208BF844232D2C3E906451E629B
:10380000A3F814C02CE0D3E90645A41845EBE275F3
:103810008D4208BF844223D21A69C3E906451A6261
:103820009F821DE0D3E90645A41845EBE2758D4261
:1038300008BF844214D21A69C3E906451A62A3F884
:1038400014800DE0D3E90645A41845EBE2758D42DE
:1038500008BF844204D2C3E906451E62A3F814E0FF
:103860002033534593D1BDE8F08700BF20050020E9
:10387000614B2DE9F04118781A4610F0010419D077
:1038800002210846FF230622FFF796FDFF230622AA
:1038900002210020FFF790FDFF23062202210120D4
:1038A000FFF78AFDBDE8F041FF2306220221032035
:1038B000FFF782BDDB785D071DD5022108464FF476
:1038C0007F432022FFF778FD20464FF47F432022DC
:1038D0000321FFF771FD4FF47F43202203210120D4
:1038E000FFF76AFDBDE8F0414FF47F43202202213B
:1038F0000320FFF761BD5178080707D511F0200FAD
:103900004FF6FF7408BF6FF07F4400E03B4C03F0BC
:10391000080303F0FF078BB1022108464FF47F43F1
:103920001422FFF749FD4FF47F43142202210020A7
:10393000FFF742FD23461422032145E093782E4DE4
:1039400003F0020303F0FF0623B3022108464FF4FD
:103950007F430622FFF730FD4FF47F03062202214A
:103960003846FFF729FD6B7803F0C003C02B2346D0
:1039700003D0AD7815F0010531D0062203210120D6
:10398000FFF71AFD03212346BDE8F0410622084651
:10399000FFF712BD4FF47F43324601210220FFF7AB
:1039A0000BFD4FF47F03324601213046FFF704FD43
:1039B0006B7803F0C003C02B234603D0AD7815F01D
:1039C00001050CD0142202210120FFF7F5FC032190
:1039D0002346BDE8F04114220846FFF7EDBC012163
:1039E0002A460846FFF7E8FC23462A46BDE8F04190
:1039F00001210320FFF7E0BC1005002000FF80003C
:103A000013B5124C03462288F2B111494A680132BB
:103A10004A600278FF2A10D16A4653F8020F5968AB
:103A20004FF47A7303C2A0FB0301019A03FB021156
:103A300002B0BDE81040FFF75BBEFFF759FD18B1BB
:103A4000FFF716FF0123638002B010BD20050020A0
:103A5000DC0500202DE9F04399B00C468046FCF7C8
:103A600075FF237E0546002862D1022B40F0D580E9
:103A7000E38A012B40F0D180FDF706FF0F46064692
:103A8000FEF7E4FA664900F071FD00F0D7FE654AE2
:103A9000002392197B418018DFF8A8915941E37EF9
:103AA000C9E902014F4683B1284611E05E4E08ABDA
:103AB00096E8070083E80700326819460B9204A8CD
:103AC0002A4601F043FC0346B0B100233B82A4E048
:103AD000A38A85B2013B9D4200F10106E6DA691C2A
:103AE00004AB1D44C90089B200950023082220467A
:103AF000FDF716F83046EBE70F2D0AD8D7E902019B
:103B00004A4A4FF0FF3312184B413D82C7E9022366
:103B100083E018AA22F8520D00920146072220469F
:103B2000FCF7FEFF9DF80E104046FCF708FF74E01E
:103B3000022B10D146F6B463E28A9A426DD1214637
:103B40003B48FEF79BFF3A48FFF75AFF21463948AA
:103B5000FDF74AF961E0012B5FD1E38A013B0A2BB3
:103B60005BD8DFE803F0065A5A0A0E5A5A5A5A3CF2
:103B70004B002046FEF748FB4FE02046FEF7A0FB37
:103B80004BE02046FEF7E4FB05462B4B2146188010
:103B90002848FDF729F92046FEF7FAFB002D3CD016
:103BA000FDF772FE254C002524184D412148FCF7F5
:103BB00069FF70B1FEF7D4FFFDF766FE8D4208BFC6
:103BC0008442F3D205E0FDF75FFE8D4208BF8442D8
:103BD00003D3FDF79FFE0028F5D0FFF721FA214619
:103BE00008A8FEF701FC08A8FFF704FA21461148CF
:103BF000FDF7FAF82046FEF71BFC0EE0214608A868
:103C0000FEF764FC08A90E48FEF780FD094821462E
:103C1000FDF7EAF82046FEF74FFD19B0BDE8F08346
:103C20000050C348C0270900E8F7FF1F40D8F6FF3F
:103C300088230020641B00201A05002020A1070013
:103C400098060020A825002030B504468BB00A490C
:103C500001F024FD02AD0949204601F097FC002344
:103C60000C22009506490748FDF70FFC294620461F
:103C700001F08CFC0BB030BD6F590008845900086E
:103C800087590008E0050020144B10B51B881BB3B2
:103C9000134B5B8D03B3134B9A8C1AB941F28732E5
:103CA0009A8401E0013A9A849C8CACB9FFF7DCF964
:103CB0000D48FFF7C9FF0C4801F04EFD80B258B126
:103CC0000A4B184490F823300A2B08BF80F8234091
:103CD000BDE81040FEF79CBE10BD00BF601B002079
:103CE00060060020DC050020E3250020BF25002021
:103CF0002DE9F843334CFDF78FFCFFF7C1F9FDF7D1
:103D0000E5FDFFF71BF9FEF77DF9FFF723FBFFF752
:103D100079FB94F82200FFF7B5F858B92A49CB6827
:103D20006420DB4303F0100343F480130B61FDF7C1
:103D300016FBF4E7FFF7B6F8FFF7EEFB234BA28C78
:103D4000234D1A80FEF7B4FFFEF7F8FE0023EB8048
:103D5000204B1B880BB90323AB801F4EFFF774F970
:103D6000B046194F0024FEF711FF0028FBD1FEF7E3
:103D7000F7FE81460028FAD1FEF7A0FFFFF734FCDA
:103D8000F38B9BB2002BEED0A8F81E90FDF756FDEA
:103D900034B9AB8840F2F314002B18BF312409E08A
:103DA000013CA4B234B9FB68DB4303F0100343F4D5
:103DB00080133B61FFF73EFCFFF7D4FCFFF764FF85
:103DC000D1E700BF6006002000080140A8250020C0
:103DD000C805002020050020E8040020FEE70000C0
:103DE00008B50C4A0C4B0D498B4204D252F8040F13
:103DF00043F8040BF8E70A480A494FF000028842EA
:103E0000B8BF40F8042BFADBFCF7ECFABDE8084039
:103E1000FFF76EBF945A000800000020E404002061
:103E2000E80400204428002043690AB1194301E056
:103E300023EA010141617047B1F5807F35D00CD88C
:103E4000082924D004D801291CD004291DD070478A
:103E500020291FD040291FD07047B1F5006F22D014
:103E600006D8B1F5007F20D0B1F5806F1DD0704726
:103E7000B1F5803F13D0B1F5003F12D0B1F5004F3E
:103E800015D110E00A4B83607047082300E010232F
:103E9000C3607047082300E01023036170470823C4
:103EA00004E0102302E00023836104234360704791
:103EB00001010100CA782DE9F041D40648BF8C7891
:103EC0000E8802F00F0348BF234316F0FF0F1ED0E9
:103ED000016800244FF0010E4FF00F0C0EFA04F7AA
:103EE00037EA06050FD1A5000CFA05F821EA08010A
:103EF00003FA05F5282A41EA050101D1476102E0EC
:103F0000482A08BF07610134082CE7D10160FF2E61
:103F100020D9416800244FF0010E4FF00F0C04F13E
:103F200008050EFA05F535EA06070FD1A7000CFAC9
:103F300007F821EA080103FA07F7282A41EA0701EE
:103F400001D1456102E0482A08BF05610134082C0F
:103F5000E5D14160BDE8F0810AB10161704741617E
:103F6000704700000028164A30B500F44015B4BF71
:103F7000D3695368B5F5401F84B206D1556823F064
:103F8000706325F0706555600EE0C20255BF420DAA
:103F900003221201C0F303454CBFAA4004FA02F207
:103FA00023EA020343F0706319B1420D12019440F9
:103FB0002343034A0028B4BFD361536030BD00BF20
:103FC00000000140044B5A6909B1104301E022EAA4
:103FD00000005861704700BF00100240044B9A690E
:103FE00009B1104301E022EA00009861704700BF68
:103FF00000100240044BDA6909B1104301E022EAE3
:104000000000D861704700BF00100240034B044A13
:104010005A6002F188325A60704700BF00200240A7
:1040200023016745FFF7F2BF024A136943F080039B
:104030001361704700200240FFF7F6BF084BDA68B3
:10404000D10709D4DA68520708D4DB6813F0100FDF
:1040500014BF0320042070470120704702207047DE
:104060000020024010B50446FFF7E8FF012806D102
:104070001CB1FFF7E3FF013CF8E7052010BD002C61
:1040800008BF052010BD000070B505464FF4005074
:104090000E46FFF7E7FF04280ED1084C4FF40050FE
:1040A000236943F0010323612E80FFF7DBFF41F614
:1040B000FE7322691340236170BD00BF00200240DF
:1040C00073B5002306464FF400500D460193FFF7E9
:1040D000C9FF04281AD10E4C4FF40050236943F055
:1040E00001032361ABB23380FFF7BCFF042808D182
:1040F00002360196019B2D0C1D804FF40050FFF7F6
:10410000B1FF41F6FE7322691340236102B070BD16
:104110000020024038B505464FF43020FFF7A2FFDB
:10412000042812D1094C4FF43020236943F00203D4
:1041300023616561236943F040032361FFF792FF28
:1041400041F6FD7322691340236138BD002002400F
:104150004FF6FE7302681340036000230360436060
:104160008360C360284B984201D1284A27E0284B3E
:10417000984201D1254A2AE0264B984201D1234A90
:104180002DE0254B984201D1204A30E0234B984244
:1041900001D11E4A33E0224B984204D11B4A536896
:1041A00043F470032EE01F4B984204D1174A536822
:1041B00043F0706326E01C4B984204D11B4A5368BD
:1041C00043F00F031EE01A4B984204D1174A53687C
:1041D00043F0F00316E0174B984204D1134A53689A
:1041E00043F470630EE0144B984204D10F4A5368B5
:1041F00043F4704306E0114B984204D10B4A5368D4
:1042000043F47023536070470800024000000240EE
:104210001C000240300002404400024058000240AE
:104220006C0002408000024008040240000402408A
:104230001C0402403004024044040240580402407E
:104240000A6A10B58C68036814430A6923F4FF43B3
:1042500014434A6923F0700314438A691443CA69FA
:1042600014434A6A14438A6A224313430360CB68A7
:1042700043600B6883604B68C36010BD19B103686D
:1042800043F0010303E04FF6FE730268134003603E
:1042900070470000C3004CBF034B044B1B68034234
:1042A00014BF0120002070470004024000000240BB
:1042B000FFF7F0BFC27810B503780AB3164A03F1CE
:1042C0006043D1684278C943C1F30221C1F10404BB
:1042D00002FA04F40F22CA40817803F561430A40D0
:1042E00022431201D2B283F8002303780122590934
:1042F00003F01F0302FA03F3084A42F8213010BD0D
:104300005A09012103F01F0301FA03F30349203284
:1043100041F8223010BD00BF00ED00E000E100E0F8
:10432000D0400B1CD1409C46203AD3401843524207
:1043300063469340184370479140031C90409C464D
:10434000203A9340194352426346D3401943704781
:1043500080F0004002E000BF81F0004142001FBF3A
:104360005FEA410392EA030F7FEA226C7FEA236C43
:104370006AD04FEA1262D2EB1363C1BFD218414038
:1043800048404140B8BF5B42192B88BF704710F0CE
:10439000004F40F4000020F07F4018BF404211F071
:1043A000004F41F4000121F07F4118BF494292EAD9
:1043B000030F3FD0A2F1010241FA03FC10EB0C0005
:1043C000C3F1200301FA03F100F0004302D5494292
:1043D00060EB4000B0F5000F13D3B0F1807F06D33F
:1043E00040084FEA310102F10102FE2A51D2B1F137
:1043F000004F40EBC25008BF20F0010040EA03002C
:104400007047490040EB000010F4000FA2F10102D8
:10441000EDD1B0FA80FCACF1080CB2EB0C0200FA62
:104420000CF0AABF00EBC25052421843BCBFD040B0
:104430001843704792F0000F81F4000106BF80F42A
:1044400000000132013BB5E74FEA41037FEA226CED
:1044500018BF7FEA236C21D092EA030F04D092F0B8
:10446000000F08BF0846704790EA010F1CBF0020EC
:10447000704712F07F4F04D1400028BF40F0004049
:10448000704712F100723CBF00F50000704700F069
:10449000004343F0FE4040F4000070477FEA226290
:1044A00016BF08467FEA23630146420206BF5FEA61
:1044B000412390EA010F40F4800070474FF0000361
:1044C00004E000BF10F0004348BF40425FEA000C28
:1044D00008BF704743F0964301464FF000001CE0D0
:1044E00050EA010208BF70474FF000030AE000BF26
:1044F00050EA010208BF704711F0004302D5404264
:1045000061EB41015FEA010C02BF844601460020D5
:1045100043F0B64308BFA3F18053A3F50003BCFAF0
:104520008CF2083AA3EBC25310DB01FA02FC63449D
:1045300000FA02FCC2F12002BCF1004F20FA02F2A4
:1045400043EB020008BF20F00100704702F1200297
:1045500001FA02FCC2F1200250EA4C0021FA02F2F8
:1045600043EB020008BF20EADC7070474FF0FF0CFD
:104570001CEAD0521EBF1CEAD15392EA0C0F93EAF8
:104580000C0F6FD01A4480EA010C400218BF5FEA9A
:1045900041211ED04FF0006343EA501043EA51110D
:1045A000A0FB01310CF00040B1F5000F3EBF490007
:1045B00041EAD3715B0040EA010062F17F02FD2A0B
:1045C0001DD8B3F1004F40EBC25008BF20F00100EE
:1045D000704790F0000F0CF0004C08BF49024CEA05
:1045E000502040EA51207F3AC2BFD2F1FF0340EA97
:1045F000C250704740F400004FF00003013A5DDC08
:1046000012F1190FDCBF00F000407047C2F1000248
:10461000410021FA02F1C2F1200200FA02FC5FEA35
:10462000310040F1000053EA4C0308BF20EADC707F
:10463000704792F0000F00F0004C02BF400010F4F1
:10464000000F013AF9D040EA0C0093F0000F01F09E
:10465000004C02BF490011F4000F013BF9D041EAC0
:104660000C018FE70CEAD15392EA0C0F18BF93EAC2
:104670000C0F0AD030F0004C18BF31F0004CD8D1EC
:1046800080EA010000F00040704790F0000F17BF73
:1046900090F0004F084691F0000F91F0004F14D0B9
:1046A00092EA0C0F01D142020FD193EA0C0F03D111
:1046B0004B0218BF084608D180EA010000F0004014
:1046C00040F0FE4040F40000704740F0FE4040F4EF
:1046D000400070474FF0FF0C1CEAD0521EBF1CEA8E
:1046E000D15392EA0C0F93EA0C0F69D0A2EB0302AC
:1046F00080EA010C49024FEA402037D04FF0805346
:1047000043EA111143EA10130CF000408B4238BF0A
:104710005B0042F17D024FF4000C8B4224BF5B1A18
:1047200040EA0C00B3EB510F24BFA3EB510340EA66
:104730005C00B3EB910F24BFA3EB910340EA9C0014
:10474000B3EBD10F24BFA3EBD10340EADC001B0184
:1047500018BF5FEA1C1CE0D1FD2A3FF650AF8B4228
:1047600040EBC25008BF20F0010070470CF0004C35
:104770004CEA50207F32C2BFD2F1FF0340EAC25060
:10478000704740F400004FF00003013A37E792F021
:10479000000F00F0004C02BF400010F4000F013A7F
:1047A000F9D040EA0C0093F0000F01F0004C02BF7A
:1047B000490011F4000F013BF9D041EA0C0195E7E3
:1047C0000CEAD15392EA0C0F08D142027FF47DAF7C
:1047D00093EA0C0F7FF470AF084676E793EA0C0F6C
:1047E00004D14B023FF44CAF08466EE730F0004C6A
:1047F00018BF31F0004CCAD130F000427FF45CAFFA
:1048000031F000437FF43CAF5FE700BF53B94AB9D2
:10481000002908BF00281CBF4FF0FF314FF0FF30C8
:1048200000F0A8B9ADF1080C6DE904CE00F02CF849
:10483000DDF804E0DDE9022304B07047D0B500F0F4
:10484000FFFA00220E4B06460F4600F04DFB00F02B
:104850005DFD044600F0D2FA00220A4B00F044FB52
:1048600002460B463046394600F08AF900F04EFD0C
:104870002346002242EA000210461946D0BD00BF7E
:104880000000F03D0000F0412DE9F04F8C460C4651
:104890000546099E002B4FD18A4217466BD9B2FAC2
:1048A00082FEBEF1000F0BD0CEF1200520FA05F5F7
:1048B00001FA0EF345EA030C02FA0EF700FA0EF5C0
:1048C000390CBCFBF1F0BAB201FB10C300FB02F8DB
:1048D0004FEA154C4CEA0344A04509D9E41900F10C
:1048E000FF3380F02881A04540F2258102383C4406
:1048F000C8EB0404B4FBF1F301FB134C03FB02F21D
:10490000ACB244EA0C418A4209D9C91903F1FF3417
:1049100080F00F818A4240F20C81023B39448A1AAE
:1049200043EA00400021002E63D022FA0EF2002359
:1049300086E80C00BDE8F08F8B4207D9002E56D0D8
:10494000002186E811000846BDE8F08FB3FA83F134
:10495000002940F09380A34202D3824200F2FE80FD
:10496000851A64EB03039C460120002E41D086E8A3
:104970002010BDE8F08F12B90127B7FBF2F7B7FAA4
:1049800087FEBEF1000F36D1E41B4FEA17481FFA2D
:1049900087F90121B4FBF8F308FB134409FB03F288
:1049A0004FEA154C4CEA0444A24207D9E41903F13A
:1049B000FF3002D2A24200F2D3800346A41AB4FB15
:1049C000F8F008FB104809FB00F9ACB244EA0842D1
:1049D000914507D9D21900F1FF3402D2914500F276
:1049E000BA802046C9EB020240EA03409BE7314609
:1049F0003046BDE8F08F07FA0EF7CEF1200C24FA0E
:104A00000CF34FEA1748B3FBF8FA1FFA87F908FBD3
:104A10001A3520FA0CFC04FA0EF40AFB09FB4CEAE6
:104A2000040C4FEA1C4242EA05439B4500FA0EF58E
:104A30000AD9DB190AF1FF3280F08B809B4540F2E6
:104A40008880AAF1020A3B44CBEB0303B3FBF8F0E6
:104A500008FB103300FB09F41FFA8CFC4CEA0343FB
:104A60009C4207D9DB1900F1FF326ED29C426CD90F
:104A700002383B441C1B40EA0A418BE7C1F1200E7F
:104A80008B4022FA0EFC4CEA030C24FA0EF74FEA94
:104A90001C49B7FBF9FA1FFA8CF309FB1A7720FAC5
:104AA0000EF88C400AFB03F548EA04044FEA144868
:104AB00048EA0747BD4202FA01F200FA01FB09D9B0
:104AC00017EB0C070AF1FF3041D2BD423FD9AAF1E2
:104AD000020A67447F1BB7FBF9F509FB157705FB55
:104AE00003F3A4B244EA0747BB4208D917EB0C070B
:104AF00005F1FF3027D2BB4225D9023D674445EA84
:104B00000A40A0FB0289FF1A4F4545464C4614D384
:104B100029D066B3BBEB050367EB040707FA0EFE6B
:104B2000CB40CF404EEA030386E888000021BDE871
:104B3000F08F2346F3E61846DAE6B8EB020569EB98
:104B40000C040138E5E70546D9E7104692E78246AE
:104B5000C0E7924678E702383A4443E7084604E75C
:104B6000023B3C442AE7C345E7D33C46D1E7314604
:104B7000BDE8F08F704700BF81F0004102E000BF48
:104B800083F0004330B54FEA41044FEA430594EA0D
:104B9000050F08BF90EA020F1FBF54EA000C55EA48
:104BA000020C7FEA645C7FEA655C00F0E2804FEA19
:104BB0005454D4EB5555B8BF6D420CDD2C4480EAFB
:104BC000020281EA030382EA000083EA010180EA2B
:104BD000020281EA0303362D88BF30BD11F0004F79
:104BE0004FEA01314FF4801C4CEA113102D04042AF
:104BF00061EB410113F0004F4FEA03334CEA1333EA
:104C000002D0524263EB430394EA050F00F0A78001
:104C1000A4F10104D5F1200E0DDB02FA0EFC22FAFC
:104C200005F2801841F1000103FA0EF2801843FAF0
:104C300005F359410EE0A5F120050EF1200E012AE1
:104C400003FA0EFC28BF4CF0020C43FA05F3C0181F
:104C500051EBE37101F0004507D54FF0000EDCF198
:104C6000000C7EEB00006EEB0101B1F5801F1BD341
:104C7000B1F5001F0CD349085FEA30004FEA3C0C45
:104C800004F101044FEA445212F5800F80F09A803B
:104C9000BCF1004F08BF5FEA500C50F1000041EB3F
:104CA000045141EA050130BD5FEA4C0C404141EB43
:104CB000010111F4801FA4F10104E9D191F0000F6A
:104CC00004BF01460020B1FA81F308BF2033A3F1ED
:104CD0000B03B3F120020CDA0C3208DD02F1140CE4
:104CE000C2F10C0201FA0CF021FA02F10CE002F11F
:104CF0001402D8BFC2F1200C01FA02F120FA0CFC18
:104D0000DCBF41EA0C019040E41AA2BF01EB045160
:104D1000294330BD6FEA04041F3C1CDA0C340EDC5E
:104D200004F11404C4F1200220FA04F001FA02F3A1
:104D300040EA030021FA04F345EA030130BDC4F15F
:104D40000C04C4F1200220FA02F001FA04F340EA54
:104D50000300294630BD21FA04F0294630BD94F005
:104D6000000F83F4801306BF81F480110134013DEC
:104D70004EE77FEA645C18BF7FEA655C29D094EA5D
:104D8000050F08BF90EA020F05D054EA000C04BFDB
:104D90001946104630BD91EA030F1EBF00210020C6
:104DA00030BD5FEA545C05D14000494128BF41F065
:104DB000004130BD14F580043CBF01F5801130BDC9
:104DC00001F0004545F0FE4141F470014FF0000054
:104DD00030BD7FEA645C1ABF194610467FEA655C05
:104DE0001CBF0B46024650EA013406BF52EA0335A7
:104DF00091EA030F41F4002130BD00BF90F0000F95
:104E000004BF0021704730B54FF4806404F13204D0
:104E10004FF000054FF0000150E700BF90F0000F89
:104E200004BF0021704730B54FF4806404F13204B0
:104E300010F0004548BF40424FF000013EE700BF80
:104E400042004FEAE2014FEA31014FEA02701FBF10
:104E500012F07F4393F07F4F81F06051704792F0E2
:104E6000000F14BF93F07F4F704730B54FF460745C
:104E700001F0004521F0004120E700BF50EA0102A7
:104E800008BF704730B54FF000050AE050EA010254
:104E900008BF704730B511F0004502D5404261EBC4
:104EA00041014FF4806404F132045FEA915C3FF405
:104EB000DCAE4FF003025FEADC0C18BF03325FEA9E
:104EC000DC0C18BF033202EBDC02C2F1200300FA53
:104ED00003FC20FA02F001FA03FE40EA0E0021FA78
:104EE00002F11444C1E600BF70B54FF0FF0C4CF462
:104EF000E06C1CEA11541DBF1CEA135594EA0C0F18
:104F000095EA0C0F00F0DEF82C4481EA030621EA52
:104F10004C5123EA4C5350EA013518BF52EA03358D
:104F200041F4801143F4801338D0A0FB02CE4FF03F
:104F30000005E1FB02E506F00042E0FB03E54FF06F
:104F40000006E1FB03569CF0000F18BF4EF0010E67
:104F5000A4F1FF04B6F5007F64F5407404D25FEA63
:104F60004E0E6D4146EB060642EAC62141EA555116
:104F70004FEAC52040EA5E504FEACE2EB4F1FD0C58
:104F800088BFBCF5E06F1ED8BEF1004F08BF5FEAD6
:104F9000500E50F1000041EB045170BD06F0004688
:104FA00046EA010140EA020081EA0301B4EB5C0435
:104FB000C2BFD4EB0C0541EA045170BD41F480112D
:104FC0004FF0000E013C00F3AB8014F1360FDEBF52
:104FD000002001F0004170BDC4F10004203C35DA2E
:104FE0000C341BDC04F11404C4F1200500FA05F3B1
:104FF00020FA04F001FA05F240EA020001F0004252
:1050000021F0004110EBD37021FA04F642EB0601C7
:105010005EEA430E08BF20EAD37070BDC4F10C04F1
:10502000C4F1200500FA04F320FA05F001FA04F2B5
:1050300040EA020001F0004110EBD37041F10001A1
:105040005EEA430E08BF20EAD37070BDC4F12005AC
:1050500000FA05F24EEA020E20FA04F301FA05F214
:1050600043EA020321FA04F001F0004121FA04F2BC
:1050700020EA020000EBD3705EEA430E08BF20EA8C
:10508000D37070BD94F0000F0FD101F000464000C6
:1050900041EB010111F4801F08BF013CF7D041EA48
:1050A000060195F0000F18BF704703F0004652004C
:1050B00043EB030313F4801F08BF013DF7D043EA1D
:1050C0000603704794EA0C0F0CEA135518BF95EAD3
:1050D0000C0F0CD050EA410618BF52EA4306D1D15A
:1050E00081EA030101F000414FF0000070BD50EA79
:1050F000410606BF1046194652EA430619D094EA03
:105100000C0F02D150EA013613D195EA0C0F05D1EC
:1051100052EA03361CBF104619460AD181EA030140
:1051200001F0004141F0FE4141F470014FF00000F8
:1051300070BD41F0FE4141F4780170BD70B54FF093
:10514000FF0C4CF4E06C1CEA11541DBF1CEA135513
:1051500094EA0C0F95EA0C0F00F0A7F8A4EB0504F5
:1051600081EA030E52EA03354FEA013100F08880EC
:105170004FEA03334FF0805545EA131343EA1263B5
:105180004FEA022245EA111545EA10654FEA00266A
:105190000EF000419D4208BF964244F1FD0404F523
:1051A000407402D25B084FEA3202B61A65EB03057F
:1051B0005B084FEA32024FF480104FF4002CB6EB3C
:1051C000020E75EB030E22BFB61A754640EA0C00BC
:1051D0005B084FEA3202B6EB020E75EB030E22BFFC
:1051E000B61A754640EA5C005B084FEA3202B6EB3D
:1051F000020E75EB030E22BFB61A754640EA9C00FC
:105200005B084FEA3202B6EB020E75EB030E22BFCB
:10521000B61A754640EADC0055EA060E18D04FEA89
:10522000051545EA16754FEA06164FEAC30343EA29
:1052300052734FEAC2025FEA1C1CC0D111F4801FF6
:105240000BD141EA00014FF000004FF0004CB6E7EF
:1052500011F4801F04BF01430020B4F1FD0C88BF8E
:10526000BCF5E06F3FF6AFAEB5EB030C04BFB6EB99
:10527000020C5FEA500C50F1000041EB045170BD8C
:105280000EF0004E4EEA113114EB5C04C2BFD4EBB9
:105290000C0541EA045170BD41F480114FF0000E3D
:1052A000013C90E645EA060E8DE60CEA135594EAB9
:1052B0000C0F08BF95EA0C0F3FF43BAF94EA0C0FBC
:1052C0000AD150EA01347FF434AF95EA0C0F7FF431
:1052D00025AF104619462CE795EA0C0F06D152EA85
:1052E00003353FF4FDAE1046194622E750EA410669
:1052F00018BF52EA43067FF4C5AE50EA41047FF47A
:105300000DAF52EA43057FF4EBAE12E74A0011D22B
:1053100012F5001211D20DD56FF47873B3EB62520F
:105320000ED44FEAC12343F0004343EA505323FA1B
:1053300002F070474FF00000704750EA013002D190
:105340004FF0FF3070474FF000007047032A70B4F1
:1053500026D940EA01039B0711D004780D78AC42AE
:1053600022D10244431C05E013F8014B11F8015F00
:10537000AC4219D19342F7D1002070BC70470C4663
:1053800003461E6825681846AE42214603F1040311
:1053900004F10404E1D1043A032A18462146F0D866
:1053A000002ADAD11046E8E7601B70BC704700BFE6
:1053B000844641EA000313F0030349D1403A23D362
:1053C0000B6803604B6843608B688360CB68C36085
:1053D0000B6903614B6943618B698361CB69C3616D
:1053E0000B6A03624B6A43628B6A8362CB6AC36255
:1053F0000B6B03634B6B43638B6B8363CB6BC3633D
:1054000040304031403ADBD230320BD30B6803607E
:105410004B6843608B688360CB68C3601030103189
:10542000103AF3D20C3205D351F8043B40F8043B58
:10543000043AF9D2043208D0D2071CBF11F8013B5C
:1054400000F8013B01D30B8803806046704700BF22
:10545000082A13D38B07B1D010F00303AED0C3F1E9
:105460000403D21ADB071CBF11F8013B00F8013B13
:10547000A4D331F8023B20F8023B9FE7043AD9D38A
:10548000013A11F8013B00F8013BF9D20B780370A7
:105490004B7843708B7883706046704770B4840794
:1054A00046D0541E002A41D0CDB2034602E0621E0F
:1054B000E4B3144603F8015B9A07F8D1032C2ED904
:1054C000CDB245EA05250F2C45EA054519D92646F2
:1054D00003F11002103E0F2E42F8105C42F80C5CF3
:1054E00042F8085C42F8045C02F11002F2D8A4F120
:1054F000100222F00F0204F00F041032032C1344A8
:105500000DD91E462246043A032A46F8045BFAD80F
:10551000221F22F003020432134404F003042CB1CE
:10552000C9B21C4403F8011BA342FBD170BC7047F5
:1055300014460346C2E700BF034B00221B68C3F8B2
:10554000A800C3F8AC207047E004002030B40C4B36
:105550000C4C19680C4DD1F8A820D1F8AC0004FB14
:1055600002F4A2FB052305FB00400132034443F192
:105570000003C1E92A2323F0004030BC704700BF7C
:10558000E00400202DF451582D7F954C830710B571
:10559000044610D10268A2F1013323EA020313F09A
:1055A000803F08D150F8042FA2F1013323EA02030F
:1055B00013F0803FF6D003781BB110F8013F002BA9
:1055C000FBD100F06BF8204610BD00BF70B411F0A5
:1055D000FF0434D085070FD00378002B5AD09C42AB
:1055E0002BD0431C05E013F8012B002A4FD0944226
:1055F00023D09A071846F6D10E0206F47F462643BA
:10560000036846EA064601E050F8043F86EA0305CF
:10561000A5F10132A3F1013122EA050221EA0303D7
:10562000134313F0803FEFD0037823B932E010F832
:10563000013F002B2ED09C42F9D170BC70478407EB
:105640000BD00378002BF8D0431C03E00278013321
:10565000002AF2D099071846F8D10268A2F1013366
:1056600023EA020313F0803F08D150F8042FA2F17F
:10567000013323EA020313F0803FF6D00378002BB6
:10568000DBD010F8013F002BFBD170BC70471046F7
:1056900070BC7047184670BC704700BF80EA0102BA
:1056A000844612F0030F4FD111F0030F32D14DF8A1
:1056B000044D11F0040F51F8043B0BD0A3F101325B
:1056C0009A4312F0803F04BF4CF8043B51F8043B6E
:1056D00016D100BF51F8044BA3F101329A4312F0E6
:1056E000803FA4F101320BD14CF8043BA24312F0ED
:1056F000803F04BF51F8043B4CF8044BEAD02346EA
:105700000CF8013B13F0FF0F4FEA3323F8D15DF89B
:10571000044B704711F0010F06D011F8012B0CF863
:10572000012B002A08BF704711F0020FBFD031F8DB
:10573000022B12F0FF0F16BF2CF8022B8CF8002062
:1057400012F47F4FB3D1704711F8012B0CF8012BE5
:10575000002AF9D1704700BF20F0030110F00300C8
:10576000C0F1000051F8043B00F1040C4FEACC0CEE
:105770006FF000021CBF22FA0CF213434FF0010C31
:105780004CEA0C2C4CEA0C4CA3EB0C0222EA030270
:1057900012EACC1204BF51F8043B0430F4D0C2F139
:1057A000000102EA0102B2FA82F2C2F11F0200EB2A
:1057B000D2007047002A3FD040EA010313F00303F0
:1057C000F0B425D1032A23D904680D68AC421FD157
:1057D000043A33D0A4F1013525EA040414F0803FE3
:1057E0002FD1071D0D1D0DE057F8043B0E68A3F1E6
:1057F0000134B34224EA03040AD1043A1ED014F05F
:10580000803F21D1032A2946384605F10405EBD80B
:1058100003780C78013A9C420BD17AB114B915E0A7
:1058200062B173B110F8013F11F8014F013AA34280
:10583000F6D0181BF0BC7047104670471046F0BCFD
:1058400070471846F0BC70470020F3E72046F1E7A8
:105850002D00002000002E000030000082060020F5
:1058600003000000585A000830000000000000004B
:105870006400000084060020030000004E5A000867
:1058800030000000000000006400000086060020D8
:10589000030000005F5A0008E80300003200000027
:1058A0008813000088060020030000006F5A0008DB
:1058B0003200000000000000640000008A060020A2
:1058C00003000000835A00080000000000000000F0
:1058D00002000000000C01408000000000080040B1
:1058E000380800400004000044000240002000008E
:1058F000000C014040000000000800403408004057
:105900000002000008000240020000000008014000
:1059100008000000000000404000004000100000AF
:105920008000024000000002000801400400000066
:10593000000000403C000040000800000800024059
:1059400002000000746F6F206C61726765207769D8
:1059500064746800746F6F206C6172676520707288
:1059600065636973696F6E00302E30002D00200072
:105970002E00756334682D6F72656F6C6564006509
:105980006E645800727800756C7A00535441424935
:105990004C495A45004143524F00414C5420484F16
:1059A0004C44004155544F00475549444544004C30
:1059B0004F4954455200434952434C4500756E6B64
:1059C0006E6F776E004C414E44004452494654007D
:1059D00053504F525400464C4950004155544F5477
:1059E000554E4500504F5320484F4C4400425241C1
:1059F0004B45005448524F570041564F49442041AF
:105A000044534200475549444544204E4F47505364
:105A100000534D4152542052544C00464C4F572095
:105A2000484F4C44004F74686572004E6F475053A6
:105A3000004E6F46697800324400334400444750BA
:105A4000530052544B20660052544B204600507273
:105A500065666572726564204E6F64654964004EC8
:105A60006F64655374617475732052617465004C82
:105A70006564204F72656F204272696768746E6555
:105A80007373004465627567000000004300000006
:085A9000F8EDFF7F01000000AA
:105A980000A24A0400000000000000000102030404
:105AA800060708096F6C6C69772E65752E002476D9
:105AB800656E646F723A000000000000000000008C
:105AC8000000000000002400000000008B590008BE
