:020000040800F2
:1000000018270020A13700089D3700089D370008F9
:100010009D3700089D3700089D370008000000004C
:100020000000000000000000000000009D370008F4
:100030009D370008000000009D37000811080008E7
:100040009D3700089D3700089D3700089D37000840
:100050009D3700089D3700089D3700089D37000830
:100060009D3700089D3700089D3700089D37000820
:100070009D3700089D3700089D3700089D37000810
:100080009D3700089D3700089D3700089D37000800
:10009000350C0008D10C00089D3700089D3700087A
:1000A0009D3700089D3700089D3700089D370008E0
:1000B0009D3700089D3700089D3700089D370008D0
:1000C0009D3700089D3700089D3700089D370008C0
:1000D0009D3700089D3700089D3700089D370008B0
:1000E0009D3700089D3700089D370008000000007C
:1000F0000000000000000000000000000000000000
:1001000000000000000000005FF808F1224A0388A8
:1001100090429BB212D002F5006290420ED0B0F134
:10012000804F0BD0A2F59832904207D002F5806242
:10013000904203D002F58062904203D14A8823F0B6
:1001400070031343154A904208D002F58062904232
:100150001FBF23F44073CA889BB2134303808B886C
:1001600083850B8803850C4B98420FD003F5006301
:1001700098420BD003F54063984207D003F58063A3
:10018000984203D003F58063984201D10B7A03862D
:1001900001238382704700BF002C01400010004003
:1001A000038C70B523F001031B041B0C0384028C29
:1001B0008688038B0D8823F073031B041B0C1D43DF
:1001C00022F002020C894B881204120C23431343C1
:1001D000144AB6B290429BB20FD002F50062904230
:1001E0000BD002F54062904207D002F58062904247
:1001F00003D002F5806290420ED14C8923F00803AF
:100200001C438B8824F0040426F4407223438E8917
:10021000CC893443224396B2CA888680058382867D
:10022000038470BD002C0140038C30B523F0100313
:100230001B041B0C0384038C8588028B0C8822F41E
:10024000E6421204120C42EA042223F0200394B284
:100250001B040A891B0C43EA02134A88ADB243EA25
:100260000213124A9BB2904203D002F50062904200
:1002700015D123F080034A899BB243EA02124FF65C
:10028000BF7313408A8825F4406543EA02138A89C4
:100290009BB245EA8205CA8945EA8205ADB2CA88A1
:1002A000858004830287038430BD00BF002C014099
:1002B000038C30B523F480731B041B0C0384038C64
:1002C0008488828B0D8822F073021204120C23F4AE
:1002D000007315431B040A891B0C43EA02234A8856
:1002E000A4B243EA0223124A9BB2904203D002F521
:1002F0000062904215D123F400634A899BB243EA1D
:1003000002224FF6FF3313408A8824F4405443EA14
:1003100002238A899BB244EA0214CA8944EA02147D
:10032000A4B2CA88848085838287038430BD00BFDD
:10033000002C0140038C30B523F480531B041B0CAC
:100340000384038C8488828B0D8822F4E642120495
:10035000120C23F4005342EA05221B040D891B0CE6
:1003600043EA05334D88A4B243EA05330A4D92B2FD
:10037000A8429BB203D005F50065A84205D18D893E
:1003800024F4804444EA8514A4B284808283CA8819
:10039000A0F84020038430BD002C0140038819B12F
:1003A0009BB243F0010303E023F001031B041B0C89
:1003B00003807047B0F8443029B16FEA43436FEAD5
:1003C00053439BB201E0C3F30E03A0F844307047DF
:1003D00083899BB20AB1194301E023EA01018181BB
:1003E0007047410746BFC30843F00043430D8207EF
:1003F00048BF43F08043184670470000094B9A6994
:1004000012F0700F0DD000229A61074A5168013135
:100410005160127F12B99B695B0702D5034A014BF9
:100420009A6070470064004098000020808080003F
:10043000022B0AD146F6B4639A4236D11CA3D3E903
:1004400000230120C1E900237047012B2DD1013A7F
:100450000A2A2AD8DFE802F00629290D14292929B9
:10046000291B220014A3D3E900230120C1E90023A2
:10047000704713A3D3E900230120C1E9002370478B
:1004800011A3D3E900230120C1E90023704710A381
:10049000D3E900230120C1E9002370470EA3D3E96B
:1004A00000230120C1E9002370470020704700BFEE
:1004B0006FC971D4B02CBC699E6AC421818A46EE92
:1004C000042B31ECA7766FBEF017304A39059E56E3
:1004D000CDD269EBC51A133BD5A4D139F922B6A701
:1004E00010B50E4C3823E36020462361022103F04F
:1004F00083F92046102103F07FF9094A0023138075
:10050000084A204613800221012203F06DF920469B
:10051000BDE810400122102103F066B900640040DC
:10052000880100208A01002070B50B4C400125187D
:100530002E898E4207D16E89964204D1AE8916B9B2
:100540002D699D4207D0204442810361002201238E
:1005500001818281838270BDD800002000EB800081
:10056000430018460138FDD87047402808B50246B8
:1005700009D8BDE80840C0EB401002EB8000C00085
:1005800080B2FFF7EBBF4FF47A70FFF7E7FF013A55
:1005900092B2002AF7D108BD38B5044603F0F2FE46
:1005A00080B20246002330B1013880B2215C2E298E
:1005B00008BF0346F7E713B9013A202010E0013BDA
:1005C000202182B29A4205DAA55C0130302D0AD191
:1005D000A154F6E738BD655C0133302D03D160547A
:1005E00099B29142F7DB38BD0309092B00F00F00E7
:1005F00094BF3033373309280B7094BF3030373015
:10060000002348708B70704713B50A46044601A951
:10061000C0B2FFF7E9FF200A1146FFF7E5FF9DF89A
:10062000043093709DF80530D3709DF80630137137
:1006300002B010BD13B50A46044601A9C0B2FFF7C7
:10064000D3FF9DF8043001A993719DF80530C4F3E0
:100650000720D371FFF7C8FF9DF8043001A913717B
:100660009DF80530C4F307405371FFF7BDFF9DF8B7
:10067000043001A993709DF80530200ED370FFF768
:10068000B3FF9DF8043013709DF8053053700023BC
:10069000137202B010BDF8B50D46069C0021217002
:1006A0002978752931D16E78632E01D1017807E060
:1006B000692E01D1018803E06C2E40F0A78001680B
:1006C000AF78682F17D1632E05D12146BDE8F840D9
:1006D0000078FFF789BF692E05D12146BDE8F840B3
:1006E0000088FFF791BF6C2E33D12146BDE8F8405A
:1006F0000068FFF79FBF2B2F2BD111B12770012668
:1007000028E020202070012624E073297ED169781A
:10071000632902D190F9001007E0692902D1B0F9EC
:10072000001002E06C2971D10168A8782B280AD149
:10073000002903DA2D202070012608E008BF2020C0
:100740002070012606E000294FF0000602DA494237
:1007500000E00026174618464FF0300E002806DA53
:10076000013FBFB2013004F807E000B2F6E703EA48
:10077000E373134418BF01309BB218BF00B20A27BD
:100780004FF02E0C9E4210D2013B9BB2C3EB020EE7
:1007900086451FBFB1FBF7FE07FB1E113031E15448
:1007A0000CBF04F803C07146ECE70023A3547A2180
:1007B000284603F021FD48B3AB782B2B0FD1601CEA
:1007C000FFF7EAFE204603F0DDFD0123834205D258
:1007D000E25C202A0BD101339BB2F7E7F8BD20463B
:1007E000FFF7DAFE204603F0CDFD01230BE022786F
:1007F000234403F8012C20232370F8BDE25C202A57
:10080000F5D101339BB28342F8D3F8BDF8BD0000A7
:10081000034B0122DA831A6A01321A62704700BF61
:10082000980000200B4B0021D98319620A4B0B4A18
:100830001B68F020B3FBF2F34FF47A725343084A7B
:10084000013B5360074B83F823000723916013603B
:10085000704700BF980000208000002040420F0039
:1008600010E000E000ED00E02DE9F84F254B264DAB
:1008700001281CBFAA461D46894614462349244A1E
:1008800006BF9A468846904603F0ACF8284603F027
:1008900021F90428074630D14FF6FF7BB9F1000F4C
:1008A00008BF4FF47A74013405F1100624F00104F6
:1008B0003444C5EB0A0AA64217D0B9F1000F03D1A0
:1008C0003AF8061089B203E0731B4B4433F8101C4E
:1008D000594501D10236EEE7B0450DD9304603F057
:1008E000B3F804280746F5D007E04FF01131284649
:1008F00003F0C6F8074600E0802703F07DF838468D
:10090000BDE8F88F00E0010800E40108FFE70108F6
:10091000FFE3010810B503F065F8074803F0DAF8C3
:100920000428044603D1054803F0D4F8044603F034
:1009300063F8204610BD00BF00E0010800E4010894
:100940000131C1F34F0100239AB291420AD9B3F5A4
:10095000FC7F09D0054A1A445200128820F813205F
:100960000133F1E7042070478020704708F000044D
:1009700038B50A4604460D4601460020FFF774FFCD
:10098000C0B2042801D080B238BD2A4621460120D9
:10099000FFF76AFFC0B238BD38B5164B1D68D3F8F3
:1009A0000044B5F1113F07D1B4F1113F01D104204A
:1009B0001DE0621C0ED104E06B1C0BD1B4F1113FA1
:1009C00008D1002211460120FFF74EFFC0B20428D3
:1009D0000DD1ECE7FFF79EFFC0B2042807D1013527
:1009E00004D1013414BF4020202000E0402080B218
:1009F00038BD00BF00E001081FB50121022002F050
:100A0000D9FF0023ADF80A30ADF806304FF6FF737A
:100A1000ADF80830094B0A4A1B680A4CB3FBF2F3E5
:100A200004A9013B21F80C3D2046FFF76FFB012193
:100A30002046FFF7B3FC04B010BD00BF80000020CB
:100A400040420F000004004072B6074B9B8C9BB2E3
:100A500062B6064A91881068994284BF01301060DE
:100A6000938003EB0040704700040040A801002081
:100A700030B472B60D4B988C80B262B60C490B8ABA
:100A8000D1E90245834204D9013445F10005C1E9A9
:100A900002452B04220443EA1443141843F10005D1
:100AA00008822046294630BC704700BF0004004041
:100AB000A801002008B50120FFF79EFF064B00218A
:100AC0009A8C064B92B21960002000219A80C3E9EB
:100AD00002011A8208BD00BF00040040A8010020E6
:100AE00070B504460646044D0FCD0FC495E80700C7
:100AF00084E80700304670BD98000020044B9868D9
:100B000000F0E05000F1644358425841704700BF84
:100B1000006400402DE9F341054600287DD00468BB
:100B200014F000547CD1FFF769FC3F4B9A6802F047
:100B3000E052B2F1E05F51D09A682646C2F380627B
:100B40008DF804209A689B68C2F3C062C3F30073F7
:100B50008DF805208DF80630FF2401ABF35C0BB156
:100B6000F4B234E0330103F1804303F5CB4318685A
:100B7000FFF737FC2F684FEAD07C4FEAD778E04583
:100B800027F0604320F0604207F0004E00F0004183
:100B900010D0BEF1000F00D09B0C19B1900C984200
:100BA00015D002E09A4217D0104683422CBF002095
:100BB00001200BE0934205D1C0F38070C7F380772A
:100BC000874203D193422CBF0020012020B101367F
:100BD000032EC2D1FF2C01D1002022E023012A7C68
:100BE00003F1804303F5CB435A60EA682968DA6071
:100BF000AA6800299A60BABFCA0042F004024A05F6
:100C0000490048BF42F0020242F001021A60074A5E
:100C1000012053690133536103E06FF0010000E0EC
:100C2000034802B0BDE8F081006400409800002055
:100C300015FCFFFF2DE9F041204F214A3D88138824
:100C4000013505F07F059BB29D4290461D4C1CD09E
:100C50001D4EF368DB0642BF236801332360D6F8DC
:100C6000B001FFF7BEFB18236B431849C850CA18E0
:100C7000D6F8B43103F00F031374D6F8B83193608B
:100C8000D6F8BC31D3603D8002E0A3680133A36095
:100C90003B889AB2B8F800309BB2D31A228A48BF78
:100CA00080339342C4BF074A1382A36938220133B9
:100CB000A361054BDA60BDE8F08100BF8A01002026
:100CC000880100209800002000640040500A0020A5
:100CD0002DE9F041204F214A3D881388013505F068
:100CE0007F059BB29D4290461D4C1CD01D4E336922
:100CF000DB0642BF236801332360D6F8C001FFF74B
:100D000070FB18236B431849C850CA18D6F8C43171
:100D100003F00F031374D6F8C8319360D6F8CC31C2
:100D2000D3603D8002E0E3680133E3603B889AB220
:100D3000B8F800309BB2D31A228A48BF803393425E
:100D4000C4BF074A1382A36938220133A361054B4C
:100D50001A61BDE8F08100BF8A01002088010020EF
:100D60009800002000640040500A0020F8B500B34D
:100D7000FFF744FB114D124B1A882B8892B29BB29D
:100D80009A4219D02A880F4C0132182302F07F02B0
:100D900003FB0244034604F11807264603CEBE4275
:100DA00018605960344603F10803F6D12A80012007
:100DB000F8BD6FF00100F8BD0020F8BD88010020EB
:100DC0008A010020500A002037B514230024012591
:100DD00001A88DF804308DF805408DF806408DF897
:100DE000075002F047FF152301A88DF804308DF855
:100DF00005408DF806408DF8075002F03BFF03B028
:100E000030BD0000032970B504460D463ED80028C9
:100E10003CD00388013B9BB2B3F5806F36D2C388C8
:100E2000013B9BB2032B31D84388013B9BB20F2B74
:100E30002CD88388013B9BB2072B27D8474E1C2216
:100E40003046002103F06AF9AA1E5342534133771A
:100E5000434B00225A611A684FF47A7622F002025C
:100E60001A601A6842F001021A601A4653683C4937
:100E7000DB070ED44FF47A70FFF770FB013EF5D11B
:100E80004FF400430B606FF47A7070BD6FF0010097
:100E900070BD61230B60E2886388013A013B120652
:100EA0001B0403F4702302F040721A432388012DBF
:100EB00003F1FF33C3F3090342EA0302A3884FF4AB
:100EC0007A7403F1FF334FEA035303F4E00343EA78
:100ED00002030CBF4FF000420022032D43EA02033D
:100EE0000CBF4FF0804200221343CB610B6823F00C
:100EF00001030B6048681A4A10F001000AD04FF451
:100F00007A70FFF72BFB013CF4D14FF400431360E0
:100F1000144870BDD2F8003223F47C5323F00E0342
:100F200043F4606343F00103C2F800326FF0704392
:100F3000C2F80402C2F80C320B4BC2F8143201237F
:100F4000C2F84002C2F84402C2F81C32D2F80032A1
:100F500023F00103C2F8003270BD00BF98000020EA
:100F60000064004016FCFFFFAAAAAA0AF0B50028F8
:100F70003DD00E293BD806461E4F0022C7F81C2242
:100F80004FF0010E93B299422FD950F83250002DF4
:100F900002DB7368002B05DB7368EC00DB0044F0B8
:100FA000040401E06C055B056D00756848BF44F002
:100FB0000204002DB8BF43F004036D004FEAC205E0
:100FC00005F1804548BF43F0020305F5C845C5F863
:100FD0004042C5F84432D7F81C320EFA02F42343DB
:100FE000C7F81C3201320836CCE70020F0BD6FF0A4
:100FF0000100F0BD0064004013B5044601214FF02C
:10100000007002F0D7FC01211CB1092002F0C6FCDF
:1010100002E0042002F0C2FC48238DF807300323CD
:101020008DF8063044B14FF4807301A91648ADF82D
:10103000043002F01FFC07E04FF4006301A91348DD
:10104000ADF8043002F016FC18238DF807300323A6
:101050008DF806306CB14FF4007301A90A48ADF861
:10106000043002F007FC01214FF4EA1002F05AFCB0
:1010700007E04FF4805301A90448ADF8043002F0B2
:10108000F9FB02B010BD00BF000C01400008014098
:1010900010B50446074801F043FF230403F47F031F
:1010A00043F0802343F0800300F07F0043EA0020F8
:1010B00010BD00BF5416002038B50C46054600216F
:1010C00001602346C0F80310202202F03FF9231DDF
:1010D00002222021284602F039F9A31D03222221F1
:1010E000284602F033F904F108030322252128469B
:1010F00002F02CF904F10A0310222821284602F0FC
:1011000025F9044801F00CFF034BA0811B78E38113
:1011100038BD00BF54160020A001002010B5FFF715
:10112000A7FC064A002302F0F3FD054C206021468F
:10113000BDE810400348FFF7BFBF00BF40420F00AB
:1011400078010020781E002030B50F4C87B023882E
:10115000A3B104F628052846FFF7E0FF0723049310
:1011600014230293094B0395019340F25513201D5C
:10117000009303A3D3E9002301F0D4FE07B030BDF0
:10118000F1C6A7C1D068080F50160020A0010020AA
:1011900010B5064C10220021204602F0BFFF044B80
:1011A00000221A700123E38010BD00BF78010020E7
:1011B000A001002000000000F7B5044640F27912BB
:1011C0000E46002102F0AAFF2046FFF7A7FF18A154
:1011D000D1E9000104232372002502AB012763E952
:1011E0000201E571204667722022502102F0AEF81C
:1011F0000D4AA7751346E57503CBA061E161186838
:101200000A4B20621068293444F8050C03F11402DB
:1012100053F8041B934244F8041BF9D11B78237044
:101220003E23338003B0F0BDE8F7FF1F9C45000864
:10123000ED04AE050000000070B5134D88B02B889A
:101240000446CBB105F628060DF11E013046FFF726
:10125000B3FFBDF81E30E17E05930023049603938F
:10126000A37E1934029301230093019404A3D3E9CC
:101270000023281D01F0A9FE08B070BDAFF3008067
:101280009E6AC421818A46EE5016002070B505463C
:101290008AB00E464922002102F040FF03A8FFF762
:1012A0001FFC089B00248DE8180021466B46284649
:1012B000302202F04BF8099B30228DE818001146CD
:1012C0006B46284602F042F8039B049A60211A44B8
:1012D000059B28461A44069B13448DE818003022CB
:1012E0006B4602F033F8122333800AB070BD000061
:1012F00070B5134D88B02B880446CBB105F628068F
:101300000DF11E013046FFF7C1FFBDF81E30E17E32
:101310000593002304960393A37E193402930423B8
:101320000093019404A3D3E90023281D01F04DFE8E
:1013300008B070BDAFF30080042B31ECA7766FBE10
:101340005016002037B504460D461022002102F049
:10135000E5FE0023194600942822284601F0CAFE23
:10136000EB7E23816B7E638103B030BD10B400241B
:1013700004700B460122214610BC01F0E7BF0000BB
:101380001FB501466846FFF7DDFFDDE9000106A352
:10139000D3E90023994206BF90420120002005B006
:1013A0005DF804FBAFF300801E1B55CEAC000000BF
:1013B0000149FFF7DBBF00BFD200002000000000A2
:1013C00070B5114D86B02B880446B3B105F62806DA
:1013D0003046FFF7EDFF0123E17E059300230496DD
:1013E0000393A37E1934029305230093019404A36D
:1013F000D3E90023281D01F0E8FD06B070BD00BF51
:10140000F017304A39059E5650160020014B002235
:101410001A807047D200002037B50D4604460023DD
:1014200003608380194600900822284601F062FE7E
:10143000EB7E63806B7EA38003B030BD0022026030
:101440000B46C0F803203021012201F07FBF0000CD
:101450000149FFF7F3BF00BF90200020000000000B
:1014600070B5114D86B02B880446B3B105F6280639
:101470003046FFF7EDFF0723E17E05930023049636
:101480000393A37E193402930A230093019404A3C7
:10149000D3E90023281D01F098FD06B070BD00BF00
:1014A000CDD269EBC51A133B5016002073B5164612
:1014B0000C4605460988002300900322304601F0BF
:1014C00019FE2188033189B221802B88012B08D194
:1014D000083500954022304601F00CFE2388403349
:1014E000238002B070BDF0B50E460746002485B0DB
:1014F00040222146ADF80E4002F010FE23460D2298
:1015000021460097304601F0F5FDBDF80E3004A9E4
:101510000D3321F8023D324607F10800FFF7C6FF00
:10152000BDF80E30B58A0733C3F3CF03ED1A2DB2E1
:101530001F2DADF80E30A8BF1F25A3B2AB4204F19A
:1015400001040CDABDF80E100822194418333B448C
:101550000093C9000023304601F0CCFDEDE7F37E97
:101560003B87737E7B8705B0F0BD70B50C46154692
:10157000134609880322064601F0E8FE218803315C
:1015800089B221802B88012B08D105F10803402264
:10159000304601F0DBFE23884033238070BD70B5F8
:1015A0000C461546134609880222064601F0CEFE77
:1015B0002188023189B221802B88012B08D105F1C5
:1015C00008034022304601F0C1FE238840332380C7
:1015D00070BD2DE9F74306461446884640F2731263
:1015E000002102F09BFD02AD052325F8023D2246B5
:1015F00029463046FFF7B9FFBDF8063004F1100266
:10160000053329463046ADF80630FFF7AEFFBDF88A
:10161000063004F12002063329463046ADF8063084
:10162000FFF7BDFFBDF8063004F13002063329464E
:101630003046ADF80630FFF7B2FFBDF80650403433
:101640000735ED101FFA85F92046ADF8069002F037
:1016500099FE214682B20746701902F0E9FC4F4418
:10166000A8F8007003B0BDE8F0830000014AFFF75E
:10167000B0BF00BFD801002070B5134D88B02B88D3
:101680000446CBB105F628060DF11E013046FFF7E2
:10169000EDFFBDF81E30E17E059300230496039311
:1016A000A37E193402930B230093019404A3D3E97E
:1016B0000023281D01F089FC08B070BDAFF3008045
:1016C000D5A4D139F922B6A7501600202DE9F0474C
:1016D0000B7E04460D4623B90F88032F00F2C2800B
:1016E00013E04FF01809DFF88C81002601EB090A9E
:1016F00009FB0683102299685046B7B202F070FECB
:1017000018B10136042EF3D1ACE02A89594BB2B19D
:1017100018227A4398180079013805280FD8DFE895
:1017200000F0030307070B0B9A582969117006E0B4
:101730009A582969118002E09A582969116001229A
:101740000020002122862284228222801822C4E9DD
:101750000601C4E90E017A4347480021C4E90A01A1
:101760001344187943490138052874D8DFE800F09C
:1017700003152B3D53628A5800211078C4E90201F9
:10178000187B0021C4E90601187C0021C4E90E0180
:10179000187D0021C4E90A015DE08A5892F9000031
:1017A000C117C4E9020193F90C00C117C4E906018D
:1017B00093F91000C117C4E90E0193F91400C11781
:1017C000C4E90A0147E08A5800211088C4E90201EF
:1017D00098890021C4E90601188A0021C4E90E0194
:1017E000988A0021C4E90A0135E08A58B2F900005C
:1017F000C117C4E90201B3F90C00C117C4E906011D
:10180000B3F91000C117C4E90E01B3F91400C117F0
:10181000C4E90A011FE08A5811680022A160E26051
:10182000D968E261A1611969E263A1635969E26261
:10183000A16210E08A581068C117C4E90201D86893
:10184000C117C4E906011869C117C4E90E01586936
:10185000C117C4E90A0104F140009968BDE8F047E6
:1018600002F032BD2046BDE8F0476022002102F0C0
:1018700055BC00BF8844000880841E00054B10B58D
:1018800000241C8060222146034802F047FC034BE1
:101890001C8010BD90200020D8010020D200002024
:1018A0002DE9F74F0C460B461646002103228046D1
:1018B00001F04CFDA01C02F065FD02AB23F8020D07
:1018C00005220321404601F041FD0023BDF806201A
:1018D0005F1C9BB29A424FEAC70508D923440233E2
:1018E00008222946404601F031FD3B46EEE704F16F
:1018F0002307384602F046FDAB461FFA80FA0AF18C
:101900002309A1444F4509D03B4659460822404689
:1019100001F01CFD0BF1080B0137F3E705EBCA05DD
:10192000ED083580054801F0FBFA054BA4F880006E
:101930001B78A4F8823003B0BDE8F08F5416002065
:10194000D10000200A460149FFF7AABF92200020DB
:1019500030B5114C89B02388BBB104F62805284660
:101960000DF11E01FFF7EEFFBDF81E300395049345
:1019700018230293094B201D019343F6FF73009334
:1019800003A3D3E9002301F0CDFA09B030BD00BFB5
:10199000759D040C8EA454D650160020D100002052
:1019A00008B584220021034802F0B8FB024B002254
:1019B0001A7008BD92200020D100002073B50446A3
:1019C0000D464822002102F0A9FB002319460822F7
:1019D0000094284601F08EFB631C082200931146F8
:1019E0000023284601F086FBAB8A023BA4F8423074
:1019F0000023B4F84220991C5E1C9BB29A424FEA25
:101A0000C10109D923440233009308220023284648
:101A100001F070FB3346ECE7EB7EA4F844306B7EBC
:101A2000A4F8463002B070BD10B5124B124C9CB0F9
:101A300001208DE818000394FFF72AFB0290042090
:101A40000594FFF725FB049005200794FFF720FB82
:101A500006900A200994FFF71BFB08900B200B94BB
:101A6000FFF716FB06210A906846FFF77FFA1CB0C5
:101A700010BD00BF00B46E8080FFFFC010B5094CE0
:101A800023880BB9002010BD201D01F0E5FA0028C5
:101A9000F8D0FFF73FF80028F4D0201D01F0E0FA5D
:101AA000012010BD5016002010B50B4C86B02088C8
:101AB00080B16846FFF75AF900280BD009DDFEF720
:101AC000D7FF02460B46201D694601F087FC012026
:101AD00000E0012006B010BD501600202DE9F743AC
:101AE0001E4C2388002B36D0FEF7C2FF0F46064659
:101AF00004F62821D1E900894F4508BF464512D395
:101B0000174A002312EB080243EB0903C1E9002343
:101B1000FEF7AEFF02460B46201D01F0ABFA211D79
:101B2000684601F033FED4F8304AA4B10D49D1E93A
:101B300000239F4208BF96420DD3002512196B4126
:101B40009F4208BF9642F9D2C1E9002303B0BDE825
:101B5000F043FFF7F9BA03B0BDE8F0835016002058
:101B600040420F008820002010B5134C4FF424622F
:101B70000021204602F0D2FA201D002101F0C9F90F
:101B800040F6B83040F2DC52002104F62823C3E9C5
:101B900000010A4B04F6382444F8083C0023C4E949
:101BA0000023FFF7F5FAFFF731FCFFF767FEBDE80A
:101BB0001040FFF7F5BE00BF5016002040420F0056
:101BC0007FB5FFF7D1FF0020FFF716FA0923242184
:101BD0005A1CB1FBF2F56A43242ADEB204D0013B61
:101BE000012BF5D100204EE0C3EBC303DA1CD21069
:101BF000D0B24FF47A7401325443311AC9B20A4454
:101C000094FBF2F2B2F5617FC2BF03F1FF33C3F37D
:101C1000C700311A00F1FF33C8BFC9B20F2B05D876
:101C20004B1E072B8CBF0023012300E0002342182A
:101C300002FB0554154AB2FBF4F2154CA242D1D175
:101C4000002BCFD0ADF80A00ADF80C100124022112
:101C500002A8ADF80850ADF80E40FFF7D3F8002801
:101C6000C0DB00230B4D01930B4BA5F12400009327
:101C70004FF40062094B294601F023F9FFF7A4F85D
:101C8000204625F8284C04B070BD00BF0051250245
:101C900040420F0078160020310400085527000844
:101CA00010B50446FFF78CFF48B1054804F07F01EA
:101CB00001F02FF9FFF7B8FEFEF712FC012010BD6E
:101CC00054160020044BDA884FF47A735343034AC6
:101CD000C2F8303A704700BFC00100205016002003
:101CE000054B30225A809A804FF47A72DA800022B3
:101CF0001A81FFF7E7BF00BFC0010020124B5A88CE
:101D00004AB1132A9CBF14225A805A88642A82BF7F
:101D10000D4A64215180DA88312A9EBF0A4A4FF465
:101D20007A71D18041F28832D9881B89914282BF71
:101D3000054A4FF47A71D180022B82BF024B0022F8
:101D40001A81FFF7BFBF00BFC001002038B51222C3
:101D5000FF21214802F0E2F9FFF7B4FFFEF71CFE75
:101D6000C0B204281C4D0CD01222FF211A4802F0E8
:101D7000D5F9FFF7A7FFFEF70FFEC0B204280FD179
:101D800007E012212846FEF7DBFDC0B204280ED082
:101D9000EAE712211048FEF7D3FDC0B2042806D0AE
:101DA0001222FF210C4802F0B9F9FFF78BFF2B88B4
:101DB000094C012B0CD0FFF793FF20460123074964
:101DC00020F80A3B02F080FA12212046FEF7D0FDEF
:101DD000BDE83840FFF792BFC0010020B2450008BF
:101DE00012210148FEF7C4BDC001002038B50588A6
:101DF000084C25B9FFF7F4FF0123238038BD012DDE
:101E000005D1FFF76DFFFFF7EBFF258038BD0023FD
:101E1000238038BD9020002008B541F28830FEF7BD
:101E20009DFB0549054BCA6802F4E0621343CB6091
:101E3000BFF34F8FFEE700BF00ED00E00400FA059E
:101E4000044B002201205A609A60DA601A611880FF
:101E5000704700BF8C01002007B50121042001F06C
:101E60009DFD1023ADF804308DF8073001A9032340
:101E700003488DF8063001F0FDFC03B05DF804FB6B
:101E8000000801402DE9F84305461C2606FB010623
:101E9000264FDFF89C80DFF89C900024AE423FD0B4
:101EA000E0070DD4AB68BB420AD101214FF40060BA
:101EB00001F074FD0121052044F0010401F06EFDE4
:101EC000A1070DD4AB68B3F1804F09D101210846B9
:101ED00001F070FD0121052044F0020401F05EFDD7
:101EE00062070CD4AB68434509D10121022001F0FF
:101EF00061FD0121092044F0040401F04FFD230796
:101F00000CD4AB684B4509D10121042001F052FDEE
:101F10000121092044F0080401F040FD1C35BDE713
:101F200001210846BDE8F84301F02CBD002C01401A
:101F3000000400400008004037B518238DF8073032
:101F400003238DF806301C2303FB0101041D01F15E
:101F500020051C34AC4210D034F81C3C01A954F8C4
:101F6000200CADF8043001F085FC002234F81C1C74
:101F700054F8200C01F0D0FCEBE703B030BD0000BA
:101F800000232DE9F04F0546064607461C464FF054
:101F90001C0889B0602208FB0108ADF8102001225E
:101FA000ADF81220ADF80420DFF854912D22DFF8AF
:101FB00054A1DFF854B1ADF80A30ADF806308DF811
:101FC0000C30ADF81C30ADF81E30ADF81830ADF85F
:101FD0001A30ADF81430ADF81630ADF8082047458A
:101FE0002DD0E00708D4BB684B4505D101A9484670
:101FF00044F00104FEF78AF8A10708D4B868B0F1EC
:10200000804F04D101A944F00204FEF77FF8620773
:1020100008D4BB68534505D101A9504644F00404D7
:10202000FEF774F8230708D4BB685B4505D101A906
:10203000584644F00804FEF769F81C37CFE72C46F1
:10204000444521D0238AB3F5007F03D104A9A068B9
:10205000FEF7A6F8238AB3F5806F03D104A9A06820
:10206000FEF7E2F8238AB3F5006F03D104A9A06854
:10207000FEF71EF9238AB3F5805F03D104A9A06897
:10208000FEF758F91C34DBE71D4D1E4FDFF8789042
:102090000024464531D0E0070CD4B368AB4209D1E7
:1020A00001212846FEF77AF90121284644F001046F
:1020B000FEF780F9A10708D4B068B0F1804F04D1D1
:1020C000012144F00204FEF769F9620708D4B368FD
:1020D000BB4205D10121384644F00404FEF75EF905
:1020E000230708D4B3684B4505D10121484644F085
:1020F0000804FEF753F91C36CBE709B0BDE8F08FB2
:10210000002C0140000400400008004038B504469F
:102110000D46FFF7B7FE29462046FFF731FF294657
:102120002046BDE83840FFF707BF00000421014802
:10213000FFF7ECBFE844000808B5FFF7F7FF084BCE
:10214000012199800221D9800321002219810421D3
:102150005A8019805A811A825A82DA6008BD00BFFB
:1021600038020020F0B5134E002205460024111954
:1021700015F4000F89B204F1010414BF1E271527BE
:1021800006EB4101182C0B4B8F824FEA4505EED12F
:10219000183292B2F02AE8D10022A3F8F421A3F871
:1021A000F621A3F8F821A3F8FA21A3F8FC21A3F85B
:1021B000FE21F0BD3802002070B50B4E0B4C328A68
:1021C0001C2505FB02420121D2F8800001F036FDFA
:1021D000328A05FB0243BDE870400122B3F87C104F
:1021E000586FFEF7F5B800BF380200207C440008A5
:1021F00070B50C4E0C4C328A1C2505FB0242D2F8FD
:10220000840001F035FD50B1328A05FB0243002203
:10221000586FB3F87C10FEF7DBF8002070BD01208A
:1022200070BD00BF380200207C440008037883B9E9
:10223000B0F84220112A0CD1074A831C123053F8FF
:10224000041B834242F8041BF9D11B780120137050
:1022500070470020704700BFC00000200D4B70B5D4
:102260001E4600245C8004F1080020220021304436
:10227000203401F053FF802C064DF4D100220023BE
:102280000120C5E92223C5E92423C5E926232880A6
:1022900070BD00BFD8000020024B03EB4010006A65
:1022A000FFF760BFD800002070B51B4C8CB0608A6F
:1022B000FFF7F2FF638A194D04EB43035B881C268A
:1022C000032B88BF00232382238A154906FB03536F
:1022D0009A6F029101924FF4F171102203920491CE
:1022E0004FF48072802107920892069100224FF4E9
:1022F0004051D3F88000059209920A910B9201F0A7
:1023000007FC228A01A906FB0253D3F8800001F0E2
:1023100077FC0CB070BD00BF380200207C44000880
:102320004C02002038B5114D6B897BB9FEF78CFB50
:10233000EB68044603F6D633984215D3FFF7B4FF93
:10234000FFF73AFF0123EC606B8138BDFFF750FFC8
:1023500050B96B8A2A8801339BB26B829A424FF044
:10236000000398BF68826B8138BD00BF380200202F
:102370001C4A10B55388002B33D11B498B8C13B9E1
:10238000C7238B8401E0013B8B848B8C4BBB136296
:1023900013641366C2F88030134BDB8C6BB9134C9B
:1023A000104804621148106423F0020038B90F4845
:1023B000106623F0020030B109E0022BF2D0042BAA
:1023C000F5D0062B06D10948C2F8800002E0042BA4
:1023D000F9D0F6E701339BB20B2B88BF0023CB84E7
:1023E00010BD10BDD8000020980000201F1F1F0046
:1023F000F8B50D460446FEF73BFB134BD3E92267C5
:10240000BD4208BFB44203D200260027C3E92267B9
:10241000D3E9222352EA03070B4E0DD0A41A65EB31
:102420000305D6E92423821A61EB0303A21A65EBA4
:102430000303C6E92623F8BDC6E92245C6E92401FF
:10244000C6E92623F8BD00BFD800002008B5FEF776
:102450000FFB034BD3E926238018594108BD00BF69
:10246000D80000202DE9F047404C6388002B7AD03B
:10247000FFF7ECFF43F2D409234604F1800A00265B
:102480004FF0040E02274FF005084FF0030C9A8A14
:10249000012A5A891ED11C89032C1AD8DFE804F0BE
:1024A00002060A0F1E611E629E8213E01C699E8254
:1024B0001C620FE022B1C3E906019F820AE01AB94B
:1024C0001C699A821C6205E0C3E90601A3F814E0C6
:1024D00000E09E829C8A09FB02F2023C032C3FD85A
:1024E000DFE804F002112030D3E90645A41845EBDB
:1024F000E2758D4208BF844232D2C3E906451E62AE
:10250000A3F814C02CE0D3E90645A41845EBE27506
:102510008D4208BF844223D21A69C3E906451A6274
:102520009F821DE0D3E90645A41845EBE2758D4274
:1025300008BF844214D21A69C3E906451A62A3F897
:1025400014800DE0D3E90645A41845EBE2758D42F1
:1025500008BF844204D2C3E906451E62A3F814E012
:102560002033534593D1BDE8F08700BFD800002049
:102570002DE9F041604B58781D4610F0010419D048
:1025800002210846FF230622FDF7CEFFFF23062285
:1025900002210020FDF7C8FFFF23062202210120AF
:1025A000FDF7C2FFBDE8F041FF2306220221032010
:1025B000FDF7BABFDB7819061DD5022108464FF496
:1025C0007F432022FDF7B0FF20464FF47F432022B7
:1025D0000321FDF7A9FF4FF47F43202203210120AF
:1025E000FDF7A2FFBDE8F0414FF47F432022022116
:1025F0000320FDF799BF6A7A2B79D20707D513F02C
:10260000040F4FF6FF7408BF6FF07F4400E03B4CAF
:1026100013F0010711D0022108464FF47F43142222
:10262000FDF782FF4FF47F43142202210020FDF7C3
:102630007BFF23461422032145E003F0080303F047
:10264000FF062BB3022108464FF47F430622FDF715
:102650006BFF4FF47F03062202213846FDF764FF2B
:10266000EB7803F01802182A04D003F0040303F0F7
:10267000FF059BB32346062203210120FDF754FFEB
:1026800003212346BDE8F04106220846FDF74CBF72
:102690004FF47F43324601210220FDF745FF4FF4FE
:1026A0007F03324601213046FDF73EFFEB7803F011
:1026B0001802182A04D003F0040303F0FF056BB1DD
:1026C0002346142202210120FDF72EFF0321234679
:1026D000BDE8F04114220846FDF726BF012123463C
:1026E0002A460846FDF720FF23462A46BDE8F0416A
:1026F00001210320FDF718BFC000002000FF80006B
:1027000013B5124C03462288F2B111494A680132CE
:102710004A600278FF2A10D16A4653F8020F5968BE
:102720004FF47A7303C2A0FB0301019A03FB021169
:1027300002B0BDE81040FFF75BBEFFF777FD18B1B0
:10274000FFF716FF0123638002B010BDD800002000
:102750008C01002030B50B7E91B0022B0C460FD1BE
:1027600046F6B463CA8A9A426AD13648FFF726F918
:102770003448FFF7C5FF2146334800F01FFE5FE0F5
:10278000012B5DD1CB8A013B0A2B59D8DFE803F03E
:102790000658580A0E585858583C4A000846FEF742
:1027A0004BFD4DE00846FEF7A3FD49E00846FEF765
:1027B000E7FD0546254B21461880234800F0FEFD25
:1027C0002046FEF7FDFD002D3AD0FEF751F9204CD2
:1027D000002524184D411C4800F03EFC70B1FFF765
:1027E0004DF9FEF745F98D4208BF8442F3D205E06A
:1027F000FEF73EF98D4208BF844203D3FEF77EF90F
:102800000028F5D0FFF708FB6846FEF705FE68468E
:10281000FFF7ECFA21460C4800F0D0FD2046FEF709
:102820001FFE0DE06846FEF75EFE69460948FEF7AA
:102830004DFF0548214600F0C1FD2046FEF71CFF74
:1028400011B030BD781E002054160020D2000020A8
:1028500020A10700D801002070B51B4BAAB01B882F
:10286000002B2FD0194B1B8963B3194B1A881AB947
:1028700041F287321A8001E0013A1A801C880CBBB1
:10288000144D1549284620F8024B01F01DFD13494F
:102890000AA801F019FD02AE11490AA801F08CFC4A
:1028A00023460C220F4910480096FDF7F4FE3146EE
:1028B0000AA801F081FC0AA905F1230001F004FD3A
:1028C000FFF746F82AB070BD50160020C001002066
:1028D0000000002092200020A54500089B4500082C
:1028E000B7450008BA450008900100202DE9F843DB
:1028F000FDF798FFFFF7B0FAFEF7DCF8FFF726FACE
:10290000FFF71AFC274B9878FFF7CAF958B9264900
:10291000CB686420DB4303F0100343F480130B61A6
:10292000FDF723FEF4E7214DFFF7CCF9FFF796FC06
:10293000FFF786FA0023EB801D4B1B880BB903239E
:10294000AB801C4E184FB0460024FFF7ADF80028AE
:10295000FBD1FFF793F881460028FAD1FFF7BEF8C4
:10296000FFF7E0FCF38B9BB2002BEED0A8F81E9093
:1029700034B9AB8840F2F314002B18BF312409E0BE
:10298000013CA4B234B9FB68DB4303F0100343F409
:1029900080133B61FFF7ECFCFFF764FDFFF75CFF82
:1029A000D3E700BFC00100200008014078010020EB
:1029B000D800002098000020384B82B01A6842F0FE
:1029C00001021A605968364A0A405A601A6822F0B1
:1029D000847222F480321A601A6822F480221A600B
:1029E0005A6822F4FE025A604FF41F029A600022D5
:1029F000009201921A6842F480321A601A6802F456
:102A000000320192009A01320092019A1AB9009A9A
:102A1000B2F5A06FF2D11A6812F4003218BF012289
:102A20000192019A012A05D01E4B4FF000629A6074
:102A300002B070471C4A116841F010011160116822
:102A400021F003011160116841F0020111605A6820
:102A50005A605A685A605A6842F480625A605A68EA
:102A600022F47C125A605A6842F4E8125A601A68DA
:102A700042F080721A601968084A8901FBD55168D2
:102A800021F003015160516841F0020151605A6820
:102A900002F00C02082AFAD1C6E700BF001002407B
:102AA0000000FFF800ED00E0002002402DE9F047B3
:102AB000089D01F007044FEAD508224405F00705F8
:102AC0004FF47F4900EBD100944227D005F0070670
:102AD00004F0070AB245D44638BFB446CCF1080129
:102AE000C4EB020C8C4528BF8C46E708C75D29FA69
:102AF0000CFE08EBD50107FA0AF75FFA8EFE4EFAD4
:102B000006FE47FA06F65F5C06EA0E0627EA0E0E98
:102B100046EA0E065E5464446544D5E7BDE8F08796
:102B20000246006848B1036811891360D3880133F5
:102B30009BB29942D38038BF1381704770B5044669
:102B40000D4688B020220021684601F0E7FA2046B1
:102B50000495FFF7E5FF054658B16B46044608AEFD
:102B60001A4603CAB24220606160134604F10804A9
:102B7000F6D1284608B070BD2DE9F0410568DDB1F9
:102B80008E68A84626F06047BB0C4FEAD67EC6F397
:102B9000807C2A4637EA260628BF1E469368BEEB8D
:102BA000D37F23F060440ED0002B08DAA40CB4428B
:102BB00007D1954213D10D600160BDE8F081B442A8
:102BC00012D0A64206E0A74203D1C3F380739C450E
:102BD00003D1A7422CBF002301232BB1E9E7C8F89A
:102BE00000100A60BDE8F0811368904613B91160C7
:102BF000BDE8F0811A46D1E7F8B506460F464FF614
:102C0000FF7400252A463046394601F069F8C0B203
:102C100084EA0024082314F4004F4FEA4404A4B2C9
:102C20001CBF84F4815484F00104013BF3D10835C6
:102C3000402DE7D12046F8BD10B54B6843B1C468BC
:102C40001A681C60C360438A013B43824A60F4E710
:102C50000A8B002063F309020A83002110BD0A4495
:102C6000914211D011F8013B80EA0320082310F4AF
:102C7000004F4FEA400080B21CBF80F4815080F0CA
:102C80000100013BF3D1EBE770472DE9F04F85B030
:102C900081468DE80A00BDF83C409346002A7DD06D
:102CA00024B10E9B002B79D0072C27D809F10C00FA
:102CB000FFF736FF054610B96FF0020070E02022E2
:102CC000002101F02BFA22460E9905F1100001F0C7
:102CD000AFF9631C2B769BF800302C4403F01F03E4
:102CE00063F03F032374009B09F11C0043F0004391
:102CF000AB602946FFF740FF012051E04FF000088C
:102D000046464546019B4FF0800A1B0A029300F19C
:102D10000C0303930398FFF703FF07460028CBD06B
:102D20002022002101F0FAF93EB99DF80430022278
:102D30003B749DF808307B740BE0002209E00E9B89
:102D4000B9180132985DD2B20136072A0874B6B2BA
:102D500001D0B442F3D8A64208BF4FF0400A9BF816
:102D60000010B81801F01F0141EA481141EA0A03B6
:102D70000374009B013243F00043BB603A7639464E
:102D800009F11C00FFF7F8FEA64205F1010588F0E5
:102D900001084FF0000ABDD1284601E06FF00100A4
:102DA00005B0BDE8F08F2DE9F04717460A8B99462C
:102DB000C2F30902C2F10603002B0646884618DD5D
:102DC00000201FFA89F185B253199BB2052B09D94E
:102DD000A9420FD8B8F818300A4462F30903A8F8DA
:102DE00018306BE0A942F3D93C5C43449C76013037
:102DF000E9E70025911F1C23B1FBF3FA03FB1A1A24
:102E0000D8F804405FFA8AF10CB1012329E030467A
:102E1000FFF786FE044608B100230360C8F80440AB
:102E2000CCB96FF00200BDE8F0874A44063A1C2096
:102E3000B2FBF0F20132D2B293420DD2BAF1000FDE
:102E40000AD13046FFF76CFE08B1C0F800A0206040
:102E50000028E6D0044600211FFA89F94FF0000A45
:102E600011E020680028E0D00133DBB20446F8E727
:102E7000A3180132785D92B201351C2A1871ADB2E7
:102E800005D0A945F4D84D450FD28AB2F0E7A9453F
:102E9000F9D93046FFF744FE08B1C0F800A0206021
:102EA0000028BED004460021EDE7B8F81820C2F390
:102EB0000903994469F30902A8F818200120BDE824
:102EC000F087F8B5044616460D46242200211F4619
:102ED00001F024F9069B72096360079B00202362BE
:102EE0004FF6FF739A4228BF1A4629460346A76049
:102EF000207097B204F10C06934204D03160013384
:102F00000E462031F8E70023336027826382A382D4
:102F1000F8BD03781BB94BB2002BC8BF01707047D6
:102F2000007870472DE9F7430D9F8046BDF8284093
:102F30000B9E9DF83090BDF838500FB9002D3FD151
:102F4000B9F11F0F3CD898F80010A9B9072D34D853
:102F500034F0030334D12A4639464FF6FF70FFF7A9
:102F60007EFE47F6FE73240204F4407444EA0964CA
:102F7000034044EA43240FE041EA0421072D41EADB
:102F8000096409D919461046FFF736FE2A46394624
:102F9000FFF765FE034601E04FF6FF7301950097CA
:102FA000324621464046FFF770FE33780133DBB2EC
:102FB0001F2B88BF0023337004E06FF0030001E093
:102FC0006FF0010003B0BDE8F0832DE9F7430E9FD9
:102FD00081460C46104619460B9D9DF830209DF801
:102FE0003480BDF83C6007B976BB1F2A2CD899F80D
:102FF000003063B343F0800343EA04239DF8284084
:1030000043EAC83343EA0443072E43EA026407D97C
:10301000FFF7F2FD32463946FFF721FE034601E095
:103020004FF6FF73019600972A4621464846FFF760
:103030002CFEB8F1010F0CD12B780133DBB21F2B22
:1030400088BF00232B7004E06FF0010001E06FF0F7
:10305000030003B0BDE8F083C06900B108307047D9
:10306000C3691A68C261C2681A60C360438A013BBF
:10307000438270472DE9F047D0F818A00546164660
:103080001F465446DFF868804FF00009002C2CD012
:10309000D4E90223B21A67EB0303994508BF9045B0
:1030A00020D2AB6921469C4228460DD1FFF7C4FDD2
:1030B000AB691B68AB61EB6823606B8AEC60AC6941
:1030C000013B6B82A246E1E7FFF7B6FD2368CAF831
:1030D0000030EB6823606B8AEC60013B6B82DAF8AE
:1030E0000040D3E7A2462468D0E7BDE8F08700BFE0
:1030F00080841E002DE9F04F8BB00E4614460793D6
:10310000149F8246002800F0FF80002F00F0FC8012
:10311000531E3F2B00F2F880012A03D1079B002B9E
:1031200040F0F280BAF814500023ED00AE4208934C
:10313000099301D3002505E133199D42DAF80C30DB
:103140003ABFAD1BEDB225461BB9DAF81030002BA3
:1031500061D02F2E15D8C6F13008A84528BFA84643
:10316000002300935FFA88FB4246314608ABDAF849
:1031700008004644CBEB0508FFF798FC5FFA88F897
:1031800002E0A8464FF0000BBAF81430302103F1EA
:103190000053063BDB000493DAF80C300393039BE7
:1031A0006BB3B8F1000F2AD0049BE02B28BFE023BB
:1031B00006930B44B342059318D9C6EB0309C845DF
:1031C00038BFC146039828BF5FFA89F9CDF800B02F
:1031D000711A08AB4A460430FFF768FCCB44C9EBD0
:1031E00008084E445FFA8BFB5FFA88F8049B069A46
:1031F00005999B1A0493039B1B680393CFE7DAF8A6
:10320000100080B1B8F1000F0DD0CDF800B008ABC0
:103210004246711A05E02A4631460093DAF8080062
:1032200008ABFFF743FC002D84D066070BD00AAB38
:1032300003EBD40111F8082C634203F0070342FAB0
:1032400003F301F8083C082C06D9102C06D9202CD1
:103250008CBF0823042302E0012300E00223079A25
:10326000002A57D0B4EBC30F56D0082C0ED89DF9C6
:103270002020631E22FA03F3D80760D54FF0FF33F6
:1032800003FA04F414438DF8204058E0102C0ED8B3
:10329000BDF92020631E22FA03F3D90743D54FF06E
:1032A000FF3303FA04F41443ADF820403BE0202C34
:1032B0000CD8089B621E23FA02F2D20737D54FF0D2
:1032C000FF3202FA04F42343089330E0402C1ED06E
:1032D000DDE90889621E4046494600F001FD0021F3
:1032E00000F0010050EA010324D022460120002111
:1032F00000F002FD404261EB410140EA080041EA72
:103300000901CDE9080115E06FF001051AE06FF041
:10331000080517E0012C12D0082C10D9102C02D966
:10332000202C07D803E0BDF820303B800AE0089B42
:103330003B6007E0DDE90823C7E9002302E09DF8D0
:1033400020303B7028460BB0BDE8F08F30B5402AE6
:1033500085B018D8002A08BF01220024012A02944F
:10336000039401D0082A03D81B788DF808300FE0A9
:10337000102A03D81B88ADF8083009E0202A03D8AA
:103380001B68029304E04022D3E90045CDE90245E1
:1033900053070BD004AB03EBD20515F8084C53428E
:1033A00003F0070304FA03F305F8083C0091034611
:1033B000002102A8FFF77AFB05B030BD10B5CB683D
:1033C00043B1C4681A681C60C360438A013B4382EE
:1033D000CA60F4E78B600B618B8210BD2DE9F04F62
:1033E000D1F800A08FB0CDE90223CAF3C012044681
:1033F0000D4622B1CAF3C03BCAF3062802E090464C
:103400004FF0020BBAF1000F80F2BB812B6813F072
:10341000C04F40F0B6812B7C002B00F0B281BBF195
:10342000020F03D02178414540F0AB810AF07F01C3
:10343000C8B2059012B1CAF3074904E0CAF30F29D4
:1034400009B909F003092B444FEA4868059ADE7967
:1034500048EA0B4848EA8248F30948EA0908049315
:103460002BD0002200230EA961E90823059B676881
:1034700000934A465B462046B847002800F0818109
:10348000A7694FB9414604F10C00FFF757FB074607
:1034900088B976E13F681FB13B699845FAD115E0DC
:1034A000414604F10C00FFF749FB0746002800F0F5
:1034B0006881A3693B60A76108E0A769002F00F05D
:1034C00060813B69984506D03F68F7E7DDE9060172
:1034D000FFF792FBF88297F819E006F01F08CEF389
:1034E000840EB8EB0E0ED7E9022348BF0EF1200E72
:1034F00052EA0301CAF3046A00F02E81DDE90201F9
:10350000801A61EB03010B46024600219E48994256
:1035100008BF9042C0F02081049B5BB3BEF1010F55
:1035200000F31A81730625D5DDE902230021C7E9DE
:10353000022306A8202200F0F1FDDDE90223CDE9F7
:10354000062305F1080308932B7CADF82E90013B70
:10355000DBB2ADF82C309DF814308DF830B08DF81A
:1035600033308DF831808DF832A0A36806A920464B
:103570009847DEE07B7EC6F34012B2EBD31F40F0EB
:103580000081C3F38403434540F0FB80049A2B7C05
:10359000B609002A33D016F001065ED1032B40F2A3
:1035A000F080DDE90223C7E902232B7C05F10A083C
:1035B000033BDBB24246394604F10C00FFF7F3FB54
:1035C000002812DA39462046FFF736FB7B7EC3F32C
:1035D0008402013262F386037B763B8B66F3090338
:1035E0003B831B0A66F3C713B4E06A7A2B7A414621
:1035F00043EA0223BB822A7C033AD2B223E066BBB1
:1036000005F10806013BDBB23246394604F10C00F5
:10361000FFF7C9FB002812DA39462046FFF70CFBFA
:103620007B7EC3F38402013262F386037B76049AC5
:103630003B8B62F309033B83049A1B0A88E0314603
:103640002A7C013AD2B2F88AFFF709FB7B7EF88226
:10365000C3F3C01282F001027AE0388B013BC0F361
:1036600009000528DBB212D8EE1D0021CAB2934230
:1036700028D9013100EB010E16F801CF07EB0E023D
:10368000BEF1060F82F819C0CAB2EFD11AE07E6807
:10369000BEB10622316811B11C320E46FAE7801A1B
:1036A00005F1070C00EB010EBEF11B0FCAB209D8E1
:1036B0009A4207D21CF8012FB6448EF8042001313B
:1036C000F0E73246DDE902019A42CDE9060107F151
:1036D0001A01089138BF0832796834BF52190022A4
:1036E00009910A923A8BADF82E90C2F30902134465
:1036F000ADF82C309DF814308DF830B08DF83330A3
:1037000000238DF831808DF832A07B602A7CF88A06
:10371000013A05F10801FFF7A2FABB8AF882834259
:1037200003D1A36806A92046984706A92046FFF7BB
:1037300045FE7B7EC3F38402013262F386037B760F
:103740003B8B6FF309033B831B0A6FF3C71301E045
:1037500062F3C7137B7614E07B7E394666F38603FB
:103760006FF3C7137B762046FFF766FA049B002BA6
:103770007FF4D8AE7B7EC3F38402013262F386030A
:10378000E8E70FB0BDE8F08F80841E00034651F8D3
:10379000100F8A8818609A8018467047FEE700006C
:1037A00008B50C4A0C4B0D498B4204D252F8040F59
:1037B00043F8040BF8E70A480A494FF00002884230
:1037C000B8BF40F8042BFADBFFF7F6F8BDE8084075
:1037D000FFF78CB8AC4600080000002094000020E1
:1037E000980000201823002043690AB1194301E022
:1037F00023EA010141617047B1F5807F35D00CD8D3
:10380000082924D004D801291CD004291DD07047D0
:1038100020291FD040291FD07047B1F5006F22D05A
:1038200006D8B1F5007F20D0B1F5806F1DD070476C
:10383000B1F5803F13D0B1F5003F12D0B1F5004F84
:1038400015D110E00A4B83607047082300E0102375
:10385000C3607047082300E010230361704708230A
:1038600004E0102302E000238361042343607047D7
:1038700001010100CA782DE9F041D40648BF8C78D7
:103880000E8802F00F0348BF234316F0FF0F1ED02F
:10389000016800244FF0010E4FF00F0C0EFA04F7F0
:1038A00037EA06050FD1A5000CFA05F821EA080150
:1038B00003FA05F5282A41EA050101D1476102E032
:1038C000482A08BF07610134082CE7D10160FF2EA8
:1038D00020D9416800244FF0010E4FF00F0C04F185
:1038E00008050EFA05F535EA06070FD1A7000CFA10
:1038F00007F821EA080103FA07F7282A41EA070135
:1039000001D1456102E0482A08BF05610134082C55
:10391000E5D14160BDE8F0810AB1016170474161C4
:10392000704700000028164A30B500F44015B4BFB7
:10393000D3695368B5F5401F84B206D1556823F0AA
:10394000706325F0706555600EE0C20255BF420DF0
:1039500003221201C0F303454CBFAA4004FA02F24D
:1039600023EA020343F0706319B1420D120194403F
:103970002343034A0028B4BFD361536030BD00BF66
:1039800000000140044B5A6909B1104301E022EAEA
:1039900000005861704700BF00100240044B9A6954
:1039A00009B1104301E022EA00009861704700BFAE
:1039B00000100240044BDA6909B1104301E022EA29
:1039C0000000D861704700BF00100240034B044A5A
:1039D0005A6002F188325A60704700BF00200240EE
:1039E00023016745FFF7F2BF024A136943F08003E2
:1039F0001361704700200240FFF7F6BF084BDA68FA
:103A0000D10709D4DA68520708D4DB6813F0100F25
:103A100014BF032004207047012070470220704724
:103A20000020024010B50446FFF7E8FF012806D148
:103A30001CB1FFF7E3FF013CF8E7052010BD002CA7
:103A400008BF052010BD000070B505464FF40050BA
:103A50000E46FFF7E7FF04280ED1084C4FF4005044
:103A6000236943F0010323612E80FFF7DBFF41F65A
:103A7000FE7322691340236170BD00BF0020024025
:103A800073B5002306464FF400500D460193FFF72F
:103A9000C9FF04281AD10E4C4FF40050236943F09B
:103AA00001032361ABB23380FFF7BCFF042808D1C8
:103AB00002360196019B2D0C1D804FF40050FFF73C
:103AC000B1FF41F6FE7322691340236102B070BD5D
:103AD0000020024038B505464FF43020FFF7A2FF22
:103AE000042812D1094C4FF43020236943F002031B
:103AF00023616561236943F040032361FFF792FF6F
:103B000041F6FD7322691340236138BD0020024055
:103B10004FF6FE73026813400360002303604360A6
:103B20008360C360284B984201D1284A27E0284B84
:103B3000984201D1254A2AE0264B984201D1234AD6
:103B40002DE0254B984201D1204A30E0234B98428A
:103B500001D11E4A33E0224B984204D11B4A5368DC
:103B600043F470032EE01F4B984204D1174A536868
:103B700043F0706326E01C4B984204D11B4A536803
:103B800043F00F031EE01A4B984204D1174A5368C2
:103B900043F0F00316E0174B984204D1134A5368E0
:103BA00043F470630EE0144B984204D10F4A5368FB
:103BB00043F4704306E0114B984204D10B4A53681A
:103BC00043F4702353607047080002400000024035
:103BD0001C000240300002404400024058000240F5
:103BE0006C000240800002400804024000040240D1
:103BF0001C040240300402404404024058040240C5
:103C00000A6A10B58C68036814430A6923F4FF43F9
:103C100014434A6923F0700314438A691443CA6940
:103C200014434A6A14438A6A224313430360CB68ED
:103C300043600B6883604B68C36010BD19B10368B3
:103C400043F0010303E04FF6FE7302681340036084
:103C500070470000C3004CBF034B044B1B6803427A
:103C600014BF012000207047000402400000024001
:103C7000FFF7F0BFC27810B503780AB3164A03F114
:103C80006043D1684278C943C1F30221C1F1040401
:103C900002FA04F40F22CA40817803F561430A4016
:103CA00022431201D2B283F800230378012259097A
:103CB00003F01F0302FA03F3084A42F8213010BD53
:103CC0005A09012103F01F0301FA03F303492032CB
:103CD00041F8223010BD00BF00ED00E000E100E03F
:103CE000D0400B1CD1409C46203AD340184352424E
:103CF00063469340184370479140031C90409C4694
:103D0000203A9340194352426346D34019437047C7
:103D100053B94AB9002908BF00281CBF4FF0FF3132
:103D20004FF0FF3000F082B9ADF1080C6DE904CE20
:103D300000F006F8DDF804E0DDE9022304B0704786
:103D40002DE9F04F8C460C460546099E002B4FD1BD
:103D50008A4217466BD9B2FA82FEBEF1000F0BD031
:103D6000CEF1200520FA05F501FA0EF345EA030C21
:103D700002FA0EF700FA0EF5390CBCFBF1F0BAB2FC
:103D800001FB10C300FB02F84FEA154C4CEA034458
:103D9000A04509D9E41900F1FF3380F02881A0453E
:103DA00040F2258102383C44C8EB0404B4FBF1F333
:103DB00001FB134C03FB02F2ACB244EA0C418A4211
:103DC00009D9C91903F1FF3480F00F818A4240F20A
:103DD0000C81023B39448A1A43EA00400021002E3C
:103DE00063D022FA0EF2002386E80C00BDE8F08FC3
:103DF0008B4207D9002E56D0002186E811000846D4
:103E0000BDE8F08FB3FA83F1002940F09380A3421C
:103E100002D3824200F2FE80851A64EB03039C46C3
:103E20000120002E41D086E82010BDE8F08F12B9A5
:103E30000127B7FBF2F7B7FA87FEBEF1000F36D1C4
:103E4000E41B4FEA17481FFA87F90121B4FBF8F386
:103E500008FB134409FB03F24FEA154C4CEA0444F7
:103E6000A24207D9E41903F1FF3002D2A24200F2C4
:103E7000D3800346A41AB4FBF8F008FB104809FBF2
:103E800000F9ACB244EA0842914507D9D21900F1D1
:103E9000FF3402D2914500F2BA802046C9EB0202FB
:103EA00040EA03409BE731463046BDE8F08F07FA11
:103EB0000EF7CEF1200C24FA0CF34FEA1748B3FBAF
:103EC000F8FA1FFA87F908FB1A3520FA0CFC04FAF5
:103ED0000EF40AFB09FB4CEA040C4FEA1C4242EACE
:103EE00005439B4500FA0EF50AD9DB190AF1FF32AA
:103EF00080F08B809B4540F28880AAF1020A3B4407
:103F0000CBEB0303B3FBF8F008FB103300FB09F421
:103F10001FFA8CFC4CEA03439C4207D9DB1900F1E1
:103F2000FF326ED29C426CD902383B441C1B40EAE3
:103F30000A418BE7C1F1200E8B4022FA0EFC4CEABD
:103F4000030C24FA0EF74FEA1C49B7FBF9FA1FFAE3
:103F50008CF309FB1A7720FA0EF88C400AFB03F564
:103F600048EA04044FEA144848EA0747BD4202FA07
:103F700001F200FA01FB09D917EB0C070AF1FF3037
:103F800041D2BD423FD9AAF1020A67447F1BB7FB69
:103F9000F9F509FB157705FB03F3A4B244EA0747DB
:103FA000BB4208D917EB0C0705F1FF3027D2BB4203
:103FB00025D9023D674445EA0A40A0FB0289FF1A61
:103FC0004F4545464C4614D329D066B3BBEB050399
:103FD00067EB040707FA0EFECB40CF404EEA03031F
:103FE00086E888000021BDE8F08F2346F3E61846F6
:103FF000DAE6B8EB020569EB0C040138E5E70546A3
:10400000D9E7104692E78246C0E7924678E7023841
:104010003A4443E7084604E7023B3C442AE7C345E9
:10402000E7D33C46D1E73146BDE8F08F704700BF8B
:10403000844641EA000313F0030349D1403A23D3F5
:104040000B6803604B6843608B688360CB68C36018
:104050000B6903614B6943618B698361CB69C36100
:104060000B6A03624B6A43628B6A8362CB6AC362E8
:104070000B6B03634B6B43638B6B8363CB6BC363D0
:1040800040304031403ADBD230320BD30B68036012
:104090004B6843608B688360CB68C360103010311D
:1040A000103AF3D20C3205D351F8043B40F8043BEC
:1040B000043AF9D2043208D0D2071CBF11F8013BF0
:1040C00000F8013B01D30B8803806046704700BFB6
:1040D000082A13D38B07B1D010F00303AED0C3F17D
:1040E0000403D21ADB071CBF11F8013B00F8013BA7
:1040F000A4D331F8023B20F8023B9FE7043AD9D31E
:10410000013A11F8013B00F8013BF9D20B7803703A
:104110004B7843708B7883706046704770B4840727
:1041200046D0541E002A41D0CDB2034602E0621EA2
:10413000E4B3144603F8015B9A07F8D1032C2ED997
:10414000CDB245EA05250F2C45EA054519D9264685
:1041500003F11002103E0F2E42F8105C42F80C5C86
:1041600042F8085C42F8045C02F11002F2D8A4F1B3
:10417000100222F00F0204F00F041032032C13443B
:104180000DD91E462246043A032A46F8045BFAD8A3
:10419000221F22F003020432134404F003042CB162
:1041A000C9B21C4403F8011BA342FBD170BC704789
:1041B00014460346C2E700BF830710B5044610D17A
:1041C0000268A2F1013323EA020313F0803F08D111
:1041D00050F8042FA2F1013323EA020313F0803FC9
:1041E000F6D003781BB110F8013F002BFBD100F093
:1041F0006BF8204610BD00BF70B411F0FF0434D03E
:1042000085070FD00378002B5AD09C422BD0431C3B
:1042100005E013F8012B002A4FD0944223D09A07CF
:104220001846F6D10E0206F47F462643036846EA96
:10423000064601E050F8043F86EA0305A5F1013285
:10424000A3F1013122EA050221EA0303134313F02B
:10425000803FEFD0037823B932E010F8013F002B04
:104260002ED09C42F9D170BC704784070BD00378E4
:10427000002BF8D0431C03E002780133002AF2D06F
:1042800099071846F8D10268A2F1013323EA020324
:1042900013F0803F08D150F8042FA2F1013323EA34
:1042A000020313F0803FF6D00378002BDBD010F828
:1042B000013F002BFBD170BC7047104670BC7047AB
:1042C000184670BC704700BF80EA0102844612F0B5
:1042D000030F4FD111F0030F32D14DF8044D11F0FF
:1042E000040F51F8043B0BD0A3F101329A4312F0B2
:1042F000803F04BF4CF8043B51F8043B16D100BF8B
:1043000051F8044BA3F101329A4312F0803FA4F11B
:1043100001320BD14CF8043BA24312F0803F04BFA2
:1043200051F8043B4CF8044BEAD023460CF8013B0F
:1043300013F0FF0F4FEA3323F8D15DF8044B7047B9
:1043400011F0010F06D011F8012B0CF8012B002AF7
:1043500008BF704711F0020FBFD031F8022B12F0E6
:10436000FF0F16BF2CF8022B8CF8002012F47F4FA1
:10437000B3D1704711F8012B0CF8012B002AF9D1A9
:10438000704700BF20F0030110F00300C0F10000EF
:1043900051F8043B00F1040C4FEACC0C6FF0000222
:1043A0001CBF22FA0CF213434FF0010C4CEA0C2C08
:1043B0004CEA0C4CA3EB0C0222EA030212EACC12E8
:1043C00004BF51F8043B0430F4D0C2F1000102EA0A
:1043D0000102B2FA82F2C2F11F0200EBD200704772
:1043E000002A3FD040EA010313F00303F0B425D1C3
:1043F000032A23D904680D68AC421FD1043A33D094
:10440000A4F1013525EA040414F0803F2FD1071DE3
:104410000D1D0DE057F8043B0E68A3F10134B342C3
:1044200024EA03040AD1043A1ED014F0803F21D1BB
:10443000032A2946384605F10405EBD803780C78A1
:10444000013A9C420BD17AB114B915E062B173B153
:1044500010F8013F11F8014F013AA342F6D0181BA2
:10446000F0BC7047104670471046F0BC70471846C5
:10447000F0BC70470020F3E72046F1E72D00002054
:1044800000002E0000300000C201002003000000E8
:104490008B460008300000000000000064000000AF
:1044A000C401002003000000814600083000000025
:1044B0000000000064000000C601002003000000AE
:1044C00092460008E8030000320000008813000054
:1044D000C801002003000000A24600080000000000
:1044E0000000000002000000000C0140400000003D
:1044F00000080040340800400002000008000240AC
:1045000002000000000C0140800000000008004094
:104510003808004000040000440002400020000071
:10452000000801400800000000000040400000407A
:10453000001000008000024000000002000801405E
:1045400004000000000000403C00004000080000A3
:104550000800024002000000FFFF000000FF3200E0
:104560003F00000000001F00003F0000003F3F0030
:10457000746F6F206C61726765207769647468007E
:10458000746F6F206C617267652070726563697308
:10459000696F6E00302E30002D0020006F6C6C694A
:1045A000772E65752E756334682D6F72656F6C6537
:1045B0006400656E645800727800756C7A0053541C
:1045C0004142494C495A45004143524F00414C54E5
:1045D00020484F4C44004155544F004755494445ED
:1045E00044004C4F4954455200434952434C450006
:1045F000756E6B6E6F776E004C414E4400445249AD
:1046000046540053504F525400464C4950004155B7
:10461000544F54554E4500504F5320484F4C440082
:104620004252414B45005448524F570041564F4962
:1046300044204144534200475549444544204E4F8D
:1046400047505300534D4152542052544C00464C55
:104650004F5720484F4C44004F74686572004E6FAE
:10466000475053004E6F466978003244003344008F
:10467000444750530052544B20660052544B20463E
:1046800000507265666572726564204E6F6465499C
:1046900064004E6F64655374617475732052617465
:0846A0006500446562756700C6
:0846A80098F6FF7F01000000FD
:1046B00001000000BE450008C8450008CD450008BF
:1046C000D6450008DB450008E24500084A460008D8
:1046D000E9450008F0450008F8450008F0450008E5
:1046E000FD450008F045000803460008094600089B
:1046F0000E46000817460008204600082646000817
:104700002C46000837460008444600084E4600087C
:10471000584600085E460008644600086A460008DD
:104720006D46000870460008754600087B46000884
:1047300000A24A040000000000000000010203047F
:044740000607080957
:0400000508000000EF
:00000001FF
